{
	"UUPScontracts/CommunityStateManagerStorage.sol": {
		"CommunityStateManagerStorage": {
			"abi": [
				{
					"anonymous": false,
					"inputs": [
						{
							"indexed": true,
							"internalType": "uint256",
							"name": "communityId",
							"type": "uint256"
						},
						{
							"indexed": false,
							"internalType": "enum ICommunityGovernanceProfiles.CommunityState",
							"name": "newState",
							"type": "uint8"
						}
					],
					"name": "CommunityStateChanged",
					"type": "event"
				},
				{
					"inputs": [],
					"name": "contributionsContract",
					"outputs": [
						{
							"internalType": "contract ICommunityGovernanceContributions",
							"name": "",
							"type": "address"
						}
					],
					"stateMutability": "view",
					"type": "function"
				},
				{
					"inputs": [],
					"name": "multiSigContract",
					"outputs": [
						{
							"internalType": "contract ICommunityGovernanceMultiSig",
							"name": "",
							"type": "address"
						}
					],
					"stateMutability": "view",
					"type": "function"
				},
				{
					"inputs": [],
					"name": "profilesContract",
					"outputs": [
						{
							"internalType": "contract ICommunityGovernanceProfiles",
							"name": "",
							"type": "address"
						}
					],
					"stateMutability": "view",
					"type": "function"
				},
				{
					"inputs": [],
					"name": "rankingsContract",
					"outputs": [
						{
							"internalType": "contract ICommunityGovernanceRankings",
							"name": "",
							"type": "address"
						}
					],
					"stateMutability": "view",
					"type": "function"
				}
			],
			"devdoc": {
				"kind": "dev",
				"methods": {},
				"version": 1
			},
			"evm": {
				"assembly": "    /* \"UUPScontracts/CommunityStateManagerStorage.sol\":287:687  contract CommunityStateManagerStorage {... */\n  mstore(0x40, 0x80)\n  callvalue\n  dup1\n  iszero\n  tag_1\n  jumpi\n  0x00\n  dup1\n  revert\ntag_1:\n  pop\n  dataSize(sub_0)\n  dup1\n  dataOffset(sub_0)\n  0x00\n  codecopy\n  0x00\n  return\nstop\n\nsub_0: assembly {\n        /* \"UUPScontracts/CommunityStateManagerStorage.sol\":287:687  contract CommunityStateManagerStorage {... */\n      mstore(0x40, 0x80)\n      callvalue\n      dup1\n      iszero\n      tag_1\n      jumpi\n      0x00\n      dup1\n      revert\n    tag_1:\n      pop\n      jumpi(tag_2, lt(calldatasize, 0x04))\n      shr(0xe0, calldataload(0x00))\n      dup1\n      0x06428f02\n      eq\n      tag_3\n      jumpi\n      dup1\n      0x8faaefc8\n      eq\n      tag_4\n      jumpi\n      dup1\n      0xde04bbd2\n      eq\n      tag_5\n      jumpi\n      dup1\n      0xfa96a0e7\n      eq\n      tag_6\n      jumpi\n    tag_2:\n      0x00\n      dup1\n      revert\n        /* \"UUPScontracts/CommunityStateManagerStorage.sol\":331:383  ICommunityGovernanceProfiles public profilesContract */\n    tag_3:\n      tag_7\n      tag_8\n      jump\t// in\n    tag_7:\n      mload(0x40)\n      tag_9\n      swap2\n      swap1\n      tag_10\n      jump\t// in\n    tag_9:\n      mload(0x40)\n      dup1\n      swap2\n      sub\n      swap1\n      return\n        /* \"UUPScontracts/CommunityStateManagerStorage.sol\":515:567  ICommunityGovernanceMultiSig public multiSigContract */\n    tag_4:\n      tag_11\n      tag_12\n      jump\t// in\n    tag_11:\n      mload(0x40)\n      tag_13\n      swap2\n      swap1\n      tag_14\n      jump\t// in\n    tag_13:\n      mload(0x40)\n      dup1\n      swap2\n      sub\n      swap1\n      return\n        /* \"UUPScontracts/CommunityStateManagerStorage.sol\":447:509  ICommunityGovernanceContributions public contributionsContract */\n    tag_5:\n      tag_15\n      tag_16\n      jump\t// in\n    tag_15:\n      mload(0x40)\n      tag_17\n      swap2\n      swap1\n      tag_18\n      jump\t// in\n    tag_17:\n      mload(0x40)\n      dup1\n      swap2\n      sub\n      swap1\n      return\n        /* \"UUPScontracts/CommunityStateManagerStorage.sol\":389:441  ICommunityGovernanceRankings public rankingsContract */\n    tag_6:\n      tag_19\n      tag_20\n      jump\t// in\n    tag_19:\n      mload(0x40)\n      tag_21\n      swap2\n      swap1\n      tag_22\n      jump\t// in\n    tag_21:\n      mload(0x40)\n      dup1\n      swap2\n      sub\n      swap1\n      return\n        /* \"UUPScontracts/CommunityStateManagerStorage.sol\":331:383  ICommunityGovernanceProfiles public profilesContract */\n    tag_8:\n      0x00\n      dup1\n      sload\n      swap1\n      0x0100\n      exp\n      swap1\n      div\n      0xffffffffffffffffffffffffffffffffffffffff\n      and\n      dup2\n      jump\t// out\n        /* \"UUPScontracts/CommunityStateManagerStorage.sol\":515:567  ICommunityGovernanceMultiSig public multiSigContract */\n    tag_12:\n      0x03\n      0x00\n      swap1\n      sload\n      swap1\n      0x0100\n      exp\n      swap1\n      div\n      0xffffffffffffffffffffffffffffffffffffffff\n      and\n      dup2\n      jump\t// out\n        /* \"UUPScontracts/CommunityStateManagerStorage.sol\":447:509  ICommunityGovernanceContributions public contributionsContract */\n    tag_16:\n      0x02\n      0x00\n      swap1\n      sload\n      swap1\n      0x0100\n      exp\n      swap1\n      div\n      0xffffffffffffffffffffffffffffffffffffffff\n      and\n      dup2\n      jump\t// out\n        /* \"UUPScontracts/CommunityStateManagerStorage.sol\":389:441  ICommunityGovernanceRankings public rankingsContract */\n    tag_20:\n      0x01\n      0x00\n      swap1\n      sload\n      swap1\n      0x0100\n      exp\n      swap1\n      div\n      0xffffffffffffffffffffffffffffffffffffffff\n      and\n      dup2\n      jump\t// out\n        /* \"#utility.yul\":7:133   */\n    tag_23:\n        /* \"#utility.yul\":44:51   */\n      0x00\n        /* \"#utility.yul\":84:126   */\n      0xffffffffffffffffffffffffffffffffffffffff\n        /* \"#utility.yul\":77:82   */\n      dup3\n        /* \"#utility.yul\":73:127   */\n      and\n        /* \"#utility.yul\":62:127   */\n      swap1\n      pop\n        /* \"#utility.yul\":7:133   */\n      swap2\n      swap1\n      pop\n      jump\t// out\n        /* \"#utility.yul\":139:199   */\n    tag_24:\n        /* \"#utility.yul\":167:170   */\n      0x00\n        /* \"#utility.yul\":188:193   */\n      dup2\n        /* \"#utility.yul\":181:193   */\n      swap1\n      pop\n        /* \"#utility.yul\":139:199   */\n      swap2\n      swap1\n      pop\n      jump\t// out\n        /* \"#utility.yul\":205:347   */\n    tag_25:\n        /* \"#utility.yul\":255:264   */\n      0x00\n        /* \"#utility.yul\":288:341   */\n      tag_39\n        /* \"#utility.yul\":306:340   */\n      tag_40\n        /* \"#utility.yul\":315:339   */\n      tag_41\n        /* \"#utility.yul\":333:338   */\n      dup5\n        /* \"#utility.yul\":315:339   */\n      tag_23\n      jump\t// in\n    tag_41:\n        /* \"#utility.yul\":306:340   */\n      tag_24\n      jump\t// in\n    tag_40:\n        /* \"#utility.yul\":288:341   */\n      tag_23\n      jump\t// in\n    tag_39:\n        /* \"#utility.yul\":275:341   */\n      swap1\n      pop\n        /* \"#utility.yul\":205:347   */\n      swap2\n      swap1\n      pop\n      jump\t// out\n        /* \"#utility.yul\":353:479   */\n    tag_26:\n        /* \"#utility.yul\":403:412   */\n      0x00\n        /* \"#utility.yul\":436:473   */\n      tag_43\n        /* \"#utility.yul\":467:472   */\n      dup3\n        /* \"#utility.yul\":436:473   */\n      tag_25\n      jump\t// in\n    tag_43:\n        /* \"#utility.yul\":423:473   */\n      swap1\n      pop\n        /* \"#utility.yul\":353:479   */\n      swap2\n      swap1\n      pop\n      jump\t// out\n        /* \"#utility.yul\":485:648   */\n    tag_27:\n        /* \"#utility.yul\":572:581   */\n      0x00\n        /* \"#utility.yul\":605:642   */\n      tag_45\n        /* \"#utility.yul\":636:641   */\n      dup3\n        /* \"#utility.yul\":605:642   */\n      tag_26\n      jump\t// in\n    tag_45:\n        /* \"#utility.yul\":592:642   */\n      swap1\n      pop\n        /* \"#utility.yul\":485:648   */\n      swap2\n      swap1\n      pop\n      jump\t// out\n        /* \"#utility.yul\":654:859   */\n    tag_28:\n        /* \"#utility.yul\":778:852   */\n      tag_47\n        /* \"#utility.yul\":846:851   */\n      dup2\n        /* \"#utility.yul\":778:852   */\n      tag_27\n      jump\t// in\n    tag_47:\n        /* \"#utility.yul\":773:776   */\n      dup3\n        /* \"#utility.yul\":766:853   */\n      mstore\n        /* \"#utility.yul\":654:859   */\n      pop\n      pop\n      jump\t// out\n        /* \"#utility.yul\":865:1161   */\n    tag_10:\n        /* \"#utility.yul\":995:999   */\n      0x00\n        /* \"#utility.yul\":1033:1035   */\n      0x20\n        /* \"#utility.yul\":1022:1031   */\n      dup3\n        /* \"#utility.yul\":1018:1036   */\n      add\n        /* \"#utility.yul\":1010:1036   */\n      swap1\n      pop\n        /* \"#utility.yul\":1046:1154   */\n      tag_49\n        /* \"#utility.yul\":1151:1152   */\n      0x00\n        /* \"#utility.yul\":1140:1149   */\n      dup4\n        /* \"#utility.yul\":1136:1153   */\n      add\n        /* \"#utility.yul\":1127:1133   */\n      dup5\n        /* \"#utility.yul\":1046:1154   */\n      tag_28\n      jump\t// in\n    tag_49:\n        /* \"#utility.yul\":865:1161   */\n      swap3\n      swap2\n      pop\n      pop\n      jump\t// out\n        /* \"#utility.yul\":1167:1330   */\n    tag_29:\n        /* \"#utility.yul\":1254:1263   */\n      0x00\n        /* \"#utility.yul\":1287:1324   */\n      tag_51\n        /* \"#utility.yul\":1318:1323   */\n      dup3\n        /* \"#utility.yul\":1287:1324   */\n      tag_26\n      jump\t// in\n    tag_51:\n        /* \"#utility.yul\":1274:1324   */\n      swap1\n      pop\n        /* \"#utility.yul\":1167:1330   */\n      swap2\n      swap1\n      pop\n      jump\t// out\n        /* \"#utility.yul\":1336:1541   */\n    tag_30:\n        /* \"#utility.yul\":1460:1534   */\n      tag_53\n        /* \"#utility.yul\":1528:1533   */\n      dup2\n        /* \"#utility.yul\":1460:1534   */\n      tag_29\n      jump\t// in\n    tag_53:\n        /* \"#utility.yul\":1455:1458   */\n      dup3\n        /* \"#utility.yul\":1448:1535   */\n      mstore\n        /* \"#utility.yul\":1336:1541   */\n      pop\n      pop\n      jump\t// out\n        /* \"#utility.yul\":1547:1843   */\n    tag_14:\n        /* \"#utility.yul\":1677:1681   */\n      0x00\n        /* \"#utility.yul\":1715:1717   */\n      0x20\n        /* \"#utility.yul\":1704:1713   */\n      dup3\n        /* \"#utility.yul\":1700:1718   */\n      add\n        /* \"#utility.yul\":1692:1718   */\n      swap1\n      pop\n        /* \"#utility.yul\":1728:1836   */\n      tag_55\n        /* \"#utility.yul\":1833:1834   */\n      0x00\n        /* \"#utility.yul\":1822:1831   */\n      dup4\n        /* \"#utility.yul\":1818:1835   */\n      add\n        /* \"#utility.yul\":1809:1815   */\n      dup5\n        /* \"#utility.yul\":1728:1836   */\n      tag_30\n      jump\t// in\n    tag_55:\n        /* \"#utility.yul\":1547:1843   */\n      swap3\n      swap2\n      pop\n      pop\n      jump\t// out\n        /* \"#utility.yul\":1849:2017   */\n    tag_31:\n        /* \"#utility.yul\":1941:1950   */\n      0x00\n        /* \"#utility.yul\":1974:2011   */\n      tag_57\n        /* \"#utility.yul\":2005:2010   */\n      dup3\n        /* \"#utility.yul\":1974:2011   */\n      tag_26\n      jump\t// in\n    tag_57:\n        /* \"#utility.yul\":1961:2011   */\n      swap1\n      pop\n        /* \"#utility.yul\":1849:2017   */\n      swap2\n      swap1\n      pop\n      jump\t// out\n        /* \"#utility.yul\":2023:2238   */\n    tag_32:\n        /* \"#utility.yul\":2152:2231   */\n      tag_59\n        /* \"#utility.yul\":2225:2230   */\n      dup2\n        /* \"#utility.yul\":2152:2231   */\n      tag_31\n      jump\t// in\n    tag_59:\n        /* \"#utility.yul\":2147:2150   */\n      dup3\n        /* \"#utility.yul\":2140:2232   */\n      mstore\n        /* \"#utility.yul\":2023:2238   */\n      pop\n      pop\n      jump\t// out\n        /* \"#utility.yul\":2244:2550   */\n    tag_18:\n        /* \"#utility.yul\":2379:2383   */\n      0x00\n        /* \"#utility.yul\":2417:2419   */\n      0x20\n        /* \"#utility.yul\":2406:2415   */\n      dup3\n        /* \"#utility.yul\":2402:2420   */\n      add\n        /* \"#utility.yul\":2394:2420   */\n      swap1\n      pop\n        /* \"#utility.yul\":2430:2543   */\n      tag_61\n        /* \"#utility.yul\":2540:2541   */\n      0x00\n        /* \"#utility.yul\":2529:2538   */\n      dup4\n        /* \"#utility.yul\":2525:2542   */\n      add\n        /* \"#utility.yul\":2516:2522   */\n      dup5\n        /* \"#utility.yul\":2430:2543   */\n      tag_32\n      jump\t// in\n    tag_61:\n        /* \"#utility.yul\":2244:2550   */\n      swap3\n      swap2\n      pop\n      pop\n      jump\t// out\n        /* \"#utility.yul\":2556:2719   */\n    tag_33:\n        /* \"#utility.yul\":2643:2652   */\n      0x00\n        /* \"#utility.yul\":2676:2713   */\n      tag_63\n        /* \"#utility.yul\":2707:2712   */\n      dup3\n        /* \"#utility.yul\":2676:2713   */\n      tag_26\n      jump\t// in\n    tag_63:\n        /* \"#utility.yul\":2663:2713   */\n      swap1\n      pop\n        /* \"#utility.yul\":2556:2719   */\n      swap2\n      swap1\n      pop\n      jump\t// out\n        /* \"#utility.yul\":2725:2930   */\n    tag_34:\n        /* \"#utility.yul\":2849:2923   */\n      tag_65\n        /* \"#utility.yul\":2917:2922   */\n      dup2\n        /* \"#utility.yul\":2849:2923   */\n      tag_33\n      jump\t// in\n    tag_65:\n        /* \"#utility.yul\":2844:2847   */\n      dup3\n        /* \"#utility.yul\":2837:2924   */\n      mstore\n        /* \"#utility.yul\":2725:2930   */\n      pop\n      pop\n      jump\t// out\n        /* \"#utility.yul\":2936:3232   */\n    tag_22:\n        /* \"#utility.yul\":3066:3070   */\n      0x00\n        /* \"#utility.yul\":3104:3106   */\n      0x20\n        /* \"#utility.yul\":3093:3102   */\n      dup3\n        /* \"#utility.yul\":3089:3107   */\n      add\n        /* \"#utility.yul\":3081:3107   */\n      swap1\n      pop\n        /* \"#utility.yul\":3117:3225   */\n      tag_67\n        /* \"#utility.yul\":3222:3223   */\n      0x00\n        /* \"#utility.yul\":3211:3220   */\n      dup4\n        /* \"#utility.yul\":3207:3224   */\n      add\n        /* \"#utility.yul\":3198:3204   */\n      dup5\n        /* \"#utility.yul\":3117:3225   */\n      tag_34\n      jump\t// in\n    tag_67:\n        /* \"#utility.yul\":2936:3232   */\n      swap3\n      swap2\n      pop\n      pop\n      jump\t// out\n\n    auxdata: 0xa26469706673582212202ea25464a0c2fe15e4cfd7db59f5d7fbf7387d7dcb5943ac4a8ca1c0ab74c31364736f6c634300081a0033\n}\n",
				"bytecode": {
					"linkReferences": {},
					"object": "6080604052348015600e575f80fd5b506102cc8061001c5f395ff3fe608060405234801561000f575f80fd5b506004361061004a575f3560e01c806306428f021461004e5780638faaefc81461006c578063de04bbd21461008a578063fa96a0e7146100a8575b5f80fd5b6100566100c6565b60405161006391906101d2565b60405180910390f35b6100746100e9565b604051610081919061020b565b60405180910390f35b61009261010e565b60405161009f9190610244565b60405180910390f35b6100b0610133565b6040516100bd919061027d565b60405180910390f35b5f8054906101000a900473ffffffffffffffffffffffffffffffffffffffff1681565b60035f9054906101000a900473ffffffffffffffffffffffffffffffffffffffff1681565b60025f9054906101000a900473ffffffffffffffffffffffffffffffffffffffff1681565b60015f9054906101000a900473ffffffffffffffffffffffffffffffffffffffff1681565b5f73ffffffffffffffffffffffffffffffffffffffff82169050919050565b5f819050919050565b5f61019a61019561019084610158565b610177565b610158565b9050919050565b5f6101ab82610180565b9050919050565b5f6101bc826101a1565b9050919050565b6101cc816101b2565b82525050565b5f6020820190506101e55f8301846101c3565b92915050565b5f6101f5826101a1565b9050919050565b610205816101eb565b82525050565b5f60208201905061021e5f8301846101fc565b92915050565b5f61022e826101a1565b9050919050565b61023e81610224565b82525050565b5f6020820190506102575f830184610235565b92915050565b5f610267826101a1565b9050919050565b6102778161025d565b82525050565b5f6020820190506102905f83018461026e565b9291505056fea26469706673582212202ea25464a0c2fe15e4cfd7db59f5d7fbf7387d7dcb5943ac4a8ca1c0ab74c31364736f6c634300081a0033",
					"opcodes": "PUSH1 0x80 PUSH1 0x40 MSTORE CALLVALUE DUP1 ISZERO PUSH1 0xE JUMPI PUSH0 DUP1 REVERT JUMPDEST POP PUSH2 0x2CC DUP1 PUSH2 0x1C PUSH0 CODECOPY PUSH0 RETURN INVALID PUSH1 0x80 PUSH1 0x40 MSTORE CALLVALUE DUP1 ISZERO PUSH2 0xF JUMPI PUSH0 DUP1 REVERT JUMPDEST POP PUSH1 0x4 CALLDATASIZE LT PUSH2 0x4A JUMPI PUSH0 CALLDATALOAD PUSH1 0xE0 SHR DUP1 PUSH4 0x6428F02 EQ PUSH2 0x4E JUMPI DUP1 PUSH4 0x8FAAEFC8 EQ PUSH2 0x6C JUMPI DUP1 PUSH4 0xDE04BBD2 EQ PUSH2 0x8A JUMPI DUP1 PUSH4 0xFA96A0E7 EQ PUSH2 0xA8 JUMPI JUMPDEST PUSH0 DUP1 REVERT JUMPDEST PUSH2 0x56 PUSH2 0xC6 JUMP JUMPDEST PUSH1 0x40 MLOAD PUSH2 0x63 SWAP2 SWAP1 PUSH2 0x1D2 JUMP JUMPDEST PUSH1 0x40 MLOAD DUP1 SWAP2 SUB SWAP1 RETURN JUMPDEST PUSH2 0x74 PUSH2 0xE9 JUMP JUMPDEST PUSH1 0x40 MLOAD PUSH2 0x81 SWAP2 SWAP1 PUSH2 0x20B JUMP JUMPDEST PUSH1 0x40 MLOAD DUP1 SWAP2 SUB SWAP1 RETURN JUMPDEST PUSH2 0x92 PUSH2 0x10E JUMP JUMPDEST PUSH1 0x40 MLOAD PUSH2 0x9F SWAP2 SWAP1 PUSH2 0x244 JUMP JUMPDEST PUSH1 0x40 MLOAD DUP1 SWAP2 SUB SWAP1 RETURN JUMPDEST PUSH2 0xB0 PUSH2 0x133 JUMP JUMPDEST PUSH1 0x40 MLOAD PUSH2 0xBD SWAP2 SWAP1 PUSH2 0x27D JUMP JUMPDEST PUSH1 0x40 MLOAD DUP1 SWAP2 SUB SWAP1 RETURN JUMPDEST PUSH0 DUP1 SLOAD SWAP1 PUSH2 0x100 EXP SWAP1 DIV PUSH20 0xFFFFFFFFFFFFFFFFFFFFFFFFFFFFFFFFFFFFFFFF AND DUP2 JUMP JUMPDEST PUSH1 0x3 PUSH0 SWAP1 SLOAD SWAP1 PUSH2 0x100 EXP SWAP1 DIV PUSH20 0xFFFFFFFFFFFFFFFFFFFFFFFFFFFFFFFFFFFFFFFF AND DUP2 JUMP JUMPDEST PUSH1 0x2 PUSH0 SWAP1 SLOAD SWAP1 PUSH2 0x100 EXP SWAP1 DIV PUSH20 0xFFFFFFFFFFFFFFFFFFFFFFFFFFFFFFFFFFFFFFFF AND DUP2 JUMP JUMPDEST PUSH1 0x1 PUSH0 SWAP1 SLOAD SWAP1 PUSH2 0x100 EXP SWAP1 DIV PUSH20 0xFFFFFFFFFFFFFFFFFFFFFFFFFFFFFFFFFFFFFFFF AND DUP2 JUMP JUMPDEST PUSH0 PUSH20 0xFFFFFFFFFFFFFFFFFFFFFFFFFFFFFFFFFFFFFFFF DUP3 AND SWAP1 POP SWAP2 SWAP1 POP JUMP JUMPDEST PUSH0 DUP2 SWAP1 POP SWAP2 SWAP1 POP JUMP JUMPDEST PUSH0 PUSH2 0x19A PUSH2 0x195 PUSH2 0x190 DUP5 PUSH2 0x158 JUMP JUMPDEST PUSH2 0x177 JUMP JUMPDEST PUSH2 0x158 JUMP JUMPDEST SWAP1 POP SWAP2 SWAP1 POP JUMP JUMPDEST PUSH0 PUSH2 0x1AB DUP3 PUSH2 0x180 JUMP JUMPDEST SWAP1 POP SWAP2 SWAP1 POP JUMP JUMPDEST PUSH0 PUSH2 0x1BC DUP3 PUSH2 0x1A1 JUMP JUMPDEST SWAP1 POP SWAP2 SWAP1 POP JUMP JUMPDEST PUSH2 0x1CC DUP2 PUSH2 0x1B2 JUMP JUMPDEST DUP3 MSTORE POP POP JUMP JUMPDEST PUSH0 PUSH1 0x20 DUP3 ADD SWAP1 POP PUSH2 0x1E5 PUSH0 DUP4 ADD DUP5 PUSH2 0x1C3 JUMP JUMPDEST SWAP3 SWAP2 POP POP JUMP JUMPDEST PUSH0 PUSH2 0x1F5 DUP3 PUSH2 0x1A1 JUMP JUMPDEST SWAP1 POP SWAP2 SWAP1 POP JUMP JUMPDEST PUSH2 0x205 DUP2 PUSH2 0x1EB JUMP JUMPDEST DUP3 MSTORE POP POP JUMP JUMPDEST PUSH0 PUSH1 0x20 DUP3 ADD SWAP1 POP PUSH2 0x21E PUSH0 DUP4 ADD DUP5 PUSH2 0x1FC JUMP JUMPDEST SWAP3 SWAP2 POP POP JUMP JUMPDEST PUSH0 PUSH2 0x22E DUP3 PUSH2 0x1A1 JUMP JUMPDEST SWAP1 POP SWAP2 SWAP1 POP JUMP JUMPDEST PUSH2 0x23E DUP2 PUSH2 0x224 JUMP JUMPDEST DUP3 MSTORE POP POP JUMP JUMPDEST PUSH0 PUSH1 0x20 DUP3 ADD SWAP1 POP PUSH2 0x257 PUSH0 DUP4 ADD DUP5 PUSH2 0x235 JUMP JUMPDEST SWAP3 SWAP2 POP POP JUMP JUMPDEST PUSH0 PUSH2 0x267 DUP3 PUSH2 0x1A1 JUMP JUMPDEST SWAP1 POP SWAP2 SWAP1 POP JUMP JUMPDEST PUSH2 0x277 DUP2 PUSH2 0x25D JUMP JUMPDEST DUP3 MSTORE POP POP JUMP JUMPDEST PUSH0 PUSH1 0x20 DUP3 ADD SWAP1 POP PUSH2 0x290 PUSH0 DUP4 ADD DUP5 PUSH2 0x26E JUMP JUMPDEST SWAP3 SWAP2 POP POP JUMP INVALID LOG2 PUSH5 0x6970667358 0x22 SLT KECCAK256 0x2E LOG2 SLOAD PUSH5 0xA0C2FE15E4 0xCF 0xD7 0xDB MSIZE CREATE2 0xD7 0xFB 0xF7 CODESIZE PUSH30 0x7DCB5943AC4A8CA1C0AB74C31364736F6C634300081A0033000000000000 "
				},
				"gasEstimates": {
					"creation": {
						"codeDepositCost": "143200",
						"executionCost": "188",
						"totalCost": "143388"
					},
					"external": {
						"contributionsContract()": "infinite",
						"multiSigContract()": "infinite",
						"profilesContract()": "infinite",
						"rankingsContract()": "infinite"
					}
				},
				"methodIdentifiers": {
					"contributionsContract()": "de04bbd2",
					"multiSigContract()": "8faaefc8",
					"profilesContract()": "06428f02",
					"rankingsContract()": "fa96a0e7"
				}
			},
			"storageLayout": {
				"storage": [
					{
						"astId": 1640,
						"contract": "UUPScontracts/CommunityStateManagerStorage.sol:CommunityStateManagerStorage",
						"label": "profilesContract",
						"offset": 0,
						"slot": "0",
						"type": "t_contract(ICommunityGovernanceProfiles)1932"
					},
					{
						"astId": 1643,
						"contract": "UUPScontracts/CommunityStateManagerStorage.sol:CommunityStateManagerStorage",
						"label": "rankingsContract",
						"offset": 0,
						"slot": "1",
						"type": "t_contract(ICommunityGovernanceRankings)1942"
					},
					{
						"astId": 1646,
						"contract": "UUPScontracts/CommunityStateManagerStorage.sol:CommunityStateManagerStorage",
						"label": "contributionsContract",
						"offset": 0,
						"slot": "2",
						"type": "t_contract(ICommunityGovernanceContributions)1760"
					},
					{
						"astId": 1649,
						"contract": "UUPScontracts/CommunityStateManagerStorage.sol:CommunityStateManagerStorage",
						"label": "multiSigContract",
						"offset": 0,
						"slot": "3",
						"type": "t_contract(ICommunityGovernanceMultiSig)1822"
					}
				],
				"types": {
					"t_contract(ICommunityGovernanceContributions)1760": {
						"encoding": "inplace",
						"label": "contract ICommunityGovernanceContributions",
						"numberOfBytes": "20"
					},
					"t_contract(ICommunityGovernanceMultiSig)1822": {
						"encoding": "inplace",
						"label": "contract ICommunityGovernanceMultiSig",
						"numberOfBytes": "20"
					},
					"t_contract(ICommunityGovernanceProfiles)1932": {
						"encoding": "inplace",
						"label": "contract ICommunityGovernanceProfiles",
						"numberOfBytes": "20"
					},
					"t_contract(ICommunityGovernanceRankings)1942": {
						"encoding": "inplace",
						"label": "contract ICommunityGovernanceRankings",
						"numberOfBytes": "20"
					}
				}
			},
			"userdoc": {
				"kind": "user",
				"methods": {},
				"version": 1
			}
		}
	}
}