{
	"UUPScontracts/CommunityGovernanceMultisigImplementation.sol": {
		"CommunityGovernanceMultiSigImplementation": {
			"abi": [
				{
					"inputs": [],
					"stateMutability": "nonpayable",
					"type": "constructor"
				},
				{
					"inputs": [
						{
							"internalType": "address",
							"name": "target",
							"type": "address"
						}
					],
					"name": "AddressEmptyCode",
					"type": "error"
				},
				{
					"inputs": [
						{
							"internalType": "address",
							"name": "implementation",
							"type": "address"
						}
					],
					"name": "ERC1967InvalidImplementation",
					"type": "error"
				},
				{
					"inputs": [],
					"name": "ERC1967NonPayable",
					"type": "error"
				},
				{
					"inputs": [],
					"name": "FailedInnerCall",
					"type": "error"
				},
				{
					"inputs": [],
					"name": "InvalidInitialization",
					"type": "error"
				},
				{
					"inputs": [],
					"name": "NotInitializing",
					"type": "error"
				},
				{
					"inputs": [
						{
							"internalType": "address",
							"name": "owner",
							"type": "address"
						}
					],
					"name": "OwnableInvalidOwner",
					"type": "error"
				},
				{
					"inputs": [
						{
							"internalType": "address",
							"name": "account",
							"type": "address"
						}
					],
					"name": "OwnableUnauthorizedAccount",
					"type": "error"
				},
				{
					"inputs": [],
					"name": "UUPSUnauthorizedCallContext",
					"type": "error"
				},
				{
					"inputs": [
						{
							"internalType": "bytes32",
							"name": "slot",
							"type": "bytes32"
						}
					],
					"name": "UUPSUnsupportedProxiableUUID",
					"type": "error"
				},
				{
					"anonymous": false,
					"inputs": [
						{
							"indexed": false,
							"internalType": "uint64",
							"name": "version",
							"type": "uint64"
						}
					],
					"name": "Initialized",
					"type": "event"
				},
				{
					"anonymous": false,
					"inputs": [
						{
							"indexed": true,
							"internalType": "uint256",
							"name": "communityId",
							"type": "uint256"
						},
						{
							"indexed": true,
							"internalType": "address",
							"name": "member",
							"type": "address"
						}
					],
					"name": "MemberRemoved",
					"type": "event"
				},
				{
					"anonymous": false,
					"inputs": [
						{
							"indexed": true,
							"internalType": "address",
							"name": "previousOwner",
							"type": "address"
						},
						{
							"indexed": true,
							"internalType": "address",
							"name": "newOwner",
							"type": "address"
						}
					],
					"name": "OwnershipTransferred",
					"type": "event"
				},
				{
					"anonymous": false,
					"inputs": [
						{
							"indexed": true,
							"internalType": "uint256",
							"name": "communityId",
							"type": "uint256"
						},
						{
							"indexed": true,
							"internalType": "uint256",
							"name": "proposalId",
							"type": "uint256"
						},
						{
							"indexed": false,
							"internalType": "enum CommunityGovernanceMultiSigStorage.ProposalType",
							"name": "proposalType",
							"type": "uint8"
						}
					],
					"name": "ProposalCreated",
					"type": "event"
				},
				{
					"anonymous": false,
					"inputs": [
						{
							"indexed": true,
							"internalType": "uint256",
							"name": "communityId",
							"type": "uint256"
						},
						{
							"indexed": true,
							"internalType": "uint256",
							"name": "proposalId",
							"type": "uint256"
						}
					],
					"name": "ProposalExecuted",
					"type": "event"
				},
				{
					"anonymous": false,
					"inputs": [
						{
							"indexed": true,
							"internalType": "uint256",
							"name": "communityId",
							"type": "uint256"
						},
						{
							"indexed": true,
							"internalType": "uint256",
							"name": "proposalId",
							"type": "uint256"
						},
						{
							"indexed": false,
							"internalType": "address",
							"name": "signer",
							"type": "address"
						}
					],
					"name": "ProposalSigned",
					"type": "event"
				},
				{
					"anonymous": false,
					"inputs": [
						{
							"indexed": true,
							"internalType": "uint256",
							"name": "communityId",
							"type": "uint256"
						},
						{
							"indexed": false,
							"internalType": "uint256",
							"name": "newAmount",
							"type": "uint256"
						}
					],
					"name": "RespectToDistributeChanged",
					"type": "event"
				},
				{
					"anonymous": false,
					"inputs": [
						{
							"indexed": true,
							"internalType": "uint256",
							"name": "communityId",
							"type": "uint256"
						},
						{
							"indexed": false,
							"internalType": "uint256",
							"name": "amount",
							"type": "uint256"
						}
					],
					"name": "TokensMinted",
					"type": "event"
				},
				{
					"anonymous": false,
					"inputs": [
						{
							"indexed": true,
							"internalType": "uint256",
							"name": "communityId",
							"type": "uint256"
						},
						{
							"indexed": false,
							"internalType": "address[5]",
							"name": "topUsers",
							"type": "address[5]"
						}
					],
					"name": "TopRespectedUsersUpdated",
					"type": "event"
				},
				{
					"anonymous": false,
					"inputs": [
						{
							"indexed": true,
							"internalType": "address",
							"name": "implementation",
							"type": "address"
						}
					],
					"name": "Upgraded",
					"type": "event"
				},
				{
					"inputs": [],
					"name": "UPGRADE_INTERFACE_VERSION",
					"outputs": [
						{
							"internalType": "string",
							"name": "",
							"type": "string"
						}
					],
					"stateMutability": "view",
					"type": "function"
				},
				{
					"inputs": [],
					"name": "contributionsContract",
					"outputs": [
						{
							"internalType": "contract ICommunityGovernanceContributions",
							"name": "",
							"type": "address"
						}
					],
					"stateMutability": "view",
					"type": "function"
				},
				{
					"inputs": [
						{
							"internalType": "uint256",
							"name": "_communityId",
							"type": "uint256"
						},
						{
							"internalType": "uint256",
							"name": "_proposalId",
							"type": "uint256"
						},
						{
							"internalType": "enum CommunityGovernanceMultiSigStorage.ProposalType",
							"name": "_type",
							"type": "uint8"
						},
						{
							"internalType": "uint256",
							"name": "_value",
							"type": "uint256"
						},
						{
							"internalType": "address",
							"name": "_targetMember",
							"type": "address"
						}
					],
					"name": "createProposal",
					"outputs": [],
					"stateMutability": "nonpayable",
					"type": "function"
				},
				{
					"inputs": [
						{
							"internalType": "uint256",
							"name": "_communityId",
							"type": "uint256"
						}
					],
					"name": "getMultiSigInfo",
					"outputs": [
						{
							"internalType": "uint256",
							"name": "respectToDistribute",
							"type": "uint256"
						},
						{
							"internalType": "address[5]",
							"name": "topRespectedUsers",
							"type": "address[5]"
						}
					],
					"stateMutability": "view",
					"type": "function"
				},
				{
					"inputs": [
						{
							"internalType": "uint256",
							"name": "_communityId",
							"type": "uint256"
						},
						{
							"internalType": "uint256",
							"name": "_proposalId",
							"type": "uint256"
						}
					],
					"name": "getProposal",
					"outputs": [
						{
							"internalType": "enum CommunityGovernanceMultiSigStorage.ProposalType",
							"name": "proposalType",
							"type": "uint8"
						},
						{
							"internalType": "uint256",
							"name": "value",
							"type": "uint256"
						},
						{
							"internalType": "address",
							"name": "targetMember",
							"type": "address"
						},
						{
							"internalType": "uint256",
							"name": "signatureCount",
							"type": "uint256"
						},
						{
							"internalType": "bool",
							"name": "executed",
							"type": "bool"
						}
					],
					"stateMutability": "view",
					"type": "function"
				},
				{
					"inputs": [
						{
							"internalType": "uint256",
							"name": "_communityId",
							"type": "uint256"
						}
					],
					"name": "getRespectToDistribute",
					"outputs": [
						{
							"internalType": "uint256",
							"name": "",
							"type": "uint256"
						}
					],
					"stateMutability": "view",
					"type": "function"
				},
				{
					"inputs": [
						{
							"internalType": "uint256",
							"name": "_communityId",
							"type": "uint256"
						}
					],
					"name": "getTopRespectedUsers",
					"outputs": [
						{
							"internalType": "address[5]",
							"name": "",
							"type": "address[5]"
						}
					],
					"stateMutability": "view",
					"type": "function"
				},
				{
					"inputs": [
						{
							"internalType": "uint256",
							"name": "_communityId",
							"type": "uint256"
						},
						{
							"internalType": "uint256",
							"name": "_proposalId",
							"type": "uint256"
						},
						{
							"internalType": "address",
							"name": "_signer",
							"type": "address"
						}
					],
					"name": "hasSignedProposal",
					"outputs": [
						{
							"internalType": "bool",
							"name": "",
							"type": "bool"
						}
					],
					"stateMutability": "view",
					"type": "function"
				},
				{
					"inputs": [
						{
							"internalType": "address",
							"name": "initialOwner",
							"type": "address"
						}
					],
					"name": "initialize",
					"outputs": [],
					"stateMutability": "nonpayable",
					"type": "function"
				},
				{
					"inputs": [],
					"name": "owner",
					"outputs": [
						{
							"internalType": "address",
							"name": "",
							"type": "address"
						}
					],
					"stateMutability": "view",
					"type": "function"
				},
				{
					"inputs": [],
					"name": "profilesContract",
					"outputs": [
						{
							"internalType": "contract ICommunityGovernanceProfiles",
							"name": "",
							"type": "address"
						}
					],
					"stateMutability": "view",
					"type": "function"
				},
				{
					"inputs": [],
					"name": "proxiableUUID",
					"outputs": [
						{
							"internalType": "bytes32",
							"name": "",
							"type": "bytes32"
						}
					],
					"stateMutability": "view",
					"type": "function"
				},
				{
					"inputs": [],
					"name": "renounceOwnership",
					"outputs": [],
					"stateMutability": "nonpayable",
					"type": "function"
				},
				{
					"inputs": [
						{
							"internalType": "address",
							"name": "_contributionsContractAddress",
							"type": "address"
						}
					],
					"name": "setContributionsContract",
					"outputs": [],
					"stateMutability": "nonpayable",
					"type": "function"
				},
				{
					"inputs": [
						{
							"internalType": "address",
							"name": "_profilesContractAddress",
							"type": "address"
						}
					],
					"name": "setProfilesContract",
					"outputs": [],
					"stateMutability": "nonpayable",
					"type": "function"
				},
				{
					"inputs": [
						{
							"internalType": "uint256",
							"name": "_communityId",
							"type": "uint256"
						},
						{
							"internalType": "uint256",
							"name": "_amount",
							"type": "uint256"
						}
					],
					"name": "setRespectToDistributeByOwner",
					"outputs": [],
					"stateMutability": "nonpayable",
					"type": "function"
				},
				{
					"inputs": [
						{
							"internalType": "uint256",
							"name": "_communityId",
							"type": "uint256"
						},
						{
							"internalType": "uint256",
							"name": "_proposalId",
							"type": "uint256"
						}
					],
					"name": "signProposal",
					"outputs": [],
					"stateMutability": "nonpayable",
					"type": "function"
				},
				{
					"inputs": [
						{
							"internalType": "address",
							"name": "newOwner",
							"type": "address"
						}
					],
					"name": "transferOwnership",
					"outputs": [],
					"stateMutability": "nonpayable",
					"type": "function"
				},
				{
					"inputs": [
						{
							"internalType": "uint256",
							"name": "_communityId",
							"type": "uint256"
						},
						{
							"internalType": "address[]",
							"name": "allMembers",
							"type": "address[]"
						}
					],
					"name": "updateTopRespectedUsers",
					"outputs": [],
					"stateMutability": "nonpayable",
					"type": "function"
				},
				{
					"inputs": [
						{
							"internalType": "address",
							"name": "newImplementation",
							"type": "address"
						},
						{
							"internalType": "bytes",
							"name": "data",
							"type": "bytes"
						}
					],
					"name": "upgradeToAndCall",
					"outputs": [],
					"stateMutability": "payable",
					"type": "function"
				}
			],
			"devdoc": {
				"errors": {
					"AddressEmptyCode(address)": [
						{
							"details": "There's no code at `target` (it is not a contract)."
						}
					],
					"ERC1967InvalidImplementation(address)": [
						{
							"details": "The `implementation` of the proxy is invalid."
						}
					],
					"ERC1967NonPayable()": [
						{
							"details": "An upgrade function sees `msg.value > 0` that may be lost."
						}
					],
					"FailedInnerCall()": [
						{
							"details": "A call to an address target failed. The target may have reverted."
						}
					],
					"InvalidInitialization()": [
						{
							"details": "The contract is already initialized."
						}
					],
					"NotInitializing()": [
						{
							"details": "The contract is not initializing."
						}
					],
					"OwnableInvalidOwner(address)": [
						{
							"details": "The owner is not a valid owner account. (eg. `address(0)`)"
						}
					],
					"OwnableUnauthorizedAccount(address)": [
						{
							"details": "The caller account is not authorized to perform an operation."
						}
					],
					"UUPSUnauthorizedCallContext()": [
						{
							"details": "The call is from an unauthorized context."
						}
					],
					"UUPSUnsupportedProxiableUUID(bytes32)": [
						{
							"details": "The storage `slot` is unsupported as a UUID."
						}
					]
				},
				"events": {
					"Initialized(uint64)": {
						"details": "Triggered when the contract has been initialized or reinitialized."
					},
					"Upgraded(address)": {
						"details": "Emitted when the implementation is upgraded."
					}
				},
				"kind": "dev",
				"methods": {
					"constructor": {
						"custom:oz-upgrades-unsafe-allow": "constructor"
					},
					"owner()": {
						"details": "Returns the address of the current owner."
					},
					"proxiableUUID()": {
						"details": "Implementation of the ERC1822 {proxiableUUID} function. This returns the storage slot used by the implementation. It is used to validate the implementation's compatibility when performing an upgrade. IMPORTANT: A proxy pointing at a proxiable contract should not be considered proxiable itself, because this risks bricking a proxy that upgrades to it, by delegating to itself until out of gas. Thus it is critical that this function revert if invoked through a proxy. This is guaranteed by the `notDelegated` modifier."
					},
					"renounceOwnership()": {
						"details": "Leaves the contract without owner. It will not be possible to call `onlyOwner` functions. Can only be called by the current owner. NOTE: Renouncing ownership will leave the contract without an owner, thereby disabling any functionality that is only available to the owner."
					},
					"transferOwnership(address)": {
						"details": "Transfers ownership of the contract to a new account (`newOwner`). Can only be called by the current owner."
					},
					"upgradeToAndCall(address,bytes)": {
						"custom:oz-upgrades-unsafe-allow-reachable": "delegatecall",
						"details": "Upgrade the implementation of the proxy to `newImplementation`, and subsequently execute the function call encoded in `data`. Calls {_authorizeUpgrade}. Emits an {Upgraded} event."
					}
				},
				"version": 1
			},
			"evm": {
				"assembly": "    /* \"UUPScontracts/CommunityGovernanceMultisigImplementation.sol\":555:8774  contract CommunityGovernanceMultiSigImplementation is ... */\n  mstore(0x40, 0xa0)\n    /* \"@openzeppelin/contracts-upgradeable/proxy/utils/UUPSUpgradeable.sol\":1171:1175  this */\n  address\n    /* \"@openzeppelin/contracts-upgradeable/proxy/utils/UUPSUpgradeable.sol\":1128:1176  address private immutable __self = address(this) */\n  0xffffffffffffffffffffffffffffffffffffffff\n  and\n  0x80\n  swap1\n  0xffffffffffffffffffffffffffffffffffffffff\n  and\n  dup2\n  mstore\n  pop\n    /* \"UUPScontracts/CommunityGovernanceMultisigImplementation.sol\":810:863  constructor() {... */\n  callvalue\n  dup1\n  iszero\n  tag_1\n  jumpi\n  0x00\n  dup1\n  revert\ntag_1:\n  pop\n    /* \"UUPScontracts/CommunityGovernanceMultisigImplementation.sol\":834:856  _disableInitializers() */\n  tag_4\n    /* \"UUPScontracts/CommunityGovernanceMultisigImplementation.sol\":834:854  _disableInitializers */\n  shl(0x20, tag_5)\n    /* \"UUPScontracts/CommunityGovernanceMultisigImplementation.sol\":834:856  _disableInitializers() */\n  0x20\n  shr\n  jump\t// in\ntag_4:\n    /* \"UUPScontracts/CommunityGovernanceMultisigImplementation.sol\":555:8774  contract CommunityGovernanceMultiSigImplementation is ... */\n  jump(tag_6)\n    /* \"@openzeppelin/contracts-upgradeable/proxy/utils/Initializable.sol\":7711:8133  function _disableInitializers() internal virtual {... */\ntag_5:\n    /* \"@openzeppelin/contracts-upgradeable/proxy/utils/Initializable.sol\":7826:7856  InitializableStorage storage $ */\n  0x00\n    /* \"@openzeppelin/contracts-upgradeable/proxy/utils/Initializable.sol\":7859:7885  _getInitializableStorage() */\n  tag_8\n    /* \"@openzeppelin/contracts-upgradeable/proxy/utils/Initializable.sol\":7859:7883  _getInitializableStorage */\n  shl(0x20, tag_9)\n    /* \"@openzeppelin/contracts-upgradeable/proxy/utils/Initializable.sol\":7859:7885  _getInitializableStorage() */\n  0x20\n  shr\n  jump\t// in\ntag_8:\n    /* \"@openzeppelin/contracts-upgradeable/proxy/utils/Initializable.sol\":7826:7885  InitializableStorage storage $ = _getInitializableStorage() */\n  swap1\n  pop\n    /* \"@openzeppelin/contracts-upgradeable/proxy/utils/Initializable.sol\":7900:7901  $ */\n  dup1\n    /* \"@openzeppelin/contracts-upgradeable/proxy/utils/Initializable.sol\":7900:7915  $._initializing */\n  0x00\n  add\n  0x08\n  swap1\n  sload\n  swap1\n  0x0100\n  exp\n  swap1\n  div\n  0xff\n  and\n    /* \"@openzeppelin/contracts-upgradeable/proxy/utils/Initializable.sol\":7896:7972  if ($._initializing) {... */\n  iszero\n  tag_10\n  jumpi\n    /* \"@openzeppelin/contracts-upgradeable/proxy/utils/Initializable.sol\":7938:7961  InvalidInitialization() */\n  mload(0x40)\n  0xf92ee8a900000000000000000000000000000000000000000000000000000000\n  dup2\n  mstore\n  0x04\n  add\n  mload(0x40)\n  dup1\n  swap2\n  sub\n  swap1\n  revert\n    /* \"@openzeppelin/contracts-upgradeable/proxy/utils/Initializable.sol\":7896:7972  if ($._initializing) {... */\ntag_10:\n    /* \"@openzeppelin/contracts-upgradeable/proxy/utils/Initializable.sol\":8003:8019  type(uint64).max */\n  0xffffffffffffffff\n    /* \"@openzeppelin/contracts-upgradeable/proxy/utils/Initializable.sol\":7985:8019  $._initialized != type(uint64).max */\n  dup1\n  and\n    /* \"@openzeppelin/contracts-upgradeable/proxy/utils/Initializable.sol\":7985:7986  $ */\n  dup2\n    /* \"@openzeppelin/contracts-upgradeable/proxy/utils/Initializable.sol\":7985:7999  $._initialized */\n  0x00\n  add\n  0x00\n  swap1\n  sload\n  swap1\n  0x0100\n  exp\n  swap1\n  div\n  0xffffffffffffffff\n  and\n    /* \"@openzeppelin/contracts-upgradeable/proxy/utils/Initializable.sol\":7985:8019  $._initialized != type(uint64).max */\n  0xffffffffffffffff\n  and\n  eq\n    /* \"@openzeppelin/contracts-upgradeable/proxy/utils/Initializable.sol\":7981:8127  if ($._initialized != type(uint64).max) {... */\n  tag_11\n  jumpi\n    /* \"@openzeppelin/contracts-upgradeable/proxy/utils/Initializable.sol\":8052:8068  type(uint64).max */\n  0xffffffffffffffff\n    /* \"@openzeppelin/contracts-upgradeable/proxy/utils/Initializable.sol\":8035:8036  $ */\n  dup2\n    /* \"@openzeppelin/contracts-upgradeable/proxy/utils/Initializable.sol\":8035:8049  $._initialized */\n  0x00\n  add\n  0x00\n    /* \"@openzeppelin/contracts-upgradeable/proxy/utils/Initializable.sol\":8035:8068  $._initialized = type(uint64).max */\n  0x0100\n  exp\n  dup2\n  sload\n  dup2\n  0xffffffffffffffff\n  mul\n  not\n  and\n  swap1\n  dup4\n  0xffffffffffffffff\n  and\n  mul\n  or\n  swap1\n  sstore\n  pop\n    /* \"@openzeppelin/contracts-upgradeable/proxy/utils/Initializable.sol\":8087:8116  Initialized(type(uint64).max) */\n  0xc7f505b2f371ae2175ee4913f4499e1f2633a7b5936321eed1cdaeb6115181d2\n    /* \"@openzeppelin/contracts-upgradeable/proxy/utils/Initializable.sol\":8099:8115  type(uint64).max */\n  0xffffffffffffffff\n    /* \"@openzeppelin/contracts-upgradeable/proxy/utils/Initializable.sol\":8087:8116  Initialized(type(uint64).max) */\n  mload(0x40)\n  tag_12\n  swap2\n  swap1\n  tag_13\n  jump\t// in\ntag_12:\n  mload(0x40)\n  dup1\n  swap2\n  sub\n  swap1\n  log1\n    /* \"@openzeppelin/contracts-upgradeable/proxy/utils/Initializable.sol\":7981:8127  if ($._initialized != type(uint64).max) {... */\ntag_11:\n    /* \"@openzeppelin/contracts-upgradeable/proxy/utils/Initializable.sol\":7760:8133  {... */\n  pop\n    /* \"@openzeppelin/contracts-upgradeable/proxy/utils/Initializable.sol\":7711:8133  function _disableInitializers() internal virtual {... */\n  jump\t// out\n    /* \"@openzeppelin/contracts-upgradeable/proxy/utils/Initializable.sol\":8737:8907  function _getInitializableStorage() private pure returns (InitializableStorage storage $) {... */\ntag_9:\n    /* \"@openzeppelin/contracts-upgradeable/proxy/utils/Initializable.sol\":8795:8825  InitializableStorage storage $ */\n  0x00\n    /* \"@openzeppelin/contracts-upgradeable/proxy/utils/Initializable.sol\":8870:8891  INITIALIZABLE_STORAGE */\n  0xf0c57e16840df040f15088dc2f81fe391c3923bec73e23a9662efc9c229c6a00\n    /* \"@openzeppelin/contracts-upgradeable/proxy/utils/Initializable.sol\":8860:8891  $.slot := INITIALIZABLE_STORAGE */\n  swap1\n  pop\n    /* \"@openzeppelin/contracts-upgradeable/proxy/utils/Initializable.sol\":8737:8907  function _getInitializableStorage() private pure returns (InitializableStorage storage $) {... */\n  swap1\n  jump\t// out\n    /* \"#utility.yul\":7:108   */\ntag_15:\n    /* \"#utility.yul\":43:50   */\n  0x00\n    /* \"#utility.yul\":83:101   */\n  0xffffffffffffffff\n    /* \"#utility.yul\":76:81   */\n  dup3\n    /* \"#utility.yul\":72:102   */\n  and\n    /* \"#utility.yul\":61:102   */\n  swap1\n  pop\n    /* \"#utility.yul\":7:108   */\n  swap2\n  swap1\n  pop\n  jump\t// out\n    /* \"#utility.yul\":114:229   */\ntag_16:\n    /* \"#utility.yul\":199:222   */\n  tag_20\n    /* \"#utility.yul\":216:221   */\n  dup2\n    /* \"#utility.yul\":199:222   */\n  tag_15\n  jump\t// in\ntag_20:\n    /* \"#utility.yul\":194:197   */\n  dup3\n    /* \"#utility.yul\":187:223   */\n  mstore\n    /* \"#utility.yul\":114:229   */\n  pop\n  pop\n  jump\t// out\n    /* \"#utility.yul\":235:453   */\ntag_13:\n    /* \"#utility.yul\":326:330   */\n  0x00\n    /* \"#utility.yul\":364:366   */\n  0x20\n    /* \"#utility.yul\":353:362   */\n  dup3\n    /* \"#utility.yul\":349:367   */\n  add\n    /* \"#utility.yul\":341:367   */\n  swap1\n  pop\n    /* \"#utility.yul\":377:446   */\n  tag_22\n    /* \"#utility.yul\":443:444   */\n  0x00\n    /* \"#utility.yul\":432:441   */\n  dup4\n    /* \"#utility.yul\":428:445   */\n  add\n    /* \"#utility.yul\":419:425   */\n  dup5\n    /* \"#utility.yul\":377:446   */\n  tag_16\n  jump\t// in\ntag_22:\n    /* \"#utility.yul\":235:453   */\n  swap3\n  swap2\n  pop\n  pop\n  jump\t// out\n    /* \"UUPScontracts/CommunityGovernanceMultisigImplementation.sol\":555:8774  contract CommunityGovernanceMultiSigImplementation is ... */\ntag_6:\n  mload(0x80)\n  codecopy(0x00, dataOffset(sub_0), dataSize(sub_0))\n  0x00\n  assignImmutable(\"0x0b83f23a4eeb8c3f5f7d5934a2289bcf0186d09a12e1b7f20adf54e4b179db15\")\n  return(0x00, dataSize(sub_0))\nstop\n\nsub_0: assembly {\n        /* \"UUPScontracts/CommunityGovernanceMultisigImplementation.sol\":555:8774  contract CommunityGovernanceMultiSigImplementation is ... */\n      mstore(0x40, 0x80)\n      jumpi(tag_1, lt(calldatasize, 0x04))\n      shr(0xe0, calldataload(0x00))\n      dup1\n      0xad3cb1cc\n      gt\n      tag_22\n      jumpi\n      dup1\n      0xd5d8617a\n      gt\n      tag_23\n      jumpi\n      dup1\n      0xd5d8617a\n      eq\n      tag_17\n      jumpi\n      dup1\n      0xde04bbd2\n      eq\n      tag_18\n      jumpi\n      dup1\n      0xe7d3f1f9\n      eq\n      tag_19\n      jumpi\n      dup1\n      0xf2fde38b\n      eq\n      tag_20\n      jumpi\n      dup1\n      0xfadc1930\n      eq\n      tag_21\n      jumpi\n      jump(tag_1)\n    tag_23:\n      dup1\n      0xad3cb1cc\n      eq\n      tag_12\n      jumpi\n      dup1\n      0xc0458ddc\n      eq\n      tag_13\n      jumpi\n      dup1\n      0xc4d66de8\n      eq\n      tag_14\n      jumpi\n      dup1\n      0xc56b4aed\n      eq\n      tag_15\n      jumpi\n      dup1\n      0xd599ba92\n      eq\n      tag_16\n      jumpi\n      jump(tag_1)\n    tag_22:\n      dup1\n      0x674e9c60\n      gt\n      tag_24\n      jumpi\n      dup1\n      0x674e9c60\n      eq\n      tag_7\n      jumpi\n      dup1\n      0x69c43915\n      eq\n      tag_8\n      jumpi\n      dup1\n      0x715018a6\n      eq\n      tag_9\n      jumpi\n      dup1\n      0x8da5cb5b\n      eq\n      tag_10\n      jumpi\n      dup1\n      0xaba21009\n      eq\n      tag_11\n      jumpi\n      jump(tag_1)\n    tag_24:\n      dup1\n      0x06428f02\n      eq\n      tag_2\n      jumpi\n      dup1\n      0x32eea301\n      eq\n      tag_3\n      jumpi\n      dup1\n      0x392ee8c1\n      eq\n      tag_4\n      jumpi\n      dup1\n      0x4f1ef286\n      eq\n      tag_5\n      jumpi\n      dup1\n      0x52d1902d\n      eq\n      tag_6\n      jumpi\n    tag_1:\n      0x00\n      dup1\n      revert\n        /* \"UUPScontracts/CommunityGovernanceMultiSigStorage.sol\":225:277  ICommunityGovernanceProfiles public profilesContract */\n    tag_2:\n      callvalue\n      dup1\n      iszero\n      tag_25\n      jumpi\n      0x00\n      dup1\n      revert\n    tag_25:\n      pop\n      tag_26\n      tag_27\n      jump\t// in\n    tag_26:\n      mload(0x40)\n      tag_28\n      swap2\n      swap1\n      tag_29\n      jump\t// in\n    tag_28:\n      mload(0x40)\n      dup1\n      swap2\n      sub\n      swap1\n      return\n        /* \"UUPScontracts/CommunityGovernanceMultisigImplementation.sol\":5996:6234  function setRespectToDistributeByOwner(uint256 _communityId, uint256 _amount) external onlyOwner {... */\n    tag_3:\n      callvalue\n      dup1\n      iszero\n      tag_30\n      jumpi\n      0x00\n      dup1\n      revert\n    tag_30:\n      pop\n      tag_31\n      0x04\n      dup1\n      calldatasize\n      sub\n      dup2\n      add\n      swap1\n      tag_32\n      swap2\n      swap1\n      tag_33\n      jump\t// in\n    tag_32:\n      tag_34\n      jump\t// in\n    tag_31:\n      stop\n        /* \"UUPScontracts/CommunityGovernanceMultisigImplementation.sol\":8466:8770  function getMultiSigInfo(uint256 _communityId) external view returns (uint256 respectToDistribute, address[5] memory topRespectedUsers) {... */\n    tag_4:\n      callvalue\n      dup1\n      iszero\n      tag_35\n      jumpi\n      0x00\n      dup1\n      revert\n    tag_35:\n      pop\n      tag_36\n      0x04\n      dup1\n      calldatasize\n      sub\n      dup2\n      add\n      swap1\n      tag_37\n      swap2\n      swap1\n      tag_38\n      jump\t// in\n    tag_37:\n      tag_39\n      jump\t// in\n    tag_36:\n      mload(0x40)\n      tag_40\n      swap3\n      swap2\n      swap1\n      tag_41\n      jump\t// in\n    tag_40:\n      mload(0x40)\n      dup1\n      swap2\n      sub\n      swap1\n      return\n        /* \"@openzeppelin/contracts-upgradeable/proxy/utils/UUPSUpgradeable.sol\":4158:4372  function upgradeToAndCall(address newImplementation, bytes memory data) public payable virtual onlyProxy {... */\n    tag_5:\n      tag_42\n      0x04\n      dup1\n      calldatasize\n      sub\n      dup2\n      add\n      swap1\n      tag_43\n      swap2\n      swap1\n      tag_44\n      jump\t// in\n    tag_43:\n      tag_45\n      jump\t// in\n    tag_42:\n      stop\n        /* \"@openzeppelin/contracts-upgradeable/proxy/utils/UUPSUpgradeable.sol\":3705:3839  function proxiableUUID() external view virtual notDelegated returns (bytes32) {... */\n    tag_6:\n      callvalue\n      dup1\n      iszero\n      tag_46\n      jumpi\n      0x00\n      dup1\n      revert\n    tag_46:\n      pop\n      tag_47\n      tag_48\n      jump\t// in\n    tag_47:\n      mload(0x40)\n      tag_49\n      swap2\n      swap1\n      tag_50\n      jump\t// in\n    tag_49:\n      mload(0x40)\n      dup1\n      swap2\n      sub\n      swap1\n      return\n        /* \"UUPScontracts/CommunityGovernanceMultisigImplementation.sol\":8238:8460  function hasSignedProposal(uint256 _communityId, uint256 _proposalId, address _signer) external view returns (bool) {... */\n    tag_7:\n      callvalue\n      dup1\n      iszero\n      tag_51\n      jumpi\n      0x00\n      dup1\n      revert\n    tag_51:\n      pop\n      tag_52\n      0x04\n      dup1\n      calldatasize\n      sub\n      dup2\n      add\n      swap1\n      tag_53\n      swap2\n      swap1\n      tag_54\n      jump\t// in\n    tag_53:\n      tag_55\n      jump\t// in\n    tag_52:\n      mload(0x40)\n      tag_56\n      swap2\n      swap1\n      tag_57\n      jump\t// in\n    tag_56:\n      mload(0x40)\n      dup1\n      swap2\n      sub\n      swap1\n      return\n        /* \"UUPScontracts/CommunityGovernanceMultisigImplementation.sol\":1533:3133  function updateTopRespectedUsers(uint256 _communityId, address[] memory allMembers) external  {... */\n    tag_8:\n      callvalue\n      dup1\n      iszero\n      tag_58\n      jumpi\n      0x00\n      dup1\n      revert\n    tag_58:\n      pop\n      tag_59\n      0x04\n      dup1\n      calldatasize\n      sub\n      dup2\n      add\n      swap1\n      tag_60\n      swap2\n      swap1\n      tag_61\n      jump\t// in\n    tag_60:\n      tag_62\n      jump\t// in\n    tag_59:\n      stop\n        /* \"@openzeppelin/contracts-upgradeable/access/OwnableUpgradeable.sol\":3155:3256  function renounceOwnership() public virtual onlyOwner {... */\n    tag_9:\n      callvalue\n      dup1\n      iszero\n      tag_63\n      jumpi\n      0x00\n      dup1\n      revert\n    tag_63:\n      pop\n      tag_64\n      tag_65\n      jump\t// in\n    tag_64:\n      stop\n        /* \"@openzeppelin/contracts-upgradeable/access/OwnableUpgradeable.sol\":2441:2585  function owner() public view virtual returns (address) {... */\n    tag_10:\n      callvalue\n      dup1\n      iszero\n      tag_66\n      jumpi\n      0x00\n      dup1\n      revert\n    tag_66:\n      pop\n      tag_67\n      tag_68\n      jump\t// in\n    tag_67:\n      mload(0x40)\n      tag_69\n      swap2\n      swap1\n      tag_70\n      jump\t// in\n    tag_69:\n      mload(0x40)\n      dup1\n      swap2\n      sub\n      swap1\n      return\n        /* \"UUPScontracts/CommunityGovernanceMultisigImplementation.sol\":7695:8232  function getProposal(uint256 _communityId, uint256 _proposalId) external view returns (... */\n    tag_11:\n      callvalue\n      dup1\n      iszero\n      tag_71\n      jumpi\n      0x00\n      dup1\n      revert\n    tag_71:\n      pop\n      tag_72\n      0x04\n      dup1\n      calldatasize\n      sub\n      dup2\n      add\n      swap1\n      tag_73\n      swap2\n      swap1\n      tag_33\n      jump\t// in\n    tag_73:\n      tag_74\n      jump\t// in\n    tag_72:\n      mload(0x40)\n      tag_75\n      swap6\n      swap5\n      swap4\n      swap3\n      swap2\n      swap1\n      tag_76\n      jump\t// in\n    tag_75:\n      mload(0x40)\n      dup1\n      swap2\n      sub\n      swap1\n      return\n        /* \"@openzeppelin/contracts-upgradeable/proxy/utils/UUPSUpgradeable.sol\":1819:1877  string public constant UPGRADE_INTERFACE_VERSION = \"5.0.0\" */\n    tag_12:\n      callvalue\n      dup1\n      iszero\n      tag_77\n      jumpi\n      0x00\n      dup1\n      revert\n    tag_77:\n      pop\n      tag_78\n      tag_79\n      jump\t// in\n    tag_78:\n      mload(0x40)\n      tag_80\n      swap2\n      swap1\n      tag_81\n      jump\t// in\n    tag_80:\n      mload(0x40)\n      dup1\n      swap2\n      sub\n      swap1\n      return\n        /* \"UUPScontracts/CommunityGovernanceMultisigImplementation.sol\":3139:3929  function createProposal(uint256 _communityId, uint256 _proposalId, ProposalType _type, uint256 _value, address _targetMember) external {... */\n    tag_13:\n      callvalue\n      dup1\n      iszero\n      tag_82\n      jumpi\n      0x00\n      dup1\n      revert\n    tag_82:\n      pop\n      tag_83\n      0x04\n      dup1\n      calldatasize\n      sub\n      dup2\n      add\n      swap1\n      tag_84\n      swap2\n      swap1\n      tag_85\n      jump\t// in\n    tag_84:\n      tag_86\n      jump\t// in\n    tag_83:\n      stop\n        /* \"UUPScontracts/CommunityGovernanceMultisigImplementation.sol\":869:1009  function initialize(address initialOwner) public initializer {... */\n    tag_14:\n      callvalue\n      dup1\n      iszero\n      tag_87\n      jumpi\n      0x00\n      dup1\n      revert\n    tag_87:\n      pop\n      tag_88\n      0x04\n      dup1\n      calldatasize\n      sub\n      dup2\n      add\n      swap1\n      tag_89\n      swap2\n      swap1\n      tag_90\n      jump\t// in\n    tag_89:\n      tag_91\n      jump\t// in\n    tag_88:\n      stop\n        /* \"UUPScontracts/CommunityGovernanceMultisigImplementation.sol\":1105:1277  function setProfilesContract(address _profilesContractAddress) external onlyOwner {... */\n    tag_15:\n      callvalue\n      dup1\n      iszero\n      tag_92\n      jumpi\n      0x00\n      dup1\n      revert\n    tag_92:\n      pop\n      tag_93\n      0x04\n      dup1\n      calldatasize\n      sub\n      dup2\n      add\n      swap1\n      tag_94\n      swap2\n      swap1\n      tag_90\n      jump\t// in\n    tag_94:\n      tag_95\n      jump\t// in\n    tag_93:\n      stop\n        /* \"UUPScontracts/CommunityGovernanceMultisigImplementation.sol\":1283:1480  function setContributionsContract(address _contributionsContractAddress) external onlyOwner {... */\n    tag_16:\n      callvalue\n      dup1\n      iszero\n      tag_96\n      jumpi\n      0x00\n      dup1\n      revert\n    tag_96:\n      pop\n      tag_97\n      0x04\n      dup1\n      calldatasize\n      sub\n      dup2\n      add\n      swap1\n      tag_98\n      swap2\n      swap1\n      tag_90\n      jump\t// in\n    tag_98:\n      tag_99\n      jump\t// in\n    tag_97:\n      stop\n        /* \"UUPScontracts/CommunityGovernanceMultisigImplementation.sol\":7000:7160  function getRespectToDistribute(uint256 _communityId) public view returns (uint256) {... */\n    tag_17:\n      callvalue\n      dup1\n      iszero\n      tag_100\n      jumpi\n      0x00\n      dup1\n      revert\n    tag_100:\n      pop\n      tag_101\n      0x04\n      dup1\n      calldatasize\n      sub\n      dup2\n      add\n      swap1\n      tag_102\n      swap2\n      swap1\n      tag_38\n      jump\t// in\n    tag_102:\n      tag_103\n      jump\t// in\n    tag_101:\n      mload(0x40)\n      tag_104\n      swap2\n      swap1\n      tag_105\n      jump\t// in\n    tag_104:\n      mload(0x40)\n      dup1\n      swap2\n      sub\n      swap1\n      return\n        /* \"UUPScontracts/CommunityGovernanceMultiSigStorage.sol\":283:345  ICommunityGovernanceContributions public contributionsContract */\n    tag_18:\n      callvalue\n      dup1\n      iszero\n      tag_106\n      jumpi\n      0x00\n      dup1\n      revert\n    tag_106:\n      pop\n      tag_107\n      tag_108\n      jump\t// in\n    tag_107:\n      mload(0x40)\n      tag_109\n      swap2\n      swap1\n      tag_110\n      jump\t// in\n    tag_109:\n      mload(0x40)\n      dup1\n      swap2\n      sub\n      swap1\n      return\n        /* \"UUPScontracts/CommunityGovernanceMultisigImplementation.sol\":7521:7689  function getTopRespectedUsers(uint256 _communityId) external view returns (address[5] memory) {... */\n    tag_19:\n      callvalue\n      dup1\n      iszero\n      tag_111\n      jumpi\n      0x00\n      dup1\n      revert\n    tag_111:\n      pop\n      tag_112\n      0x04\n      dup1\n      calldatasize\n      sub\n      dup2\n      add\n      swap1\n      tag_113\n      swap2\n      swap1\n      tag_38\n      jump\t// in\n    tag_113:\n      tag_114\n      jump\t// in\n    tag_112:\n      mload(0x40)\n      tag_115\n      swap2\n      swap1\n      tag_116\n      jump\t// in\n    tag_115:\n      mload(0x40)\n      dup1\n      swap2\n      sub\n      swap1\n      return\n        /* \"@openzeppelin/contracts-upgradeable/access/OwnableUpgradeable.sol\":3405:3620  function transferOwnership(address newOwner) public virtual onlyOwner {... */\n    tag_20:\n      callvalue\n      dup1\n      iszero\n      tag_117\n      jumpi\n      0x00\n      dup1\n      revert\n    tag_117:\n      pop\n      tag_118\n      0x04\n      dup1\n      calldatasize\n      sub\n      dup2\n      add\n      swap1\n      tag_119\n      swap2\n      swap1\n      tag_90\n      jump\t// in\n    tag_119:\n      tag_120\n      jump\t// in\n    tag_118:\n      stop\n        /* \"UUPScontracts/CommunityGovernanceMultisigImplementation.sol\":3935:4755  function signProposal(uint256 _communityId, uint256 _proposalId) external {... */\n    tag_21:\n      callvalue\n      dup1\n      iszero\n      tag_121\n      jumpi\n      0x00\n      dup1\n      revert\n    tag_121:\n      pop\n      tag_122\n      0x04\n      dup1\n      calldatasize\n      sub\n      dup2\n      add\n      swap1\n      tag_123\n      swap2\n      swap1\n      tag_33\n      jump\t// in\n    tag_123:\n      tag_124\n      jump\t// in\n    tag_122:\n      stop\n        /* \"UUPScontracts/CommunityGovernanceMultiSigStorage.sol\":225:277  ICommunityGovernanceProfiles public profilesContract */\n    tag_27:\n      0x00\n      dup1\n      sload\n      swap1\n      0x0100\n      exp\n      swap1\n      div\n      0xffffffffffffffffffffffffffffffffffffffff\n      and\n      dup2\n      jump\t// out\n        /* \"UUPScontracts/CommunityGovernanceMultisigImplementation.sol\":5996:6234  function setRespectToDistributeByOwner(uint256 _communityId, uint256 _amount) external onlyOwner {... */\n    tag_34:\n        /* \"@openzeppelin/contracts-upgradeable/access/OwnableUpgradeable.sol\":2334:2347  _checkOwner() */\n      tag_126\n        /* \"@openzeppelin/contracts-upgradeable/access/OwnableUpgradeable.sol\":2334:2345  _checkOwner */\n      tag_127\n        /* \"@openzeppelin/contracts-upgradeable/access/OwnableUpgradeable.sol\":2334:2347  _checkOwner() */\n      jump\t// in\n    tag_126:\n        /* \"UUPScontracts/CommunityGovernanceMultisigImplementation.sol\":6158:6165  _amount */\n      dup1\n        /* \"UUPScontracts/CommunityGovernanceMultisigImplementation.sol\":6103:6121  communityMultiSigs */\n      0x02\n        /* \"UUPScontracts/CommunityGovernanceMultisigImplementation.sol\":6103:6135  communityMultiSigs[_communityId] */\n      0x00\n        /* \"UUPScontracts/CommunityGovernanceMultisigImplementation.sol\":6122:6134  _communityId */\n      dup5\n        /* \"UUPScontracts/CommunityGovernanceMultisigImplementation.sol\":6103:6135  communityMultiSigs[_communityId] */\n      dup2\n      mstore\n      0x20\n      add\n      swap1\n      dup2\n      mstore\n      0x20\n      add\n      0x00\n      keccak256\n        /* \"UUPScontracts/CommunityGovernanceMultisigImplementation.sol\":6103:6155  communityMultiSigs[_communityId].respectToDistribute */\n      0x06\n      add\n        /* \"UUPScontracts/CommunityGovernanceMultisigImplementation.sol\":6103:6165  communityMultiSigs[_communityId].respectToDistribute = _amount */\n      dup2\n      swap1\n      sstore\n      pop\n        /* \"UUPScontracts/CommunityGovernanceMultisigImplementation.sol\":5996:6234  function setRespectToDistributeByOwner(uint256 _communityId, uint256 _amount) external onlyOwner {... */\n      pop\n      pop\n      jump\t// out\n        /* \"UUPScontracts/CommunityGovernanceMultisigImplementation.sol\":8466:8770  function getMultiSigInfo(uint256 _communityId) external view returns (uint256 respectToDistribute, address[5] memory topRespectedUsers) {... */\n    tag_39:\n        /* \"UUPScontracts/CommunityGovernanceMultisigImplementation.sol\":8536:8563  uint256 respectToDistribute */\n      0x00\n        /* \"UUPScontracts/CommunityGovernanceMultisigImplementation.sol\":8565:8600  address[5] memory topRespectedUsers */\n      tag_129\n      tag_130\n      jump\t// in\n    tag_129:\n        /* \"UUPScontracts/CommunityGovernanceMultisigImplementation.sol\":8612:8645  MultiSigInfo storage multiSigInfo */\n      0x00\n        /* \"UUPScontracts/CommunityGovernanceMultisigImplementation.sol\":8648:8666  communityMultiSigs */\n      0x02\n        /* \"UUPScontracts/CommunityGovernanceMultisigImplementation.sol\":8648:8680  communityMultiSigs[_communityId] */\n      0x00\n        /* \"UUPScontracts/CommunityGovernanceMultisigImplementation.sol\":8667:8679  _communityId */\n      dup6\n        /* \"UUPScontracts/CommunityGovernanceMultisigImplementation.sol\":8648:8680  communityMultiSigs[_communityId] */\n      dup2\n      mstore\n      0x20\n      add\n      swap1\n      dup2\n      mstore\n      0x20\n      add\n      0x00\n      keccak256\n        /* \"UUPScontracts/CommunityGovernanceMultisigImplementation.sol\":8612:8680  MultiSigInfo storage multiSigInfo = communityMultiSigs[_communityId] */\n      swap1\n      pop\n        /* \"UUPScontracts/CommunityGovernanceMultisigImplementation.sol\":8698:8710  multiSigInfo */\n      dup1\n        /* \"UUPScontracts/CommunityGovernanceMultisigImplementation.sol\":8698:8730  multiSigInfo.respectToDistribute */\n      0x06\n      add\n      sload\n        /* \"UUPScontracts/CommunityGovernanceMultisigImplementation.sol\":8732:8744  multiSigInfo */\n      dup2\n        /* \"UUPScontracts/CommunityGovernanceMultisigImplementation.sol\":8732:8762  multiSigInfo.topRespectedUsers */\n      0x01\n      add\n        /* \"UUPScontracts/CommunityGovernanceMultisigImplementation.sol\":8690:8763  return (multiSigInfo.respectToDistribute, multiSigInfo.topRespectedUsers) */\n      dup1\n      0x05\n      dup1\n      0x20\n      mul\n      mload(0x40)\n      swap1\n      dup2\n      add\n      0x40\n      mstore\n      dup1\n      swap3\n      swap2\n      swap1\n      dup3\n      0x05\n      dup1\n      iszero\n      tag_132\n      jumpi\n      0x20\n      mul\n      dup3\n      add\n      swap2\n    tag_133:\n      dup2\n      0x00\n      swap1\n      sload\n      swap1\n      0x0100\n      exp\n      swap1\n      div\n      0xffffffffffffffffffffffffffffffffffffffff\n      and\n      0xffffffffffffffffffffffffffffffffffffffff\n      and\n      dup2\n      mstore\n      0x20\n      add\n      swap1\n      0x01\n      add\n      swap1\n      dup1\n      dup4\n      gt\n      tag_133\n      jumpi\n    tag_132:\n      pop\n      pop\n      pop\n      pop\n      pop\n      swap1\n      pop\n      swap3\n      pop\n      swap3\n      pop\n      pop\n        /* \"UUPScontracts/CommunityGovernanceMultisigImplementation.sol\":8466:8770  function getMultiSigInfo(uint256 _communityId) external view returns (uint256 respectToDistribute, address[5] memory topRespectedUsers) {... */\n      swap2\n      pop\n      swap2\n      jump\t// out\n        /* \"@openzeppelin/contracts-upgradeable/proxy/utils/UUPSUpgradeable.sol\":4158:4372  function upgradeToAndCall(address newImplementation, bytes memory data) public payable virtual onlyProxy {... */\n    tag_45:\n        /* \"@openzeppelin/contracts-upgradeable/proxy/utils/UUPSUpgradeable.sol\":2653:2666  _checkProxy() */\n      tag_135\n        /* \"@openzeppelin/contracts-upgradeable/proxy/utils/UUPSUpgradeable.sol\":2653:2664  _checkProxy */\n      tag_136\n        /* \"@openzeppelin/contracts-upgradeable/proxy/utils/UUPSUpgradeable.sol\":2653:2666  _checkProxy() */\n      jump\t// in\n    tag_135:\n        /* \"@openzeppelin/contracts-upgradeable/proxy/utils/UUPSUpgradeable.sol\":4273:4309  _authorizeUpgrade(newImplementation) */\n      tag_138\n        /* \"@openzeppelin/contracts-upgradeable/proxy/utils/UUPSUpgradeable.sol\":4291:4308  newImplementation */\n      dup3\n        /* \"@openzeppelin/contracts-upgradeable/proxy/utils/UUPSUpgradeable.sol\":4273:4290  _authorizeUpgrade */\n      tag_139\n        /* \"@openzeppelin/contracts-upgradeable/proxy/utils/UUPSUpgradeable.sol\":4273:4309  _authorizeUpgrade(newImplementation) */\n      jump\t// in\n    tag_138:\n        /* \"@openzeppelin/contracts-upgradeable/proxy/utils/UUPSUpgradeable.sol\":4319:4365  _upgradeToAndCallUUPS(newImplementation, data) */\n      tag_140\n        /* \"@openzeppelin/contracts-upgradeable/proxy/utils/UUPSUpgradeable.sol\":4341:4358  newImplementation */\n      dup3\n        /* \"@openzeppelin/contracts-upgradeable/proxy/utils/UUPSUpgradeable.sol\":4360:4364  data */\n      dup3\n        /* \"@openzeppelin/contracts-upgradeable/proxy/utils/UUPSUpgradeable.sol\":4319:4340  _upgradeToAndCallUUPS */\n      tag_141\n        /* \"@openzeppelin/contracts-upgradeable/proxy/utils/UUPSUpgradeable.sol\":4319:4365  _upgradeToAndCallUUPS(newImplementation, data) */\n      jump\t// in\n    tag_140:\n        /* \"@openzeppelin/contracts-upgradeable/proxy/utils/UUPSUpgradeable.sol\":4158:4372  function upgradeToAndCall(address newImplementation, bytes memory data) public payable virtual onlyProxy {... */\n      pop\n      pop\n      jump\t// out\n        /* \"@openzeppelin/contracts-upgradeable/proxy/utils/UUPSUpgradeable.sol\":3705:3839  function proxiableUUID() external view virtual notDelegated returns (bytes32) {... */\n    tag_48:\n        /* \"@openzeppelin/contracts-upgradeable/proxy/utils/UUPSUpgradeable.sol\":3774:3781  bytes32 */\n      0x00\n        /* \"@openzeppelin/contracts-upgradeable/proxy/utils/UUPSUpgradeable.sol\":2924:2944  _checkNotDelegated() */\n      tag_143\n        /* \"@openzeppelin/contracts-upgradeable/proxy/utils/UUPSUpgradeable.sol\":2924:2942  _checkNotDelegated */\n      tag_144\n        /* \"@openzeppelin/contracts-upgradeable/proxy/utils/UUPSUpgradeable.sol\":2924:2944  _checkNotDelegated() */\n      jump\t// in\n    tag_143:\n        /* \"@openzeppelin/contracts/proxy/ERC1967/ERC1967Utils.sol\":1327:1393  0x360894a13ba1a3210667c828492db98dca3e2076cc3735a920a3ca505d382bbc */\n      0x360894a13ba1a3210667c828492db98dca3e2076cc3735a920a3ca505d382bbc\n        /* \"@openzeppelin/contracts-upgradeable/proxy/utils/UUPSUpgradeable.sol\":3800:3832  ERC1967Utils.IMPLEMENTATION_SLOT */\n      0x00\n      shl\n        /* \"@openzeppelin/contracts-upgradeable/proxy/utils/UUPSUpgradeable.sol\":3793:3832  return ERC1967Utils.IMPLEMENTATION_SLOT */\n      swap1\n      pop\n        /* \"@openzeppelin/contracts-upgradeable/proxy/utils/UUPSUpgradeable.sol\":3705:3839  function proxiableUUID() external view virtual notDelegated returns (bytes32) {... */\n      swap1\n      jump\t// out\n        /* \"UUPScontracts/CommunityGovernanceMultisigImplementation.sol\":8238:8460  function hasSignedProposal(uint256 _communityId, uint256 _proposalId, address _signer) external view returns (bool) {... */\n    tag_55:\n        /* \"UUPScontracts/CommunityGovernanceMultisigImplementation.sol\":8348:8352  bool */\n      0x00\n        /* \"UUPScontracts/CommunityGovernanceMultisigImplementation.sol\":8371:8389  communityMultiSigs */\n      0x02\n        /* \"UUPScontracts/CommunityGovernanceMultisigImplementation.sol\":8371:8403  communityMultiSigs[_communityId] */\n      0x00\n        /* \"UUPScontracts/CommunityGovernanceMultisigImplementation.sol\":8390:8402  _communityId */\n      dup6\n        /* \"UUPScontracts/CommunityGovernanceMultisigImplementation.sol\":8371:8403  communityMultiSigs[_communityId] */\n      dup2\n      mstore\n      0x20\n      add\n      swap1\n      dup2\n      mstore\n      0x20\n      add\n      0x00\n      keccak256\n        /* \"UUPScontracts/CommunityGovernanceMultisigImplementation.sol\":8371:8413  communityMultiSigs[_communityId].proposals */\n      0x00\n      add\n        /* \"UUPScontracts/CommunityGovernanceMultisigImplementation.sol\":8371:8426  communityMultiSigs[_communityId].proposals[_proposalId] */\n      0x00\n        /* \"UUPScontracts/CommunityGovernanceMultisigImplementation.sol\":8414:8425  _proposalId */\n      dup5\n        /* \"UUPScontracts/CommunityGovernanceMultisigImplementation.sol\":8371:8426  communityMultiSigs[_communityId].proposals[_proposalId] */\n      dup2\n      mstore\n      0x20\n      add\n      swap1\n      dup2\n      mstore\n      0x20\n      add\n      0x00\n      keccak256\n        /* \"UUPScontracts/CommunityGovernanceMultisigImplementation.sol\":8371:8444  communityMultiSigs[_communityId].proposals[_proposalId].hasSignedProposal */\n      0x04\n      add\n        /* \"UUPScontracts/CommunityGovernanceMultisigImplementation.sol\":8371:8453  communityMultiSigs[_communityId].proposals[_proposalId].hasSignedProposal[_signer] */\n      0x00\n        /* \"UUPScontracts/CommunityGovernanceMultisigImplementation.sol\":8445:8452  _signer */\n      dup4\n        /* \"UUPScontracts/CommunityGovernanceMultisigImplementation.sol\":8371:8453  communityMultiSigs[_communityId].proposals[_proposalId].hasSignedProposal[_signer] */\n      0xffffffffffffffffffffffffffffffffffffffff\n      and\n      0xffffffffffffffffffffffffffffffffffffffff\n      and\n      dup2\n      mstore\n      0x20\n      add\n      swap1\n      dup2\n      mstore\n      0x20\n      add\n      0x00\n      keccak256\n      0x00\n      swap1\n      sload\n      swap1\n      0x0100\n      exp\n      swap1\n      div\n      0xff\n      and\n        /* \"UUPScontracts/CommunityGovernanceMultisigImplementation.sol\":8364:8453  return communityMultiSigs[_communityId].proposals[_proposalId].hasSignedProposal[_signer] */\n      swap1\n      pop\n        /* \"UUPScontracts/CommunityGovernanceMultisigImplementation.sol\":8238:8460  function hasSignedProposal(uint256 _communityId, uint256 _proposalId, address _signer) external view returns (bool) {... */\n      swap4\n      swap3\n      pop\n      pop\n      pop\n      jump\t// out\n        /* \"UUPScontracts/CommunityGovernanceMultisigImplementation.sol\":1533:3133  function updateTopRespectedUsers(uint256 _communityId, address[] memory allMembers) external  {... */\n    tag_62:\n        /* \"UUPScontracts/CommunityGovernanceMultisigImplementation.sol\":1661:1662  0 */\n      0x00\n        /* \"UUPScontracts/CommunityGovernanceMultisigImplementation.sol\":1641:1651  allMembers */\n      dup2\n        /* \"UUPScontracts/CommunityGovernanceMultisigImplementation.sol\":1641:1658  allMembers.length */\n      mload\n        /* \"UUPScontracts/CommunityGovernanceMultisigImplementation.sol\":1641:1662  allMembers.length > 0 */\n      gt\n        /* \"UUPScontracts/CommunityGovernanceMultisigImplementation.sol\":1633:1694  require(allMembers.length > 0, \"Community must have members\") */\n      tag_148\n      jumpi\n      mload(0x40)\n      0x08c379a000000000000000000000000000000000000000000000000000000000\n      dup2\n      mstore\n      0x04\n      add\n      tag_149\n      swap1\n      tag_150\n      jump\t// in\n    tag_149:\n      mload(0x40)\n      dup1\n      swap2\n      sub\n      swap1\n      revert\n    tag_148:\n        /* \"UUPScontracts/CommunityGovernanceMultisigImplementation.sol\":1750:1751  0 */\n      0x00\n        /* \"UUPScontracts/CommunityGovernanceMultisigImplementation.sol\":1708:1752  address(contributionsContract) != address(0) */\n      0xffffffffffffffffffffffffffffffffffffffff\n      and\n        /* \"UUPScontracts/CommunityGovernanceMultisigImplementation.sol\":1716:1737  contributionsContract */\n      0x01\n      0x00\n      swap1\n      sload\n      swap1\n      0x0100\n      exp\n      swap1\n      div\n      0xffffffffffffffffffffffffffffffffffffffff\n      and\n        /* \"UUPScontracts/CommunityGovernanceMultisigImplementation.sol\":1708:1752  address(contributionsContract) != address(0) */\n      0xffffffffffffffffffffffffffffffffffffffff\n      and\n      sub\n        /* \"UUPScontracts/CommunityGovernanceMultisigImplementation.sol\":1700:1787  require(address(contributionsContract) != address(0), \"Contributions contract not set\") */\n      tag_151\n      jumpi\n      mload(0x40)\n      0x08c379a000000000000000000000000000000000000000000000000000000000\n      dup2\n      mstore\n      0x04\n      add\n      tag_152\n      swap1\n      tag_153\n      jump\t// in\n    tag_152:\n      mload(0x40)\n      dup1\n      swap2\n      sub\n      swap1\n      revert\n    tag_151:\n        /* \"UUPScontracts/CommunityGovernanceMultisigImplementation.sol\":1794:1824  uint256[] memory respectScores */\n      0x00\n        /* \"UUPScontracts/CommunityGovernanceMultisigImplementation.sol\":1841:1851  allMembers */\n      dup2\n        /* \"UUPScontracts/CommunityGovernanceMultisigImplementation.sol\":1841:1858  allMembers.length */\n      mload\n        /* \"UUPScontracts/CommunityGovernanceMultisigImplementation.sol\":1827:1859  new uint256[](allMembers.length) */\n      0xffffffffffffffff\n      dup2\n      gt\n      iszero\n      tag_154\n      jumpi\n      tag_155\n      tag_156\n      jump\t// in\n    tag_155:\n    tag_154:\n      mload(0x40)\n      swap1\n      dup1\n      dup3\n      mstore\n      dup1\n      0x20\n      mul\n      0x20\n      add\n      dup3\n      add\n      0x40\n      mstore\n      dup1\n      iszero\n      tag_157\n      jumpi\n      dup2\n      0x20\n      add\n      0x20\n      dup3\n      mul\n      dup1\n      calldatasize\n      dup4\n      calldatacopy\n      dup1\n      dup3\n      add\n      swap2\n      pop\n      pop\n      swap1\n      pop\n    tag_157:\n      pop\n        /* \"UUPScontracts/CommunityGovernanceMultisigImplementation.sol\":1794:1859  uint256[] memory respectScores = new uint256[](allMembers.length) */\n      swap1\n      pop\n        /* \"UUPScontracts/CommunityGovernanceMultisigImplementation.sol\":1871:1880  uint256 i */\n      0x00\n        /* \"UUPScontracts/CommunityGovernanceMultisigImplementation.sol\":1866:2162  for (uint256 i = 0; i < allMembers.length; i++) {... */\n    tag_158:\n        /* \"UUPScontracts/CommunityGovernanceMultisigImplementation.sol\":1890:1900  allMembers */\n      dup3\n        /* \"UUPScontracts/CommunityGovernanceMultisigImplementation.sol\":1890:1907  allMembers.length */\n      mload\n        /* \"UUPScontracts/CommunityGovernanceMultisigImplementation.sol\":1886:1887  i */\n      dup2\n        /* \"UUPScontracts/CommunityGovernanceMultisigImplementation.sol\":1886:1907  i < allMembers.length */\n      lt\n        /* \"UUPScontracts/CommunityGovernanceMultisigImplementation.sol\":1866:2162  for (uint256 i = 0; i < allMembers.length; i++) {... */\n      iszero\n      tag_159\n      jumpi\n        /* \"UUPScontracts/CommunityGovernanceMultisigImplementation.sol\":1928:1949  contributionsContract */\n      0x01\n      0x00\n      swap1\n      sload\n      swap1\n      0x0100\n      exp\n      swap1\n      div\n      0xffffffffffffffffffffffffffffffffffffffff\n      and\n        /* \"UUPScontracts/CommunityGovernanceMultisigImplementation.sol\":1928:1967  contributionsContract.getAverageRespect */\n      0xffffffffffffffffffffffffffffffffffffffff\n      and\n      0xd91d9733\n        /* \"UUPScontracts/CommunityGovernanceMultisigImplementation.sol\":1968:1978  allMembers */\n      dup5\n        /* \"UUPScontracts/CommunityGovernanceMultisigImplementation.sol\":1979:1980  i */\n      dup4\n        /* \"UUPScontracts/CommunityGovernanceMultisigImplementation.sol\":1968:1981  allMembers[i] */\n      dup2\n      mload\n      dup2\n      lt\n      tag_161\n      jumpi\n      tag_162\n      tag_163\n      jump\t// in\n    tag_162:\n    tag_161:\n      0x20\n      mul\n      0x20\n      add\n      add\n      mload\n        /* \"UUPScontracts/CommunityGovernanceMultisigImplementation.sol\":1983:1995  _communityId */\n      dup7\n        /* \"UUPScontracts/CommunityGovernanceMultisigImplementation.sol\":1928:1996  contributionsContract.getAverageRespect(allMembers[i], _communityId) */\n      mload(0x40)\n      dup4\n      0xffffffff\n      and\n      0xe0\n      shl\n      dup2\n      mstore\n      0x04\n      add\n      tag_164\n      swap3\n      swap2\n      swap1\n      tag_165\n      jump\t// in\n    tag_164:\n      0x20\n      mload(0x40)\n      dup1\n      dup4\n      sub\n      dup2\n      dup7\n      gas\n      staticcall\n      swap3\n      pop\n      pop\n      pop\n      dup1\n      iszero\n      tag_166\n      jumpi\n      pop\n      mload(0x40)\n      returndatasize\n      not(0x1f)\n      0x1f\n      dup3\n      add\n      and\n      dup3\n      add\n      dup1\n      0x40\n      mstore\n      pop\n      dup2\n      add\n      swap1\n      tag_167\n      swap2\n      swap1\n      tag_168\n      jump\t// in\n    tag_167:\n      0x01\n    tag_166:\n        /* \"UUPScontracts/CommunityGovernanceMultisigImplementation.sol\":1924:2156  try contributionsContract.getAverageRespect(allMembers[i], _communityId) returns (uint256 score) {... */\n      tag_169\n      jumpi\n        /* \"UUPScontracts/CommunityGovernanceMultisigImplementation.sol\":2110:2111  0 */\n      0x00\n        /* \"UUPScontracts/CommunityGovernanceMultisigImplementation.sol\":2091:2104  respectScores */\n      dup3\n        /* \"UUPScontracts/CommunityGovernanceMultisigImplementation.sol\":2105:2106  i */\n      dup3\n        /* \"UUPScontracts/CommunityGovernanceMultisigImplementation.sol\":2091:2107  respectScores[i] */\n      dup2\n      mload\n      dup2\n      lt\n      tag_173\n      jumpi\n      tag_174\n      tag_163\n      jump\t// in\n    tag_174:\n    tag_173:\n      0x20\n      mul\n      0x20\n      add\n      add\n        /* \"UUPScontracts/CommunityGovernanceMultisigImplementation.sol\":2091:2111  respectScores[i] = 0 */\n      dup2\n      dup2\n      mstore\n      pop\n      pop\n        /* \"UUPScontracts/CommunityGovernanceMultisigImplementation.sol\":1924:2156  try contributionsContract.getAverageRespect(allMembers[i], _communityId) returns (uint256 score) {... */\n      jump(tag_175)\n    tag_169:\n        /* \"UUPScontracts/CommunityGovernanceMultisigImplementation.sol\":2054:2059  score */\n      dup1\n        /* \"UUPScontracts/CommunityGovernanceMultisigImplementation.sol\":2035:2048  respectScores */\n      dup4\n        /* \"UUPScontracts/CommunityGovernanceMultisigImplementation.sol\":2049:2050  i */\n      dup4\n        /* \"UUPScontracts/CommunityGovernanceMultisigImplementation.sol\":2035:2051  respectScores[i] */\n      dup2\n      mload\n      dup2\n      lt\n      tag_176\n      jumpi\n      tag_177\n      tag_163\n      jump\t// in\n    tag_177:\n    tag_176:\n      0x20\n      mul\n      0x20\n      add\n      add\n        /* \"UUPScontracts/CommunityGovernanceMultisigImplementation.sol\":2035:2059  respectScores[i] = score */\n      dup2\n      dup2\n      mstore\n      pop\n      pop\n        /* \"UUPScontracts/CommunityGovernanceMultisigImplementation.sol\":1997:2070  returns (uint256 score) {... */\n      pop\n        /* \"UUPScontracts/CommunityGovernanceMultisigImplementation.sol\":1924:2156  try contributionsContract.getAverageRespect(allMembers[i], _communityId) returns (uint256 score) {... */\n    tag_175:\n        /* \"UUPScontracts/CommunityGovernanceMultisigImplementation.sol\":1909:1912  i++ */\n      dup1\n      dup1\n      0x01\n      add\n      swap2\n      pop\n      pop\n        /* \"UUPScontracts/CommunityGovernanceMultisigImplementation.sol\":1866:2162  for (uint256 i = 0; i < allMembers.length; i++) {... */\n      jump(tag_158)\n    tag_159:\n      pop\n        /* \"UUPScontracts/CommunityGovernanceMultisigImplementation.sol\":2168:2184  uint256 topCount */\n      0x00\n        /* \"UUPScontracts/CommunityGovernanceMultisigImplementation.sol\":2207:2208  5 */\n      0x05\n        /* \"UUPScontracts/CommunityGovernanceMultisigImplementation.sol\":2187:2197  allMembers */\n      dup4\n        /* \"UUPScontracts/CommunityGovernanceMultisigImplementation.sol\":2187:2204  allMembers.length */\n      mload\n        /* \"UUPScontracts/CommunityGovernanceMultisigImplementation.sol\":2187:2208  allMembers.length < 5 */\n      lt\n        /* \"UUPScontracts/CommunityGovernanceMultisigImplementation.sol\":2187:2232  allMembers.length < 5 ? allMembers.length : 5 */\n      tag_178\n      jumpi\n        /* \"UUPScontracts/CommunityGovernanceMultisigImplementation.sol\":2231:2232  5 */\n      0x05\n        /* \"UUPScontracts/CommunityGovernanceMultisigImplementation.sol\":2187:2232  allMembers.length < 5 ? allMembers.length : 5 */\n      jump(tag_179)\n    tag_178:\n        /* \"UUPScontracts/CommunityGovernanceMultisigImplementation.sol\":2211:2221  allMembers */\n      dup3\n        /* \"UUPScontracts/CommunityGovernanceMultisigImplementation.sol\":2211:2228  allMembers.length */\n      mload\n        /* \"UUPScontracts/CommunityGovernanceMultisigImplementation.sol\":2187:2232  allMembers.length < 5 ? allMembers.length : 5 */\n    tag_179:\n        /* \"UUPScontracts/CommunityGovernanceMultisigImplementation.sol\":2168:2232  uint256 topCount = allMembers.length < 5 ? allMembers.length : 5 */\n      swap1\n      pop\n        /* \"UUPScontracts/CommunityGovernanceMultisigImplementation.sol\":2238:2264  address[5] memory topUsers */\n      tag_180\n      tag_130\n      jump\t// in\n    tag_180:\n        /* \"UUPScontracts/CommunityGovernanceMultisigImplementation.sol\":2276:2285  uint256 i */\n      0x00\n        /* \"UUPScontracts/CommunityGovernanceMultisigImplementation.sol\":2271:2795  for (uint256 i = 0; i < topCount; i++) {... */\n    tag_181:\n        /* \"UUPScontracts/CommunityGovernanceMultisigImplementation.sol\":2295:2303  topCount */\n      dup3\n        /* \"UUPScontracts/CommunityGovernanceMultisigImplementation.sol\":2291:2292  i */\n      dup2\n        /* \"UUPScontracts/CommunityGovernanceMultisigImplementation.sol\":2291:2303  i < topCount */\n      lt\n        /* \"UUPScontracts/CommunityGovernanceMultisigImplementation.sol\":2271:2795  for (uint256 i = 0; i < topCount; i++) {... */\n      iszero\n      tag_182\n      jumpi\n        /* \"UUPScontracts/CommunityGovernanceMultisigImplementation.sol\":2320:2336  uint256 maxIndex */\n      0x00\n        /* \"UUPScontracts/CommunityGovernanceMultisigImplementation.sol\":2339:2340  i */\n      dup2\n        /* \"UUPScontracts/CommunityGovernanceMultisigImplementation.sol\":2320:2340  uint256 maxIndex = i */\n      swap1\n      pop\n        /* \"UUPScontracts/CommunityGovernanceMultisigImplementation.sol\":2355:2364  uint256 j */\n      0x00\n        /* \"UUPScontracts/CommunityGovernanceMultisigImplementation.sol\":2371:2372  1 */\n      0x01\n        /* \"UUPScontracts/CommunityGovernanceMultisigImplementation.sol\":2367:2368  i */\n      dup4\n        /* \"UUPScontracts/CommunityGovernanceMultisigImplementation.sol\":2367:2372  i + 1 */\n      tag_187\n      swap2\n      swap1\n      tag_188\n      jump\t// in\n    tag_187:\n        /* \"UUPScontracts/CommunityGovernanceMultisigImplementation.sol\":2355:2372  uint256 j = i + 1 */\n      swap1\n      pop\n        /* \"UUPScontracts/CommunityGovernanceMultisigImplementation.sol\":2350:2519  for (uint256 j = i + 1; j < allMembers.length; j++) {... */\n    tag_184:\n        /* \"UUPScontracts/CommunityGovernanceMultisigImplementation.sol\":2378:2388  allMembers */\n      dup7\n        /* \"UUPScontracts/CommunityGovernanceMultisigImplementation.sol\":2378:2395  allMembers.length */\n      mload\n        /* \"UUPScontracts/CommunityGovernanceMultisigImplementation.sol\":2374:2375  j */\n      dup2\n        /* \"UUPScontracts/CommunityGovernanceMultisigImplementation.sol\":2374:2395  j < allMembers.length */\n      lt\n        /* \"UUPScontracts/CommunityGovernanceMultisigImplementation.sol\":2350:2519  for (uint256 j = i + 1; j < allMembers.length; j++) {... */\n      iszero\n      tag_185\n      jumpi\n        /* \"UUPScontracts/CommunityGovernanceMultisigImplementation.sol\":2439:2452  respectScores */\n      dup6\n        /* \"UUPScontracts/CommunityGovernanceMultisigImplementation.sol\":2453:2461  maxIndex */\n      dup3\n        /* \"UUPScontracts/CommunityGovernanceMultisigImplementation.sol\":2439:2462  respectScores[maxIndex] */\n      dup2\n      mload\n      dup2\n      lt\n      tag_189\n      jumpi\n      tag_190\n      tag_163\n      jump\t// in\n    tag_190:\n    tag_189:\n      0x20\n      mul\n      0x20\n      add\n      add\n      mload\n        /* \"UUPScontracts/CommunityGovernanceMultisigImplementation.sol\":2420:2433  respectScores */\n      dup7\n        /* \"UUPScontracts/CommunityGovernanceMultisigImplementation.sol\":2434:2435  j */\n      dup3\n        /* \"UUPScontracts/CommunityGovernanceMultisigImplementation.sol\":2420:2436  respectScores[j] */\n      dup2\n      mload\n      dup2\n      lt\n      tag_191\n      jumpi\n      tag_192\n      tag_163\n      jump\t// in\n    tag_192:\n    tag_191:\n      0x20\n      mul\n      0x20\n      add\n      add\n      mload\n        /* \"UUPScontracts/CommunityGovernanceMultisigImplementation.sol\":2420:2462  respectScores[j] > respectScores[maxIndex] */\n      gt\n        /* \"UUPScontracts/CommunityGovernanceMultisigImplementation.sol\":2416:2509  if (respectScores[j] > respectScores[maxIndex]) {... */\n      iszero\n      tag_193\n      jumpi\n        /* \"UUPScontracts/CommunityGovernanceMultisigImplementation.sol\":2493:2494  j */\n      dup1\n        /* \"UUPScontracts/CommunityGovernanceMultisigImplementation.sol\":2482:2494  maxIndex = j */\n      swap2\n      pop\n        /* \"UUPScontracts/CommunityGovernanceMultisigImplementation.sol\":2416:2509  if (respectScores[j] > respectScores[maxIndex]) {... */\n    tag_193:\n        /* \"UUPScontracts/CommunityGovernanceMultisigImplementation.sol\":2397:2400  j++ */\n      dup1\n      dup1\n      0x01\n      add\n      swap2\n      pop\n      pop\n        /* \"UUPScontracts/CommunityGovernanceMultisigImplementation.sol\":2350:2519  for (uint256 j = i + 1; j < allMembers.length; j++) {... */\n      jump(tag_184)\n    tag_185:\n      pop\n        /* \"UUPScontracts/CommunityGovernanceMultisigImplementation.sol\":2544:2545  i */\n      dup2\n        /* \"UUPScontracts/CommunityGovernanceMultisigImplementation.sol\":2532:2540  maxIndex */\n      dup2\n        /* \"UUPScontracts/CommunityGovernanceMultisigImplementation.sol\":2532:2545  maxIndex != i */\n      eq\n        /* \"UUPScontracts/CommunityGovernanceMultisigImplementation.sol\":2528:2752  if (maxIndex != i) {... */\n      tag_194\n      jumpi\n        /* \"UUPScontracts/CommunityGovernanceMultisigImplementation.sol\":2602:2612  allMembers */\n      dup6\n        /* \"UUPScontracts/CommunityGovernanceMultisigImplementation.sol\":2613:2621  maxIndex */\n      dup2\n        /* \"UUPScontracts/CommunityGovernanceMultisigImplementation.sol\":2602:2622  allMembers[maxIndex] */\n      dup2\n      mload\n      dup2\n      lt\n      tag_195\n      jumpi\n      tag_196\n      tag_163\n      jump\t// in\n    tag_196:\n    tag_195:\n      0x20\n      mul\n      0x20\n      add\n      add\n      mload\n        /* \"UUPScontracts/CommunityGovernanceMultisigImplementation.sol\":2624:2634  allMembers */\n      dup7\n        /* \"UUPScontracts/CommunityGovernanceMultisigImplementation.sol\":2635:2636  i */\n      dup4\n        /* \"UUPScontracts/CommunityGovernanceMultisigImplementation.sol\":2624:2637  allMembers[i] */\n      dup2\n      mload\n      dup2\n      lt\n      tag_197\n      jumpi\n      tag_198\n      tag_163\n      jump\t// in\n    tag_198:\n    tag_197:\n      0x20\n      mul\n      0x20\n      add\n      add\n      mload\n        /* \"UUPScontracts/CommunityGovernanceMultisigImplementation.sol\":2562:2572  allMembers */\n      dup8\n        /* \"UUPScontracts/CommunityGovernanceMultisigImplementation.sol\":2573:2574  i */\n      dup5\n        /* \"UUPScontracts/CommunityGovernanceMultisigImplementation.sol\":2562:2575  allMembers[i] */\n      dup2\n      mload\n      dup2\n      lt\n      tag_199\n      jumpi\n      tag_200\n      tag_163\n      jump\t// in\n    tag_200:\n    tag_199:\n      0x20\n      mul\n      0x20\n      add\n      add\n        /* \"UUPScontracts/CommunityGovernanceMultisigImplementation.sol\":2577:2587  allMembers */\n      dup9\n        /* \"UUPScontracts/CommunityGovernanceMultisigImplementation.sol\":2588:2596  maxIndex */\n      dup5\n        /* \"UUPScontracts/CommunityGovernanceMultisigImplementation.sol\":2577:2597  allMembers[maxIndex] */\n      dup2\n      mload\n      dup2\n      lt\n      tag_201\n      jumpi\n      tag_202\n      tag_163\n      jump\t// in\n    tag_202:\n    tag_201:\n      0x20\n      mul\n      0x20\n      add\n      add\n        /* \"UUPScontracts/CommunityGovernanceMultisigImplementation.sol\":2561:2638  (allMembers[i], allMembers[maxIndex]) = (allMembers[maxIndex], allMembers[i]) */\n      dup3\n      0xffffffffffffffffffffffffffffffffffffffff\n      and\n      0xffffffffffffffffffffffffffffffffffffffff\n      and\n      dup2\n      mstore\n      pop\n      dup3\n      0xffffffffffffffffffffffffffffffffffffffff\n      and\n      0xffffffffffffffffffffffffffffffffffffffff\n      and\n      dup2\n      mstore\n      pop\n      pop\n      pop\n        /* \"UUPScontracts/CommunityGovernanceMultisigImplementation.sol\":2699:2712  respectScores */\n      dup5\n        /* \"UUPScontracts/CommunityGovernanceMultisigImplementation.sol\":2713:2721  maxIndex */\n      dup2\n        /* \"UUPScontracts/CommunityGovernanceMultisigImplementation.sol\":2699:2722  respectScores[maxIndex] */\n      dup2\n      mload\n      dup2\n      lt\n      tag_203\n      jumpi\n      tag_204\n      tag_163\n      jump\t// in\n    tag_204:\n    tag_203:\n      0x20\n      mul\n      0x20\n      add\n      add\n      mload\n        /* \"UUPScontracts/CommunityGovernanceMultisigImplementation.sol\":2724:2737  respectScores */\n      dup6\n        /* \"UUPScontracts/CommunityGovernanceMultisigImplementation.sol\":2738:2739  i */\n      dup4\n        /* \"UUPScontracts/CommunityGovernanceMultisigImplementation.sol\":2724:2740  respectScores[i] */\n      dup2\n      mload\n      dup2\n      lt\n      tag_205\n      jumpi\n      tag_206\n      tag_163\n      jump\t// in\n    tag_206:\n    tag_205:\n      0x20\n      mul\n      0x20\n      add\n      add\n      mload\n        /* \"UUPScontracts/CommunityGovernanceMultisigImplementation.sol\":2653:2666  respectScores */\n      dup7\n        /* \"UUPScontracts/CommunityGovernanceMultisigImplementation.sol\":2667:2668  i */\n      dup5\n        /* \"UUPScontracts/CommunityGovernanceMultisigImplementation.sol\":2653:2669  respectScores[i] */\n      dup2\n      mload\n      dup2\n      lt\n      tag_207\n      jumpi\n      tag_208\n      tag_163\n      jump\t// in\n    tag_208:\n    tag_207:\n      0x20\n      mul\n      0x20\n      add\n      add\n        /* \"UUPScontracts/CommunityGovernanceMultisigImplementation.sol\":2671:2684  respectScores */\n      dup8\n        /* \"UUPScontracts/CommunityGovernanceMultisigImplementation.sol\":2685:2693  maxIndex */\n      dup5\n        /* \"UUPScontracts/CommunityGovernanceMultisigImplementation.sol\":2671:2694  respectScores[maxIndex] */\n      dup2\n      mload\n      dup2\n      lt\n      tag_209\n      jumpi\n      tag_210\n      tag_163\n      jump\t// in\n    tag_210:\n    tag_209:\n      0x20\n      mul\n      0x20\n      add\n      add\n        /* \"UUPScontracts/CommunityGovernanceMultisigImplementation.sol\":2652:2741  (respectScores[i], respectScores[maxIndex]) = (respectScores[maxIndex], respectScores[i]) */\n      dup3\n      dup2\n      mstore\n      pop\n      dup3\n      dup2\n      mstore\n      pop\n      pop\n      pop\n        /* \"UUPScontracts/CommunityGovernanceMultisigImplementation.sol\":2528:2752  if (maxIndex != i) {... */\n    tag_194:\n        /* \"UUPScontracts/CommunityGovernanceMultisigImplementation.sol\":2775:2785  allMembers */\n      dup6\n        /* \"UUPScontracts/CommunityGovernanceMultisigImplementation.sol\":2786:2787  i */\n      dup3\n        /* \"UUPScontracts/CommunityGovernanceMultisigImplementation.sol\":2775:2788  allMembers[i] */\n      dup2\n      mload\n      dup2\n      lt\n      tag_211\n      jumpi\n      tag_212\n      tag_163\n      jump\t// in\n    tag_212:\n    tag_211:\n      0x20\n      mul\n      0x20\n      add\n      add\n      mload\n        /* \"UUPScontracts/CommunityGovernanceMultisigImplementation.sol\":2761:2769  topUsers */\n      dup4\n        /* \"UUPScontracts/CommunityGovernanceMultisigImplementation.sol\":2770:2771  i */\n      dup4\n        /* \"UUPScontracts/CommunityGovernanceMultisigImplementation.sol\":2761:2772  topUsers[i] */\n      0x05\n      dup2\n      lt\n      tag_213\n      jumpi\n      tag_214\n      tag_163\n      jump\t// in\n    tag_214:\n    tag_213:\n      0x20\n      mul\n      add\n        /* \"UUPScontracts/CommunityGovernanceMultisigImplementation.sol\":2761:2788  topUsers[i] = allMembers[i] */\n      swap1\n      0xffffffffffffffffffffffffffffffffffffffff\n      and\n      swap1\n      dup2\n      0xffffffffffffffffffffffffffffffffffffffff\n      and\n      dup2\n      mstore\n      pop\n      pop\n        /* \"UUPScontracts/CommunityGovernanceMultisigImplementation.sol\":2310:2795  {... */\n      pop\n        /* \"UUPScontracts/CommunityGovernanceMultisigImplementation.sol\":2305:2308  i++ */\n      dup1\n      dup1\n      0x01\n      add\n      swap2\n      pop\n      pop\n        /* \"UUPScontracts/CommunityGovernanceMultisigImplementation.sol\":2271:2795  for (uint256 i = 0; i < topCount; i++) {... */\n      jump(tag_181)\n    tag_182:\n      pop\n        /* \"UUPScontracts/CommunityGovernanceMultisigImplementation.sol\":2875:2884  uint256 i */\n      0x00\n        /* \"UUPScontracts/CommunityGovernanceMultisigImplementation.sol\":2887:2895  topCount */\n      dup3\n        /* \"UUPScontracts/CommunityGovernanceMultisigImplementation.sol\":2875:2895  uint256 i = topCount */\n      swap1\n      pop\n        /* \"UUPScontracts/CommunityGovernanceMultisigImplementation.sol\":2870:2950  for (uint256 i = topCount; i < 5; i++) {... */\n    tag_215:\n        /* \"UUPScontracts/CommunityGovernanceMultisigImplementation.sol\":2901:2902  5 */\n      0x05\n        /* \"UUPScontracts/CommunityGovernanceMultisigImplementation.sol\":2897:2898  i */\n      dup2\n        /* \"UUPScontracts/CommunityGovernanceMultisigImplementation.sol\":2897:2902  i < 5 */\n      lt\n        /* \"UUPScontracts/CommunityGovernanceMultisigImplementation.sol\":2870:2950  for (uint256 i = topCount; i < 5; i++) {... */\n      iszero\n      tag_216\n      jumpi\n        /* \"UUPScontracts/CommunityGovernanceMultisigImplementation.sol\":2941:2942  0 */\n      0x00\n        /* \"UUPScontracts/CommunityGovernanceMultisigImplementation.sol\":2919:2927  topUsers */\n      dup3\n        /* \"UUPScontracts/CommunityGovernanceMultisigImplementation.sol\":2928:2929  i */\n      dup3\n        /* \"UUPScontracts/CommunityGovernanceMultisigImplementation.sol\":2919:2930  topUsers[i] */\n      0x05\n      dup2\n      lt\n      tag_218\n      jumpi\n      tag_219\n      tag_163\n      jump\t// in\n    tag_219:\n    tag_218:\n      0x20\n      mul\n      add\n        /* \"UUPScontracts/CommunityGovernanceMultisigImplementation.sol\":2919:2943  topUsers[i] = address(0) */\n      swap1\n      0xffffffffffffffffffffffffffffffffffffffff\n      and\n      swap1\n      dup2\n      0xffffffffffffffffffffffffffffffffffffffff\n      and\n      dup2\n      mstore\n      pop\n      pop\n        /* \"UUPScontracts/CommunityGovernanceMultisigImplementation.sol\":2904:2907  i++ */\n      dup1\n      dup1\n      0x01\n      add\n      swap2\n      pop\n      pop\n        /* \"UUPScontracts/CommunityGovernanceMultisigImplementation.sol\":2870:2950  for (uint256 i = topCount; i < 5; i++) {... */\n      jump(tag_215)\n    tag_216:\n      pop\n        /* \"UUPScontracts/CommunityGovernanceMultisigImplementation.sol\":3058:3066  topUsers */\n      dup1\n        /* \"UUPScontracts/CommunityGovernanceMultisigImplementation.sol\":3005:3023  communityMultiSigs */\n      0x02\n        /* \"UUPScontracts/CommunityGovernanceMultisigImplementation.sol\":3005:3037  communityMultiSigs[_communityId] */\n      0x00\n        /* \"UUPScontracts/CommunityGovernanceMultisigImplementation.sol\":3024:3036  _communityId */\n      dup8\n        /* \"UUPScontracts/CommunityGovernanceMultisigImplementation.sol\":3005:3037  communityMultiSigs[_communityId] */\n      dup2\n      mstore\n      0x20\n      add\n      swap1\n      dup2\n      mstore\n      0x20\n      add\n      0x00\n      keccak256\n        /* \"UUPScontracts/CommunityGovernanceMultisigImplementation.sol\":3005:3055  communityMultiSigs[_communityId].topRespectedUsers */\n      0x01\n      add\n        /* \"UUPScontracts/CommunityGovernanceMultisigImplementation.sol\":3005:3066  communityMultiSigs[_communityId].topRespectedUsers = topUsers */\n      swap1\n      0x05\n      tag_220\n      swap3\n      swap2\n      swap1\n      tag_221\n      jump\t// in\n    tag_220:\n      pop\n        /* \"UUPScontracts/CommunityGovernanceMultisigImplementation.sol\":3103:3115  _communityId */\n      dup5\n        /* \"UUPScontracts/CommunityGovernanceMultisigImplementation.sol\":3078:3126  TopRespectedUsersUpdated(_communityId, topUsers) */\n      0x0d725b01f2a8656cdf0767f5c4125384f89eb28243de781481360d45343029cb\n        /* \"UUPScontracts/CommunityGovernanceMultisigImplementation.sol\":3117:3125  topUsers */\n      dup3\n        /* \"UUPScontracts/CommunityGovernanceMultisigImplementation.sol\":3078:3126  TopRespectedUsersUpdated(_communityId, topUsers) */\n      mload(0x40)\n      tag_222\n      swap2\n      swap1\n      tag_116\n      jump\t// in\n    tag_222:\n      mload(0x40)\n      dup1\n      swap2\n      sub\n      swap1\n      log2\n        /* \"UUPScontracts/CommunityGovernanceMultisigImplementation.sol\":1627:3133  {... */\n      pop\n      pop\n      pop\n        /* \"UUPScontracts/CommunityGovernanceMultisigImplementation.sol\":1533:3133  function updateTopRespectedUsers(uint256 _communityId, address[] memory allMembers) external  {... */\n      pop\n      pop\n      jump\t// out\n        /* \"@openzeppelin/contracts-upgradeable/access/OwnableUpgradeable.sol\":3155:3256  function renounceOwnership() public virtual onlyOwner {... */\n    tag_65:\n        /* \"@openzeppelin/contracts-upgradeable/access/OwnableUpgradeable.sol\":2334:2347  _checkOwner() */\n      tag_224\n        /* \"@openzeppelin/contracts-upgradeable/access/OwnableUpgradeable.sol\":2334:2345  _checkOwner */\n      tag_127\n        /* \"@openzeppelin/contracts-upgradeable/access/OwnableUpgradeable.sol\":2334:2347  _checkOwner() */\n      jump\t// in\n    tag_224:\n        /* \"@openzeppelin/contracts-upgradeable/access/OwnableUpgradeable.sol\":3219:3249  _transferOwnership(address(0)) */\n      tag_226\n        /* \"@openzeppelin/contracts-upgradeable/access/OwnableUpgradeable.sol\":3246:3247  0 */\n      0x00\n        /* \"@openzeppelin/contracts-upgradeable/access/OwnableUpgradeable.sol\":3219:3237  _transferOwnership */\n      tag_227\n        /* \"@openzeppelin/contracts-upgradeable/access/OwnableUpgradeable.sol\":3219:3249  _transferOwnership(address(0)) */\n      jump\t// in\n    tag_226:\n        /* \"@openzeppelin/contracts-upgradeable/access/OwnableUpgradeable.sol\":3155:3256  function renounceOwnership() public virtual onlyOwner {... */\n      jump\t// out\n        /* \"@openzeppelin/contracts-upgradeable/access/OwnableUpgradeable.sol\":2441:2585  function owner() public view virtual returns (address) {... */\n    tag_68:\n        /* \"@openzeppelin/contracts-upgradeable/access/OwnableUpgradeable.sol\":2487:2494  address */\n      0x00\n        /* \"@openzeppelin/contracts-upgradeable/access/OwnableUpgradeable.sol\":2506:2530  OwnableStorage storage $ */\n      dup1\n        /* \"@openzeppelin/contracts-upgradeable/access/OwnableUpgradeable.sol\":2533:2553  _getOwnableStorage() */\n      tag_229\n        /* \"@openzeppelin/contracts-upgradeable/access/OwnableUpgradeable.sol\":2533:2551  _getOwnableStorage */\n      tag_230\n        /* \"@openzeppelin/contracts-upgradeable/access/OwnableUpgradeable.sol\":2533:2553  _getOwnableStorage() */\n      jump\t// in\n    tag_229:\n        /* \"@openzeppelin/contracts-upgradeable/access/OwnableUpgradeable.sol\":2506:2553  OwnableStorage storage $ = _getOwnableStorage() */\n      swap1\n      pop\n        /* \"@openzeppelin/contracts-upgradeable/access/OwnableUpgradeable.sol\":2570:2571  $ */\n      dup1\n        /* \"@openzeppelin/contracts-upgradeable/access/OwnableUpgradeable.sol\":2570:2578  $._owner */\n      0x00\n      add\n      0x00\n      swap1\n      sload\n      swap1\n      0x0100\n      exp\n      swap1\n      div\n      0xffffffffffffffffffffffffffffffffffffffff\n      and\n        /* \"@openzeppelin/contracts-upgradeable/access/OwnableUpgradeable.sol\":2563:2578  return $._owner */\n      swap2\n      pop\n      pop\n        /* \"@openzeppelin/contracts-upgradeable/access/OwnableUpgradeable.sol\":2441:2585  function owner() public view virtual returns (address) {... */\n      swap1\n      jump\t// out\n        /* \"UUPScontracts/CommunityGovernanceMultisigImplementation.sol\":7695:8232  function getProposal(uint256 _communityId, uint256 _proposalId) external view returns (... */\n    tag_74:\n        /* \"UUPScontracts/CommunityGovernanceMultisigImplementation.sol\":7791:7816  ProposalType proposalType */\n      0x00\n        /* \"UUPScontracts/CommunityGovernanceMultisigImplementation.sol\":7826:7839  uint256 value */\n      dup1\n        /* \"UUPScontracts/CommunityGovernanceMultisigImplementation.sol\":7849:7869  address targetMember */\n      0x00\n        /* \"UUPScontracts/CommunityGovernanceMultisigImplementation.sol\":7879:7901  uint256 signatureCount */\n      dup1\n        /* \"UUPScontracts/CommunityGovernanceMultisigImplementation.sol\":7911:7924  bool executed */\n      0x00\n        /* \"UUPScontracts/CommunityGovernanceMultisigImplementation.sol\":7941:7974  MultiSigProposal storage proposal */\n      dup1\n        /* \"UUPScontracts/CommunityGovernanceMultisigImplementation.sol\":7977:7995  communityMultiSigs */\n      0x02\n        /* \"UUPScontracts/CommunityGovernanceMultisigImplementation.sol\":7977:8009  communityMultiSigs[_communityId] */\n      0x00\n        /* \"UUPScontracts/CommunityGovernanceMultisigImplementation.sol\":7996:8008  _communityId */\n      dup10\n        /* \"UUPScontracts/CommunityGovernanceMultisigImplementation.sol\":7977:8009  communityMultiSigs[_communityId] */\n      dup2\n      mstore\n      0x20\n      add\n      swap1\n      dup2\n      mstore\n      0x20\n      add\n      0x00\n      keccak256\n        /* \"UUPScontracts/CommunityGovernanceMultisigImplementation.sol\":7977:8019  communityMultiSigs[_communityId].proposals */\n      0x00\n      add\n        /* \"UUPScontracts/CommunityGovernanceMultisigImplementation.sol\":7977:8032  communityMultiSigs[_communityId].proposals[_proposalId] */\n      0x00\n        /* \"UUPScontracts/CommunityGovernanceMultisigImplementation.sol\":8020:8031  _proposalId */\n      dup9\n        /* \"UUPScontracts/CommunityGovernanceMultisigImplementation.sol\":7977:8032  communityMultiSigs[_communityId].proposals[_proposalId] */\n      dup2\n      mstore\n      0x20\n      add\n      swap1\n      dup2\n      mstore\n      0x20\n      add\n      0x00\n      keccak256\n        /* \"UUPScontracts/CommunityGovernanceMultisigImplementation.sol\":7941:8032  MultiSigProposal storage proposal = communityMultiSigs[_communityId].proposals[_proposalId] */\n      swap1\n      pop\n        /* \"UUPScontracts/CommunityGovernanceMultisigImplementation.sol\":8063:8071  proposal */\n      dup1\n        /* \"UUPScontracts/CommunityGovernanceMultisigImplementation.sol\":8063:8084  proposal.proposalType */\n      0x00\n      add\n      0x00\n      swap1\n      sload\n      swap1\n      0x0100\n      exp\n      swap1\n      div\n      0xff\n      and\n        /* \"UUPScontracts/CommunityGovernanceMultisigImplementation.sol\":8098:8106  proposal */\n      dup2\n        /* \"UUPScontracts/CommunityGovernanceMultisigImplementation.sol\":8098:8112  proposal.value */\n      0x01\n      add\n      sload\n        /* \"UUPScontracts/CommunityGovernanceMultisigImplementation.sol\":8126:8134  proposal */\n      dup3\n        /* \"UUPScontracts/CommunityGovernanceMultisigImplementation.sol\":8126:8147  proposal.targetMember */\n      0x02\n      add\n      0x00\n      swap1\n      sload\n      swap1\n      0x0100\n      exp\n      swap1\n      div\n      0xffffffffffffffffffffffffffffffffffffffff\n      and\n        /* \"UUPScontracts/CommunityGovernanceMultisigImplementation.sol\":8161:8169  proposal */\n      dup4\n        /* \"UUPScontracts/CommunityGovernanceMultisigImplementation.sol\":8161:8184  proposal.signatureCount */\n      0x03\n      add\n      sload\n        /* \"UUPScontracts/CommunityGovernanceMultisigImplementation.sol\":8198:8206  proposal */\n      dup5\n        /* \"UUPScontracts/CommunityGovernanceMultisigImplementation.sol\":8198:8215  proposal.executed */\n      0x05\n      add\n      0x00\n      swap1\n      sload\n      swap1\n      0x0100\n      exp\n      swap1\n      div\n      0xff\n      and\n        /* \"UUPScontracts/CommunityGovernanceMultisigImplementation.sol\":8042:8225  return (... */\n      swap6\n      pop\n      swap6\n      pop\n      swap6\n      pop\n      swap6\n      pop\n      swap6\n      pop\n      pop\n        /* \"UUPScontracts/CommunityGovernanceMultisigImplementation.sol\":7695:8232  function getProposal(uint256 _communityId, uint256 _proposalId) external view returns (... */\n      swap3\n      swap6\n      pop\n      swap3\n      swap6\n      swap1\n      swap4\n      pop\n      jump\t// out\n        /* \"@openzeppelin/contracts-upgradeable/proxy/utils/UUPSUpgradeable.sol\":1819:1877  string public constant UPGRADE_INTERFACE_VERSION = \"5.0.0\" */\n    tag_79:\n      mload(0x40)\n      dup1\n      0x40\n      add\n      0x40\n      mstore\n      dup1\n      0x05\n      dup2\n      mstore\n      0x20\n      add\n      0x352e302e30000000000000000000000000000000000000000000000000000000\n      dup2\n      mstore\n      pop\n      dup2\n      jump\t// out\n        /* \"UUPScontracts/CommunityGovernanceMultisigImplementation.sol\":3139:3929  function createProposal(uint256 _communityId, uint256 _proposalId, ProposalType _type, uint256 _value, address _targetMember) external {... */\n    tag_86:\n        /* \"UUPScontracts/CommunityGovernanceMultisigImplementation.sol\":3487:3488  0 */\n      0x00\n        /* \"UUPScontracts/CommunityGovernanceMultisigImplementation.sol\":3413:3431  communityMultiSigs */\n      0x02\n        /* \"UUPScontracts/CommunityGovernanceMultisigImplementation.sol\":3413:3445  communityMultiSigs[_communityId] */\n      0x00\n        /* \"UUPScontracts/CommunityGovernanceMultisigImplementation.sol\":3432:3444  _communityId */\n      dup8\n        /* \"UUPScontracts/CommunityGovernanceMultisigImplementation.sol\":3413:3445  communityMultiSigs[_communityId] */\n      dup2\n      mstore\n      0x20\n      add\n      swap1\n      dup2\n      mstore\n      0x20\n      add\n      0x00\n      keccak256\n        /* \"UUPScontracts/CommunityGovernanceMultisigImplementation.sol\":3413:3455  communityMultiSigs[_communityId].proposals */\n      0x00\n      add\n        /* \"UUPScontracts/CommunityGovernanceMultisigImplementation.sol\":3413:3468  communityMultiSigs[_communityId].proposals[_proposalId] */\n      0x00\n        /* \"UUPScontracts/CommunityGovernanceMultisigImplementation.sol\":3456:3467  _proposalId */\n      dup7\n        /* \"UUPScontracts/CommunityGovernanceMultisigImplementation.sol\":3413:3468  communityMultiSigs[_communityId].proposals[_proposalId] */\n      dup2\n      mstore\n      0x20\n      add\n      swap1\n      dup2\n      mstore\n      0x20\n      add\n      0x00\n      keccak256\n        /* \"UUPScontracts/CommunityGovernanceMultisigImplementation.sol\":3413:3483  communityMultiSigs[_communityId].proposals[_proposalId].signatureCount */\n      0x03\n      add\n      sload\n        /* \"UUPScontracts/CommunityGovernanceMultisigImplementation.sol\":3413:3488  communityMultiSigs[_communityId].proposals[_proposalId].signatureCount == 0 */\n      eq\n        /* \"UUPScontracts/CommunityGovernanceMultisigImplementation.sol\":3405:3519  require(communityMultiSigs[_communityId].proposals[_proposalId].signatureCount == 0, \"Proposal ID already exists\") */\n      tag_233\n      jumpi\n      mload(0x40)\n      0x08c379a000000000000000000000000000000000000000000000000000000000\n      dup2\n      mstore\n      0x04\n      add\n      tag_234\n      swap1\n      tag_235\n      jump\t// in\n    tag_234:\n      mload(0x40)\n      dup1\n      swap2\n      sub\n      swap1\n      revert\n    tag_233:\n        /* \"UUPScontracts/CommunityGovernanceMultisigImplementation.sol\":3538:3571  MultiSigProposal storage proposal */\n      0x00\n        /* \"UUPScontracts/CommunityGovernanceMultisigImplementation.sol\":3574:3592  communityMultiSigs */\n      0x02\n        /* \"UUPScontracts/CommunityGovernanceMultisigImplementation.sol\":3574:3606  communityMultiSigs[_communityId] */\n      0x00\n        /* \"UUPScontracts/CommunityGovernanceMultisigImplementation.sol\":3593:3605  _communityId */\n      dup8\n        /* \"UUPScontracts/CommunityGovernanceMultisigImplementation.sol\":3574:3606  communityMultiSigs[_communityId] */\n      dup2\n      mstore\n      0x20\n      add\n      swap1\n      dup2\n      mstore\n      0x20\n      add\n      0x00\n      keccak256\n        /* \"UUPScontracts/CommunityGovernanceMultisigImplementation.sol\":3574:3616  communityMultiSigs[_communityId].proposals */\n      0x00\n      add\n        /* \"UUPScontracts/CommunityGovernanceMultisigImplementation.sol\":3574:3629  communityMultiSigs[_communityId].proposals[_proposalId] */\n      0x00\n        /* \"UUPScontracts/CommunityGovernanceMultisigImplementation.sol\":3617:3628  _proposalId */\n      dup7\n        /* \"UUPScontracts/CommunityGovernanceMultisigImplementation.sol\":3574:3629  communityMultiSigs[_communityId].proposals[_proposalId] */\n      dup2\n      mstore\n      0x20\n      add\n      swap1\n      dup2\n      mstore\n      0x20\n      add\n      0x00\n      keccak256\n        /* \"UUPScontracts/CommunityGovernanceMultisigImplementation.sol\":3538:3629  MultiSigProposal storage proposal = communityMultiSigs[_communityId].proposals[_proposalId] */\n      swap1\n      pop\n        /* \"UUPScontracts/CommunityGovernanceMultisigImplementation.sol\":3672:3677  _type */\n      dup4\n        /* \"UUPScontracts/CommunityGovernanceMultisigImplementation.sol\":3648:3656  proposal */\n      dup2\n        /* \"UUPScontracts/CommunityGovernanceMultisigImplementation.sol\":3648:3669  proposal.proposalType */\n      0x00\n      add\n      0x00\n        /* \"UUPScontracts/CommunityGovernanceMultisigImplementation.sol\":3648:3677  proposal.proposalType = _type */\n      0x0100\n      exp\n      dup2\n      sload\n      dup2\n      0xff\n      mul\n      not\n      and\n      swap1\n      dup4\n      0x02\n      dup2\n      gt\n      iszero\n      tag_236\n      jumpi\n      tag_237\n      tag_238\n      jump\t// in\n    tag_237:\n    tag_236:\n      mul\n      or\n      swap1\n      sstore\n      pop\n        /* \"UUPScontracts/CommunityGovernanceMultisigImplementation.sol\":3704:3710  _value */\n      dup3\n        /* \"UUPScontracts/CommunityGovernanceMultisigImplementation.sol\":3687:3695  proposal */\n      dup2\n        /* \"UUPScontracts/CommunityGovernanceMultisigImplementation.sol\":3687:3701  proposal.value */\n      0x01\n      add\n        /* \"UUPScontracts/CommunityGovernanceMultisigImplementation.sol\":3687:3710  proposal.value = _value */\n      dup2\n      swap1\n      sstore\n      pop\n        /* \"UUPScontracts/CommunityGovernanceMultisigImplementation.sol\":3744:3757  _targetMember */\n      dup2\n        /* \"UUPScontracts/CommunityGovernanceMultisigImplementation.sol\":3720:3728  proposal */\n      dup2\n        /* \"UUPScontracts/CommunityGovernanceMultisigImplementation.sol\":3720:3741  proposal.targetMember */\n      0x02\n      add\n      0x00\n        /* \"UUPScontracts/CommunityGovernanceMultisigImplementation.sol\":3720:3757  proposal.targetMember = _targetMember */\n      0x0100\n      exp\n      dup2\n      sload\n      dup2\n      0xffffffffffffffffffffffffffffffffffffffff\n      mul\n      not\n      and\n      swap1\n      dup4\n      0xffffffffffffffffffffffffffffffffffffffff\n      and\n      mul\n      or\n      swap1\n      sstore\n      pop\n        /* \"UUPScontracts/CommunityGovernanceMultisigImplementation.sol\":3793:3794  1 */\n      0x01\n        /* \"UUPScontracts/CommunityGovernanceMultisigImplementation.sol\":3767:3775  proposal */\n      dup2\n        /* \"UUPScontracts/CommunityGovernanceMultisigImplementation.sol\":3767:3790  proposal.signatureCount */\n      0x03\n      add\n        /* \"UUPScontracts/CommunityGovernanceMultisigImplementation.sol\":3767:3794  proposal.signatureCount = 1 */\n      dup2\n      swap1\n      sstore\n      pop\n        /* \"UUPScontracts/CommunityGovernanceMultisigImplementation.sol\":3845:3849  true */\n      0x01\n        /* \"UUPScontracts/CommunityGovernanceMultisigImplementation.sol\":3804:3812  proposal */\n      dup2\n        /* \"UUPScontracts/CommunityGovernanceMultisigImplementation.sol\":3804:3830  proposal.hasSignedProposal */\n      0x04\n      add\n        /* \"UUPScontracts/CommunityGovernanceMultisigImplementation.sol\":3804:3842  proposal.hasSignedProposal[msg.sender] */\n      0x00\n        /* \"UUPScontracts/CommunityGovernanceMultisigImplementation.sol\":3831:3841  msg.sender */\n      caller\n        /* \"UUPScontracts/CommunityGovernanceMultisigImplementation.sol\":3804:3842  proposal.hasSignedProposal[msg.sender] */\n      0xffffffffffffffffffffffffffffffffffffffff\n      and\n      0xffffffffffffffffffffffffffffffffffffffff\n      and\n      dup2\n      mstore\n      0x20\n      add\n      swap1\n      dup2\n      mstore\n      0x20\n      add\n      0x00\n      keccak256\n      0x00\n        /* \"UUPScontracts/CommunityGovernanceMultisigImplementation.sol\":3804:3849  proposal.hasSignedProposal[msg.sender] = true */\n      0x0100\n      exp\n      dup2\n      sload\n      dup2\n      0xff\n      mul\n      not\n      and\n      swap1\n      dup4\n      iszero\n      iszero\n      mul\n      or\n      swap1\n      sstore\n      pop\n        /* \"UUPScontracts/CommunityGovernanceMultisigImplementation.sol\":3903:3914  _proposalId */\n      dup5\n        /* \"UUPScontracts/CommunityGovernanceMultisigImplementation.sol\":3889:3901  _communityId */\n      dup7\n        /* \"UUPScontracts/CommunityGovernanceMultisigImplementation.sol\":3873:3922  ProposalCreated(_communityId, _proposalId, _type) */\n      0xb6e96f518c19cffcfba1957109656f5d029c7562f7b417e9556d302c857c090f\n        /* \"UUPScontracts/CommunityGovernanceMultisigImplementation.sol\":3916:3921  _type */\n      dup7\n        /* \"UUPScontracts/CommunityGovernanceMultisigImplementation.sol\":3873:3922  ProposalCreated(_communityId, _proposalId, _type) */\n      mload(0x40)\n      tag_239\n      swap2\n      swap1\n      tag_240\n      jump\t// in\n    tag_239:\n      mload(0x40)\n      dup1\n      swap2\n      sub\n      swap1\n      log3\n        /* \"UUPScontracts/CommunityGovernanceMultisigImplementation.sol\":3274:3929  {... */\n      pop\n        /* \"UUPScontracts/CommunityGovernanceMultisigImplementation.sol\":3139:3929  function createProposal(uint256 _communityId, uint256 _proposalId, ProposalType _type, uint256 _value, address _targetMember) external {... */\n      pop\n      pop\n      pop\n      pop\n      pop\n      jump\t// out\n        /* \"UUPScontracts/CommunityGovernanceMultisigImplementation.sol\":869:1009  function initialize(address initialOwner) public initializer {... */\n    tag_91:\n        /* \"@openzeppelin/contracts-upgradeable/proxy/utils/Initializable.sol\":4158:4188  InitializableStorage storage $ */\n      0x00\n        /* \"@openzeppelin/contracts-upgradeable/proxy/utils/Initializable.sol\":4191:4217  _getInitializableStorage() */\n      tag_242\n        /* \"@openzeppelin/contracts-upgradeable/proxy/utils/Initializable.sol\":4191:4215  _getInitializableStorage */\n      tag_243\n        /* \"@openzeppelin/contracts-upgradeable/proxy/utils/Initializable.sol\":4191:4217  _getInitializableStorage() */\n      jump\t// in\n    tag_242:\n        /* \"@openzeppelin/contracts-upgradeable/proxy/utils/Initializable.sol\":4158:4217  InitializableStorage storage $ = _getInitializableStorage() */\n      swap1\n      pop\n        /* \"@openzeppelin/contracts-upgradeable/proxy/utils/Initializable.sol\":4279:4298  bool isTopLevelCall */\n      0x00\n        /* \"@openzeppelin/contracts-upgradeable/proxy/utils/Initializable.sol\":4302:4303  $ */\n      dup2\n        /* \"@openzeppelin/contracts-upgradeable/proxy/utils/Initializable.sol\":4302:4317  $._initializing */\n      0x00\n      add\n      0x08\n      swap1\n      sload\n      swap1\n      0x0100\n      exp\n      swap1\n      div\n      0xff\n      and\n        /* \"@openzeppelin/contracts-upgradeable/proxy/utils/Initializable.sol\":4301:4317  !$._initializing */\n      iszero\n        /* \"@openzeppelin/contracts-upgradeable/proxy/utils/Initializable.sol\":4279:4317  bool isTopLevelCall = !$._initializing */\n      swap1\n      pop\n        /* \"@openzeppelin/contracts-upgradeable/proxy/utils/Initializable.sol\":4327:4345  uint64 initialized */\n      0x00\n        /* \"@openzeppelin/contracts-upgradeable/proxy/utils/Initializable.sol\":4348:4349  $ */\n      dup3\n        /* \"@openzeppelin/contracts-upgradeable/proxy/utils/Initializable.sol\":4348:4362  $._initialized */\n      0x00\n      add\n      0x00\n      swap1\n      sload\n      swap1\n      0x0100\n      exp\n      swap1\n      div\n      0xffffffffffffffff\n      and\n        /* \"@openzeppelin/contracts-upgradeable/proxy/utils/Initializable.sol\":4327:4362  uint64 initialized = $._initialized */\n      swap1\n      pop\n        /* \"@openzeppelin/contracts-upgradeable/proxy/utils/Initializable.sol\":4706:4723  bool initialSetup */\n      0x00\n        /* \"@openzeppelin/contracts-upgradeable/proxy/utils/Initializable.sol\":4741:4742  0 */\n      dup1\n        /* \"@openzeppelin/contracts-upgradeable/proxy/utils/Initializable.sol\":4726:4737  initialized */\n      dup3\n        /* \"@openzeppelin/contracts-upgradeable/proxy/utils/Initializable.sol\":4726:4742  initialized == 0 */\n      0xffffffffffffffff\n      and\n      eq\n        /* \"@openzeppelin/contracts-upgradeable/proxy/utils/Initializable.sol\":4726:4760  initialized == 0 && isTopLevelCall */\n      dup1\n      iszero\n      tag_244\n      jumpi\n      pop\n        /* \"@openzeppelin/contracts-upgradeable/proxy/utils/Initializable.sol\":4746:4760  isTopLevelCall */\n      dup3\n        /* \"@openzeppelin/contracts-upgradeable/proxy/utils/Initializable.sol\":4726:4760  initialized == 0 && isTopLevelCall */\n    tag_244:\n        /* \"@openzeppelin/contracts-upgradeable/proxy/utils/Initializable.sol\":4706:4760  bool initialSetup = initialized == 0 && isTopLevelCall */\n      swap1\n      pop\n        /* \"@openzeppelin/contracts-upgradeable/proxy/utils/Initializable.sol\":4770:4787  bool construction */\n      0x00\n        /* \"@openzeppelin/contracts-upgradeable/proxy/utils/Initializable.sol\":4805:4806  1 */\n      0x01\n        /* \"@openzeppelin/contracts-upgradeable/proxy/utils/Initializable.sol\":4790:4801  initialized */\n      dup4\n        /* \"@openzeppelin/contracts-upgradeable/proxy/utils/Initializable.sol\":4790:4806  initialized == 1 */\n      0xffffffffffffffff\n      and\n      eq\n        /* \"@openzeppelin/contracts-upgradeable/proxy/utils/Initializable.sol\":4790:4840  initialized == 1 && address(this).code.length == 0 */\n      dup1\n      iszero\n      tag_245\n      jumpi\n      pop\n        /* \"@openzeppelin/contracts-upgradeable/proxy/utils/Initializable.sol\":4839:4840  0 */\n      0x00\n        /* \"@openzeppelin/contracts-upgradeable/proxy/utils/Initializable.sol\":4818:4822  this */\n      address\n        /* \"@openzeppelin/contracts-upgradeable/proxy/utils/Initializable.sol\":4810:4835  address(this).code.length */\n      0xffffffffffffffffffffffffffffffffffffffff\n      and\n      extcodesize\n        /* \"@openzeppelin/contracts-upgradeable/proxy/utils/Initializable.sol\":4810:4840  address(this).code.length == 0 */\n      eq\n        /* \"@openzeppelin/contracts-upgradeable/proxy/utils/Initializable.sol\":4790:4840  initialized == 1 && address(this).code.length == 0 */\n    tag_245:\n        /* \"@openzeppelin/contracts-upgradeable/proxy/utils/Initializable.sol\":4770:4840  bool construction = initialized == 1 && address(this).code.length == 0 */\n      swap1\n      pop\n        /* \"@openzeppelin/contracts-upgradeable/proxy/utils/Initializable.sol\":4856:4868  initialSetup */\n      dup2\n        /* \"@openzeppelin/contracts-upgradeable/proxy/utils/Initializable.sol\":4855:4868  !initialSetup */\n      iszero\n        /* \"@openzeppelin/contracts-upgradeable/proxy/utils/Initializable.sol\":4855:4885  !initialSetup && !construction */\n      dup1\n      iszero\n      tag_246\n      jumpi\n      pop\n        /* \"@openzeppelin/contracts-upgradeable/proxy/utils/Initializable.sol\":4873:4885  construction */\n      dup1\n        /* \"@openzeppelin/contracts-upgradeable/proxy/utils/Initializable.sol\":4872:4885  !construction */\n      iszero\n        /* \"@openzeppelin/contracts-upgradeable/proxy/utils/Initializable.sol\":4855:4885  !initialSetup && !construction */\n    tag_246:\n        /* \"@openzeppelin/contracts-upgradeable/proxy/utils/Initializable.sol\":4851:4942  if (!initialSetup && !construction) {... */\n      iszero\n      tag_247\n      jumpi\n        /* \"@openzeppelin/contracts-upgradeable/proxy/utils/Initializable.sol\":4908:4931  InvalidInitialization() */\n      mload(0x40)\n      0xf92ee8a900000000000000000000000000000000000000000000000000000000\n      dup2\n      mstore\n      0x04\n      add\n      mload(0x40)\n      dup1\n      swap2\n      sub\n      swap1\n      revert\n        /* \"@openzeppelin/contracts-upgradeable/proxy/utils/Initializable.sol\":4851:4942  if (!initialSetup && !construction) {... */\n    tag_247:\n        /* \"@openzeppelin/contracts-upgradeable/proxy/utils/Initializable.sol\":4968:4969  1 */\n      0x01\n        /* \"@openzeppelin/contracts-upgradeable/proxy/utils/Initializable.sol\":4951:4952  $ */\n      dup6\n        /* \"@openzeppelin/contracts-upgradeable/proxy/utils/Initializable.sol\":4951:4965  $._initialized */\n      0x00\n      add\n      0x00\n        /* \"@openzeppelin/contracts-upgradeable/proxy/utils/Initializable.sol\":4951:4969  $._initialized = 1 */\n      0x0100\n      exp\n      dup2\n      sload\n      dup2\n      0xffffffffffffffff\n      mul\n      not\n      and\n      swap1\n      dup4\n      0xffffffffffffffff\n      and\n      mul\n      or\n      swap1\n      sstore\n      pop\n        /* \"@openzeppelin/contracts-upgradeable/proxy/utils/Initializable.sol\":4983:4997  isTopLevelCall */\n      dup4\n        /* \"@openzeppelin/contracts-upgradeable/proxy/utils/Initializable.sol\":4979:5046  if (isTopLevelCall) {... */\n      iszero\n      tag_248\n      jumpi\n        /* \"@openzeppelin/contracts-upgradeable/proxy/utils/Initializable.sol\":5031:5035  true */\n      0x01\n        /* \"@openzeppelin/contracts-upgradeable/proxy/utils/Initializable.sol\":5013:5014  $ */\n      dup6\n        /* \"@openzeppelin/contracts-upgradeable/proxy/utils/Initializable.sol\":5013:5028  $._initializing */\n      0x00\n      add\n      0x08\n        /* \"@openzeppelin/contracts-upgradeable/proxy/utils/Initializable.sol\":5013:5035  $._initializing = true */\n      0x0100\n      exp\n      dup2\n      sload\n      dup2\n      0xff\n      mul\n      not\n      and\n      swap1\n      dup4\n      iszero\n      iszero\n      mul\n      or\n      swap1\n      sstore\n      pop\n        /* \"@openzeppelin/contracts-upgradeable/proxy/utils/Initializable.sol\":4979:5046  if (isTopLevelCall) {... */\n    tag_248:\n        /* \"UUPScontracts/CommunityGovernanceMultisigImplementation.sol\":940:968  __Ownable_init(initialOwner) */\n      tag_250\n        /* \"UUPScontracts/CommunityGovernanceMultisigImplementation.sol\":955:967  initialOwner */\n      dup7\n        /* \"UUPScontracts/CommunityGovernanceMultisigImplementation.sol\":940:954  __Ownable_init */\n      tag_251\n        /* \"UUPScontracts/CommunityGovernanceMultisigImplementation.sol\":940:968  __Ownable_init(initialOwner) */\n      jump\t// in\n    tag_250:\n        /* \"UUPScontracts/CommunityGovernanceMultisigImplementation.sol\":978:1002  __UUPSUpgradeable_init() */\n      tag_252\n        /* \"UUPScontracts/CommunityGovernanceMultisigImplementation.sol\":978:1000  __UUPSUpgradeable_init */\n      tag_253\n        /* \"UUPScontracts/CommunityGovernanceMultisigImplementation.sol\":978:1002  __UUPSUpgradeable_init() */\n      jump\t// in\n    tag_252:\n        /* \"@openzeppelin/contracts-upgradeable/proxy/utils/Initializable.sol\":5070:5084  isTopLevelCall */\n      dup4\n        /* \"@openzeppelin/contracts-upgradeable/proxy/utils/Initializable.sol\":5066:5167  if (isTopLevelCall) {... */\n      iszero\n      tag_254\n      jumpi\n        /* \"@openzeppelin/contracts-upgradeable/proxy/utils/Initializable.sol\":5118:5123  false */\n      0x00\n        /* \"@openzeppelin/contracts-upgradeable/proxy/utils/Initializable.sol\":5100:5101  $ */\n      dup6\n        /* \"@openzeppelin/contracts-upgradeable/proxy/utils/Initializable.sol\":5100:5115  $._initializing */\n      0x00\n      add\n      0x08\n        /* \"@openzeppelin/contracts-upgradeable/proxy/utils/Initializable.sol\":5100:5123  $._initializing = false */\n      0x0100\n      exp\n      dup2\n      sload\n      dup2\n      0xff\n      mul\n      not\n      and\n      swap1\n      dup4\n      iszero\n      iszero\n      mul\n      or\n      swap1\n      sstore\n      pop\n        /* \"@openzeppelin/contracts-upgradeable/proxy/utils/Initializable.sol\":5142:5156  Initialized(1) */\n      0xc7f505b2f371ae2175ee4913f4499e1f2633a7b5936321eed1cdaeb6115181d2\n        /* \"@openzeppelin/contracts-upgradeable/proxy/utils/Initializable.sol\":5154:5155  1 */\n      0x01\n        /* \"@openzeppelin/contracts-upgradeable/proxy/utils/Initializable.sol\":5142:5156  Initialized(1) */\n      mload(0x40)\n      tag_255\n      swap2\n      swap1\n      tag_256\n      jump\t// in\n    tag_255:\n      mload(0x40)\n      dup1\n      swap2\n      sub\n      swap1\n      log1\n        /* \"@openzeppelin/contracts-upgradeable/proxy/utils/Initializable.sol\":5066:5167  if (isTopLevelCall) {... */\n    tag_254:\n        /* \"@openzeppelin/contracts-upgradeable/proxy/utils/Initializable.sol\":4092:5173  {... */\n      pop\n      pop\n      pop\n      pop\n      pop\n        /* \"UUPScontracts/CommunityGovernanceMultisigImplementation.sol\":869:1009  function initialize(address initialOwner) public initializer {... */\n      pop\n      jump\t// out\n        /* \"UUPScontracts/CommunityGovernanceMultisigImplementation.sol\":1105:1277  function setProfilesContract(address _profilesContractAddress) external onlyOwner {... */\n    tag_95:\n        /* \"@openzeppelin/contracts-upgradeable/access/OwnableUpgradeable.sol\":2334:2347  _checkOwner() */\n      tag_258\n        /* \"@openzeppelin/contracts-upgradeable/access/OwnableUpgradeable.sol\":2334:2345  _checkOwner */\n      tag_127\n        /* \"@openzeppelin/contracts-upgradeable/access/OwnableUpgradeable.sol\":2334:2347  _checkOwner() */\n      jump\t// in\n    tag_258:\n        /* \"UUPScontracts/CommunityGovernanceMultisigImplementation.sol\":1245:1269  _profilesContractAddress */\n      dup1\n        /* \"UUPScontracts/CommunityGovernanceMultisigImplementation.sol\":1197:1213  profilesContract */\n      0x00\n      dup1\n        /* \"UUPScontracts/CommunityGovernanceMultisigImplementation.sol\":1197:1270  profilesContract = ICommunityGovernanceProfiles(_profilesContractAddress) */\n      0x0100\n      exp\n      dup2\n      sload\n      dup2\n      0xffffffffffffffffffffffffffffffffffffffff\n      mul\n      not\n      and\n      swap1\n      dup4\n      0xffffffffffffffffffffffffffffffffffffffff\n      and\n      mul\n      or\n      swap1\n      sstore\n      pop\n        /* \"UUPScontracts/CommunityGovernanceMultisigImplementation.sol\":1105:1277  function setProfilesContract(address _profilesContractAddress) external onlyOwner {... */\n      pop\n      jump\t// out\n        /* \"UUPScontracts/CommunityGovernanceMultisigImplementation.sol\":1283:1480  function setContributionsContract(address _contributionsContractAddress) external onlyOwner {... */\n    tag_99:\n        /* \"@openzeppelin/contracts-upgradeable/access/OwnableUpgradeable.sol\":2334:2347  _checkOwner() */\n      tag_261\n        /* \"@openzeppelin/contracts-upgradeable/access/OwnableUpgradeable.sol\":2334:2345  _checkOwner */\n      tag_127\n        /* \"@openzeppelin/contracts-upgradeable/access/OwnableUpgradeable.sol\":2334:2347  _checkOwner() */\n      jump\t// in\n    tag_261:\n        /* \"UUPScontracts/CommunityGovernanceMultisigImplementation.sol\":1443:1472  _contributionsContractAddress */\n      dup1\n        /* \"UUPScontracts/CommunityGovernanceMultisigImplementation.sol\":1385:1406  contributionsContract */\n      0x01\n      0x00\n        /* \"UUPScontracts/CommunityGovernanceMultisigImplementation.sol\":1385:1473  contributionsContract = ICommunityGovernanceContributions(_contributionsContractAddress) */\n      0x0100\n      exp\n      dup2\n      sload\n      dup2\n      0xffffffffffffffffffffffffffffffffffffffff\n      mul\n      not\n      and\n      swap1\n      dup4\n      0xffffffffffffffffffffffffffffffffffffffff\n      and\n      mul\n      or\n      swap1\n      sstore\n      pop\n        /* \"UUPScontracts/CommunityGovernanceMultisigImplementation.sol\":1283:1480  function setContributionsContract(address _contributionsContractAddress) external onlyOwner {... */\n      pop\n      jump\t// out\n        /* \"UUPScontracts/CommunityGovernanceMultisigImplementation.sol\":7000:7160  function getRespectToDistribute(uint256 _communityId) public view returns (uint256) {... */\n    tag_103:\n        /* \"UUPScontracts/CommunityGovernanceMultisigImplementation.sol\":7075:7082  uint256 */\n      0x00\n        /* \"UUPScontracts/CommunityGovernanceMultisigImplementation.sol\":7101:7119  communityMultiSigs */\n      0x02\n        /* \"UUPScontracts/CommunityGovernanceMultisigImplementation.sol\":7101:7133  communityMultiSigs[_communityId] */\n      0x00\n        /* \"UUPScontracts/CommunityGovernanceMultisigImplementation.sol\":7120:7132  _communityId */\n      dup4\n        /* \"UUPScontracts/CommunityGovernanceMultisigImplementation.sol\":7101:7133  communityMultiSigs[_communityId] */\n      dup2\n      mstore\n      0x20\n      add\n      swap1\n      dup2\n      mstore\n      0x20\n      add\n      0x00\n      keccak256\n        /* \"UUPScontracts/CommunityGovernanceMultisigImplementation.sol\":7101:7153  communityMultiSigs[_communityId].respectToDistribute */\n      0x06\n      add\n      sload\n        /* \"UUPScontracts/CommunityGovernanceMultisigImplementation.sol\":7094:7153  return communityMultiSigs[_communityId].respectToDistribute */\n      swap1\n      pop\n        /* \"UUPScontracts/CommunityGovernanceMultisigImplementation.sol\":7000:7160  function getRespectToDistribute(uint256 _communityId) public view returns (uint256) {... */\n      swap2\n      swap1\n      pop\n      jump\t// out\n        /* \"UUPScontracts/CommunityGovernanceMultiSigStorage.sol\":283:345  ICommunityGovernanceContributions public contributionsContract */\n    tag_108:\n      0x01\n      0x00\n      swap1\n      sload\n      swap1\n      0x0100\n      exp\n      swap1\n      div\n      0xffffffffffffffffffffffffffffffffffffffff\n      and\n      dup2\n      jump\t// out\n        /* \"UUPScontracts/CommunityGovernanceMultisigImplementation.sol\":7521:7689  function getTopRespectedUsers(uint256 _communityId) external view returns (address[5] memory) {... */\n    tag_114:\n        /* \"UUPScontracts/CommunityGovernanceMultisigImplementation.sol\":7596:7613  address[5] memory */\n      tag_264\n      tag_130\n      jump\t// in\n    tag_264:\n        /* \"UUPScontracts/CommunityGovernanceMultisigImplementation.sol\":7632:7650  communityMultiSigs */\n      0x02\n        /* \"UUPScontracts/CommunityGovernanceMultisigImplementation.sol\":7632:7664  communityMultiSigs[_communityId] */\n      0x00\n        /* \"UUPScontracts/CommunityGovernanceMultisigImplementation.sol\":7651:7663  _communityId */\n      dup4\n        /* \"UUPScontracts/CommunityGovernanceMultisigImplementation.sol\":7632:7664  communityMultiSigs[_communityId] */\n      dup2\n      mstore\n      0x20\n      add\n      swap1\n      dup2\n      mstore\n      0x20\n      add\n      0x00\n      keccak256\n        /* \"UUPScontracts/CommunityGovernanceMultisigImplementation.sol\":7632:7682  communityMultiSigs[_communityId].topRespectedUsers */\n      0x01\n      add\n        /* \"UUPScontracts/CommunityGovernanceMultisigImplementation.sol\":7625:7682  return communityMultiSigs[_communityId].topRespectedUsers */\n      0x05\n      dup1\n      0x20\n      mul\n      mload(0x40)\n      swap1\n      dup2\n      add\n      0x40\n      mstore\n      dup1\n      swap3\n      swap2\n      swap1\n      dup3\n      0x05\n      dup1\n      iszero\n      tag_266\n      jumpi\n      0x20\n      mul\n      dup3\n      add\n      swap2\n    tag_267:\n      dup2\n      0x00\n      swap1\n      sload\n      swap1\n      0x0100\n      exp\n      swap1\n      div\n      0xffffffffffffffffffffffffffffffffffffffff\n      and\n      0xffffffffffffffffffffffffffffffffffffffff\n      and\n      dup2\n      mstore\n      0x20\n      add\n      swap1\n      0x01\n      add\n      swap1\n      dup1\n      dup4\n      gt\n      tag_267\n      jumpi\n    tag_266:\n      pop\n      pop\n      pop\n      pop\n      pop\n      swap1\n      pop\n        /* \"UUPScontracts/CommunityGovernanceMultisigImplementation.sol\":7521:7689  function getTopRespectedUsers(uint256 _communityId) external view returns (address[5] memory) {... */\n      swap2\n      swap1\n      pop\n      jump\t// out\n        /* \"@openzeppelin/contracts-upgradeable/access/OwnableUpgradeable.sol\":3405:3620  function transferOwnership(address newOwner) public virtual onlyOwner {... */\n    tag_120:\n        /* \"@openzeppelin/contracts-upgradeable/access/OwnableUpgradeable.sol\":2334:2347  _checkOwner() */\n      tag_269\n        /* \"@openzeppelin/contracts-upgradeable/access/OwnableUpgradeable.sol\":2334:2345  _checkOwner */\n      tag_127\n        /* \"@openzeppelin/contracts-upgradeable/access/OwnableUpgradeable.sol\":2334:2347  _checkOwner() */\n      jump\t// in\n    tag_269:\n        /* \"@openzeppelin/contracts-upgradeable/access/OwnableUpgradeable.sol\":3509:3510  0 */\n      0x00\n        /* \"@openzeppelin/contracts-upgradeable/access/OwnableUpgradeable.sol\":3489:3511  newOwner == address(0) */\n      0xffffffffffffffffffffffffffffffffffffffff\n      and\n        /* \"@openzeppelin/contracts-upgradeable/access/OwnableUpgradeable.sol\":3489:3497  newOwner */\n      dup2\n        /* \"@openzeppelin/contracts-upgradeable/access/OwnableUpgradeable.sol\":3489:3511  newOwner == address(0) */\n      0xffffffffffffffffffffffffffffffffffffffff\n      and\n      sub\n        /* \"@openzeppelin/contracts-upgradeable/access/OwnableUpgradeable.sol\":3485:3576  if (newOwner == address(0)) {... */\n      tag_271\n      jumpi\n        /* \"@openzeppelin/contracts-upgradeable/access/OwnableUpgradeable.sol\":3562:3563  0 */\n      0x00\n        /* \"@openzeppelin/contracts-upgradeable/access/OwnableUpgradeable.sol\":3534:3565  OwnableInvalidOwner(address(0)) */\n      mload(0x40)\n      0x1e4fbdf700000000000000000000000000000000000000000000000000000000\n      dup2\n      mstore\n      0x04\n      add\n      tag_272\n      swap2\n      swap1\n      tag_70\n      jump\t// in\n    tag_272:\n      mload(0x40)\n      dup1\n      swap2\n      sub\n      swap1\n      revert\n        /* \"@openzeppelin/contracts-upgradeable/access/OwnableUpgradeable.sol\":3485:3576  if (newOwner == address(0)) {... */\n    tag_271:\n        /* \"@openzeppelin/contracts-upgradeable/access/OwnableUpgradeable.sol\":3585:3613  _transferOwnership(newOwner) */\n      tag_273\n        /* \"@openzeppelin/contracts-upgradeable/access/OwnableUpgradeable.sol\":3604:3612  newOwner */\n      dup2\n        /* \"@openzeppelin/contracts-upgradeable/access/OwnableUpgradeable.sol\":3585:3603  _transferOwnership */\n      tag_227\n        /* \"@openzeppelin/contracts-upgradeable/access/OwnableUpgradeable.sol\":3585:3613  _transferOwnership(newOwner) */\n      jump\t// in\n    tag_273:\n        /* \"@openzeppelin/contracts-upgradeable/access/OwnableUpgradeable.sol\":3405:3620  function transferOwnership(address newOwner) public virtual onlyOwner {... */\n      pop\n      jump\t// out\n        /* \"UUPScontracts/CommunityGovernanceMultisigImplementation.sol\":3935:4755  function signProposal(uint256 _communityId, uint256 _proposalId) external {... */\n    tag_124:\n        /* \"UUPScontracts/CommunityGovernanceMultisigImplementation.sol\":4027:4109  isTopRespectedUser(msg.sender, communityMultiSigs[_communityId].topRespectedUsers) */\n      tag_275\n        /* \"UUPScontracts/CommunityGovernanceMultisigImplementation.sol\":4046:4056  msg.sender */\n      caller\n        /* \"UUPScontracts/CommunityGovernanceMultisigImplementation.sol\":4058:4076  communityMultiSigs */\n      0x02\n        /* \"UUPScontracts/CommunityGovernanceMultisigImplementation.sol\":4058:4090  communityMultiSigs[_communityId] */\n      0x00\n        /* \"UUPScontracts/CommunityGovernanceMultisigImplementation.sol\":4077:4089  _communityId */\n      dup6\n        /* \"UUPScontracts/CommunityGovernanceMultisigImplementation.sol\":4058:4090  communityMultiSigs[_communityId] */\n      dup2\n      mstore\n      0x20\n      add\n      swap1\n      dup2\n      mstore\n      0x20\n      add\n      0x00\n      keccak256\n        /* \"UUPScontracts/CommunityGovernanceMultisigImplementation.sol\":4058:4108  communityMultiSigs[_communityId].topRespectedUsers */\n      0x01\n      add\n        /* \"UUPScontracts/CommunityGovernanceMultisigImplementation.sol\":4027:4109  isTopRespectedUser(msg.sender, communityMultiSigs[_communityId].topRespectedUsers) */\n      0x05\n      dup1\n      0x20\n      mul\n      mload(0x40)\n      swap1\n      dup2\n      add\n      0x40\n      mstore\n      dup1\n      swap3\n      swap2\n      swap1\n      dup3\n      0x05\n      dup1\n      iszero\n      tag_276\n      jumpi\n      0x20\n      mul\n      dup3\n      add\n      swap2\n    tag_277:\n      dup2\n      0x00\n      swap1\n      sload\n      swap1\n      0x0100\n      exp\n      swap1\n      div\n      0xffffffffffffffffffffffffffffffffffffffff\n      and\n      0xffffffffffffffffffffffffffffffffffffffff\n      and\n      dup2\n      mstore\n      0x20\n      add\n      swap1\n      0x01\n      add\n      swap1\n      dup1\n      dup4\n      gt\n      tag_277\n      jumpi\n    tag_276:\n      pop\n      pop\n      pop\n      pop\n      pop\n        /* \"UUPScontracts/CommunityGovernanceMultisigImplementation.sol\":4027:4045  isTopRespectedUser */\n      tag_278\n        /* \"UUPScontracts/CommunityGovernanceMultisigImplementation.sol\":4027:4109  isTopRespectedUser(msg.sender, communityMultiSigs[_communityId].topRespectedUsers) */\n      jump\t// in\n    tag_275:\n        /* \"UUPScontracts/CommunityGovernanceMultisigImplementation.sol\":4019:4128  require(isTopRespectedUser(msg.sender, communityMultiSigs[_communityId].topRespectedUsers), \"Not authorized\") */\n      tag_279\n      jumpi\n      mload(0x40)\n      0x08c379a000000000000000000000000000000000000000000000000000000000\n      dup2\n      mstore\n      0x04\n      add\n      tag_280\n      swap1\n      tag_281\n      jump\t// in\n    tag_280:\n      mload(0x40)\n      dup1\n      swap2\n      sub\n      swap1\n      revert\n    tag_279:\n        /* \"UUPScontracts/CommunityGovernanceMultisigImplementation.sol\":4147:4180  MultiSigProposal storage proposal */\n      0x00\n        /* \"UUPScontracts/CommunityGovernanceMultisigImplementation.sol\":4183:4201  communityMultiSigs */\n      0x02\n        /* \"UUPScontracts/CommunityGovernanceMultisigImplementation.sol\":4183:4215  communityMultiSigs[_communityId] */\n      0x00\n        /* \"UUPScontracts/CommunityGovernanceMultisigImplementation.sol\":4202:4214  _communityId */\n      dup5\n        /* \"UUPScontracts/CommunityGovernanceMultisigImplementation.sol\":4183:4215  communityMultiSigs[_communityId] */\n      dup2\n      mstore\n      0x20\n      add\n      swap1\n      dup2\n      mstore\n      0x20\n      add\n      0x00\n      keccak256\n        /* \"UUPScontracts/CommunityGovernanceMultisigImplementation.sol\":4183:4225  communityMultiSigs[_communityId].proposals */\n      0x00\n      add\n        /* \"UUPScontracts/CommunityGovernanceMultisigImplementation.sol\":4183:4238  communityMultiSigs[_communityId].proposals[_proposalId] */\n      0x00\n        /* \"UUPScontracts/CommunityGovernanceMultisigImplementation.sol\":4226:4237  _proposalId */\n      dup4\n        /* \"UUPScontracts/CommunityGovernanceMultisigImplementation.sol\":4183:4238  communityMultiSigs[_communityId].proposals[_proposalId] */\n      dup2\n      mstore\n      0x20\n      add\n      swap1\n      dup2\n      mstore\n      0x20\n      add\n      0x00\n      keccak256\n        /* \"UUPScontracts/CommunityGovernanceMultisigImplementation.sol\":4147:4238  MultiSigProposal storage proposal = communityMultiSigs[_communityId].proposals[_proposalId] */\n      swap1\n      pop\n        /* \"UUPScontracts/CommunityGovernanceMultisigImplementation.sol\":4282:4283  0 */\n      0x00\n        /* \"UUPScontracts/CommunityGovernanceMultisigImplementation.sol\":4256:4264  proposal */\n      dup2\n        /* \"UUPScontracts/CommunityGovernanceMultisigImplementation.sol\":4256:4279  proposal.signatureCount */\n      0x03\n      add\n      sload\n        /* \"UUPScontracts/CommunityGovernanceMultisigImplementation.sol\":4256:4283  proposal.signatureCount > 0 */\n      gt\n        /* \"UUPScontracts/CommunityGovernanceMultisigImplementation.sol\":4248:4311  require(proposal.signatureCount > 0, \"Proposal does not exist\") */\n      tag_282\n      jumpi\n      mload(0x40)\n      0x08c379a000000000000000000000000000000000000000000000000000000000\n      dup2\n      mstore\n      0x04\n      add\n      tag_283\n      swap1\n      tag_284\n      jump\t// in\n    tag_283:\n      mload(0x40)\n      dup1\n      swap2\n      sub\n      swap1\n      revert\n    tag_282:\n        /* \"UUPScontracts/CommunityGovernanceMultisigImplementation.sol\":4330:4338  proposal */\n      dup1\n        /* \"UUPScontracts/CommunityGovernanceMultisigImplementation.sol\":4330:4347  proposal.executed */\n      0x05\n      add\n      0x00\n      swap1\n      sload\n      swap1\n      0x0100\n      exp\n      swap1\n      div\n      0xff\n      and\n        /* \"UUPScontracts/CommunityGovernanceMultisigImplementation.sol\":4329:4347  !proposal.executed */\n      iszero\n        /* \"UUPScontracts/CommunityGovernanceMultisigImplementation.sol\":4321:4377  require(!proposal.executed, \"Proposal already executed\") */\n      tag_285\n      jumpi\n      mload(0x40)\n      0x08c379a000000000000000000000000000000000000000000000000000000000\n      dup2\n      mstore\n      0x04\n      add\n      tag_286\n      swap1\n      tag_287\n      jump\t// in\n    tag_286:\n      mload(0x40)\n      dup1\n      swap2\n      sub\n      swap1\n      revert\n    tag_285:\n        /* \"UUPScontracts/CommunityGovernanceMultisigImplementation.sol\":4396:4404  proposal */\n      dup1\n        /* \"UUPScontracts/CommunityGovernanceMultisigImplementation.sol\":4396:4422  proposal.hasSignedProposal */\n      0x04\n      add\n        /* \"UUPScontracts/CommunityGovernanceMultisigImplementation.sol\":4396:4434  proposal.hasSignedProposal[msg.sender] */\n      0x00\n        /* \"UUPScontracts/CommunityGovernanceMultisigImplementation.sol\":4423:4433  msg.sender */\n      caller\n        /* \"UUPScontracts/CommunityGovernanceMultisigImplementation.sol\":4396:4434  proposal.hasSignedProposal[msg.sender] */\n      0xffffffffffffffffffffffffffffffffffffffff\n      and\n      0xffffffffffffffffffffffffffffffffffffffff\n      and\n      dup2\n      mstore\n      0x20\n      add\n      swap1\n      dup2\n      mstore\n      0x20\n      add\n      0x00\n      keccak256\n      0x00\n      swap1\n      sload\n      swap1\n      0x0100\n      exp\n      swap1\n      div\n      0xff\n      and\n        /* \"UUPScontracts/CommunityGovernanceMultisigImplementation.sol\":4395:4434  !proposal.hasSignedProposal[msg.sender] */\n      iszero\n        /* \"UUPScontracts/CommunityGovernanceMultisigImplementation.sol\":4387:4453  require(!proposal.hasSignedProposal[msg.sender], \"Already signed\") */\n      tag_288\n      jumpi\n      mload(0x40)\n      0x08c379a000000000000000000000000000000000000000000000000000000000\n      dup2\n      mstore\n      0x04\n      add\n      tag_289\n      swap1\n      tag_290\n      jump\t// in\n    tag_289:\n      mload(0x40)\n      dup1\n      swap2\n      sub\n      swap1\n      revert\n    tag_288:\n        /* \"UUPScontracts/CommunityGovernanceMultisigImplementation.sol\":4513:4517  true */\n      0x01\n        /* \"UUPScontracts/CommunityGovernanceMultisigImplementation.sol\":4472:4480  proposal */\n      dup2\n        /* \"UUPScontracts/CommunityGovernanceMultisigImplementation.sol\":4472:4498  proposal.hasSignedProposal */\n      0x04\n      add\n        /* \"UUPScontracts/CommunityGovernanceMultisigImplementation.sol\":4472:4510  proposal.hasSignedProposal[msg.sender] */\n      0x00\n        /* \"UUPScontracts/CommunityGovernanceMultisigImplementation.sol\":4499:4509  msg.sender */\n      caller\n        /* \"UUPScontracts/CommunityGovernanceMultisigImplementation.sol\":4472:4510  proposal.hasSignedProposal[msg.sender] */\n      0xffffffffffffffffffffffffffffffffffffffff\n      and\n      0xffffffffffffffffffffffffffffffffffffffff\n      and\n      dup2\n      mstore\n      0x20\n      add\n      swap1\n      dup2\n      mstore\n      0x20\n      add\n      0x00\n      keccak256\n      0x00\n        /* \"UUPScontracts/CommunityGovernanceMultisigImplementation.sol\":4472:4517  proposal.hasSignedProposal[msg.sender] = true */\n      0x0100\n      exp\n      dup2\n      sload\n      dup2\n      0xff\n      mul\n      not\n      and\n      swap1\n      dup4\n      iszero\n      iszero\n      mul\n      or\n      swap1\n      sstore\n      pop\n        /* \"UUPScontracts/CommunityGovernanceMultisigImplementation.sol\":4527:4535  proposal */\n      dup1\n        /* \"UUPScontracts/CommunityGovernanceMultisigImplementation.sol\":4527:4550  proposal.signatureCount */\n      0x03\n      add\n      0x00\n        /* \"UUPScontracts/CommunityGovernanceMultisigImplementation.sol\":4527:4552  proposal.signatureCount++ */\n      dup2\n      sload\n      dup1\n      swap3\n      swap2\n      swap1\n      tag_291\n      swap1\n      tag_292\n      jump\t// in\n    tag_291:\n      swap2\n      swap1\n      pop\n      sstore\n      pop\n        /* \"UUPScontracts/CommunityGovernanceMultisigImplementation.sol\":4605:4616  _proposalId */\n      dup2\n        /* \"UUPScontracts/CommunityGovernanceMultisigImplementation.sol\":4591:4603  _communityId */\n      dup4\n        /* \"UUPScontracts/CommunityGovernanceMultisigImplementation.sol\":4576:4629  ProposalSigned(_communityId, _proposalId, msg.sender) */\n      0x256519eb26d028f45eb678b9c4cf084619387132430e282b40fd12a40b4e2732\n        /* \"UUPScontracts/CommunityGovernanceMultisigImplementation.sol\":4618:4628  msg.sender */\n      caller\n        /* \"UUPScontracts/CommunityGovernanceMultisigImplementation.sol\":4576:4629  ProposalSigned(_communityId, _proposalId, msg.sender) */\n      mload(0x40)\n      tag_293\n      swap2\n      swap1\n      tag_70\n      jump\t// in\n    tag_293:\n      mload(0x40)\n      dup1\n      swap2\n      sub\n      swap1\n      log3\n        /* \"UUPScontracts/CommunityGovernanceMultisigImplementation.sol\":4679:4680  3 */\n      0x03\n        /* \"UUPScontracts/CommunityGovernanceMultisigImplementation.sol\":4652:4660  proposal */\n      dup2\n        /* \"UUPScontracts/CommunityGovernanceMultisigImplementation.sol\":4652:4675  proposal.signatureCount */\n      0x03\n      add\n      sload\n        /* \"UUPScontracts/CommunityGovernanceMultisigImplementation.sol\":4652:4680  proposal.signatureCount >= 3 */\n      lt\n        /* \"UUPScontracts/CommunityGovernanceMultisigImplementation.sol\":4648:4749  if (proposal.signatureCount >= 3) {... */\n      tag_294\n      jumpi\n        /* \"UUPScontracts/CommunityGovernanceMultisigImplementation.sol\":4696:4738  executeProposal(_communityId, _proposalId) */\n      tag_295\n        /* \"UUPScontracts/CommunityGovernanceMultisigImplementation.sol\":4712:4724  _communityId */\n      dup4\n        /* \"UUPScontracts/CommunityGovernanceMultisigImplementation.sol\":4726:4737  _proposalId */\n      dup4\n        /* \"UUPScontracts/CommunityGovernanceMultisigImplementation.sol\":4696:4711  executeProposal */\n      tag_296\n        /* \"UUPScontracts/CommunityGovernanceMultisigImplementation.sol\":4696:4738  executeProposal(_communityId, _proposalId) */\n      jump\t// in\n    tag_295:\n        /* \"UUPScontracts/CommunityGovernanceMultisigImplementation.sol\":4648:4749  if (proposal.signatureCount >= 3) {... */\n    tag_294:\n        /* \"UUPScontracts/CommunityGovernanceMultisigImplementation.sol\":4009:4755  {... */\n      pop\n        /* \"UUPScontracts/CommunityGovernanceMultisigImplementation.sol\":3935:4755  function signProposal(uint256 _communityId, uint256 _proposalId) external {... */\n      pop\n      pop\n      jump\t// out\n        /* \"@openzeppelin/contracts-upgradeable/access/OwnableUpgradeable.sol\":2658:2820  function _checkOwner() internal view virtual {... */\n    tag_127:\n        /* \"@openzeppelin/contracts-upgradeable/access/OwnableUpgradeable.sol\":2728:2740  _msgSender() */\n      tag_298\n        /* \"@openzeppelin/contracts-upgradeable/access/OwnableUpgradeable.sol\":2728:2738  _msgSender */\n      tag_299\n        /* \"@openzeppelin/contracts-upgradeable/access/OwnableUpgradeable.sol\":2728:2740  _msgSender() */\n      jump\t// in\n    tag_298:\n        /* \"@openzeppelin/contracts-upgradeable/access/OwnableUpgradeable.sol\":2717:2740  owner() != _msgSender() */\n      0xffffffffffffffffffffffffffffffffffffffff\n      and\n        /* \"@openzeppelin/contracts-upgradeable/access/OwnableUpgradeable.sol\":2717:2724  owner() */\n      tag_300\n        /* \"@openzeppelin/contracts-upgradeable/access/OwnableUpgradeable.sol\":2717:2722  owner */\n      tag_68\n        /* \"@openzeppelin/contracts-upgradeable/access/OwnableUpgradeable.sol\":2717:2724  owner() */\n      jump\t// in\n    tag_300:\n        /* \"@openzeppelin/contracts-upgradeable/access/OwnableUpgradeable.sol\":2717:2740  owner() != _msgSender() */\n      0xffffffffffffffffffffffffffffffffffffffff\n      and\n      eq\n        /* \"@openzeppelin/contracts-upgradeable/access/OwnableUpgradeable.sol\":2713:2814  if (owner() != _msgSender()) {... */\n      tag_301\n      jumpi\n        /* \"@openzeppelin/contracts-upgradeable/access/OwnableUpgradeable.sol\":2790:2802  _msgSender() */\n      tag_302\n        /* \"@openzeppelin/contracts-upgradeable/access/OwnableUpgradeable.sol\":2790:2800  _msgSender */\n      tag_299\n        /* \"@openzeppelin/contracts-upgradeable/access/OwnableUpgradeable.sol\":2790:2802  _msgSender() */\n      jump\t// in\n    tag_302:\n        /* \"@openzeppelin/contracts-upgradeable/access/OwnableUpgradeable.sol\":2763:2803  OwnableUnauthorizedAccount(_msgSender()) */\n      mload(0x40)\n      0x118cdaa700000000000000000000000000000000000000000000000000000000\n      dup2\n      mstore\n      0x04\n      add\n      tag_303\n      swap2\n      swap1\n      tag_70\n      jump\t// in\n    tag_303:\n      mload(0x40)\n      dup1\n      swap2\n      sub\n      swap1\n      revert\n        /* \"@openzeppelin/contracts-upgradeable/access/OwnableUpgradeable.sol\":2713:2814  if (owner() != _msgSender()) {... */\n    tag_301:\n        /* \"@openzeppelin/contracts-upgradeable/access/OwnableUpgradeable.sol\":2658:2820  function _checkOwner() internal view virtual {... */\n      jump\t// out\n        /* \"@openzeppelin/contracts-upgradeable/proxy/utils/UUPSUpgradeable.sol\":4599:4911  function _checkProxy() internal view virtual {... */\n    tag_136:\n        /* \"@openzeppelin/contracts-upgradeable/proxy/utils/UUPSUpgradeable.sol\":4688:4694  __self */\n      immutable(\"0x0b83f23a4eeb8c3f5f7d5934a2289bcf0186d09a12e1b7f20adf54e4b179db15\")\n        /* \"@openzeppelin/contracts-upgradeable/proxy/utils/UUPSUpgradeable.sol\":4671:4694  address(this) == __self */\n      0xffffffffffffffffffffffffffffffffffffffff\n      and\n        /* \"@openzeppelin/contracts-upgradeable/proxy/utils/UUPSUpgradeable.sol\":4679:4683  this */\n      address\n        /* \"@openzeppelin/contracts-upgradeable/proxy/utils/UUPSUpgradeable.sol\":4671:4694  address(this) == __self */\n      0xffffffffffffffffffffffffffffffffffffffff\n      and\n      eq\n        /* \"@openzeppelin/contracts-upgradeable/proxy/utils/UUPSUpgradeable.sol\":4671:4791  address(this) == __self || // Must be called through delegatecall... */\n      dup1\n      tag_305\n      jumpi\n      pop\n        /* \"@openzeppelin/contracts-upgradeable/proxy/utils/UUPSUpgradeable.sol\":4785:4791  __self */\n      immutable(\"0x0b83f23a4eeb8c3f5f7d5934a2289bcf0186d09a12e1b7f20adf54e4b179db15\")\n        /* \"@openzeppelin/contracts-upgradeable/proxy/utils/UUPSUpgradeable.sol\":4749:4791  ERC1967Utils.getImplementation() != __self */\n      0xffffffffffffffffffffffffffffffffffffffff\n      and\n        /* \"@openzeppelin/contracts-upgradeable/proxy/utils/UUPSUpgradeable.sol\":4749:4781  ERC1967Utils.getImplementation() */\n      tag_306\n        /* \"@openzeppelin/contracts-upgradeable/proxy/utils/UUPSUpgradeable.sol\":4749:4779  ERC1967Utils.getImplementation */\n      tag_307\n        /* \"@openzeppelin/contracts-upgradeable/proxy/utils/UUPSUpgradeable.sol\":4749:4781  ERC1967Utils.getImplementation() */\n      jump\t// in\n    tag_306:\n        /* \"@openzeppelin/contracts-upgradeable/proxy/utils/UUPSUpgradeable.sol\":4749:4791  ERC1967Utils.getImplementation() != __self */\n      0xffffffffffffffffffffffffffffffffffffffff\n      and\n      eq\n      iszero\n        /* \"@openzeppelin/contracts-upgradeable/proxy/utils/UUPSUpgradeable.sol\":4671:4791  address(this) == __self || // Must be called through delegatecall... */\n    tag_305:\n        /* \"@openzeppelin/contracts-upgradeable/proxy/utils/UUPSUpgradeable.sol\":4654:4905  if (... */\n      iszero\n      tag_308\n      jumpi\n        /* \"@openzeppelin/contracts-upgradeable/proxy/utils/UUPSUpgradeable.sol\":4865:4894  UUPSUnauthorizedCallContext() */\n      mload(0x40)\n      0xe07c8dba00000000000000000000000000000000000000000000000000000000\n      dup2\n      mstore\n      0x04\n      add\n      mload(0x40)\n      dup1\n      swap2\n      sub\n      swap1\n      revert\n        /* \"@openzeppelin/contracts-upgradeable/proxy/utils/UUPSUpgradeable.sol\":4654:4905  if (... */\n    tag_308:\n        /* \"@openzeppelin/contracts-upgradeable/proxy/utils/UUPSUpgradeable.sol\":4599:4911  function _checkProxy() internal view virtual {... */\n      jump\t// out\n        /* \"UUPScontracts/CommunityGovernanceMultisigImplementation.sol\":1015:1099  function _authorizeUpgrade(address newImplementation) internal override onlyOwner {} */\n    tag_139:\n        /* \"@openzeppelin/contracts-upgradeable/access/OwnableUpgradeable.sol\":2334:2347  _checkOwner() */\n      tag_310\n        /* \"@openzeppelin/contracts-upgradeable/access/OwnableUpgradeable.sol\":2334:2345  _checkOwner */\n      tag_127\n        /* \"@openzeppelin/contracts-upgradeable/access/OwnableUpgradeable.sol\":2334:2347  _checkOwner() */\n      jump\t// in\n    tag_310:\n        /* \"UUPScontracts/CommunityGovernanceMultisigImplementation.sol\":1015:1099  function _authorizeUpgrade(address newImplementation) internal override onlyOwner {} */\n      pop\n      jump\t// out\n        /* \"@openzeppelin/contracts-upgradeable/proxy/utils/UUPSUpgradeable.sol\":6052:6590  function _upgradeToAndCallUUPS(address newImplementation, bytes memory data) private {... */\n    tag_141:\n        /* \"@openzeppelin/contracts-upgradeable/proxy/utils/UUPSUpgradeable.sol\":6169:6186  newImplementation */\n      dup2\n        /* \"@openzeppelin/contracts-upgradeable/proxy/utils/UUPSUpgradeable.sol\":6151:6201  IERC1822Proxiable(newImplementation).proxiableUUID */\n      0xffffffffffffffffffffffffffffffffffffffff\n      and\n      0x52d1902d\n        /* \"@openzeppelin/contracts-upgradeable/proxy/utils/UUPSUpgradeable.sol\":6151:6203  IERC1822Proxiable(newImplementation).proxiableUUID() */\n      mload(0x40)\n      dup2\n      0xffffffff\n      and\n      0xe0\n      shl\n      dup2\n      mstore\n      0x04\n      add\n      0x20\n      mload(0x40)\n      dup1\n      dup4\n      sub\n      dup2\n      dup7\n      gas\n      staticcall\n      swap3\n      pop\n      pop\n      pop\n      dup1\n      iszero\n      tag_313\n      jumpi\n      pop\n      mload(0x40)\n      returndatasize\n      not(0x1f)\n      0x1f\n      dup3\n      add\n      and\n      dup3\n      add\n      dup1\n      0x40\n      mstore\n      pop\n      dup2\n      add\n      swap1\n      tag_314\n      swap2\n      swap1\n      tag_315\n      jump\t// in\n    tag_314:\n      0x01\n    tag_313:\n        /* \"@openzeppelin/contracts-upgradeable/proxy/utils/UUPSUpgradeable.sol\":6147:6584  try IERC1822Proxiable(newImplementation).proxiableUUID() returns (bytes32 slot) {... */\n      tag_316\n      jumpi\n        /* \"@openzeppelin/contracts-upgradeable/proxy/utils/UUPSUpgradeable.sol\":6555:6572  newImplementation */\n      dup2\n        /* \"@openzeppelin/contracts-upgradeable/proxy/utils/UUPSUpgradeable.sol\":6513:6573  ERC1967Utils.ERC1967InvalidImplementation(newImplementation) */\n      mload(0x40)\n      0x4c9c8ce300000000000000000000000000000000000000000000000000000000\n      dup2\n      mstore\n      0x04\n      add\n      tag_320\n      swap2\n      swap1\n      tag_70\n      jump\t// in\n    tag_320:\n      mload(0x40)\n      dup1\n      swap2\n      sub\n      swap1\n      revert\n        /* \"@openzeppelin/contracts-upgradeable/proxy/utils/UUPSUpgradeable.sol\":6147:6584  try IERC1822Proxiable(newImplementation).proxiableUUID() returns (bytes32 slot) {... */\n    tag_316:\n        /* \"@openzeppelin/contracts/proxy/ERC1967/ERC1967Utils.sol\":1327:1393  0x360894a13ba1a3210667c828492db98dca3e2076cc3735a920a3ca505d382bbc */\n      0x360894a13ba1a3210667c828492db98dca3e2076cc3735a920a3ca505d382bbc\n        /* \"@openzeppelin/contracts-upgradeable/proxy/utils/UUPSUpgradeable.sol\":6253:6285  ERC1967Utils.IMPLEMENTATION_SLOT */\n      0x00\n      shl\n        /* \"@openzeppelin/contracts-upgradeable/proxy/utils/UUPSUpgradeable.sol\":6245:6249  slot */\n      dup2\n        /* \"@openzeppelin/contracts-upgradeable/proxy/utils/UUPSUpgradeable.sol\":6245:6285  slot != ERC1967Utils.IMPLEMENTATION_SLOT */\n      eq\n        /* \"@openzeppelin/contracts-upgradeable/proxy/utils/UUPSUpgradeable.sol\":6241:6361  if (slot != ERC1967Utils.IMPLEMENTATION_SLOT) {... */\n      tag_322\n      jumpi\n        /* \"@openzeppelin/contracts-upgradeable/proxy/utils/UUPSUpgradeable.sol\":6341:6345  slot */\n      dup1\n        /* \"@openzeppelin/contracts-upgradeable/proxy/utils/UUPSUpgradeable.sol\":6312:6346  UUPSUnsupportedProxiableUUID(slot) */\n      mload(0x40)\n      0xaa1d49a400000000000000000000000000000000000000000000000000000000\n      dup2\n      mstore\n      0x04\n      add\n      tag_323\n      swap2\n      swap1\n      tag_50\n      jump\t// in\n    tag_323:\n      mload(0x40)\n      dup1\n      swap2\n      sub\n      swap1\n      revert\n        /* \"@openzeppelin/contracts-upgradeable/proxy/utils/UUPSUpgradeable.sol\":6241:6361  if (slot != ERC1967Utils.IMPLEMENTATION_SLOT) {... */\n    tag_322:\n        /* \"@openzeppelin/contracts-upgradeable/proxy/utils/UUPSUpgradeable.sol\":6374:6428  ERC1967Utils.upgradeToAndCall(newImplementation, data) */\n      tag_324\n        /* \"@openzeppelin/contracts-upgradeable/proxy/utils/UUPSUpgradeable.sol\":6404:6421  newImplementation */\n      dup4\n        /* \"@openzeppelin/contracts-upgradeable/proxy/utils/UUPSUpgradeable.sol\":6423:6427  data */\n      dup4\n        /* \"@openzeppelin/contracts-upgradeable/proxy/utils/UUPSUpgradeable.sol\":6374:6403  ERC1967Utils.upgradeToAndCall */\n      tag_325\n        /* \"@openzeppelin/contracts-upgradeable/proxy/utils/UUPSUpgradeable.sol\":6374:6428  ERC1967Utils.upgradeToAndCall(newImplementation, data) */\n      jump\t// in\n    tag_324:\n        /* \"@openzeppelin/contracts-upgradeable/proxy/utils/UUPSUpgradeable.sol\":6204:6439  returns (bytes32 slot) {... */\n      pop\n        /* \"@openzeppelin/contracts-upgradeable/proxy/utils/UUPSUpgradeable.sol\":6052:6590  function _upgradeToAndCallUUPS(address newImplementation, bytes memory data) private {... */\n      pop\n      pop\n      jump\t// out\n        /* \"@openzeppelin/contracts-upgradeable/proxy/utils/UUPSUpgradeable.sol\":5028:5241  function _checkNotDelegated() internal view virtual {... */\n    tag_144:\n        /* \"@openzeppelin/contracts-upgradeable/proxy/utils/UUPSUpgradeable.sol\":5111:5117  __self */\n      immutable(\"0x0b83f23a4eeb8c3f5f7d5934a2289bcf0186d09a12e1b7f20adf54e4b179db15\")\n        /* \"@openzeppelin/contracts-upgradeable/proxy/utils/UUPSUpgradeable.sol\":5094:5117  address(this) != __self */\n      0xffffffffffffffffffffffffffffffffffffffff\n      and\n        /* \"@openzeppelin/contracts-upgradeable/proxy/utils/UUPSUpgradeable.sol\":5102:5106  this */\n      address\n        /* \"@openzeppelin/contracts-upgradeable/proxy/utils/UUPSUpgradeable.sol\":5094:5117  address(this) != __self */\n      0xffffffffffffffffffffffffffffffffffffffff\n      and\n      eq\n        /* \"@openzeppelin/contracts-upgradeable/proxy/utils/UUPSUpgradeable.sol\":5090:5235  if (address(this) != __self) {... */\n      tag_327\n      jumpi\n        /* \"@openzeppelin/contracts-upgradeable/proxy/utils/UUPSUpgradeable.sol\":5195:5224  UUPSUnauthorizedCallContext() */\n      mload(0x40)\n      0xe07c8dba00000000000000000000000000000000000000000000000000000000\n      dup2\n      mstore\n      0x04\n      add\n      mload(0x40)\n      dup1\n      swap2\n      sub\n      swap1\n      revert\n        /* \"@openzeppelin/contracts-upgradeable/proxy/utils/UUPSUpgradeable.sol\":5090:5235  if (address(this) != __self) {... */\n    tag_327:\n        /* \"@openzeppelin/contracts-upgradeable/proxy/utils/UUPSUpgradeable.sol\":5028:5241  function _checkNotDelegated() internal view virtual {... */\n      jump\t// out\n        /* \"@openzeppelin/contracts-upgradeable/access/OwnableUpgradeable.sol\":3774:4022  function _transferOwnership(address newOwner) internal virtual {... */\n    tag_227:\n        /* \"@openzeppelin/contracts-upgradeable/access/OwnableUpgradeable.sol\":3847:3871  OwnableStorage storage $ */\n      0x00\n        /* \"@openzeppelin/contracts-upgradeable/access/OwnableUpgradeable.sol\":3874:3894  _getOwnableStorage() */\n      tag_329\n        /* \"@openzeppelin/contracts-upgradeable/access/OwnableUpgradeable.sol\":3874:3892  _getOwnableStorage */\n      tag_230\n        /* \"@openzeppelin/contracts-upgradeable/access/OwnableUpgradeable.sol\":3874:3894  _getOwnableStorage() */\n      jump\t// in\n    tag_329:\n        /* \"@openzeppelin/contracts-upgradeable/access/OwnableUpgradeable.sol\":3847:3894  OwnableStorage storage $ = _getOwnableStorage() */\n      swap1\n      pop\n        /* \"@openzeppelin/contracts-upgradeable/access/OwnableUpgradeable.sol\":3904:3920  address oldOwner */\n      0x00\n        /* \"@openzeppelin/contracts-upgradeable/access/OwnableUpgradeable.sol\":3923:3924  $ */\n      dup2\n        /* \"@openzeppelin/contracts-upgradeable/access/OwnableUpgradeable.sol\":3923:3931  $._owner */\n      0x00\n      add\n      0x00\n      swap1\n      sload\n      swap1\n      0x0100\n      exp\n      swap1\n      div\n      0xffffffffffffffffffffffffffffffffffffffff\n      and\n        /* \"@openzeppelin/contracts-upgradeable/access/OwnableUpgradeable.sol\":3904:3931  address oldOwner = $._owner */\n      swap1\n      pop\n        /* \"@openzeppelin/contracts-upgradeable/access/OwnableUpgradeable.sol\":3952:3960  newOwner */\n      dup3\n        /* \"@openzeppelin/contracts-upgradeable/access/OwnableUpgradeable.sol\":3941:3942  $ */\n      dup3\n        /* \"@openzeppelin/contracts-upgradeable/access/OwnableUpgradeable.sol\":3941:3949  $._owner */\n      0x00\n      add\n      0x00\n        /* \"@openzeppelin/contracts-upgradeable/access/OwnableUpgradeable.sol\":3941:3960  $._owner = newOwner */\n      0x0100\n      exp\n      dup2\n      sload\n      dup2\n      0xffffffffffffffffffffffffffffffffffffffff\n      mul\n      not\n      and\n      swap1\n      dup4\n      0xffffffffffffffffffffffffffffffffffffffff\n      and\n      mul\n      or\n      swap1\n      sstore\n      pop\n        /* \"@openzeppelin/contracts-upgradeable/access/OwnableUpgradeable.sol\":4006:4014  newOwner */\n      dup3\n        /* \"@openzeppelin/contracts-upgradeable/access/OwnableUpgradeable.sol\":3975:4015  OwnershipTransferred(oldOwner, newOwner) */\n      0xffffffffffffffffffffffffffffffffffffffff\n      and\n        /* \"@openzeppelin/contracts-upgradeable/access/OwnableUpgradeable.sol\":3996:4004  oldOwner */\n      dup2\n        /* \"@openzeppelin/contracts-upgradeable/access/OwnableUpgradeable.sol\":3975:4015  OwnershipTransferred(oldOwner, newOwner) */\n      0xffffffffffffffffffffffffffffffffffffffff\n      and\n      0x8be0079c531659141344cd1fd0a4f28419497f9722a3daafe3b4186f6b6457e0\n      mload(0x40)\n      mload(0x40)\n      dup1\n      swap2\n      sub\n      swap1\n      log3\n        /* \"@openzeppelin/contracts-upgradeable/access/OwnableUpgradeable.sol\":3837:4022  {... */\n      pop\n      pop\n        /* \"@openzeppelin/contracts-upgradeable/access/OwnableUpgradeable.sol\":3774:4022  function _transferOwnership(address newOwner) internal virtual {... */\n      pop\n      jump\t// out\n        /* \"@openzeppelin/contracts-upgradeable/access/OwnableUpgradeable.sol\":1192:1351  function _getOwnableStorage() private pure returns (OwnableStorage storage $) {... */\n    tag_230:\n        /* \"@openzeppelin/contracts-upgradeable/access/OwnableUpgradeable.sol\":1244:1268  OwnableStorage storage $ */\n      0x00\n        /* \"@openzeppelin/contracts-upgradeable/access/OwnableUpgradeable.sol\":1313:1335  OwnableStorageLocation */\n      0x9016d09d72d40fdae2fd8ceac6b6234c7706214fd39c1cd1e609a0528c199300\n        /* \"@openzeppelin/contracts-upgradeable/access/OwnableUpgradeable.sol\":1303:1335  $.slot := OwnableStorageLocation */\n      swap1\n      pop\n        /* \"@openzeppelin/contracts-upgradeable/access/OwnableUpgradeable.sol\":1192:1351  function _getOwnableStorage() private pure returns (OwnableStorage storage $) {... */\n      swap1\n      jump\t// out\n        /* \"@openzeppelin/contracts-upgradeable/proxy/utils/Initializable.sol\":8737:8907  function _getInitializableStorage() private pure returns (InitializableStorage storage $) {... */\n    tag_243:\n        /* \"@openzeppelin/contracts-upgradeable/proxy/utils/Initializable.sol\":8795:8825  InitializableStorage storage $ */\n      0x00\n        /* \"@openzeppelin/contracts-upgradeable/proxy/utils/Initializable.sol\":8870:8891  INITIALIZABLE_STORAGE */\n      0xf0c57e16840df040f15088dc2f81fe391c3923bec73e23a9662efc9c229c6a00\n        /* \"@openzeppelin/contracts-upgradeable/proxy/utils/Initializable.sol\":8860:8891  $.slot := INITIALIZABLE_STORAGE */\n      swap1\n      pop\n        /* \"@openzeppelin/contracts-upgradeable/proxy/utils/Initializable.sol\":8737:8907  function _getInitializableStorage() private pure returns (InitializableStorage storage $) {... */\n      swap1\n      jump\t// out\n        /* \"@openzeppelin/contracts-upgradeable/access/OwnableUpgradeable.sol\":1847:1974  function __Ownable_init(address initialOwner) internal onlyInitializing {... */\n    tag_251:\n        /* \"@openzeppelin/contracts-upgradeable/proxy/utils/Initializable.sol\":6931:6951  _checkInitializing() */\n      tag_333\n        /* \"@openzeppelin/contracts-upgradeable/proxy/utils/Initializable.sol\":6931:6949  _checkInitializing */\n      tag_334\n        /* \"@openzeppelin/contracts-upgradeable/proxy/utils/Initializable.sol\":6931:6951  _checkInitializing() */\n      jump\t// in\n    tag_333:\n        /* \"@openzeppelin/contracts-upgradeable/access/OwnableUpgradeable.sol\":1929:1967  __Ownable_init_unchained(initialOwner) */\n      tag_336\n        /* \"@openzeppelin/contracts-upgradeable/access/OwnableUpgradeable.sol\":1954:1966  initialOwner */\n      dup2\n        /* \"@openzeppelin/contracts-upgradeable/access/OwnableUpgradeable.sol\":1929:1953  __Ownable_init_unchained */\n      tag_337\n        /* \"@openzeppelin/contracts-upgradeable/access/OwnableUpgradeable.sol\":1929:1967  __Ownable_init_unchained(initialOwner) */\n      jump\t// in\n    tag_336:\n        /* \"@openzeppelin/contracts-upgradeable/access/OwnableUpgradeable.sol\":1847:1974  function __Ownable_init(address initialOwner) internal onlyInitializing {... */\n      pop\n      jump\t// out\n        /* \"@openzeppelin/contracts-upgradeable/proxy/utils/UUPSUpgradeable.sol\":2968:3035  function __UUPSUpgradeable_init() internal onlyInitializing {... */\n    tag_253:\n        /* \"@openzeppelin/contracts-upgradeable/proxy/utils/Initializable.sol\":6931:6951  _checkInitializing() */\n      tag_339\n        /* \"@openzeppelin/contracts-upgradeable/proxy/utils/Initializable.sol\":6931:6949  _checkInitializing */\n      tag_334\n        /* \"@openzeppelin/contracts-upgradeable/proxy/utils/Initializable.sol\":6931:6951  _checkInitializing() */\n      jump\t// in\n    tag_339:\n        /* \"@openzeppelin/contracts-upgradeable/proxy/utils/UUPSUpgradeable.sol\":2968:3035  function __UUPSUpgradeable_init() internal onlyInitializing {... */\n      jump\t// out\n        /* \"UUPScontracts/CommunityGovernanceMultisigImplementation.sol\":7165:7516  function isTopRespectedUser(address _user, address[5] memory _topUsers) internal pure returns (bool) {... */\n    tag_278:\n        /* \"UUPScontracts/CommunityGovernanceMultisigImplementation.sol\":7260:7264  bool */\n      0x00\n        /* \"UUPScontracts/CommunityGovernanceMultisigImplementation.sol\":7277:7286  uint256 i */\n      dup1\n        /* \"UUPScontracts/CommunityGovernanceMultisigImplementation.sol\":7289:7290  0 */\n      0x00\n        /* \"UUPScontracts/CommunityGovernanceMultisigImplementation.sol\":7277:7290  uint256 i = 0 */\n      swap1\n      pop\n        /* \"UUPScontracts/CommunityGovernanceMultisigImplementation.sol\":7272:7496  for (uint256 i = 0; i < 5; i++) {... */\n    tag_342:\n        /* \"UUPScontracts/CommunityGovernanceMultisigImplementation.sol\":7296:7297  5 */\n      0x05\n        /* \"UUPScontracts/CommunityGovernanceMultisigImplementation.sol\":7292:7293  i */\n      dup2\n        /* \"UUPScontracts/CommunityGovernanceMultisigImplementation.sol\":7292:7297  i < 5 */\n      lt\n        /* \"UUPScontracts/CommunityGovernanceMultisigImplementation.sol\":7272:7496  for (uint256 i = 0; i < 5; i++) {... */\n      iszero\n      tag_343\n      jumpi\n        /* \"UUPScontracts/CommunityGovernanceMultisigImplementation.sol\":7334:7339  _user */\n      dup4\n        /* \"UUPScontracts/CommunityGovernanceMultisigImplementation.sol\":7318:7339  _topUsers[i] == _user */\n      0xffffffffffffffffffffffffffffffffffffffff\n      and\n        /* \"UUPScontracts/CommunityGovernanceMultisigImplementation.sol\":7318:7327  _topUsers */\n      dup4\n        /* \"UUPScontracts/CommunityGovernanceMultisigImplementation.sol\":7328:7329  i */\n      dup3\n        /* \"UUPScontracts/CommunityGovernanceMultisigImplementation.sol\":7318:7330  _topUsers[i] */\n      0x05\n      dup2\n      lt\n      tag_345\n      jumpi\n      tag_346\n      tag_163\n      jump\t// in\n    tag_346:\n    tag_345:\n      0x20\n      mul\n      add\n      mload\n        /* \"UUPScontracts/CommunityGovernanceMultisigImplementation.sol\":7318:7339  _topUsers[i] == _user */\n      0xffffffffffffffffffffffffffffffffffffffff\n      and\n      sub\n        /* \"UUPScontracts/CommunityGovernanceMultisigImplementation.sol\":7314:7377  if (_topUsers[i] == _user) {... */\n      tag_347\n      jumpi\n        /* \"UUPScontracts/CommunityGovernanceMultisigImplementation.sol\":7362:7366  true */\n      0x01\n        /* \"UUPScontracts/CommunityGovernanceMultisigImplementation.sol\":7355:7366  return true */\n      swap2\n      pop\n      pop\n      jump(tag_341)\n        /* \"UUPScontracts/CommunityGovernanceMultisigImplementation.sol\":7314:7377  if (_topUsers[i] == _user) {... */\n    tag_347:\n        /* \"UUPScontracts/CommunityGovernanceMultisigImplementation.sol\":7414:7415  0 */\n      0x00\n        /* \"UUPScontracts/CommunityGovernanceMultisigImplementation.sol\":7390:7416  _topUsers[i] == address(0) */\n      0xffffffffffffffffffffffffffffffffffffffff\n      and\n        /* \"UUPScontracts/CommunityGovernanceMultisigImplementation.sol\":7390:7399  _topUsers */\n      dup4\n        /* \"UUPScontracts/CommunityGovernanceMultisigImplementation.sol\":7400:7401  i */\n      dup3\n        /* \"UUPScontracts/CommunityGovernanceMultisigImplementation.sol\":7390:7402  _topUsers[i] */\n      0x05\n      dup2\n      lt\n      tag_348\n      jumpi\n      tag_349\n      tag_163\n      jump\t// in\n    tag_349:\n    tag_348:\n      0x20\n      mul\n      add\n      mload\n        /* \"UUPScontracts/CommunityGovernanceMultisigImplementation.sol\":7390:7416  _topUsers[i] == address(0) */\n      0xffffffffffffffffffffffffffffffffffffffff\n      and\n      sub\n        /* \"UUPScontracts/CommunityGovernanceMultisigImplementation.sol\":7386:7490  if (_topUsers[i] == address(0)) {... */\n      iszero\n        /* \"UUPScontracts/CommunityGovernanceMultisigImplementation.sol\":7432:7437  break */\n      tag_343\n        /* \"UUPScontracts/CommunityGovernanceMultisigImplementation.sol\":7386:7490  if (_topUsers[i] == address(0)) {... */\n      jumpi\n        /* \"UUPScontracts/CommunityGovernanceMultisigImplementation.sol\":7299:7302  i++ */\n      dup1\n      dup1\n      0x01\n      add\n      swap2\n      pop\n      pop\n        /* \"UUPScontracts/CommunityGovernanceMultisigImplementation.sol\":7272:7496  for (uint256 i = 0; i < 5; i++) {... */\n      jump(tag_342)\n    tag_343:\n      pop\n        /* \"UUPScontracts/CommunityGovernanceMultisigImplementation.sol\":7508:7513  false */\n      0x00\n        /* \"UUPScontracts/CommunityGovernanceMultisigImplementation.sol\":7501:7513  return false */\n      swap1\n      pop\n        /* \"UUPScontracts/CommunityGovernanceMultisigImplementation.sol\":7165:7516  function isTopRespectedUser(address _user, address[5] memory _topUsers) internal pure returns (bool) {... */\n    tag_341:\n      swap3\n      swap2\n      pop\n      pop\n      jump\t// out\n        /* \"UUPScontracts/CommunityGovernanceMultisigImplementation.sol\":4757:5612  function executeProposal(uint256 _communityId, uint256 _proposalId) internal {... */\n    tag_296:\n        /* \"UUPScontracts/CommunityGovernanceMultisigImplementation.sol\":4844:4877  MultiSigProposal storage proposal */\n      0x00\n        /* \"UUPScontracts/CommunityGovernanceMultisigImplementation.sol\":4880:4898  communityMultiSigs */\n      0x02\n        /* \"UUPScontracts/CommunityGovernanceMultisigImplementation.sol\":4880:4912  communityMultiSigs[_communityId] */\n      0x00\n        /* \"UUPScontracts/CommunityGovernanceMultisigImplementation.sol\":4899:4911  _communityId */\n      dup5\n        /* \"UUPScontracts/CommunityGovernanceMultisigImplementation.sol\":4880:4912  communityMultiSigs[_communityId] */\n      dup2\n      mstore\n      0x20\n      add\n      swap1\n      dup2\n      mstore\n      0x20\n      add\n      0x00\n      keccak256\n        /* \"UUPScontracts/CommunityGovernanceMultisigImplementation.sol\":4880:4922  communityMultiSigs[_communityId].proposals */\n      0x00\n      add\n        /* \"UUPScontracts/CommunityGovernanceMultisigImplementation.sol\":4880:4935  communityMultiSigs[_communityId].proposals[_proposalId] */\n      0x00\n        /* \"UUPScontracts/CommunityGovernanceMultisigImplementation.sol\":4923:4934  _proposalId */\n      dup4\n        /* \"UUPScontracts/CommunityGovernanceMultisigImplementation.sol\":4880:4935  communityMultiSigs[_communityId].proposals[_proposalId] */\n      dup2\n      mstore\n      0x20\n      add\n      swap1\n      dup2\n      mstore\n      0x20\n      add\n      0x00\n      keccak256\n        /* \"UUPScontracts/CommunityGovernanceMultisigImplementation.sol\":4844:4935  MultiSigProposal storage proposal = communityMultiSigs[_communityId].proposals[_proposalId] */\n      swap1\n      pop\n        /* \"UUPScontracts/CommunityGovernanceMultisigImplementation.sol\":4954:4962  proposal */\n      dup1\n        /* \"UUPScontracts/CommunityGovernanceMultisigImplementation.sol\":4954:4971  proposal.executed */\n      0x05\n      add\n      0x00\n      swap1\n      sload\n      swap1\n      0x0100\n      exp\n      swap1\n      div\n      0xff\n      and\n        /* \"UUPScontracts/CommunityGovernanceMultisigImplementation.sol\":4953:4971  !proposal.executed */\n      iszero\n        /* \"UUPScontracts/CommunityGovernanceMultisigImplementation.sol\":4945:5001  require(!proposal.executed, \"Proposal already executed\") */\n      tag_352\n      jumpi\n      mload(0x40)\n      0x08c379a000000000000000000000000000000000000000000000000000000000\n      dup2\n      mstore\n      0x04\n      add\n      tag_353\n      swap1\n      tag_287\n      jump\t// in\n    tag_353:\n      mload(0x40)\n      dup1\n      swap2\n      sub\n      swap1\n      revert\n    tag_352:\n        /* \"UUPScontracts/CommunityGovernanceMultisigImplementation.sol\":5046:5047  3 */\n      0x03\n        /* \"UUPScontracts/CommunityGovernanceMultisigImplementation.sol\":5019:5027  proposal */\n      dup2\n        /* \"UUPScontracts/CommunityGovernanceMultisigImplementation.sol\":5019:5042  proposal.signatureCount */\n      0x03\n      add\n      sload\n        /* \"UUPScontracts/CommunityGovernanceMultisigImplementation.sol\":5019:5047  proposal.signatureCount >= 3 */\n      lt\n      iszero\n        /* \"UUPScontracts/CommunityGovernanceMultisigImplementation.sol\":5011:5073  require(proposal.signatureCount >= 3, \"Not enough signatures\") */\n      tag_354\n      jumpi\n      mload(0x40)\n      0x08c379a000000000000000000000000000000000000000000000000000000000\n      dup2\n      mstore\n      0x04\n      add\n      tag_355\n      swap1\n      tag_356\n      jump\t// in\n    tag_355:\n      mload(0x40)\n      dup1\n      swap2\n      sub\n      swap1\n      revert\n    tag_354:\n        /* \"UUPScontracts/CommunityGovernanceMultisigImplementation.sol\":5112:5116  true */\n      0x01\n        /* \"UUPScontracts/CommunityGovernanceMultisigImplementation.sol\":5092:5100  proposal */\n      dup2\n        /* \"UUPScontracts/CommunityGovernanceMultisigImplementation.sol\":5092:5109  proposal.executed */\n      0x05\n      add\n      0x00\n        /* \"UUPScontracts/CommunityGovernanceMultisigImplementation.sol\":5092:5116  proposal.executed = true */\n      0x0100\n      exp\n      dup2\n      sload\n      dup2\n      0xff\n      mul\n      not\n      and\n      swap1\n      dup4\n      iszero\n      iszero\n      mul\n      or\n      swap1\n      sstore\n      pop\n        /* \"UUPScontracts/CommunityGovernanceMultisigImplementation.sol\":5164:5189  ProposalType.RemoveMember */\n      0x00\n        /* \"UUPScontracts/CommunityGovernanceMultisigImplementation.sol\":5139:5189  proposal.proposalType == ProposalType.RemoveMember */\n      0x02\n      dup2\n      gt\n      iszero\n      tag_357\n      jumpi\n      tag_358\n      tag_238\n      jump\t// in\n    tag_358:\n    tag_357:\n        /* \"UUPScontracts/CommunityGovernanceMultisigImplementation.sol\":5139:5147  proposal */\n      dup2\n        /* \"UUPScontracts/CommunityGovernanceMultisigImplementation.sol\":5139:5160  proposal.proposalType */\n      0x00\n      add\n      0x00\n      swap1\n      sload\n      swap1\n      0x0100\n      exp\n      swap1\n      div\n      0xff\n      and\n        /* \"UUPScontracts/CommunityGovernanceMultisigImplementation.sol\":5139:5189  proposal.proposalType == ProposalType.RemoveMember */\n      0x02\n      dup2\n      gt\n      iszero\n      tag_359\n      jumpi\n      tag_360\n      tag_238\n      jump\t// in\n    tag_360:\n    tag_359:\n      sub\n        /* \"UUPScontracts/CommunityGovernanceMultisigImplementation.sol\":5135:5539  if (proposal.proposalType == ProposalType.RemoveMember) {... */\n      tag_361\n      jumpi\n        /* \"UUPScontracts/CommunityGovernanceMultisigImplementation.sol\":5205:5254  removeMember(_communityId, proposal.targetMember) */\n      tag_362\n        /* \"UUPScontracts/CommunityGovernanceMultisigImplementation.sol\":5218:5230  _communityId */\n      dup4\n        /* \"UUPScontracts/CommunityGovernanceMultisigImplementation.sol\":5232:5240  proposal */\n      dup3\n        /* \"UUPScontracts/CommunityGovernanceMultisigImplementation.sol\":5232:5253  proposal.targetMember */\n      0x02\n      add\n      0x00\n      swap1\n      sload\n      swap1\n      0x0100\n      exp\n      swap1\n      div\n      0xffffffffffffffffffffffffffffffffffffffff\n      and\n        /* \"UUPScontracts/CommunityGovernanceMultisigImplementation.sol\":5205:5217  removeMember */\n      tag_363\n        /* \"UUPScontracts/CommunityGovernanceMultisigImplementation.sol\":5205:5254  removeMember(_communityId, proposal.targetMember) */\n      jump\t// in\n    tag_362:\n        /* \"UUPScontracts/CommunityGovernanceMultisigImplementation.sol\":5135:5539  if (proposal.proposalType == ProposalType.RemoveMember) {... */\n      jump(tag_364)\n    tag_361:\n        /* \"UUPScontracts/CommunityGovernanceMultisigImplementation.sol\":5300:5335  ProposalType.SetRespectToDistribute */\n      0x01\n        /* \"UUPScontracts/CommunityGovernanceMultisigImplementation.sol\":5275:5335  proposal.proposalType == ProposalType.SetRespectToDistribute */\n      0x02\n      dup2\n      gt\n      iszero\n      tag_365\n      jumpi\n      tag_366\n      tag_238\n      jump\t// in\n    tag_366:\n    tag_365:\n        /* \"UUPScontracts/CommunityGovernanceMultisigImplementation.sol\":5275:5283  proposal */\n      dup2\n        /* \"UUPScontracts/CommunityGovernanceMultisigImplementation.sol\":5275:5296  proposal.proposalType */\n      0x00\n      add\n      0x00\n      swap1\n      sload\n      swap1\n      0x0100\n      exp\n      swap1\n      div\n      0xff\n      and\n        /* \"UUPScontracts/CommunityGovernanceMultisigImplementation.sol\":5275:5335  proposal.proposalType == ProposalType.SetRespectToDistribute */\n      0x02\n      dup2\n      gt\n      iszero\n      tag_367\n      jumpi\n      tag_368\n      tag_238\n      jump\t// in\n    tag_368:\n    tag_367:\n      sub\n        /* \"UUPScontracts/CommunityGovernanceMultisigImplementation.sol\":5271:5539  if (proposal.proposalType == ProposalType.SetRespectToDistribute) {... */\n      tag_369\n      jumpi\n        /* \"UUPScontracts/CommunityGovernanceMultisigImplementation.sol\":5351:5403  setRespectToDistribute(_communityId, proposal.value) */\n      tag_370\n        /* \"UUPScontracts/CommunityGovernanceMultisigImplementation.sol\":5374:5386  _communityId */\n      dup4\n        /* \"UUPScontracts/CommunityGovernanceMultisigImplementation.sol\":5388:5396  proposal */\n      dup3\n        /* \"UUPScontracts/CommunityGovernanceMultisigImplementation.sol\":5388:5402  proposal.value */\n      0x01\n      add\n      sload\n        /* \"UUPScontracts/CommunityGovernanceMultisigImplementation.sol\":5351:5373  setRespectToDistribute */\n      tag_371\n        /* \"UUPScontracts/CommunityGovernanceMultisigImplementation.sol\":5351:5403  setRespectToDistribute(_communityId, proposal.value) */\n      jump\t// in\n    tag_370:\n        /* \"UUPScontracts/CommunityGovernanceMultisigImplementation.sol\":5271:5539  if (proposal.proposalType == ProposalType.SetRespectToDistribute) {... */\n      jump(tag_372)\n    tag_369:\n        /* \"UUPScontracts/CommunityGovernanceMultisigImplementation.sol\":5449:5472  ProposalType.MintTokens */\n      0x02\n        /* \"UUPScontracts/CommunityGovernanceMultisigImplementation.sol\":5424:5472  proposal.proposalType == ProposalType.MintTokens */\n      dup1\n      dup2\n      gt\n      iszero\n      tag_373\n      jumpi\n      tag_374\n      tag_238\n      jump\t// in\n    tag_374:\n    tag_373:\n        /* \"UUPScontracts/CommunityGovernanceMultisigImplementation.sol\":5424:5432  proposal */\n      dup2\n        /* \"UUPScontracts/CommunityGovernanceMultisigImplementation.sol\":5424:5445  proposal.proposalType */\n      0x00\n      add\n      0x00\n      swap1\n      sload\n      swap1\n      0x0100\n      exp\n      swap1\n      div\n      0xff\n      and\n        /* \"UUPScontracts/CommunityGovernanceMultisigImplementation.sol\":5424:5472  proposal.proposalType == ProposalType.MintTokens */\n      0x02\n      dup2\n      gt\n      iszero\n      tag_375\n      jumpi\n      tag_376\n      tag_238\n      jump\t// in\n    tag_376:\n    tag_375:\n      sub\n        /* \"UUPScontracts/CommunityGovernanceMultisigImplementation.sol\":5420:5539  if (proposal.proposalType == ProposalType.MintTokens) {... */\n      tag_377\n      jumpi\n        /* \"UUPScontracts/CommunityGovernanceMultisigImplementation.sol\":5488:5528  mintTokens(_communityId, proposal.value) */\n      tag_378\n        /* \"UUPScontracts/CommunityGovernanceMultisigImplementation.sol\":5499:5511  _communityId */\n      dup4\n        /* \"UUPScontracts/CommunityGovernanceMultisigImplementation.sol\":5513:5521  proposal */\n      dup3\n        /* \"UUPScontracts/CommunityGovernanceMultisigImplementation.sol\":5513:5527  proposal.value */\n      0x01\n      add\n      sload\n        /* \"UUPScontracts/CommunityGovernanceMultisigImplementation.sol\":5488:5498  mintTokens */\n      tag_379\n        /* \"UUPScontracts/CommunityGovernanceMultisigImplementation.sol\":5488:5528  mintTokens(_communityId, proposal.value) */\n      jump\t// in\n    tag_378:\n        /* \"UUPScontracts/CommunityGovernanceMultisigImplementation.sol\":5420:5539  if (proposal.proposalType == ProposalType.MintTokens) {... */\n    tag_377:\n        /* \"UUPScontracts/CommunityGovernanceMultisigImplementation.sol\":5271:5539  if (proposal.proposalType == ProposalType.SetRespectToDistribute) {... */\n    tag_372:\n        /* \"UUPScontracts/CommunityGovernanceMultisigImplementation.sol\":5135:5539  if (proposal.proposalType == ProposalType.RemoveMember) {... */\n    tag_364:\n        /* \"UUPScontracts/CommunityGovernanceMultisigImplementation.sol\":5593:5604  _proposalId */\n      dup2\n        /* \"UUPScontracts/CommunityGovernanceMultisigImplementation.sol\":5579:5591  _communityId */\n      dup4\n        /* \"UUPScontracts/CommunityGovernanceMultisigImplementation.sol\":5562:5605  ProposalExecuted(_communityId, _proposalId) */\n      0xf758fc91e01b00ea6b4a6138756f7f28e021f9bf21db6dbf8c36c88eb737257a\n      mload(0x40)\n      mload(0x40)\n      dup1\n      swap2\n      sub\n      swap1\n      log3\n        /* \"UUPScontracts/CommunityGovernanceMultisigImplementation.sol\":4834:5612  {... */\n      pop\n        /* \"UUPScontracts/CommunityGovernanceMultisigImplementation.sol\":4757:5612  function executeProposal(uint256 _communityId, uint256 _proposalId) internal {... */\n      pop\n      pop\n      jump\t// out\n        /* \"@openzeppelin/contracts-upgradeable/utils/ContextUpgradeable.sol\":887:983  function _msgSender() internal view virtual returns (address) {... */\n    tag_299:\n        /* \"@openzeppelin/contracts-upgradeable/utils/ContextUpgradeable.sol\":940:947  address */\n      0x00\n        /* \"@openzeppelin/contracts-upgradeable/utils/ContextUpgradeable.sol\":966:976  msg.sender */\n      caller\n        /* \"@openzeppelin/contracts-upgradeable/utils/ContextUpgradeable.sol\":959:976  return msg.sender */\n      swap1\n      pop\n        /* \"@openzeppelin/contracts-upgradeable/utils/ContextUpgradeable.sol\":887:983  function _msgSender() internal view virtual returns (address) {... */\n      swap1\n      jump\t// out\n        /* \"@openzeppelin/contracts/proxy/ERC1967/ERC1967Utils.sol\":1957:2095  function getImplementation() internal view returns (address) {... */\n    tag_307:\n        /* \"@openzeppelin/contracts/proxy/ERC1967/ERC1967Utils.sol\":2009:2016  address */\n      0x00\n        /* \"@openzeppelin/contracts/proxy/ERC1967/ERC1967Utils.sol\":2035:2082  StorageSlot.getAddressSlot(IMPLEMENTATION_SLOT) */\n      tag_382\n        /* \"@openzeppelin/contracts/proxy/ERC1967/ERC1967Utils.sol\":1327:1393  0x360894a13ba1a3210667c828492db98dca3e2076cc3735a920a3ca505d382bbc */\n      0x360894a13ba1a3210667c828492db98dca3e2076cc3735a920a3ca505d382bbc\n        /* \"@openzeppelin/contracts/proxy/ERC1967/ERC1967Utils.sol\":2062:2081  IMPLEMENTATION_SLOT */\n      0x00\n      shl\n        /* \"@openzeppelin/contracts/proxy/ERC1967/ERC1967Utils.sol\":2035:2061  StorageSlot.getAddressSlot */\n      tag_383\n        /* \"@openzeppelin/contracts/proxy/ERC1967/ERC1967Utils.sol\":2035:2082  StorageSlot.getAddressSlot(IMPLEMENTATION_SLOT) */\n      jump\t// in\n    tag_382:\n        /* \"@openzeppelin/contracts/proxy/ERC1967/ERC1967Utils.sol\":2035:2088  StorageSlot.getAddressSlot(IMPLEMENTATION_SLOT).value */\n      0x00\n      add\n      0x00\n      swap1\n      sload\n      swap1\n      0x0100\n      exp\n      swap1\n      div\n      0xffffffffffffffffffffffffffffffffffffffff\n      and\n        /* \"@openzeppelin/contracts/proxy/ERC1967/ERC1967Utils.sol\":2028:2088  return StorageSlot.getAddressSlot(IMPLEMENTATION_SLOT).value */\n      swap1\n      pop\n        /* \"@openzeppelin/contracts/proxy/ERC1967/ERC1967Utils.sol\":1957:2095  function getImplementation() internal view returns (address) {... */\n      swap1\n      jump\t// out\n        /* \"@openzeppelin/contracts/proxy/ERC1967/ERC1967Utils.sol\":2779:3114  function upgradeToAndCall(address newImplementation, bytes memory data) internal {... */\n    tag_325:\n        /* \"@openzeppelin/contracts/proxy/ERC1967/ERC1967Utils.sol\":2870:2907  _setImplementation(newImplementation) */\n      tag_385\n        /* \"@openzeppelin/contracts/proxy/ERC1967/ERC1967Utils.sol\":2889:2906  newImplementation */\n      dup3\n        /* \"@openzeppelin/contracts/proxy/ERC1967/ERC1967Utils.sol\":2870:2888  _setImplementation */\n      tag_386\n        /* \"@openzeppelin/contracts/proxy/ERC1967/ERC1967Utils.sol\":2870:2907  _setImplementation(newImplementation) */\n      jump\t// in\n    tag_385:\n        /* \"@openzeppelin/contracts/proxy/ERC1967/ERC1967Utils.sol\":2931:2948  newImplementation */\n      dup2\n        /* \"@openzeppelin/contracts/proxy/ERC1967/ERC1967Utils.sol\":2922:2949  Upgraded(newImplementation) */\n      0xffffffffffffffffffffffffffffffffffffffff\n      and\n      0xbc7cd75a20ee27fd9adebab32041f755214dbc6bffa90cc0225b39da2e5c2d3b\n      mload(0x40)\n      mload(0x40)\n      dup1\n      swap2\n      sub\n      swap1\n      log2\n        /* \"@openzeppelin/contracts/proxy/ERC1967/ERC1967Utils.sol\":2978:2979  0 */\n      0x00\n        /* \"@openzeppelin/contracts/proxy/ERC1967/ERC1967Utils.sol\":2964:2968  data */\n      dup2\n        /* \"@openzeppelin/contracts/proxy/ERC1967/ERC1967Utils.sol\":2964:2975  data.length */\n      mload\n        /* \"@openzeppelin/contracts/proxy/ERC1967/ERC1967Utils.sol\":2964:2979  data.length > 0 */\n      gt\n        /* \"@openzeppelin/contracts/proxy/ERC1967/ERC1967Utils.sol\":2960:3108  if (data.length > 0) {... */\n      iszero\n      tag_387\n      jumpi\n        /* \"@openzeppelin/contracts/proxy/ERC1967/ERC1967Utils.sol\":2995:3048  Address.functionDelegateCall(newImplementation, data) */\n      tag_388\n        /* \"@openzeppelin/contracts/proxy/ERC1967/ERC1967Utils.sol\":3024:3041  newImplementation */\n      dup3\n        /* \"@openzeppelin/contracts/proxy/ERC1967/ERC1967Utils.sol\":3043:3047  data */\n      dup3\n        /* \"@openzeppelin/contracts/proxy/ERC1967/ERC1967Utils.sol\":2995:3023  Address.functionDelegateCall */\n      tag_389\n        /* \"@openzeppelin/contracts/proxy/ERC1967/ERC1967Utils.sol\":2995:3048  Address.functionDelegateCall(newImplementation, data) */\n      jump\t// in\n    tag_388:\n      pop\n        /* \"@openzeppelin/contracts/proxy/ERC1967/ERC1967Utils.sol\":2960:3108  if (data.length > 0) {... */\n      jump(tag_390)\n    tag_387:\n        /* \"@openzeppelin/contracts/proxy/ERC1967/ERC1967Utils.sol\":3079:3097  _checkNonPayable() */\n      tag_391\n        /* \"@openzeppelin/contracts/proxy/ERC1967/ERC1967Utils.sol\":3079:3095  _checkNonPayable */\n      tag_392\n        /* \"@openzeppelin/contracts/proxy/ERC1967/ERC1967Utils.sol\":3079:3097  _checkNonPayable() */\n      jump\t// in\n    tag_391:\n        /* \"@openzeppelin/contracts/proxy/ERC1967/ERC1967Utils.sol\":2960:3108  if (data.length > 0) {... */\n    tag_390:\n        /* \"@openzeppelin/contracts/proxy/ERC1967/ERC1967Utils.sol\":2779:3114  function upgradeToAndCall(address newImplementation, bytes memory data) internal {... */\n      pop\n      pop\n      jump\t// out\n        /* \"@openzeppelin/contracts-upgradeable/proxy/utils/Initializable.sol\":7084:7225  function _checkInitializing() internal view virtual {... */\n    tag_334:\n        /* \"@openzeppelin/contracts-upgradeable/proxy/utils/Initializable.sol\":7151:7168  _isInitializing() */\n      tag_394\n        /* \"@openzeppelin/contracts-upgradeable/proxy/utils/Initializable.sol\":7151:7166  _isInitializing */\n      tag_395\n        /* \"@openzeppelin/contracts-upgradeable/proxy/utils/Initializable.sol\":7151:7168  _isInitializing() */\n      jump\t// in\n    tag_394:\n        /* \"@openzeppelin/contracts-upgradeable/proxy/utils/Initializable.sol\":7146:7219  if (!_isInitializing()) {... */\n      tag_396\n      jumpi\n        /* \"@openzeppelin/contracts-upgradeable/proxy/utils/Initializable.sol\":7191:7208  NotInitializing() */\n      mload(0x40)\n      0xd7e6bcf800000000000000000000000000000000000000000000000000000000\n      dup2\n      mstore\n      0x04\n      add\n      mload(0x40)\n      dup1\n      swap2\n      sub\n      swap1\n      revert\n        /* \"@openzeppelin/contracts-upgradeable/proxy/utils/Initializable.sol\":7146:7219  if (!_isInitializing()) {... */\n    tag_396:\n        /* \"@openzeppelin/contracts-upgradeable/proxy/utils/Initializable.sol\":7084:7225  function _checkInitializing() internal view virtual {... */\n      jump\t// out\n        /* \"@openzeppelin/contracts-upgradeable/access/OwnableUpgradeable.sol\":1980:2215  function __Ownable_init_unchained(address initialOwner) internal onlyInitializing {... */\n    tag_337:\n        /* \"@openzeppelin/contracts-upgradeable/proxy/utils/Initializable.sol\":6931:6951  _checkInitializing() */\n      tag_398\n        /* \"@openzeppelin/contracts-upgradeable/proxy/utils/Initializable.sol\":6931:6949  _checkInitializing */\n      tag_334\n        /* \"@openzeppelin/contracts-upgradeable/proxy/utils/Initializable.sol\":6931:6951  _checkInitializing() */\n      jump\t// in\n    tag_398:\n        /* \"@openzeppelin/contracts-upgradeable/access/OwnableUpgradeable.sol\":2100:2101  0 */\n      0x00\n        /* \"@openzeppelin/contracts-upgradeable/access/OwnableUpgradeable.sol\":2076:2102  initialOwner == address(0) */\n      0xffffffffffffffffffffffffffffffffffffffff\n      and\n        /* \"@openzeppelin/contracts-upgradeable/access/OwnableUpgradeable.sol\":2076:2088  initialOwner */\n      dup2\n        /* \"@openzeppelin/contracts-upgradeable/access/OwnableUpgradeable.sol\":2076:2102  initialOwner == address(0) */\n      0xffffffffffffffffffffffffffffffffffffffff\n      and\n      sub\n        /* \"@openzeppelin/contracts-upgradeable/access/OwnableUpgradeable.sol\":2072:2167  if (initialOwner == address(0)) {... */\n      tag_400\n      jumpi\n        /* \"@openzeppelin/contracts-upgradeable/access/OwnableUpgradeable.sol\":2153:2154  0 */\n      0x00\n        /* \"@openzeppelin/contracts-upgradeable/access/OwnableUpgradeable.sol\":2125:2156  OwnableInvalidOwner(address(0)) */\n      mload(0x40)\n      0x1e4fbdf700000000000000000000000000000000000000000000000000000000\n      dup2\n      mstore\n      0x04\n      add\n      tag_401\n      swap2\n      swap1\n      tag_70\n      jump\t// in\n    tag_401:\n      mload(0x40)\n      dup1\n      swap2\n      sub\n      swap1\n      revert\n        /* \"@openzeppelin/contracts-upgradeable/access/OwnableUpgradeable.sol\":2072:2167  if (initialOwner == address(0)) {... */\n    tag_400:\n        /* \"@openzeppelin/contracts-upgradeable/access/OwnableUpgradeable.sol\":2176:2208  _transferOwnership(initialOwner) */\n      tag_402\n        /* \"@openzeppelin/contracts-upgradeable/access/OwnableUpgradeable.sol\":2195:2207  initialOwner */\n      dup2\n        /* \"@openzeppelin/contracts-upgradeable/access/OwnableUpgradeable.sol\":2176:2194  _transferOwnership */\n      tag_227\n        /* \"@openzeppelin/contracts-upgradeable/access/OwnableUpgradeable.sol\":2176:2208  _transferOwnership(initialOwner) */\n      jump\t// in\n    tag_402:\n        /* \"@openzeppelin/contracts-upgradeable/access/OwnableUpgradeable.sol\":1980:2215  function __Ownable_init_unchained(address initialOwner) internal onlyInitializing {... */\n      pop\n      jump\t// out\n        /* \"UUPScontracts/CommunityGovernanceMultisigImplementation.sol\":5621:5990  function removeMember(uint256 _communityId, address _member) internal {... */\n    tag_363:\n        /* \"UUPScontracts/CommunityGovernanceMultisigImplementation.sol\":5867:5883  profilesContract */\n      0x00\n      dup1\n      sload\n      swap1\n      0x0100\n      exp\n      swap1\n      div\n      0xffffffffffffffffffffffffffffffffffffffff\n      and\n        /* \"UUPScontracts/CommunityGovernanceMultisigImplementation.sol\":5867:5909  profilesContract.removeMemberFromCommunity */\n      0xffffffffffffffffffffffffffffffffffffffff\n      and\n      0x3997c656\n        /* \"UUPScontracts/CommunityGovernanceMultisigImplementation.sol\":5910:5922  _communityId */\n      dup4\n        /* \"UUPScontracts/CommunityGovernanceMultisigImplementation.sol\":5924:5931  _member */\n      dup4\n        /* \"UUPScontracts/CommunityGovernanceMultisigImplementation.sol\":5867:5932  profilesContract.removeMemberFromCommunity(_communityId, _member) */\n      mload(0x40)\n      dup4\n      0xffffffff\n      and\n      0xe0\n      shl\n      dup2\n      mstore\n      0x04\n      add\n      tag_404\n      swap3\n      swap2\n      swap1\n      tag_405\n      jump\t// in\n    tag_404:\n      0x00\n      mload(0x40)\n      dup1\n      dup4\n      sub\n      dup2\n      0x00\n      dup8\n      dup1\n      extcodesize\n      iszero\n      dup1\n      iszero\n      tag_406\n      jumpi\n      0x00\n      dup1\n      revert\n    tag_406:\n      pop\n      gas\n      call\n      iszero\n      dup1\n      iszero\n      tag_408\n      jumpi\n      returndatasize\n      0x00\n      dup1\n      returndatacopy\n      revert(0x00, returndatasize)\n    tag_408:\n      pop\n      pop\n      pop\n      pop\n        /* \"UUPScontracts/CommunityGovernanceMultisigImplementation.sol\":5975:5982  _member */\n      dup1\n        /* \"UUPScontracts/CommunityGovernanceMultisigImplementation.sol\":5947:5983  MemberRemoved(_communityId, _member) */\n      0xffffffffffffffffffffffffffffffffffffffff\n      and\n        /* \"UUPScontracts/CommunityGovernanceMultisigImplementation.sol\":5961:5973  _communityId */\n      dup3\n        /* \"UUPScontracts/CommunityGovernanceMultisigImplementation.sol\":5947:5983  MemberRemoved(_communityId, _member) */\n      0x1c4c9d2e56d0635d11bc47c997c6909a0d7061f55cbb8f4b27386db37553191c\n      mload(0x40)\n      mload(0x40)\n      dup1\n      swap2\n      sub\n      swap1\n      log3\n        /* \"UUPScontracts/CommunityGovernanceMultisigImplementation.sol\":5621:5990  function removeMember(uint256 _communityId, address _member) internal {... */\n      pop\n      pop\n      jump\t// out\n        /* \"UUPScontracts/CommunityGovernanceMultisigImplementation.sol\":6240:6463  function setRespectToDistribute(uint256 _communityId, uint256 _amount) internal {... */\n    tag_371:\n        /* \"UUPScontracts/CommunityGovernanceMultisigImplementation.sol\":6385:6392  _amount */\n      dup1\n        /* \"UUPScontracts/CommunityGovernanceMultisigImplementation.sol\":6330:6348  communityMultiSigs */\n      0x02\n        /* \"UUPScontracts/CommunityGovernanceMultisigImplementation.sol\":6330:6362  communityMultiSigs[_communityId] */\n      0x00\n        /* \"UUPScontracts/CommunityGovernanceMultisigImplementation.sol\":6349:6361  _communityId */\n      dup5\n        /* \"UUPScontracts/CommunityGovernanceMultisigImplementation.sol\":6330:6362  communityMultiSigs[_communityId] */\n      dup2\n      mstore\n      0x20\n      add\n      swap1\n      dup2\n      mstore\n      0x20\n      add\n      0x00\n      keccak256\n        /* \"UUPScontracts/CommunityGovernanceMultisigImplementation.sol\":6330:6382  communityMultiSigs[_communityId].respectToDistribute */\n      0x06\n      add\n        /* \"UUPScontracts/CommunityGovernanceMultisigImplementation.sol\":6330:6392  communityMultiSigs[_communityId].respectToDistribute = _amount */\n      dup2\n      swap1\n      sstore\n      pop\n        /* \"UUPScontracts/CommunityGovernanceMultisigImplementation.sol\":6434:6446  _communityId */\n      dup2\n        /* \"UUPScontracts/CommunityGovernanceMultisigImplementation.sol\":6407:6456  RespectToDistributeChanged(_communityId, _amount) */\n      0x103d67daee120044227f39544f0c57945acf17897f464eefc95e6cbd4a17d3b4\n        /* \"UUPScontracts/CommunityGovernanceMultisigImplementation.sol\":6448:6455  _amount */\n      dup3\n        /* \"UUPScontracts/CommunityGovernanceMultisigImplementation.sol\":6407:6456  RespectToDistributeChanged(_communityId, _amount) */\n      mload(0x40)\n      tag_410\n      swap2\n      swap1\n      tag_105\n      jump\t// in\n    tag_410:\n      mload(0x40)\n      dup1\n      swap2\n      sub\n      swap1\n      log2\n        /* \"UUPScontracts/CommunityGovernanceMultisigImplementation.sol\":6240:6463  function setRespectToDistribute(uint256 _communityId, uint256 _amount) internal {... */\n      pop\n      pop\n      jump\t// out\n        /* \"UUPScontracts/CommunityGovernanceMultisigImplementation.sol\":6469:6994  function mintTokens(uint256 _communityId, uint256 _amount) internal {... */\n    tag_379:\n        /* \"UUPScontracts/CommunityGovernanceMultisigImplementation.sol\":6656:6676  address tokenAddress */\n      0x00\n        /* \"UUPScontracts/CommunityGovernanceMultisigImplementation.sol\":6689:6705  profilesContract */\n      dup1\n      0x00\n      swap1\n      sload\n      swap1\n      0x0100\n      exp\n      swap1\n      div\n      0xffffffffffffffffffffffffffffffffffffffff\n      and\n        /* \"UUPScontracts/CommunityGovernanceMultisigImplementation.sol\":6689:6725  profilesContract.getCommunityProfile */\n      0xffffffffffffffffffffffffffffffffffffffff\n      and\n      0x99664245\n        /* \"UUPScontracts/CommunityGovernanceMultisigImplementation.sol\":6726:6738  _communityId */\n      dup5\n        /* \"UUPScontracts/CommunityGovernanceMultisigImplementation.sol\":6689:6739  profilesContract.getCommunityProfile(_communityId) */\n      mload(0x40)\n      dup3\n      0xffffffff\n      and\n      0xe0\n      shl\n      dup2\n      mstore\n      0x04\n      add\n      tag_412\n      swap2\n      swap1\n      tag_105\n      jump\t// in\n    tag_412:\n      0x00\n      mload(0x40)\n      dup1\n      dup4\n      sub\n      dup2\n      dup7\n      gas\n      staticcall\n      iszero\n      dup1\n      iszero\n      tag_414\n      jumpi\n      returndatasize\n      0x00\n      dup1\n      returndatacopy\n      revert(0x00, returndatasize)\n    tag_414:\n      pop\n      pop\n      pop\n      pop\n      mload(0x40)\n      returndatasize\n      0x00\n      dup3\n      returndatacopy\n      returndatasize\n      not(0x1f)\n      0x1f\n      dup3\n      add\n      and\n      dup3\n      add\n      dup1\n      0x40\n      mstore\n      pop\n      dup2\n      add\n      swap1\n      tag_415\n      swap2\n      swap1\n      tag_416\n      jump\t// in\n    tag_415:\n        /* \"UUPScontracts/CommunityGovernanceMultisigImplementation.sol\":6544:6739  (... */\n      swap8\n      pop\n      pop\n      pop\n      pop\n      pop\n      pop\n      pop\n      pop\n        /* \"UUPScontracts/CommunityGovernanceMultisigImplementation.sol\":6790:6791  0 */\n      0x00\n        /* \"UUPScontracts/CommunityGovernanceMultisigImplementation.sol\":6766:6792  tokenAddress != address(0) */\n      0xffffffffffffffffffffffffffffffffffffffff\n      and\n        /* \"UUPScontracts/CommunityGovernanceMultisigImplementation.sol\":6766:6778  tokenAddress */\n      dup2\n        /* \"UUPScontracts/CommunityGovernanceMultisigImplementation.sol\":6766:6792  tokenAddress != address(0) */\n      0xffffffffffffffffffffffffffffffffffffffff\n      and\n      sub\n        /* \"UUPScontracts/CommunityGovernanceMultisigImplementation.sol\":6758:6822  require(tokenAddress != address(0), \"Community token not found\") */\n      tag_417\n      jumpi\n      mload(0x40)\n      0x08c379a000000000000000000000000000000000000000000000000000000000\n      dup2\n      mstore\n      0x04\n      add\n      tag_418\n      swap1\n      tag_419\n      jump\t// in\n    tag_418:\n      mload(0x40)\n      dup1\n      swap2\n      sub\n      swap1\n      revert\n    tag_417:\n        /* \"UUPScontracts/CommunityGovernanceMultisigImplementation.sol\":6840:6861  ICommunityToken token */\n      0x00\n        /* \"UUPScontracts/CommunityGovernanceMultisigImplementation.sol\":6880:6892  tokenAddress */\n      dup2\n        /* \"UUPScontracts/CommunityGovernanceMultisigImplementation.sol\":6840:6893  ICommunityToken token = ICommunityToken(tokenAddress) */\n      swap1\n      pop\n        /* \"UUPScontracts/CommunityGovernanceMultisigImplementation.sol\":6903:6908  token */\n      dup1\n        /* \"UUPScontracts/CommunityGovernanceMultisigImplementation.sol\":6903:6913  token.mint */\n      0xffffffffffffffffffffffffffffffffffffffff\n      and\n      0x40c10f19\n        /* \"UUPScontracts/CommunityGovernanceMultisigImplementation.sol\":6922:6926  this */\n      address\n        /* \"UUPScontracts/CommunityGovernanceMultisigImplementation.sol\":6929:6936  _amount */\n      dup6\n        /* \"UUPScontracts/CommunityGovernanceMultisigImplementation.sol\":6903:6937  token.mint(address(this), _amount) */\n      mload(0x40)\n      dup4\n      0xffffffff\n      and\n      0xe0\n      shl\n      dup2\n      mstore\n      0x04\n      add\n      tag_420\n      swap3\n      swap2\n      swap1\n      tag_165\n      jump\t// in\n    tag_420:\n      0x00\n      mload(0x40)\n      dup1\n      dup4\n      sub\n      dup2\n      0x00\n      dup8\n      dup1\n      extcodesize\n      iszero\n      dup1\n      iszero\n      tag_421\n      jumpi\n      0x00\n      dup1\n      revert\n    tag_421:\n      pop\n      gas\n      call\n      iszero\n      dup1\n      iszero\n      tag_423\n      jumpi\n      returndatasize\n      0x00\n      dup1\n      returndatacopy\n      revert(0x00, returndatasize)\n    tag_423:\n      pop\n      pop\n      pop\n      pop\n        /* \"UUPScontracts/CommunityGovernanceMultisigImplementation.sol\":6965:6977  _communityId */\n      dup4\n        /* \"UUPScontracts/CommunityGovernanceMultisigImplementation.sol\":6952:6987  TokensMinted(_communityId, _amount) */\n      0xc61c8e2899bd86923bda7268d6d1b42d8e644ff3dedc13d41d5b798e4aa35237\n        /* \"UUPScontracts/CommunityGovernanceMultisigImplementation.sol\":6979:6986  _amount */\n      dup5\n        /* \"UUPScontracts/CommunityGovernanceMultisigImplementation.sol\":6952:6987  TokensMinted(_communityId, _amount) */\n      mload(0x40)\n      tag_424\n      swap2\n      swap1\n      tag_105\n      jump\t// in\n    tag_424:\n      mload(0x40)\n      dup1\n      swap2\n      sub\n      swap1\n      log2\n        /* \"UUPScontracts/CommunityGovernanceMultisigImplementation.sol\":6537:6994  {... */\n      pop\n      pop\n        /* \"UUPScontracts/CommunityGovernanceMultisigImplementation.sol\":6469:6994  function mintTokens(uint256 _communityId, uint256 _amount) internal {... */\n      pop\n      pop\n      jump\t// out\n        /* \"@openzeppelin/contracts/utils/StorageSlot.sol\":1684:1874  function getAddressSlot(bytes32 slot) internal pure returns (AddressSlot storage r) {... */\n    tag_383:\n        /* \"@openzeppelin/contracts/utils/StorageSlot.sol\":1745:1766  AddressSlot storage r */\n      0x00\n        /* \"@openzeppelin/contracts/utils/StorageSlot.sol\":1854:1858  slot */\n      dup2\n        /* \"@openzeppelin/contracts/utils/StorageSlot.sol\":1844:1858  r.slot := slot */\n      swap1\n      pop\n        /* \"@openzeppelin/contracts/utils/StorageSlot.sol\":1684:1874  function getAddressSlot(bytes32 slot) internal pure returns (AddressSlot storage r) {... */\n      swap2\n      swap1\n      pop\n      jump\t// out\n        /* \"@openzeppelin/contracts/proxy/ERC1967/ERC1967Utils.sol\":2186:2467  function _setImplementation(address newImplementation) private {... */\n    tag_386:\n        /* \"@openzeppelin/contracts/proxy/ERC1967/ERC1967Utils.sol\":2296:2297  0 */\n      0x00\n        /* \"@openzeppelin/contracts/proxy/ERC1967/ERC1967Utils.sol\":2263:2280  newImplementation */\n      dup2\n        /* \"@openzeppelin/contracts/proxy/ERC1967/ERC1967Utils.sol\":2263:2292  newImplementation.code.length */\n      0xffffffffffffffffffffffffffffffffffffffff\n      and\n      extcodesize\n        /* \"@openzeppelin/contracts/proxy/ERC1967/ERC1967Utils.sol\":2263:2297  newImplementation.code.length == 0 */\n      sub\n        /* \"@openzeppelin/contracts/proxy/ERC1967/ERC1967Utils.sol\":2259:2378  if (newImplementation.code.length == 0) {... */\n      tag_427\n      jumpi\n        /* \"@openzeppelin/contracts/proxy/ERC1967/ERC1967Utils.sol\":2349:2366  newImplementation */\n      dup1\n        /* \"@openzeppelin/contracts/proxy/ERC1967/ERC1967Utils.sol\":2320:2367  ERC1967InvalidImplementation(newImplementation) */\n      mload(0x40)\n      0x4c9c8ce300000000000000000000000000000000000000000000000000000000\n      dup2\n      mstore\n      0x04\n      add\n      tag_428\n      swap2\n      swap1\n      tag_70\n      jump\t// in\n    tag_428:\n      mload(0x40)\n      dup1\n      swap2\n      sub\n      swap1\n      revert\n        /* \"@openzeppelin/contracts/proxy/ERC1967/ERC1967Utils.sol\":2259:2378  if (newImplementation.code.length == 0) {... */\n    tag_427:\n        /* \"@openzeppelin/contracts/proxy/ERC1967/ERC1967Utils.sol\":2443:2460  newImplementation */\n      dup1\n        /* \"@openzeppelin/contracts/proxy/ERC1967/ERC1967Utils.sol\":2387:2434  StorageSlot.getAddressSlot(IMPLEMENTATION_SLOT) */\n      tag_429\n        /* \"@openzeppelin/contracts/proxy/ERC1967/ERC1967Utils.sol\":1327:1393  0x360894a13ba1a3210667c828492db98dca3e2076cc3735a920a3ca505d382bbc */\n      0x360894a13ba1a3210667c828492db98dca3e2076cc3735a920a3ca505d382bbc\n        /* \"@openzeppelin/contracts/proxy/ERC1967/ERC1967Utils.sol\":2414:2433  IMPLEMENTATION_SLOT */\n      0x00\n      shl\n        /* \"@openzeppelin/contracts/proxy/ERC1967/ERC1967Utils.sol\":2387:2413  StorageSlot.getAddressSlot */\n      tag_383\n        /* \"@openzeppelin/contracts/proxy/ERC1967/ERC1967Utils.sol\":2387:2434  StorageSlot.getAddressSlot(IMPLEMENTATION_SLOT) */\n      jump\t// in\n    tag_429:\n        /* \"@openzeppelin/contracts/proxy/ERC1967/ERC1967Utils.sol\":2387:2440  StorageSlot.getAddressSlot(IMPLEMENTATION_SLOT).value */\n      0x00\n      add\n      0x00\n        /* \"@openzeppelin/contracts/proxy/ERC1967/ERC1967Utils.sol\":2387:2460  StorageSlot.getAddressSlot(IMPLEMENTATION_SLOT).value = newImplementation */\n      0x0100\n      exp\n      dup2\n      sload\n      dup2\n      0xffffffffffffffffffffffffffffffffffffffff\n      mul\n      not\n      and\n      swap1\n      dup4\n      0xffffffffffffffffffffffffffffffffffffffff\n      and\n      mul\n      or\n      swap1\n      sstore\n      pop\n        /* \"@openzeppelin/contracts/proxy/ERC1967/ERC1967Utils.sol\":2186:2467  function _setImplementation(address newImplementation) private {... */\n      pop\n      jump\t// out\n        /* \"@openzeppelin/contracts/utils/Address.sol\":4106:4359  function functionDelegateCall(address target, bytes memory data) internal returns (bytes memory) {... */\n    tag_389:\n        /* \"@openzeppelin/contracts/utils/Address.sol\":4189:4201  bytes memory */\n      0x60\n        /* \"@openzeppelin/contracts/utils/Address.sol\":4214:4226  bool success */\n      0x00\n        /* \"@openzeppelin/contracts/utils/Address.sol\":4228:4251  bytes memory returndata */\n      dup1\n        /* \"@openzeppelin/contracts/utils/Address.sol\":4255:4261  target */\n      dup5\n        /* \"@openzeppelin/contracts/utils/Address.sol\":4255:4274  target.delegatecall */\n      0xffffffffffffffffffffffffffffffffffffffff\n      and\n        /* \"@openzeppelin/contracts/utils/Address.sol\":4275:4279  data */\n      dup5\n        /* \"@openzeppelin/contracts/utils/Address.sol\":4255:4280  target.delegatecall(data) */\n      mload(0x40)\n      tag_431\n      swap2\n      swap1\n      tag_432\n      jump\t// in\n    tag_431:\n      0x00\n      mload(0x40)\n      dup1\n      dup4\n      sub\n      dup2\n      dup6\n      gas\n      delegatecall\n      swap2\n      pop\n      pop\n      returndatasize\n      dup1\n      0x00\n      dup2\n      eq\n      tag_435\n      jumpi\n      mload(0x40)\n      swap2\n      pop\n      and(add(returndatasize, 0x3f), not(0x1f))\n      dup3\n      add\n      0x40\n      mstore\n      returndatasize\n      dup3\n      mstore\n      returndatasize\n      0x00\n      0x20\n      dup5\n      add\n      returndatacopy\n      jump(tag_434)\n    tag_435:\n      0x60\n      swap2\n      pop\n    tag_434:\n      pop\n        /* \"@openzeppelin/contracts/utils/Address.sol\":4213:4280  (bool success, bytes memory returndata) = target.delegatecall(data) */\n      swap2\n      pop\n      swap2\n      pop\n        /* \"@openzeppelin/contracts/utils/Address.sol\":4297:4352  verifyCallResultFromTarget(target, success, returndata) */\n      tag_436\n        /* \"@openzeppelin/contracts/utils/Address.sol\":4324:4330  target */\n      dup6\n        /* \"@openzeppelin/contracts/utils/Address.sol\":4332:4339  success */\n      dup4\n        /* \"@openzeppelin/contracts/utils/Address.sol\":4341:4351  returndata */\n      dup4\n        /* \"@openzeppelin/contracts/utils/Address.sol\":4297:4323  verifyCallResultFromTarget */\n      tag_437\n        /* \"@openzeppelin/contracts/utils/Address.sol\":4297:4352  verifyCallResultFromTarget(target, success, returndata) */\n      jump\t// in\n    tag_436:\n        /* \"@openzeppelin/contracts/utils/Address.sol\":4290:4352  return verifyCallResultFromTarget(target, success, returndata) */\n      swap3\n      pop\n      pop\n      pop\n        /* \"@openzeppelin/contracts/utils/Address.sol\":4106:4359  function functionDelegateCall(address target, bytes memory data) internal returns (bytes memory) {... */\n      swap3\n      swap2\n      pop\n      pop\n      jump\t// out\n        /* \"@openzeppelin/contracts/proxy/ERC1967/ERC1967Utils.sol\":6598:6720  function _checkNonPayable() private {... */\n    tag_392:\n        /* \"@openzeppelin/contracts/proxy/ERC1967/ERC1967Utils.sol\":6660:6661  0 */\n      0x00\n        /* \"@openzeppelin/contracts/proxy/ERC1967/ERC1967Utils.sol\":6648:6657  msg.value */\n      callvalue\n        /* \"@openzeppelin/contracts/proxy/ERC1967/ERC1967Utils.sol\":6648:6661  msg.value > 0 */\n      gt\n        /* \"@openzeppelin/contracts/proxy/ERC1967/ERC1967Utils.sol\":6644:6714  if (msg.value > 0) {... */\n      iszero\n      tag_439\n      jumpi\n        /* \"@openzeppelin/contracts/proxy/ERC1967/ERC1967Utils.sol\":6684:6703  ERC1967NonPayable() */\n      mload(0x40)\n      0xb398979f00000000000000000000000000000000000000000000000000000000\n      dup2\n      mstore\n      0x04\n      add\n      mload(0x40)\n      dup1\n      swap2\n      sub\n      swap1\n      revert\n        /* \"@openzeppelin/contracts/proxy/ERC1967/ERC1967Utils.sol\":6644:6714  if (msg.value > 0) {... */\n    tag_439:\n        /* \"@openzeppelin/contracts/proxy/ERC1967/ERC1967Utils.sol\":6598:6720  function _checkNonPayable() private {... */\n      jump\t// out\n        /* \"@openzeppelin/contracts-upgradeable/proxy/utils/Initializable.sol\":8487:8607  function _isInitializing() internal view returns (bool) {... */\n    tag_395:\n        /* \"@openzeppelin/contracts-upgradeable/proxy/utils/Initializable.sol\":8537:8541  bool */\n      0x00\n        /* \"@openzeppelin/contracts-upgradeable/proxy/utils/Initializable.sol\":8560:8586  _getInitializableStorage() */\n      tag_441\n        /* \"@openzeppelin/contracts-upgradeable/proxy/utils/Initializable.sol\":8560:8584  _getInitializableStorage */\n      tag_243\n        /* \"@openzeppelin/contracts-upgradeable/proxy/utils/Initializable.sol\":8560:8586  _getInitializableStorage() */\n      jump\t// in\n    tag_441:\n        /* \"@openzeppelin/contracts-upgradeable/proxy/utils/Initializable.sol\":8560:8600  _getInitializableStorage()._initializing */\n      0x00\n      add\n      0x08\n      swap1\n      sload\n      swap1\n      0x0100\n      exp\n      swap1\n      div\n      0xff\n      and\n        /* \"@openzeppelin/contracts-upgradeable/proxy/utils/Initializable.sol\":8553:8600  return _getInitializableStorage()._initializing */\n      swap1\n      pop\n        /* \"@openzeppelin/contracts-upgradeable/proxy/utils/Initializable.sol\":8487:8607  function _isInitializing() internal view returns (bool) {... */\n      swap1\n      jump\t// out\n        /* \"@openzeppelin/contracts/utils/Address.sol\":4625:5207  function verifyCallResultFromTarget(... */\n    tag_437:\n        /* \"@openzeppelin/contracts/utils/Address.sol\":4769:4781  bytes memory */\n      0x60\n        /* \"@openzeppelin/contracts/utils/Address.sol\":4798:4805  success */\n      dup3\n        /* \"@openzeppelin/contracts/utils/Address.sol\":4793:5201  if (!success) {... */\n      tag_443\n      jumpi\n        /* \"@openzeppelin/contracts/utils/Address.sol\":4821:4840  _revert(returndata) */\n      tag_444\n        /* \"@openzeppelin/contracts/utils/Address.sol\":4829:4839  returndata */\n      dup3\n        /* \"@openzeppelin/contracts/utils/Address.sol\":4821:4828  _revert */\n      tag_445\n        /* \"@openzeppelin/contracts/utils/Address.sol\":4821:4840  _revert(returndata) */\n      jump\t// in\n    tag_444:\n        /* \"@openzeppelin/contracts/utils/Address.sol\":4793:5201  if (!success) {... */\n      jump(tag_446)\n    tag_443:\n        /* \"@openzeppelin/contracts/utils/Address.sol\":5066:5067  0 */\n      0x00\n        /* \"@openzeppelin/contracts/utils/Address.sol\":5045:5055  returndata */\n      dup3\n        /* \"@openzeppelin/contracts/utils/Address.sol\":5045:5062  returndata.length */\n      mload\n        /* \"@openzeppelin/contracts/utils/Address.sol\":5045:5067  returndata.length == 0 */\n      eq\n        /* \"@openzeppelin/contracts/utils/Address.sol\":5045:5094  returndata.length == 0 && target.code.length == 0 */\n      dup1\n      iszero\n      tag_447\n      jumpi\n      pop\n        /* \"@openzeppelin/contracts/utils/Address.sol\":5093:5094  0 */\n      0x00\n        /* \"@openzeppelin/contracts/utils/Address.sol\":5071:5077  target */\n      dup5\n        /* \"@openzeppelin/contracts/utils/Address.sol\":5071:5089  target.code.length */\n      0xffffffffffffffffffffffffffffffffffffffff\n      and\n      extcodesize\n        /* \"@openzeppelin/contracts/utils/Address.sol\":5071:5094  target.code.length == 0 */\n      eq\n        /* \"@openzeppelin/contracts/utils/Address.sol\":5045:5094  returndata.length == 0 && target.code.length == 0 */\n    tag_447:\n        /* \"@openzeppelin/contracts/utils/Address.sol\":5041:5160  if (returndata.length == 0 && target.code.length == 0) {... */\n      iszero\n      tag_448\n      jumpi\n        /* \"@openzeppelin/contracts/utils/Address.sol\":5138:5144  target */\n      dup4\n        /* \"@openzeppelin/contracts/utils/Address.sol\":5121:5145  AddressEmptyCode(target) */\n      mload(0x40)\n      0x9996b31500000000000000000000000000000000000000000000000000000000\n      dup2\n      mstore\n      0x04\n      add\n      tag_449\n      swap2\n      swap1\n      tag_70\n      jump\t// in\n    tag_449:\n      mload(0x40)\n      dup1\n      swap2\n      sub\n      swap1\n      revert\n        /* \"@openzeppelin/contracts/utils/Address.sol\":5041:5160  if (returndata.length == 0 && target.code.length == 0) {... */\n    tag_448:\n        /* \"@openzeppelin/contracts/utils/Address.sol\":5180:5190  returndata */\n      dup2\n        /* \"@openzeppelin/contracts/utils/Address.sol\":5173:5190  return returndata */\n      swap1\n      pop\n      jump(tag_442)\n        /* \"@openzeppelin/contracts/utils/Address.sol\":4793:5201  if (!success) {... */\n    tag_446:\n        /* \"@openzeppelin/contracts/utils/Address.sol\":4625:5207  function verifyCallResultFromTarget(... */\n    tag_442:\n      swap4\n      swap3\n      pop\n      pop\n      pop\n      jump\t// out\n        /* \"@openzeppelin/contracts/utils/Address.sol\":5743:6259  function _revert(bytes memory returndata) private pure {... */\n    tag_445:\n        /* \"@openzeppelin/contracts/utils/Address.sol\":5894:5895  0 */\n      0x00\n        /* \"@openzeppelin/contracts/utils/Address.sol\":5874:5884  returndata */\n      dup2\n        /* \"@openzeppelin/contracts/utils/Address.sol\":5874:5891  returndata.length */\n      mload\n        /* \"@openzeppelin/contracts/utils/Address.sol\":5874:5895  returndata.length > 0 */\n      gt\n        /* \"@openzeppelin/contracts/utils/Address.sol\":5870:6253  if (returndata.length > 0) {... */\n      iszero\n      tag_451\n      jumpi\n        /* \"@openzeppelin/contracts/utils/Address.sol\":6102:6112  returndata */\n      dup1\n        /* \"@openzeppelin/contracts/utils/Address.sol\":6096:6113  mload(returndata) */\n      mload\n        /* \"@openzeppelin/contracts/utils/Address.sol\":6158:6173  returndata_size */\n      dup1\n        /* \"@openzeppelin/contracts/utils/Address.sol\":6145:6155  returndata */\n      dup3\n        /* \"@openzeppelin/contracts/utils/Address.sol\":6141:6143  32 */\n      0x20\n        /* \"@openzeppelin/contracts/utils/Address.sol\":6137:6156  add(32, returndata) */\n      add\n        /* \"@openzeppelin/contracts/utils/Address.sol\":6130:6174  revert(add(32, returndata), returndata_size) */\n      revert\n        /* \"@openzeppelin/contracts/utils/Address.sol\":5870:6253  if (returndata.length > 0) {... */\n    tag_451:\n        /* \"@openzeppelin/contracts/utils/Address.sol\":6225:6242  FailedInnerCall() */\n      mload(0x40)\n      0x1425ea4200000000000000000000000000000000000000000000000000000000\n      dup2\n      mstore\n      0x04\n      add\n      mload(0x40)\n      dup1\n      swap2\n      sub\n      swap1\n      revert\n    tag_130:\n      mload(0x40)\n      dup1\n      0xa0\n      add\n      0x40\n      mstore\n      dup1\n      0x05\n      swap1\n      0x20\n      dup3\n      mul\n      dup1\n      calldatasize\n      dup4\n      calldatacopy\n      dup1\n      dup3\n      add\n      swap2\n      pop\n      pop\n      swap1\n      pop\n      pop\n      swap1\n      jump\t// out\n    tag_221:\n      dup3\n      0x05\n      dup2\n      add\n      swap3\n      dup3\n      iszero\n      tag_453\n      jumpi\n      swap2\n      0x20\n      mul\n      dup3\n      add\n    tag_454:\n      dup3\n      dup2\n      gt\n      iszero\n      tag_455\n      jumpi\n      dup3\n      mload\n      dup3\n      exp(0x0100, 0x00)\n      dup2\n      sload\n      dup2\n      0xffffffffffffffffffffffffffffffffffffffff\n      mul\n      not\n      and\n      swap1\n      dup4\n      0xffffffffffffffffffffffffffffffffffffffff\n      and\n      mul\n      or\n      swap1\n      sstore\n      pop\n      swap2\n      0x20\n      add\n      swap2\n      swap1\n      0x01\n      add\n      swap1\n      jump(tag_454)\n    tag_455:\n    tag_453:\n      pop\n      swap1\n      pop\n      tag_456\n      swap2\n      swap1\n      tag_457\n      jump\t// in\n    tag_456:\n      pop\n      swap1\n      jump\t// out\n    tag_457:\n    tag_458:\n      dup1\n      dup3\n      gt\n      iszero\n      tag_459\n      jumpi\n      0x00\n      dup2\n      0x00\n      swap1\n      sstore\n      pop\n      0x01\n      add\n      jump(tag_458)\n    tag_459:\n      pop\n      swap1\n      jump\t// out\n        /* \"#utility.yul\":7:133   */\n    tag_460:\n        /* \"#utility.yul\":44:51   */\n      0x00\n        /* \"#utility.yul\":84:126   */\n      0xffffffffffffffffffffffffffffffffffffffff\n        /* \"#utility.yul\":77:82   */\n      dup3\n        /* \"#utility.yul\":73:127   */\n      and\n        /* \"#utility.yul\":62:127   */\n      swap1\n      pop\n        /* \"#utility.yul\":7:133   */\n      swap2\n      swap1\n      pop\n      jump\t// out\n        /* \"#utility.yul\":139:199   */\n    tag_461:\n        /* \"#utility.yul\":167:170   */\n      0x00\n        /* \"#utility.yul\":188:193   */\n      dup2\n        /* \"#utility.yul\":181:193   */\n      swap1\n      pop\n        /* \"#utility.yul\":139:199   */\n      swap2\n      swap1\n      pop\n      jump\t// out\n        /* \"#utility.yul\":205:347   */\n    tag_462:\n        /* \"#utility.yul\":255:264   */\n      0x00\n        /* \"#utility.yul\":288:341   */\n      tag_552\n        /* \"#utility.yul\":306:340   */\n      tag_553\n        /* \"#utility.yul\":315:339   */\n      tag_554\n        /* \"#utility.yul\":333:338   */\n      dup5\n        /* \"#utility.yul\":315:339   */\n      tag_460\n      jump\t// in\n    tag_554:\n        /* \"#utility.yul\":306:340   */\n      tag_461\n      jump\t// in\n    tag_553:\n        /* \"#utility.yul\":288:341   */\n      tag_460\n      jump\t// in\n    tag_552:\n        /* \"#utility.yul\":275:341   */\n      swap1\n      pop\n        /* \"#utility.yul\":205:347   */\n      swap2\n      swap1\n      pop\n      jump\t// out\n        /* \"#utility.yul\":353:479   */\n    tag_463:\n        /* \"#utility.yul\":403:412   */\n      0x00\n        /* \"#utility.yul\":436:473   */\n      tag_556\n        /* \"#utility.yul\":467:472   */\n      dup3\n        /* \"#utility.yul\":436:473   */\n      tag_462\n      jump\t// in\n    tag_556:\n        /* \"#utility.yul\":423:473   */\n      swap1\n      pop\n        /* \"#utility.yul\":353:479   */\n      swap2\n      swap1\n      pop\n      jump\t// out\n        /* \"#utility.yul\":485:648   */\n    tag_464:\n        /* \"#utility.yul\":572:581   */\n      0x00\n        /* \"#utility.yul\":605:642   */\n      tag_558\n        /* \"#utility.yul\":636:641   */\n      dup3\n        /* \"#utility.yul\":605:642   */\n      tag_463\n      jump\t// in\n    tag_558:\n        /* \"#utility.yul\":592:642   */\n      swap1\n      pop\n        /* \"#utility.yul\":485:648   */\n      swap2\n      swap1\n      pop\n      jump\t// out\n        /* \"#utility.yul\":654:859   */\n    tag_465:\n        /* \"#utility.yul\":778:852   */\n      tag_560\n        /* \"#utility.yul\":846:851   */\n      dup2\n        /* \"#utility.yul\":778:852   */\n      tag_464\n      jump\t// in\n    tag_560:\n        /* \"#utility.yul\":773:776   */\n      dup3\n        /* \"#utility.yul\":766:853   */\n      mstore\n        /* \"#utility.yul\":654:859   */\n      pop\n      pop\n      jump\t// out\n        /* \"#utility.yul\":865:1161   */\n    tag_29:\n        /* \"#utility.yul\":995:999   */\n      0x00\n        /* \"#utility.yul\":1033:1035   */\n      0x20\n        /* \"#utility.yul\":1022:1031   */\n      dup3\n        /* \"#utility.yul\":1018:1036   */\n      add\n        /* \"#utility.yul\":1010:1036   */\n      swap1\n      pop\n        /* \"#utility.yul\":1046:1154   */\n      tag_562\n        /* \"#utility.yul\":1151:1152   */\n      0x00\n        /* \"#utility.yul\":1140:1149   */\n      dup4\n        /* \"#utility.yul\":1136:1153   */\n      add\n        /* \"#utility.yul\":1127:1133   */\n      dup5\n        /* \"#utility.yul\":1046:1154   */\n      tag_465\n      jump\t// in\n    tag_562:\n        /* \"#utility.yul\":865:1161   */\n      swap3\n      swap2\n      pop\n      pop\n      jump\t// out\n        /* \"#utility.yul\":1167:1242   */\n    tag_466:\n        /* \"#utility.yul\":1200:1206   */\n      0x00\n        /* \"#utility.yul\":1233:1235   */\n      0x40\n        /* \"#utility.yul\":1227:1236   */\n      mload\n        /* \"#utility.yul\":1217:1236   */\n      swap1\n      pop\n        /* \"#utility.yul\":1167:1242   */\n      swap1\n      jump\t// out\n        /* \"#utility.yul\":1248:1365   */\n    tag_467:\n        /* \"#utility.yul\":1357:1358   */\n      0x00\n        /* \"#utility.yul\":1354:1355   */\n      dup1\n        /* \"#utility.yul\":1347:1359   */\n      revert\n        /* \"#utility.yul\":1371:1488   */\n    tag_468:\n        /* \"#utility.yul\":1480:1481   */\n      0x00\n        /* \"#utility.yul\":1477:1478   */\n      dup1\n        /* \"#utility.yul\":1470:1482   */\n      revert\n        /* \"#utility.yul\":1494:1571   */\n    tag_469:\n        /* \"#utility.yul\":1531:1538   */\n      0x00\n        /* \"#utility.yul\":1560:1565   */\n      dup2\n        /* \"#utility.yul\":1549:1565   */\n      swap1\n      pop\n        /* \"#utility.yul\":1494:1571   */\n      swap2\n      swap1\n      pop\n      jump\t// out\n        /* \"#utility.yul\":1577:1699   */\n    tag_470:\n        /* \"#utility.yul\":1650:1674   */\n      tag_568\n        /* \"#utility.yul\":1668:1673   */\n      dup2\n        /* \"#utility.yul\":1650:1674   */\n      tag_469\n      jump\t// in\n    tag_568:\n        /* \"#utility.yul\":1643:1648   */\n      dup2\n        /* \"#utility.yul\":1640:1675   */\n      eq\n        /* \"#utility.yul\":1630:1693   */\n      tag_569\n      jumpi\n        /* \"#utility.yul\":1689:1690   */\n      0x00\n        /* \"#utility.yul\":1686:1687   */\n      dup1\n        /* \"#utility.yul\":1679:1691   */\n      revert\n        /* \"#utility.yul\":1630:1693   */\n    tag_569:\n        /* \"#utility.yul\":1577:1699   */\n      pop\n      jump\t// out\n        /* \"#utility.yul\":1705:1844   */\n    tag_471:\n        /* \"#utility.yul\":1751:1756   */\n      0x00\n        /* \"#utility.yul\":1789:1795   */\n      dup2\n        /* \"#utility.yul\":1776:1796   */\n      calldataload\n        /* \"#utility.yul\":1767:1796   */\n      swap1\n      pop\n        /* \"#utility.yul\":1805:1838   */\n      tag_571\n        /* \"#utility.yul\":1832:1837   */\n      dup2\n        /* \"#utility.yul\":1805:1838   */\n      tag_470\n      jump\t// in\n    tag_571:\n        /* \"#utility.yul\":1705:1844   */\n      swap3\n      swap2\n      pop\n      pop\n      jump\t// out\n        /* \"#utility.yul\":1850:2324   */\n    tag_33:\n        /* \"#utility.yul\":1918:1924   */\n      0x00\n        /* \"#utility.yul\":1926:1932   */\n      dup1\n        /* \"#utility.yul\":1975:1977   */\n      0x40\n        /* \"#utility.yul\":1963:1972   */\n      dup4\n        /* \"#utility.yul\":1954:1961   */\n      dup6\n        /* \"#utility.yul\":1950:1973   */\n      sub\n        /* \"#utility.yul\":1946:1978   */\n      slt\n        /* \"#utility.yul\":1943:2062   */\n      iszero\n      tag_573\n      jumpi\n        /* \"#utility.yul\":1981:2060   */\n      tag_574\n      tag_467\n      jump\t// in\n    tag_574:\n        /* \"#utility.yul\":1943:2062   */\n    tag_573:\n        /* \"#utility.yul\":2101:2102   */\n      0x00\n        /* \"#utility.yul\":2126:2179   */\n      tag_575\n        /* \"#utility.yul\":2171:2178   */\n      dup6\n        /* \"#utility.yul\":2162:2168   */\n      dup3\n        /* \"#utility.yul\":2151:2160   */\n      dup7\n        /* \"#utility.yul\":2147:2169   */\n      add\n        /* \"#utility.yul\":2126:2179   */\n      tag_471\n      jump\t// in\n    tag_575:\n        /* \"#utility.yul\":2116:2179   */\n      swap3\n      pop\n        /* \"#utility.yul\":2072:2189   */\n      pop\n        /* \"#utility.yul\":2228:2230   */\n      0x20\n        /* \"#utility.yul\":2254:2307   */\n      tag_576\n        /* \"#utility.yul\":2299:2306   */\n      dup6\n        /* \"#utility.yul\":2290:2296   */\n      dup3\n        /* \"#utility.yul\":2279:2288   */\n      dup7\n        /* \"#utility.yul\":2275:2297   */\n      add\n        /* \"#utility.yul\":2254:2307   */\n      tag_471\n      jump\t// in\n    tag_576:\n        /* \"#utility.yul\":2244:2307   */\n      swap2\n      pop\n        /* \"#utility.yul\":2199:2317   */\n      pop\n        /* \"#utility.yul\":1850:2324   */\n      swap3\n      pop\n      swap3\n      swap1\n      pop\n      jump\t// out\n        /* \"#utility.yul\":2330:2659   */\n    tag_38:\n        /* \"#utility.yul\":2389:2395   */\n      0x00\n        /* \"#utility.yul\":2438:2440   */\n      0x20\n        /* \"#utility.yul\":2426:2435   */\n      dup3\n        /* \"#utility.yul\":2417:2424   */\n      dup5\n        /* \"#utility.yul\":2413:2436   */\n      sub\n        /* \"#utility.yul\":2409:2441   */\n      slt\n        /* \"#utility.yul\":2406:2525   */\n      iszero\n      tag_578\n      jumpi\n        /* \"#utility.yul\":2444:2523   */\n      tag_579\n      tag_467\n      jump\t// in\n    tag_579:\n        /* \"#utility.yul\":2406:2525   */\n    tag_578:\n        /* \"#utility.yul\":2564:2565   */\n      0x00\n        /* \"#utility.yul\":2589:2642   */\n      tag_580\n        /* \"#utility.yul\":2634:2641   */\n      dup5\n        /* \"#utility.yul\":2625:2631   */\n      dup3\n        /* \"#utility.yul\":2614:2623   */\n      dup6\n        /* \"#utility.yul\":2610:2632   */\n      add\n        /* \"#utility.yul\":2589:2642   */\n      tag_471\n      jump\t// in\n    tag_580:\n        /* \"#utility.yul\":2579:2642   */\n      swap2\n      pop\n        /* \"#utility.yul\":2535:2652   */\n      pop\n        /* \"#utility.yul\":2330:2659   */\n      swap3\n      swap2\n      pop\n      pop\n      jump\t// out\n        /* \"#utility.yul\":2665:2783   */\n    tag_472:\n        /* \"#utility.yul\":2752:2776   */\n      tag_582\n        /* \"#utility.yul\":2770:2775   */\n      dup2\n        /* \"#utility.yul\":2752:2776   */\n      tag_469\n      jump\t// in\n    tag_582:\n        /* \"#utility.yul\":2747:2750   */\n      dup3\n        /* \"#utility.yul\":2740:2777   */\n      mstore\n        /* \"#utility.yul\":2665:2783   */\n      pop\n      pop\n      jump\t// out\n        /* \"#utility.yul\":2789:2893   */\n    tag_473:\n        /* \"#utility.yul\":2854:2860   */\n      0x00\n        /* \"#utility.yul\":2882:2886   */\n      0x05\n        /* \"#utility.yul\":2872:2886   */\n      swap1\n      pop\n        /* \"#utility.yul\":2789:2893   */\n      swap2\n      swap1\n      pop\n      jump\t// out\n        /* \"#utility.yul\":2899:3042   */\n    tag_474:\n        /* \"#utility.yul\":2996:3007   */\n      0x00\n        /* \"#utility.yul\":3033:3036   */\n      dup2\n        /* \"#utility.yul\":3018:3036   */\n      swap1\n      pop\n        /* \"#utility.yul\":2899:3042   */\n      swap3\n      swap2\n      pop\n      pop\n      jump\t// out\n        /* \"#utility.yul\":3048:3146   */\n    tag_475:\n        /* \"#utility.yul\":3113:3117   */\n      0x00\n        /* \"#utility.yul\":3136:3139   */\n      dup2\n        /* \"#utility.yul\":3128:3139   */\n      swap1\n      pop\n        /* \"#utility.yul\":3048:3146   */\n      swap2\n      swap1\n      pop\n      jump\t// out\n        /* \"#utility.yul\":3152:3248   */\n    tag_476:\n        /* \"#utility.yul\":3189:3196   */\n      0x00\n        /* \"#utility.yul\":3218:3242   */\n      tag_587\n        /* \"#utility.yul\":3236:3241   */\n      dup3\n        /* \"#utility.yul\":3218:3242   */\n      tag_460\n      jump\t// in\n    tag_587:\n        /* \"#utility.yul\":3207:3242   */\n      swap1\n      pop\n        /* \"#utility.yul\":3152:3248   */\n      swap2\n      swap1\n      pop\n      jump\t// out\n        /* \"#utility.yul\":3254:3362   */\n    tag_477:\n        /* \"#utility.yul\":3331:3355   */\n      tag_589\n        /* \"#utility.yul\":3349:3354   */\n      dup2\n        /* \"#utility.yul\":3331:3355   */\n      tag_476\n      jump\t// in\n    tag_589:\n        /* \"#utility.yul\":3326:3329   */\n      dup3\n        /* \"#utility.yul\":3319:3356   */\n      mstore\n        /* \"#utility.yul\":3254:3362   */\n      pop\n      pop\n      jump\t// out\n        /* \"#utility.yul\":3368:3547   */\n    tag_478:\n        /* \"#utility.yul\":3437:3447   */\n      0x00\n        /* \"#utility.yul\":3458:3504   */\n      tag_591\n        /* \"#utility.yul\":3500:3503   */\n      dup4\n        /* \"#utility.yul\":3492:3498   */\n      dup4\n        /* \"#utility.yul\":3458:3504   */\n      tag_477\n      jump\t// in\n    tag_591:\n        /* \"#utility.yul\":3536:3540   */\n      0x20\n        /* \"#utility.yul\":3531:3534   */\n      dup4\n        /* \"#utility.yul\":3527:3541   */\n      add\n        /* \"#utility.yul\":3513:3541   */\n      swap1\n      pop\n        /* \"#utility.yul\":3368:3547   */\n      swap3\n      swap2\n      pop\n      pop\n      jump\t// out\n        /* \"#utility.yul\":3553:3664   */\n    tag_479:\n        /* \"#utility.yul\":3621:3625   */\n      0x00\n        /* \"#utility.yul\":3653:3657   */\n      0x20\n        /* \"#utility.yul\":3648:3651   */\n      dup3\n        /* \"#utility.yul\":3644:3658   */\n      add\n        /* \"#utility.yul\":3636:3658   */\n      swap1\n      pop\n        /* \"#utility.yul\":3553:3664   */\n      swap2\n      swap1\n      pop\n      jump\t// out\n        /* \"#utility.yul\":3702:4396   */\n    tag_480:\n        /* \"#utility.yul\":3838:3890   */\n      tag_594\n        /* \"#utility.yul\":3884:3889   */\n      dup2\n        /* \"#utility.yul\":3838:3890   */\n      tag_473\n      jump\t// in\n    tag_594:\n        /* \"#utility.yul\":3906:3990   */\n      tag_595\n        /* \"#utility.yul\":3983:3989   */\n      dup2\n        /* \"#utility.yul\":3978:3981   */\n      dup5\n        /* \"#utility.yul\":3906:3990   */\n      tag_474\n      jump\t// in\n    tag_595:\n        /* \"#utility.yul\":3899:3990   */\n      swap3\n      pop\n        /* \"#utility.yul\":4014:4068   */\n      tag_596\n        /* \"#utility.yul\":4062:4067   */\n      dup3\n        /* \"#utility.yul\":4014:4068   */\n      tag_475\n      jump\t// in\n    tag_596:\n        /* \"#utility.yul\":4091:4098   */\n      dup1\n        /* \"#utility.yul\":4122:4123   */\n      0x00\n        /* \"#utility.yul\":4107:4389   */\n    tag_597:\n        /* \"#utility.yul\":4132:4138   */\n      dup4\n        /* \"#utility.yul\":4129:4130   */\n      dup2\n        /* \"#utility.yul\":4126:4139   */\n      lt\n        /* \"#utility.yul\":4107:4389   */\n      iszero\n      tag_599\n      jumpi\n        /* \"#utility.yul\":4208:4214   */\n      dup2\n        /* \"#utility.yul\":4202:4215   */\n      mload\n        /* \"#utility.yul\":4235:4298   */\n      tag_600\n        /* \"#utility.yul\":4294:4297   */\n      dup8\n        /* \"#utility.yul\":4279:4292   */\n      dup3\n        /* \"#utility.yul\":4235:4298   */\n      tag_478\n      jump\t// in\n    tag_600:\n        /* \"#utility.yul\":4228:4298   */\n      swap7\n      pop\n        /* \"#utility.yul\":4321:4379   */\n      tag_601\n        /* \"#utility.yul\":4372:4378   */\n      dup4\n        /* \"#utility.yul\":4321:4379   */\n      tag_479\n      jump\t// in\n    tag_601:\n        /* \"#utility.yul\":4311:4379   */\n      swap3\n      pop\n        /* \"#utility.yul\":4167:4389   */\n      pop\n        /* \"#utility.yul\":4154:4155   */\n      0x01\n        /* \"#utility.yul\":4151:4152   */\n      dup2\n        /* \"#utility.yul\":4147:4156   */\n      add\n        /* \"#utility.yul\":4142:4156   */\n      swap1\n      pop\n        /* \"#utility.yul\":4107:4389   */\n      jump(tag_597)\n    tag_599:\n        /* \"#utility.yul\":4111:4125   */\n      pop\n        /* \"#utility.yul\":3814:4396   */\n      pop\n      pop\n      pop\n        /* \"#utility.yul\":3702:4396   */\n      pop\n      pop\n      jump\t// out\n        /* \"#utility.yul\":4402:4827   */\n    tag_41:\n        /* \"#utility.yul\":4569:4573   */\n      0x00\n        /* \"#utility.yul\":4607:4610   */\n      0xc0\n        /* \"#utility.yul\":4596:4605   */\n      dup3\n        /* \"#utility.yul\":4592:4611   */\n      add\n        /* \"#utility.yul\":4584:4611   */\n      swap1\n      pop\n        /* \"#utility.yul\":4621:4692   */\n      tag_603\n        /* \"#utility.yul\":4689:4690   */\n      0x00\n        /* \"#utility.yul\":4678:4687   */\n      dup4\n        /* \"#utility.yul\":4674:4691   */\n      add\n        /* \"#utility.yul\":4665:4671   */\n      dup6\n        /* \"#utility.yul\":4621:4692   */\n      tag_472\n      jump\t// in\n    tag_603:\n        /* \"#utility.yul\":4702:4820   */\n      tag_604\n        /* \"#utility.yul\":4816:4818   */\n      0x20\n        /* \"#utility.yul\":4805:4814   */\n      dup4\n        /* \"#utility.yul\":4801:4819   */\n      add\n        /* \"#utility.yul\":4792:4798   */\n      dup5\n        /* \"#utility.yul\":4702:4820   */\n      tag_480\n      jump\t// in\n    tag_604:\n        /* \"#utility.yul\":4402:4827   */\n      swap4\n      swap3\n      pop\n      pop\n      pop\n      jump\t// out\n        /* \"#utility.yul\":4833:4955   */\n    tag_481:\n        /* \"#utility.yul\":4906:4930   */\n      tag_606\n        /* \"#utility.yul\":4924:4929   */\n      dup2\n        /* \"#utility.yul\":4906:4930   */\n      tag_476\n      jump\t// in\n    tag_606:\n        /* \"#utility.yul\":4899:4904   */\n      dup2\n        /* \"#utility.yul\":4896:4931   */\n      eq\n        /* \"#utility.yul\":4886:4949   */\n      tag_607\n      jumpi\n        /* \"#utility.yul\":4945:4946   */\n      0x00\n        /* \"#utility.yul\":4942:4943   */\n      dup1\n        /* \"#utility.yul\":4935:4947   */\n      revert\n        /* \"#utility.yul\":4886:4949   */\n    tag_607:\n        /* \"#utility.yul\":4833:4955   */\n      pop\n      jump\t// out\n        /* \"#utility.yul\":4961:5100   */\n    tag_482:\n        /* \"#utility.yul\":5007:5012   */\n      0x00\n        /* \"#utility.yul\":5045:5051   */\n      dup2\n        /* \"#utility.yul\":5032:5052   */\n      calldataload\n        /* \"#utility.yul\":5023:5052   */\n      swap1\n      pop\n        /* \"#utility.yul\":5061:5094   */\n      tag_609\n        /* \"#utility.yul\":5088:5093   */\n      dup2\n        /* \"#utility.yul\":5061:5094   */\n      tag_481\n      jump\t// in\n    tag_609:\n        /* \"#utility.yul\":4961:5100   */\n      swap3\n      swap2\n      pop\n      pop\n      jump\t// out\n        /* \"#utility.yul\":5106:5223   */\n    tag_483:\n        /* \"#utility.yul\":5215:5216   */\n      0x00\n        /* \"#utility.yul\":5212:5213   */\n      dup1\n        /* \"#utility.yul\":5205:5217   */\n      revert\n        /* \"#utility.yul\":5229:5346   */\n    tag_484:\n        /* \"#utility.yul\":5338:5339   */\n      0x00\n        /* \"#utility.yul\":5335:5336   */\n      dup1\n        /* \"#utility.yul\":5328:5340   */\n      revert\n        /* \"#utility.yul\":5352:5454   */\n    tag_485:\n        /* \"#utility.yul\":5393:5399   */\n      0x00\n        /* \"#utility.yul\":5444:5446   */\n      0x1f\n        /* \"#utility.yul\":5440:5447   */\n      not\n        /* \"#utility.yul\":5435:5437   */\n      0x1f\n        /* \"#utility.yul\":5428:5433   */\n      dup4\n        /* \"#utility.yul\":5424:5438   */\n      add\n        /* \"#utility.yul\":5420:5448   */\n      and\n        /* \"#utility.yul\":5410:5448   */\n      swap1\n      pop\n        /* \"#utility.yul\":5352:5454   */\n      swap2\n      swap1\n      pop\n      jump\t// out\n        /* \"#utility.yul\":5460:5640   */\n    tag_156:\n        /* \"#utility.yul\":5508:5585   */\n      0x4e487b7100000000000000000000000000000000000000000000000000000000\n        /* \"#utility.yul\":5505:5506   */\n      0x00\n        /* \"#utility.yul\":5498:5586   */\n      mstore\n        /* \"#utility.yul\":5605:5609   */\n      0x41\n        /* \"#utility.yul\":5602:5603   */\n      0x04\n        /* \"#utility.yul\":5595:5610   */\n      mstore\n        /* \"#utility.yul\":5629:5633   */\n      0x24\n        /* \"#utility.yul\":5626:5627   */\n      0x00\n        /* \"#utility.yul\":5619:5634   */\n      revert\n        /* \"#utility.yul\":5646:5927   */\n    tag_486:\n        /* \"#utility.yul\":5729:5756   */\n      tag_615\n        /* \"#utility.yul\":5751:5755   */\n      dup3\n        /* \"#utility.yul\":5729:5756   */\n      tag_485\n      jump\t// in\n    tag_615:\n        /* \"#utility.yul\":5721:5727   */\n      dup2\n        /* \"#utility.yul\":5717:5757   */\n      add\n        /* \"#utility.yul\":5859:5865   */\n      dup2\n        /* \"#utility.yul\":5847:5857   */\n      dup2\n        /* \"#utility.yul\":5844:5866   */\n      lt\n        /* \"#utility.yul\":5823:5841   */\n      0xffffffffffffffff\n        /* \"#utility.yul\":5811:5821   */\n      dup3\n        /* \"#utility.yul\":5808:5842   */\n      gt\n        /* \"#utility.yul\":5805:5867   */\n      or\n        /* \"#utility.yul\":5802:5890   */\n      iszero\n      tag_616\n      jumpi\n        /* \"#utility.yul\":5870:5888   */\n      tag_617\n      tag_156\n      jump\t// in\n    tag_617:\n        /* \"#utility.yul\":5802:5890   */\n    tag_616:\n        /* \"#utility.yul\":5910:5920   */\n      dup1\n        /* \"#utility.yul\":5906:5908   */\n      0x40\n        /* \"#utility.yul\":5899:5921   */\n      mstore\n        /* \"#utility.yul\":5689:5927   */\n      pop\n        /* \"#utility.yul\":5646:5927   */\n      pop\n      pop\n      jump\t// out\n        /* \"#utility.yul\":5933:6062   */\n    tag_487:\n        /* \"#utility.yul\":5967:5973   */\n      0x00\n        /* \"#utility.yul\":5994:6014   */\n      tag_619\n      tag_466\n      jump\t// in\n    tag_619:\n        /* \"#utility.yul\":5984:6014   */\n      swap1\n      pop\n        /* \"#utility.yul\":6023:6056   */\n      tag_620\n        /* \"#utility.yul\":6051:6055   */\n      dup3\n        /* \"#utility.yul\":6043:6049   */\n      dup3\n        /* \"#utility.yul\":6023:6056   */\n      tag_486\n      jump\t// in\n    tag_620:\n        /* \"#utility.yul\":5933:6062   */\n      swap2\n      swap1\n      pop\n      jump\t// out\n        /* \"#utility.yul\":6068:6375   */\n    tag_488:\n        /* \"#utility.yul\":6129:6133   */\n      0x00\n        /* \"#utility.yul\":6219:6237   */\n      0xffffffffffffffff\n        /* \"#utility.yul\":6211:6217   */\n      dup3\n        /* \"#utility.yul\":6208:6238   */\n      gt\n        /* \"#utility.yul\":6205:6261   */\n      iszero\n      tag_622\n      jumpi\n        /* \"#utility.yul\":6241:6259   */\n      tag_623\n      tag_156\n      jump\t// in\n    tag_623:\n        /* \"#utility.yul\":6205:6261   */\n    tag_622:\n        /* \"#utility.yul\":6279:6308   */\n      tag_624\n        /* \"#utility.yul\":6301:6307   */\n      dup3\n        /* \"#utility.yul\":6279:6308   */\n      tag_485\n      jump\t// in\n    tag_624:\n        /* \"#utility.yul\":6271:6308   */\n      swap1\n      pop\n        /* \"#utility.yul\":6363:6367   */\n      0x20\n        /* \"#utility.yul\":6357:6361   */\n      dup2\n        /* \"#utility.yul\":6353:6368   */\n      add\n        /* \"#utility.yul\":6345:6368   */\n      swap1\n      pop\n        /* \"#utility.yul\":6068:6375   */\n      swap2\n      swap1\n      pop\n      jump\t// out\n        /* \"#utility.yul\":6381:6529   */\n    tag_489:\n        /* \"#utility.yul\":6479:6485   */\n      dup3\n        /* \"#utility.yul\":6474:6477   */\n      dup2\n        /* \"#utility.yul\":6469:6472   */\n      dup4\n        /* \"#utility.yul\":6456:6486   */\n      calldatacopy\n        /* \"#utility.yul\":6520:6521   */\n      0x00\n        /* \"#utility.yul\":6511:6517   */\n      dup4\n        /* \"#utility.yul\":6506:6509   */\n      dup4\n        /* \"#utility.yul\":6502:6518   */\n      add\n        /* \"#utility.yul\":6495:6522   */\n      mstore\n        /* \"#utility.yul\":6381:6529   */\n      pop\n      pop\n      pop\n      jump\t// out\n        /* \"#utility.yul\":6535:6958   */\n    tag_490:\n        /* \"#utility.yul\":6612:6617   */\n      0x00\n        /* \"#utility.yul\":6637:6702   */\n      tag_627\n        /* \"#utility.yul\":6653:6701   */\n      tag_628\n        /* \"#utility.yul\":6694:6700   */\n      dup5\n        /* \"#utility.yul\":6653:6701   */\n      tag_488\n      jump\t// in\n    tag_628:\n        /* \"#utility.yul\":6637:6702   */\n      tag_487\n      jump\t// in\n    tag_627:\n        /* \"#utility.yul\":6628:6702   */\n      swap1\n      pop\n        /* \"#utility.yul\":6725:6731   */\n      dup3\n        /* \"#utility.yul\":6718:6723   */\n      dup2\n        /* \"#utility.yul\":6711:6732   */\n      mstore\n        /* \"#utility.yul\":6763:6767   */\n      0x20\n        /* \"#utility.yul\":6756:6761   */\n      dup2\n        /* \"#utility.yul\":6752:6768   */\n      add\n        /* \"#utility.yul\":6801:6804   */\n      dup5\n        /* \"#utility.yul\":6792:6798   */\n      dup5\n        /* \"#utility.yul\":6787:6790   */\n      dup5\n        /* \"#utility.yul\":6783:6799   */\n      add\n        /* \"#utility.yul\":6780:6805   */\n      gt\n        /* \"#utility.yul\":6777:6889   */\n      iszero\n      tag_629\n      jumpi\n        /* \"#utility.yul\":6808:6887   */\n      tag_630\n      tag_484\n      jump\t// in\n    tag_630:\n        /* \"#utility.yul\":6777:6889   */\n    tag_629:\n        /* \"#utility.yul\":6898:6952   */\n      tag_631\n        /* \"#utility.yul\":6945:6951   */\n      dup5\n        /* \"#utility.yul\":6940:6943   */\n      dup3\n        /* \"#utility.yul\":6935:6938   */\n      dup6\n        /* \"#utility.yul\":6898:6952   */\n      tag_489\n      jump\t// in\n    tag_631:\n        /* \"#utility.yul\":6618:6958   */\n      pop\n        /* \"#utility.yul\":6535:6958   */\n      swap4\n      swap3\n      pop\n      pop\n      pop\n      jump\t// out\n        /* \"#utility.yul\":6977:7315   */\n    tag_491:\n        /* \"#utility.yul\":7032:7037   */\n      0x00\n        /* \"#utility.yul\":7081:7084   */\n      dup3\n        /* \"#utility.yul\":7074:7078   */\n      0x1f\n        /* \"#utility.yul\":7066:7072   */\n      dup4\n        /* \"#utility.yul\":7062:7079   */\n      add\n        /* \"#utility.yul\":7058:7085   */\n      slt\n        /* \"#utility.yul\":7048:7170   */\n      tag_633\n      jumpi\n        /* \"#utility.yul\":7089:7168   */\n      tag_634\n      tag_483\n      jump\t// in\n    tag_634:\n        /* \"#utility.yul\":7048:7170   */\n    tag_633:\n        /* \"#utility.yul\":7206:7212   */\n      dup2\n        /* \"#utility.yul\":7193:7213   */\n      calldataload\n        /* \"#utility.yul\":7231:7309   */\n      tag_635\n        /* \"#utility.yul\":7305:7308   */\n      dup5\n        /* \"#utility.yul\":7297:7303   */\n      dup3\n        /* \"#utility.yul\":7290:7294   */\n      0x20\n        /* \"#utility.yul\":7282:7288   */\n      dup7\n        /* \"#utility.yul\":7278:7295   */\n      add\n        /* \"#utility.yul\":7231:7309   */\n      tag_490\n      jump\t// in\n    tag_635:\n        /* \"#utility.yul\":7222:7309   */\n      swap2\n      pop\n        /* \"#utility.yul\":7038:7315   */\n      pop\n        /* \"#utility.yul\":6977:7315   */\n      swap3\n      swap2\n      pop\n      pop\n      jump\t// out\n        /* \"#utility.yul\":7321:7973   */\n    tag_44:\n        /* \"#utility.yul\":7398:7404   */\n      0x00\n        /* \"#utility.yul\":7406:7412   */\n      dup1\n        /* \"#utility.yul\":7455:7457   */\n      0x40\n        /* \"#utility.yul\":7443:7452   */\n      dup4\n        /* \"#utility.yul\":7434:7441   */\n      dup6\n        /* \"#utility.yul\":7430:7453   */\n      sub\n        /* \"#utility.yul\":7426:7458   */\n      slt\n        /* \"#utility.yul\":7423:7542   */\n      iszero\n      tag_637\n      jumpi\n        /* \"#utility.yul\":7461:7540   */\n      tag_638\n      tag_467\n      jump\t// in\n    tag_638:\n        /* \"#utility.yul\":7423:7542   */\n    tag_637:\n        /* \"#utility.yul\":7581:7582   */\n      0x00\n        /* \"#utility.yul\":7606:7659   */\n      tag_639\n        /* \"#utility.yul\":7651:7658   */\n      dup6\n        /* \"#utility.yul\":7642:7648   */\n      dup3\n        /* \"#utility.yul\":7631:7640   */\n      dup7\n        /* \"#utility.yul\":7627:7649   */\n      add\n        /* \"#utility.yul\":7606:7659   */\n      tag_482\n      jump\t// in\n    tag_639:\n        /* \"#utility.yul\":7596:7659   */\n      swap3\n      pop\n        /* \"#utility.yul\":7552:7669   */\n      pop\n        /* \"#utility.yul\":7736:7738   */\n      0x20\n        /* \"#utility.yul\":7725:7734   */\n      dup4\n        /* \"#utility.yul\":7721:7739   */\n      add\n        /* \"#utility.yul\":7708:7740   */\n      calldataload\n        /* \"#utility.yul\":7767:7785   */\n      0xffffffffffffffff\n        /* \"#utility.yul\":7759:7765   */\n      dup2\n        /* \"#utility.yul\":7756:7786   */\n      gt\n        /* \"#utility.yul\":7753:7870   */\n      iszero\n      tag_640\n      jumpi\n        /* \"#utility.yul\":7789:7868   */\n      tag_641\n      tag_468\n      jump\t// in\n    tag_641:\n        /* \"#utility.yul\":7753:7870   */\n    tag_640:\n        /* \"#utility.yul\":7894:7956   */\n      tag_642\n        /* \"#utility.yul\":7948:7955   */\n      dup6\n        /* \"#utility.yul\":7939:7945   */\n      dup3\n        /* \"#utility.yul\":7928:7937   */\n      dup7\n        /* \"#utility.yul\":7924:7946   */\n      add\n        /* \"#utility.yul\":7894:7956   */\n      tag_491\n      jump\t// in\n    tag_642:\n        /* \"#utility.yul\":7884:7956   */\n      swap2\n      pop\n        /* \"#utility.yul\":7679:7966   */\n      pop\n        /* \"#utility.yul\":7321:7973   */\n      swap3\n      pop\n      swap3\n      swap1\n      pop\n      jump\t// out\n        /* \"#utility.yul\":7979:8056   */\n    tag_492:\n        /* \"#utility.yul\":8016:8023   */\n      0x00\n        /* \"#utility.yul\":8045:8050   */\n      dup2\n        /* \"#utility.yul\":8034:8050   */\n      swap1\n      pop\n        /* \"#utility.yul\":7979:8056   */\n      swap2\n      swap1\n      pop\n      jump\t// out\n        /* \"#utility.yul\":8062:8180   */\n    tag_493:\n        /* \"#utility.yul\":8149:8173   */\n      tag_645\n        /* \"#utility.yul\":8167:8172   */\n      dup2\n        /* \"#utility.yul\":8149:8173   */\n      tag_492\n      jump\t// in\n    tag_645:\n        /* \"#utility.yul\":8144:8147   */\n      dup3\n        /* \"#utility.yul\":8137:8174   */\n      mstore\n        /* \"#utility.yul\":8062:8180   */\n      pop\n      pop\n      jump\t// out\n        /* \"#utility.yul\":8186:8408   */\n    tag_50:\n        /* \"#utility.yul\":8279:8283   */\n      0x00\n        /* \"#utility.yul\":8317:8319   */\n      0x20\n        /* \"#utility.yul\":8306:8315   */\n      dup3\n        /* \"#utility.yul\":8302:8320   */\n      add\n        /* \"#utility.yul\":8294:8320   */\n      swap1\n      pop\n        /* \"#utility.yul\":8330:8401   */\n      tag_647\n        /* \"#utility.yul\":8398:8399   */\n      0x00\n        /* \"#utility.yul\":8387:8396   */\n      dup4\n        /* \"#utility.yul\":8383:8400   */\n      add\n        /* \"#utility.yul\":8374:8380   */\n      dup5\n        /* \"#utility.yul\":8330:8401   */\n      tag_493\n      jump\t// in\n    tag_647:\n        /* \"#utility.yul\":8186:8408   */\n      swap3\n      swap2\n      pop\n      pop\n      jump\t// out\n        /* \"#utility.yul\":8414:9033   */\n    tag_54:\n        /* \"#utility.yul\":8491:8497   */\n      0x00\n        /* \"#utility.yul\":8499:8505   */\n      dup1\n        /* \"#utility.yul\":8507:8513   */\n      0x00\n        /* \"#utility.yul\":8556:8558   */\n      0x60\n        /* \"#utility.yul\":8544:8553   */\n      dup5\n        /* \"#utility.yul\":8535:8542   */\n      dup7\n        /* \"#utility.yul\":8531:8554   */\n      sub\n        /* \"#utility.yul\":8527:8559   */\n      slt\n        /* \"#utility.yul\":8524:8643   */\n      iszero\n      tag_649\n      jumpi\n        /* \"#utility.yul\":8562:8641   */\n      tag_650\n      tag_467\n      jump\t// in\n    tag_650:\n        /* \"#utility.yul\":8524:8643   */\n    tag_649:\n        /* \"#utility.yul\":8682:8683   */\n      0x00\n        /* \"#utility.yul\":8707:8760   */\n      tag_651\n        /* \"#utility.yul\":8752:8759   */\n      dup7\n        /* \"#utility.yul\":8743:8749   */\n      dup3\n        /* \"#utility.yul\":8732:8741   */\n      dup8\n        /* \"#utility.yul\":8728:8750   */\n      add\n        /* \"#utility.yul\":8707:8760   */\n      tag_471\n      jump\t// in\n    tag_651:\n        /* \"#utility.yul\":8697:8760   */\n      swap4\n      pop\n        /* \"#utility.yul\":8653:8770   */\n      pop\n        /* \"#utility.yul\":8809:8811   */\n      0x20\n        /* \"#utility.yul\":8835:8888   */\n      tag_652\n        /* \"#utility.yul\":8880:8887   */\n      dup7\n        /* \"#utility.yul\":8871:8877   */\n      dup3\n        /* \"#utility.yul\":8860:8869   */\n      dup8\n        /* \"#utility.yul\":8856:8878   */\n      add\n        /* \"#utility.yul\":8835:8888   */\n      tag_471\n      jump\t// in\n    tag_652:\n        /* \"#utility.yul\":8825:8888   */\n      swap3\n      pop\n        /* \"#utility.yul\":8780:8898   */\n      pop\n        /* \"#utility.yul\":8937:8939   */\n      0x40\n        /* \"#utility.yul\":8963:9016   */\n      tag_653\n        /* \"#utility.yul\":9008:9015   */\n      dup7\n        /* \"#utility.yul\":8999:9005   */\n      dup3\n        /* \"#utility.yul\":8988:8997   */\n      dup8\n        /* \"#utility.yul\":8984:9006   */\n      add\n        /* \"#utility.yul\":8963:9016   */\n      tag_482\n      jump\t// in\n    tag_653:\n        /* \"#utility.yul\":8953:9016   */\n      swap2\n      pop\n        /* \"#utility.yul\":8908:9026   */\n      pop\n        /* \"#utility.yul\":8414:9033   */\n      swap3\n      pop\n      swap3\n      pop\n      swap3\n      jump\t// out\n        /* \"#utility.yul\":9039:9129   */\n    tag_494:\n        /* \"#utility.yul\":9073:9080   */\n      0x00\n        /* \"#utility.yul\":9116:9121   */\n      dup2\n        /* \"#utility.yul\":9109:9122   */\n      iszero\n        /* \"#utility.yul\":9102:9123   */\n      iszero\n        /* \"#utility.yul\":9091:9123   */\n      swap1\n      pop\n        /* \"#utility.yul\":9039:9129   */\n      swap2\n      swap1\n      pop\n      jump\t// out\n        /* \"#utility.yul\":9135:9244   */\n    tag_495:\n        /* \"#utility.yul\":9216:9237   */\n      tag_656\n        /* \"#utility.yul\":9231:9236   */\n      dup2\n        /* \"#utility.yul\":9216:9237   */\n      tag_494\n      jump\t// in\n    tag_656:\n        /* \"#utility.yul\":9211:9214   */\n      dup3\n        /* \"#utility.yul\":9204:9238   */\n      mstore\n        /* \"#utility.yul\":9135:9244   */\n      pop\n      pop\n      jump\t// out\n        /* \"#utility.yul\":9250:9460   */\n    tag_57:\n        /* \"#utility.yul\":9337:9341   */\n      0x00\n        /* \"#utility.yul\":9375:9377   */\n      0x20\n        /* \"#utility.yul\":9364:9373   */\n      dup3\n        /* \"#utility.yul\":9360:9378   */\n      add\n        /* \"#utility.yul\":9352:9378   */\n      swap1\n      pop\n        /* \"#utility.yul\":9388:9453   */\n      tag_658\n        /* \"#utility.yul\":9450:9451   */\n      0x00\n        /* \"#utility.yul\":9439:9448   */\n      dup4\n        /* \"#utility.yul\":9435:9452   */\n      add\n        /* \"#utility.yul\":9426:9432   */\n      dup5\n        /* \"#utility.yul\":9388:9453   */\n      tag_495\n      jump\t// in\n    tag_658:\n        /* \"#utility.yul\":9250:9460   */\n      swap3\n      swap2\n      pop\n      pop\n      jump\t// out\n        /* \"#utility.yul\":9466:9777   */\n    tag_496:\n        /* \"#utility.yul\":9543:9547   */\n      0x00\n        /* \"#utility.yul\":9633:9651   */\n      0xffffffffffffffff\n        /* \"#utility.yul\":9625:9631   */\n      dup3\n        /* \"#utility.yul\":9622:9652   */\n      gt\n        /* \"#utility.yul\":9619:9675   */\n      iszero\n      tag_660\n      jumpi\n        /* \"#utility.yul\":9655:9673   */\n      tag_661\n      tag_156\n      jump\t// in\n    tag_661:\n        /* \"#utility.yul\":9619:9675   */\n    tag_660:\n        /* \"#utility.yul\":9705:9709   */\n      0x20\n        /* \"#utility.yul\":9697:9703   */\n      dup3\n        /* \"#utility.yul\":9693:9710   */\n      mul\n        /* \"#utility.yul\":9685:9710   */\n      swap1\n      pop\n        /* \"#utility.yul\":9765:9769   */\n      0x20\n        /* \"#utility.yul\":9759:9763   */\n      dup2\n        /* \"#utility.yul\":9755:9770   */\n      add\n        /* \"#utility.yul\":9747:9770   */\n      swap1\n      pop\n        /* \"#utility.yul\":9466:9777   */\n      swap2\n      swap1\n      pop\n      jump\t// out\n        /* \"#utility.yul\":9783:9900   */\n    tag_497:\n        /* \"#utility.yul\":9892:9893   */\n      0x00\n        /* \"#utility.yul\":9889:9890   */\n      dup1\n        /* \"#utility.yul\":9882:9894   */\n      revert\n        /* \"#utility.yul\":9923:10633   */\n    tag_498:\n        /* \"#utility.yul\":10019:10024   */\n      0x00\n        /* \"#utility.yul\":10044:10125   */\n      tag_664\n        /* \"#utility.yul\":10060:10124   */\n      tag_665\n        /* \"#utility.yul\":10117:10123   */\n      dup5\n        /* \"#utility.yul\":10060:10124   */\n      tag_496\n      jump\t// in\n    tag_665:\n        /* \"#utility.yul\":10044:10125   */\n      tag_487\n      jump\t// in\n    tag_664:\n        /* \"#utility.yul\":10035:10125   */\n      swap1\n      pop\n        /* \"#utility.yul\":10145:10150   */\n      dup1\n        /* \"#utility.yul\":10174:10180   */\n      dup4\n        /* \"#utility.yul\":10167:10172   */\n      dup3\n        /* \"#utility.yul\":10160:10181   */\n      mstore\n        /* \"#utility.yul\":10208:10212   */\n      0x20\n        /* \"#utility.yul\":10201:10206   */\n      dup3\n        /* \"#utility.yul\":10197:10213   */\n      add\n        /* \"#utility.yul\":10190:10213   */\n      swap1\n      pop\n        /* \"#utility.yul\":10261:10265   */\n      0x20\n        /* \"#utility.yul\":10253:10259   */\n      dup5\n        /* \"#utility.yul\":10249:10266   */\n      mul\n        /* \"#utility.yul\":10241:10247   */\n      dup4\n        /* \"#utility.yul\":10237:10267   */\n      add\n        /* \"#utility.yul\":10290:10293   */\n      dup6\n        /* \"#utility.yul\":10282:10288   */\n      dup2\n        /* \"#utility.yul\":10279:10294   */\n      gt\n        /* \"#utility.yul\":10276:10398   */\n      iszero\n      tag_666\n      jumpi\n        /* \"#utility.yul\":10309:10388   */\n      tag_667\n      tag_497\n      jump\t// in\n    tag_667:\n        /* \"#utility.yul\":10276:10398   */\n    tag_666:\n        /* \"#utility.yul\":10424:10430   */\n      dup4\n        /* \"#utility.yul\":10407:10627   */\n    tag_668:\n        /* \"#utility.yul\":10441:10447   */\n      dup2\n        /* \"#utility.yul\":10436:10439   */\n      dup2\n        /* \"#utility.yul\":10433:10448   */\n      lt\n        /* \"#utility.yul\":10407:10627   */\n      iszero\n      tag_670\n      jumpi\n        /* \"#utility.yul\":10516:10519   */\n      dup1\n        /* \"#utility.yul\":10545:10582   */\n      tag_671\n        /* \"#utility.yul\":10578:10581   */\n      dup9\n        /* \"#utility.yul\":10566:10576   */\n      dup3\n        /* \"#utility.yul\":10545:10582   */\n      tag_482\n      jump\t// in\n    tag_671:\n        /* \"#utility.yul\":10540:10543   */\n      dup5\n        /* \"#utility.yul\":10533:10583   */\n      mstore\n        /* \"#utility.yul\":10612:10616   */\n      0x20\n        /* \"#utility.yul\":10607:10610   */\n      dup5\n        /* \"#utility.yul\":10603:10617   */\n      add\n        /* \"#utility.yul\":10596:10617   */\n      swap4\n      pop\n        /* \"#utility.yul\":10483:10627   */\n      pop\n        /* \"#utility.yul\":10467:10471   */\n      0x20\n        /* \"#utility.yul\":10462:10465   */\n      dup2\n        /* \"#utility.yul\":10458:10472   */\n      add\n        /* \"#utility.yul\":10451:10472   */\n      swap1\n      pop\n        /* \"#utility.yul\":10407:10627   */\n      jump(tag_668)\n    tag_670:\n        /* \"#utility.yul\":10411:10432   */\n      pop\n        /* \"#utility.yul\":10025:10633   */\n      pop\n      pop\n        /* \"#utility.yul\":9923:10633   */\n      swap4\n      swap3\n      pop\n      pop\n      pop\n      jump\t// out\n        /* \"#utility.yul\":10656:11026   */\n    tag_499:\n        /* \"#utility.yul\":10727:10732   */\n      0x00\n        /* \"#utility.yul\":10776:10779   */\n      dup3\n        /* \"#utility.yul\":10769:10773   */\n      0x1f\n        /* \"#utility.yul\":10761:10767   */\n      dup4\n        /* \"#utility.yul\":10757:10774   */\n      add\n        /* \"#utility.yul\":10753:10780   */\n      slt\n        /* \"#utility.yul\":10743:10865   */\n      tag_673\n      jumpi\n        /* \"#utility.yul\":10784:10863   */\n      tag_674\n      tag_483\n      jump\t// in\n    tag_674:\n        /* \"#utility.yul\":10743:10865   */\n    tag_673:\n        /* \"#utility.yul\":10901:10907   */\n      dup2\n        /* \"#utility.yul\":10888:10908   */\n      calldataload\n        /* \"#utility.yul\":10926:11020   */\n      tag_675\n        /* \"#utility.yul\":11016:11019   */\n      dup5\n        /* \"#utility.yul\":11008:11014   */\n      dup3\n        /* \"#utility.yul\":11001:11005   */\n      0x20\n        /* \"#utility.yul\":10993:10999   */\n      dup7\n        /* \"#utility.yul\":10989:11006   */\n      add\n        /* \"#utility.yul\":10926:11020   */\n      tag_498\n      jump\t// in\n    tag_675:\n        /* \"#utility.yul\":10917:11020   */\n      swap2\n      pop\n        /* \"#utility.yul\":10733:11026   */\n      pop\n        /* \"#utility.yul\":10656:11026   */\n      swap3\n      swap2\n      pop\n      pop\n      jump\t// out\n        /* \"#utility.yul\":11032:11716   */\n    tag_61:\n        /* \"#utility.yul\":11125:11131   */\n      0x00\n        /* \"#utility.yul\":11133:11139   */\n      dup1\n        /* \"#utility.yul\":11182:11184   */\n      0x40\n        /* \"#utility.yul\":11170:11179   */\n      dup4\n        /* \"#utility.yul\":11161:11168   */\n      dup6\n        /* \"#utility.yul\":11157:11180   */\n      sub\n        /* \"#utility.yul\":11153:11185   */\n      slt\n        /* \"#utility.yul\":11150:11269   */\n      iszero\n      tag_677\n      jumpi\n        /* \"#utility.yul\":11188:11267   */\n      tag_678\n      tag_467\n      jump\t// in\n    tag_678:\n        /* \"#utility.yul\":11150:11269   */\n    tag_677:\n        /* \"#utility.yul\":11308:11309   */\n      0x00\n        /* \"#utility.yul\":11333:11386   */\n      tag_679\n        /* \"#utility.yul\":11378:11385   */\n      dup6\n        /* \"#utility.yul\":11369:11375   */\n      dup3\n        /* \"#utility.yul\":11358:11367   */\n      dup7\n        /* \"#utility.yul\":11354:11376   */\n      add\n        /* \"#utility.yul\":11333:11386   */\n      tag_471\n      jump\t// in\n    tag_679:\n        /* \"#utility.yul\":11323:11386   */\n      swap3\n      pop\n        /* \"#utility.yul\":11279:11396   */\n      pop\n        /* \"#utility.yul\":11463:11465   */\n      0x20\n        /* \"#utility.yul\":11452:11461   */\n      dup4\n        /* \"#utility.yul\":11448:11466   */\n      add\n        /* \"#utility.yul\":11435:11467   */\n      calldataload\n        /* \"#utility.yul\":11494:11512   */\n      0xffffffffffffffff\n        /* \"#utility.yul\":11486:11492   */\n      dup2\n        /* \"#utility.yul\":11483:11513   */\n      gt\n        /* \"#utility.yul\":11480:11597   */\n      iszero\n      tag_680\n      jumpi\n        /* \"#utility.yul\":11516:11595   */\n      tag_681\n      tag_468\n      jump\t// in\n    tag_681:\n        /* \"#utility.yul\":11480:11597   */\n    tag_680:\n        /* \"#utility.yul\":11621:11699   */\n      tag_682\n        /* \"#utility.yul\":11691:11698   */\n      dup6\n        /* \"#utility.yul\":11682:11688   */\n      dup3\n        /* \"#utility.yul\":11671:11680   */\n      dup7\n        /* \"#utility.yul\":11667:11689   */\n      add\n        /* \"#utility.yul\":11621:11699   */\n      tag_499\n      jump\t// in\n    tag_682:\n        /* \"#utility.yul\":11611:11699   */\n      swap2\n      pop\n        /* \"#utility.yul\":11406:11709   */\n      pop\n        /* \"#utility.yul\":11032:11716   */\n      swap3\n      pop\n      swap3\n      swap1\n      pop\n      jump\t// out\n        /* \"#utility.yul\":11722:11840   */\n    tag_500:\n        /* \"#utility.yul\":11809:11833   */\n      tag_684\n        /* \"#utility.yul\":11827:11832   */\n      dup2\n        /* \"#utility.yul\":11809:11833   */\n      tag_476\n      jump\t// in\n    tag_684:\n        /* \"#utility.yul\":11804:11807   */\n      dup3\n        /* \"#utility.yul\":11797:11834   */\n      mstore\n        /* \"#utility.yul\":11722:11840   */\n      pop\n      pop\n      jump\t// out\n        /* \"#utility.yul\":11846:12068   */\n    tag_70:\n        /* \"#utility.yul\":11939:11943   */\n      0x00\n        /* \"#utility.yul\":11977:11979   */\n      0x20\n        /* \"#utility.yul\":11966:11975   */\n      dup3\n        /* \"#utility.yul\":11962:11980   */\n      add\n        /* \"#utility.yul\":11954:11980   */\n      swap1\n      pop\n        /* \"#utility.yul\":11990:12061   */\n      tag_686\n        /* \"#utility.yul\":12058:12059   */\n      0x00\n        /* \"#utility.yul\":12047:12056   */\n      dup4\n        /* \"#utility.yul\":12043:12060   */\n      add\n        /* \"#utility.yul\":12034:12040   */\n      dup5\n        /* \"#utility.yul\":11990:12061   */\n      tag_500\n      jump\t// in\n    tag_686:\n        /* \"#utility.yul\":11846:12068   */\n      swap3\n      swap2\n      pop\n      pop\n      jump\t// out\n        /* \"#utility.yul\":12074:12254   */\n    tag_238:\n        /* \"#utility.yul\":12122:12199   */\n      0x4e487b7100000000000000000000000000000000000000000000000000000000\n        /* \"#utility.yul\":12119:12120   */\n      0x00\n        /* \"#utility.yul\":12112:12200   */\n      mstore\n        /* \"#utility.yul\":12219:12223   */\n      0x21\n        /* \"#utility.yul\":12216:12217   */\n      0x04\n        /* \"#utility.yul\":12209:12224   */\n      mstore\n        /* \"#utility.yul\":12243:12247   */\n      0x24\n        /* \"#utility.yul\":12240:12241   */\n      0x00\n        /* \"#utility.yul\":12233:12248   */\n      revert\n        /* \"#utility.yul\":12260:12382   */\n    tag_501:\n        /* \"#utility.yul\":12350:12351   */\n      0x03\n        /* \"#utility.yul\":12343:12348   */\n      dup2\n        /* \"#utility.yul\":12340:12352   */\n      lt\n        /* \"#utility.yul\":12330:12376   */\n      tag_689\n      jumpi\n        /* \"#utility.yul\":12356:12374   */\n      tag_690\n      tag_238\n      jump\t// in\n    tag_690:\n        /* \"#utility.yul\":12330:12376   */\n    tag_689:\n        /* \"#utility.yul\":12260:12382   */\n      pop\n      jump\t// out\n        /* \"#utility.yul\":12388:12533   */\n    tag_502:\n        /* \"#utility.yul\":12442:12449   */\n      0x00\n        /* \"#utility.yul\":12471:12476   */\n      dup2\n        /* \"#utility.yul\":12460:12476   */\n      swap1\n      pop\n        /* \"#utility.yul\":12477:12527   */\n      tag_692\n        /* \"#utility.yul\":12521:12526   */\n      dup3\n        /* \"#utility.yul\":12477:12527   */\n      tag_501\n      jump\t// in\n    tag_692:\n        /* \"#utility.yul\":12388:12533   */\n      swap2\n      swap1\n      pop\n      jump\t// out\n        /* \"#utility.yul\":12539:12684   */\n    tag_503:\n        /* \"#utility.yul\":12604:12613   */\n      0x00\n        /* \"#utility.yul\":12637:12678   */\n      tag_694\n        /* \"#utility.yul\":12672:12677   */\n      dup3\n        /* \"#utility.yul\":12637:12678   */\n      tag_502\n      jump\t// in\n    tag_694:\n        /* \"#utility.yul\":12624:12678   */\n      swap1\n      pop\n        /* \"#utility.yul\":12539:12684   */\n      swap2\n      swap1\n      pop\n      jump\t// out\n        /* \"#utility.yul\":12690:12851   */\n    tag_504:\n        /* \"#utility.yul\":12792:12844   */\n      tag_696\n        /* \"#utility.yul\":12838:12843   */\n      dup2\n        /* \"#utility.yul\":12792:12844   */\n      tag_503\n      jump\t// in\n    tag_696:\n        /* \"#utility.yul\":12787:12790   */\n      dup3\n        /* \"#utility.yul\":12780:12845   */\n      mstore\n        /* \"#utility.yul\":12690:12851   */\n      pop\n      pop\n      jump\t// out\n        /* \"#utility.yul\":12857:13539   */\n    tag_76:\n        /* \"#utility.yul\":13071:13075   */\n      0x00\n        /* \"#utility.yul\":13109:13112   */\n      0xa0\n        /* \"#utility.yul\":13098:13107   */\n      dup3\n        /* \"#utility.yul\":13094:13113   */\n      add\n        /* \"#utility.yul\":13086:13113   */\n      swap1\n      pop\n        /* \"#utility.yul\":13123:13209   */\n      tag_698\n        /* \"#utility.yul\":13206:13207   */\n      0x00\n        /* \"#utility.yul\":13195:13204   */\n      dup4\n        /* \"#utility.yul\":13191:13208   */\n      add\n        /* \"#utility.yul\":13182:13188   */\n      dup9\n        /* \"#utility.yul\":13123:13209   */\n      tag_504\n      jump\t// in\n    tag_698:\n        /* \"#utility.yul\":13219:13291   */\n      tag_699\n        /* \"#utility.yul\":13287:13289   */\n      0x20\n        /* \"#utility.yul\":13276:13285   */\n      dup4\n        /* \"#utility.yul\":13272:13290   */\n      add\n        /* \"#utility.yul\":13263:13269   */\n      dup8\n        /* \"#utility.yul\":13219:13291   */\n      tag_472\n      jump\t// in\n    tag_699:\n        /* \"#utility.yul\":13301:13373   */\n      tag_700\n        /* \"#utility.yul\":13369:13371   */\n      0x40\n        /* \"#utility.yul\":13358:13367   */\n      dup4\n        /* \"#utility.yul\":13354:13372   */\n      add\n        /* \"#utility.yul\":13345:13351   */\n      dup7\n        /* \"#utility.yul\":13301:13373   */\n      tag_500\n      jump\t// in\n    tag_700:\n        /* \"#utility.yul\":13383:13455   */\n      tag_701\n        /* \"#utility.yul\":13451:13453   */\n      0x60\n        /* \"#utility.yul\":13440:13449   */\n      dup4\n        /* \"#utility.yul\":13436:13454   */\n      add\n        /* \"#utility.yul\":13427:13433   */\n      dup6\n        /* \"#utility.yul\":13383:13455   */\n      tag_472\n      jump\t// in\n    tag_701:\n        /* \"#utility.yul\":13465:13532   */\n      tag_702\n        /* \"#utility.yul\":13527:13530   */\n      0x80\n        /* \"#utility.yul\":13516:13525   */\n      dup4\n        /* \"#utility.yul\":13512:13531   */\n      add\n        /* \"#utility.yul\":13503:13509   */\n      dup5\n        /* \"#utility.yul\":13465:13532   */\n      tag_495\n      jump\t// in\n    tag_702:\n        /* \"#utility.yul\":12857:13539   */\n      swap7\n      swap6\n      pop\n      pop\n      pop\n      pop\n      pop\n      pop\n      jump\t// out\n        /* \"#utility.yul\":13545:13644   */\n    tag_505:\n        /* \"#utility.yul\":13597:13603   */\n      0x00\n        /* \"#utility.yul\":13631:13636   */\n      dup2\n        /* \"#utility.yul\":13625:13637   */\n      mload\n        /* \"#utility.yul\":13615:13637   */\n      swap1\n      pop\n        /* \"#utility.yul\":13545:13644   */\n      swap2\n      swap1\n      pop\n      jump\t// out\n        /* \"#utility.yul\":13650:13819   */\n    tag_506:\n        /* \"#utility.yul\":13734:13745   */\n      0x00\n        /* \"#utility.yul\":13768:13774   */\n      dup3\n        /* \"#utility.yul\":13763:13766   */\n      dup3\n        /* \"#utility.yul\":13756:13775   */\n      mstore\n        /* \"#utility.yul\":13808:13812   */\n      0x20\n        /* \"#utility.yul\":13803:13806   */\n      dup3\n        /* \"#utility.yul\":13799:13813   */\n      add\n        /* \"#utility.yul\":13784:13813   */\n      swap1\n      pop\n        /* \"#utility.yul\":13650:13819   */\n      swap3\n      swap2\n      pop\n      pop\n      jump\t// out\n        /* \"#utility.yul\":13825:13964   */\n    tag_507:\n        /* \"#utility.yul\":13914:13920   */\n      dup3\n        /* \"#utility.yul\":13909:13912   */\n      dup2\n        /* \"#utility.yul\":13904:13907   */\n      dup4\n        /* \"#utility.yul\":13898:13921   */\n      mcopy\n        /* \"#utility.yul\":13955:13956   */\n      0x00\n        /* \"#utility.yul\":13946:13952   */\n      dup4\n        /* \"#utility.yul\":13941:13944   */\n      dup4\n        /* \"#utility.yul\":13937:13953   */\n      add\n        /* \"#utility.yul\":13930:13957   */\n      mstore\n        /* \"#utility.yul\":13825:13964   */\n      pop\n      pop\n      pop\n      jump\t// out\n        /* \"#utility.yul\":13970:14347   */\n    tag_508:\n        /* \"#utility.yul\":14058:14061   */\n      0x00\n        /* \"#utility.yul\":14086:14125   */\n      tag_707\n        /* \"#utility.yul\":14119:14124   */\n      dup3\n        /* \"#utility.yul\":14086:14125   */\n      tag_505\n      jump\t// in\n    tag_707:\n        /* \"#utility.yul\":14141:14212   */\n      tag_708\n        /* \"#utility.yul\":14205:14211   */\n      dup2\n        /* \"#utility.yul\":14200:14203   */\n      dup6\n        /* \"#utility.yul\":14141:14212   */\n      tag_506\n      jump\t// in\n    tag_708:\n        /* \"#utility.yul\":14134:14212   */\n      swap4\n      pop\n        /* \"#utility.yul\":14221:14286   */\n      tag_709\n        /* \"#utility.yul\":14279:14285   */\n      dup2\n        /* \"#utility.yul\":14274:14277   */\n      dup6\n        /* \"#utility.yul\":14267:14271   */\n      0x20\n        /* \"#utility.yul\":14260:14265   */\n      dup7\n        /* \"#utility.yul\":14256:14272   */\n      add\n        /* \"#utility.yul\":14221:14286   */\n      tag_507\n      jump\t// in\n    tag_709:\n        /* \"#utility.yul\":14311:14340   */\n      tag_710\n        /* \"#utility.yul\":14333:14339   */\n      dup2\n        /* \"#utility.yul\":14311:14340   */\n      tag_485\n      jump\t// in\n    tag_710:\n        /* \"#utility.yul\":14306:14309   */\n      dup5\n        /* \"#utility.yul\":14302:14341   */\n      add\n        /* \"#utility.yul\":14295:14341   */\n      swap2\n      pop\n        /* \"#utility.yul\":14062:14347   */\n      pop\n        /* \"#utility.yul\":13970:14347   */\n      swap3\n      swap2\n      pop\n      pop\n      jump\t// out\n        /* \"#utility.yul\":14353:14666   */\n    tag_81:\n        /* \"#utility.yul\":14466:14470   */\n      0x00\n        /* \"#utility.yul\":14504:14506   */\n      0x20\n        /* \"#utility.yul\":14493:14502   */\n      dup3\n        /* \"#utility.yul\":14489:14507   */\n      add\n        /* \"#utility.yul\":14481:14507   */\n      swap1\n      pop\n        /* \"#utility.yul\":14553:14562   */\n      dup2\n        /* \"#utility.yul\":14547:14551   */\n      dup2\n        /* \"#utility.yul\":14543:14563   */\n      sub\n        /* \"#utility.yul\":14539:14540   */\n      0x00\n        /* \"#utility.yul\":14528:14537   */\n      dup4\n        /* \"#utility.yul\":14524:14541   */\n      add\n        /* \"#utility.yul\":14517:14564   */\n      mstore\n        /* \"#utility.yul\":14581:14659   */\n      tag_712\n        /* \"#utility.yul\":14654:14658   */\n      dup2\n        /* \"#utility.yul\":14645:14651   */\n      dup5\n        /* \"#utility.yul\":14581:14659   */\n      tag_508\n      jump\t// in\n    tag_712:\n        /* \"#utility.yul\":14573:14659   */\n      swap1\n      pop\n        /* \"#utility.yul\":14353:14666   */\n      swap3\n      swap2\n      pop\n      pop\n      jump\t// out\n        /* \"#utility.yul\":14672:14788   */\n    tag_509:\n        /* \"#utility.yul\":14762:14763   */\n      0x03\n        /* \"#utility.yul\":14755:14760   */\n      dup2\n        /* \"#utility.yul\":14752:14764   */\n      lt\n        /* \"#utility.yul\":14742:14782   */\n      tag_714\n      jumpi\n        /* \"#utility.yul\":14778:14779   */\n      0x00\n        /* \"#utility.yul\":14775:14776   */\n      dup1\n        /* \"#utility.yul\":14768:14780   */\n      revert\n        /* \"#utility.yul\":14742:14782   */\n    tag_714:\n        /* \"#utility.yul\":14672:14788   */\n      pop\n      jump\t// out\n        /* \"#utility.yul\":14794:14967   */\n    tag_510:\n        /* \"#utility.yul\":14857:14862   */\n      0x00\n        /* \"#utility.yul\":14895:14901   */\n      dup2\n        /* \"#utility.yul\":14882:14902   */\n      calldataload\n        /* \"#utility.yul\":14873:14902   */\n      swap1\n      pop\n        /* \"#utility.yul\":14911:14961   */\n      tag_716\n        /* \"#utility.yul\":14955:14960   */\n      dup2\n        /* \"#utility.yul\":14911:14961   */\n      tag_509\n      jump\t// in\n    tag_716:\n        /* \"#utility.yul\":14794:14967   */\n      swap3\n      swap2\n      pop\n      pop\n      jump\t// out\n        /* \"#utility.yul\":14973:15918   */\n    tag_85:\n        /* \"#utility.yul\":15085:15091   */\n      0x00\n        /* \"#utility.yul\":15093:15099   */\n      dup1\n        /* \"#utility.yul\":15101:15107   */\n      0x00\n        /* \"#utility.yul\":15109:15115   */\n      dup1\n        /* \"#utility.yul\":15117:15123   */\n      0x00\n        /* \"#utility.yul\":15166:15169   */\n      0xa0\n        /* \"#utility.yul\":15154:15163   */\n      dup7\n        /* \"#utility.yul\":15145:15152   */\n      dup9\n        /* \"#utility.yul\":15141:15164   */\n      sub\n        /* \"#utility.yul\":15137:15170   */\n      slt\n        /* \"#utility.yul\":15134:15254   */\n      iszero\n      tag_718\n      jumpi\n        /* \"#utility.yul\":15173:15252   */\n      tag_719\n      tag_467\n      jump\t// in\n    tag_719:\n        /* \"#utility.yul\":15134:15254   */\n    tag_718:\n        /* \"#utility.yul\":15293:15294   */\n      0x00\n        /* \"#utility.yul\":15318:15371   */\n      tag_720\n        /* \"#utility.yul\":15363:15370   */\n      dup9\n        /* \"#utility.yul\":15354:15360   */\n      dup3\n        /* \"#utility.yul\":15343:15352   */\n      dup10\n        /* \"#utility.yul\":15339:15361   */\n      add\n        /* \"#utility.yul\":15318:15371   */\n      tag_471\n      jump\t// in\n    tag_720:\n        /* \"#utility.yul\":15308:15371   */\n      swap6\n      pop\n        /* \"#utility.yul\":15264:15381   */\n      pop\n        /* \"#utility.yul\":15420:15422   */\n      0x20\n        /* \"#utility.yul\":15446:15499   */\n      tag_721\n        /* \"#utility.yul\":15491:15498   */\n      dup9\n        /* \"#utility.yul\":15482:15488   */\n      dup3\n        /* \"#utility.yul\":15471:15480   */\n      dup10\n        /* \"#utility.yul\":15467:15489   */\n      add\n        /* \"#utility.yul\":15446:15499   */\n      tag_471\n      jump\t// in\n    tag_721:\n        /* \"#utility.yul\":15436:15499   */\n      swap5\n      pop\n        /* \"#utility.yul\":15391:15509   */\n      pop\n        /* \"#utility.yul\":15548:15550   */\n      0x40\n        /* \"#utility.yul\":15574:15644   */\n      tag_722\n        /* \"#utility.yul\":15636:15643   */\n      dup9\n        /* \"#utility.yul\":15627:15633   */\n      dup3\n        /* \"#utility.yul\":15616:15625   */\n      dup10\n        /* \"#utility.yul\":15612:15634   */\n      add\n        /* \"#utility.yul\":15574:15644   */\n      tag_510\n      jump\t// in\n    tag_722:\n        /* \"#utility.yul\":15564:15644   */\n      swap4\n      pop\n        /* \"#utility.yul\":15519:15654   */\n      pop\n        /* \"#utility.yul\":15693:15695   */\n      0x60\n        /* \"#utility.yul\":15719:15772   */\n      tag_723\n        /* \"#utility.yul\":15764:15771   */\n      dup9\n        /* \"#utility.yul\":15755:15761   */\n      dup3\n        /* \"#utility.yul\":15744:15753   */\n      dup10\n        /* \"#utility.yul\":15740:15762   */\n      add\n        /* \"#utility.yul\":15719:15772   */\n      tag_471\n      jump\t// in\n    tag_723:\n        /* \"#utility.yul\":15709:15772   */\n      swap3\n      pop\n        /* \"#utility.yul\":15664:15782   */\n      pop\n        /* \"#utility.yul\":15821:15824   */\n      0x80\n        /* \"#utility.yul\":15848:15901   */\n      tag_724\n        /* \"#utility.yul\":15893:15900   */\n      dup9\n        /* \"#utility.yul\":15884:15890   */\n      dup3\n        /* \"#utility.yul\":15873:15882   */\n      dup10\n        /* \"#utility.yul\":15869:15891   */\n      add\n        /* \"#utility.yul\":15848:15901   */\n      tag_482\n      jump\t// in\n    tag_724:\n        /* \"#utility.yul\":15838:15901   */\n      swap2\n      pop\n        /* \"#utility.yul\":15792:15911   */\n      pop\n        /* \"#utility.yul\":14973:15918   */\n      swap3\n      swap6\n      pop\n      swap3\n      swap6\n      swap1\n      swap4\n      pop\n      jump\t// out\n        /* \"#utility.yul\":15924:16253   */\n    tag_90:\n        /* \"#utility.yul\":15983:15989   */\n      0x00\n        /* \"#utility.yul\":16032:16034   */\n      0x20\n        /* \"#utility.yul\":16020:16029   */\n      dup3\n        /* \"#utility.yul\":16011:16018   */\n      dup5\n        /* \"#utility.yul\":16007:16030   */\n      sub\n        /* \"#utility.yul\":16003:16035   */\n      slt\n        /* \"#utility.yul\":16000:16119   */\n      iszero\n      tag_726\n      jumpi\n        /* \"#utility.yul\":16038:16117   */\n      tag_727\n      tag_467\n      jump\t// in\n    tag_727:\n        /* \"#utility.yul\":16000:16119   */\n    tag_726:\n        /* \"#utility.yul\":16158:16159   */\n      0x00\n        /* \"#utility.yul\":16183:16236   */\n      tag_728\n        /* \"#utility.yul\":16228:16235   */\n      dup5\n        /* \"#utility.yul\":16219:16225   */\n      dup3\n        /* \"#utility.yul\":16208:16217   */\n      dup6\n        /* \"#utility.yul\":16204:16226   */\n      add\n        /* \"#utility.yul\":16183:16236   */\n      tag_482\n      jump\t// in\n    tag_728:\n        /* \"#utility.yul\":16173:16236   */\n      swap2\n      pop\n        /* \"#utility.yul\":16129:16246   */\n      pop\n        /* \"#utility.yul\":15924:16253   */\n      swap3\n      swap2\n      pop\n      pop\n      jump\t// out\n        /* \"#utility.yul\":16259:16481   */\n    tag_105:\n        /* \"#utility.yul\":16352:16356   */\n      0x00\n        /* \"#utility.yul\":16390:16392   */\n      0x20\n        /* \"#utility.yul\":16379:16388   */\n      dup3\n        /* \"#utility.yul\":16375:16393   */\n      add\n        /* \"#utility.yul\":16367:16393   */\n      swap1\n      pop\n        /* \"#utility.yul\":16403:16474   */\n      tag_730\n        /* \"#utility.yul\":16471:16472   */\n      0x00\n        /* \"#utility.yul\":16460:16469   */\n      dup4\n        /* \"#utility.yul\":16456:16473   */\n      add\n        /* \"#utility.yul\":16447:16453   */\n      dup5\n        /* \"#utility.yul\":16403:16474   */\n      tag_472\n      jump\t// in\n    tag_730:\n        /* \"#utility.yul\":16259:16481   */\n      swap3\n      swap2\n      pop\n      pop\n      jump\t// out\n        /* \"#utility.yul\":16487:16655   */\n    tag_511:\n        /* \"#utility.yul\":16579:16588   */\n      0x00\n        /* \"#utility.yul\":16612:16649   */\n      tag_732\n        /* \"#utility.yul\":16643:16648   */\n      dup3\n        /* \"#utility.yul\":16612:16649   */\n      tag_463\n      jump\t// in\n    tag_732:\n        /* \"#utility.yul\":16599:16649   */\n      swap1\n      pop\n        /* \"#utility.yul\":16487:16655   */\n      swap2\n      swap1\n      pop\n      jump\t// out\n        /* \"#utility.yul\":16661:16876   */\n    tag_512:\n        /* \"#utility.yul\":16790:16869   */\n      tag_734\n        /* \"#utility.yul\":16863:16868   */\n      dup2\n        /* \"#utility.yul\":16790:16869   */\n      tag_511\n      jump\t// in\n    tag_734:\n        /* \"#utility.yul\":16785:16788   */\n      dup3\n        /* \"#utility.yul\":16778:16870   */\n      mstore\n        /* \"#utility.yul\":16661:16876   */\n      pop\n      pop\n      jump\t// out\n        /* \"#utility.yul\":16882:17188   */\n    tag_110:\n        /* \"#utility.yul\":17017:17021   */\n      0x00\n        /* \"#utility.yul\":17055:17057   */\n      0x20\n        /* \"#utility.yul\":17044:17053   */\n      dup3\n        /* \"#utility.yul\":17040:17058   */\n      add\n        /* \"#utility.yul\":17032:17058   */\n      swap1\n      pop\n        /* \"#utility.yul\":17068:17181   */\n      tag_736\n        /* \"#utility.yul\":17178:17179   */\n      0x00\n        /* \"#utility.yul\":17167:17176   */\n      dup4\n        /* \"#utility.yul\":17163:17180   */\n      add\n        /* \"#utility.yul\":17154:17160   */\n      dup5\n        /* \"#utility.yul\":17068:17181   */\n      tag_512\n      jump\t// in\n    tag_736:\n        /* \"#utility.yul\":16882:17188   */\n      swap3\n      swap2\n      pop\n      pop\n      jump\t// out\n        /* \"#utility.yul\":17194:17509   */\n    tag_116:\n        /* \"#utility.yul\":17333:17337   */\n      0x00\n        /* \"#utility.yul\":17371:17374   */\n      0xa0\n        /* \"#utility.yul\":17360:17369   */\n      dup3\n        /* \"#utility.yul\":17356:17375   */\n      add\n        /* \"#utility.yul\":17348:17375   */\n      swap1\n      pop\n        /* \"#utility.yul\":17385:17502   */\n      tag_738\n        /* \"#utility.yul\":17499:17500   */\n      0x00\n        /* \"#utility.yul\":17488:17497   */\n      dup4\n        /* \"#utility.yul\":17484:17501   */\n      add\n        /* \"#utility.yul\":17475:17481   */\n      dup5\n        /* \"#utility.yul\":17385:17502   */\n      tag_480\n      jump\t// in\n    tag_738:\n        /* \"#utility.yul\":17194:17509   */\n      swap3\n      swap2\n      pop\n      pop\n      jump\t// out\n        /* \"#utility.yul\":17515:17692   */\n    tag_513:\n        /* \"#utility.yul\":17655:17684   */\n      0x436f6d6d756e697479206d7573742068617665206d656d626572730000000000\n        /* \"#utility.yul\":17651:17652   */\n      0x00\n        /* \"#utility.yul\":17643:17649   */\n      dup3\n        /* \"#utility.yul\":17639:17653   */\n      add\n        /* \"#utility.yul\":17632:17685   */\n      mstore\n        /* \"#utility.yul\":17515:17692   */\n      pop\n      jump\t// out\n        /* \"#utility.yul\":17698:18064   */\n    tag_514:\n        /* \"#utility.yul\":17840:17843   */\n      0x00\n        /* \"#utility.yul\":17861:17928   */\n      tag_741\n        /* \"#utility.yul\":17925:17927   */\n      0x1b\n        /* \"#utility.yul\":17920:17923   */\n      dup4\n        /* \"#utility.yul\":17861:17928   */\n      tag_506\n      jump\t// in\n    tag_741:\n        /* \"#utility.yul\":17854:17928   */\n      swap2\n      pop\n        /* \"#utility.yul\":17937:18030   */\n      tag_742\n        /* \"#utility.yul\":18026:18029   */\n      dup3\n        /* \"#utility.yul\":17937:18030   */\n      tag_513\n      jump\t// in\n    tag_742:\n        /* \"#utility.yul\":18055:18057   */\n      0x20\n        /* \"#utility.yul\":18050:18053   */\n      dup3\n        /* \"#utility.yul\":18046:18058   */\n      add\n        /* \"#utility.yul\":18039:18058   */\n      swap1\n      pop\n        /* \"#utility.yul\":17698:18064   */\n      swap2\n      swap1\n      pop\n      jump\t// out\n        /* \"#utility.yul\":18070:18489   */\n    tag_150:\n        /* \"#utility.yul\":18236:18240   */\n      0x00\n        /* \"#utility.yul\":18274:18276   */\n      0x20\n        /* \"#utility.yul\":18263:18272   */\n      dup3\n        /* \"#utility.yul\":18259:18277   */\n      add\n        /* \"#utility.yul\":18251:18277   */\n      swap1\n      pop\n        /* \"#utility.yul\":18323:18332   */\n      dup2\n        /* \"#utility.yul\":18317:18321   */\n      dup2\n        /* \"#utility.yul\":18313:18333   */\n      sub\n        /* \"#utility.yul\":18309:18310   */\n      0x00\n        /* \"#utility.yul\":18298:18307   */\n      dup4\n        /* \"#utility.yul\":18294:18311   */\n      add\n        /* \"#utility.yul\":18287:18334   */\n      mstore\n        /* \"#utility.yul\":18351:18482   */\n      tag_744\n        /* \"#utility.yul\":18477:18481   */\n      dup2\n        /* \"#utility.yul\":18351:18482   */\n      tag_514\n      jump\t// in\n    tag_744:\n        /* \"#utility.yul\":18343:18482   */\n      swap1\n      pop\n        /* \"#utility.yul\":18070:18489   */\n      swap2\n      swap1\n      pop\n      jump\t// out\n        /* \"#utility.yul\":18495:18675   */\n    tag_515:\n        /* \"#utility.yul\":18635:18667   */\n      0x436f6e747269627574696f6e7320636f6e7472616374206e6f74207365740000\n        /* \"#utility.yul\":18631:18632   */\n      0x00\n        /* \"#utility.yul\":18623:18629   */\n      dup3\n        /* \"#utility.yul\":18619:18633   */\n      add\n        /* \"#utility.yul\":18612:18668   */\n      mstore\n        /* \"#utility.yul\":18495:18675   */\n      pop\n      jump\t// out\n        /* \"#utility.yul\":18681:19047   */\n    tag_516:\n        /* \"#utility.yul\":18823:18826   */\n      0x00\n        /* \"#utility.yul\":18844:18911   */\n      tag_747\n        /* \"#utility.yul\":18908:18910   */\n      0x1e\n        /* \"#utility.yul\":18903:18906   */\n      dup4\n        /* \"#utility.yul\":18844:18911   */\n      tag_506\n      jump\t// in\n    tag_747:\n        /* \"#utility.yul\":18837:18911   */\n      swap2\n      pop\n        /* \"#utility.yul\":18920:19013   */\n      tag_748\n        /* \"#utility.yul\":19009:19012   */\n      dup3\n        /* \"#utility.yul\":18920:19013   */\n      tag_515\n      jump\t// in\n    tag_748:\n        /* \"#utility.yul\":19038:19040   */\n      0x20\n        /* \"#utility.yul\":19033:19036   */\n      dup3\n        /* \"#utility.yul\":19029:19041   */\n      add\n        /* \"#utility.yul\":19022:19041   */\n      swap1\n      pop\n        /* \"#utility.yul\":18681:19047   */\n      swap2\n      swap1\n      pop\n      jump\t// out\n        /* \"#utility.yul\":19053:19472   */\n    tag_153:\n        /* \"#utility.yul\":19219:19223   */\n      0x00\n        /* \"#utility.yul\":19257:19259   */\n      0x20\n        /* \"#utility.yul\":19246:19255   */\n      dup3\n        /* \"#utility.yul\":19242:19260   */\n      add\n        /* \"#utility.yul\":19234:19260   */\n      swap1\n      pop\n        /* \"#utility.yul\":19306:19315   */\n      dup2\n        /* \"#utility.yul\":19300:19304   */\n      dup2\n        /* \"#utility.yul\":19296:19316   */\n      sub\n        /* \"#utility.yul\":19292:19293   */\n      0x00\n        /* \"#utility.yul\":19281:19290   */\n      dup4\n        /* \"#utility.yul\":19277:19294   */\n      add\n        /* \"#utility.yul\":19270:19317   */\n      mstore\n        /* \"#utility.yul\":19334:19465   */\n      tag_750\n        /* \"#utility.yul\":19460:19464   */\n      dup2\n        /* \"#utility.yul\":19334:19465   */\n      tag_516\n      jump\t// in\n    tag_750:\n        /* \"#utility.yul\":19326:19465   */\n      swap1\n      pop\n        /* \"#utility.yul\":19053:19472   */\n      swap2\n      swap1\n      pop\n      jump\t// out\n        /* \"#utility.yul\":19478:19658   */\n    tag_163:\n        /* \"#utility.yul\":19526:19603   */\n      0x4e487b7100000000000000000000000000000000000000000000000000000000\n        /* \"#utility.yul\":19523:19524   */\n      0x00\n        /* \"#utility.yul\":19516:19604   */\n      mstore\n        /* \"#utility.yul\":19623:19627   */\n      0x32\n        /* \"#utility.yul\":19620:19621   */\n      0x04\n        /* \"#utility.yul\":19613:19628   */\n      mstore\n        /* \"#utility.yul\":19647:19651   */\n      0x24\n        /* \"#utility.yul\":19644:19645   */\n      0x00\n        /* \"#utility.yul\":19637:19652   */\n      revert\n        /* \"#utility.yul\":19664:19996   */\n    tag_165:\n        /* \"#utility.yul\":19785:19789   */\n      0x00\n        /* \"#utility.yul\":19823:19825   */\n      0x40\n        /* \"#utility.yul\":19812:19821   */\n      dup3\n        /* \"#utility.yul\":19808:19826   */\n      add\n        /* \"#utility.yul\":19800:19826   */\n      swap1\n      pop\n        /* \"#utility.yul\":19836:19907   */\n      tag_753\n        /* \"#utility.yul\":19904:19905   */\n      0x00\n        /* \"#utility.yul\":19893:19902   */\n      dup4\n        /* \"#utility.yul\":19889:19906   */\n      add\n        /* \"#utility.yul\":19880:19886   */\n      dup6\n        /* \"#utility.yul\":19836:19907   */\n      tag_500\n      jump\t// in\n    tag_753:\n        /* \"#utility.yul\":19917:19989   */\n      tag_754\n        /* \"#utility.yul\":19985:19987   */\n      0x20\n        /* \"#utility.yul\":19974:19983   */\n      dup4\n        /* \"#utility.yul\":19970:19988   */\n      add\n        /* \"#utility.yul\":19961:19967   */\n      dup5\n        /* \"#utility.yul\":19917:19989   */\n      tag_472\n      jump\t// in\n    tag_754:\n        /* \"#utility.yul\":19664:19996   */\n      swap4\n      swap3\n      pop\n      pop\n      pop\n      jump\t// out\n        /* \"#utility.yul\":20002:20145   */\n    tag_517:\n        /* \"#utility.yul\":20059:20064   */\n      0x00\n        /* \"#utility.yul\":20090:20096   */\n      dup2\n        /* \"#utility.yul\":20084:20097   */\n      mload\n        /* \"#utility.yul\":20075:20097   */\n      swap1\n      pop\n        /* \"#utility.yul\":20106:20139   */\n      tag_756\n        /* \"#utility.yul\":20133:20138   */\n      dup2\n        /* \"#utility.yul\":20106:20139   */\n      tag_470\n      jump\t// in\n    tag_756:\n        /* \"#utility.yul\":20002:20145   */\n      swap3\n      swap2\n      pop\n      pop\n      jump\t// out\n        /* \"#utility.yul\":20151:20502   */\n    tag_168:\n        /* \"#utility.yul\":20221:20227   */\n      0x00\n        /* \"#utility.yul\":20270:20272   */\n      0x20\n        /* \"#utility.yul\":20258:20267   */\n      dup3\n        /* \"#utility.yul\":20249:20256   */\n      dup5\n        /* \"#utility.yul\":20245:20268   */\n      sub\n        /* \"#utility.yul\":20241:20273   */\n      slt\n        /* \"#utility.yul\":20238:20357   */\n      iszero\n      tag_758\n      jumpi\n        /* \"#utility.yul\":20276:20355   */\n      tag_759\n      tag_467\n      jump\t// in\n    tag_759:\n        /* \"#utility.yul\":20238:20357   */\n    tag_758:\n        /* \"#utility.yul\":20396:20397   */\n      0x00\n        /* \"#utility.yul\":20421:20485   */\n      tag_760\n        /* \"#utility.yul\":20477:20484   */\n      dup5\n        /* \"#utility.yul\":20468:20474   */\n      dup3\n        /* \"#utility.yul\":20457:20466   */\n      dup6\n        /* \"#utility.yul\":20453:20475   */\n      add\n        /* \"#utility.yul\":20421:20485   */\n      tag_517\n      jump\t// in\n    tag_760:\n        /* \"#utility.yul\":20411:20485   */\n      swap2\n      pop\n        /* \"#utility.yul\":20367:20495   */\n      pop\n        /* \"#utility.yul\":20151:20502   */\n      swap3\n      swap2\n      pop\n      pop\n      jump\t// out\n        /* \"#utility.yul\":20508:20688   */\n    tag_518:\n        /* \"#utility.yul\":20556:20633   */\n      0x4e487b7100000000000000000000000000000000000000000000000000000000\n        /* \"#utility.yul\":20553:20554   */\n      0x00\n        /* \"#utility.yul\":20546:20634   */\n      mstore\n        /* \"#utility.yul\":20653:20657   */\n      0x11\n        /* \"#utility.yul\":20650:20651   */\n      0x04\n        /* \"#utility.yul\":20643:20658   */\n      mstore\n        /* \"#utility.yul\":20677:20681   */\n      0x24\n        /* \"#utility.yul\":20674:20675   */\n      0x00\n        /* \"#utility.yul\":20667:20682   */\n      revert\n        /* \"#utility.yul\":20694:20885   */\n    tag_188:\n        /* \"#utility.yul\":20734:20737   */\n      0x00\n        /* \"#utility.yul\":20753:20773   */\n      tag_763\n        /* \"#utility.yul\":20771:20772   */\n      dup3\n        /* \"#utility.yul\":20753:20773   */\n      tag_469\n      jump\t// in\n    tag_763:\n        /* \"#utility.yul\":20748:20773   */\n      swap2\n      pop\n        /* \"#utility.yul\":20787:20807   */\n      tag_764\n        /* \"#utility.yul\":20805:20806   */\n      dup4\n        /* \"#utility.yul\":20787:20807   */\n      tag_469\n      jump\t// in\n    tag_764:\n        /* \"#utility.yul\":20782:20807   */\n      swap3\n      pop\n        /* \"#utility.yul\":20830:20831   */\n      dup3\n        /* \"#utility.yul\":20827:20828   */\n      dup3\n        /* \"#utility.yul\":20823:20832   */\n      add\n        /* \"#utility.yul\":20816:20832   */\n      swap1\n      pop\n        /* \"#utility.yul\":20851:20854   */\n      dup1\n        /* \"#utility.yul\":20848:20849   */\n      dup3\n        /* \"#utility.yul\":20845:20855   */\n      gt\n        /* \"#utility.yul\":20842:20878   */\n      iszero\n      tag_765\n      jumpi\n        /* \"#utility.yul\":20858:20876   */\n      tag_766\n      tag_518\n      jump\t// in\n    tag_766:\n        /* \"#utility.yul\":20842:20878   */\n    tag_765:\n        /* \"#utility.yul\":20694:20885   */\n      swap3\n      swap2\n      pop\n      pop\n      jump\t// out\n        /* \"#utility.yul\":20891:21067   */\n    tag_519:\n        /* \"#utility.yul\":21031:21059   */\n      0x50726f706f73616c20494420616c726561647920657869737473000000000000\n        /* \"#utility.yul\":21027:21028   */\n      0x00\n        /* \"#utility.yul\":21019:21025   */\n      dup3\n        /* \"#utility.yul\":21015:21029   */\n      add\n        /* \"#utility.yul\":21008:21060   */\n      mstore\n        /* \"#utility.yul\":20891:21067   */\n      pop\n      jump\t// out\n        /* \"#utility.yul\":21073:21439   */\n    tag_520:\n        /* \"#utility.yul\":21215:21218   */\n      0x00\n        /* \"#utility.yul\":21236:21303   */\n      tag_769\n        /* \"#utility.yul\":21300:21302   */\n      0x1a\n        /* \"#utility.yul\":21295:21298   */\n      dup4\n        /* \"#utility.yul\":21236:21303   */\n      tag_506\n      jump\t// in\n    tag_769:\n        /* \"#utility.yul\":21229:21303   */\n      swap2\n      pop\n        /* \"#utility.yul\":21312:21405   */\n      tag_770\n        /* \"#utility.yul\":21401:21404   */\n      dup3\n        /* \"#utility.yul\":21312:21405   */\n      tag_519\n      jump\t// in\n    tag_770:\n        /* \"#utility.yul\":21430:21432   */\n      0x20\n        /* \"#utility.yul\":21425:21428   */\n      dup3\n        /* \"#utility.yul\":21421:21433   */\n      add\n        /* \"#utility.yul\":21414:21433   */\n      swap1\n      pop\n        /* \"#utility.yul\":21073:21439   */\n      swap2\n      swap1\n      pop\n      jump\t// out\n        /* \"#utility.yul\":21445:21864   */\n    tag_235:\n        /* \"#utility.yul\":21611:21615   */\n      0x00\n        /* \"#utility.yul\":21649:21651   */\n      0x20\n        /* \"#utility.yul\":21638:21647   */\n      dup3\n        /* \"#utility.yul\":21634:21652   */\n      add\n        /* \"#utility.yul\":21626:21652   */\n      swap1\n      pop\n        /* \"#utility.yul\":21698:21707   */\n      dup2\n        /* \"#utility.yul\":21692:21696   */\n      dup2\n        /* \"#utility.yul\":21688:21708   */\n      sub\n        /* \"#utility.yul\":21684:21685   */\n      0x00\n        /* \"#utility.yul\":21673:21682   */\n      dup4\n        /* \"#utility.yul\":21669:21686   */\n      add\n        /* \"#utility.yul\":21662:21709   */\n      mstore\n        /* \"#utility.yul\":21726:21857   */\n      tag_772\n        /* \"#utility.yul\":21852:21856   */\n      dup2\n        /* \"#utility.yul\":21726:21857   */\n      tag_520\n      jump\t// in\n    tag_772:\n        /* \"#utility.yul\":21718:21857   */\n      swap1\n      pop\n        /* \"#utility.yul\":21445:21864   */\n      swap2\n      swap1\n      pop\n      jump\t// out\n        /* \"#utility.yul\":21870:22122   */\n    tag_240:\n        /* \"#utility.yul\":21978:21982   */\n      0x00\n        /* \"#utility.yul\":22016:22018   */\n      0x20\n        /* \"#utility.yul\":22005:22014   */\n      dup3\n        /* \"#utility.yul\":22001:22019   */\n      add\n        /* \"#utility.yul\":21993:22019   */\n      swap1\n      pop\n        /* \"#utility.yul\":22029:22115   */\n      tag_774\n        /* \"#utility.yul\":22112:22113   */\n      0x00\n        /* \"#utility.yul\":22101:22110   */\n      dup4\n        /* \"#utility.yul\":22097:22114   */\n      add\n        /* \"#utility.yul\":22088:22094   */\n      dup5\n        /* \"#utility.yul\":22029:22115   */\n      tag_504\n      jump\t// in\n    tag_774:\n        /* \"#utility.yul\":21870:22122   */\n      swap3\n      swap2\n      pop\n      pop\n      jump\t// out\n        /* \"#utility.yul\":22128:22213   */\n    tag_521:\n        /* \"#utility.yul\":22173:22180   */\n      0x00\n        /* \"#utility.yul\":22202:22207   */\n      dup2\n        /* \"#utility.yul\":22191:22207   */\n      swap1\n      pop\n        /* \"#utility.yul\":22128:22213   */\n      swap2\n      swap1\n      pop\n      jump\t// out\n        /* \"#utility.yul\":22219:22320   */\n    tag_522:\n        /* \"#utility.yul\":22255:22262   */\n      0x00\n        /* \"#utility.yul\":22295:22313   */\n      0xffffffffffffffff\n        /* \"#utility.yul\":22288:22293   */\n      dup3\n        /* \"#utility.yul\":22284:22314   */\n      and\n        /* \"#utility.yul\":22273:22314   */\n      swap1\n      pop\n        /* \"#utility.yul\":22219:22320   */\n      swap2\n      swap1\n      pop\n      jump\t// out\n        /* \"#utility.yul\":22326:22482   */\n    tag_523:\n        /* \"#utility.yul\":22383:22392   */\n      0x00\n        /* \"#utility.yul\":22416:22476   */\n      tag_778\n        /* \"#utility.yul\":22433:22475   */\n      tag_779\n        /* \"#utility.yul\":22442:22474   */\n      tag_780\n        /* \"#utility.yul\":22468:22473   */\n      dup5\n        /* \"#utility.yul\":22442:22474   */\n      tag_521\n      jump\t// in\n    tag_780:\n        /* \"#utility.yul\":22433:22475   */\n      tag_461\n      jump\t// in\n    tag_779:\n        /* \"#utility.yul\":22416:22476   */\n      tag_522\n      jump\t// in\n    tag_778:\n        /* \"#utility.yul\":22403:22476   */\n      swap1\n      pop\n        /* \"#utility.yul\":22326:22482   */\n      swap2\n      swap1\n      pop\n      jump\t// out\n        /* \"#utility.yul\":22488:22633   */\n    tag_524:\n        /* \"#utility.yul\":22582:22626   */\n      tag_782\n        /* \"#utility.yul\":22620:22625   */\n      dup2\n        /* \"#utility.yul\":22582:22626   */\n      tag_523\n      jump\t// in\n    tag_782:\n        /* \"#utility.yul\":22577:22580   */\n      dup3\n        /* \"#utility.yul\":22570:22627   */\n      mstore\n        /* \"#utility.yul\":22488:22633   */\n      pop\n      pop\n      jump\t// out\n        /* \"#utility.yul\":22639:22875   */\n    tag_256:\n        /* \"#utility.yul\":22739:22743   */\n      0x00\n        /* \"#utility.yul\":22777:22779   */\n      0x20\n        /* \"#utility.yul\":22766:22775   */\n      dup3\n        /* \"#utility.yul\":22762:22780   */\n      add\n        /* \"#utility.yul\":22754:22780   */\n      swap1\n      pop\n        /* \"#utility.yul\":22790:22868   */\n      tag_784\n        /* \"#utility.yul\":22865:22866   */\n      0x00\n        /* \"#utility.yul\":22854:22863   */\n      dup4\n        /* \"#utility.yul\":22850:22867   */\n      add\n        /* \"#utility.yul\":22841:22847   */\n      dup5\n        /* \"#utility.yul\":22790:22868   */\n      tag_524\n      jump\t// in\n    tag_784:\n        /* \"#utility.yul\":22639:22875   */\n      swap3\n      swap2\n      pop\n      pop\n      jump\t// out\n        /* \"#utility.yul\":22881:23045   */\n    tag_525:\n        /* \"#utility.yul\":23021:23037   */\n      0x4e6f7420617574686f72697a6564000000000000000000000000000000000000\n        /* \"#utility.yul\":23017:23018   */\n      0x00\n        /* \"#utility.yul\":23009:23015   */\n      dup3\n        /* \"#utility.yul\":23005:23019   */\n      add\n        /* \"#utility.yul\":22998:23038   */\n      mstore\n        /* \"#utility.yul\":22881:23045   */\n      pop\n      jump\t// out\n        /* \"#utility.yul\":23051:23417   */\n    tag_526:\n        /* \"#utility.yul\":23193:23196   */\n      0x00\n        /* \"#utility.yul\":23214:23281   */\n      tag_787\n        /* \"#utility.yul\":23278:23280   */\n      0x0e\n        /* \"#utility.yul\":23273:23276   */\n      dup4\n        /* \"#utility.yul\":23214:23281   */\n      tag_506\n      jump\t// in\n    tag_787:\n        /* \"#utility.yul\":23207:23281   */\n      swap2\n      pop\n        /* \"#utility.yul\":23290:23383   */\n      tag_788\n        /* \"#utility.yul\":23379:23382   */\n      dup3\n        /* \"#utility.yul\":23290:23383   */\n      tag_525\n      jump\t// in\n    tag_788:\n        /* \"#utility.yul\":23408:23410   */\n      0x20\n        /* \"#utility.yul\":23403:23406   */\n      dup3\n        /* \"#utility.yul\":23399:23411   */\n      add\n        /* \"#utility.yul\":23392:23411   */\n      swap1\n      pop\n        /* \"#utility.yul\":23051:23417   */\n      swap2\n      swap1\n      pop\n      jump\t// out\n        /* \"#utility.yul\":23423:23842   */\n    tag_281:\n        /* \"#utility.yul\":23589:23593   */\n      0x00\n        /* \"#utility.yul\":23627:23629   */\n      0x20\n        /* \"#utility.yul\":23616:23625   */\n      dup3\n        /* \"#utility.yul\":23612:23630   */\n      add\n        /* \"#utility.yul\":23604:23630   */\n      swap1\n      pop\n        /* \"#utility.yul\":23676:23685   */\n      dup2\n        /* \"#utility.yul\":23670:23674   */\n      dup2\n        /* \"#utility.yul\":23666:23686   */\n      sub\n        /* \"#utility.yul\":23662:23663   */\n      0x00\n        /* \"#utility.yul\":23651:23660   */\n      dup4\n        /* \"#utility.yul\":23647:23664   */\n      add\n        /* \"#utility.yul\":23640:23687   */\n      mstore\n        /* \"#utility.yul\":23704:23835   */\n      tag_790\n        /* \"#utility.yul\":23830:23834   */\n      dup2\n        /* \"#utility.yul\":23704:23835   */\n      tag_526\n      jump\t// in\n    tag_790:\n        /* \"#utility.yul\":23696:23835   */\n      swap1\n      pop\n        /* \"#utility.yul\":23423:23842   */\n      swap2\n      swap1\n      pop\n      jump\t// out\n        /* \"#utility.yul\":23848:24021   */\n    tag_527:\n        /* \"#utility.yul\":23988:24013   */\n      0x50726f706f73616c20646f6573206e6f74206578697374000000000000000000\n        /* \"#utility.yul\":23984:23985   */\n      0x00\n        /* \"#utility.yul\":23976:23982   */\n      dup3\n        /* \"#utility.yul\":23972:23986   */\n      add\n        /* \"#utility.yul\":23965:24014   */\n      mstore\n        /* \"#utility.yul\":23848:24021   */\n      pop\n      jump\t// out\n        /* \"#utility.yul\":24027:24393   */\n    tag_528:\n        /* \"#utility.yul\":24169:24172   */\n      0x00\n        /* \"#utility.yul\":24190:24257   */\n      tag_793\n        /* \"#utility.yul\":24254:24256   */\n      0x17\n        /* \"#utility.yul\":24249:24252   */\n      dup4\n        /* \"#utility.yul\":24190:24257   */\n      tag_506\n      jump\t// in\n    tag_793:\n        /* \"#utility.yul\":24183:24257   */\n      swap2\n      pop\n        /* \"#utility.yul\":24266:24359   */\n      tag_794\n        /* \"#utility.yul\":24355:24358   */\n      dup3\n        /* \"#utility.yul\":24266:24359   */\n      tag_527\n      jump\t// in\n    tag_794:\n        /* \"#utility.yul\":24384:24386   */\n      0x20\n        /* \"#utility.yul\":24379:24382   */\n      dup3\n        /* \"#utility.yul\":24375:24387   */\n      add\n        /* \"#utility.yul\":24368:24387   */\n      swap1\n      pop\n        /* \"#utility.yul\":24027:24393   */\n      swap2\n      swap1\n      pop\n      jump\t// out\n        /* \"#utility.yul\":24399:24818   */\n    tag_284:\n        /* \"#utility.yul\":24565:24569   */\n      0x00\n        /* \"#utility.yul\":24603:24605   */\n      0x20\n        /* \"#utility.yul\":24592:24601   */\n      dup3\n        /* \"#utility.yul\":24588:24606   */\n      add\n        /* \"#utility.yul\":24580:24606   */\n      swap1\n      pop\n        /* \"#utility.yul\":24652:24661   */\n      dup2\n        /* \"#utility.yul\":24646:24650   */\n      dup2\n        /* \"#utility.yul\":24642:24662   */\n      sub\n        /* \"#utility.yul\":24638:24639   */\n      0x00\n        /* \"#utility.yul\":24627:24636   */\n      dup4\n        /* \"#utility.yul\":24623:24640   */\n      add\n        /* \"#utility.yul\":24616:24663   */\n      mstore\n        /* \"#utility.yul\":24680:24811   */\n      tag_796\n        /* \"#utility.yul\":24806:24810   */\n      dup2\n        /* \"#utility.yul\":24680:24811   */\n      tag_528\n      jump\t// in\n    tag_796:\n        /* \"#utility.yul\":24672:24811   */\n      swap1\n      pop\n        /* \"#utility.yul\":24399:24818   */\n      swap2\n      swap1\n      pop\n      jump\t// out\n        /* \"#utility.yul\":24824:24999   */\n    tag_529:\n        /* \"#utility.yul\":24964:24991   */\n      0x50726f706f73616c20616c726561647920657865637574656400000000000000\n        /* \"#utility.yul\":24960:24961   */\n      0x00\n        /* \"#utility.yul\":24952:24958   */\n      dup3\n        /* \"#utility.yul\":24948:24962   */\n      add\n        /* \"#utility.yul\":24941:24992   */\n      mstore\n        /* \"#utility.yul\":24824:24999   */\n      pop\n      jump\t// out\n        /* \"#utility.yul\":25005:25371   */\n    tag_530:\n        /* \"#utility.yul\":25147:25150   */\n      0x00\n        /* \"#utility.yul\":25168:25235   */\n      tag_799\n        /* \"#utility.yul\":25232:25234   */\n      0x19\n        /* \"#utility.yul\":25227:25230   */\n      dup4\n        /* \"#utility.yul\":25168:25235   */\n      tag_506\n      jump\t// in\n    tag_799:\n        /* \"#utility.yul\":25161:25235   */\n      swap2\n      pop\n        /* \"#utility.yul\":25244:25337   */\n      tag_800\n        /* \"#utility.yul\":25333:25336   */\n      dup3\n        /* \"#utility.yul\":25244:25337   */\n      tag_529\n      jump\t// in\n    tag_800:\n        /* \"#utility.yul\":25362:25364   */\n      0x20\n        /* \"#utility.yul\":25357:25360   */\n      dup3\n        /* \"#utility.yul\":25353:25365   */\n      add\n        /* \"#utility.yul\":25346:25365   */\n      swap1\n      pop\n        /* \"#utility.yul\":25005:25371   */\n      swap2\n      swap1\n      pop\n      jump\t// out\n        /* \"#utility.yul\":25377:25796   */\n    tag_287:\n        /* \"#utility.yul\":25543:25547   */\n      0x00\n        /* \"#utility.yul\":25581:25583   */\n      0x20\n        /* \"#utility.yul\":25570:25579   */\n      dup3\n        /* \"#utility.yul\":25566:25584   */\n      add\n        /* \"#utility.yul\":25558:25584   */\n      swap1\n      pop\n        /* \"#utility.yul\":25630:25639   */\n      dup2\n        /* \"#utility.yul\":25624:25628   */\n      dup2\n        /* \"#utility.yul\":25620:25640   */\n      sub\n        /* \"#utility.yul\":25616:25617   */\n      0x00\n        /* \"#utility.yul\":25605:25614   */\n      dup4\n        /* \"#utility.yul\":25601:25618   */\n      add\n        /* \"#utility.yul\":25594:25641   */\n      mstore\n        /* \"#utility.yul\":25658:25789   */\n      tag_802\n        /* \"#utility.yul\":25784:25788   */\n      dup2\n        /* \"#utility.yul\":25658:25789   */\n      tag_530\n      jump\t// in\n    tag_802:\n        /* \"#utility.yul\":25650:25789   */\n      swap1\n      pop\n        /* \"#utility.yul\":25377:25796   */\n      swap2\n      swap1\n      pop\n      jump\t// out\n        /* \"#utility.yul\":25802:25966   */\n    tag_531:\n        /* \"#utility.yul\":25942:25958   */\n      0x416c7265616479207369676e6564000000000000000000000000000000000000\n        /* \"#utility.yul\":25938:25939   */\n      0x00\n        /* \"#utility.yul\":25930:25936   */\n      dup3\n        /* \"#utility.yul\":25926:25940   */\n      add\n        /* \"#utility.yul\":25919:25959   */\n      mstore\n        /* \"#utility.yul\":25802:25966   */\n      pop\n      jump\t// out\n        /* \"#utility.yul\":25972:26338   */\n    tag_532:\n        /* \"#utility.yul\":26114:26117   */\n      0x00\n        /* \"#utility.yul\":26135:26202   */\n      tag_805\n        /* \"#utility.yul\":26199:26201   */\n      0x0e\n        /* \"#utility.yul\":26194:26197   */\n      dup4\n        /* \"#utility.yul\":26135:26202   */\n      tag_506\n      jump\t// in\n    tag_805:\n        /* \"#utility.yul\":26128:26202   */\n      swap2\n      pop\n        /* \"#utility.yul\":26211:26304   */\n      tag_806\n        /* \"#utility.yul\":26300:26303   */\n      dup3\n        /* \"#utility.yul\":26211:26304   */\n      tag_531\n      jump\t// in\n    tag_806:\n        /* \"#utility.yul\":26329:26331   */\n      0x20\n        /* \"#utility.yul\":26324:26327   */\n      dup3\n        /* \"#utility.yul\":26320:26332   */\n      add\n        /* \"#utility.yul\":26313:26332   */\n      swap1\n      pop\n        /* \"#utility.yul\":25972:26338   */\n      swap2\n      swap1\n      pop\n      jump\t// out\n        /* \"#utility.yul\":26344:26763   */\n    tag_290:\n        /* \"#utility.yul\":26510:26514   */\n      0x00\n        /* \"#utility.yul\":26548:26550   */\n      0x20\n        /* \"#utility.yul\":26537:26546   */\n      dup3\n        /* \"#utility.yul\":26533:26551   */\n      add\n        /* \"#utility.yul\":26525:26551   */\n      swap1\n      pop\n        /* \"#utility.yul\":26597:26606   */\n      dup2\n        /* \"#utility.yul\":26591:26595   */\n      dup2\n        /* \"#utility.yul\":26587:26607   */\n      sub\n        /* \"#utility.yul\":26583:26584   */\n      0x00\n        /* \"#utility.yul\":26572:26581   */\n      dup4\n        /* \"#utility.yul\":26568:26585   */\n      add\n        /* \"#utility.yul\":26561:26608   */\n      mstore\n        /* \"#utility.yul\":26625:26756   */\n      tag_808\n        /* \"#utility.yul\":26751:26755   */\n      dup2\n        /* \"#utility.yul\":26625:26756   */\n      tag_532\n      jump\t// in\n    tag_808:\n        /* \"#utility.yul\":26617:26756   */\n      swap1\n      pop\n        /* \"#utility.yul\":26344:26763   */\n      swap2\n      swap1\n      pop\n      jump\t// out\n        /* \"#utility.yul\":26769:27002   */\n    tag_292:\n        /* \"#utility.yul\":26808:26811   */\n      0x00\n        /* \"#utility.yul\":26831:26855   */\n      tag_810\n        /* \"#utility.yul\":26849:26854   */\n      dup3\n        /* \"#utility.yul\":26831:26855   */\n      tag_469\n      jump\t// in\n    tag_810:\n        /* \"#utility.yul\":26822:26855   */\n      swap2\n      pop\n        /* \"#utility.yul\":26877:26943   */\n      0xffffffffffffffffffffffffffffffffffffffffffffffffffffffffffffffff\n        /* \"#utility.yul\":26870:26875   */\n      dup3\n        /* \"#utility.yul\":26867:26944   */\n      sub\n        /* \"#utility.yul\":26864:26967   */\n      tag_811\n      jumpi\n        /* \"#utility.yul\":26947:26965   */\n      tag_812\n      tag_518\n      jump\t// in\n    tag_812:\n        /* \"#utility.yul\":26864:26967   */\n    tag_811:\n        /* \"#utility.yul\":26994:26995   */\n      0x01\n        /* \"#utility.yul\":26987:26992   */\n      dup3\n        /* \"#utility.yul\":26983:26996   */\n      add\n        /* \"#utility.yul\":26976:26996   */\n      swap1\n      pop\n        /* \"#utility.yul\":26769:27002   */\n      swap2\n      swap1\n      pop\n      jump\t// out\n        /* \"#utility.yul\":27008:27130   */\n    tag_533:\n        /* \"#utility.yul\":27081:27105   */\n      tag_814\n        /* \"#utility.yul\":27099:27104   */\n      dup2\n        /* \"#utility.yul\":27081:27105   */\n      tag_492\n      jump\t// in\n    tag_814:\n        /* \"#utility.yul\":27074:27079   */\n      dup2\n        /* \"#utility.yul\":27071:27106   */\n      eq\n        /* \"#utility.yul\":27061:27124   */\n      tag_815\n      jumpi\n        /* \"#utility.yul\":27120:27121   */\n      0x00\n        /* \"#utility.yul\":27117:27118   */\n      dup1\n        /* \"#utility.yul\":27110:27122   */\n      revert\n        /* \"#utility.yul\":27061:27124   */\n    tag_815:\n        /* \"#utility.yul\":27008:27130   */\n      pop\n      jump\t// out\n        /* \"#utility.yul\":27136:27279   */\n    tag_534:\n        /* \"#utility.yul\":27193:27198   */\n      0x00\n        /* \"#utility.yul\":27224:27230   */\n      dup2\n        /* \"#utility.yul\":27218:27231   */\n      mload\n        /* \"#utility.yul\":27209:27231   */\n      swap1\n      pop\n        /* \"#utility.yul\":27240:27273   */\n      tag_817\n        /* \"#utility.yul\":27267:27272   */\n      dup2\n        /* \"#utility.yul\":27240:27273   */\n      tag_533\n      jump\t// in\n    tag_817:\n        /* \"#utility.yul\":27136:27279   */\n      swap3\n      swap2\n      pop\n      pop\n      jump\t// out\n        /* \"#utility.yul\":27285:27636   */\n    tag_315:\n        /* \"#utility.yul\":27355:27361   */\n      0x00\n        /* \"#utility.yul\":27404:27406   */\n      0x20\n        /* \"#utility.yul\":27392:27401   */\n      dup3\n        /* \"#utility.yul\":27383:27390   */\n      dup5\n        /* \"#utility.yul\":27379:27402   */\n      sub\n        /* \"#utility.yul\":27375:27407   */\n      slt\n        /* \"#utility.yul\":27372:27491   */\n      iszero\n      tag_819\n      jumpi\n        /* \"#utility.yul\":27410:27489   */\n      tag_820\n      tag_467\n      jump\t// in\n    tag_820:\n        /* \"#utility.yul\":27372:27491   */\n    tag_819:\n        /* \"#utility.yul\":27530:27531   */\n      0x00\n        /* \"#utility.yul\":27555:27619   */\n      tag_821\n        /* \"#utility.yul\":27611:27618   */\n      dup5\n        /* \"#utility.yul\":27602:27608   */\n      dup3\n        /* \"#utility.yul\":27591:27600   */\n      dup6\n        /* \"#utility.yul\":27587:27609   */\n      add\n        /* \"#utility.yul\":27555:27619   */\n      tag_534\n      jump\t// in\n    tag_821:\n        /* \"#utility.yul\":27545:27619   */\n      swap2\n      pop\n        /* \"#utility.yul\":27501:27629   */\n      pop\n        /* \"#utility.yul\":27285:27636   */\n      swap3\n      swap2\n      pop\n      pop\n      jump\t// out\n        /* \"#utility.yul\":27642:27813   */\n    tag_535:\n        /* \"#utility.yul\":27782:27805   */\n      0x4e6f7420656e6f756768207369676e6174757265730000000000000000000000\n        /* \"#utility.yul\":27778:27779   */\n      0x00\n        /* \"#utility.yul\":27770:27776   */\n      dup3\n        /* \"#utility.yul\":27766:27780   */\n      add\n        /* \"#utility.yul\":27759:27806   */\n      mstore\n        /* \"#utility.yul\":27642:27813   */\n      pop\n      jump\t// out\n        /* \"#utility.yul\":27819:28185   */\n    tag_536:\n        /* \"#utility.yul\":27961:27964   */\n      0x00\n        /* \"#utility.yul\":27982:28049   */\n      tag_824\n        /* \"#utility.yul\":28046:28048   */\n      0x15\n        /* \"#utility.yul\":28041:28044   */\n      dup4\n        /* \"#utility.yul\":27982:28049   */\n      tag_506\n      jump\t// in\n    tag_824:\n        /* \"#utility.yul\":27975:28049   */\n      swap2\n      pop\n        /* \"#utility.yul\":28058:28151   */\n      tag_825\n        /* \"#utility.yul\":28147:28150   */\n      dup3\n        /* \"#utility.yul\":28058:28151   */\n      tag_535\n      jump\t// in\n    tag_825:\n        /* \"#utility.yul\":28176:28178   */\n      0x20\n        /* \"#utility.yul\":28171:28174   */\n      dup3\n        /* \"#utility.yul\":28167:28179   */\n      add\n        /* \"#utility.yul\":28160:28179   */\n      swap1\n      pop\n        /* \"#utility.yul\":27819:28185   */\n      swap2\n      swap1\n      pop\n      jump\t// out\n        /* \"#utility.yul\":28191:28610   */\n    tag_356:\n        /* \"#utility.yul\":28357:28361   */\n      0x00\n        /* \"#utility.yul\":28395:28397   */\n      0x20\n        /* \"#utility.yul\":28384:28393   */\n      dup3\n        /* \"#utility.yul\":28380:28398   */\n      add\n        /* \"#utility.yul\":28372:28398   */\n      swap1\n      pop\n        /* \"#utility.yul\":28444:28453   */\n      dup2\n        /* \"#utility.yul\":28438:28442   */\n      dup2\n        /* \"#utility.yul\":28434:28454   */\n      sub\n        /* \"#utility.yul\":28430:28431   */\n      0x00\n        /* \"#utility.yul\":28419:28428   */\n      dup4\n        /* \"#utility.yul\":28415:28432   */\n      add\n        /* \"#utility.yul\":28408:28455   */\n      mstore\n        /* \"#utility.yul\":28472:28603   */\n      tag_827\n        /* \"#utility.yul\":28598:28602   */\n      dup2\n        /* \"#utility.yul\":28472:28603   */\n      tag_536\n      jump\t// in\n    tag_827:\n        /* \"#utility.yul\":28464:28603   */\n      swap1\n      pop\n        /* \"#utility.yul\":28191:28610   */\n      swap2\n      swap1\n      pop\n      jump\t// out\n        /* \"#utility.yul\":28616:28948   */\n    tag_405:\n        /* \"#utility.yul\":28737:28741   */\n      0x00\n        /* \"#utility.yul\":28775:28777   */\n      0x40\n        /* \"#utility.yul\":28764:28773   */\n      dup3\n        /* \"#utility.yul\":28760:28778   */\n      add\n        /* \"#utility.yul\":28752:28778   */\n      swap1\n      pop\n        /* \"#utility.yul\":28788:28859   */\n      tag_829\n        /* \"#utility.yul\":28856:28857   */\n      0x00\n        /* \"#utility.yul\":28845:28854   */\n      dup4\n        /* \"#utility.yul\":28841:28858   */\n      add\n        /* \"#utility.yul\":28832:28838   */\n      dup6\n        /* \"#utility.yul\":28788:28859   */\n      tag_472\n      jump\t// in\n    tag_829:\n        /* \"#utility.yul\":28869:28941   */\n      tag_830\n        /* \"#utility.yul\":28937:28939   */\n      0x20\n        /* \"#utility.yul\":28926:28935   */\n      dup4\n        /* \"#utility.yul\":28922:28940   */\n      add\n        /* \"#utility.yul\":28913:28919   */\n      dup5\n        /* \"#utility.yul\":28869:28941   */\n      tag_500\n      jump\t// in\n    tag_830:\n        /* \"#utility.yul\":28616:28948   */\n      swap4\n      swap3\n      pop\n      pop\n      pop\n      jump\t// out\n        /* \"#utility.yul\":28954:29262   */\n    tag_537:\n        /* \"#utility.yul\":29016:29020   */\n      0x00\n        /* \"#utility.yul\":29106:29124   */\n      0xffffffffffffffff\n        /* \"#utility.yul\":29098:29104   */\n      dup3\n        /* \"#utility.yul\":29095:29125   */\n      gt\n        /* \"#utility.yul\":29092:29148   */\n      iszero\n      tag_832\n      jumpi\n        /* \"#utility.yul\":29128:29146   */\n      tag_833\n      tag_156\n      jump\t// in\n    tag_833:\n        /* \"#utility.yul\":29092:29148   */\n    tag_832:\n        /* \"#utility.yul\":29166:29195   */\n      tag_834\n        /* \"#utility.yul\":29188:29194   */\n      dup3\n        /* \"#utility.yul\":29166:29195   */\n      tag_485\n      jump\t// in\n    tag_834:\n        /* \"#utility.yul\":29158:29195   */\n      swap1\n      pop\n        /* \"#utility.yul\":29250:29254   */\n      0x20\n        /* \"#utility.yul\":29244:29248   */\n      dup2\n        /* \"#utility.yul\":29240:29255   */\n      add\n        /* \"#utility.yul\":29232:29255   */\n      swap1\n      pop\n        /* \"#utility.yul\":28954:29262   */\n      swap2\n      swap1\n      pop\n      jump\t// out\n        /* \"#utility.yul\":29268:29702   */\n    tag_538:\n        /* \"#utility.yul\":29357:29362   */\n      0x00\n        /* \"#utility.yul\":29382:29448   */\n      tag_836\n        /* \"#utility.yul\":29398:29447   */\n      tag_837\n        /* \"#utility.yul\":29440:29446   */\n      dup5\n        /* \"#utility.yul\":29398:29447   */\n      tag_537\n      jump\t// in\n    tag_837:\n        /* \"#utility.yul\":29382:29448   */\n      tag_487\n      jump\t// in\n    tag_836:\n        /* \"#utility.yul\":29373:29448   */\n      swap1\n      pop\n        /* \"#utility.yul\":29471:29477   */\n      dup3\n        /* \"#utility.yul\":29464:29469   */\n      dup2\n        /* \"#utility.yul\":29457:29478   */\n      mstore\n        /* \"#utility.yul\":29509:29513   */\n      0x20\n        /* \"#utility.yul\":29502:29507   */\n      dup2\n        /* \"#utility.yul\":29498:29514   */\n      add\n        /* \"#utility.yul\":29547:29550   */\n      dup5\n        /* \"#utility.yul\":29538:29544   */\n      dup5\n        /* \"#utility.yul\":29533:29536   */\n      dup5\n        /* \"#utility.yul\":29529:29545   */\n      add\n        /* \"#utility.yul\":29526:29551   */\n      gt\n        /* \"#utility.yul\":29523:29635   */\n      iszero\n      tag_838\n      jumpi\n        /* \"#utility.yul\":29554:29633   */\n      tag_839\n      tag_484\n      jump\t// in\n    tag_839:\n        /* \"#utility.yul\":29523:29635   */\n    tag_838:\n        /* \"#utility.yul\":29644:29696   */\n      tag_840\n        /* \"#utility.yul\":29689:29695   */\n      dup5\n        /* \"#utility.yul\":29684:29687   */\n      dup3\n        /* \"#utility.yul\":29679:29682   */\n      dup6\n        /* \"#utility.yul\":29644:29696   */\n      tag_507\n      jump\t// in\n    tag_840:\n        /* \"#utility.yul\":29363:29702   */\n      pop\n        /* \"#utility.yul\":29268:29702   */\n      swap4\n      swap3\n      pop\n      pop\n      pop\n      jump\t// out\n        /* \"#utility.yul\":29722:30077   */\n    tag_539:\n        /* \"#utility.yul\":29789:29794   */\n      0x00\n        /* \"#utility.yul\":29838:29841   */\n      dup3\n        /* \"#utility.yul\":29831:29835   */\n      0x1f\n        /* \"#utility.yul\":29823:29829   */\n      dup4\n        /* \"#utility.yul\":29819:29836   */\n      add\n        /* \"#utility.yul\":29815:29842   */\n      slt\n        /* \"#utility.yul\":29805:29927   */\n      tag_842\n      jumpi\n        /* \"#utility.yul\":29846:29925   */\n      tag_843\n      tag_483\n      jump\t// in\n    tag_843:\n        /* \"#utility.yul\":29805:29927   */\n    tag_842:\n        /* \"#utility.yul\":29956:29962   */\n      dup2\n        /* \"#utility.yul\":29950:29963   */\n      mload\n        /* \"#utility.yul\":29981:30071   */\n      tag_844\n        /* \"#utility.yul\":30067:30070   */\n      dup5\n        /* \"#utility.yul\":30059:30065   */\n      dup3\n        /* \"#utility.yul\":30052:30056   */\n      0x20\n        /* \"#utility.yul\":30044:30050   */\n      dup7\n        /* \"#utility.yul\":30040:30057   */\n      add\n        /* \"#utility.yul\":29981:30071   */\n      tag_538\n      jump\t// in\n    tag_844:\n        /* \"#utility.yul\":29972:30071   */\n      swap2\n      pop\n        /* \"#utility.yul\":29795:30077   */\n      pop\n        /* \"#utility.yul\":29722:30077   */\n      swap3\n      swap2\n      pop\n      pop\n      jump\t// out\n        /* \"#utility.yul\":30083:30226   */\n    tag_540:\n        /* \"#utility.yul\":30140:30145   */\n      0x00\n        /* \"#utility.yul\":30171:30177   */\n      dup2\n        /* \"#utility.yul\":30165:30178   */\n      mload\n        /* \"#utility.yul\":30156:30178   */\n      swap1\n      pop\n        /* \"#utility.yul\":30187:30220   */\n      tag_846\n        /* \"#utility.yul\":30214:30219   */\n      dup2\n        /* \"#utility.yul\":30187:30220   */\n      tag_481\n      jump\t// in\n    tag_846:\n        /* \"#utility.yul\":30083:30226   */\n      swap3\n      swap2\n      pop\n      pop\n      jump\t// out\n        /* \"#utility.yul\":30232:30350   */\n    tag_541:\n        /* \"#utility.yul\":30324:30325   */\n      0x02\n        /* \"#utility.yul\":30317:30322   */\n      dup2\n        /* \"#utility.yul\":30314:30326   */\n      lt\n        /* \"#utility.yul\":30304:30344   */\n      tag_848\n      jumpi\n        /* \"#utility.yul\":30340:30341   */\n      0x00\n        /* \"#utility.yul\":30337:30338   */\n      dup1\n        /* \"#utility.yul\":30330:30342   */\n      revert\n        /* \"#utility.yul\":30304:30344   */\n    tag_848:\n        /* \"#utility.yul\":30232:30350   */\n      pop\n      jump\t// out\n        /* \"#utility.yul\":30356:30537   */\n    tag_542:\n        /* \"#utility.yul\":30432:30437   */\n      0x00\n        /* \"#utility.yul\":30463:30469   */\n      dup2\n        /* \"#utility.yul\":30457:30470   */\n      mload\n        /* \"#utility.yul\":30448:30470   */\n      swap1\n      pop\n        /* \"#utility.yul\":30479:30531   */\n      tag_850\n        /* \"#utility.yul\":30525:30530   */\n      dup2\n        /* \"#utility.yul\":30479:30531   */\n      tag_541\n      jump\t// in\n    tag_850:\n        /* \"#utility.yul\":30356:30537   */\n      swap3\n      swap2\n      pop\n      pop\n      jump\t// out\n        /* \"#utility.yul\":30543:32548   */\n    tag_416:\n        /* \"#utility.yul\":30725:30731   */\n      0x00\n        /* \"#utility.yul\":30733:30739   */\n      dup1\n        /* \"#utility.yul\":30741:30747   */\n      0x00\n        /* \"#utility.yul\":30749:30755   */\n      dup1\n        /* \"#utility.yul\":30757:30763   */\n      0x00\n        /* \"#utility.yul\":30765:30771   */\n      dup1\n        /* \"#utility.yul\":30773:30779   */\n      0x00\n        /* \"#utility.yul\":30781:30787   */\n      dup1\n        /* \"#utility.yul\":30830:30833   */\n      0x0100\n        /* \"#utility.yul\":30818:30827   */\n      dup10\n        /* \"#utility.yul\":30809:30816   */\n      dup12\n        /* \"#utility.yul\":30805:30828   */\n      sub\n        /* \"#utility.yul\":30801:30834   */\n      slt\n        /* \"#utility.yul\":30798:30918   */\n      iszero\n      tag_852\n      jumpi\n        /* \"#utility.yul\":30837:30916   */\n      tag_853\n      tag_467\n      jump\t// in\n    tag_853:\n        /* \"#utility.yul\":30798:30918   */\n    tag_852:\n        /* \"#utility.yul\":30978:30979   */\n      0x00\n        /* \"#utility.yul\":30967:30976   */\n      dup10\n        /* \"#utility.yul\":30963:30980   */\n      add\n        /* \"#utility.yul\":30957:30981   */\n      mload\n        /* \"#utility.yul\":31008:31026   */\n      0xffffffffffffffff\n        /* \"#utility.yul\":31000:31006   */\n      dup2\n        /* \"#utility.yul\":30997:31027   */\n      gt\n        /* \"#utility.yul\":30994:31111   */\n      iszero\n      tag_854\n      jumpi\n        /* \"#utility.yul\":31030:31109   */\n      tag_855\n      tag_468\n      jump\t// in\n    tag_855:\n        /* \"#utility.yul\":30994:31111   */\n    tag_854:\n        /* \"#utility.yul\":31135:31209   */\n      tag_856\n        /* \"#utility.yul\":31201:31208   */\n      dup12\n        /* \"#utility.yul\":31192:31198   */\n      dup3\n        /* \"#utility.yul\":31181:31190   */\n      dup13\n        /* \"#utility.yul\":31177:31199   */\n      add\n        /* \"#utility.yul\":31135:31209   */\n      tag_539\n      jump\t// in\n    tag_856:\n        /* \"#utility.yul\":31125:31209   */\n      swap9\n      pop\n        /* \"#utility.yul\":30928:31219   */\n      pop\n        /* \"#utility.yul\":31279:31281   */\n      0x20\n        /* \"#utility.yul\":31268:31277   */\n      dup10\n        /* \"#utility.yul\":31264:31282   */\n      add\n        /* \"#utility.yul\":31258:31283   */\n      mload\n        /* \"#utility.yul\":31310:31328   */\n      0xffffffffffffffff\n        /* \"#utility.yul\":31302:31308   */\n      dup2\n        /* \"#utility.yul\":31299:31329   */\n      gt\n        /* \"#utility.yul\":31296:31413   */\n      iszero\n      tag_857\n      jumpi\n        /* \"#utility.yul\":31332:31411   */\n      tag_858\n      tag_468\n      jump\t// in\n    tag_858:\n        /* \"#utility.yul\":31296:31413   */\n    tag_857:\n        /* \"#utility.yul\":31437:31511   */\n      tag_859\n        /* \"#utility.yul\":31503:31510   */\n      dup12\n        /* \"#utility.yul\":31494:31500   */\n      dup3\n        /* \"#utility.yul\":31483:31492   */\n      dup13\n        /* \"#utility.yul\":31479:31501   */\n      add\n        /* \"#utility.yul\":31437:31511   */\n      tag_539\n      jump\t// in\n    tag_859:\n        /* \"#utility.yul\":31427:31511   */\n      swap8\n      pop\n        /* \"#utility.yul\":31229:31521   */\n      pop\n        /* \"#utility.yul\":31581:31583   */\n      0x40\n        /* \"#utility.yul\":31570:31579   */\n      dup10\n        /* \"#utility.yul\":31566:31584   */\n      add\n        /* \"#utility.yul\":31560:31585   */\n      mload\n        /* \"#utility.yul\":31612:31630   */\n      0xffffffffffffffff\n        /* \"#utility.yul\":31604:31610   */\n      dup2\n        /* \"#utility.yul\":31601:31631   */\n      gt\n        /* \"#utility.yul\":31598:31715   */\n      iszero\n      tag_860\n      jumpi\n        /* \"#utility.yul\":31634:31713   */\n      tag_861\n      tag_468\n      jump\t// in\n    tag_861:\n        /* \"#utility.yul\":31598:31715   */\n    tag_860:\n        /* \"#utility.yul\":31739:31813   */\n      tag_862\n        /* \"#utility.yul\":31805:31812   */\n      dup12\n        /* \"#utility.yul\":31796:31802   */\n      dup3\n        /* \"#utility.yul\":31785:31794   */\n      dup13\n        /* \"#utility.yul\":31781:31803   */\n      add\n        /* \"#utility.yul\":31739:31813   */\n      tag_539\n      jump\t// in\n    tag_862:\n        /* \"#utility.yul\":31729:31813   */\n      swap7\n      pop\n        /* \"#utility.yul\":31531:31823   */\n      pop\n        /* \"#utility.yul\":31862:31864   */\n      0x60\n        /* \"#utility.yul\":31888:31952   */\n      tag_863\n        /* \"#utility.yul\":31944:31951   */\n      dup12\n        /* \"#utility.yul\":31935:31941   */\n      dup3\n        /* \"#utility.yul\":31924:31933   */\n      dup13\n        /* \"#utility.yul\":31920:31942   */\n      add\n        /* \"#utility.yul\":31888:31952   */\n      tag_540\n      jump\t// in\n    tag_863:\n        /* \"#utility.yul\":31878:31952   */\n      swap6\n      pop\n        /* \"#utility.yul\":31833:31962   */\n      pop\n        /* \"#utility.yul\":32001:32004   */\n      0x80\n        /* \"#utility.yul\":32028:32092   */\n      tag_864\n        /* \"#utility.yul\":32084:32091   */\n      dup12\n        /* \"#utility.yul\":32075:32081   */\n      dup3\n        /* \"#utility.yul\":32064:32073   */\n      dup13\n        /* \"#utility.yul\":32060:32082   */\n      add\n        /* \"#utility.yul\":32028:32092   */\n      tag_517\n      jump\t// in\n    tag_864:\n        /* \"#utility.yul\":32018:32092   */\n      swap5\n      pop\n        /* \"#utility.yul\":31972:32102   */\n      pop\n        /* \"#utility.yul\":32141:32144   */\n      0xa0\n        /* \"#utility.yul\":32168:32251   */\n      tag_865\n        /* \"#utility.yul\":32243:32250   */\n      dup12\n        /* \"#utility.yul\":32234:32240   */\n      dup3\n        /* \"#utility.yul\":32223:32232   */\n      dup13\n        /* \"#utility.yul\":32219:32241   */\n      add\n        /* \"#utility.yul\":32168:32251   */\n      tag_542\n      jump\t// in\n    tag_865:\n        /* \"#utility.yul\":32158:32251   */\n      swap4\n      pop\n        /* \"#utility.yul\":32112:32261   */\n      pop\n        /* \"#utility.yul\":32300:32303   */\n      0xc0\n        /* \"#utility.yul\":32327:32391   */\n      tag_866\n        /* \"#utility.yul\":32383:32390   */\n      dup12\n        /* \"#utility.yul\":32374:32380   */\n      dup3\n        /* \"#utility.yul\":32363:32372   */\n      dup13\n        /* \"#utility.yul\":32359:32381   */\n      add\n        /* \"#utility.yul\":32327:32391   */\n      tag_517\n      jump\t// in\n    tag_866:\n        /* \"#utility.yul\":32317:32391   */\n      swap3\n      pop\n        /* \"#utility.yul\":32271:32401   */\n      pop\n        /* \"#utility.yul\":32440:32443   */\n      0xe0\n        /* \"#utility.yul\":32467:32531   */\n      tag_867\n        /* \"#utility.yul\":32523:32530   */\n      dup12\n        /* \"#utility.yul\":32514:32520   */\n      dup3\n        /* \"#utility.yul\":32503:32512   */\n      dup13\n        /* \"#utility.yul\":32499:32521   */\n      add\n        /* \"#utility.yul\":32467:32531   */\n      tag_540\n      jump\t// in\n    tag_867:\n        /* \"#utility.yul\":32457:32531   */\n      swap2\n      pop\n        /* \"#utility.yul\":32411:32541   */\n      pop\n        /* \"#utility.yul\":30543:32548   */\n      swap3\n      swap6\n      swap9\n      pop\n      swap3\n      swap6\n      swap9\n      swap1\n      swap4\n      swap7\n      pop\n      jump\t// out\n        /* \"#utility.yul\":32554:32729   */\n    tag_543:\n        /* \"#utility.yul\":32694:32721   */\n      0x436f6d6d756e69747920746f6b656e206e6f7420666f756e6400000000000000\n        /* \"#utility.yul\":32690:32691   */\n      0x00\n        /* \"#utility.yul\":32682:32688   */\n      dup3\n        /* \"#utility.yul\":32678:32692   */\n      add\n        /* \"#utility.yul\":32671:32722   */\n      mstore\n        /* \"#utility.yul\":32554:32729   */\n      pop\n      jump\t// out\n        /* \"#utility.yul\":32735:33101   */\n    tag_544:\n        /* \"#utility.yul\":32877:32880   */\n      0x00\n        /* \"#utility.yul\":32898:32965   */\n      tag_870\n        /* \"#utility.yul\":32962:32964   */\n      0x19\n        /* \"#utility.yul\":32957:32960   */\n      dup4\n        /* \"#utility.yul\":32898:32965   */\n      tag_506\n      jump\t// in\n    tag_870:\n        /* \"#utility.yul\":32891:32965   */\n      swap2\n      pop\n        /* \"#utility.yul\":32974:33067   */\n      tag_871\n        /* \"#utility.yul\":33063:33066   */\n      dup3\n        /* \"#utility.yul\":32974:33067   */\n      tag_543\n      jump\t// in\n    tag_871:\n        /* \"#utility.yul\":33092:33094   */\n      0x20\n        /* \"#utility.yul\":33087:33090   */\n      dup3\n        /* \"#utility.yul\":33083:33095   */\n      add\n        /* \"#utility.yul\":33076:33095   */\n      swap1\n      pop\n        /* \"#utility.yul\":32735:33101   */\n      swap2\n      swap1\n      pop\n      jump\t// out\n        /* \"#utility.yul\":33107:33526   */\n    tag_419:\n        /* \"#utility.yul\":33273:33277   */\n      0x00\n        /* \"#utility.yul\":33311:33313   */\n      0x20\n        /* \"#utility.yul\":33300:33309   */\n      dup3\n        /* \"#utility.yul\":33296:33314   */\n      add\n        /* \"#utility.yul\":33288:33314   */\n      swap1\n      pop\n        /* \"#utility.yul\":33360:33369   */\n      dup2\n        /* \"#utility.yul\":33354:33358   */\n      dup2\n        /* \"#utility.yul\":33350:33370   */\n      sub\n        /* \"#utility.yul\":33346:33347   */\n      0x00\n        /* \"#utility.yul\":33335:33344   */\n      dup4\n        /* \"#utility.yul\":33331:33348   */\n      add\n        /* \"#utility.yul\":33324:33371   */\n      mstore\n        /* \"#utility.yul\":33388:33519   */\n      tag_873\n        /* \"#utility.yul\":33514:33518   */\n      dup2\n        /* \"#utility.yul\":33388:33519   */\n      tag_544\n      jump\t// in\n    tag_873:\n        /* \"#utility.yul\":33380:33519   */\n      swap1\n      pop\n        /* \"#utility.yul\":33107:33526   */\n      swap2\n      swap1\n      pop\n      jump\t// out\n        /* \"#utility.yul\":33532:33630   */\n    tag_545:\n        /* \"#utility.yul\":33583:33589   */\n      0x00\n        /* \"#utility.yul\":33617:33622   */\n      dup2\n        /* \"#utility.yul\":33611:33623   */\n      mload\n        /* \"#utility.yul\":33601:33623   */\n      swap1\n      pop\n        /* \"#utility.yul\":33532:33630   */\n      swap2\n      swap1\n      pop\n      jump\t// out\n        /* \"#utility.yul\":33636:33783   */\n    tag_546:\n        /* \"#utility.yul\":33737:33748   */\n      0x00\n        /* \"#utility.yul\":33774:33777   */\n      dup2\n        /* \"#utility.yul\":33759:33777   */\n      swap1\n      pop\n        /* \"#utility.yul\":33636:33783   */\n      swap3\n      swap2\n      pop\n      pop\n      jump\t// out\n        /* \"#utility.yul\":33789:34175   */\n    tag_547:\n        /* \"#utility.yul\":33893:33896   */\n      0x00\n        /* \"#utility.yul\":33921:33959   */\n      tag_877\n        /* \"#utility.yul\":33953:33958   */\n      dup3\n        /* \"#utility.yul\":33921:33959   */\n      tag_545\n      jump\t// in\n    tag_877:\n        /* \"#utility.yul\":33975:34063   */\n      tag_878\n        /* \"#utility.yul\":34056:34062   */\n      dup2\n        /* \"#utility.yul\":34051:34054   */\n      dup6\n        /* \"#utility.yul\":33975:34063   */\n      tag_546\n      jump\t// in\n    tag_878:\n        /* \"#utility.yul\":33968:34063   */\n      swap4\n      pop\n        /* \"#utility.yul\":34072:34137   */\n      tag_879\n        /* \"#utility.yul\":34130:34136   */\n      dup2\n        /* \"#utility.yul\":34125:34128   */\n      dup6\n        /* \"#utility.yul\":34118:34122   */\n      0x20\n        /* \"#utility.yul\":34111:34116   */\n      dup7\n        /* \"#utility.yul\":34107:34123   */\n      add\n        /* \"#utility.yul\":34072:34137   */\n      tag_507\n      jump\t// in\n    tag_879:\n        /* \"#utility.yul\":34162:34168   */\n      dup1\n        /* \"#utility.yul\":34157:34160   */\n      dup5\n        /* \"#utility.yul\":34153:34169   */\n      add\n        /* \"#utility.yul\":34146:34169   */\n      swap2\n      pop\n        /* \"#utility.yul\":33897:34175   */\n      pop\n        /* \"#utility.yul\":33789:34175   */\n      swap3\n      swap2\n      pop\n      pop\n      jump\t// out\n        /* \"#utility.yul\":34181:34452   */\n    tag_432:\n        /* \"#utility.yul\":34311:34314   */\n      0x00\n        /* \"#utility.yul\":34333:34426   */\n      tag_881\n        /* \"#utility.yul\":34422:34425   */\n      dup3\n        /* \"#utility.yul\":34413:34419   */\n      dup5\n        /* \"#utility.yul\":34333:34426   */\n      tag_547\n      jump\t// in\n    tag_881:\n        /* \"#utility.yul\":34326:34426   */\n      swap2\n      pop\n        /* \"#utility.yul\":34443:34446   */\n      dup2\n        /* \"#utility.yul\":34436:34446   */\n      swap1\n      pop\n        /* \"#utility.yul\":34181:34452   */\n      swap3\n      swap2\n      pop\n      pop\n      jump\t// out\n\n    auxdata: 0xa26469706673582212205a415038f0fadc78611ba8cf5841c484219d33f20ab8ec7827299e324d9f3c7064736f6c634300081a0033\n}\n",
				"bytecode": {
					"linkReferences": {},
					"object": "60a06040523073ffffffffffffffffffffffffffffffffffffffff1660809073ffffffffffffffffffffffffffffffffffffffff16815250348015610042575f80fd5b5061005161005660201b60201c565b6101b6565b5f61006561015460201b60201c565b9050805f0160089054906101000a900460ff16156100af576040517ff92ee8a900000000000000000000000000000000000000000000000000000000815260040160405180910390fd5b67ffffffffffffffff8016815f015f9054906101000a900467ffffffffffffffff1667ffffffffffffffff16146101515767ffffffffffffffff815f015f6101000a81548167ffffffffffffffff021916908367ffffffffffffffff1602179055507fc7f505b2f371ae2175ee4913f4499e1f2633a7b5936321eed1cdaeb6115181d267ffffffffffffffff604051610148919061019d565b60405180910390a15b50565b5f7ff0c57e16840df040f15088dc2f81fe391c3923bec73e23a9662efc9c229c6a00905090565b5f67ffffffffffffffff82169050919050565b6101978161017b565b82525050565b5f6020820190506101b05f83018461018e565b92915050565b6080516134146101dc5f395f818161152401528181611579015261173301526134145ff3fe60806040526004361061011e575f3560e01c8063ad3cb1cc1161009f578063d5d8617a11610063578063d5d8617a146103a5578063de04bbd2146103e1578063e7d3f1f91461040b578063f2fde38b14610447578063fadc19301461046f5761011e565b8063ad3cb1cc146102db578063c0458ddc14610305578063c4d66de81461032d578063c56b4aed14610355578063d599ba921461037d5761011e565b8063674e9c60116100e6578063674e9c60146101f757806369c4391514610233578063715018a61461025b5780638da5cb5b14610271578063aba210091461029b5761011e565b806306428f021461012257806332eea3011461014c578063392ee8c1146101745780634f1ef286146101b157806352d1902d146101cd575b5f80fd5b34801561012d575f80fd5b50610136610497565b60405161014391906123ee565b60405180910390f35b348015610157575f80fd5b50610172600480360381019061016d919061244b565b6104ba565b005b34801561017f575f80fd5b5061019a60048036038101906101959190612489565b6104df565b6040516101a8929190612579565b60405180910390f35b6101cb60048036038101906101c69190612706565b610583565b005b3480156101d8575f80fd5b506101e16105a2565b6040516101ee9190612778565b60405180910390f35b348015610202575f80fd5b5061021d60048036038101906102189190612791565b6105d3565b60405161022a91906127fb565b60405180910390f35b34801561023e575f80fd5b50610259600480360381019061025491906128d8565b61064a565b005b348015610266575f80fd5b5061026f610b97565b005b34801561027c575f80fd5b50610285610baa565b6040516102929190612941565b60405180910390f35b3480156102a6575f80fd5b506102c160048036038101906102bc919061244b565b610bdf565b6040516102d29594939291906129cd565b60405180910390f35b3480156102e6575f80fd5b506102ef610c6d565b6040516102fc9190612a7e565b60405180910390f35b348015610310575f80fd5b5061032b60048036038101906103269190612ac1565b610ca6565b005b348015610338575f80fd5b50610353600480360381019061034e9190612b38565b610e49565b005b348015610360575f80fd5b5061037b60048036038101906103769190612b38565b610fd2565b005b348015610388575f80fd5b506103a3600480360381019061039e9190612b38565b61101c565b005b3480156103b0575f80fd5b506103cb60048036038101906103c69190612489565b611067565b6040516103d89190612b63565b60405180910390f35b3480156103ec575f80fd5b506103f5611084565b6040516104029190612b9c565b60405180910390f35b348015610416575f80fd5b50610431600480360381019061042c9190612489565b6110a9565b60405161043e9190612bb5565b60405180910390f35b348015610452575f80fd5b5061046d60048036038101906104689190612b38565b61113d565b005b34801561047a575f80fd5b506104956004803603810190610490919061244b565b6111c1565b005b5f8054906101000a900473ffffffffffffffffffffffffffffffffffffffff1681565b6104c261149b565b8060025f8481526020019081526020015f20600601819055505050565b5f6104e86122bb565b5f60025f8581526020019081526020015f20905080600601548160010180600580602002604051908101604052809291908260058015610572576020028201915b815f9054906101000a900473ffffffffffffffffffffffffffffffffffffffff1673ffffffffffffffffffffffffffffffffffffffff1681526020019060010190808311610529575b505050505090509250925050915091565b61058b611522565b61059482611608565b61059e8282611613565b5050565b5f6105ab611731565b7f360894a13ba1a3210667c828492db98dca3e2076cc3735a920a3ca505d382bbc5f1b905090565b5f60025f8581526020019081526020015f205f015f8481526020019081526020015f206004015f8373ffffffffffffffffffffffffffffffffffffffff1673ffffffffffffffffffffffffffffffffffffffff1681526020019081526020015f205f9054906101000a900460ff1690509392505050565b5f81511161068d576040517f08c379a000000000000000000000000000000000000000000000000000000000815260040161068490612c18565b60405180910390fd5b5f73ffffffffffffffffffffffffffffffffffffffff1660015f9054906101000a900473ffffffffffffffffffffffffffffffffffffffff1673ffffffffffffffffffffffffffffffffffffffff160361071c576040517f08c379a000000000000000000000000000000000000000000000000000000000815260040161071390612c80565b60405180910390fd5b5f815167ffffffffffffffff811115610738576107376125e2565b5b6040519080825280602002602001820160405280156107665781602001602082028036833780820191505090505b5090505f5b825181101561087c5760015f9054906101000a900473ffffffffffffffffffffffffffffffffffffffff1673ffffffffffffffffffffffffffffffffffffffff1663d91d97338483815181106107c4576107c3612c9e565b5b6020026020010151866040518363ffffffff1660e01b81526004016107ea929190612ccb565b602060405180830381865afa92505050801561082457506040513d601f19601f820116820180604052508101906108219190612d06565b60015b61084d575f82828151811061083c5761083b612c9e565b5b60200260200101818152505061086f565b8083838151811061086157610860612c9e565b5b602002602001018181525050505b808060010191505061076b565b505f600583511061088e576005610891565b82515b905061089b6122bb565b5f5b82811015610acc575f8190505f6001836108b79190612d5e565b90505b8651811015610910578582815181106108d6576108d5612c9e565b5b60200260200101518682815181106108f1576108f0612c9e565b5b60200260200101511115610903578091505b80806001019150506108ba565b50818114610a595785818151811061092b5761092a612c9e565b5b602002602001015186838151811061094657610945612c9e565b5b602002602001015187848151811061096157610960612c9e565b5b6020026020010188848151811061097b5761097a612c9e565b5b602002602001018273ffffffffffffffffffffffffffffffffffffffff1673ffffffffffffffffffffffffffffffffffffffff168152508273ffffffffffffffffffffffffffffffffffffffff1673ffffffffffffffffffffffffffffffffffffffff1681525050508481815181106109f7576109f6612c9e565b5b6020026020010151858381518110610a1257610a11612c9e565b5b6020026020010151868481518110610a2d57610a2c612c9e565b5b60200260200101878481518110610a4757610a46612c9e565b5b60200260200101828152508281525050505b858281518110610a6c57610a6b612c9e565b5b6020026020010151838360058110610a8757610a86612c9e565b5b602002019073ffffffffffffffffffffffffffffffffffffffff16908173ffffffffffffffffffffffffffffffffffffffff168152505050808060010191505061089d565b505f8290505b6005811015610b33575f828260058110610aef57610aee612c9e565b5b602002019073ffffffffffffffffffffffffffffffffffffffff16908173ffffffffffffffffffffffffffffffffffffffff16815250508080600101915050610ad2565b508060025f8781526020019081526020015f20600101906005610b579291906122dd565b50847f0d725b01f2a8656cdf0767f5c4125384f89eb28243de781481360d45343029cb82604051610b889190612bb5565b60405180910390a25050505050565b610b9f61149b565b610ba85f6117b8565b565b5f80610bb4611889565b9050805f015f9054906101000a900473ffffffffffffffffffffffffffffffffffffffff1691505090565b5f805f805f8060025f8981526020019081526020015f205f015f8881526020019081526020015f209050805f015f9054906101000a900460ff168160010154826002015f9054906101000a900473ffffffffffffffffffffffffffffffffffffffff168360030154846005015f9054906101000a900460ff1695509550955095509550509295509295909350565b6040518060400160405280600581526020017f352e302e3000000000000000000000000000000000000000000000000000000081525081565b5f60025f8781526020019081526020015f205f015f8681526020019081526020015f206003015414610d0d576040517f08c379a0000000000000000000000000000000000000000000000000000000008152600401610d0490612ddb565b60405180910390fd5b5f60025f8781526020019081526020015f205f015f8681526020019081526020015f20905083815f015f6101000a81548160ff02191690836002811115610d5757610d5661295a565b5b021790555082816001018190555081816002015f6101000a81548173ffffffffffffffffffffffffffffffffffffffff021916908373ffffffffffffffffffffffffffffffffffffffff160217905550600181600301819055506001816004015f3373ffffffffffffffffffffffffffffffffffffffff1673ffffffffffffffffffffffffffffffffffffffff1681526020019081526020015f205f6101000a81548160ff02191690831515021790555084867fb6e96f518c19cffcfba1957109656f5d029c7562f7b417e9556d302c857c090f86604051610e399190612df9565b60405180910390a3505050505050565b5f610e526118b0565b90505f815f0160089054906101000a900460ff161590505f825f015f9054906101000a900467ffffffffffffffff1690505f808267ffffffffffffffff16148015610e9a5750825b90505f60018367ffffffffffffffff16148015610ecd57505f3073ffffffffffffffffffffffffffffffffffffffff163b145b905081158015610edb575080155b15610f12576040517ff92ee8a900000000000000000000000000000000000000000000000000000000815260040160405180910390fd5b6001855f015f6101000a81548167ffffffffffffffff021916908367ffffffffffffffff1602179055508315610f5f576001855f0160086101000a81548160ff0219169083151502179055505b610f68866118d7565b610f706118eb565b8315610fca575f855f0160086101000a81548160ff0219169083151502179055507fc7f505b2f371ae2175ee4913f4499e1f2633a7b5936321eed1cdaeb6115181d26001604051610fc19190612e5e565b60405180910390a15b505050505050565b610fda61149b565b805f806101000a81548173ffffffffffffffffffffffffffffffffffffffff021916908373ffffffffffffffffffffffffffffffffffffffff16021790555050565b61102461149b565b8060015f6101000a81548173ffffffffffffffffffffffffffffffffffffffff021916908373ffffffffffffffffffffffffffffffffffffffff16021790555050565b5f60025f8381526020019081526020015f20600601549050919050565b60015f9054906101000a900473ffffffffffffffffffffffffffffffffffffffff1681565b6110b16122bb565b60025f8381526020019081526020015f20600101600580602002604051908101604052809291908260058015611131576020028201915b815f9054906101000a900473ffffffffffffffffffffffffffffffffffffffff1673ffffffffffffffffffffffffffffffffffffffff16815260200190600101908083116110e8575b50505050509050919050565b61114561149b565b5f73ffffffffffffffffffffffffffffffffffffffff168173ffffffffffffffffffffffffffffffffffffffff16036111b5575f6040517f1e4fbdf70000000000000000000000000000000000000000000000000000000081526004016111ac9190612941565b60405180910390fd5b6111be816117b8565b50565b61124f3360025f8581526020019081526020015f20600101600580602002604051908101604052809291908260058015611245576020028201915b815f9054906101000a900473ffffffffffffffffffffffffffffffffffffffff1673ffffffffffffffffffffffffffffffffffffffff16815260200190600101908083116111fc575b50505050506118f5565b61128e576040517f08c379a000000000000000000000000000000000000000000000000000000000815260040161128590612ec1565b60405180910390fd5b5f60025f8481526020019081526020015f205f015f8381526020019081526020015f2090505f8160030154116112f9576040517f08c379a00000000000000000000000000000000000000000000000000000000081526004016112f090612f29565b60405180910390fd5b806005015f9054906101000a900460ff161561134a576040517f08c379a000000000000000000000000000000000000000000000000000000000815260040161134190612f91565b60405180910390fd5b806004015f3373ffffffffffffffffffffffffffffffffffffffff1673ffffffffffffffffffffffffffffffffffffffff1681526020019081526020015f205f9054906101000a900460ff16156113d6576040517f08c379a00000000000000000000000000000000000000000000000000000000081526004016113cd90612ff9565b60405180910390fd5b6001816004015f3373ffffffffffffffffffffffffffffffffffffffff1673ffffffffffffffffffffffffffffffffffffffff1681526020019081526020015f205f6101000a81548160ff021916908315150217905550806003015f81548092919061144190613017565b919050555081837f256519eb26d028f45eb678b9c4cf084619387132430e282b40fd12a40b4e2732336040516114779190612941565b60405180910390a360038160030154106114965761149583836119bb565b5b505050565b6114a3611bcd565b73ffffffffffffffffffffffffffffffffffffffff166114c1610baa565b73ffffffffffffffffffffffffffffffffffffffff1614611520576114e4611bcd565b6040517f118cdaa70000000000000000000000000000000000000000000000000000000081526004016115179190612941565b60405180910390fd5b565b7f000000000000000000000000000000000000000000000000000000000000000073ffffffffffffffffffffffffffffffffffffffff163073ffffffffffffffffffffffffffffffffffffffff1614806115cf57507f000000000000000000000000000000000000000000000000000000000000000073ffffffffffffffffffffffffffffffffffffffff166115b6611bd4565b73ffffffffffffffffffffffffffffffffffffffff1614155b15611606576040517fe07c8dba00000000000000000000000000000000000000000000000000000000815260040160405180910390fd5b565b61161061149b565b50565b8173ffffffffffffffffffffffffffffffffffffffff166352d1902d6040518163ffffffff1660e01b8152600401602060405180830381865afa92505050801561167b57506040513d601f19601f820116820180604052508101906116789190613088565b60015b6116bc57816040517f4c9c8ce30000000000000000000000000000000000000000000000000000000081526004016116b39190612941565b60405180910390fd5b7f360894a13ba1a3210667c828492db98dca3e2076cc3735a920a3ca505d382bbc5f1b811461172257806040517faa1d49a40000000000000000000000000000000000000000000000000000000081526004016117199190612778565b60405180910390fd5b61172c8383611c27565b505050565b7f000000000000000000000000000000000000000000000000000000000000000073ffffffffffffffffffffffffffffffffffffffff163073ffffffffffffffffffffffffffffffffffffffff16146117b6576040517fe07c8dba00000000000000000000000000000000000000000000000000000000815260040160405180910390fd5b565b5f6117c1611889565b90505f815f015f9054906101000a900473ffffffffffffffffffffffffffffffffffffffff16905082825f015f6101000a81548173ffffffffffffffffffffffffffffffffffffffff021916908373ffffffffffffffffffffffffffffffffffffffff1602179055508273ffffffffffffffffffffffffffffffffffffffff168173ffffffffffffffffffffffffffffffffffffffff167f8be0079c531659141344cd1fd0a4f28419497f9722a3daafe3b4186f6b6457e060405160405180910390a3505050565b5f7f9016d09d72d40fdae2fd8ceac6b6234c7706214fd39c1cd1e609a0528c199300905090565b5f7ff0c57e16840df040f15088dc2f81fe391c3923bec73e23a9662efc9c229c6a00905090565b6118df611c99565b6118e881611cd9565b50565b6118f3611c99565b565b5f805f90505b60058110156119b0578373ffffffffffffffffffffffffffffffffffffffff1683826005811061192e5761192d612c9e565b5b602002015173ffffffffffffffffffffffffffffffffffffffff16036119585760019150506119b5565b5f73ffffffffffffffffffffffffffffffffffffffff1683826005811061198257611981612c9e565b5b602002015173ffffffffffffffffffffffffffffffffffffffff1603156119b05780806001019150506118fb565b505f90505b92915050565b5f60025f8481526020019081526020015f205f015f8381526020019081526020015f209050806005015f9054906101000a900460ff1615611a31576040517f08c379a0000000000000000000000000000000000000000000000000000000008152600401611a2890612f91565b60405180910390fd5b600381600301541015611a79576040517f08c379a0000000000000000000000000000000000000000000000000000000008152600401611a70906130fd565b60405180910390fd5b6001816005015f6101000a81548160ff0219169083151502179055505f6002811115611aa857611aa761295a565b5b815f015f9054906101000a900460ff166002811115611aca57611ac961295a565b5b03611b0157611afc83826002015f9054906101000a900473ffffffffffffffffffffffffffffffffffffffff16611d5d565b611b9a565b60016002811115611b1557611b1461295a565b5b815f015f9054906101000a900460ff166002811115611b3757611b3661295a565b5b03611b4f57611b4a838260010154611e2c565b611b99565b600280811115611b6257611b6161295a565b5b815f015f9054906101000a900460ff166002811115611b8457611b8361295a565b5b03611b9857611b97838260010154611e81565b5b5b5b81837ff758fc91e01b00ea6b4a6138756f7f28e021f9bf21db6dbf8c36c88eb737257a60405160405180910390a3505050565b5f33905090565b5f611c007f360894a13ba1a3210667c828492db98dca3e2076cc3735a920a3ca505d382bbc5f1b61203e565b5f015f9054906101000a900473ffffffffffffffffffffffffffffffffffffffff16905090565b611c3082612047565b8173ffffffffffffffffffffffffffffffffffffffff167fbc7cd75a20ee27fd9adebab32041f755214dbc6bffa90cc0225b39da2e5c2d3b60405160405180910390a25f81511115611c8c57611c868282612110565b50611c95565b611c94612190565b5b5050565b611ca16121cc565b611cd7576040517fd7e6bcf800000000000000000000000000000000000000000000000000000000815260040160405180910390fd5b565b611ce1611c99565b5f73ffffffffffffffffffffffffffffffffffffffff168173ffffffffffffffffffffffffffffffffffffffff1603611d51575f6040517f1e4fbdf7000000000000000000000000000000000000000000000000000000008152600401611d489190612941565b60405180910390fd5b611d5a816117b8565b50565b5f8054906101000a900473ffffffffffffffffffffffffffffffffffffffff1673ffffffffffffffffffffffffffffffffffffffff16633997c65683836040518363ffffffff1660e01b8152600401611db792919061311b565b5f604051808303815f87803b158015611dce575f80fd5b505af1158015611de0573d5f803e3d5ffd5b505050508073ffffffffffffffffffffffffffffffffffffffff16827f1c4c9d2e56d0635d11bc47c997c6909a0d7061f55cbb8f4b27386db37553191c60405160405180910390a35050565b8060025f8481526020019081526020015f2060060181905550817f103d67daee120044227f39544f0c57945acf17897f464eefc95e6cbd4a17d3b482604051611e759190612b63565b60405180910390a25050565b5f805f9054906101000a900473ffffffffffffffffffffffffffffffffffffffff1673ffffffffffffffffffffffffffffffffffffffff166399664245846040518263ffffffff1660e01b8152600401611edb9190612b63565b5f60405180830381865afa158015611ef5573d5f803e3d5ffd5b505050506040513d5f823e3d601f19601f82011682018060405250810190611f1d9190613217565b9750505050505050505f73ffffffffffffffffffffffffffffffffffffffff168173ffffffffffffffffffffffffffffffffffffffff1603611f94576040517f08c379a0000000000000000000000000000000000000000000000000000000008152600401611f8b90613366565b60405180910390fd5b5f8190508073ffffffffffffffffffffffffffffffffffffffff166340c10f1930856040518363ffffffff1660e01b8152600401611fd3929190612ccb565b5f604051808303815f87803b158015611fea575f80fd5b505af1158015611ffc573d5f803e3d5ffd5b50505050837fc61c8e2899bd86923bda7268d6d1b42d8e644ff3dedc13d41d5b798e4aa35237846040516120309190612b63565b60405180910390a250505050565b5f819050919050565b5f8173ffffffffffffffffffffffffffffffffffffffff163b036120a257806040517f4c9c8ce30000000000000000000000000000000000000000000000000000000081526004016120999190612941565b60405180910390fd5b806120ce7f360894a13ba1a3210667c828492db98dca3e2076cc3735a920a3ca505d382bbc5f1b61203e565b5f015f6101000a81548173ffffffffffffffffffffffffffffffffffffffff021916908373ffffffffffffffffffffffffffffffffffffffff16021790555050565b60605f808473ffffffffffffffffffffffffffffffffffffffff168460405161213991906133c8565b5f60405180830381855af49150503d805f8114612171576040519150601f19603f3d011682016040523d82523d5f602084013e612176565b606091505b50915091506121868583836121ea565b9250505092915050565b5f3411156121ca576040517fb398979f00000000000000000000000000000000000000000000000000000000815260040160405180910390fd5b565b5f6121d56118b0565b5f0160089054906101000a900460ff16905090565b6060826121ff576121fa82612277565b61226f565b5f825114801561222557505f8473ffffffffffffffffffffffffffffffffffffffff163b145b1561226757836040517f9996b31500000000000000000000000000000000000000000000000000000000815260040161225e9190612941565b60405180910390fd5b819050612270565b5b9392505050565b5f815111156122895780518082602001fd5b6040517f1425ea4200000000000000000000000000000000000000000000000000000000815260040160405180910390fd5b6040518060a00160405280600590602082028036833780820191505090505090565b8260058101928215612348579160200282015b82811115612347578251825f6101000a81548173ffffffffffffffffffffffffffffffffffffffff021916908373ffffffffffffffffffffffffffffffffffffffff160217905550916020019190600101906122f0565b5b5090506123559190612359565b5090565b5b80821115612370575f815f90555060010161235a565b5090565b5f73ffffffffffffffffffffffffffffffffffffffff82169050919050565b5f819050919050565b5f6123b66123b16123ac84612374565b612393565b612374565b9050919050565b5f6123c78261239c565b9050919050565b5f6123d8826123bd565b9050919050565b6123e8816123ce565b82525050565b5f6020820190506124015f8301846123df565b92915050565b5f604051905090565b5f80fd5b5f80fd5b5f819050919050565b61242a81612418565b8114612434575f80fd5b50565b5f8135905061244581612421565b92915050565b5f806040838503121561246157612460612410565b5b5f61246e85828601612437565b925050602061247f85828601612437565b9150509250929050565b5f6020828403121561249e5761249d612410565b5b5f6124ab84828501612437565b91505092915050565b6124bd81612418565b82525050565b5f60059050919050565b5f81905092915050565b5f819050919050565b5f6124ea82612374565b9050919050565b6124fa816124e0565b82525050565b5f61250b83836124f1565b60208301905092915050565b5f602082019050919050565b61252c816124c3565b61253681846124cd565b9250612541826124d7565b805f5b838110156125715781516125588782612500565b965061256383612517565b925050600181019050612544565b505050505050565b5f60c08201905061258c5f8301856124b4565b6125996020830184612523565b9392505050565b6125a9816124e0565b81146125b3575f80fd5b50565b5f813590506125c4816125a0565b92915050565b5f80fd5b5f80fd5b5f601f19601f8301169050919050565b7f4e487b71000000000000000000000000000000000000000000000000000000005f52604160045260245ffd5b612618826125d2565b810181811067ffffffffffffffff82111715612637576126366125e2565b5b80604052505050565b5f612649612407565b9050612655828261260f565b919050565b5f67ffffffffffffffff821115612674576126736125e2565b5b61267d826125d2565b9050602081019050919050565b828183375f83830152505050565b5f6126aa6126a58461265a565b612640565b9050828152602081018484840111156126c6576126c56125ce565b5b6126d184828561268a565b509392505050565b5f82601f8301126126ed576126ec6125ca565b5b81356126fd848260208601612698565b91505092915050565b5f806040838503121561271c5761271b612410565b5b5f612729858286016125b6565b925050602083013567ffffffffffffffff81111561274a57612749612414565b5b612756858286016126d9565b9150509250929050565b5f819050919050565b61277281612760565b82525050565b5f60208201905061278b5f830184612769565b92915050565b5f805f606084860312156127a8576127a7612410565b5b5f6127b586828701612437565b93505060206127c686828701612437565b92505060406127d7868287016125b6565b9150509250925092565b5f8115159050919050565b6127f5816127e1565b82525050565b5f60208201905061280e5f8301846127ec565b92915050565b5f67ffffffffffffffff82111561282e5761282d6125e2565b5b602082029050602081019050919050565b5f80fd5b5f61285561285084612814565b612640565b905080838252602082019050602084028301858111156128785761287761283f565b5b835b818110156128a1578061288d88826125b6565b84526020840193505060208101905061287a565b5050509392505050565b5f82601f8301126128bf576128be6125ca565b5b81356128cf848260208601612843565b91505092915050565b5f80604083850312156128ee576128ed612410565b5b5f6128fb85828601612437565b925050602083013567ffffffffffffffff81111561291c5761291b612414565b5b612928858286016128ab565b9150509250929050565b61293b816124e0565b82525050565b5f6020820190506129545f830184612932565b92915050565b7f4e487b71000000000000000000000000000000000000000000000000000000005f52602160045260245ffd5b600381106129985761299761295a565b5b50565b5f8190506129a882612987565b919050565b5f6129b78261299b565b9050919050565b6129c7816129ad565b82525050565b5f60a0820190506129e05f8301886129be565b6129ed60208301876124b4565b6129fa6040830186612932565b612a0760608301856124b4565b612a1460808301846127ec565b9695505050505050565b5f81519050919050565b5f82825260208201905092915050565b8281835e5f83830152505050565b5f612a5082612a1e565b612a5a8185612a28565b9350612a6a818560208601612a38565b612a73816125d2565b840191505092915050565b5f6020820190508181035f830152612a968184612a46565b905092915050565b60038110612aaa575f80fd5b50565b5f81359050612abb81612a9e565b92915050565b5f805f805f60a08688031215612ada57612ad9612410565b5b5f612ae788828901612437565b9550506020612af888828901612437565b9450506040612b0988828901612aad565b9350506060612b1a88828901612437565b9250506080612b2b888289016125b6565b9150509295509295909350565b5f60208284031215612b4d57612b4c612410565b5b5f612b5a848285016125b6565b91505092915050565b5f602082019050612b765f8301846124b4565b92915050565b5f612b86826123bd565b9050919050565b612b9681612b7c565b82525050565b5f602082019050612baf5f830184612b8d565b92915050565b5f60a082019050612bc85f830184612523565b92915050565b7f436f6d6d756e697479206d7573742068617665206d656d6265727300000000005f82015250565b5f612c02601b83612a28565b9150612c0d82612bce565b602082019050919050565b5f6020820190508181035f830152612c2f81612bf6565b9050919050565b7f436f6e747269627574696f6e7320636f6e7472616374206e6f742073657400005f82015250565b5f612c6a601e83612a28565b9150612c7582612c36565b602082019050919050565b5f6020820190508181035f830152612c9781612c5e565b9050919050565b7f4e487b71000000000000000000000000000000000000000000000000000000005f52603260045260245ffd5b5f604082019050612cde5f830185612932565b612ceb60208301846124b4565b9392505050565b5f81519050612d0081612421565b92915050565b5f60208284031215612d1b57612d1a612410565b5b5f612d2884828501612cf2565b91505092915050565b7f4e487b71000000000000000000000000000000000000000000000000000000005f52601160045260245ffd5b5f612d6882612418565b9150612d7383612418565b9250828201905080821115612d8b57612d8a612d31565b5b92915050565b7f50726f706f73616c20494420616c7265616479206578697374730000000000005f82015250565b5f612dc5601a83612a28565b9150612dd082612d91565b602082019050919050565b5f6020820190508181035f830152612df281612db9565b9050919050565b5f602082019050612e0c5f8301846129be565b92915050565b5f819050919050565b5f67ffffffffffffffff82169050919050565b5f612e48612e43612e3e84612e12565b612393565b612e1b565b9050919050565b612e5881612e2e565b82525050565b5f602082019050612e715f830184612e4f565b92915050565b7f4e6f7420617574686f72697a65640000000000000000000000000000000000005f82015250565b5f612eab600e83612a28565b9150612eb682612e77565b602082019050919050565b5f6020820190508181035f830152612ed881612e9f565b9050919050565b7f50726f706f73616c20646f6573206e6f742065786973740000000000000000005f82015250565b5f612f13601783612a28565b9150612f1e82612edf565b602082019050919050565b5f6020820190508181035f830152612f4081612f07565b9050919050565b7f50726f706f73616c20616c7265616479206578656375746564000000000000005f82015250565b5f612f7b601983612a28565b9150612f8682612f47565b602082019050919050565b5f6020820190508181035f830152612fa881612f6f565b9050919050565b7f416c7265616479207369676e65640000000000000000000000000000000000005f82015250565b5f612fe3600e83612a28565b9150612fee82612faf565b602082019050919050565b5f6020820190508181035f83015261301081612fd7565b9050919050565b5f61302182612418565b91507fffffffffffffffffffffffffffffffffffffffffffffffffffffffffffffffff820361305357613052612d31565b5b600182019050919050565b61306781612760565b8114613071575f80fd5b50565b5f815190506130828161305e565b92915050565b5f6020828403121561309d5761309c612410565b5b5f6130aa84828501613074565b91505092915050565b7f4e6f7420656e6f756768207369676e61747572657300000000000000000000005f82015250565b5f6130e7601583612a28565b91506130f2826130b3565b602082019050919050565b5f6020820190508181035f830152613114816130db565b9050919050565b5f60408201905061312e5f8301856124b4565b61313b6020830184612932565b9392505050565b5f67ffffffffffffffff82111561315c5761315b6125e2565b5b613165826125d2565b9050602081019050919050565b5f61318461317f84613142565b612640565b9050828152602081018484840111156131a05761319f6125ce565b5b6131ab848285612a38565b509392505050565b5f82601f8301126131c7576131c66125ca565b5b81516131d7848260208601613172565b91505092915050565b5f815190506131ee816125a0565b92915050565b60028110613200575f80fd5b50565b5f81519050613211816131f4565b92915050565b5f805f805f805f80610100898b03121561323457613233612410565b5b5f89015167ffffffffffffffff81111561325157613250612414565b5b61325d8b828c016131b3565b985050602089015167ffffffffffffffff81111561327e5761327d612414565b5b61328a8b828c016131b3565b975050604089015167ffffffffffffffff8111156132ab576132aa612414565b5b6132b78b828c016131b3565b96505060606132c88b828c016131e0565b95505060806132d98b828c01612cf2565b94505060a06132ea8b828c01613203565b93505060c06132fb8b828c01612cf2565b92505060e061330c8b828c016131e0565b9150509295985092959890939650565b7f436f6d6d756e69747920746f6b656e206e6f7420666f756e64000000000000005f82015250565b5f613350601983612a28565b915061335b8261331c565b602082019050919050565b5f6020820190508181035f83015261337d81613344565b9050919050565b5f81519050919050565b5f81905092915050565b5f6133a282613384565b6133ac818561338e565b93506133bc818560208601612a38565b80840191505092915050565b5f6133d38284613398565b91508190509291505056fea26469706673582212205a415038f0fadc78611ba8cf5841c484219d33f20ab8ec7827299e324d9f3c7064736f6c634300081a0033",
					"opcodes": "PUSH1 0xA0 PUSH1 0x40 MSTORE ADDRESS PUSH20 0xFFFFFFFFFFFFFFFFFFFFFFFFFFFFFFFFFFFFFFFF AND PUSH1 0x80 SWAP1 PUSH20 0xFFFFFFFFFFFFFFFFFFFFFFFFFFFFFFFFFFFFFFFF AND DUP2 MSTORE POP CALLVALUE DUP1 ISZERO PUSH2 0x42 JUMPI PUSH0 DUP1 REVERT JUMPDEST POP PUSH2 0x51 PUSH2 0x56 PUSH1 0x20 SHL PUSH1 0x20 SHR JUMP JUMPDEST PUSH2 0x1B6 JUMP JUMPDEST PUSH0 PUSH2 0x65 PUSH2 0x154 PUSH1 0x20 SHL PUSH1 0x20 SHR JUMP JUMPDEST SWAP1 POP DUP1 PUSH0 ADD PUSH1 0x8 SWAP1 SLOAD SWAP1 PUSH2 0x100 EXP SWAP1 DIV PUSH1 0xFF AND ISZERO PUSH2 0xAF JUMPI PUSH1 0x40 MLOAD PUSH32 0xF92EE8A900000000000000000000000000000000000000000000000000000000 DUP2 MSTORE PUSH1 0x4 ADD PUSH1 0x40 MLOAD DUP1 SWAP2 SUB SWAP1 REVERT JUMPDEST PUSH8 0xFFFFFFFFFFFFFFFF DUP1 AND DUP2 PUSH0 ADD PUSH0 SWAP1 SLOAD SWAP1 PUSH2 0x100 EXP SWAP1 DIV PUSH8 0xFFFFFFFFFFFFFFFF AND PUSH8 0xFFFFFFFFFFFFFFFF AND EQ PUSH2 0x151 JUMPI PUSH8 0xFFFFFFFFFFFFFFFF DUP2 PUSH0 ADD PUSH0 PUSH2 0x100 EXP DUP2 SLOAD DUP2 PUSH8 0xFFFFFFFFFFFFFFFF MUL NOT AND SWAP1 DUP4 PUSH8 0xFFFFFFFFFFFFFFFF AND MUL OR SWAP1 SSTORE POP PUSH32 0xC7F505B2F371AE2175EE4913F4499E1F2633A7B5936321EED1CDAEB6115181D2 PUSH8 0xFFFFFFFFFFFFFFFF PUSH1 0x40 MLOAD PUSH2 0x148 SWAP2 SWAP1 PUSH2 0x19D JUMP JUMPDEST PUSH1 0x40 MLOAD DUP1 SWAP2 SUB SWAP1 LOG1 JUMPDEST POP JUMP JUMPDEST PUSH0 PUSH32 0xF0C57E16840DF040F15088DC2F81FE391C3923BEC73E23A9662EFC9C229C6A00 SWAP1 POP SWAP1 JUMP JUMPDEST PUSH0 PUSH8 0xFFFFFFFFFFFFFFFF DUP3 AND SWAP1 POP SWAP2 SWAP1 POP JUMP JUMPDEST PUSH2 0x197 DUP2 PUSH2 0x17B JUMP JUMPDEST DUP3 MSTORE POP POP JUMP JUMPDEST PUSH0 PUSH1 0x20 DUP3 ADD SWAP1 POP PUSH2 0x1B0 PUSH0 DUP4 ADD DUP5 PUSH2 0x18E JUMP JUMPDEST SWAP3 SWAP2 POP POP JUMP JUMPDEST PUSH1 0x80 MLOAD PUSH2 0x3414 PUSH2 0x1DC PUSH0 CODECOPY PUSH0 DUP2 DUP2 PUSH2 0x1524 ADD MSTORE DUP2 DUP2 PUSH2 0x1579 ADD MSTORE PUSH2 0x1733 ADD MSTORE PUSH2 0x3414 PUSH0 RETURN INVALID PUSH1 0x80 PUSH1 0x40 MSTORE PUSH1 0x4 CALLDATASIZE LT PUSH2 0x11E JUMPI PUSH0 CALLDATALOAD PUSH1 0xE0 SHR DUP1 PUSH4 0xAD3CB1CC GT PUSH2 0x9F JUMPI DUP1 PUSH4 0xD5D8617A GT PUSH2 0x63 JUMPI DUP1 PUSH4 0xD5D8617A EQ PUSH2 0x3A5 JUMPI DUP1 PUSH4 0xDE04BBD2 EQ PUSH2 0x3E1 JUMPI DUP1 PUSH4 0xE7D3F1F9 EQ PUSH2 0x40B JUMPI DUP1 PUSH4 0xF2FDE38B EQ PUSH2 0x447 JUMPI DUP1 PUSH4 0xFADC1930 EQ PUSH2 0x46F JUMPI PUSH2 0x11E JUMP JUMPDEST DUP1 PUSH4 0xAD3CB1CC EQ PUSH2 0x2DB JUMPI DUP1 PUSH4 0xC0458DDC EQ PUSH2 0x305 JUMPI DUP1 PUSH4 0xC4D66DE8 EQ PUSH2 0x32D JUMPI DUP1 PUSH4 0xC56B4AED EQ PUSH2 0x355 JUMPI DUP1 PUSH4 0xD599BA92 EQ PUSH2 0x37D JUMPI PUSH2 0x11E JUMP JUMPDEST DUP1 PUSH4 0x674E9C60 GT PUSH2 0xE6 JUMPI DUP1 PUSH4 0x674E9C60 EQ PUSH2 0x1F7 JUMPI DUP1 PUSH4 0x69C43915 EQ PUSH2 0x233 JUMPI DUP1 PUSH4 0x715018A6 EQ PUSH2 0x25B JUMPI DUP1 PUSH4 0x8DA5CB5B EQ PUSH2 0x271 JUMPI DUP1 PUSH4 0xABA21009 EQ PUSH2 0x29B JUMPI PUSH2 0x11E JUMP JUMPDEST DUP1 PUSH4 0x6428F02 EQ PUSH2 0x122 JUMPI DUP1 PUSH4 0x32EEA301 EQ PUSH2 0x14C JUMPI DUP1 PUSH4 0x392EE8C1 EQ PUSH2 0x174 JUMPI DUP1 PUSH4 0x4F1EF286 EQ PUSH2 0x1B1 JUMPI DUP1 PUSH4 0x52D1902D EQ PUSH2 0x1CD JUMPI JUMPDEST PUSH0 DUP1 REVERT JUMPDEST CALLVALUE DUP1 ISZERO PUSH2 0x12D JUMPI PUSH0 DUP1 REVERT JUMPDEST POP PUSH2 0x136 PUSH2 0x497 JUMP JUMPDEST PUSH1 0x40 MLOAD PUSH2 0x143 SWAP2 SWAP1 PUSH2 0x23EE JUMP JUMPDEST PUSH1 0x40 MLOAD DUP1 SWAP2 SUB SWAP1 RETURN JUMPDEST CALLVALUE DUP1 ISZERO PUSH2 0x157 JUMPI PUSH0 DUP1 REVERT JUMPDEST POP PUSH2 0x172 PUSH1 0x4 DUP1 CALLDATASIZE SUB DUP2 ADD SWAP1 PUSH2 0x16D SWAP2 SWAP1 PUSH2 0x244B JUMP JUMPDEST PUSH2 0x4BA JUMP JUMPDEST STOP JUMPDEST CALLVALUE DUP1 ISZERO PUSH2 0x17F JUMPI PUSH0 DUP1 REVERT JUMPDEST POP PUSH2 0x19A PUSH1 0x4 DUP1 CALLDATASIZE SUB DUP2 ADD SWAP1 PUSH2 0x195 SWAP2 SWAP1 PUSH2 0x2489 JUMP JUMPDEST PUSH2 0x4DF JUMP JUMPDEST PUSH1 0x40 MLOAD PUSH2 0x1A8 SWAP3 SWAP2 SWAP1 PUSH2 0x2579 JUMP JUMPDEST PUSH1 0x40 MLOAD DUP1 SWAP2 SUB SWAP1 RETURN JUMPDEST PUSH2 0x1CB PUSH1 0x4 DUP1 CALLDATASIZE SUB DUP2 ADD SWAP1 PUSH2 0x1C6 SWAP2 SWAP1 PUSH2 0x2706 JUMP JUMPDEST PUSH2 0x583 JUMP JUMPDEST STOP JUMPDEST CALLVALUE DUP1 ISZERO PUSH2 0x1D8 JUMPI PUSH0 DUP1 REVERT JUMPDEST POP PUSH2 0x1E1 PUSH2 0x5A2 JUMP JUMPDEST PUSH1 0x40 MLOAD PUSH2 0x1EE SWAP2 SWAP1 PUSH2 0x2778 JUMP JUMPDEST PUSH1 0x40 MLOAD DUP1 SWAP2 SUB SWAP1 RETURN JUMPDEST CALLVALUE DUP1 ISZERO PUSH2 0x202 JUMPI PUSH0 DUP1 REVERT JUMPDEST POP PUSH2 0x21D PUSH1 0x4 DUP1 CALLDATASIZE SUB DUP2 ADD SWAP1 PUSH2 0x218 SWAP2 SWAP1 PUSH2 0x2791 JUMP JUMPDEST PUSH2 0x5D3 JUMP JUMPDEST PUSH1 0x40 MLOAD PUSH2 0x22A SWAP2 SWAP1 PUSH2 0x27FB JUMP JUMPDEST PUSH1 0x40 MLOAD DUP1 SWAP2 SUB SWAP1 RETURN JUMPDEST CALLVALUE DUP1 ISZERO PUSH2 0x23E JUMPI PUSH0 DUP1 REVERT JUMPDEST POP PUSH2 0x259 PUSH1 0x4 DUP1 CALLDATASIZE SUB DUP2 ADD SWAP1 PUSH2 0x254 SWAP2 SWAP1 PUSH2 0x28D8 JUMP JUMPDEST PUSH2 0x64A JUMP JUMPDEST STOP JUMPDEST CALLVALUE DUP1 ISZERO PUSH2 0x266 JUMPI PUSH0 DUP1 REVERT JUMPDEST POP PUSH2 0x26F PUSH2 0xB97 JUMP JUMPDEST STOP JUMPDEST CALLVALUE DUP1 ISZERO PUSH2 0x27C JUMPI PUSH0 DUP1 REVERT JUMPDEST POP PUSH2 0x285 PUSH2 0xBAA JUMP JUMPDEST PUSH1 0x40 MLOAD PUSH2 0x292 SWAP2 SWAP1 PUSH2 0x2941 JUMP JUMPDEST PUSH1 0x40 MLOAD DUP1 SWAP2 SUB SWAP1 RETURN JUMPDEST CALLVALUE DUP1 ISZERO PUSH2 0x2A6 JUMPI PUSH0 DUP1 REVERT JUMPDEST POP PUSH2 0x2C1 PUSH1 0x4 DUP1 CALLDATASIZE SUB DUP2 ADD SWAP1 PUSH2 0x2BC SWAP2 SWAP1 PUSH2 0x244B JUMP JUMPDEST PUSH2 0xBDF JUMP JUMPDEST PUSH1 0x40 MLOAD PUSH2 0x2D2 SWAP6 SWAP5 SWAP4 SWAP3 SWAP2 SWAP1 PUSH2 0x29CD JUMP JUMPDEST PUSH1 0x40 MLOAD DUP1 SWAP2 SUB SWAP1 RETURN JUMPDEST CALLVALUE DUP1 ISZERO PUSH2 0x2E6 JUMPI PUSH0 DUP1 REVERT JUMPDEST POP PUSH2 0x2EF PUSH2 0xC6D JUMP JUMPDEST PUSH1 0x40 MLOAD PUSH2 0x2FC SWAP2 SWAP1 PUSH2 0x2A7E JUMP JUMPDEST PUSH1 0x40 MLOAD DUP1 SWAP2 SUB SWAP1 RETURN JUMPDEST CALLVALUE DUP1 ISZERO PUSH2 0x310 JUMPI PUSH0 DUP1 REVERT JUMPDEST POP PUSH2 0x32B PUSH1 0x4 DUP1 CALLDATASIZE SUB DUP2 ADD SWAP1 PUSH2 0x326 SWAP2 SWAP1 PUSH2 0x2AC1 JUMP JUMPDEST PUSH2 0xCA6 JUMP JUMPDEST STOP JUMPDEST CALLVALUE DUP1 ISZERO PUSH2 0x338 JUMPI PUSH0 DUP1 REVERT JUMPDEST POP PUSH2 0x353 PUSH1 0x4 DUP1 CALLDATASIZE SUB DUP2 ADD SWAP1 PUSH2 0x34E SWAP2 SWAP1 PUSH2 0x2B38 JUMP JUMPDEST PUSH2 0xE49 JUMP JUMPDEST STOP JUMPDEST CALLVALUE DUP1 ISZERO PUSH2 0x360 JUMPI PUSH0 DUP1 REVERT JUMPDEST POP PUSH2 0x37B PUSH1 0x4 DUP1 CALLDATASIZE SUB DUP2 ADD SWAP1 PUSH2 0x376 SWAP2 SWAP1 PUSH2 0x2B38 JUMP JUMPDEST PUSH2 0xFD2 JUMP JUMPDEST STOP JUMPDEST CALLVALUE DUP1 ISZERO PUSH2 0x388 JUMPI PUSH0 DUP1 REVERT JUMPDEST POP PUSH2 0x3A3 PUSH1 0x4 DUP1 CALLDATASIZE SUB DUP2 ADD SWAP1 PUSH2 0x39E SWAP2 SWAP1 PUSH2 0x2B38 JUMP JUMPDEST PUSH2 0x101C JUMP JUMPDEST STOP JUMPDEST CALLVALUE DUP1 ISZERO PUSH2 0x3B0 JUMPI PUSH0 DUP1 REVERT JUMPDEST POP PUSH2 0x3CB PUSH1 0x4 DUP1 CALLDATASIZE SUB DUP2 ADD SWAP1 PUSH2 0x3C6 SWAP2 SWAP1 PUSH2 0x2489 JUMP JUMPDEST PUSH2 0x1067 JUMP JUMPDEST PUSH1 0x40 MLOAD PUSH2 0x3D8 SWAP2 SWAP1 PUSH2 0x2B63 JUMP JUMPDEST PUSH1 0x40 MLOAD DUP1 SWAP2 SUB SWAP1 RETURN JUMPDEST CALLVALUE DUP1 ISZERO PUSH2 0x3EC JUMPI PUSH0 DUP1 REVERT JUMPDEST POP PUSH2 0x3F5 PUSH2 0x1084 JUMP JUMPDEST PUSH1 0x40 MLOAD PUSH2 0x402 SWAP2 SWAP1 PUSH2 0x2B9C JUMP JUMPDEST PUSH1 0x40 MLOAD DUP1 SWAP2 SUB SWAP1 RETURN JUMPDEST CALLVALUE DUP1 ISZERO PUSH2 0x416 JUMPI PUSH0 DUP1 REVERT JUMPDEST POP PUSH2 0x431 PUSH1 0x4 DUP1 CALLDATASIZE SUB DUP2 ADD SWAP1 PUSH2 0x42C SWAP2 SWAP1 PUSH2 0x2489 JUMP JUMPDEST PUSH2 0x10A9 JUMP JUMPDEST PUSH1 0x40 MLOAD PUSH2 0x43E SWAP2 SWAP1 PUSH2 0x2BB5 JUMP JUMPDEST PUSH1 0x40 MLOAD DUP1 SWAP2 SUB SWAP1 RETURN JUMPDEST CALLVALUE DUP1 ISZERO PUSH2 0x452 JUMPI PUSH0 DUP1 REVERT JUMPDEST POP PUSH2 0x46D PUSH1 0x4 DUP1 CALLDATASIZE SUB DUP2 ADD SWAP1 PUSH2 0x468 SWAP2 SWAP1 PUSH2 0x2B38 JUMP JUMPDEST PUSH2 0x113D JUMP JUMPDEST STOP JUMPDEST CALLVALUE DUP1 ISZERO PUSH2 0x47A JUMPI PUSH0 DUP1 REVERT JUMPDEST POP PUSH2 0x495 PUSH1 0x4 DUP1 CALLDATASIZE SUB DUP2 ADD SWAP1 PUSH2 0x490 SWAP2 SWAP1 PUSH2 0x244B JUMP JUMPDEST PUSH2 0x11C1 JUMP JUMPDEST STOP JUMPDEST PUSH0 DUP1 SLOAD SWAP1 PUSH2 0x100 EXP SWAP1 DIV PUSH20 0xFFFFFFFFFFFFFFFFFFFFFFFFFFFFFFFFFFFFFFFF AND DUP2 JUMP JUMPDEST PUSH2 0x4C2 PUSH2 0x149B JUMP JUMPDEST DUP1 PUSH1 0x2 PUSH0 DUP5 DUP2 MSTORE PUSH1 0x20 ADD SWAP1 DUP2 MSTORE PUSH1 0x20 ADD PUSH0 KECCAK256 PUSH1 0x6 ADD DUP2 SWAP1 SSTORE POP POP POP JUMP JUMPDEST PUSH0 PUSH2 0x4E8 PUSH2 0x22BB JUMP JUMPDEST PUSH0 PUSH1 0x2 PUSH0 DUP6 DUP2 MSTORE PUSH1 0x20 ADD SWAP1 DUP2 MSTORE PUSH1 0x20 ADD PUSH0 KECCAK256 SWAP1 POP DUP1 PUSH1 0x6 ADD SLOAD DUP2 PUSH1 0x1 ADD DUP1 PUSH1 0x5 DUP1 PUSH1 0x20 MUL PUSH1 0x40 MLOAD SWAP1 DUP2 ADD PUSH1 0x40 MSTORE DUP1 SWAP3 SWAP2 SWAP1 DUP3 PUSH1 0x5 DUP1 ISZERO PUSH2 0x572 JUMPI PUSH1 0x20 MUL DUP3 ADD SWAP2 JUMPDEST DUP2 PUSH0 SWAP1 SLOAD SWAP1 PUSH2 0x100 EXP SWAP1 DIV PUSH20 0xFFFFFFFFFFFFFFFFFFFFFFFFFFFFFFFFFFFFFFFF AND PUSH20 0xFFFFFFFFFFFFFFFFFFFFFFFFFFFFFFFFFFFFFFFF AND DUP2 MSTORE PUSH1 0x20 ADD SWAP1 PUSH1 0x1 ADD SWAP1 DUP1 DUP4 GT PUSH2 0x529 JUMPI JUMPDEST POP POP POP POP POP SWAP1 POP SWAP3 POP SWAP3 POP POP SWAP2 POP SWAP2 JUMP JUMPDEST PUSH2 0x58B PUSH2 0x1522 JUMP JUMPDEST PUSH2 0x594 DUP3 PUSH2 0x1608 JUMP JUMPDEST PUSH2 0x59E DUP3 DUP3 PUSH2 0x1613 JUMP JUMPDEST POP POP JUMP JUMPDEST PUSH0 PUSH2 0x5AB PUSH2 0x1731 JUMP JUMPDEST PUSH32 0x360894A13BA1A3210667C828492DB98DCA3E2076CC3735A920A3CA505D382BBC PUSH0 SHL SWAP1 POP SWAP1 JUMP JUMPDEST PUSH0 PUSH1 0x2 PUSH0 DUP6 DUP2 MSTORE PUSH1 0x20 ADD SWAP1 DUP2 MSTORE PUSH1 0x20 ADD PUSH0 KECCAK256 PUSH0 ADD PUSH0 DUP5 DUP2 MSTORE PUSH1 0x20 ADD SWAP1 DUP2 MSTORE PUSH1 0x20 ADD PUSH0 KECCAK256 PUSH1 0x4 ADD PUSH0 DUP4 PUSH20 0xFFFFFFFFFFFFFFFFFFFFFFFFFFFFFFFFFFFFFFFF AND PUSH20 0xFFFFFFFFFFFFFFFFFFFFFFFFFFFFFFFFFFFFFFFF AND DUP2 MSTORE PUSH1 0x20 ADD SWAP1 DUP2 MSTORE PUSH1 0x20 ADD PUSH0 KECCAK256 PUSH0 SWAP1 SLOAD SWAP1 PUSH2 0x100 EXP SWAP1 DIV PUSH1 0xFF AND SWAP1 POP SWAP4 SWAP3 POP POP POP JUMP JUMPDEST PUSH0 DUP2 MLOAD GT PUSH2 0x68D JUMPI PUSH1 0x40 MLOAD PUSH32 0x8C379A000000000000000000000000000000000000000000000000000000000 DUP2 MSTORE PUSH1 0x4 ADD PUSH2 0x684 SWAP1 PUSH2 0x2C18 JUMP JUMPDEST PUSH1 0x40 MLOAD DUP1 SWAP2 SUB SWAP1 REVERT JUMPDEST PUSH0 PUSH20 0xFFFFFFFFFFFFFFFFFFFFFFFFFFFFFFFFFFFFFFFF AND PUSH1 0x1 PUSH0 SWAP1 SLOAD SWAP1 PUSH2 0x100 EXP SWAP1 DIV PUSH20 0xFFFFFFFFFFFFFFFFFFFFFFFFFFFFFFFFFFFFFFFF AND PUSH20 0xFFFFFFFFFFFFFFFFFFFFFFFFFFFFFFFFFFFFFFFF AND SUB PUSH2 0x71C JUMPI PUSH1 0x40 MLOAD PUSH32 0x8C379A000000000000000000000000000000000000000000000000000000000 DUP2 MSTORE PUSH1 0x4 ADD PUSH2 0x713 SWAP1 PUSH2 0x2C80 JUMP JUMPDEST PUSH1 0x40 MLOAD DUP1 SWAP2 SUB SWAP1 REVERT JUMPDEST PUSH0 DUP2 MLOAD PUSH8 0xFFFFFFFFFFFFFFFF DUP2 GT ISZERO PUSH2 0x738 JUMPI PUSH2 0x737 PUSH2 0x25E2 JUMP JUMPDEST JUMPDEST PUSH1 0x40 MLOAD SWAP1 DUP1 DUP3 MSTORE DUP1 PUSH1 0x20 MUL PUSH1 0x20 ADD DUP3 ADD PUSH1 0x40 MSTORE DUP1 ISZERO PUSH2 0x766 JUMPI DUP2 PUSH1 0x20 ADD PUSH1 0x20 DUP3 MUL DUP1 CALLDATASIZE DUP4 CALLDATACOPY DUP1 DUP3 ADD SWAP2 POP POP SWAP1 POP JUMPDEST POP SWAP1 POP PUSH0 JUMPDEST DUP3 MLOAD DUP2 LT ISZERO PUSH2 0x87C JUMPI PUSH1 0x1 PUSH0 SWAP1 SLOAD SWAP1 PUSH2 0x100 EXP SWAP1 DIV PUSH20 0xFFFFFFFFFFFFFFFFFFFFFFFFFFFFFFFFFFFFFFFF AND PUSH20 0xFFFFFFFFFFFFFFFFFFFFFFFFFFFFFFFFFFFFFFFF AND PUSH4 0xD91D9733 DUP5 DUP4 DUP2 MLOAD DUP2 LT PUSH2 0x7C4 JUMPI PUSH2 0x7C3 PUSH2 0x2C9E JUMP JUMPDEST JUMPDEST PUSH1 0x20 MUL PUSH1 0x20 ADD ADD MLOAD DUP7 PUSH1 0x40 MLOAD DUP4 PUSH4 0xFFFFFFFF AND PUSH1 0xE0 SHL DUP2 MSTORE PUSH1 0x4 ADD PUSH2 0x7EA SWAP3 SWAP2 SWAP1 PUSH2 0x2CCB JUMP JUMPDEST PUSH1 0x20 PUSH1 0x40 MLOAD DUP1 DUP4 SUB DUP2 DUP7 GAS STATICCALL SWAP3 POP POP POP DUP1 ISZERO PUSH2 0x824 JUMPI POP PUSH1 0x40 MLOAD RETURNDATASIZE PUSH1 0x1F NOT PUSH1 0x1F DUP3 ADD AND DUP3 ADD DUP1 PUSH1 0x40 MSTORE POP DUP2 ADD SWAP1 PUSH2 0x821 SWAP2 SWAP1 PUSH2 0x2D06 JUMP JUMPDEST PUSH1 0x1 JUMPDEST PUSH2 0x84D JUMPI PUSH0 DUP3 DUP3 DUP2 MLOAD DUP2 LT PUSH2 0x83C JUMPI PUSH2 0x83B PUSH2 0x2C9E JUMP JUMPDEST JUMPDEST PUSH1 0x20 MUL PUSH1 0x20 ADD ADD DUP2 DUP2 MSTORE POP POP PUSH2 0x86F JUMP JUMPDEST DUP1 DUP4 DUP4 DUP2 MLOAD DUP2 LT PUSH2 0x861 JUMPI PUSH2 0x860 PUSH2 0x2C9E JUMP JUMPDEST JUMPDEST PUSH1 0x20 MUL PUSH1 0x20 ADD ADD DUP2 DUP2 MSTORE POP POP POP JUMPDEST DUP1 DUP1 PUSH1 0x1 ADD SWAP2 POP POP PUSH2 0x76B JUMP JUMPDEST POP PUSH0 PUSH1 0x5 DUP4 MLOAD LT PUSH2 0x88E JUMPI PUSH1 0x5 PUSH2 0x891 JUMP JUMPDEST DUP3 MLOAD JUMPDEST SWAP1 POP PUSH2 0x89B PUSH2 0x22BB JUMP JUMPDEST PUSH0 JUMPDEST DUP3 DUP2 LT ISZERO PUSH2 0xACC JUMPI PUSH0 DUP2 SWAP1 POP PUSH0 PUSH1 0x1 DUP4 PUSH2 0x8B7 SWAP2 SWAP1 PUSH2 0x2D5E JUMP JUMPDEST SWAP1 POP JUMPDEST DUP7 MLOAD DUP2 LT ISZERO PUSH2 0x910 JUMPI DUP6 DUP3 DUP2 MLOAD DUP2 LT PUSH2 0x8D6 JUMPI PUSH2 0x8D5 PUSH2 0x2C9E JUMP JUMPDEST JUMPDEST PUSH1 0x20 MUL PUSH1 0x20 ADD ADD MLOAD DUP7 DUP3 DUP2 MLOAD DUP2 LT PUSH2 0x8F1 JUMPI PUSH2 0x8F0 PUSH2 0x2C9E JUMP JUMPDEST JUMPDEST PUSH1 0x20 MUL PUSH1 0x20 ADD ADD MLOAD GT ISZERO PUSH2 0x903 JUMPI DUP1 SWAP2 POP JUMPDEST DUP1 DUP1 PUSH1 0x1 ADD SWAP2 POP POP PUSH2 0x8BA JUMP JUMPDEST POP DUP2 DUP2 EQ PUSH2 0xA59 JUMPI DUP6 DUP2 DUP2 MLOAD DUP2 LT PUSH2 0x92B JUMPI PUSH2 0x92A PUSH2 0x2C9E JUMP JUMPDEST JUMPDEST PUSH1 0x20 MUL PUSH1 0x20 ADD ADD MLOAD DUP7 DUP4 DUP2 MLOAD DUP2 LT PUSH2 0x946 JUMPI PUSH2 0x945 PUSH2 0x2C9E JUMP JUMPDEST JUMPDEST PUSH1 0x20 MUL PUSH1 0x20 ADD ADD MLOAD DUP8 DUP5 DUP2 MLOAD DUP2 LT PUSH2 0x961 JUMPI PUSH2 0x960 PUSH2 0x2C9E JUMP JUMPDEST JUMPDEST PUSH1 0x20 MUL PUSH1 0x20 ADD ADD DUP9 DUP5 DUP2 MLOAD DUP2 LT PUSH2 0x97B JUMPI PUSH2 0x97A PUSH2 0x2C9E JUMP JUMPDEST JUMPDEST PUSH1 0x20 MUL PUSH1 0x20 ADD ADD DUP3 PUSH20 0xFFFFFFFFFFFFFFFFFFFFFFFFFFFFFFFFFFFFFFFF AND PUSH20 0xFFFFFFFFFFFFFFFFFFFFFFFFFFFFFFFFFFFFFFFF AND DUP2 MSTORE POP DUP3 PUSH20 0xFFFFFFFFFFFFFFFFFFFFFFFFFFFFFFFFFFFFFFFF AND PUSH20 0xFFFFFFFFFFFFFFFFFFFFFFFFFFFFFFFFFFFFFFFF AND DUP2 MSTORE POP POP POP DUP5 DUP2 DUP2 MLOAD DUP2 LT PUSH2 0x9F7 JUMPI PUSH2 0x9F6 PUSH2 0x2C9E JUMP JUMPDEST JUMPDEST PUSH1 0x20 MUL PUSH1 0x20 ADD ADD MLOAD DUP6 DUP4 DUP2 MLOAD DUP2 LT PUSH2 0xA12 JUMPI PUSH2 0xA11 PUSH2 0x2C9E JUMP JUMPDEST JUMPDEST PUSH1 0x20 MUL PUSH1 0x20 ADD ADD MLOAD DUP7 DUP5 DUP2 MLOAD DUP2 LT PUSH2 0xA2D JUMPI PUSH2 0xA2C PUSH2 0x2C9E JUMP JUMPDEST JUMPDEST PUSH1 0x20 MUL PUSH1 0x20 ADD ADD DUP8 DUP5 DUP2 MLOAD DUP2 LT PUSH2 0xA47 JUMPI PUSH2 0xA46 PUSH2 0x2C9E JUMP JUMPDEST JUMPDEST PUSH1 0x20 MUL PUSH1 0x20 ADD ADD DUP3 DUP2 MSTORE POP DUP3 DUP2 MSTORE POP POP POP JUMPDEST DUP6 DUP3 DUP2 MLOAD DUP2 LT PUSH2 0xA6C JUMPI PUSH2 0xA6B PUSH2 0x2C9E JUMP JUMPDEST JUMPDEST PUSH1 0x20 MUL PUSH1 0x20 ADD ADD MLOAD DUP4 DUP4 PUSH1 0x5 DUP2 LT PUSH2 0xA87 JUMPI PUSH2 0xA86 PUSH2 0x2C9E JUMP JUMPDEST JUMPDEST PUSH1 0x20 MUL ADD SWAP1 PUSH20 0xFFFFFFFFFFFFFFFFFFFFFFFFFFFFFFFFFFFFFFFF AND SWAP1 DUP2 PUSH20 0xFFFFFFFFFFFFFFFFFFFFFFFFFFFFFFFFFFFFFFFF AND DUP2 MSTORE POP POP POP DUP1 DUP1 PUSH1 0x1 ADD SWAP2 POP POP PUSH2 0x89D JUMP JUMPDEST POP PUSH0 DUP3 SWAP1 POP JUMPDEST PUSH1 0x5 DUP2 LT ISZERO PUSH2 0xB33 JUMPI PUSH0 DUP3 DUP3 PUSH1 0x5 DUP2 LT PUSH2 0xAEF JUMPI PUSH2 0xAEE PUSH2 0x2C9E JUMP JUMPDEST JUMPDEST PUSH1 0x20 MUL ADD SWAP1 PUSH20 0xFFFFFFFFFFFFFFFFFFFFFFFFFFFFFFFFFFFFFFFF AND SWAP1 DUP2 PUSH20 0xFFFFFFFFFFFFFFFFFFFFFFFFFFFFFFFFFFFFFFFF AND DUP2 MSTORE POP POP DUP1 DUP1 PUSH1 0x1 ADD SWAP2 POP POP PUSH2 0xAD2 JUMP JUMPDEST POP DUP1 PUSH1 0x2 PUSH0 DUP8 DUP2 MSTORE PUSH1 0x20 ADD SWAP1 DUP2 MSTORE PUSH1 0x20 ADD PUSH0 KECCAK256 PUSH1 0x1 ADD SWAP1 PUSH1 0x5 PUSH2 0xB57 SWAP3 SWAP2 SWAP1 PUSH2 0x22DD JUMP JUMPDEST POP DUP5 PUSH32 0xD725B01F2A8656CDF0767F5C4125384F89EB28243DE781481360D45343029CB DUP3 PUSH1 0x40 MLOAD PUSH2 0xB88 SWAP2 SWAP1 PUSH2 0x2BB5 JUMP JUMPDEST PUSH1 0x40 MLOAD DUP1 SWAP2 SUB SWAP1 LOG2 POP POP POP POP POP JUMP JUMPDEST PUSH2 0xB9F PUSH2 0x149B JUMP JUMPDEST PUSH2 0xBA8 PUSH0 PUSH2 0x17B8 JUMP JUMPDEST JUMP JUMPDEST PUSH0 DUP1 PUSH2 0xBB4 PUSH2 0x1889 JUMP JUMPDEST SWAP1 POP DUP1 PUSH0 ADD PUSH0 SWAP1 SLOAD SWAP1 PUSH2 0x100 EXP SWAP1 DIV PUSH20 0xFFFFFFFFFFFFFFFFFFFFFFFFFFFFFFFFFFFFFFFF AND SWAP2 POP POP SWAP1 JUMP JUMPDEST PUSH0 DUP1 PUSH0 DUP1 PUSH0 DUP1 PUSH1 0x2 PUSH0 DUP10 DUP2 MSTORE PUSH1 0x20 ADD SWAP1 DUP2 MSTORE PUSH1 0x20 ADD PUSH0 KECCAK256 PUSH0 ADD PUSH0 DUP9 DUP2 MSTORE PUSH1 0x20 ADD SWAP1 DUP2 MSTORE PUSH1 0x20 ADD PUSH0 KECCAK256 SWAP1 POP DUP1 PUSH0 ADD PUSH0 SWAP1 SLOAD SWAP1 PUSH2 0x100 EXP SWAP1 DIV PUSH1 0xFF AND DUP2 PUSH1 0x1 ADD SLOAD DUP3 PUSH1 0x2 ADD PUSH0 SWAP1 SLOAD SWAP1 PUSH2 0x100 EXP SWAP1 DIV PUSH20 0xFFFFFFFFFFFFFFFFFFFFFFFFFFFFFFFFFFFFFFFF AND DUP4 PUSH1 0x3 ADD SLOAD DUP5 PUSH1 0x5 ADD PUSH0 SWAP1 SLOAD SWAP1 PUSH2 0x100 EXP SWAP1 DIV PUSH1 0xFF AND SWAP6 POP SWAP6 POP SWAP6 POP SWAP6 POP SWAP6 POP POP SWAP3 SWAP6 POP SWAP3 SWAP6 SWAP1 SWAP4 POP JUMP JUMPDEST PUSH1 0x40 MLOAD DUP1 PUSH1 0x40 ADD PUSH1 0x40 MSTORE DUP1 PUSH1 0x5 DUP2 MSTORE PUSH1 0x20 ADD PUSH32 0x352E302E30000000000000000000000000000000000000000000000000000000 DUP2 MSTORE POP DUP2 JUMP JUMPDEST PUSH0 PUSH1 0x2 PUSH0 DUP8 DUP2 MSTORE PUSH1 0x20 ADD SWAP1 DUP2 MSTORE PUSH1 0x20 ADD PUSH0 KECCAK256 PUSH0 ADD PUSH0 DUP7 DUP2 MSTORE PUSH1 0x20 ADD SWAP1 DUP2 MSTORE PUSH1 0x20 ADD PUSH0 KECCAK256 PUSH1 0x3 ADD SLOAD EQ PUSH2 0xD0D JUMPI PUSH1 0x40 MLOAD PUSH32 0x8C379A000000000000000000000000000000000000000000000000000000000 DUP2 MSTORE PUSH1 0x4 ADD PUSH2 0xD04 SWAP1 PUSH2 0x2DDB JUMP JUMPDEST PUSH1 0x40 MLOAD DUP1 SWAP2 SUB SWAP1 REVERT JUMPDEST PUSH0 PUSH1 0x2 PUSH0 DUP8 DUP2 MSTORE PUSH1 0x20 ADD SWAP1 DUP2 MSTORE PUSH1 0x20 ADD PUSH0 KECCAK256 PUSH0 ADD PUSH0 DUP7 DUP2 MSTORE PUSH1 0x20 ADD SWAP1 DUP2 MSTORE PUSH1 0x20 ADD PUSH0 KECCAK256 SWAP1 POP DUP4 DUP2 PUSH0 ADD PUSH0 PUSH2 0x100 EXP DUP2 SLOAD DUP2 PUSH1 0xFF MUL NOT AND SWAP1 DUP4 PUSH1 0x2 DUP2 GT ISZERO PUSH2 0xD57 JUMPI PUSH2 0xD56 PUSH2 0x295A JUMP JUMPDEST JUMPDEST MUL OR SWAP1 SSTORE POP DUP3 DUP2 PUSH1 0x1 ADD DUP2 SWAP1 SSTORE POP DUP2 DUP2 PUSH1 0x2 ADD PUSH0 PUSH2 0x100 EXP DUP2 SLOAD DUP2 PUSH20 0xFFFFFFFFFFFFFFFFFFFFFFFFFFFFFFFFFFFFFFFF MUL NOT AND SWAP1 DUP4 PUSH20 0xFFFFFFFFFFFFFFFFFFFFFFFFFFFFFFFFFFFFFFFF AND MUL OR SWAP1 SSTORE POP PUSH1 0x1 DUP2 PUSH1 0x3 ADD DUP2 SWAP1 SSTORE POP PUSH1 0x1 DUP2 PUSH1 0x4 ADD PUSH0 CALLER PUSH20 0xFFFFFFFFFFFFFFFFFFFFFFFFFFFFFFFFFFFFFFFF AND PUSH20 0xFFFFFFFFFFFFFFFFFFFFFFFFFFFFFFFFFFFFFFFF AND DUP2 MSTORE PUSH1 0x20 ADD SWAP1 DUP2 MSTORE PUSH1 0x20 ADD PUSH0 KECCAK256 PUSH0 PUSH2 0x100 EXP DUP2 SLOAD DUP2 PUSH1 0xFF MUL NOT AND SWAP1 DUP4 ISZERO ISZERO MUL OR SWAP1 SSTORE POP DUP5 DUP7 PUSH32 0xB6E96F518C19CFFCFBA1957109656F5D029C7562F7B417E9556D302C857C090F DUP7 PUSH1 0x40 MLOAD PUSH2 0xE39 SWAP2 SWAP1 PUSH2 0x2DF9 JUMP JUMPDEST PUSH1 0x40 MLOAD DUP1 SWAP2 SUB SWAP1 LOG3 POP POP POP POP POP POP JUMP JUMPDEST PUSH0 PUSH2 0xE52 PUSH2 0x18B0 JUMP JUMPDEST SWAP1 POP PUSH0 DUP2 PUSH0 ADD PUSH1 0x8 SWAP1 SLOAD SWAP1 PUSH2 0x100 EXP SWAP1 DIV PUSH1 0xFF AND ISZERO SWAP1 POP PUSH0 DUP3 PUSH0 ADD PUSH0 SWAP1 SLOAD SWAP1 PUSH2 0x100 EXP SWAP1 DIV PUSH8 0xFFFFFFFFFFFFFFFF AND SWAP1 POP PUSH0 DUP1 DUP3 PUSH8 0xFFFFFFFFFFFFFFFF AND EQ DUP1 ISZERO PUSH2 0xE9A JUMPI POP DUP3 JUMPDEST SWAP1 POP PUSH0 PUSH1 0x1 DUP4 PUSH8 0xFFFFFFFFFFFFFFFF AND EQ DUP1 ISZERO PUSH2 0xECD JUMPI POP PUSH0 ADDRESS PUSH20 0xFFFFFFFFFFFFFFFFFFFFFFFFFFFFFFFFFFFFFFFF AND EXTCODESIZE EQ JUMPDEST SWAP1 POP DUP2 ISZERO DUP1 ISZERO PUSH2 0xEDB JUMPI POP DUP1 ISZERO JUMPDEST ISZERO PUSH2 0xF12 JUMPI PUSH1 0x40 MLOAD PUSH32 0xF92EE8A900000000000000000000000000000000000000000000000000000000 DUP2 MSTORE PUSH1 0x4 ADD PUSH1 0x40 MLOAD DUP1 SWAP2 SUB SWAP1 REVERT JUMPDEST PUSH1 0x1 DUP6 PUSH0 ADD PUSH0 PUSH2 0x100 EXP DUP2 SLOAD DUP2 PUSH8 0xFFFFFFFFFFFFFFFF MUL NOT AND SWAP1 DUP4 PUSH8 0xFFFFFFFFFFFFFFFF AND MUL OR SWAP1 SSTORE POP DUP4 ISZERO PUSH2 0xF5F JUMPI PUSH1 0x1 DUP6 PUSH0 ADD PUSH1 0x8 PUSH2 0x100 EXP DUP2 SLOAD DUP2 PUSH1 0xFF MUL NOT AND SWAP1 DUP4 ISZERO ISZERO MUL OR SWAP1 SSTORE POP JUMPDEST PUSH2 0xF68 DUP7 PUSH2 0x18D7 JUMP JUMPDEST PUSH2 0xF70 PUSH2 0x18EB JUMP JUMPDEST DUP4 ISZERO PUSH2 0xFCA JUMPI PUSH0 DUP6 PUSH0 ADD PUSH1 0x8 PUSH2 0x100 EXP DUP2 SLOAD DUP2 PUSH1 0xFF MUL NOT AND SWAP1 DUP4 ISZERO ISZERO MUL OR SWAP1 SSTORE POP PUSH32 0xC7F505B2F371AE2175EE4913F4499E1F2633A7B5936321EED1CDAEB6115181D2 PUSH1 0x1 PUSH1 0x40 MLOAD PUSH2 0xFC1 SWAP2 SWAP1 PUSH2 0x2E5E JUMP JUMPDEST PUSH1 0x40 MLOAD DUP1 SWAP2 SUB SWAP1 LOG1 JUMPDEST POP POP POP POP POP POP JUMP JUMPDEST PUSH2 0xFDA PUSH2 0x149B JUMP JUMPDEST DUP1 PUSH0 DUP1 PUSH2 0x100 EXP DUP2 SLOAD DUP2 PUSH20 0xFFFFFFFFFFFFFFFFFFFFFFFFFFFFFFFFFFFFFFFF MUL NOT AND SWAP1 DUP4 PUSH20 0xFFFFFFFFFFFFFFFFFFFFFFFFFFFFFFFFFFFFFFFF AND MUL OR SWAP1 SSTORE POP POP JUMP JUMPDEST PUSH2 0x1024 PUSH2 0x149B JUMP JUMPDEST DUP1 PUSH1 0x1 PUSH0 PUSH2 0x100 EXP DUP2 SLOAD DUP2 PUSH20 0xFFFFFFFFFFFFFFFFFFFFFFFFFFFFFFFFFFFFFFFF MUL NOT AND SWAP1 DUP4 PUSH20 0xFFFFFFFFFFFFFFFFFFFFFFFFFFFFFFFFFFFFFFFF AND MUL OR SWAP1 SSTORE POP POP JUMP JUMPDEST PUSH0 PUSH1 0x2 PUSH0 DUP4 DUP2 MSTORE PUSH1 0x20 ADD SWAP1 DUP2 MSTORE PUSH1 0x20 ADD PUSH0 KECCAK256 PUSH1 0x6 ADD SLOAD SWAP1 POP SWAP2 SWAP1 POP JUMP JUMPDEST PUSH1 0x1 PUSH0 SWAP1 SLOAD SWAP1 PUSH2 0x100 EXP SWAP1 DIV PUSH20 0xFFFFFFFFFFFFFFFFFFFFFFFFFFFFFFFFFFFFFFFF AND DUP2 JUMP JUMPDEST PUSH2 0x10B1 PUSH2 0x22BB JUMP JUMPDEST PUSH1 0x2 PUSH0 DUP4 DUP2 MSTORE PUSH1 0x20 ADD SWAP1 DUP2 MSTORE PUSH1 0x20 ADD PUSH0 KECCAK256 PUSH1 0x1 ADD PUSH1 0x5 DUP1 PUSH1 0x20 MUL PUSH1 0x40 MLOAD SWAP1 DUP2 ADD PUSH1 0x40 MSTORE DUP1 SWAP3 SWAP2 SWAP1 DUP3 PUSH1 0x5 DUP1 ISZERO PUSH2 0x1131 JUMPI PUSH1 0x20 MUL DUP3 ADD SWAP2 JUMPDEST DUP2 PUSH0 SWAP1 SLOAD SWAP1 PUSH2 0x100 EXP SWAP1 DIV PUSH20 0xFFFFFFFFFFFFFFFFFFFFFFFFFFFFFFFFFFFFFFFF AND PUSH20 0xFFFFFFFFFFFFFFFFFFFFFFFFFFFFFFFFFFFFFFFF AND DUP2 MSTORE PUSH1 0x20 ADD SWAP1 PUSH1 0x1 ADD SWAP1 DUP1 DUP4 GT PUSH2 0x10E8 JUMPI JUMPDEST POP POP POP POP POP SWAP1 POP SWAP2 SWAP1 POP JUMP JUMPDEST PUSH2 0x1145 PUSH2 0x149B JUMP JUMPDEST PUSH0 PUSH20 0xFFFFFFFFFFFFFFFFFFFFFFFFFFFFFFFFFFFFFFFF AND DUP2 PUSH20 0xFFFFFFFFFFFFFFFFFFFFFFFFFFFFFFFFFFFFFFFF AND SUB PUSH2 0x11B5 JUMPI PUSH0 PUSH1 0x40 MLOAD PUSH32 0x1E4FBDF700000000000000000000000000000000000000000000000000000000 DUP2 MSTORE PUSH1 0x4 ADD PUSH2 0x11AC SWAP2 SWAP1 PUSH2 0x2941 JUMP JUMPDEST PUSH1 0x40 MLOAD DUP1 SWAP2 SUB SWAP1 REVERT JUMPDEST PUSH2 0x11BE DUP2 PUSH2 0x17B8 JUMP JUMPDEST POP JUMP JUMPDEST PUSH2 0x124F CALLER PUSH1 0x2 PUSH0 DUP6 DUP2 MSTORE PUSH1 0x20 ADD SWAP1 DUP2 MSTORE PUSH1 0x20 ADD PUSH0 KECCAK256 PUSH1 0x1 ADD PUSH1 0x5 DUP1 PUSH1 0x20 MUL PUSH1 0x40 MLOAD SWAP1 DUP2 ADD PUSH1 0x40 MSTORE DUP1 SWAP3 SWAP2 SWAP1 DUP3 PUSH1 0x5 DUP1 ISZERO PUSH2 0x1245 JUMPI PUSH1 0x20 MUL DUP3 ADD SWAP2 JUMPDEST DUP2 PUSH0 SWAP1 SLOAD SWAP1 PUSH2 0x100 EXP SWAP1 DIV PUSH20 0xFFFFFFFFFFFFFFFFFFFFFFFFFFFFFFFFFFFFFFFF AND PUSH20 0xFFFFFFFFFFFFFFFFFFFFFFFFFFFFFFFFFFFFFFFF AND DUP2 MSTORE PUSH1 0x20 ADD SWAP1 PUSH1 0x1 ADD SWAP1 DUP1 DUP4 GT PUSH2 0x11FC JUMPI JUMPDEST POP POP POP POP POP PUSH2 0x18F5 JUMP JUMPDEST PUSH2 0x128E JUMPI PUSH1 0x40 MLOAD PUSH32 0x8C379A000000000000000000000000000000000000000000000000000000000 DUP2 MSTORE PUSH1 0x4 ADD PUSH2 0x1285 SWAP1 PUSH2 0x2EC1 JUMP JUMPDEST PUSH1 0x40 MLOAD DUP1 SWAP2 SUB SWAP1 REVERT JUMPDEST PUSH0 PUSH1 0x2 PUSH0 DUP5 DUP2 MSTORE PUSH1 0x20 ADD SWAP1 DUP2 MSTORE PUSH1 0x20 ADD PUSH0 KECCAK256 PUSH0 ADD PUSH0 DUP4 DUP2 MSTORE PUSH1 0x20 ADD SWAP1 DUP2 MSTORE PUSH1 0x20 ADD PUSH0 KECCAK256 SWAP1 POP PUSH0 DUP2 PUSH1 0x3 ADD SLOAD GT PUSH2 0x12F9 JUMPI PUSH1 0x40 MLOAD PUSH32 0x8C379A000000000000000000000000000000000000000000000000000000000 DUP2 MSTORE PUSH1 0x4 ADD PUSH2 0x12F0 SWAP1 PUSH2 0x2F29 JUMP JUMPDEST PUSH1 0x40 MLOAD DUP1 SWAP2 SUB SWAP1 REVERT JUMPDEST DUP1 PUSH1 0x5 ADD PUSH0 SWAP1 SLOAD SWAP1 PUSH2 0x100 EXP SWAP1 DIV PUSH1 0xFF AND ISZERO PUSH2 0x134A JUMPI PUSH1 0x40 MLOAD PUSH32 0x8C379A000000000000000000000000000000000000000000000000000000000 DUP2 MSTORE PUSH1 0x4 ADD PUSH2 0x1341 SWAP1 PUSH2 0x2F91 JUMP JUMPDEST PUSH1 0x40 MLOAD DUP1 SWAP2 SUB SWAP1 REVERT JUMPDEST DUP1 PUSH1 0x4 ADD PUSH0 CALLER PUSH20 0xFFFFFFFFFFFFFFFFFFFFFFFFFFFFFFFFFFFFFFFF AND PUSH20 0xFFFFFFFFFFFFFFFFFFFFFFFFFFFFFFFFFFFFFFFF AND DUP2 MSTORE PUSH1 0x20 ADD SWAP1 DUP2 MSTORE PUSH1 0x20 ADD PUSH0 KECCAK256 PUSH0 SWAP1 SLOAD SWAP1 PUSH2 0x100 EXP SWAP1 DIV PUSH1 0xFF AND ISZERO PUSH2 0x13D6 JUMPI PUSH1 0x40 MLOAD PUSH32 0x8C379A000000000000000000000000000000000000000000000000000000000 DUP2 MSTORE PUSH1 0x4 ADD PUSH2 0x13CD SWAP1 PUSH2 0x2FF9 JUMP JUMPDEST PUSH1 0x40 MLOAD DUP1 SWAP2 SUB SWAP1 REVERT JUMPDEST PUSH1 0x1 DUP2 PUSH1 0x4 ADD PUSH0 CALLER PUSH20 0xFFFFFFFFFFFFFFFFFFFFFFFFFFFFFFFFFFFFFFFF AND PUSH20 0xFFFFFFFFFFFFFFFFFFFFFFFFFFFFFFFFFFFFFFFF AND DUP2 MSTORE PUSH1 0x20 ADD SWAP1 DUP2 MSTORE PUSH1 0x20 ADD PUSH0 KECCAK256 PUSH0 PUSH2 0x100 EXP DUP2 SLOAD DUP2 PUSH1 0xFF MUL NOT AND SWAP1 DUP4 ISZERO ISZERO MUL OR SWAP1 SSTORE POP DUP1 PUSH1 0x3 ADD PUSH0 DUP2 SLOAD DUP1 SWAP3 SWAP2 SWAP1 PUSH2 0x1441 SWAP1 PUSH2 0x3017 JUMP JUMPDEST SWAP2 SWAP1 POP SSTORE POP DUP2 DUP4 PUSH32 0x256519EB26D028F45EB678B9C4CF084619387132430E282B40FD12A40B4E2732 CALLER PUSH1 0x40 MLOAD PUSH2 0x1477 SWAP2 SWAP1 PUSH2 0x2941 JUMP JUMPDEST PUSH1 0x40 MLOAD DUP1 SWAP2 SUB SWAP1 LOG3 PUSH1 0x3 DUP2 PUSH1 0x3 ADD SLOAD LT PUSH2 0x1496 JUMPI PUSH2 0x1495 DUP4 DUP4 PUSH2 0x19BB JUMP JUMPDEST JUMPDEST POP POP POP JUMP JUMPDEST PUSH2 0x14A3 PUSH2 0x1BCD JUMP JUMPDEST PUSH20 0xFFFFFFFFFFFFFFFFFFFFFFFFFFFFFFFFFFFFFFFF AND PUSH2 0x14C1 PUSH2 0xBAA JUMP JUMPDEST PUSH20 0xFFFFFFFFFFFFFFFFFFFFFFFFFFFFFFFFFFFFFFFF AND EQ PUSH2 0x1520 JUMPI PUSH2 0x14E4 PUSH2 0x1BCD JUMP JUMPDEST PUSH1 0x40 MLOAD PUSH32 0x118CDAA700000000000000000000000000000000000000000000000000000000 DUP2 MSTORE PUSH1 0x4 ADD PUSH2 0x1517 SWAP2 SWAP1 PUSH2 0x2941 JUMP JUMPDEST PUSH1 0x40 MLOAD DUP1 SWAP2 SUB SWAP1 REVERT JUMPDEST JUMP JUMPDEST PUSH32 0x0 PUSH20 0xFFFFFFFFFFFFFFFFFFFFFFFFFFFFFFFFFFFFFFFF AND ADDRESS PUSH20 0xFFFFFFFFFFFFFFFFFFFFFFFFFFFFFFFFFFFFFFFF AND EQ DUP1 PUSH2 0x15CF JUMPI POP PUSH32 0x0 PUSH20 0xFFFFFFFFFFFFFFFFFFFFFFFFFFFFFFFFFFFFFFFF AND PUSH2 0x15B6 PUSH2 0x1BD4 JUMP JUMPDEST PUSH20 0xFFFFFFFFFFFFFFFFFFFFFFFFFFFFFFFFFFFFFFFF AND EQ ISZERO JUMPDEST ISZERO PUSH2 0x1606 JUMPI PUSH1 0x40 MLOAD PUSH32 0xE07C8DBA00000000000000000000000000000000000000000000000000000000 DUP2 MSTORE PUSH1 0x4 ADD PUSH1 0x40 MLOAD DUP1 SWAP2 SUB SWAP1 REVERT JUMPDEST JUMP JUMPDEST PUSH2 0x1610 PUSH2 0x149B JUMP JUMPDEST POP JUMP JUMPDEST DUP2 PUSH20 0xFFFFFFFFFFFFFFFFFFFFFFFFFFFFFFFFFFFFFFFF AND PUSH4 0x52D1902D PUSH1 0x40 MLOAD DUP2 PUSH4 0xFFFFFFFF AND PUSH1 0xE0 SHL DUP2 MSTORE PUSH1 0x4 ADD PUSH1 0x20 PUSH1 0x40 MLOAD DUP1 DUP4 SUB DUP2 DUP7 GAS STATICCALL SWAP3 POP POP POP DUP1 ISZERO PUSH2 0x167B JUMPI POP PUSH1 0x40 MLOAD RETURNDATASIZE PUSH1 0x1F NOT PUSH1 0x1F DUP3 ADD AND DUP3 ADD DUP1 PUSH1 0x40 MSTORE POP DUP2 ADD SWAP1 PUSH2 0x1678 SWAP2 SWAP1 PUSH2 0x3088 JUMP JUMPDEST PUSH1 0x1 JUMPDEST PUSH2 0x16BC JUMPI DUP2 PUSH1 0x40 MLOAD PUSH32 0x4C9C8CE300000000000000000000000000000000000000000000000000000000 DUP2 MSTORE PUSH1 0x4 ADD PUSH2 0x16B3 SWAP2 SWAP1 PUSH2 0x2941 JUMP JUMPDEST PUSH1 0x40 MLOAD DUP1 SWAP2 SUB SWAP1 REVERT JUMPDEST PUSH32 0x360894A13BA1A3210667C828492DB98DCA3E2076CC3735A920A3CA505D382BBC PUSH0 SHL DUP2 EQ PUSH2 0x1722 JUMPI DUP1 PUSH1 0x40 MLOAD PUSH32 0xAA1D49A400000000000000000000000000000000000000000000000000000000 DUP2 MSTORE PUSH1 0x4 ADD PUSH2 0x1719 SWAP2 SWAP1 PUSH2 0x2778 JUMP JUMPDEST PUSH1 0x40 MLOAD DUP1 SWAP2 SUB SWAP1 REVERT JUMPDEST PUSH2 0x172C DUP4 DUP4 PUSH2 0x1C27 JUMP JUMPDEST POP POP POP JUMP JUMPDEST PUSH32 0x0 PUSH20 0xFFFFFFFFFFFFFFFFFFFFFFFFFFFFFFFFFFFFFFFF AND ADDRESS PUSH20 0xFFFFFFFFFFFFFFFFFFFFFFFFFFFFFFFFFFFFFFFF AND EQ PUSH2 0x17B6 JUMPI PUSH1 0x40 MLOAD PUSH32 0xE07C8DBA00000000000000000000000000000000000000000000000000000000 DUP2 MSTORE PUSH1 0x4 ADD PUSH1 0x40 MLOAD DUP1 SWAP2 SUB SWAP1 REVERT JUMPDEST JUMP JUMPDEST PUSH0 PUSH2 0x17C1 PUSH2 0x1889 JUMP JUMPDEST SWAP1 POP PUSH0 DUP2 PUSH0 ADD PUSH0 SWAP1 SLOAD SWAP1 PUSH2 0x100 EXP SWAP1 DIV PUSH20 0xFFFFFFFFFFFFFFFFFFFFFFFFFFFFFFFFFFFFFFFF AND SWAP1 POP DUP3 DUP3 PUSH0 ADD PUSH0 PUSH2 0x100 EXP DUP2 SLOAD DUP2 PUSH20 0xFFFFFFFFFFFFFFFFFFFFFFFFFFFFFFFFFFFFFFFF MUL NOT AND SWAP1 DUP4 PUSH20 0xFFFFFFFFFFFFFFFFFFFFFFFFFFFFFFFFFFFFFFFF AND MUL OR SWAP1 SSTORE POP DUP3 PUSH20 0xFFFFFFFFFFFFFFFFFFFFFFFFFFFFFFFFFFFFFFFF AND DUP2 PUSH20 0xFFFFFFFFFFFFFFFFFFFFFFFFFFFFFFFFFFFFFFFF AND PUSH32 0x8BE0079C531659141344CD1FD0A4F28419497F9722A3DAAFE3B4186F6B6457E0 PUSH1 0x40 MLOAD PUSH1 0x40 MLOAD DUP1 SWAP2 SUB SWAP1 LOG3 POP POP POP JUMP JUMPDEST PUSH0 PUSH32 0x9016D09D72D40FDAE2FD8CEAC6B6234C7706214FD39C1CD1E609A0528C199300 SWAP1 POP SWAP1 JUMP JUMPDEST PUSH0 PUSH32 0xF0C57E16840DF040F15088DC2F81FE391C3923BEC73E23A9662EFC9C229C6A00 SWAP1 POP SWAP1 JUMP JUMPDEST PUSH2 0x18DF PUSH2 0x1C99 JUMP JUMPDEST PUSH2 0x18E8 DUP2 PUSH2 0x1CD9 JUMP JUMPDEST POP JUMP JUMPDEST PUSH2 0x18F3 PUSH2 0x1C99 JUMP JUMPDEST JUMP JUMPDEST PUSH0 DUP1 PUSH0 SWAP1 POP JUMPDEST PUSH1 0x5 DUP2 LT ISZERO PUSH2 0x19B0 JUMPI DUP4 PUSH20 0xFFFFFFFFFFFFFFFFFFFFFFFFFFFFFFFFFFFFFFFF AND DUP4 DUP3 PUSH1 0x5 DUP2 LT PUSH2 0x192E JUMPI PUSH2 0x192D PUSH2 0x2C9E JUMP JUMPDEST JUMPDEST PUSH1 0x20 MUL ADD MLOAD PUSH20 0xFFFFFFFFFFFFFFFFFFFFFFFFFFFFFFFFFFFFFFFF AND SUB PUSH2 0x1958 JUMPI PUSH1 0x1 SWAP2 POP POP PUSH2 0x19B5 JUMP JUMPDEST PUSH0 PUSH20 0xFFFFFFFFFFFFFFFFFFFFFFFFFFFFFFFFFFFFFFFF AND DUP4 DUP3 PUSH1 0x5 DUP2 LT PUSH2 0x1982 JUMPI PUSH2 0x1981 PUSH2 0x2C9E JUMP JUMPDEST JUMPDEST PUSH1 0x20 MUL ADD MLOAD PUSH20 0xFFFFFFFFFFFFFFFFFFFFFFFFFFFFFFFFFFFFFFFF AND SUB ISZERO PUSH2 0x19B0 JUMPI DUP1 DUP1 PUSH1 0x1 ADD SWAP2 POP POP PUSH2 0x18FB JUMP JUMPDEST POP PUSH0 SWAP1 POP JUMPDEST SWAP3 SWAP2 POP POP JUMP JUMPDEST PUSH0 PUSH1 0x2 PUSH0 DUP5 DUP2 MSTORE PUSH1 0x20 ADD SWAP1 DUP2 MSTORE PUSH1 0x20 ADD PUSH0 KECCAK256 PUSH0 ADD PUSH0 DUP4 DUP2 MSTORE PUSH1 0x20 ADD SWAP1 DUP2 MSTORE PUSH1 0x20 ADD PUSH0 KECCAK256 SWAP1 POP DUP1 PUSH1 0x5 ADD PUSH0 SWAP1 SLOAD SWAP1 PUSH2 0x100 EXP SWAP1 DIV PUSH1 0xFF AND ISZERO PUSH2 0x1A31 JUMPI PUSH1 0x40 MLOAD PUSH32 0x8C379A000000000000000000000000000000000000000000000000000000000 DUP2 MSTORE PUSH1 0x4 ADD PUSH2 0x1A28 SWAP1 PUSH2 0x2F91 JUMP JUMPDEST PUSH1 0x40 MLOAD DUP1 SWAP2 SUB SWAP1 REVERT JUMPDEST PUSH1 0x3 DUP2 PUSH1 0x3 ADD SLOAD LT ISZERO PUSH2 0x1A79 JUMPI PUSH1 0x40 MLOAD PUSH32 0x8C379A000000000000000000000000000000000000000000000000000000000 DUP2 MSTORE PUSH1 0x4 ADD PUSH2 0x1A70 SWAP1 PUSH2 0x30FD JUMP JUMPDEST PUSH1 0x40 MLOAD DUP1 SWAP2 SUB SWAP1 REVERT JUMPDEST PUSH1 0x1 DUP2 PUSH1 0x5 ADD PUSH0 PUSH2 0x100 EXP DUP2 SLOAD DUP2 PUSH1 0xFF MUL NOT AND SWAP1 DUP4 ISZERO ISZERO MUL OR SWAP1 SSTORE POP PUSH0 PUSH1 0x2 DUP2 GT ISZERO PUSH2 0x1AA8 JUMPI PUSH2 0x1AA7 PUSH2 0x295A JUMP JUMPDEST JUMPDEST DUP2 PUSH0 ADD PUSH0 SWAP1 SLOAD SWAP1 PUSH2 0x100 EXP SWAP1 DIV PUSH1 0xFF AND PUSH1 0x2 DUP2 GT ISZERO PUSH2 0x1ACA JUMPI PUSH2 0x1AC9 PUSH2 0x295A JUMP JUMPDEST JUMPDEST SUB PUSH2 0x1B01 JUMPI PUSH2 0x1AFC DUP4 DUP3 PUSH1 0x2 ADD PUSH0 SWAP1 SLOAD SWAP1 PUSH2 0x100 EXP SWAP1 DIV PUSH20 0xFFFFFFFFFFFFFFFFFFFFFFFFFFFFFFFFFFFFFFFF AND PUSH2 0x1D5D JUMP JUMPDEST PUSH2 0x1B9A JUMP JUMPDEST PUSH1 0x1 PUSH1 0x2 DUP2 GT ISZERO PUSH2 0x1B15 JUMPI PUSH2 0x1B14 PUSH2 0x295A JUMP JUMPDEST JUMPDEST DUP2 PUSH0 ADD PUSH0 SWAP1 SLOAD SWAP1 PUSH2 0x100 EXP SWAP1 DIV PUSH1 0xFF AND PUSH1 0x2 DUP2 GT ISZERO PUSH2 0x1B37 JUMPI PUSH2 0x1B36 PUSH2 0x295A JUMP JUMPDEST JUMPDEST SUB PUSH2 0x1B4F JUMPI PUSH2 0x1B4A DUP4 DUP3 PUSH1 0x1 ADD SLOAD PUSH2 0x1E2C JUMP JUMPDEST PUSH2 0x1B99 JUMP JUMPDEST PUSH1 0x2 DUP1 DUP2 GT ISZERO PUSH2 0x1B62 JUMPI PUSH2 0x1B61 PUSH2 0x295A JUMP JUMPDEST JUMPDEST DUP2 PUSH0 ADD PUSH0 SWAP1 SLOAD SWAP1 PUSH2 0x100 EXP SWAP1 DIV PUSH1 0xFF AND PUSH1 0x2 DUP2 GT ISZERO PUSH2 0x1B84 JUMPI PUSH2 0x1B83 PUSH2 0x295A JUMP JUMPDEST JUMPDEST SUB PUSH2 0x1B98 JUMPI PUSH2 0x1B97 DUP4 DUP3 PUSH1 0x1 ADD SLOAD PUSH2 0x1E81 JUMP JUMPDEST JUMPDEST JUMPDEST JUMPDEST DUP2 DUP4 PUSH32 0xF758FC91E01B00EA6B4A6138756F7F28E021F9BF21DB6DBF8C36C88EB737257A PUSH1 0x40 MLOAD PUSH1 0x40 MLOAD DUP1 SWAP2 SUB SWAP1 LOG3 POP POP POP JUMP JUMPDEST PUSH0 CALLER SWAP1 POP SWAP1 JUMP JUMPDEST PUSH0 PUSH2 0x1C00 PUSH32 0x360894A13BA1A3210667C828492DB98DCA3E2076CC3735A920A3CA505D382BBC PUSH0 SHL PUSH2 0x203E JUMP JUMPDEST PUSH0 ADD PUSH0 SWAP1 SLOAD SWAP1 PUSH2 0x100 EXP SWAP1 DIV PUSH20 0xFFFFFFFFFFFFFFFFFFFFFFFFFFFFFFFFFFFFFFFF AND SWAP1 POP SWAP1 JUMP JUMPDEST PUSH2 0x1C30 DUP3 PUSH2 0x2047 JUMP JUMPDEST DUP2 PUSH20 0xFFFFFFFFFFFFFFFFFFFFFFFFFFFFFFFFFFFFFFFF AND PUSH32 0xBC7CD75A20EE27FD9ADEBAB32041F755214DBC6BFFA90CC0225B39DA2E5C2D3B PUSH1 0x40 MLOAD PUSH1 0x40 MLOAD DUP1 SWAP2 SUB SWAP1 LOG2 PUSH0 DUP2 MLOAD GT ISZERO PUSH2 0x1C8C JUMPI PUSH2 0x1C86 DUP3 DUP3 PUSH2 0x2110 JUMP JUMPDEST POP PUSH2 0x1C95 JUMP JUMPDEST PUSH2 0x1C94 PUSH2 0x2190 JUMP JUMPDEST JUMPDEST POP POP JUMP JUMPDEST PUSH2 0x1CA1 PUSH2 0x21CC JUMP JUMPDEST PUSH2 0x1CD7 JUMPI PUSH1 0x40 MLOAD PUSH32 0xD7E6BCF800000000000000000000000000000000000000000000000000000000 DUP2 MSTORE PUSH1 0x4 ADD PUSH1 0x40 MLOAD DUP1 SWAP2 SUB SWAP1 REVERT JUMPDEST JUMP JUMPDEST PUSH2 0x1CE1 PUSH2 0x1C99 JUMP JUMPDEST PUSH0 PUSH20 0xFFFFFFFFFFFFFFFFFFFFFFFFFFFFFFFFFFFFFFFF AND DUP2 PUSH20 0xFFFFFFFFFFFFFFFFFFFFFFFFFFFFFFFFFFFFFFFF AND SUB PUSH2 0x1D51 JUMPI PUSH0 PUSH1 0x40 MLOAD PUSH32 0x1E4FBDF700000000000000000000000000000000000000000000000000000000 DUP2 MSTORE PUSH1 0x4 ADD PUSH2 0x1D48 SWAP2 SWAP1 PUSH2 0x2941 JUMP JUMPDEST PUSH1 0x40 MLOAD DUP1 SWAP2 SUB SWAP1 REVERT JUMPDEST PUSH2 0x1D5A DUP2 PUSH2 0x17B8 JUMP JUMPDEST POP JUMP JUMPDEST PUSH0 DUP1 SLOAD SWAP1 PUSH2 0x100 EXP SWAP1 DIV PUSH20 0xFFFFFFFFFFFFFFFFFFFFFFFFFFFFFFFFFFFFFFFF AND PUSH20 0xFFFFFFFFFFFFFFFFFFFFFFFFFFFFFFFFFFFFFFFF AND PUSH4 0x3997C656 DUP4 DUP4 PUSH1 0x40 MLOAD DUP4 PUSH4 0xFFFFFFFF AND PUSH1 0xE0 SHL DUP2 MSTORE PUSH1 0x4 ADD PUSH2 0x1DB7 SWAP3 SWAP2 SWAP1 PUSH2 0x311B JUMP JUMPDEST PUSH0 PUSH1 0x40 MLOAD DUP1 DUP4 SUB DUP2 PUSH0 DUP8 DUP1 EXTCODESIZE ISZERO DUP1 ISZERO PUSH2 0x1DCE JUMPI PUSH0 DUP1 REVERT JUMPDEST POP GAS CALL ISZERO DUP1 ISZERO PUSH2 0x1DE0 JUMPI RETURNDATASIZE PUSH0 DUP1 RETURNDATACOPY RETURNDATASIZE PUSH0 REVERT JUMPDEST POP POP POP POP DUP1 PUSH20 0xFFFFFFFFFFFFFFFFFFFFFFFFFFFFFFFFFFFFFFFF AND DUP3 PUSH32 0x1C4C9D2E56D0635D11BC47C997C6909A0D7061F55CBB8F4B27386DB37553191C PUSH1 0x40 MLOAD PUSH1 0x40 MLOAD DUP1 SWAP2 SUB SWAP1 LOG3 POP POP JUMP JUMPDEST DUP1 PUSH1 0x2 PUSH0 DUP5 DUP2 MSTORE PUSH1 0x20 ADD SWAP1 DUP2 MSTORE PUSH1 0x20 ADD PUSH0 KECCAK256 PUSH1 0x6 ADD DUP2 SWAP1 SSTORE POP DUP2 PUSH32 0x103D67DAEE120044227F39544F0C57945ACF17897F464EEFC95E6CBD4A17D3B4 DUP3 PUSH1 0x40 MLOAD PUSH2 0x1E75 SWAP2 SWAP1 PUSH2 0x2B63 JUMP JUMPDEST PUSH1 0x40 MLOAD DUP1 SWAP2 SUB SWAP1 LOG2 POP POP JUMP JUMPDEST PUSH0 DUP1 PUSH0 SWAP1 SLOAD SWAP1 PUSH2 0x100 EXP SWAP1 DIV PUSH20 0xFFFFFFFFFFFFFFFFFFFFFFFFFFFFFFFFFFFFFFFF AND PUSH20 0xFFFFFFFFFFFFFFFFFFFFFFFFFFFFFFFFFFFFFFFF AND PUSH4 0x99664245 DUP5 PUSH1 0x40 MLOAD DUP3 PUSH4 0xFFFFFFFF AND PUSH1 0xE0 SHL DUP2 MSTORE PUSH1 0x4 ADD PUSH2 0x1EDB SWAP2 SWAP1 PUSH2 0x2B63 JUMP JUMPDEST PUSH0 PUSH1 0x40 MLOAD DUP1 DUP4 SUB DUP2 DUP7 GAS STATICCALL ISZERO DUP1 ISZERO PUSH2 0x1EF5 JUMPI RETURNDATASIZE PUSH0 DUP1 RETURNDATACOPY RETURNDATASIZE PUSH0 REVERT JUMPDEST POP POP POP POP PUSH1 0x40 MLOAD RETURNDATASIZE PUSH0 DUP3 RETURNDATACOPY RETURNDATASIZE PUSH1 0x1F NOT PUSH1 0x1F DUP3 ADD AND DUP3 ADD DUP1 PUSH1 0x40 MSTORE POP DUP2 ADD SWAP1 PUSH2 0x1F1D SWAP2 SWAP1 PUSH2 0x3217 JUMP JUMPDEST SWAP8 POP POP POP POP POP POP POP POP PUSH0 PUSH20 0xFFFFFFFFFFFFFFFFFFFFFFFFFFFFFFFFFFFFFFFF AND DUP2 PUSH20 0xFFFFFFFFFFFFFFFFFFFFFFFFFFFFFFFFFFFFFFFF AND SUB PUSH2 0x1F94 JUMPI PUSH1 0x40 MLOAD PUSH32 0x8C379A000000000000000000000000000000000000000000000000000000000 DUP2 MSTORE PUSH1 0x4 ADD PUSH2 0x1F8B SWAP1 PUSH2 0x3366 JUMP JUMPDEST PUSH1 0x40 MLOAD DUP1 SWAP2 SUB SWAP1 REVERT JUMPDEST PUSH0 DUP2 SWAP1 POP DUP1 PUSH20 0xFFFFFFFFFFFFFFFFFFFFFFFFFFFFFFFFFFFFFFFF AND PUSH4 0x40C10F19 ADDRESS DUP6 PUSH1 0x40 MLOAD DUP4 PUSH4 0xFFFFFFFF AND PUSH1 0xE0 SHL DUP2 MSTORE PUSH1 0x4 ADD PUSH2 0x1FD3 SWAP3 SWAP2 SWAP1 PUSH2 0x2CCB JUMP JUMPDEST PUSH0 PUSH1 0x40 MLOAD DUP1 DUP4 SUB DUP2 PUSH0 DUP8 DUP1 EXTCODESIZE ISZERO DUP1 ISZERO PUSH2 0x1FEA JUMPI PUSH0 DUP1 REVERT JUMPDEST POP GAS CALL ISZERO DUP1 ISZERO PUSH2 0x1FFC JUMPI RETURNDATASIZE PUSH0 DUP1 RETURNDATACOPY RETURNDATASIZE PUSH0 REVERT JUMPDEST POP POP POP POP DUP4 PUSH32 0xC61C8E2899BD86923BDA7268D6D1B42D8E644FF3DEDC13D41D5B798E4AA35237 DUP5 PUSH1 0x40 MLOAD PUSH2 0x2030 SWAP2 SWAP1 PUSH2 0x2B63 JUMP JUMPDEST PUSH1 0x40 MLOAD DUP1 SWAP2 SUB SWAP1 LOG2 POP POP POP POP JUMP JUMPDEST PUSH0 DUP2 SWAP1 POP SWAP2 SWAP1 POP JUMP JUMPDEST PUSH0 DUP2 PUSH20 0xFFFFFFFFFFFFFFFFFFFFFFFFFFFFFFFFFFFFFFFF AND EXTCODESIZE SUB PUSH2 0x20A2 JUMPI DUP1 PUSH1 0x40 MLOAD PUSH32 0x4C9C8CE300000000000000000000000000000000000000000000000000000000 DUP2 MSTORE PUSH1 0x4 ADD PUSH2 0x2099 SWAP2 SWAP1 PUSH2 0x2941 JUMP JUMPDEST PUSH1 0x40 MLOAD DUP1 SWAP2 SUB SWAP1 REVERT JUMPDEST DUP1 PUSH2 0x20CE PUSH32 0x360894A13BA1A3210667C828492DB98DCA3E2076CC3735A920A3CA505D382BBC PUSH0 SHL PUSH2 0x203E JUMP JUMPDEST PUSH0 ADD PUSH0 PUSH2 0x100 EXP DUP2 SLOAD DUP2 PUSH20 0xFFFFFFFFFFFFFFFFFFFFFFFFFFFFFFFFFFFFFFFF MUL NOT AND SWAP1 DUP4 PUSH20 0xFFFFFFFFFFFFFFFFFFFFFFFFFFFFFFFFFFFFFFFF AND MUL OR SWAP1 SSTORE POP POP JUMP JUMPDEST PUSH1 0x60 PUSH0 DUP1 DUP5 PUSH20 0xFFFFFFFFFFFFFFFFFFFFFFFFFFFFFFFFFFFFFFFF AND DUP5 PUSH1 0x40 MLOAD PUSH2 0x2139 SWAP2 SWAP1 PUSH2 0x33C8 JUMP JUMPDEST PUSH0 PUSH1 0x40 MLOAD DUP1 DUP4 SUB DUP2 DUP6 GAS DELEGATECALL SWAP2 POP POP RETURNDATASIZE DUP1 PUSH0 DUP2 EQ PUSH2 0x2171 JUMPI PUSH1 0x40 MLOAD SWAP2 POP PUSH1 0x1F NOT PUSH1 0x3F RETURNDATASIZE ADD AND DUP3 ADD PUSH1 0x40 MSTORE RETURNDATASIZE DUP3 MSTORE RETURNDATASIZE PUSH0 PUSH1 0x20 DUP5 ADD RETURNDATACOPY PUSH2 0x2176 JUMP JUMPDEST PUSH1 0x60 SWAP2 POP JUMPDEST POP SWAP2 POP SWAP2 POP PUSH2 0x2186 DUP6 DUP4 DUP4 PUSH2 0x21EA JUMP JUMPDEST SWAP3 POP POP POP SWAP3 SWAP2 POP POP JUMP JUMPDEST PUSH0 CALLVALUE GT ISZERO PUSH2 0x21CA JUMPI PUSH1 0x40 MLOAD PUSH32 0xB398979F00000000000000000000000000000000000000000000000000000000 DUP2 MSTORE PUSH1 0x4 ADD PUSH1 0x40 MLOAD DUP1 SWAP2 SUB SWAP1 REVERT JUMPDEST JUMP JUMPDEST PUSH0 PUSH2 0x21D5 PUSH2 0x18B0 JUMP JUMPDEST PUSH0 ADD PUSH1 0x8 SWAP1 SLOAD SWAP1 PUSH2 0x100 EXP SWAP1 DIV PUSH1 0xFF AND SWAP1 POP SWAP1 JUMP JUMPDEST PUSH1 0x60 DUP3 PUSH2 0x21FF JUMPI PUSH2 0x21FA DUP3 PUSH2 0x2277 JUMP JUMPDEST PUSH2 0x226F JUMP JUMPDEST PUSH0 DUP3 MLOAD EQ DUP1 ISZERO PUSH2 0x2225 JUMPI POP PUSH0 DUP5 PUSH20 0xFFFFFFFFFFFFFFFFFFFFFFFFFFFFFFFFFFFFFFFF AND EXTCODESIZE EQ JUMPDEST ISZERO PUSH2 0x2267 JUMPI DUP4 PUSH1 0x40 MLOAD PUSH32 0x9996B31500000000000000000000000000000000000000000000000000000000 DUP2 MSTORE PUSH1 0x4 ADD PUSH2 0x225E SWAP2 SWAP1 PUSH2 0x2941 JUMP JUMPDEST PUSH1 0x40 MLOAD DUP1 SWAP2 SUB SWAP1 REVERT JUMPDEST DUP2 SWAP1 POP PUSH2 0x2270 JUMP JUMPDEST JUMPDEST SWAP4 SWAP3 POP POP POP JUMP JUMPDEST PUSH0 DUP2 MLOAD GT ISZERO PUSH2 0x2289 JUMPI DUP1 MLOAD DUP1 DUP3 PUSH1 0x20 ADD REVERT JUMPDEST PUSH1 0x40 MLOAD PUSH32 0x1425EA4200000000000000000000000000000000000000000000000000000000 DUP2 MSTORE PUSH1 0x4 ADD PUSH1 0x40 MLOAD DUP1 SWAP2 SUB SWAP1 REVERT JUMPDEST PUSH1 0x40 MLOAD DUP1 PUSH1 0xA0 ADD PUSH1 0x40 MSTORE DUP1 PUSH1 0x5 SWAP1 PUSH1 0x20 DUP3 MUL DUP1 CALLDATASIZE DUP4 CALLDATACOPY DUP1 DUP3 ADD SWAP2 POP POP SWAP1 POP POP SWAP1 JUMP JUMPDEST DUP3 PUSH1 0x5 DUP2 ADD SWAP3 DUP3 ISZERO PUSH2 0x2348 JUMPI SWAP2 PUSH1 0x20 MUL DUP3 ADD JUMPDEST DUP3 DUP2 GT ISZERO PUSH2 0x2347 JUMPI DUP3 MLOAD DUP3 PUSH0 PUSH2 0x100 EXP DUP2 SLOAD DUP2 PUSH20 0xFFFFFFFFFFFFFFFFFFFFFFFFFFFFFFFFFFFFFFFF MUL NOT AND SWAP1 DUP4 PUSH20 0xFFFFFFFFFFFFFFFFFFFFFFFFFFFFFFFFFFFFFFFF AND MUL OR SWAP1 SSTORE POP SWAP2 PUSH1 0x20 ADD SWAP2 SWAP1 PUSH1 0x1 ADD SWAP1 PUSH2 0x22F0 JUMP JUMPDEST JUMPDEST POP SWAP1 POP PUSH2 0x2355 SWAP2 SWAP1 PUSH2 0x2359 JUMP JUMPDEST POP SWAP1 JUMP JUMPDEST JUMPDEST DUP1 DUP3 GT ISZERO PUSH2 0x2370 JUMPI PUSH0 DUP2 PUSH0 SWAP1 SSTORE POP PUSH1 0x1 ADD PUSH2 0x235A JUMP JUMPDEST POP SWAP1 JUMP JUMPDEST PUSH0 PUSH20 0xFFFFFFFFFFFFFFFFFFFFFFFFFFFFFFFFFFFFFFFF DUP3 AND SWAP1 POP SWAP2 SWAP1 POP JUMP JUMPDEST PUSH0 DUP2 SWAP1 POP SWAP2 SWAP1 POP JUMP JUMPDEST PUSH0 PUSH2 0x23B6 PUSH2 0x23B1 PUSH2 0x23AC DUP5 PUSH2 0x2374 JUMP JUMPDEST PUSH2 0x2393 JUMP JUMPDEST PUSH2 0x2374 JUMP JUMPDEST SWAP1 POP SWAP2 SWAP1 POP JUMP JUMPDEST PUSH0 PUSH2 0x23C7 DUP3 PUSH2 0x239C JUMP JUMPDEST SWAP1 POP SWAP2 SWAP1 POP JUMP JUMPDEST PUSH0 PUSH2 0x23D8 DUP3 PUSH2 0x23BD JUMP JUMPDEST SWAP1 POP SWAP2 SWAP1 POP JUMP JUMPDEST PUSH2 0x23E8 DUP2 PUSH2 0x23CE JUMP JUMPDEST DUP3 MSTORE POP POP JUMP JUMPDEST PUSH0 PUSH1 0x20 DUP3 ADD SWAP1 POP PUSH2 0x2401 PUSH0 DUP4 ADD DUP5 PUSH2 0x23DF JUMP JUMPDEST SWAP3 SWAP2 POP POP JUMP JUMPDEST PUSH0 PUSH1 0x40 MLOAD SWAP1 POP SWAP1 JUMP JUMPDEST PUSH0 DUP1 REVERT JUMPDEST PUSH0 DUP1 REVERT JUMPDEST PUSH0 DUP2 SWAP1 POP SWAP2 SWAP1 POP JUMP JUMPDEST PUSH2 0x242A DUP2 PUSH2 0x2418 JUMP JUMPDEST DUP2 EQ PUSH2 0x2434 JUMPI PUSH0 DUP1 REVERT JUMPDEST POP JUMP JUMPDEST PUSH0 DUP2 CALLDATALOAD SWAP1 POP PUSH2 0x2445 DUP2 PUSH2 0x2421 JUMP JUMPDEST SWAP3 SWAP2 POP POP JUMP JUMPDEST PUSH0 DUP1 PUSH1 0x40 DUP4 DUP6 SUB SLT ISZERO PUSH2 0x2461 JUMPI PUSH2 0x2460 PUSH2 0x2410 JUMP JUMPDEST JUMPDEST PUSH0 PUSH2 0x246E DUP6 DUP3 DUP7 ADD PUSH2 0x2437 JUMP JUMPDEST SWAP3 POP POP PUSH1 0x20 PUSH2 0x247F DUP6 DUP3 DUP7 ADD PUSH2 0x2437 JUMP JUMPDEST SWAP2 POP POP SWAP3 POP SWAP3 SWAP1 POP JUMP JUMPDEST PUSH0 PUSH1 0x20 DUP3 DUP5 SUB SLT ISZERO PUSH2 0x249E JUMPI PUSH2 0x249D PUSH2 0x2410 JUMP JUMPDEST JUMPDEST PUSH0 PUSH2 0x24AB DUP5 DUP3 DUP6 ADD PUSH2 0x2437 JUMP JUMPDEST SWAP2 POP POP SWAP3 SWAP2 POP POP JUMP JUMPDEST PUSH2 0x24BD DUP2 PUSH2 0x2418 JUMP JUMPDEST DUP3 MSTORE POP POP JUMP JUMPDEST PUSH0 PUSH1 0x5 SWAP1 POP SWAP2 SWAP1 POP JUMP JUMPDEST PUSH0 DUP2 SWAP1 POP SWAP3 SWAP2 POP POP JUMP JUMPDEST PUSH0 DUP2 SWAP1 POP SWAP2 SWAP1 POP JUMP JUMPDEST PUSH0 PUSH2 0x24EA DUP3 PUSH2 0x2374 JUMP JUMPDEST SWAP1 POP SWAP2 SWAP1 POP JUMP JUMPDEST PUSH2 0x24FA DUP2 PUSH2 0x24E0 JUMP JUMPDEST DUP3 MSTORE POP POP JUMP JUMPDEST PUSH0 PUSH2 0x250B DUP4 DUP4 PUSH2 0x24F1 JUMP JUMPDEST PUSH1 0x20 DUP4 ADD SWAP1 POP SWAP3 SWAP2 POP POP JUMP JUMPDEST PUSH0 PUSH1 0x20 DUP3 ADD SWAP1 POP SWAP2 SWAP1 POP JUMP JUMPDEST PUSH2 0x252C DUP2 PUSH2 0x24C3 JUMP JUMPDEST PUSH2 0x2536 DUP2 DUP5 PUSH2 0x24CD JUMP JUMPDEST SWAP3 POP PUSH2 0x2541 DUP3 PUSH2 0x24D7 JUMP JUMPDEST DUP1 PUSH0 JUMPDEST DUP4 DUP2 LT ISZERO PUSH2 0x2571 JUMPI DUP2 MLOAD PUSH2 0x2558 DUP8 DUP3 PUSH2 0x2500 JUMP JUMPDEST SWAP7 POP PUSH2 0x2563 DUP4 PUSH2 0x2517 JUMP JUMPDEST SWAP3 POP POP PUSH1 0x1 DUP2 ADD SWAP1 POP PUSH2 0x2544 JUMP JUMPDEST POP POP POP POP POP POP JUMP JUMPDEST PUSH0 PUSH1 0xC0 DUP3 ADD SWAP1 POP PUSH2 0x258C PUSH0 DUP4 ADD DUP6 PUSH2 0x24B4 JUMP JUMPDEST PUSH2 0x2599 PUSH1 0x20 DUP4 ADD DUP5 PUSH2 0x2523 JUMP JUMPDEST SWAP4 SWAP3 POP POP POP JUMP JUMPDEST PUSH2 0x25A9 DUP2 PUSH2 0x24E0 JUMP JUMPDEST DUP2 EQ PUSH2 0x25B3 JUMPI PUSH0 DUP1 REVERT JUMPDEST POP JUMP JUMPDEST PUSH0 DUP2 CALLDATALOAD SWAP1 POP PUSH2 0x25C4 DUP2 PUSH2 0x25A0 JUMP JUMPDEST SWAP3 SWAP2 POP POP JUMP JUMPDEST PUSH0 DUP1 REVERT JUMPDEST PUSH0 DUP1 REVERT JUMPDEST PUSH0 PUSH1 0x1F NOT PUSH1 0x1F DUP4 ADD AND SWAP1 POP SWAP2 SWAP1 POP JUMP JUMPDEST PUSH32 0x4E487B7100000000000000000000000000000000000000000000000000000000 PUSH0 MSTORE PUSH1 0x41 PUSH1 0x4 MSTORE PUSH1 0x24 PUSH0 REVERT JUMPDEST PUSH2 0x2618 DUP3 PUSH2 0x25D2 JUMP JUMPDEST DUP2 ADD DUP2 DUP2 LT PUSH8 0xFFFFFFFFFFFFFFFF DUP3 GT OR ISZERO PUSH2 0x2637 JUMPI PUSH2 0x2636 PUSH2 0x25E2 JUMP JUMPDEST JUMPDEST DUP1 PUSH1 0x40 MSTORE POP POP POP JUMP JUMPDEST PUSH0 PUSH2 0x2649 PUSH2 0x2407 JUMP JUMPDEST SWAP1 POP PUSH2 0x2655 DUP3 DUP3 PUSH2 0x260F JUMP JUMPDEST SWAP2 SWAP1 POP JUMP JUMPDEST PUSH0 PUSH8 0xFFFFFFFFFFFFFFFF DUP3 GT ISZERO PUSH2 0x2674 JUMPI PUSH2 0x2673 PUSH2 0x25E2 JUMP JUMPDEST JUMPDEST PUSH2 0x267D DUP3 PUSH2 0x25D2 JUMP JUMPDEST SWAP1 POP PUSH1 0x20 DUP2 ADD SWAP1 POP SWAP2 SWAP1 POP JUMP JUMPDEST DUP3 DUP2 DUP4 CALLDATACOPY PUSH0 DUP4 DUP4 ADD MSTORE POP POP POP JUMP JUMPDEST PUSH0 PUSH2 0x26AA PUSH2 0x26A5 DUP5 PUSH2 0x265A JUMP JUMPDEST PUSH2 0x2640 JUMP JUMPDEST SWAP1 POP DUP3 DUP2 MSTORE PUSH1 0x20 DUP2 ADD DUP5 DUP5 DUP5 ADD GT ISZERO PUSH2 0x26C6 JUMPI PUSH2 0x26C5 PUSH2 0x25CE JUMP JUMPDEST JUMPDEST PUSH2 0x26D1 DUP5 DUP3 DUP6 PUSH2 0x268A JUMP JUMPDEST POP SWAP4 SWAP3 POP POP POP JUMP JUMPDEST PUSH0 DUP3 PUSH1 0x1F DUP4 ADD SLT PUSH2 0x26ED JUMPI PUSH2 0x26EC PUSH2 0x25CA JUMP JUMPDEST JUMPDEST DUP2 CALLDATALOAD PUSH2 0x26FD DUP5 DUP3 PUSH1 0x20 DUP7 ADD PUSH2 0x2698 JUMP JUMPDEST SWAP2 POP POP SWAP3 SWAP2 POP POP JUMP JUMPDEST PUSH0 DUP1 PUSH1 0x40 DUP4 DUP6 SUB SLT ISZERO PUSH2 0x271C JUMPI PUSH2 0x271B PUSH2 0x2410 JUMP JUMPDEST JUMPDEST PUSH0 PUSH2 0x2729 DUP6 DUP3 DUP7 ADD PUSH2 0x25B6 JUMP JUMPDEST SWAP3 POP POP PUSH1 0x20 DUP4 ADD CALLDATALOAD PUSH8 0xFFFFFFFFFFFFFFFF DUP2 GT ISZERO PUSH2 0x274A JUMPI PUSH2 0x2749 PUSH2 0x2414 JUMP JUMPDEST JUMPDEST PUSH2 0x2756 DUP6 DUP3 DUP7 ADD PUSH2 0x26D9 JUMP JUMPDEST SWAP2 POP POP SWAP3 POP SWAP3 SWAP1 POP JUMP JUMPDEST PUSH0 DUP2 SWAP1 POP SWAP2 SWAP1 POP JUMP JUMPDEST PUSH2 0x2772 DUP2 PUSH2 0x2760 JUMP JUMPDEST DUP3 MSTORE POP POP JUMP JUMPDEST PUSH0 PUSH1 0x20 DUP3 ADD SWAP1 POP PUSH2 0x278B PUSH0 DUP4 ADD DUP5 PUSH2 0x2769 JUMP JUMPDEST SWAP3 SWAP2 POP POP JUMP JUMPDEST PUSH0 DUP1 PUSH0 PUSH1 0x60 DUP5 DUP7 SUB SLT ISZERO PUSH2 0x27A8 JUMPI PUSH2 0x27A7 PUSH2 0x2410 JUMP JUMPDEST JUMPDEST PUSH0 PUSH2 0x27B5 DUP7 DUP3 DUP8 ADD PUSH2 0x2437 JUMP JUMPDEST SWAP4 POP POP PUSH1 0x20 PUSH2 0x27C6 DUP7 DUP3 DUP8 ADD PUSH2 0x2437 JUMP JUMPDEST SWAP3 POP POP PUSH1 0x40 PUSH2 0x27D7 DUP7 DUP3 DUP8 ADD PUSH2 0x25B6 JUMP JUMPDEST SWAP2 POP POP SWAP3 POP SWAP3 POP SWAP3 JUMP JUMPDEST PUSH0 DUP2 ISZERO ISZERO SWAP1 POP SWAP2 SWAP1 POP JUMP JUMPDEST PUSH2 0x27F5 DUP2 PUSH2 0x27E1 JUMP JUMPDEST DUP3 MSTORE POP POP JUMP JUMPDEST PUSH0 PUSH1 0x20 DUP3 ADD SWAP1 POP PUSH2 0x280E PUSH0 DUP4 ADD DUP5 PUSH2 0x27EC JUMP JUMPDEST SWAP3 SWAP2 POP POP JUMP JUMPDEST PUSH0 PUSH8 0xFFFFFFFFFFFFFFFF DUP3 GT ISZERO PUSH2 0x282E JUMPI PUSH2 0x282D PUSH2 0x25E2 JUMP JUMPDEST JUMPDEST PUSH1 0x20 DUP3 MUL SWAP1 POP PUSH1 0x20 DUP2 ADD SWAP1 POP SWAP2 SWAP1 POP JUMP JUMPDEST PUSH0 DUP1 REVERT JUMPDEST PUSH0 PUSH2 0x2855 PUSH2 0x2850 DUP5 PUSH2 0x2814 JUMP JUMPDEST PUSH2 0x2640 JUMP JUMPDEST SWAP1 POP DUP1 DUP4 DUP3 MSTORE PUSH1 0x20 DUP3 ADD SWAP1 POP PUSH1 0x20 DUP5 MUL DUP4 ADD DUP6 DUP2 GT ISZERO PUSH2 0x2878 JUMPI PUSH2 0x2877 PUSH2 0x283F JUMP JUMPDEST JUMPDEST DUP4 JUMPDEST DUP2 DUP2 LT ISZERO PUSH2 0x28A1 JUMPI DUP1 PUSH2 0x288D DUP9 DUP3 PUSH2 0x25B6 JUMP JUMPDEST DUP5 MSTORE PUSH1 0x20 DUP5 ADD SWAP4 POP POP PUSH1 0x20 DUP2 ADD SWAP1 POP PUSH2 0x287A JUMP JUMPDEST POP POP POP SWAP4 SWAP3 POP POP POP JUMP JUMPDEST PUSH0 DUP3 PUSH1 0x1F DUP4 ADD SLT PUSH2 0x28BF JUMPI PUSH2 0x28BE PUSH2 0x25CA JUMP JUMPDEST JUMPDEST DUP2 CALLDATALOAD PUSH2 0x28CF DUP5 DUP3 PUSH1 0x20 DUP7 ADD PUSH2 0x2843 JUMP JUMPDEST SWAP2 POP POP SWAP3 SWAP2 POP POP JUMP JUMPDEST PUSH0 DUP1 PUSH1 0x40 DUP4 DUP6 SUB SLT ISZERO PUSH2 0x28EE JUMPI PUSH2 0x28ED PUSH2 0x2410 JUMP JUMPDEST JUMPDEST PUSH0 PUSH2 0x28FB DUP6 DUP3 DUP7 ADD PUSH2 0x2437 JUMP JUMPDEST SWAP3 POP POP PUSH1 0x20 DUP4 ADD CALLDATALOAD PUSH8 0xFFFFFFFFFFFFFFFF DUP2 GT ISZERO PUSH2 0x291C JUMPI PUSH2 0x291B PUSH2 0x2414 JUMP JUMPDEST JUMPDEST PUSH2 0x2928 DUP6 DUP3 DUP7 ADD PUSH2 0x28AB JUMP JUMPDEST SWAP2 POP POP SWAP3 POP SWAP3 SWAP1 POP JUMP JUMPDEST PUSH2 0x293B DUP2 PUSH2 0x24E0 JUMP JUMPDEST DUP3 MSTORE POP POP JUMP JUMPDEST PUSH0 PUSH1 0x20 DUP3 ADD SWAP1 POP PUSH2 0x2954 PUSH0 DUP4 ADD DUP5 PUSH2 0x2932 JUMP JUMPDEST SWAP3 SWAP2 POP POP JUMP JUMPDEST PUSH32 0x4E487B7100000000000000000000000000000000000000000000000000000000 PUSH0 MSTORE PUSH1 0x21 PUSH1 0x4 MSTORE PUSH1 0x24 PUSH0 REVERT JUMPDEST PUSH1 0x3 DUP2 LT PUSH2 0x2998 JUMPI PUSH2 0x2997 PUSH2 0x295A JUMP JUMPDEST JUMPDEST POP JUMP JUMPDEST PUSH0 DUP2 SWAP1 POP PUSH2 0x29A8 DUP3 PUSH2 0x2987 JUMP JUMPDEST SWAP2 SWAP1 POP JUMP JUMPDEST PUSH0 PUSH2 0x29B7 DUP3 PUSH2 0x299B JUMP JUMPDEST SWAP1 POP SWAP2 SWAP1 POP JUMP JUMPDEST PUSH2 0x29C7 DUP2 PUSH2 0x29AD JUMP JUMPDEST DUP3 MSTORE POP POP JUMP JUMPDEST PUSH0 PUSH1 0xA0 DUP3 ADD SWAP1 POP PUSH2 0x29E0 PUSH0 DUP4 ADD DUP9 PUSH2 0x29BE JUMP JUMPDEST PUSH2 0x29ED PUSH1 0x20 DUP4 ADD DUP8 PUSH2 0x24B4 JUMP JUMPDEST PUSH2 0x29FA PUSH1 0x40 DUP4 ADD DUP7 PUSH2 0x2932 JUMP JUMPDEST PUSH2 0x2A07 PUSH1 0x60 DUP4 ADD DUP6 PUSH2 0x24B4 JUMP JUMPDEST PUSH2 0x2A14 PUSH1 0x80 DUP4 ADD DUP5 PUSH2 0x27EC JUMP JUMPDEST SWAP7 SWAP6 POP POP POP POP POP POP JUMP JUMPDEST PUSH0 DUP2 MLOAD SWAP1 POP SWAP2 SWAP1 POP JUMP JUMPDEST PUSH0 DUP3 DUP3 MSTORE PUSH1 0x20 DUP3 ADD SWAP1 POP SWAP3 SWAP2 POP POP JUMP JUMPDEST DUP3 DUP2 DUP4 MCOPY PUSH0 DUP4 DUP4 ADD MSTORE POP POP POP JUMP JUMPDEST PUSH0 PUSH2 0x2A50 DUP3 PUSH2 0x2A1E JUMP JUMPDEST PUSH2 0x2A5A DUP2 DUP6 PUSH2 0x2A28 JUMP JUMPDEST SWAP4 POP PUSH2 0x2A6A DUP2 DUP6 PUSH1 0x20 DUP7 ADD PUSH2 0x2A38 JUMP JUMPDEST PUSH2 0x2A73 DUP2 PUSH2 0x25D2 JUMP JUMPDEST DUP5 ADD SWAP2 POP POP SWAP3 SWAP2 POP POP JUMP JUMPDEST PUSH0 PUSH1 0x20 DUP3 ADD SWAP1 POP DUP2 DUP2 SUB PUSH0 DUP4 ADD MSTORE PUSH2 0x2A96 DUP2 DUP5 PUSH2 0x2A46 JUMP JUMPDEST SWAP1 POP SWAP3 SWAP2 POP POP JUMP JUMPDEST PUSH1 0x3 DUP2 LT PUSH2 0x2AAA JUMPI PUSH0 DUP1 REVERT JUMPDEST POP JUMP JUMPDEST PUSH0 DUP2 CALLDATALOAD SWAP1 POP PUSH2 0x2ABB DUP2 PUSH2 0x2A9E JUMP JUMPDEST SWAP3 SWAP2 POP POP JUMP JUMPDEST PUSH0 DUP1 PUSH0 DUP1 PUSH0 PUSH1 0xA0 DUP7 DUP9 SUB SLT ISZERO PUSH2 0x2ADA JUMPI PUSH2 0x2AD9 PUSH2 0x2410 JUMP JUMPDEST JUMPDEST PUSH0 PUSH2 0x2AE7 DUP9 DUP3 DUP10 ADD PUSH2 0x2437 JUMP JUMPDEST SWAP6 POP POP PUSH1 0x20 PUSH2 0x2AF8 DUP9 DUP3 DUP10 ADD PUSH2 0x2437 JUMP JUMPDEST SWAP5 POP POP PUSH1 0x40 PUSH2 0x2B09 DUP9 DUP3 DUP10 ADD PUSH2 0x2AAD JUMP JUMPDEST SWAP4 POP POP PUSH1 0x60 PUSH2 0x2B1A DUP9 DUP3 DUP10 ADD PUSH2 0x2437 JUMP JUMPDEST SWAP3 POP POP PUSH1 0x80 PUSH2 0x2B2B DUP9 DUP3 DUP10 ADD PUSH2 0x25B6 JUMP JUMPDEST SWAP2 POP POP SWAP3 SWAP6 POP SWAP3 SWAP6 SWAP1 SWAP4 POP JUMP JUMPDEST PUSH0 PUSH1 0x20 DUP3 DUP5 SUB SLT ISZERO PUSH2 0x2B4D JUMPI PUSH2 0x2B4C PUSH2 0x2410 JUMP JUMPDEST JUMPDEST PUSH0 PUSH2 0x2B5A DUP5 DUP3 DUP6 ADD PUSH2 0x25B6 JUMP JUMPDEST SWAP2 POP POP SWAP3 SWAP2 POP POP JUMP JUMPDEST PUSH0 PUSH1 0x20 DUP3 ADD SWAP1 POP PUSH2 0x2B76 PUSH0 DUP4 ADD DUP5 PUSH2 0x24B4 JUMP JUMPDEST SWAP3 SWAP2 POP POP JUMP JUMPDEST PUSH0 PUSH2 0x2B86 DUP3 PUSH2 0x23BD JUMP JUMPDEST SWAP1 POP SWAP2 SWAP1 POP JUMP JUMPDEST PUSH2 0x2B96 DUP2 PUSH2 0x2B7C JUMP JUMPDEST DUP3 MSTORE POP POP JUMP JUMPDEST PUSH0 PUSH1 0x20 DUP3 ADD SWAP1 POP PUSH2 0x2BAF PUSH0 DUP4 ADD DUP5 PUSH2 0x2B8D JUMP JUMPDEST SWAP3 SWAP2 POP POP JUMP JUMPDEST PUSH0 PUSH1 0xA0 DUP3 ADD SWAP1 POP PUSH2 0x2BC8 PUSH0 DUP4 ADD DUP5 PUSH2 0x2523 JUMP JUMPDEST SWAP3 SWAP2 POP POP JUMP JUMPDEST PUSH32 0x436F6D6D756E697479206D7573742068617665206D656D626572730000000000 PUSH0 DUP3 ADD MSTORE POP JUMP JUMPDEST PUSH0 PUSH2 0x2C02 PUSH1 0x1B DUP4 PUSH2 0x2A28 JUMP JUMPDEST SWAP2 POP PUSH2 0x2C0D DUP3 PUSH2 0x2BCE JUMP JUMPDEST PUSH1 0x20 DUP3 ADD SWAP1 POP SWAP2 SWAP1 POP JUMP JUMPDEST PUSH0 PUSH1 0x20 DUP3 ADD SWAP1 POP DUP2 DUP2 SUB PUSH0 DUP4 ADD MSTORE PUSH2 0x2C2F DUP2 PUSH2 0x2BF6 JUMP JUMPDEST SWAP1 POP SWAP2 SWAP1 POP JUMP JUMPDEST PUSH32 0x436F6E747269627574696F6E7320636F6E7472616374206E6F74207365740000 PUSH0 DUP3 ADD MSTORE POP JUMP JUMPDEST PUSH0 PUSH2 0x2C6A PUSH1 0x1E DUP4 PUSH2 0x2A28 JUMP JUMPDEST SWAP2 POP PUSH2 0x2C75 DUP3 PUSH2 0x2C36 JUMP JUMPDEST PUSH1 0x20 DUP3 ADD SWAP1 POP SWAP2 SWAP1 POP JUMP JUMPDEST PUSH0 PUSH1 0x20 DUP3 ADD SWAP1 POP DUP2 DUP2 SUB PUSH0 DUP4 ADD MSTORE PUSH2 0x2C97 DUP2 PUSH2 0x2C5E JUMP JUMPDEST SWAP1 POP SWAP2 SWAP1 POP JUMP JUMPDEST PUSH32 0x4E487B7100000000000000000000000000000000000000000000000000000000 PUSH0 MSTORE PUSH1 0x32 PUSH1 0x4 MSTORE PUSH1 0x24 PUSH0 REVERT JUMPDEST PUSH0 PUSH1 0x40 DUP3 ADD SWAP1 POP PUSH2 0x2CDE PUSH0 DUP4 ADD DUP6 PUSH2 0x2932 JUMP JUMPDEST PUSH2 0x2CEB PUSH1 0x20 DUP4 ADD DUP5 PUSH2 0x24B4 JUMP JUMPDEST SWAP4 SWAP3 POP POP POP JUMP JUMPDEST PUSH0 DUP2 MLOAD SWAP1 POP PUSH2 0x2D00 DUP2 PUSH2 0x2421 JUMP JUMPDEST SWAP3 SWAP2 POP POP JUMP JUMPDEST PUSH0 PUSH1 0x20 DUP3 DUP5 SUB SLT ISZERO PUSH2 0x2D1B JUMPI PUSH2 0x2D1A PUSH2 0x2410 JUMP JUMPDEST JUMPDEST PUSH0 PUSH2 0x2D28 DUP5 DUP3 DUP6 ADD PUSH2 0x2CF2 JUMP JUMPDEST SWAP2 POP POP SWAP3 SWAP2 POP POP JUMP JUMPDEST PUSH32 0x4E487B7100000000000000000000000000000000000000000000000000000000 PUSH0 MSTORE PUSH1 0x11 PUSH1 0x4 MSTORE PUSH1 0x24 PUSH0 REVERT JUMPDEST PUSH0 PUSH2 0x2D68 DUP3 PUSH2 0x2418 JUMP JUMPDEST SWAP2 POP PUSH2 0x2D73 DUP4 PUSH2 0x2418 JUMP JUMPDEST SWAP3 POP DUP3 DUP3 ADD SWAP1 POP DUP1 DUP3 GT ISZERO PUSH2 0x2D8B JUMPI PUSH2 0x2D8A PUSH2 0x2D31 JUMP JUMPDEST JUMPDEST SWAP3 SWAP2 POP POP JUMP JUMPDEST PUSH32 0x50726F706F73616C20494420616C726561647920657869737473000000000000 PUSH0 DUP3 ADD MSTORE POP JUMP JUMPDEST PUSH0 PUSH2 0x2DC5 PUSH1 0x1A DUP4 PUSH2 0x2A28 JUMP JUMPDEST SWAP2 POP PUSH2 0x2DD0 DUP3 PUSH2 0x2D91 JUMP JUMPDEST PUSH1 0x20 DUP3 ADD SWAP1 POP SWAP2 SWAP1 POP JUMP JUMPDEST PUSH0 PUSH1 0x20 DUP3 ADD SWAP1 POP DUP2 DUP2 SUB PUSH0 DUP4 ADD MSTORE PUSH2 0x2DF2 DUP2 PUSH2 0x2DB9 JUMP JUMPDEST SWAP1 POP SWAP2 SWAP1 POP JUMP JUMPDEST PUSH0 PUSH1 0x20 DUP3 ADD SWAP1 POP PUSH2 0x2E0C PUSH0 DUP4 ADD DUP5 PUSH2 0x29BE JUMP JUMPDEST SWAP3 SWAP2 POP POP JUMP JUMPDEST PUSH0 DUP2 SWAP1 POP SWAP2 SWAP1 POP JUMP JUMPDEST PUSH0 PUSH8 0xFFFFFFFFFFFFFFFF DUP3 AND SWAP1 POP SWAP2 SWAP1 POP JUMP JUMPDEST PUSH0 PUSH2 0x2E48 PUSH2 0x2E43 PUSH2 0x2E3E DUP5 PUSH2 0x2E12 JUMP JUMPDEST PUSH2 0x2393 JUMP JUMPDEST PUSH2 0x2E1B JUMP JUMPDEST SWAP1 POP SWAP2 SWAP1 POP JUMP JUMPDEST PUSH2 0x2E58 DUP2 PUSH2 0x2E2E JUMP JUMPDEST DUP3 MSTORE POP POP JUMP JUMPDEST PUSH0 PUSH1 0x20 DUP3 ADD SWAP1 POP PUSH2 0x2E71 PUSH0 DUP4 ADD DUP5 PUSH2 0x2E4F JUMP JUMPDEST SWAP3 SWAP2 POP POP JUMP JUMPDEST PUSH32 0x4E6F7420617574686F72697A6564000000000000000000000000000000000000 PUSH0 DUP3 ADD MSTORE POP JUMP JUMPDEST PUSH0 PUSH2 0x2EAB PUSH1 0xE DUP4 PUSH2 0x2A28 JUMP JUMPDEST SWAP2 POP PUSH2 0x2EB6 DUP3 PUSH2 0x2E77 JUMP JUMPDEST PUSH1 0x20 DUP3 ADD SWAP1 POP SWAP2 SWAP1 POP JUMP JUMPDEST PUSH0 PUSH1 0x20 DUP3 ADD SWAP1 POP DUP2 DUP2 SUB PUSH0 DUP4 ADD MSTORE PUSH2 0x2ED8 DUP2 PUSH2 0x2E9F JUMP JUMPDEST SWAP1 POP SWAP2 SWAP1 POP JUMP JUMPDEST PUSH32 0x50726F706F73616C20646F6573206E6F74206578697374000000000000000000 PUSH0 DUP3 ADD MSTORE POP JUMP JUMPDEST PUSH0 PUSH2 0x2F13 PUSH1 0x17 DUP4 PUSH2 0x2A28 JUMP JUMPDEST SWAP2 POP PUSH2 0x2F1E DUP3 PUSH2 0x2EDF JUMP JUMPDEST PUSH1 0x20 DUP3 ADD SWAP1 POP SWAP2 SWAP1 POP JUMP JUMPDEST PUSH0 PUSH1 0x20 DUP3 ADD SWAP1 POP DUP2 DUP2 SUB PUSH0 DUP4 ADD MSTORE PUSH2 0x2F40 DUP2 PUSH2 0x2F07 JUMP JUMPDEST SWAP1 POP SWAP2 SWAP1 POP JUMP JUMPDEST PUSH32 0x50726F706F73616C20616C726561647920657865637574656400000000000000 PUSH0 DUP3 ADD MSTORE POP JUMP JUMPDEST PUSH0 PUSH2 0x2F7B PUSH1 0x19 DUP4 PUSH2 0x2A28 JUMP JUMPDEST SWAP2 POP PUSH2 0x2F86 DUP3 PUSH2 0x2F47 JUMP JUMPDEST PUSH1 0x20 DUP3 ADD SWAP1 POP SWAP2 SWAP1 POP JUMP JUMPDEST PUSH0 PUSH1 0x20 DUP3 ADD SWAP1 POP DUP2 DUP2 SUB PUSH0 DUP4 ADD MSTORE PUSH2 0x2FA8 DUP2 PUSH2 0x2F6F JUMP JUMPDEST SWAP1 POP SWAP2 SWAP1 POP JUMP JUMPDEST PUSH32 0x416C7265616479207369676E6564000000000000000000000000000000000000 PUSH0 DUP3 ADD MSTORE POP JUMP JUMPDEST PUSH0 PUSH2 0x2FE3 PUSH1 0xE DUP4 PUSH2 0x2A28 JUMP JUMPDEST SWAP2 POP PUSH2 0x2FEE DUP3 PUSH2 0x2FAF JUMP JUMPDEST PUSH1 0x20 DUP3 ADD SWAP1 POP SWAP2 SWAP1 POP JUMP JUMPDEST PUSH0 PUSH1 0x20 DUP3 ADD SWAP1 POP DUP2 DUP2 SUB PUSH0 DUP4 ADD MSTORE PUSH2 0x3010 DUP2 PUSH2 0x2FD7 JUMP JUMPDEST SWAP1 POP SWAP2 SWAP1 POP JUMP JUMPDEST PUSH0 PUSH2 0x3021 DUP3 PUSH2 0x2418 JUMP JUMPDEST SWAP2 POP PUSH32 0xFFFFFFFFFFFFFFFFFFFFFFFFFFFFFFFFFFFFFFFFFFFFFFFFFFFFFFFFFFFFFFFF DUP3 SUB PUSH2 0x3053 JUMPI PUSH2 0x3052 PUSH2 0x2D31 JUMP JUMPDEST JUMPDEST PUSH1 0x1 DUP3 ADD SWAP1 POP SWAP2 SWAP1 POP JUMP JUMPDEST PUSH2 0x3067 DUP2 PUSH2 0x2760 JUMP JUMPDEST DUP2 EQ PUSH2 0x3071 JUMPI PUSH0 DUP1 REVERT JUMPDEST POP JUMP JUMPDEST PUSH0 DUP2 MLOAD SWAP1 POP PUSH2 0x3082 DUP2 PUSH2 0x305E JUMP JUMPDEST SWAP3 SWAP2 POP POP JUMP JUMPDEST PUSH0 PUSH1 0x20 DUP3 DUP5 SUB SLT ISZERO PUSH2 0x309D JUMPI PUSH2 0x309C PUSH2 0x2410 JUMP JUMPDEST JUMPDEST PUSH0 PUSH2 0x30AA DUP5 DUP3 DUP6 ADD PUSH2 0x3074 JUMP JUMPDEST SWAP2 POP POP SWAP3 SWAP2 POP POP JUMP JUMPDEST PUSH32 0x4E6F7420656E6F756768207369676E6174757265730000000000000000000000 PUSH0 DUP3 ADD MSTORE POP JUMP JUMPDEST PUSH0 PUSH2 0x30E7 PUSH1 0x15 DUP4 PUSH2 0x2A28 JUMP JUMPDEST SWAP2 POP PUSH2 0x30F2 DUP3 PUSH2 0x30B3 JUMP JUMPDEST PUSH1 0x20 DUP3 ADD SWAP1 POP SWAP2 SWAP1 POP JUMP JUMPDEST PUSH0 PUSH1 0x20 DUP3 ADD SWAP1 POP DUP2 DUP2 SUB PUSH0 DUP4 ADD MSTORE PUSH2 0x3114 DUP2 PUSH2 0x30DB JUMP JUMPDEST SWAP1 POP SWAP2 SWAP1 POP JUMP JUMPDEST PUSH0 PUSH1 0x40 DUP3 ADD SWAP1 POP PUSH2 0x312E PUSH0 DUP4 ADD DUP6 PUSH2 0x24B4 JUMP JUMPDEST PUSH2 0x313B PUSH1 0x20 DUP4 ADD DUP5 PUSH2 0x2932 JUMP JUMPDEST SWAP4 SWAP3 POP POP POP JUMP JUMPDEST PUSH0 PUSH8 0xFFFFFFFFFFFFFFFF DUP3 GT ISZERO PUSH2 0x315C JUMPI PUSH2 0x315B PUSH2 0x25E2 JUMP JUMPDEST JUMPDEST PUSH2 0x3165 DUP3 PUSH2 0x25D2 JUMP JUMPDEST SWAP1 POP PUSH1 0x20 DUP2 ADD SWAP1 POP SWAP2 SWAP1 POP JUMP JUMPDEST PUSH0 PUSH2 0x3184 PUSH2 0x317F DUP5 PUSH2 0x3142 JUMP JUMPDEST PUSH2 0x2640 JUMP JUMPDEST SWAP1 POP DUP3 DUP2 MSTORE PUSH1 0x20 DUP2 ADD DUP5 DUP5 DUP5 ADD GT ISZERO PUSH2 0x31A0 JUMPI PUSH2 0x319F PUSH2 0x25CE JUMP JUMPDEST JUMPDEST PUSH2 0x31AB DUP5 DUP3 DUP6 PUSH2 0x2A38 JUMP JUMPDEST POP SWAP4 SWAP3 POP POP POP JUMP JUMPDEST PUSH0 DUP3 PUSH1 0x1F DUP4 ADD SLT PUSH2 0x31C7 JUMPI PUSH2 0x31C6 PUSH2 0x25CA JUMP JUMPDEST JUMPDEST DUP2 MLOAD PUSH2 0x31D7 DUP5 DUP3 PUSH1 0x20 DUP7 ADD PUSH2 0x3172 JUMP JUMPDEST SWAP2 POP POP SWAP3 SWAP2 POP POP JUMP JUMPDEST PUSH0 DUP2 MLOAD SWAP1 POP PUSH2 0x31EE DUP2 PUSH2 0x25A0 JUMP JUMPDEST SWAP3 SWAP2 POP POP JUMP JUMPDEST PUSH1 0x2 DUP2 LT PUSH2 0x3200 JUMPI PUSH0 DUP1 REVERT JUMPDEST POP JUMP JUMPDEST PUSH0 DUP2 MLOAD SWAP1 POP PUSH2 0x3211 DUP2 PUSH2 0x31F4 JUMP JUMPDEST SWAP3 SWAP2 POP POP JUMP JUMPDEST PUSH0 DUP1 PUSH0 DUP1 PUSH0 DUP1 PUSH0 DUP1 PUSH2 0x100 DUP10 DUP12 SUB SLT ISZERO PUSH2 0x3234 JUMPI PUSH2 0x3233 PUSH2 0x2410 JUMP JUMPDEST JUMPDEST PUSH0 DUP10 ADD MLOAD PUSH8 0xFFFFFFFFFFFFFFFF DUP2 GT ISZERO PUSH2 0x3251 JUMPI PUSH2 0x3250 PUSH2 0x2414 JUMP JUMPDEST JUMPDEST PUSH2 0x325D DUP12 DUP3 DUP13 ADD PUSH2 0x31B3 JUMP JUMPDEST SWAP9 POP POP PUSH1 0x20 DUP10 ADD MLOAD PUSH8 0xFFFFFFFFFFFFFFFF DUP2 GT ISZERO PUSH2 0x327E JUMPI PUSH2 0x327D PUSH2 0x2414 JUMP JUMPDEST JUMPDEST PUSH2 0x328A DUP12 DUP3 DUP13 ADD PUSH2 0x31B3 JUMP JUMPDEST SWAP8 POP POP PUSH1 0x40 DUP10 ADD MLOAD PUSH8 0xFFFFFFFFFFFFFFFF DUP2 GT ISZERO PUSH2 0x32AB JUMPI PUSH2 0x32AA PUSH2 0x2414 JUMP JUMPDEST JUMPDEST PUSH2 0x32B7 DUP12 DUP3 DUP13 ADD PUSH2 0x31B3 JUMP JUMPDEST SWAP7 POP POP PUSH1 0x60 PUSH2 0x32C8 DUP12 DUP3 DUP13 ADD PUSH2 0x31E0 JUMP JUMPDEST SWAP6 POP POP PUSH1 0x80 PUSH2 0x32D9 DUP12 DUP3 DUP13 ADD PUSH2 0x2CF2 JUMP JUMPDEST SWAP5 POP POP PUSH1 0xA0 PUSH2 0x32EA DUP12 DUP3 DUP13 ADD PUSH2 0x3203 JUMP JUMPDEST SWAP4 POP POP PUSH1 0xC0 PUSH2 0x32FB DUP12 DUP3 DUP13 ADD PUSH2 0x2CF2 JUMP JUMPDEST SWAP3 POP POP PUSH1 0xE0 PUSH2 0x330C DUP12 DUP3 DUP13 ADD PUSH2 0x31E0 JUMP JUMPDEST SWAP2 POP POP SWAP3 SWAP6 SWAP9 POP SWAP3 SWAP6 SWAP9 SWAP1 SWAP4 SWAP7 POP JUMP JUMPDEST PUSH32 0x436F6D6D756E69747920746F6B656E206E6F7420666F756E6400000000000000 PUSH0 DUP3 ADD MSTORE POP JUMP JUMPDEST PUSH0 PUSH2 0x3350 PUSH1 0x19 DUP4 PUSH2 0x2A28 JUMP JUMPDEST SWAP2 POP PUSH2 0x335B DUP3 PUSH2 0x331C JUMP JUMPDEST PUSH1 0x20 DUP3 ADD SWAP1 POP SWAP2 SWAP1 POP JUMP JUMPDEST PUSH0 PUSH1 0x20 DUP3 ADD SWAP1 POP DUP2 DUP2 SUB PUSH0 DUP4 ADD MSTORE PUSH2 0x337D DUP2 PUSH2 0x3344 JUMP JUMPDEST SWAP1 POP SWAP2 SWAP1 POP JUMP JUMPDEST PUSH0 DUP2 MLOAD SWAP1 POP SWAP2 SWAP1 POP JUMP JUMPDEST PUSH0 DUP2 SWAP1 POP SWAP3 SWAP2 POP POP JUMP JUMPDEST PUSH0 PUSH2 0x33A2 DUP3 PUSH2 0x3384 JUMP JUMPDEST PUSH2 0x33AC DUP2 DUP6 PUSH2 0x338E JUMP JUMPDEST SWAP4 POP PUSH2 0x33BC DUP2 DUP6 PUSH1 0x20 DUP7 ADD PUSH2 0x2A38 JUMP JUMPDEST DUP1 DUP5 ADD SWAP2 POP POP SWAP3 SWAP2 POP POP JUMP JUMPDEST PUSH0 PUSH2 0x33D3 DUP3 DUP5 PUSH2 0x3398 JUMP JUMPDEST SWAP2 POP DUP2 SWAP1 POP SWAP3 SWAP2 POP POP JUMP INVALID LOG2 PUSH5 0x6970667358 0x22 SLT KECCAK256 GAS COINBASE POP CODESIZE CREATE STATICCALL 0xDC PUSH25 0x611BA8CF5841C484219D33F20AB8EC7827299E324D9F3C7064 PUSH20 0x6F6C634300081A00330000000000000000000000 "
				},
				"gasEstimates": {
					"creation": {
						"codeDepositCost": "2666400",
						"executionCost": "infinite",
						"totalCost": "infinite"
					},
					"external": {
						"UPGRADE_INTERFACE_VERSION()": "infinite",
						"contributionsContract()": "infinite",
						"createProposal(uint256,uint256,uint8,uint256,address)": "infinite",
						"getMultiSigInfo(uint256)": "infinite",
						"getProposal(uint256,uint256)": "infinite",
						"getRespectToDistribute(uint256)": "infinite",
						"getTopRespectedUsers(uint256)": "infinite",
						"hasSignedProposal(uint256,uint256,address)": "infinite",
						"initialize(address)": "infinite",
						"owner()": "2656",
						"profilesContract()": "infinite",
						"proxiableUUID()": "infinite",
						"renounceOwnership()": "infinite",
						"setContributionsContract(address)": "infinite",
						"setProfilesContract(address)": "infinite",
						"setRespectToDistributeByOwner(uint256,uint256)": "infinite",
						"signProposal(uint256,uint256)": "infinite",
						"transferOwnership(address)": "infinite",
						"updateTopRespectedUsers(uint256,address[])": "infinite",
						"upgradeToAndCall(address,bytes)": "infinite"
					},
					"internal": {
						"_authorizeUpgrade(address)": "infinite",
						"executeProposal(uint256,uint256)": "infinite",
						"isTopRespectedUser(address,address[5] memory)": "infinite",
						"mintTokens(uint256,uint256)": "infinite",
						"removeMember(uint256,address)": "infinite",
						"setRespectToDistribute(uint256,uint256)": "infinite"
					}
				},
				"methodIdentifiers": {
					"UPGRADE_INTERFACE_VERSION()": "ad3cb1cc",
					"contributionsContract()": "de04bbd2",
					"createProposal(uint256,uint256,uint8,uint256,address)": "c0458ddc",
					"getMultiSigInfo(uint256)": "392ee8c1",
					"getProposal(uint256,uint256)": "aba21009",
					"getRespectToDistribute(uint256)": "d5d8617a",
					"getTopRespectedUsers(uint256)": "e7d3f1f9",
					"hasSignedProposal(uint256,uint256,address)": "674e9c60",
					"initialize(address)": "c4d66de8",
					"owner()": "8da5cb5b",
					"profilesContract()": "06428f02",
					"proxiableUUID()": "52d1902d",
					"renounceOwnership()": "715018a6",
					"setContributionsContract(address)": "d599ba92",
					"setProfilesContract(address)": "c56b4aed",
					"setRespectToDistributeByOwner(uint256,uint256)": "32eea301",
					"signProposal(uint256,uint256)": "fadc1930",
					"transferOwnership(address)": "f2fde38b",
					"updateTopRespectedUsers(uint256,address[])": "69c43915",
					"upgradeToAndCall(address,bytes)": "4f1ef286"
				}
			},
			"storageLayout": {
				"storage": [
					{
						"astId": 1369,
						"contract": "UUPScontracts/CommunityGovernanceMultisigImplementation.sol:CommunityGovernanceMultiSigImplementation",
						"label": "profilesContract",
						"offset": 0,
						"slot": "0",
						"type": "t_contract(ICommunityGovernanceProfiles)2510"
					},
					{
						"astId": 1372,
						"contract": "UUPScontracts/CommunityGovernanceMultisigImplementation.sol:CommunityGovernanceMultiSigImplementation",
						"label": "contributionsContract",
						"offset": 0,
						"slot": "1",
						"type": "t_contract(ICommunityGovernanceContributions)2338"
					},
					{
						"astId": 1409,
						"contract": "UUPScontracts/CommunityGovernanceMultisigImplementation.sol:CommunityGovernanceMultiSigImplementation",
						"label": "communityMultiSigs",
						"offset": 0,
						"slot": "2",
						"type": "t_mapping(t_uint256,t_struct(MultiSigInfo)1384_storage)"
					}
				],
				"types": {
					"t_address": {
						"encoding": "inplace",
						"label": "address",
						"numberOfBytes": "20"
					},
					"t_array(t_address)5_storage": {
						"base": "t_address",
						"encoding": "inplace",
						"label": "address[5]",
						"numberOfBytes": "160"
					},
					"t_bool": {
						"encoding": "inplace",
						"label": "bool",
						"numberOfBytes": "1"
					},
					"t_contract(ICommunityGovernanceContributions)2338": {
						"encoding": "inplace",
						"label": "contract ICommunityGovernanceContributions",
						"numberOfBytes": "20"
					},
					"t_contract(ICommunityGovernanceProfiles)2510": {
						"encoding": "inplace",
						"label": "contract ICommunityGovernanceProfiles",
						"numberOfBytes": "20"
					},
					"t_enum(ProposalType)1404": {
						"encoding": "inplace",
						"label": "enum CommunityGovernanceMultiSigStorage.ProposalType",
						"numberOfBytes": "1"
					},
					"t_mapping(t_address,t_bool)": {
						"encoding": "mapping",
						"key": "t_address",
						"label": "mapping(address => bool)",
						"numberOfBytes": "32",
						"value": "t_bool"
					},
					"t_mapping(t_uint256,t_struct(MultiSigInfo)1384_storage)": {
						"encoding": "mapping",
						"key": "t_uint256",
						"label": "mapping(uint256 => struct CommunityGovernanceMultiSigStorage.MultiSigInfo)",
						"numberOfBytes": "32",
						"value": "t_struct(MultiSigInfo)1384_storage"
					},
					"t_mapping(t_uint256,t_struct(MultiSigProposal)1400_storage)": {
						"encoding": "mapping",
						"key": "t_uint256",
						"label": "mapping(uint256 => struct CommunityGovernanceMultiSigStorage.MultiSigProposal)",
						"numberOfBytes": "32",
						"value": "t_struct(MultiSigProposal)1400_storage"
					},
					"t_struct(MultiSigInfo)1384_storage": {
						"encoding": "inplace",
						"label": "struct CommunityGovernanceMultiSigStorage.MultiSigInfo",
						"members": [
							{
								"astId": 1377,
								"contract": "UUPScontracts/CommunityGovernanceMultisigImplementation.sol:CommunityGovernanceMultiSigImplementation",
								"label": "proposals",
								"offset": 0,
								"slot": "0",
								"type": "t_mapping(t_uint256,t_struct(MultiSigProposal)1400_storage)"
							},
							{
								"astId": 1381,
								"contract": "UUPScontracts/CommunityGovernanceMultisigImplementation.sol:CommunityGovernanceMultiSigImplementation",
								"label": "topRespectedUsers",
								"offset": 0,
								"slot": "1",
								"type": "t_array(t_address)5_storage"
							},
							{
								"astId": 1383,
								"contract": "UUPScontracts/CommunityGovernanceMultisigImplementation.sol:CommunityGovernanceMultiSigImplementation",
								"label": "respectToDistribute",
								"offset": 0,
								"slot": "6",
								"type": "t_uint256"
							}
						],
						"numberOfBytes": "224"
					},
					"t_struct(MultiSigProposal)1400_storage": {
						"encoding": "inplace",
						"label": "struct CommunityGovernanceMultiSigStorage.MultiSigProposal",
						"members": [
							{
								"astId": 1387,
								"contract": "UUPScontracts/CommunityGovernanceMultisigImplementation.sol:CommunityGovernanceMultiSigImplementation",
								"label": "proposalType",
								"offset": 0,
								"slot": "0",
								"type": "t_enum(ProposalType)1404"
							},
							{
								"astId": 1389,
								"contract": "UUPScontracts/CommunityGovernanceMultisigImplementation.sol:CommunityGovernanceMultiSigImplementation",
								"label": "value",
								"offset": 0,
								"slot": "1",
								"type": "t_uint256"
							},
							{
								"astId": 1391,
								"contract": "UUPScontracts/CommunityGovernanceMultisigImplementation.sol:CommunityGovernanceMultiSigImplementation",
								"label": "targetMember",
								"offset": 0,
								"slot": "2",
								"type": "t_address"
							},
							{
								"astId": 1393,
								"contract": "UUPScontracts/CommunityGovernanceMultisigImplementation.sol:CommunityGovernanceMultiSigImplementation",
								"label": "signatureCount",
								"offset": 0,
								"slot": "3",
								"type": "t_uint256"
							},
							{
								"astId": 1397,
								"contract": "UUPScontracts/CommunityGovernanceMultisigImplementation.sol:CommunityGovernanceMultiSigImplementation",
								"label": "hasSignedProposal",
								"offset": 0,
								"slot": "4",
								"type": "t_mapping(t_address,t_bool)"
							},
							{
								"astId": 1399,
								"contract": "UUPScontracts/CommunityGovernanceMultisigImplementation.sol:CommunityGovernanceMultiSigImplementation",
								"label": "executed",
								"offset": 0,
								"slot": "5",
								"type": "t_bool"
							}
						],
						"numberOfBytes": "192"
					},
					"t_uint256": {
						"encoding": "inplace",
						"label": "uint256",
						"numberOfBytes": "32"
					}
				}
			},
			"userdoc": {
				"kind": "user",
				"methods": {},
				"version": 1
			}
		}
	}
}