{
	"UUPScontracts/CommunityStateManager.sol": {
		"CommunityStateManager": {
			"abi": [
				{
					"inputs": [],
					"stateMutability": "nonpayable",
					"type": "constructor"
				},
				{
					"inputs": [
						{
							"internalType": "address",
							"name": "target",
							"type": "address"
						}
					],
					"name": "AddressEmptyCode",
					"type": "error"
				},
				{
					"inputs": [
						{
							"internalType": "address",
							"name": "implementation",
							"type": "address"
						}
					],
					"name": "ERC1967InvalidImplementation",
					"type": "error"
				},
				{
					"inputs": [],
					"name": "ERC1967NonPayable",
					"type": "error"
				},
				{
					"inputs": [],
					"name": "FailedInnerCall",
					"type": "error"
				},
				{
					"inputs": [],
					"name": "InvalidInitialization",
					"type": "error"
				},
				{
					"inputs": [],
					"name": "NotInitializing",
					"type": "error"
				},
				{
					"inputs": [
						{
							"internalType": "address",
							"name": "owner",
							"type": "address"
						}
					],
					"name": "OwnableInvalidOwner",
					"type": "error"
				},
				{
					"inputs": [
						{
							"internalType": "address",
							"name": "account",
							"type": "address"
						}
					],
					"name": "OwnableUnauthorizedAccount",
					"type": "error"
				},
				{
					"inputs": [],
					"name": "UUPSUnauthorizedCallContext",
					"type": "error"
				},
				{
					"inputs": [
						{
							"internalType": "bytes32",
							"name": "slot",
							"type": "bytes32"
						}
					],
					"name": "UUPSUnsupportedProxiableUUID",
					"type": "error"
				},
				{
					"anonymous": false,
					"inputs": [
						{
							"indexed": true,
							"internalType": "uint256",
							"name": "communityId",
							"type": "uint256"
						},
						{
							"indexed": false,
							"internalType": "enum ICommunityGovernanceProfiles.CommunityState",
							"name": "newState",
							"type": "uint8"
						}
					],
					"name": "CommunityStateChanged",
					"type": "event"
				},
				{
					"anonymous": false,
					"inputs": [
						{
							"indexed": false,
							"internalType": "uint64",
							"name": "version",
							"type": "uint64"
						}
					],
					"name": "Initialized",
					"type": "event"
				},
				{
					"anonymous": false,
					"inputs": [
						{
							"indexed": true,
							"internalType": "address",
							"name": "previousOwner",
							"type": "address"
						},
						{
							"indexed": true,
							"internalType": "address",
							"name": "newOwner",
							"type": "address"
						}
					],
					"name": "OwnershipTransferred",
					"type": "event"
				},
				{
					"anonymous": false,
					"inputs": [
						{
							"indexed": false,
							"internalType": "string",
							"name": "communityId",
							"type": "string"
						}
					],
					"name": "RankingtoSubmission",
					"type": "event"
				},
				{
					"anonymous": false,
					"inputs": [
						{
							"indexed": false,
							"internalType": "string",
							"name": "idWeek",
							"type": "string"
						}
					],
					"name": "SubmissionToContributionTransition",
					"type": "event"
				},
				{
					"anonymous": false,
					"inputs": [
						{
							"indexed": true,
							"internalType": "address",
							"name": "implementation",
							"type": "address"
						}
					],
					"name": "Upgraded",
					"type": "event"
				},
				{
					"inputs": [],
					"name": "UPGRADE_INTERFACE_VERSION",
					"outputs": [
						{
							"internalType": "string",
							"name": "",
							"type": "string"
						}
					],
					"stateMutability": "view",
					"type": "function"
				},
				{
					"inputs": [
						{
							"internalType": "uint256",
							"name": "_communityId",
							"type": "uint256"
						}
					],
					"name": "changeState",
					"outputs": [],
					"stateMutability": "nonpayable",
					"type": "function"
				},
				{
					"inputs": [],
					"name": "contributionsContract",
					"outputs": [
						{
							"internalType": "contract ICommunityGovernanceContributions",
							"name": "",
							"type": "address"
						}
					],
					"stateMutability": "view",
					"type": "function"
				},
				{
					"inputs": [
						{
							"internalType": "address",
							"name": "initialOwner",
							"type": "address"
						}
					],
					"name": "initialize",
					"outputs": [],
					"stateMutability": "nonpayable",
					"type": "function"
				},
				{
					"inputs": [],
					"name": "multiSigContract",
					"outputs": [
						{
							"internalType": "contract ICommunityGovernanceMultiSig",
							"name": "",
							"type": "address"
						}
					],
					"stateMutability": "view",
					"type": "function"
				},
				{
					"inputs": [],
					"name": "owner",
					"outputs": [
						{
							"internalType": "address",
							"name": "",
							"type": "address"
						}
					],
					"stateMutability": "view",
					"type": "function"
				},
				{
					"inputs": [],
					"name": "profilesContract",
					"outputs": [
						{
							"internalType": "contract ICommunityGovernanceProfiles",
							"name": "",
							"type": "address"
						}
					],
					"stateMutability": "view",
					"type": "function"
				},
				{
					"inputs": [],
					"name": "proxiableUUID",
					"outputs": [
						{
							"internalType": "bytes32",
							"name": "",
							"type": "bytes32"
						}
					],
					"stateMutability": "view",
					"type": "function"
				},
				{
					"inputs": [],
					"name": "rankingsContract",
					"outputs": [
						{
							"internalType": "contract ICommunityGovernanceRankings",
							"name": "",
							"type": "address"
						}
					],
					"stateMutability": "view",
					"type": "function"
				},
				{
					"inputs": [],
					"name": "renounceOwnership",
					"outputs": [],
					"stateMutability": "nonpayable",
					"type": "function"
				},
				{
					"inputs": [
						{
							"internalType": "address",
							"name": "_contributionsContractAddress",
							"type": "address"
						}
					],
					"name": "setContributionsContract",
					"outputs": [],
					"stateMutability": "nonpayable",
					"type": "function"
				},
				{
					"inputs": [
						{
							"internalType": "address",
							"name": "_multiSigContractAddress",
							"type": "address"
						}
					],
					"name": "setMultiSigContract",
					"outputs": [],
					"stateMutability": "nonpayable",
					"type": "function"
				},
				{
					"inputs": [
						{
							"internalType": "address",
							"name": "_profilesContractAddress",
							"type": "address"
						}
					],
					"name": "setProfilesContract",
					"outputs": [],
					"stateMutability": "nonpayable",
					"type": "function"
				},
				{
					"inputs": [
						{
							"internalType": "address",
							"name": "_rankingsContractAddress",
							"type": "address"
						}
					],
					"name": "setRankingsContract",
					"outputs": [],
					"stateMutability": "nonpayable",
					"type": "function"
				},
				{
					"inputs": [
						{
							"internalType": "address",
							"name": "newOwner",
							"type": "address"
						}
					],
					"name": "transferOwnership",
					"outputs": [],
					"stateMutability": "nonpayable",
					"type": "function"
				},
				{
					"inputs": [
						{
							"internalType": "address",
							"name": "newImplementation",
							"type": "address"
						},
						{
							"internalType": "bytes",
							"name": "data",
							"type": "bytes"
						}
					],
					"name": "upgradeToAndCall",
					"outputs": [],
					"stateMutability": "payable",
					"type": "function"
				}
			],
			"devdoc": {
				"errors": {
					"AddressEmptyCode(address)": [
						{
							"details": "There's no code at `target` (it is not a contract)."
						}
					],
					"ERC1967InvalidImplementation(address)": [
						{
							"details": "The `implementation` of the proxy is invalid."
						}
					],
					"ERC1967NonPayable()": [
						{
							"details": "An upgrade function sees `msg.value > 0` that may be lost."
						}
					],
					"FailedInnerCall()": [
						{
							"details": "A call to an address target failed. The target may have reverted."
						}
					],
					"InvalidInitialization()": [
						{
							"details": "The contract is already initialized."
						}
					],
					"NotInitializing()": [
						{
							"details": "The contract is not initializing."
						}
					],
					"OwnableInvalidOwner(address)": [
						{
							"details": "The owner is not a valid owner account. (eg. `address(0)`)"
						}
					],
					"OwnableUnauthorizedAccount(address)": [
						{
							"details": "The caller account is not authorized to perform an operation."
						}
					],
					"UUPSUnauthorizedCallContext()": [
						{
							"details": "The call is from an unauthorized context."
						}
					],
					"UUPSUnsupportedProxiableUUID(bytes32)": [
						{
							"details": "The storage `slot` is unsupported as a UUID."
						}
					]
				},
				"events": {
					"Initialized(uint64)": {
						"details": "Triggered when the contract has been initialized or reinitialized."
					},
					"Upgraded(address)": {
						"details": "Emitted when the implementation is upgraded."
					}
				},
				"kind": "dev",
				"methods": {
					"constructor": {
						"custom:oz-upgrades-unsafe-allow": "constructor"
					},
					"owner()": {
						"details": "Returns the address of the current owner."
					},
					"proxiableUUID()": {
						"details": "Implementation of the ERC1822 {proxiableUUID} function. This returns the storage slot used by the implementation. It is used to validate the implementation's compatibility when performing an upgrade. IMPORTANT: A proxy pointing at a proxiable contract should not be considered proxiable itself, because this risks bricking a proxy that upgrades to it, by delegating to itself until out of gas. Thus it is critical that this function revert if invoked through a proxy. This is guaranteed by the `notDelegated` modifier."
					},
					"renounceOwnership()": {
						"details": "Leaves the contract without owner. It will not be possible to call `onlyOwner` functions. Can only be called by the current owner. NOTE: Renouncing ownership will leave the contract without an owner, thereby disabling any functionality that is only available to the owner."
					},
					"transferOwnership(address)": {
						"details": "Transfers ownership of the contract to a new account (`newOwner`). Can only be called by the current owner."
					},
					"upgradeToAndCall(address,bytes)": {
						"custom:oz-upgrades-unsafe-allow-reachable": "delegatecall",
						"details": "Upgrade the implementation of the proxy to `newImplementation`, and subsequently execute the function call encoded in `data`. Calls {_authorizeUpgrade}. Emits an {Upgraded} event."
					}
				},
				"version": 1
			},
			"evm": {
				"assembly": "    /* \"UUPScontracts/CommunityStateManager.sol\":387:4453  contract CommunityStateManager is Initializable, OwnableUpgradeable, UUPSUpgradeable, CommunityStateManagerStorage {... */\n  mstore(0x40, 0xa0)\n    /* \"@openzeppelin/contracts-upgradeable/proxy/utils/UUPSUpgradeable.sol\":1171:1175  this */\n  address\n    /* \"@openzeppelin/contracts-upgradeable/proxy/utils/UUPSUpgradeable.sol\":1128:1176  address private immutable __self = address(this) */\n  0xffffffffffffffffffffffffffffffffffffffff\n  and\n  0x80\n  swap1\n  0xffffffffffffffffffffffffffffffffffffffff\n  and\n  dup2\n  mstore\n  pop\n    /* \"UUPScontracts/CommunityStateManager.sol\":563:616  constructor() {... */\n  callvalue\n  dup1\n  iszero\n  tag_1\n  jumpi\n  0x00\n  dup1\n  revert\ntag_1:\n  pop\n    /* \"UUPScontracts/CommunityStateManager.sol\":587:609  _disableInitializers() */\n  tag_4\n    /* \"UUPScontracts/CommunityStateManager.sol\":587:607  _disableInitializers */\n  shl(0x20, tag_5)\n    /* \"UUPScontracts/CommunityStateManager.sol\":587:609  _disableInitializers() */\n  0x20\n  shr\n  jump\t// in\ntag_4:\n    /* \"UUPScontracts/CommunityStateManager.sol\":387:4453  contract CommunityStateManager is Initializable, OwnableUpgradeable, UUPSUpgradeable, CommunityStateManagerStorage {... */\n  jump(tag_6)\n    /* \"@openzeppelin/contracts-upgradeable/proxy/utils/Initializable.sol\":7711:8133  function _disableInitializers() internal virtual {... */\ntag_5:\n    /* \"@openzeppelin/contracts-upgradeable/proxy/utils/Initializable.sol\":7826:7856  InitializableStorage storage $ */\n  0x00\n    /* \"@openzeppelin/contracts-upgradeable/proxy/utils/Initializable.sol\":7859:7885  _getInitializableStorage() */\n  tag_8\n    /* \"@openzeppelin/contracts-upgradeable/proxy/utils/Initializable.sol\":7859:7883  _getInitializableStorage */\n  shl(0x20, tag_9)\n    /* \"@openzeppelin/contracts-upgradeable/proxy/utils/Initializable.sol\":7859:7885  _getInitializableStorage() */\n  0x20\n  shr\n  jump\t// in\ntag_8:\n    /* \"@openzeppelin/contracts-upgradeable/proxy/utils/Initializable.sol\":7826:7885  InitializableStorage storage $ = _getInitializableStorage() */\n  swap1\n  pop\n    /* \"@openzeppelin/contracts-upgradeable/proxy/utils/Initializable.sol\":7900:7901  $ */\n  dup1\n    /* \"@openzeppelin/contracts-upgradeable/proxy/utils/Initializable.sol\":7900:7915  $._initializing */\n  0x00\n  add\n  0x08\n  swap1\n  sload\n  swap1\n  0x0100\n  exp\n  swap1\n  div\n  0xff\n  and\n    /* \"@openzeppelin/contracts-upgradeable/proxy/utils/Initializable.sol\":7896:7972  if ($._initializing) {... */\n  iszero\n  tag_10\n  jumpi\n    /* \"@openzeppelin/contracts-upgradeable/proxy/utils/Initializable.sol\":7938:7961  InvalidInitialization() */\n  mload(0x40)\n  0xf92ee8a900000000000000000000000000000000000000000000000000000000\n  dup2\n  mstore\n  0x04\n  add\n  mload(0x40)\n  dup1\n  swap2\n  sub\n  swap1\n  revert\n    /* \"@openzeppelin/contracts-upgradeable/proxy/utils/Initializable.sol\":7896:7972  if ($._initializing) {... */\ntag_10:\n    /* \"@openzeppelin/contracts-upgradeable/proxy/utils/Initializable.sol\":8003:8019  type(uint64).max */\n  0xffffffffffffffff\n    /* \"@openzeppelin/contracts-upgradeable/proxy/utils/Initializable.sol\":7985:8019  $._initialized != type(uint64).max */\n  dup1\n  and\n    /* \"@openzeppelin/contracts-upgradeable/proxy/utils/Initializable.sol\":7985:7986  $ */\n  dup2\n    /* \"@openzeppelin/contracts-upgradeable/proxy/utils/Initializable.sol\":7985:7999  $._initialized */\n  0x00\n  add\n  0x00\n  swap1\n  sload\n  swap1\n  0x0100\n  exp\n  swap1\n  div\n  0xffffffffffffffff\n  and\n    /* \"@openzeppelin/contracts-upgradeable/proxy/utils/Initializable.sol\":7985:8019  $._initialized != type(uint64).max */\n  0xffffffffffffffff\n  and\n  eq\n    /* \"@openzeppelin/contracts-upgradeable/proxy/utils/Initializable.sol\":7981:8127  if ($._initialized != type(uint64).max) {... */\n  tag_11\n  jumpi\n    /* \"@openzeppelin/contracts-upgradeable/proxy/utils/Initializable.sol\":8052:8068  type(uint64).max */\n  0xffffffffffffffff\n    /* \"@openzeppelin/contracts-upgradeable/proxy/utils/Initializable.sol\":8035:8036  $ */\n  dup2\n    /* \"@openzeppelin/contracts-upgradeable/proxy/utils/Initializable.sol\":8035:8049  $._initialized */\n  0x00\n  add\n  0x00\n    /* \"@openzeppelin/contracts-upgradeable/proxy/utils/Initializable.sol\":8035:8068  $._initialized = type(uint64).max */\n  0x0100\n  exp\n  dup2\n  sload\n  dup2\n  0xffffffffffffffff\n  mul\n  not\n  and\n  swap1\n  dup4\n  0xffffffffffffffff\n  and\n  mul\n  or\n  swap1\n  sstore\n  pop\n    /* \"@openzeppelin/contracts-upgradeable/proxy/utils/Initializable.sol\":8087:8116  Initialized(type(uint64).max) */\n  0xc7f505b2f371ae2175ee4913f4499e1f2633a7b5936321eed1cdaeb6115181d2\n    /* \"@openzeppelin/contracts-upgradeable/proxy/utils/Initializable.sol\":8099:8115  type(uint64).max */\n  0xffffffffffffffff\n    /* \"@openzeppelin/contracts-upgradeable/proxy/utils/Initializable.sol\":8087:8116  Initialized(type(uint64).max) */\n  mload(0x40)\n  tag_12\n  swap2\n  swap1\n  tag_13\n  jump\t// in\ntag_12:\n  mload(0x40)\n  dup1\n  swap2\n  sub\n  swap1\n  log1\n    /* \"@openzeppelin/contracts-upgradeable/proxy/utils/Initializable.sol\":7981:8127  if ($._initialized != type(uint64).max) {... */\ntag_11:\n    /* \"@openzeppelin/contracts-upgradeable/proxy/utils/Initializable.sol\":7760:8133  {... */\n  pop\n    /* \"@openzeppelin/contracts-upgradeable/proxy/utils/Initializable.sol\":7711:8133  function _disableInitializers() internal virtual {... */\n  jump\t// out\n    /* \"@openzeppelin/contracts-upgradeable/proxy/utils/Initializable.sol\":8737:8907  function _getInitializableStorage() private pure returns (InitializableStorage storage $) {... */\ntag_9:\n    /* \"@openzeppelin/contracts-upgradeable/proxy/utils/Initializable.sol\":8795:8825  InitializableStorage storage $ */\n  0x00\n    /* \"@openzeppelin/contracts-upgradeable/proxy/utils/Initializable.sol\":8870:8891  INITIALIZABLE_STORAGE */\n  0xf0c57e16840df040f15088dc2f81fe391c3923bec73e23a9662efc9c229c6a00\n    /* \"@openzeppelin/contracts-upgradeable/proxy/utils/Initializable.sol\":8860:8891  $.slot := INITIALIZABLE_STORAGE */\n  swap1\n  pop\n    /* \"@openzeppelin/contracts-upgradeable/proxy/utils/Initializable.sol\":8737:8907  function _getInitializableStorage() private pure returns (InitializableStorage storage $) {... */\n  swap1\n  jump\t// out\n    /* \"#utility.yul\":7:108   */\ntag_15:\n    /* \"#utility.yul\":43:50   */\n  0x00\n    /* \"#utility.yul\":83:101   */\n  0xffffffffffffffff\n    /* \"#utility.yul\":76:81   */\n  dup3\n    /* \"#utility.yul\":72:102   */\n  and\n    /* \"#utility.yul\":61:102   */\n  swap1\n  pop\n    /* \"#utility.yul\":7:108   */\n  swap2\n  swap1\n  pop\n  jump\t// out\n    /* \"#utility.yul\":114:229   */\ntag_16:\n    /* \"#utility.yul\":199:222   */\n  tag_20\n    /* \"#utility.yul\":216:221   */\n  dup2\n    /* \"#utility.yul\":199:222   */\n  tag_15\n  jump\t// in\ntag_20:\n    /* \"#utility.yul\":194:197   */\n  dup3\n    /* \"#utility.yul\":187:223   */\n  mstore\n    /* \"#utility.yul\":114:229   */\n  pop\n  pop\n  jump\t// out\n    /* \"#utility.yul\":235:453   */\ntag_13:\n    /* \"#utility.yul\":326:330   */\n  0x00\n    /* \"#utility.yul\":364:366   */\n  0x20\n    /* \"#utility.yul\":353:362   */\n  dup3\n    /* \"#utility.yul\":349:367   */\n  add\n    /* \"#utility.yul\":341:367   */\n  swap1\n  pop\n    /* \"#utility.yul\":377:446   */\n  tag_22\n    /* \"#utility.yul\":443:444   */\n  0x00\n    /* \"#utility.yul\":432:441   */\n  dup4\n    /* \"#utility.yul\":428:445   */\n  add\n    /* \"#utility.yul\":419:425   */\n  dup5\n    /* \"#utility.yul\":377:446   */\n  tag_16\n  jump\t// in\ntag_22:\n    /* \"#utility.yul\":235:453   */\n  swap3\n  swap2\n  pop\n  pop\n  jump\t// out\n    /* \"UUPScontracts/CommunityStateManager.sol\":387:4453  contract CommunityStateManager is Initializable, OwnableUpgradeable, UUPSUpgradeable, CommunityStateManagerStorage {... */\ntag_6:\n  mload(0x80)\n  codecopy(0x00, dataOffset(sub_0), dataSize(sub_0))\n  0x00\n  assignImmutable(\"0x0b83f23a4eeb8c3f5f7d5934a2289bcf0186d09a12e1b7f20adf54e4b179db15\")\n  return(0x00, dataSize(sub_0))\nstop\n\nsub_0: assembly {\n        /* \"UUPScontracts/CommunityStateManager.sol\":387:4453  contract CommunityStateManager is Initializable, OwnableUpgradeable, UUPSUpgradeable, CommunityStateManagerStorage {... */\n      mstore(0x40, 0x80)\n      jumpi(tag_1, lt(calldatasize, 0x04))\n      shr(0xe0, calldataload(0x00))\n      dup1\n      0xad3cb1cc\n      gt\n      tag_18\n      jumpi\n      dup1\n      0xd599ba92\n      gt\n      tag_19\n      jumpi\n      dup1\n      0xd599ba92\n      eq\n      tag_14\n      jumpi\n      dup1\n      0xde04bbd2\n      eq\n      tag_15\n      jumpi\n      dup1\n      0xf2fde38b\n      eq\n      tag_16\n      jumpi\n      dup1\n      0xfa96a0e7\n      eq\n      tag_17\n      jumpi\n      jump(tag_1)\n    tag_19:\n      dup1\n      0xad3cb1cc\n      eq\n      tag_10\n      jumpi\n      dup1\n      0xb00741cb\n      eq\n      tag_11\n      jumpi\n      dup1\n      0xc4d66de8\n      eq\n      tag_12\n      jumpi\n      dup1\n      0xc56b4aed\n      eq\n      tag_13\n      jumpi\n      jump(tag_1)\n    tag_18:\n      dup1\n      0x67d0864b\n      gt\n      tag_20\n      jumpi\n      dup1\n      0x67d0864b\n      eq\n      tag_6\n      jumpi\n      dup1\n      0x715018a6\n      eq\n      tag_7\n      jumpi\n      dup1\n      0x8da5cb5b\n      eq\n      tag_8\n      jumpi\n      dup1\n      0x8faaefc8\n      eq\n      tag_9\n      jumpi\n      jump(tag_1)\n    tag_20:\n      dup1\n      0x06428f02\n      eq\n      tag_2\n      jumpi\n      dup1\n      0x34c6d8b5\n      eq\n      tag_3\n      jumpi\n      dup1\n      0x4f1ef286\n      eq\n      tag_4\n      jumpi\n      dup1\n      0x52d1902d\n      eq\n      tag_5\n      jumpi\n    tag_1:\n      0x00\n      dup1\n      revert\n        /* \"UUPScontracts/CommunityStateManagerStorage.sol\":331:383  ICommunityGovernanceProfiles public profilesContract */\n    tag_2:\n      callvalue\n      dup1\n      iszero\n      tag_21\n      jumpi\n      0x00\n      dup1\n      revert\n    tag_21:\n      pop\n      tag_22\n      tag_23\n      jump\t// in\n    tag_22:\n      mload(0x40)\n      tag_24\n      swap2\n      swap1\n      tag_25\n      jump\t// in\n    tag_24:\n      mload(0x40)\n      dup1\n      swap2\n      sub\n      swap1\n      return\n        /* \"UUPScontracts/CommunityStateManager.sol\":1531:1703  function setMultiSigContract(address _multiSigContractAddress) external onlyOwner {... */\n    tag_3:\n      callvalue\n      dup1\n      iszero\n      tag_26\n      jumpi\n      0x00\n      dup1\n      revert\n    tag_26:\n      pop\n      tag_27\n      0x04\n      dup1\n      calldatasize\n      sub\n      dup2\n      add\n      swap1\n      tag_28\n      swap2\n      swap1\n      tag_29\n      jump\t// in\n    tag_28:\n      tag_30\n      jump\t// in\n    tag_27:\n      stop\n        /* \"@openzeppelin/contracts-upgradeable/proxy/utils/UUPSUpgradeable.sol\":4158:4372  function upgradeToAndCall(address newImplementation, bytes memory data) public payable virtual onlyProxy {... */\n    tag_4:\n      tag_31\n      0x04\n      dup1\n      calldatasize\n      sub\n      dup2\n      add\n      swap1\n      tag_32\n      swap2\n      swap1\n      tag_33\n      jump\t// in\n    tag_32:\n      tag_34\n      jump\t// in\n    tag_31:\n      stop\n        /* \"@openzeppelin/contracts-upgradeable/proxy/utils/UUPSUpgradeable.sol\":3705:3839  function proxiableUUID() external view virtual notDelegated returns (bytes32) {... */\n    tag_5:\n      callvalue\n      dup1\n      iszero\n      tag_35\n      jumpi\n      0x00\n      dup1\n      revert\n    tag_35:\n      pop\n      tag_36\n      tag_37\n      jump\t// in\n    tag_36:\n      mload(0x40)\n      tag_38\n      swap2\n      swap1\n      tag_39\n      jump\t// in\n    tag_38:\n      mload(0x40)\n      dup1\n      swap2\n      sub\n      swap1\n      return\n        /* \"UUPScontracts/CommunityStateManager.sol\":1150:1322  function setRankingsContract(address _rankingsContractAddress) external onlyOwner {... */\n    tag_6:\n      callvalue\n      dup1\n      iszero\n      tag_40\n      jumpi\n      0x00\n      dup1\n      revert\n    tag_40:\n      pop\n      tag_41\n      0x04\n      dup1\n      calldatasize\n      sub\n      dup2\n      add\n      swap1\n      tag_42\n      swap2\n      swap1\n      tag_29\n      jump\t// in\n    tag_42:\n      tag_43\n      jump\t// in\n    tag_41:\n      stop\n        /* \"@openzeppelin/contracts-upgradeable/access/OwnableUpgradeable.sol\":3155:3256  function renounceOwnership() public virtual onlyOwner {... */\n    tag_7:\n      callvalue\n      dup1\n      iszero\n      tag_44\n      jumpi\n      0x00\n      dup1\n      revert\n    tag_44:\n      pop\n      tag_45\n      tag_46\n      jump\t// in\n    tag_45:\n      stop\n        /* \"@openzeppelin/contracts-upgradeable/access/OwnableUpgradeable.sol\":2441:2585  function owner() public view virtual returns (address) {... */\n    tag_8:\n      callvalue\n      dup1\n      iszero\n      tag_47\n      jumpi\n      0x00\n      dup1\n      revert\n    tag_47:\n      pop\n      tag_48\n      tag_49\n      jump\t// in\n    tag_48:\n      mload(0x40)\n      tag_50\n      swap2\n      swap1\n      tag_51\n      jump\t// in\n    tag_50:\n      mload(0x40)\n      dup1\n      swap2\n      sub\n      swap1\n      return\n        /* \"UUPScontracts/CommunityStateManagerStorage.sol\":515:567  ICommunityGovernanceMultiSig public multiSigContract */\n    tag_9:\n      callvalue\n      dup1\n      iszero\n      tag_52\n      jumpi\n      0x00\n      dup1\n      revert\n    tag_52:\n      pop\n      tag_53\n      tag_54\n      jump\t// in\n    tag_53:\n      mload(0x40)\n      tag_55\n      swap2\n      swap1\n      tag_56\n      jump\t// in\n    tag_55:\n      mload(0x40)\n      dup1\n      swap2\n      sub\n      swap1\n      return\n        /* \"@openzeppelin/contracts-upgradeable/proxy/utils/UUPSUpgradeable.sol\":1819:1877  string public constant UPGRADE_INTERFACE_VERSION = \"5.0.0\" */\n    tag_10:\n      callvalue\n      dup1\n      iszero\n      tag_57\n      jumpi\n      0x00\n      dup1\n      revert\n    tag_57:\n      pop\n      tag_58\n      tag_59\n      jump\t// in\n    tag_58:\n      mload(0x40)\n      tag_60\n      swap2\n      swap1\n      tag_61\n      jump\t// in\n    tag_60:\n      mload(0x40)\n      dup1\n      swap2\n      sub\n      swap1\n      return\n        /* \"UUPScontracts/CommunityStateManager.sol\":1709:4451  function changeState(uint256 _communityId) public {... */\n    tag_11:\n      callvalue\n      dup1\n      iszero\n      tag_62\n      jumpi\n      0x00\n      dup1\n      revert\n    tag_62:\n      pop\n      tag_63\n      0x04\n      dup1\n      calldatasize\n      sub\n      dup2\n      add\n      swap1\n      tag_64\n      swap2\n      swap1\n      tag_65\n      jump\t// in\n    tag_64:\n      tag_66\n      jump\t// in\n    tag_63:\n      stop\n        /* \"UUPScontracts/CommunityStateManager.sol\":622:762  function initialize(address initialOwner) public initializer {... */\n    tag_12:\n      callvalue\n      dup1\n      iszero\n      tag_67\n      jumpi\n      0x00\n      dup1\n      revert\n    tag_67:\n      pop\n      tag_68\n      0x04\n      dup1\n      calldatasize\n      sub\n      dup2\n      add\n      swap1\n      tag_69\n      swap2\n      swap1\n      tag_29\n      jump\t// in\n    tag_69:\n      tag_70\n      jump\t// in\n    tag_68:\n      stop\n        /* \"UUPScontracts/CommunityStateManager.sol\":972:1144  function setProfilesContract(address _profilesContractAddress) external onlyOwner {... */\n    tag_13:\n      callvalue\n      dup1\n      iszero\n      tag_71\n      jumpi\n      0x00\n      dup1\n      revert\n    tag_71:\n      pop\n      tag_72\n      0x04\n      dup1\n      calldatasize\n      sub\n      dup2\n      add\n      swap1\n      tag_73\n      swap2\n      swap1\n      tag_29\n      jump\t// in\n    tag_73:\n      tag_74\n      jump\t// in\n    tag_72:\n      stop\n        /* \"UUPScontracts/CommunityStateManager.sol\":1328:1525  function setContributionsContract(address _contributionsContractAddress) external onlyOwner {... */\n    tag_14:\n      callvalue\n      dup1\n      iszero\n      tag_75\n      jumpi\n      0x00\n      dup1\n      revert\n    tag_75:\n      pop\n      tag_76\n      0x04\n      dup1\n      calldatasize\n      sub\n      dup2\n      add\n      swap1\n      tag_77\n      swap2\n      swap1\n      tag_29\n      jump\t// in\n    tag_77:\n      tag_78\n      jump\t// in\n    tag_76:\n      stop\n        /* \"UUPScontracts/CommunityStateManagerStorage.sol\":447:509  ICommunityGovernanceContributions public contributionsContract */\n    tag_15:\n      callvalue\n      dup1\n      iszero\n      tag_79\n      jumpi\n      0x00\n      dup1\n      revert\n    tag_79:\n      pop\n      tag_80\n      tag_81\n      jump\t// in\n    tag_80:\n      mload(0x40)\n      tag_82\n      swap2\n      swap1\n      tag_83\n      jump\t// in\n    tag_82:\n      mload(0x40)\n      dup1\n      swap2\n      sub\n      swap1\n      return\n        /* \"@openzeppelin/contracts-upgradeable/access/OwnableUpgradeable.sol\":3405:3620  function transferOwnership(address newOwner) public virtual onlyOwner {... */\n    tag_16:\n      callvalue\n      dup1\n      iszero\n      tag_84\n      jumpi\n      0x00\n      dup1\n      revert\n    tag_84:\n      pop\n      tag_85\n      0x04\n      dup1\n      calldatasize\n      sub\n      dup2\n      add\n      swap1\n      tag_86\n      swap2\n      swap1\n      tag_29\n      jump\t// in\n    tag_86:\n      tag_87\n      jump\t// in\n    tag_85:\n      stop\n        /* \"UUPScontracts/CommunityStateManagerStorage.sol\":389:441  ICommunityGovernanceRankings public rankingsContract */\n    tag_17:\n      callvalue\n      dup1\n      iszero\n      tag_88\n      jumpi\n      0x00\n      dup1\n      revert\n    tag_88:\n      pop\n      tag_89\n      tag_90\n      jump\t// in\n    tag_89:\n      mload(0x40)\n      tag_91\n      swap2\n      swap1\n      tag_92\n      jump\t// in\n    tag_91:\n      mload(0x40)\n      dup1\n      swap2\n      sub\n      swap1\n      return\n        /* \"UUPScontracts/CommunityStateManagerStorage.sol\":331:383  ICommunityGovernanceProfiles public profilesContract */\n    tag_23:\n      0x00\n      dup1\n      sload\n      swap1\n      0x0100\n      exp\n      swap1\n      div\n      0xffffffffffffffffffffffffffffffffffffffff\n      and\n      dup2\n      jump\t// out\n        /* \"UUPScontracts/CommunityStateManager.sol\":1531:1703  function setMultiSigContract(address _multiSigContractAddress) external onlyOwner {... */\n    tag_30:\n        /* \"@openzeppelin/contracts-upgradeable/access/OwnableUpgradeable.sol\":2334:2347  _checkOwner() */\n      tag_94\n        /* \"@openzeppelin/contracts-upgradeable/access/OwnableUpgradeable.sol\":2334:2345  _checkOwner */\n      tag_95\n        /* \"@openzeppelin/contracts-upgradeable/access/OwnableUpgradeable.sol\":2334:2347  _checkOwner() */\n      jump\t// in\n    tag_94:\n        /* \"UUPScontracts/CommunityStateManager.sol\":1671:1695  _multiSigContractAddress */\n      dup1\n        /* \"UUPScontracts/CommunityStateManager.sol\":1623:1639  multiSigContract */\n      0x03\n      0x00\n        /* \"UUPScontracts/CommunityStateManager.sol\":1623:1696  multiSigContract = ICommunityGovernanceMultiSig(_multiSigContractAddress) */\n      0x0100\n      exp\n      dup2\n      sload\n      dup2\n      0xffffffffffffffffffffffffffffffffffffffff\n      mul\n      not\n      and\n      swap1\n      dup4\n      0xffffffffffffffffffffffffffffffffffffffff\n      and\n      mul\n      or\n      swap1\n      sstore\n      pop\n        /* \"UUPScontracts/CommunityStateManager.sol\":1531:1703  function setMultiSigContract(address _multiSigContractAddress) external onlyOwner {... */\n      pop\n      jump\t// out\n        /* \"@openzeppelin/contracts-upgradeable/proxy/utils/UUPSUpgradeable.sol\":4158:4372  function upgradeToAndCall(address newImplementation, bytes memory data) public payable virtual onlyProxy {... */\n    tag_34:\n        /* \"@openzeppelin/contracts-upgradeable/proxy/utils/UUPSUpgradeable.sol\":2653:2666  _checkProxy() */\n      tag_98\n        /* \"@openzeppelin/contracts-upgradeable/proxy/utils/UUPSUpgradeable.sol\":2653:2664  _checkProxy */\n      tag_99\n        /* \"@openzeppelin/contracts-upgradeable/proxy/utils/UUPSUpgradeable.sol\":2653:2666  _checkProxy() */\n      jump\t// in\n    tag_98:\n        /* \"@openzeppelin/contracts-upgradeable/proxy/utils/UUPSUpgradeable.sol\":4273:4309  _authorizeUpgrade(newImplementation) */\n      tag_101\n        /* \"@openzeppelin/contracts-upgradeable/proxy/utils/UUPSUpgradeable.sol\":4291:4308  newImplementation */\n      dup3\n        /* \"@openzeppelin/contracts-upgradeable/proxy/utils/UUPSUpgradeable.sol\":4273:4290  _authorizeUpgrade */\n      tag_102\n        /* \"@openzeppelin/contracts-upgradeable/proxy/utils/UUPSUpgradeable.sol\":4273:4309  _authorizeUpgrade(newImplementation) */\n      jump\t// in\n    tag_101:\n        /* \"@openzeppelin/contracts-upgradeable/proxy/utils/UUPSUpgradeable.sol\":4319:4365  _upgradeToAndCallUUPS(newImplementation, data) */\n      tag_103\n        /* \"@openzeppelin/contracts-upgradeable/proxy/utils/UUPSUpgradeable.sol\":4341:4358  newImplementation */\n      dup3\n        /* \"@openzeppelin/contracts-upgradeable/proxy/utils/UUPSUpgradeable.sol\":4360:4364  data */\n      dup3\n        /* \"@openzeppelin/contracts-upgradeable/proxy/utils/UUPSUpgradeable.sol\":4319:4340  _upgradeToAndCallUUPS */\n      tag_104\n        /* \"@openzeppelin/contracts-upgradeable/proxy/utils/UUPSUpgradeable.sol\":4319:4365  _upgradeToAndCallUUPS(newImplementation, data) */\n      jump\t// in\n    tag_103:\n        /* \"@openzeppelin/contracts-upgradeable/proxy/utils/UUPSUpgradeable.sol\":4158:4372  function upgradeToAndCall(address newImplementation, bytes memory data) public payable virtual onlyProxy {... */\n      pop\n      pop\n      jump\t// out\n        /* \"@openzeppelin/contracts-upgradeable/proxy/utils/UUPSUpgradeable.sol\":3705:3839  function proxiableUUID() external view virtual notDelegated returns (bytes32) {... */\n    tag_37:\n        /* \"@openzeppelin/contracts-upgradeable/proxy/utils/UUPSUpgradeable.sol\":3774:3781  bytes32 */\n      0x00\n        /* \"@openzeppelin/contracts-upgradeable/proxy/utils/UUPSUpgradeable.sol\":2924:2944  _checkNotDelegated() */\n      tag_106\n        /* \"@openzeppelin/contracts-upgradeable/proxy/utils/UUPSUpgradeable.sol\":2924:2942  _checkNotDelegated */\n      tag_107\n        /* \"@openzeppelin/contracts-upgradeable/proxy/utils/UUPSUpgradeable.sol\":2924:2944  _checkNotDelegated() */\n      jump\t// in\n    tag_106:\n        /* \"@openzeppelin/contracts/proxy/ERC1967/ERC1967Utils.sol\":1327:1393  0x360894a13ba1a3210667c828492db98dca3e2076cc3735a920a3ca505d382bbc */\n      0x360894a13ba1a3210667c828492db98dca3e2076cc3735a920a3ca505d382bbc\n        /* \"@openzeppelin/contracts-upgradeable/proxy/utils/UUPSUpgradeable.sol\":3800:3832  ERC1967Utils.IMPLEMENTATION_SLOT */\n      0x00\n      shl\n        /* \"@openzeppelin/contracts-upgradeable/proxy/utils/UUPSUpgradeable.sol\":3793:3832  return ERC1967Utils.IMPLEMENTATION_SLOT */\n      swap1\n      pop\n        /* \"@openzeppelin/contracts-upgradeable/proxy/utils/UUPSUpgradeable.sol\":3705:3839  function proxiableUUID() external view virtual notDelegated returns (bytes32) {... */\n      swap1\n      jump\t// out\n        /* \"UUPScontracts/CommunityStateManager.sol\":1150:1322  function setRankingsContract(address _rankingsContractAddress) external onlyOwner {... */\n    tag_43:\n        /* \"@openzeppelin/contracts-upgradeable/access/OwnableUpgradeable.sol\":2334:2347  _checkOwner() */\n      tag_110\n        /* \"@openzeppelin/contracts-upgradeable/access/OwnableUpgradeable.sol\":2334:2345  _checkOwner */\n      tag_95\n        /* \"@openzeppelin/contracts-upgradeable/access/OwnableUpgradeable.sol\":2334:2347  _checkOwner() */\n      jump\t// in\n    tag_110:\n        /* \"UUPScontracts/CommunityStateManager.sol\":1290:1314  _rankingsContractAddress */\n      dup1\n        /* \"UUPScontracts/CommunityStateManager.sol\":1242:1258  rankingsContract */\n      0x01\n      0x00\n        /* \"UUPScontracts/CommunityStateManager.sol\":1242:1315  rankingsContract = ICommunityGovernanceRankings(_rankingsContractAddress) */\n      0x0100\n      exp\n      dup2\n      sload\n      dup2\n      0xffffffffffffffffffffffffffffffffffffffff\n      mul\n      not\n      and\n      swap1\n      dup4\n      0xffffffffffffffffffffffffffffffffffffffff\n      and\n      mul\n      or\n      swap1\n      sstore\n      pop\n        /* \"UUPScontracts/CommunityStateManager.sol\":1150:1322  function setRankingsContract(address _rankingsContractAddress) external onlyOwner {... */\n      pop\n      jump\t// out\n        /* \"@openzeppelin/contracts-upgradeable/access/OwnableUpgradeable.sol\":3155:3256  function renounceOwnership() public virtual onlyOwner {... */\n    tag_46:\n        /* \"@openzeppelin/contracts-upgradeable/access/OwnableUpgradeable.sol\":2334:2347  _checkOwner() */\n      tag_113\n        /* \"@openzeppelin/contracts-upgradeable/access/OwnableUpgradeable.sol\":2334:2345  _checkOwner */\n      tag_95\n        /* \"@openzeppelin/contracts-upgradeable/access/OwnableUpgradeable.sol\":2334:2347  _checkOwner() */\n      jump\t// in\n    tag_113:\n        /* \"@openzeppelin/contracts-upgradeable/access/OwnableUpgradeable.sol\":3219:3249  _transferOwnership(address(0)) */\n      tag_115\n        /* \"@openzeppelin/contracts-upgradeable/access/OwnableUpgradeable.sol\":3246:3247  0 */\n      0x00\n        /* \"@openzeppelin/contracts-upgradeable/access/OwnableUpgradeable.sol\":3219:3237  _transferOwnership */\n      tag_116\n        /* \"@openzeppelin/contracts-upgradeable/access/OwnableUpgradeable.sol\":3219:3249  _transferOwnership(address(0)) */\n      jump\t// in\n    tag_115:\n        /* \"@openzeppelin/contracts-upgradeable/access/OwnableUpgradeable.sol\":3155:3256  function renounceOwnership() public virtual onlyOwner {... */\n      jump\t// out\n        /* \"@openzeppelin/contracts-upgradeable/access/OwnableUpgradeable.sol\":2441:2585  function owner() public view virtual returns (address) {... */\n    tag_49:\n        /* \"@openzeppelin/contracts-upgradeable/access/OwnableUpgradeable.sol\":2487:2494  address */\n      0x00\n        /* \"@openzeppelin/contracts-upgradeable/access/OwnableUpgradeable.sol\":2506:2530  OwnableStorage storage $ */\n      dup1\n        /* \"@openzeppelin/contracts-upgradeable/access/OwnableUpgradeable.sol\":2533:2553  _getOwnableStorage() */\n      tag_118\n        /* \"@openzeppelin/contracts-upgradeable/access/OwnableUpgradeable.sol\":2533:2551  _getOwnableStorage */\n      tag_119\n        /* \"@openzeppelin/contracts-upgradeable/access/OwnableUpgradeable.sol\":2533:2553  _getOwnableStorage() */\n      jump\t// in\n    tag_118:\n        /* \"@openzeppelin/contracts-upgradeable/access/OwnableUpgradeable.sol\":2506:2553  OwnableStorage storage $ = _getOwnableStorage() */\n      swap1\n      pop\n        /* \"@openzeppelin/contracts-upgradeable/access/OwnableUpgradeable.sol\":2570:2571  $ */\n      dup1\n        /* \"@openzeppelin/contracts-upgradeable/access/OwnableUpgradeable.sol\":2570:2578  $._owner */\n      0x00\n      add\n      0x00\n      swap1\n      sload\n      swap1\n      0x0100\n      exp\n      swap1\n      div\n      0xffffffffffffffffffffffffffffffffffffffff\n      and\n        /* \"@openzeppelin/contracts-upgradeable/access/OwnableUpgradeable.sol\":2563:2578  return $._owner */\n      swap2\n      pop\n      pop\n        /* \"@openzeppelin/contracts-upgradeable/access/OwnableUpgradeable.sol\":2441:2585  function owner() public view virtual returns (address) {... */\n      swap1\n      jump\t// out\n        /* \"UUPScontracts/CommunityStateManagerStorage.sol\":515:567  ICommunityGovernanceMultiSig public multiSigContract */\n    tag_54:\n      0x03\n      0x00\n      swap1\n      sload\n      swap1\n      0x0100\n      exp\n      swap1\n      div\n      0xffffffffffffffffffffffffffffffffffffffff\n      and\n      dup2\n      jump\t// out\n        /* \"@openzeppelin/contracts-upgradeable/proxy/utils/UUPSUpgradeable.sol\":1819:1877  string public constant UPGRADE_INTERFACE_VERSION = \"5.0.0\" */\n    tag_59:\n      mload(0x40)\n      dup1\n      0x40\n      add\n      0x40\n      mstore\n      dup1\n      0x05\n      dup2\n      mstore\n      0x20\n      add\n      0x352e302e30000000000000000000000000000000000000000000000000000000\n      dup2\n      mstore\n      pop\n      dup2\n      jump\t// out\n        /* \"UUPScontracts/CommunityStateManager.sol\":1709:4451  function changeState(uint256 _communityId) public {... */\n    tag_66:\n        /* \"UUPScontracts/CommunityStateManager.sol\":1773:1788  address creator */\n      0x00\n        /* \"UUPScontracts/CommunityStateManager.sol\":1790:1846  ICommunityGovernanceProfiles.CommunityState currentState */\n      dup1\n        /* \"UUPScontracts/CommunityStateManager.sol\":1847:1865  uint256 eventCount */\n      0x00\n        /* \"UUPScontracts/CommunityStateManager.sol\":1870:1886  profilesContract */\n      dup1\n      0x00\n      swap1\n      sload\n      swap1\n      0x0100\n      exp\n      swap1\n      div\n      0xffffffffffffffffffffffffffffffffffffffff\n      and\n        /* \"UUPScontracts/CommunityStateManager.sol\":1870:1906  profilesContract.getCommunityProfile */\n      0xffffffffffffffffffffffffffffffffffffffff\n      and\n      0x99664245\n        /* \"UUPScontracts/CommunityStateManager.sol\":1907:1919  _communityId */\n      dup6\n        /* \"UUPScontracts/CommunityStateManager.sol\":1870:1920  profilesContract.getCommunityProfile(_communityId) */\n      mload(0x40)\n      dup3\n      0xffffffff\n      and\n      0xe0\n      shl\n      dup2\n      mstore\n      0x04\n      add\n      tag_121\n      swap2\n      swap1\n      tag_122\n      jump\t// in\n    tag_121:\n      0x00\n      mload(0x40)\n      dup1\n      dup4\n      sub\n      dup2\n      dup7\n      gas\n      staticcall\n      iszero\n      dup1\n      iszero\n      tag_124\n      jumpi\n      returndatasize\n      0x00\n      dup1\n      returndatacopy\n      revert(0x00, returndatasize)\n    tag_124:\n      pop\n      pop\n      pop\n      pop\n      mload(0x40)\n      returndatasize\n      0x00\n      dup3\n      returndatacopy\n      returndatasize\n      not(0x1f)\n      0x1f\n      dup3\n      add\n      and\n      dup3\n      add\n      dup1\n      0x40\n      mstore\n      pop\n      dup2\n      add\n      swap1\n      tag_125\n      swap2\n      swap1\n      tag_126\n      jump\t// in\n    tag_125:\n        /* \"UUPScontracts/CommunityStateManager.sol\":1769:1920  (,,,address creator,,ICommunityGovernanceProfiles.CommunityState currentState,uint256 eventCount,) = profilesContract.getCommunityProfile(_communityId) */\n      pop\n      swap7\n      pop\n      swap7\n      pop\n      pop\n      swap6\n      pop\n      pop\n      pop\n      pop\n        /* \"UUPScontracts/CommunityStateManager.sol\":1957:1958  0 */\n      0x00\n        /* \"UUPScontracts/CommunityStateManager.sol\":1938:1959  creator != address(0) */\n      0xffffffffffffffffffffffffffffffffffffffff\n      and\n        /* \"UUPScontracts/CommunityStateManager.sol\":1938:1945  creator */\n      dup4\n        /* \"UUPScontracts/CommunityStateManager.sol\":1938:1959  creator != address(0) */\n      0xffffffffffffffffffffffffffffffffffffffff\n      and\n      sub\n        /* \"UUPScontracts/CommunityStateManager.sol\":1930:1988  require(creator != address(0), \"Community does not exist\") */\n      tag_127\n      jumpi\n      mload(0x40)\n      0x08c379a000000000000000000000000000000000000000000000000000000000\n      dup2\n      mstore\n      0x04\n      add\n      tag_128\n      swap1\n      tag_129\n      jump\t// in\n    tag_128:\n      mload(0x40)\n      dup1\n      swap2\n      sub\n      swap1\n      revert\n    tag_127:\n        /* \"UUPScontracts/CommunityStateManager.sol\":2100:2131  uint256 nextStateTransitionTime */\n      0x00\n        /* \"UUPScontracts/CommunityStateManager.sol\":2134:2150  profilesContract */\n      dup1\n      0x00\n      swap1\n      sload\n      swap1\n      0x0100\n      exp\n      swap1\n      div\n      0xffffffffffffffffffffffffffffffffffffffff\n      and\n        /* \"UUPScontracts/CommunityStateManager.sol\":2134:2177  profilesContract.getNextStateTransitionTime */\n      0xffffffffffffffffffffffffffffffffffffffff\n      and\n      0xeae99e0d\n        /* \"UUPScontracts/CommunityStateManager.sol\":2178:2190  _communityId */\n      dup7\n        /* \"UUPScontracts/CommunityStateManager.sol\":2134:2191  profilesContract.getNextStateTransitionTime(_communityId) */\n      mload(0x40)\n      dup3\n      0xffffffff\n      and\n      0xe0\n      shl\n      dup2\n      mstore\n      0x04\n      add\n      tag_130\n      swap2\n      swap1\n      tag_122\n      jump\t// in\n    tag_130:\n      0x20\n      mload(0x40)\n      dup1\n      dup4\n      sub\n      dup2\n      dup7\n      gas\n      staticcall\n      iszero\n      dup1\n      iszero\n      tag_132\n      jumpi\n      returndatasize\n      0x00\n      dup1\n      returndatacopy\n      revert(0x00, returndatasize)\n    tag_132:\n      pop\n      pop\n      pop\n      pop\n      mload(0x40)\n      returndatasize\n      not(0x1f)\n      0x1f\n      dup3\n      add\n      and\n      dup3\n      add\n      dup1\n      0x40\n      mstore\n      pop\n      dup2\n      add\n      swap1\n      tag_133\n      swap2\n      swap1\n      tag_134\n      jump\t// in\n    tag_133:\n        /* \"UUPScontracts/CommunityStateManager.sol\":2100:2191  uint256 nextStateTransitionTime = profilesContract.getNextStateTransitionTime(_communityId) */\n      swap1\n      pop\n        /* \"UUPScontracts/CommunityStateManager.sol\":2228:2251  nextStateTransitionTime */\n      dup1\n        /* \"UUPScontracts/CommunityStateManager.sol\":2209:2224  block.timestamp */\n      timestamp\n        /* \"UUPScontracts/CommunityStateManager.sol\":2209:2251  block.timestamp >= nextStateTransitionTime */\n      lt\n      iszero\n        /* \"UUPScontracts/CommunityStateManager.sol\":2201:2289  require(block.timestamp >= nextStateTransitionTime, \"State transition time not reached\") */\n      tag_135\n      jumpi\n      mload(0x40)\n      0x08c379a000000000000000000000000000000000000000000000000000000000\n      dup2\n      mstore\n      0x04\n      add\n      tag_136\n      swap1\n      tag_137\n      jump\t// in\n    tag_136:\n      mload(0x40)\n      dup1\n      swap2\n      sub\n      swap1\n      revert\n    tag_135:\n        /* \"UUPScontracts/CommunityStateManager.sol\":2320:2386  ICommunityGovernanceProfiles.CommunityState.ContributionSubmission */\n      0x00\n        /* \"UUPScontracts/CommunityStateManager.sol\":2304:2386  currentState == ICommunityGovernanceProfiles.CommunityState.ContributionSubmission */\n      0x01\n      dup2\n      gt\n      iszero\n      tag_138\n      jumpi\n      tag_139\n      tag_140\n      jump\t// in\n    tag_139:\n    tag_138:\n        /* \"UUPScontracts/CommunityStateManager.sol\":2304:2316  currentState */\n      dup4\n        /* \"UUPScontracts/CommunityStateManager.sol\":2304:2386  currentState == ICommunityGovernanceProfiles.CommunityState.ContributionSubmission */\n      0x01\n      dup2\n      gt\n      iszero\n      tag_141\n      jumpi\n      tag_142\n      tag_140\n      jump\t// in\n    tag_142:\n    tag_141:\n      sub\n        /* \"UUPScontracts/CommunityStateManager.sol\":2300:4138  if (currentState == ICommunityGovernanceProfiles.CommunityState.ContributionSubmission) {... */\n      tag_143\n      jumpi\n        /* \"UUPScontracts/CommunityStateManager.sol\":2402:2418  profilesContract */\n      0x00\n      dup1\n      sload\n      swap1\n      0x0100\n      exp\n      swap1\n      div\n      0xffffffffffffffffffffffffffffffffffffffff\n      and\n        /* \"UUPScontracts/CommunityStateManager.sol\":2402:2436  profilesContract.setCommunityState */\n      0xffffffffffffffffffffffffffffffffffffffff\n      and\n      0xfa54d3d9\n        /* \"UUPScontracts/CommunityStateManager.sol\":2437:2449  _communityId */\n      dup7\n        /* \"UUPScontracts/CommunityStateManager.sol\":2451:2514  ICommunityGovernanceProfiles.CommunityState.ContributionRanking */\n      0x01\n        /* \"UUPScontracts/CommunityStateManager.sol\":2402:2515  profilesContract.setCommunityState(_communityId, ICommunityGovernanceProfiles.CommunityState.ContributionRanking) */\n      mload(0x40)\n      dup4\n      0xffffffff\n      and\n      0xe0\n      shl\n      dup2\n      mstore\n      0x04\n      add\n      tag_144\n      swap3\n      swap2\n      swap1\n      tag_145\n      jump\t// in\n    tag_144:\n      0x00\n      mload(0x40)\n      dup1\n      dup4\n      sub\n      dup2\n      0x00\n      dup8\n      dup1\n      extcodesize\n      iszero\n      dup1\n      iszero\n      tag_146\n      jumpi\n      0x00\n      dup1\n      revert\n    tag_146:\n      pop\n      gas\n      call\n      iszero\n      dup1\n      iszero\n      tag_148\n      jumpi\n      returndatasize\n      0x00\n      dup1\n      returndatacopy\n      revert(0x00, returndatasize)\n    tag_148:\n      pop\n      pop\n      pop\n      pop\n        /* \"UUPScontracts/CommunityStateManager.sol\":2529:2558  address[] memory contributors */\n      0x00\n        /* \"UUPScontracts/CommunityStateManager.sol\":2561:2582  contributionsContract */\n      0x02\n      0x00\n      swap1\n      sload\n      swap1\n      0x0100\n      exp\n      swap1\n      div\n      0xffffffffffffffffffffffffffffffffffffffff\n      and\n        /* \"UUPScontracts/CommunityStateManager.sol\":2561:2604  contributionsContract.getWeeklyContributors */\n      0xffffffffffffffffffffffffffffffffffffffff\n      and\n      0x8ec2c82b\n        /* \"UUPScontracts/CommunityStateManager.sol\":2605:2617  _communityId */\n      dup8\n        /* \"UUPScontracts/CommunityStateManager.sol\":2619:2629  eventCount */\n      dup6\n        /* \"UUPScontracts/CommunityStateManager.sol\":2561:2630  contributionsContract.getWeeklyContributors(_communityId, eventCount) */\n      mload(0x40)\n      dup4\n      0xffffffff\n      and\n      0xe0\n      shl\n      dup2\n      mstore\n      0x04\n      add\n      tag_149\n      swap3\n      swap2\n      swap1\n      tag_150\n      jump\t// in\n    tag_149:\n      0x00\n      mload(0x40)\n      dup1\n      dup4\n      sub\n      dup2\n      dup7\n      gas\n      staticcall\n      iszero\n      dup1\n      iszero\n      tag_152\n      jumpi\n      returndatasize\n      0x00\n      dup1\n      returndatacopy\n      revert(0x00, returndatasize)\n    tag_152:\n      pop\n      pop\n      pop\n      pop\n      mload(0x40)\n      returndatasize\n      0x00\n      dup3\n      returndatacopy\n      returndatasize\n      not(0x1f)\n      0x1f\n      dup3\n      add\n      and\n      dup3\n      add\n      dup1\n      0x40\n      mstore\n      pop\n      dup2\n      add\n      swap1\n      tag_153\n      swap2\n      swap1\n      tag_154\n      jump\t// in\n    tag_153:\n        /* \"UUPScontracts/CommunityStateManager.sol\":2529:2630  address[] memory contributors = contributionsContract.getWeeklyContributors(_communityId, eventCount) */\n      swap1\n      pop\n        /* \"UUPScontracts/CommunityStateManager.sol\":2674:2675  0 */\n      0x00\n        /* \"UUPScontracts/CommunityStateManager.sol\":2652:2664  contributors */\n      dup2\n        /* \"UUPScontracts/CommunityStateManager.sol\":2652:2671  contributors.length */\n      mload\n        /* \"UUPScontracts/CommunityStateManager.sol\":2652:2675  contributors.length > 0 */\n      gt\n        /* \"UUPScontracts/CommunityStateManager.sol\":2644:2709  require(contributors.length > 0, \"No contributors for this week\") */\n      tag_155\n      jumpi\n      mload(0x40)\n      0x08c379a000000000000000000000000000000000000000000000000000000000\n      dup2\n      mstore\n      0x04\n      add\n      tag_156\n      swap1\n      tag_157\n      jump\t// in\n    tag_156:\n      mload(0x40)\n      dup1\n      swap2\n      sub\n      swap1\n      revert\n    tag_155:\n        /* \"UUPScontracts/CommunityStateManager.sol\":2723:2744  contributionsContract */\n      0x02\n      0x00\n      swap1\n      sload\n      swap1\n      0x0100\n      exp\n      swap1\n      div\n      0xffffffffffffffffffffffffffffffffffffffff\n      and\n        /* \"UUPScontracts/CommunityStateManager.sol\":2723:2771  contributionsContract.createGroupsForCurrentWeek */\n      0xffffffffffffffffffffffffffffffffffffffff\n      and\n      0x690ec8d1\n        /* \"UUPScontracts/CommunityStateManager.sol\":2772:2784  _communityId */\n      dup8\n        /* \"UUPScontracts/CommunityStateManager.sol\":2723:2785  contributionsContract.createGroupsForCurrentWeek(_communityId) */\n      mload(0x40)\n      dup3\n      0xffffffff\n      and\n      0xe0\n      shl\n      dup2\n      mstore\n      0x04\n      add\n      tag_158\n      swap2\n      swap1\n      tag_122\n      jump\t// in\n    tag_158:\n      0x00\n      mload(0x40)\n      dup1\n      dup4\n      sub\n      dup2\n      0x00\n      dup8\n      dup1\n      extcodesize\n      iszero\n      dup1\n      iszero\n      tag_159\n      jumpi\n      0x00\n      dup1\n      revert\n    tag_159:\n      pop\n      gas\n      call\n      iszero\n      dup1\n      iszero\n      tag_161\n      jumpi\n      returndatasize\n      0x00\n      dup1\n      returndatacopy\n      revert(0x00, returndatasize)\n    tag_161:\n      pop\n      pop\n      pop\n      pop\n        /* \"UUPScontracts/CommunityStateManager.sol\":2833:2849  profilesContract */\n      0x00\n      dup1\n      sload\n      swap1\n      0x0100\n      exp\n      swap1\n      div\n      0xffffffffffffffffffffffffffffffffffffffff\n      and\n        /* \"UUPScontracts/CommunityStateManager.sol\":2833:2872  profilesContract.setStateTransitionTime */\n      0xffffffffffffffffffffffffffffffffffffffff\n      and\n      0x611ab368\n        /* \"UUPScontracts/CommunityStateManager.sol\":2873:2885  _communityId */\n      dup8\n        /* \"UUPScontracts/CommunityStateManager.sol\":2905:2914  1 seconds */\n      0x01\n        /* \"UUPScontracts/CommunityStateManager.sol\":2887:2902  block.timestamp */\n      timestamp\n        /* \"UUPScontracts/CommunityStateManager.sol\":2887:2914  block.timestamp + 1 seconds */\n      tag_162\n      swap2\n      swap1\n      tag_163\n      jump\t// in\n    tag_162:\n        /* \"UUPScontracts/CommunityStateManager.sol\":2833:2915  profilesContract.setStateTransitionTime(_communityId, block.timestamp + 1 seconds) */\n      mload(0x40)\n      dup4\n      0xffffffff\n      and\n      0xe0\n      shl\n      dup2\n      mstore\n      0x04\n      add\n      tag_164\n      swap3\n      swap2\n      swap1\n      tag_150\n      jump\t// in\n    tag_164:\n      0x00\n      mload(0x40)\n      dup1\n      dup4\n      sub\n      dup2\n      0x00\n      dup8\n      dup1\n      extcodesize\n      iszero\n      dup1\n      iszero\n      tag_165\n      jumpi\n      0x00\n      dup1\n      revert\n    tag_165:\n      pop\n      gas\n      call\n      iszero\n      dup1\n      iszero\n      tag_167\n      jumpi\n      returndatasize\n      0x00\n      dup1\n      returndatacopy\n      revert(0x00, returndatasize)\n    tag_167:\n      pop\n      pop\n      pop\n      pop\n        /* \"UUPScontracts/CommunityStateManager.sol\":2942:2962  string memory idWeek */\n      0x00\n        /* \"UUPScontracts/CommunityStateManager.sol\":2989:3019  Strings.toString(_communityId) */\n      tag_168\n        /* \"UUPScontracts/CommunityStateManager.sol\":3006:3018  _communityId */\n      dup8\n        /* \"UUPScontracts/CommunityStateManager.sol\":2989:3005  Strings.toString */\n      tag_169\n        /* \"UUPScontracts/CommunityStateManager.sol\":2989:3019  Strings.toString(_communityId) */\n      jump\t// in\n    tag_168:\n        /* \"UUPScontracts/CommunityStateManager.sol\":3028:3056  Strings.toString(eventCount) */\n      tag_170\n        /* \"UUPScontracts/CommunityStateManager.sol\":3045:3055  eventCount */\n      dup6\n        /* \"UUPScontracts/CommunityStateManager.sol\":3028:3044  Strings.toString */\n      tag_169\n        /* \"UUPScontracts/CommunityStateManager.sol\":3028:3056  Strings.toString(eventCount) */\n      jump\t// in\n    tag_170:\n        /* \"UUPScontracts/CommunityStateManager.sol\":2972:3057  abi.encodePacked(Strings.toString(_communityId), \" - \", Strings.toString(eventCount)) */\n      add(0x20, mload(0x40))\n      tag_171\n      swap3\n      swap2\n      swap1\n      tag_172\n      jump\t// in\n    tag_171:\n      mload(0x40)\n      0x20\n      dup2\n      dup4\n      sub\n      sub\n      dup2\n      mstore\n      swap1\n      0x40\n      mstore\n        /* \"UUPScontracts/CommunityStateManager.sol\":2942:3058  string memory idWeek = string(abi.encodePacked(Strings.toString(_communityId), \" - \", Strings.toString(eventCount))) */\n      swap1\n      pop\n        /* \"UUPScontracts/CommunityStateManager.sol\":3077:3119  SubmissionToContributionTransition(idWeek) */\n      0x9e1871a2896fd899e76fb1aef1c66629254addff8de93370420922401c7eb218\n        /* \"UUPScontracts/CommunityStateManager.sol\":3112:3118  idWeek */\n      dup2\n        /* \"UUPScontracts/CommunityStateManager.sol\":3077:3119  SubmissionToContributionTransition(idWeek) */\n      mload(0x40)\n      tag_173\n      swap2\n      swap1\n      tag_61\n      jump\t// in\n    tag_173:\n      mload(0x40)\n      dup1\n      swap2\n      sub\n      swap1\n      log1\n        /* \"UUPScontracts/CommunityStateManager.sol\":2388:3136  {... */\n      pop\n      pop\n        /* \"UUPScontracts/CommunityStateManager.sol\":2300:4138  if (currentState == ICommunityGovernanceProfiles.CommunityState.ContributionSubmission) {... */\n      jump(tag_174)\n    tag_143:\n        /* \"UUPScontracts/CommunityStateManager.sol\":3165:3181  profilesContract */\n      0x00\n      dup1\n      sload\n      swap1\n      0x0100\n      exp\n      swap1\n      div\n      0xffffffffffffffffffffffffffffffffffffffff\n      and\n        /* \"UUPScontracts/CommunityStateManager.sol\":3165:3199  profilesContract.setCommunityState */\n      0xffffffffffffffffffffffffffffffffffffffff\n      and\n      0xfa54d3d9\n        /* \"UUPScontracts/CommunityStateManager.sol\":3200:3212  _communityId */\n      dup7\n        /* \"UUPScontracts/CommunityStateManager.sol\":3214:3280  ICommunityGovernanceProfiles.CommunityState.ContributionSubmission */\n      0x00\n        /* \"UUPScontracts/CommunityStateManager.sol\":3165:3281  profilesContract.setCommunityState(_communityId, ICommunityGovernanceProfiles.CommunityState.ContributionSubmission) */\n      mload(0x40)\n      dup4\n      0xffffffff\n      and\n      0xe0\n      shl\n      dup2\n      mstore\n      0x04\n      add\n      tag_175\n      swap3\n      swap2\n      swap1\n      tag_145\n      jump\t// in\n    tag_175:\n      0x00\n      mload(0x40)\n      dup1\n      dup4\n      sub\n      dup2\n      0x00\n      dup8\n      dup1\n      extcodesize\n      iszero\n      dup1\n      iszero\n      tag_176\n      jumpi\n      0x00\n      dup1\n      revert\n    tag_176:\n      pop\n      gas\n      call\n      iszero\n      dup1\n      iszero\n      tag_178\n      jumpi\n      returndatasize\n      0x00\n      dup1\n      returndatacopy\n      revert(0x00, returndatasize)\n    tag_178:\n      pop\n      pop\n      pop\n      pop\n        /* \"UUPScontracts/CommunityStateManager.sol\":3295:3311  profilesContract */\n      0x00\n      dup1\n      sload\n      swap1\n      0x0100\n      exp\n      swap1\n      div\n      0xffffffffffffffffffffffffffffffffffffffff\n      and\n        /* \"UUPScontracts/CommunityStateManager.sol\":3295:3340  profilesContract.incrementCommunityEventCount */\n      0xffffffffffffffffffffffffffffffffffffffff\n      and\n      0x44a2074c\n        /* \"UUPScontracts/CommunityStateManager.sol\":3341:3353  _communityId */\n      dup7\n        /* \"UUPScontracts/CommunityStateManager.sol\":3295:3354  profilesContract.incrementCommunityEventCount(_communityId) */\n      mload(0x40)\n      dup3\n      0xffffffff\n      and\n      0xe0\n      shl\n      dup2\n      mstore\n      0x04\n      add\n      tag_179\n      swap2\n      swap1\n      tag_122\n      jump\t// in\n    tag_179:\n      0x00\n      mload(0x40)\n      dup1\n      dup4\n      sub\n      dup2\n      0x00\n      dup8\n      dup1\n      extcodesize\n      iszero\n      dup1\n      iszero\n      tag_180\n      jumpi\n      0x00\n      dup1\n      revert\n    tag_180:\n      pop\n      gas\n      call\n      iszero\n      dup1\n      iszero\n      tag_182\n      jumpi\n      returndatasize\n      0x00\n      dup1\n      returndatacopy\n      revert(0x00, returndatasize)\n    tag_182:\n      pop\n      pop\n      pop\n      pop\n        /* \"UUPScontracts/CommunityStateManager.sol\":3368:3384  rankingsContract */\n      0x01\n      0x00\n      swap1\n      sload\n      swap1\n      0x0100\n      exp\n      swap1\n      div\n      0xffffffffffffffffffffffffffffffffffffffff\n      and\n        /* \"UUPScontracts/CommunityStateManager.sol\":3368:3415  rankingsContract.determineConsensusForAllGroups */\n      0xffffffffffffffffffffffffffffffffffffffff\n      and\n      0x33718ce8\n        /* \"UUPScontracts/CommunityStateManager.sol\":3416:3428  _communityId */\n      dup7\n        /* \"UUPScontracts/CommunityStateManager.sol\":3430:3440  eventCount */\n      dup5\n        /* \"UUPScontracts/CommunityStateManager.sol\":3368:3441  rankingsContract.determineConsensusForAllGroups(_communityId, eventCount) */\n      mload(0x40)\n      dup4\n      0xffffffff\n      and\n      0xe0\n      shl\n      dup2\n      mstore\n      0x04\n      add\n      tag_183\n      swap3\n      swap2\n      swap1\n      tag_150\n      jump\t// in\n    tag_183:\n      0x00\n      mload(0x40)\n      dup1\n      dup4\n      sub\n      dup2\n      0x00\n      dup8\n      dup1\n      extcodesize\n      iszero\n      dup1\n      iszero\n      tag_184\n      jumpi\n      0x00\n      dup1\n      revert\n    tag_184:\n      pop\n      gas\n      call\n      iszero\n      dup1\n      iszero\n      tag_186\n      jumpi\n      returndatasize\n      0x00\n      dup1\n      returndatacopy\n      revert(0x00, returndatasize)\n    tag_186:\n      pop\n      pop\n      pop\n      pop\n        /* \"UUPScontracts/CommunityStateManager.sol\":3455:3476  contributionsContract */\n      0x02\n      0x00\n      swap1\n      sload\n      swap1\n      0x0100\n      exp\n      swap1\n      div\n      0xffffffffffffffffffffffffffffffffffffffff\n      and\n        /* \"UUPScontracts/CommunityStateManager.sol\":3455:3502  contributionsContract.updateAllUsersRespectData */\n      0xffffffffffffffffffffffffffffffffffffffff\n      and\n      0x5ae25992\n        /* \"UUPScontracts/CommunityStateManager.sol\":3503:3515  _communityId */\n      dup7\n        /* \"UUPScontracts/CommunityStateManager.sol\":3455:3516  contributionsContract.updateAllUsersRespectData(_communityId) */\n      mload(0x40)\n      dup3\n      0xffffffff\n      and\n      0xe0\n      shl\n      dup2\n      mstore\n      0x04\n      add\n      tag_187\n      swap2\n      swap1\n      tag_122\n      jump\t// in\n    tag_187:\n      0x00\n      mload(0x40)\n      dup1\n      dup4\n      sub\n      dup2\n      0x00\n      dup8\n      dup1\n      extcodesize\n      iszero\n      dup1\n      iszero\n      tag_188\n      jumpi\n      0x00\n      dup1\n      revert\n    tag_188:\n      pop\n      gas\n      call\n      iszero\n      dup1\n      iszero\n      tag_190\n      jumpi\n      returndatasize\n      0x00\n      dup1\n      returndatacopy\n      revert(0x00, returndatasize)\n    tag_190:\n      pop\n      pop\n      pop\n      pop\n        /* \"UUPScontracts/CommunityStateManager.sol\":3607:3631  address[] memory members */\n      0x00\n        /* \"UUPScontracts/CommunityStateManager.sol\":3636:3652  profilesContract */\n      dup1\n      0x00\n      swap1\n      sload\n      swap1\n      0x0100\n      exp\n      swap1\n      div\n      0xffffffffffffffffffffffffffffffffffffffff\n      and\n        /* \"UUPScontracts/CommunityStateManager.sol\":3636:3672  profilesContract.getCommunityMembers */\n      0xffffffffffffffffffffffffffffffffffffffff\n      and\n      0x7199ee48\n        /* \"UUPScontracts/CommunityStateManager.sol\":3673:3685  _communityId */\n      dup8\n        /* \"UUPScontracts/CommunityStateManager.sol\":3636:3686  profilesContract.getCommunityMembers(_communityId) */\n      mload(0x40)\n      dup3\n      0xffffffff\n      and\n      0xe0\n      shl\n      dup2\n      mstore\n      0x04\n      add\n      tag_191\n      swap2\n      swap1\n      tag_122\n      jump\t// in\n    tag_191:\n      0x00\n      mload(0x40)\n      dup1\n      dup4\n      sub\n      dup2\n      dup7\n      gas\n      staticcall\n      iszero\n      dup1\n      iszero\n      tag_193\n      jumpi\n      returndatasize\n      0x00\n      dup1\n      returndatacopy\n      revert(0x00, returndatasize)\n    tag_193:\n      pop\n      pop\n      pop\n      pop\n      mload(0x40)\n      returndatasize\n      0x00\n      dup3\n      returndatacopy\n      returndatasize\n      not(0x1f)\n      0x1f\n      dup3\n      add\n      and\n      dup3\n      add\n      dup1\n      0x40\n      mstore\n      pop\n      dup2\n      add\n      swap1\n      tag_194\n      swap2\n      swap1\n      tag_195\n      jump\t// in\n    tag_194:\n        /* \"UUPScontracts/CommunityStateManager.sol\":3606:3686  (address[] memory members,) = profilesContract.getCommunityMembers(_communityId) */\n      pop\n      swap1\n      pop\n        /* \"UUPScontracts/CommunityStateManager.sol\":3700:3716  multiSigContract */\n      0x03\n      0x00\n      swap1\n      sload\n      swap1\n      0x0100\n      exp\n      swap1\n      div\n      0xffffffffffffffffffffffffffffffffffffffff\n      and\n        /* \"UUPScontracts/CommunityStateManager.sol\":3700:3740  multiSigContract.updateTopRespectedUsers */\n      0xffffffffffffffffffffffffffffffffffffffff\n      and\n      0x69c43915\n        /* \"UUPScontracts/CommunityStateManager.sol\":3741:3753  _communityId */\n      dup8\n        /* \"UUPScontracts/CommunityStateManager.sol\":3755:3762  members */\n      dup4\n        /* \"UUPScontracts/CommunityStateManager.sol\":3700:3763  multiSigContract.updateTopRespectedUsers(_communityId, members) */\n      mload(0x40)\n      dup4\n      0xffffffff\n      and\n      0xe0\n      shl\n      dup2\n      mstore\n      0x04\n      add\n      tag_196\n      swap3\n      swap2\n      swap1\n      tag_197\n      jump\t// in\n    tag_196:\n      0x00\n      mload(0x40)\n      dup1\n      dup4\n      sub\n      dup2\n      0x00\n      dup8\n      dup1\n      extcodesize\n      iszero\n      dup1\n      iszero\n      tag_198\n      jumpi\n      0x00\n      dup1\n      revert\n    tag_198:\n      pop\n      gas\n      call\n      iszero\n      dup1\n      iszero\n      tag_200\n      jumpi\n      returndatasize\n      0x00\n      dup1\n      returndatacopy\n      revert(0x00, returndatasize)\n    tag_200:\n      pop\n      pop\n      pop\n      pop\n        /* \"UUPScontracts/CommunityStateManager.sol\":3863:3879  profilesContract */\n      0x00\n      dup1\n      sload\n      swap1\n      0x0100\n      exp\n      swap1\n      div\n      0xffffffffffffffffffffffffffffffffffffffff\n      and\n        /* \"UUPScontracts/CommunityStateManager.sol\":3863:3902  profilesContract.setStateTransitionTime */\n      0xffffffffffffffffffffffffffffffffffffffff\n      and\n      0x611ab368\n        /* \"UUPScontracts/CommunityStateManager.sol\":3903:3915  _communityId */\n      dup8\n        /* \"UUPScontracts/CommunityStateManager.sol\":3935:3944  1 seconds */\n      0x01\n        /* \"UUPScontracts/CommunityStateManager.sol\":3917:3932  block.timestamp */\n      timestamp\n        /* \"UUPScontracts/CommunityStateManager.sol\":3917:3944  block.timestamp + 1 seconds */\n      tag_201\n      swap2\n      swap1\n      tag_163\n      jump\t// in\n    tag_201:\n        /* \"UUPScontracts/CommunityStateManager.sol\":3863:3945  profilesContract.setStateTransitionTime(_communityId, block.timestamp + 1 seconds) */\n      mload(0x40)\n      dup4\n      0xffffffff\n      and\n      0xe0\n      shl\n      dup2\n      mstore\n      0x04\n      add\n      tag_202\n      swap3\n      swap2\n      swap1\n      tag_150\n      jump\t// in\n    tag_202:\n      0x00\n      mload(0x40)\n      dup1\n      dup4\n      sub\n      dup2\n      0x00\n      dup8\n      dup1\n      extcodesize\n      iszero\n      dup1\n      iszero\n      tag_203\n      jumpi\n      0x00\n      dup1\n      revert\n    tag_203:\n      pop\n      gas\n      call\n      iszero\n      dup1\n      iszero\n      tag_205\n      jumpi\n      returndatasize\n      0x00\n      dup1\n      returndatacopy\n      revert(0x00, returndatasize)\n    tag_205:\n      pop\n      pop\n      pop\n      pop\n        /* \"UUPScontracts/CommunityStateManager.sol\":3985:4005  string memory idWeek */\n      0x00\n        /* \"UUPScontracts/CommunityStateManager.sol\":4032:4062  Strings.toString(_communityId) */\n      tag_206\n        /* \"UUPScontracts/CommunityStateManager.sol\":4049:4061  _communityId */\n      dup8\n        /* \"UUPScontracts/CommunityStateManager.sol\":4032:4048  Strings.toString */\n      tag_169\n        /* \"UUPScontracts/CommunityStateManager.sol\":4032:4062  Strings.toString(_communityId) */\n      jump\t// in\n    tag_206:\n        /* \"UUPScontracts/CommunityStateManager.sol\":4015:4063  abi.encodePacked(Strings.toString(_communityId)) */\n      add(0x20, mload(0x40))\n      tag_207\n      swap2\n      swap1\n      tag_208\n      jump\t// in\n    tag_207:\n      mload(0x40)\n      0x20\n      dup2\n      dup4\n      sub\n      sub\n      dup2\n      mstore\n      swap1\n      0x40\n      mstore\n        /* \"UUPScontracts/CommunityStateManager.sol\":3985:4064  string memory idWeek = string(abi.encodePacked(Strings.toString(_communityId))) */\n      swap1\n      pop\n        /* \"UUPScontracts/CommunityStateManager.sol\":4083:4110  RankingtoSubmission(idWeek) */\n      0xb72d3b0ff08b267c8db675db62d13b3c4fdcf916a22e2967bfaa8cab88ffd422\n        /* \"UUPScontracts/CommunityStateManager.sol\":4103:4109  idWeek */\n      dup2\n        /* \"UUPScontracts/CommunityStateManager.sol\":4083:4110  RankingtoSubmission(idWeek) */\n      mload(0x40)\n      tag_209\n      swap2\n      swap1\n      tag_61\n      jump\t// in\n    tag_209:\n      mload(0x40)\n      dup1\n      swap2\n      sub\n      swap1\n      log1\n        /* \"UUPScontracts/CommunityStateManager.sol\":3151:4138  {... */\n      pop\n      pop\n        /* \"UUPScontracts/CommunityStateManager.sol\":2300:4138  if (currentState == ICommunityGovernanceProfiles.CommunityState.ContributionSubmission) {... */\n    tag_174:\n        /* \"UUPScontracts/CommunityStateManager.sol\":1759:4451  {... */\n      pop\n      pop\n      pop\n      pop\n        /* \"UUPScontracts/CommunityStateManager.sol\":1709:4451  function changeState(uint256 _communityId) public {... */\n      pop\n      jump\t// out\n        /* \"UUPScontracts/CommunityStateManager.sol\":622:762  function initialize(address initialOwner) public initializer {... */\n    tag_70:\n        /* \"@openzeppelin/contracts-upgradeable/proxy/utils/Initializable.sol\":4158:4188  InitializableStorage storage $ */\n      0x00\n        /* \"@openzeppelin/contracts-upgradeable/proxy/utils/Initializable.sol\":4191:4217  _getInitializableStorage() */\n      tag_211\n        /* \"@openzeppelin/contracts-upgradeable/proxy/utils/Initializable.sol\":4191:4215  _getInitializableStorage */\n      tag_212\n        /* \"@openzeppelin/contracts-upgradeable/proxy/utils/Initializable.sol\":4191:4217  _getInitializableStorage() */\n      jump\t// in\n    tag_211:\n        /* \"@openzeppelin/contracts-upgradeable/proxy/utils/Initializable.sol\":4158:4217  InitializableStorage storage $ = _getInitializableStorage() */\n      swap1\n      pop\n        /* \"@openzeppelin/contracts-upgradeable/proxy/utils/Initializable.sol\":4279:4298  bool isTopLevelCall */\n      0x00\n        /* \"@openzeppelin/contracts-upgradeable/proxy/utils/Initializable.sol\":4302:4303  $ */\n      dup2\n        /* \"@openzeppelin/contracts-upgradeable/proxy/utils/Initializable.sol\":4302:4317  $._initializing */\n      0x00\n      add\n      0x08\n      swap1\n      sload\n      swap1\n      0x0100\n      exp\n      swap1\n      div\n      0xff\n      and\n        /* \"@openzeppelin/contracts-upgradeable/proxy/utils/Initializable.sol\":4301:4317  !$._initializing */\n      iszero\n        /* \"@openzeppelin/contracts-upgradeable/proxy/utils/Initializable.sol\":4279:4317  bool isTopLevelCall = !$._initializing */\n      swap1\n      pop\n        /* \"@openzeppelin/contracts-upgradeable/proxy/utils/Initializable.sol\":4327:4345  uint64 initialized */\n      0x00\n        /* \"@openzeppelin/contracts-upgradeable/proxy/utils/Initializable.sol\":4348:4349  $ */\n      dup3\n        /* \"@openzeppelin/contracts-upgradeable/proxy/utils/Initializable.sol\":4348:4362  $._initialized */\n      0x00\n      add\n      0x00\n      swap1\n      sload\n      swap1\n      0x0100\n      exp\n      swap1\n      div\n      0xffffffffffffffff\n      and\n        /* \"@openzeppelin/contracts-upgradeable/proxy/utils/Initializable.sol\":4327:4362  uint64 initialized = $._initialized */\n      swap1\n      pop\n        /* \"@openzeppelin/contracts-upgradeable/proxy/utils/Initializable.sol\":4706:4723  bool initialSetup */\n      0x00\n        /* \"@openzeppelin/contracts-upgradeable/proxy/utils/Initializable.sol\":4741:4742  0 */\n      dup1\n        /* \"@openzeppelin/contracts-upgradeable/proxy/utils/Initializable.sol\":4726:4737  initialized */\n      dup3\n        /* \"@openzeppelin/contracts-upgradeable/proxy/utils/Initializable.sol\":4726:4742  initialized == 0 */\n      0xffffffffffffffff\n      and\n      eq\n        /* \"@openzeppelin/contracts-upgradeable/proxy/utils/Initializable.sol\":4726:4760  initialized == 0 && isTopLevelCall */\n      dup1\n      iszero\n      tag_213\n      jumpi\n      pop\n        /* \"@openzeppelin/contracts-upgradeable/proxy/utils/Initializable.sol\":4746:4760  isTopLevelCall */\n      dup3\n        /* \"@openzeppelin/contracts-upgradeable/proxy/utils/Initializable.sol\":4726:4760  initialized == 0 && isTopLevelCall */\n    tag_213:\n        /* \"@openzeppelin/contracts-upgradeable/proxy/utils/Initializable.sol\":4706:4760  bool initialSetup = initialized == 0 && isTopLevelCall */\n      swap1\n      pop\n        /* \"@openzeppelin/contracts-upgradeable/proxy/utils/Initializable.sol\":4770:4787  bool construction */\n      0x00\n        /* \"@openzeppelin/contracts-upgradeable/proxy/utils/Initializable.sol\":4805:4806  1 */\n      0x01\n        /* \"@openzeppelin/contracts-upgradeable/proxy/utils/Initializable.sol\":4790:4801  initialized */\n      dup4\n        /* \"@openzeppelin/contracts-upgradeable/proxy/utils/Initializable.sol\":4790:4806  initialized == 1 */\n      0xffffffffffffffff\n      and\n      eq\n        /* \"@openzeppelin/contracts-upgradeable/proxy/utils/Initializable.sol\":4790:4840  initialized == 1 && address(this).code.length == 0 */\n      dup1\n      iszero\n      tag_214\n      jumpi\n      pop\n        /* \"@openzeppelin/contracts-upgradeable/proxy/utils/Initializable.sol\":4839:4840  0 */\n      0x00\n        /* \"@openzeppelin/contracts-upgradeable/proxy/utils/Initializable.sol\":4818:4822  this */\n      address\n        /* \"@openzeppelin/contracts-upgradeable/proxy/utils/Initializable.sol\":4810:4835  address(this).code.length */\n      0xffffffffffffffffffffffffffffffffffffffff\n      and\n      extcodesize\n        /* \"@openzeppelin/contracts-upgradeable/proxy/utils/Initializable.sol\":4810:4840  address(this).code.length == 0 */\n      eq\n        /* \"@openzeppelin/contracts-upgradeable/proxy/utils/Initializable.sol\":4790:4840  initialized == 1 && address(this).code.length == 0 */\n    tag_214:\n        /* \"@openzeppelin/contracts-upgradeable/proxy/utils/Initializable.sol\":4770:4840  bool construction = initialized == 1 && address(this).code.length == 0 */\n      swap1\n      pop\n        /* \"@openzeppelin/contracts-upgradeable/proxy/utils/Initializable.sol\":4856:4868  initialSetup */\n      dup2\n        /* \"@openzeppelin/contracts-upgradeable/proxy/utils/Initializable.sol\":4855:4868  !initialSetup */\n      iszero\n        /* \"@openzeppelin/contracts-upgradeable/proxy/utils/Initializable.sol\":4855:4885  !initialSetup && !construction */\n      dup1\n      iszero\n      tag_215\n      jumpi\n      pop\n        /* \"@openzeppelin/contracts-upgradeable/proxy/utils/Initializable.sol\":4873:4885  construction */\n      dup1\n        /* \"@openzeppelin/contracts-upgradeable/proxy/utils/Initializable.sol\":4872:4885  !construction */\n      iszero\n        /* \"@openzeppelin/contracts-upgradeable/proxy/utils/Initializable.sol\":4855:4885  !initialSetup && !construction */\n    tag_215:\n        /* \"@openzeppelin/contracts-upgradeable/proxy/utils/Initializable.sol\":4851:4942  if (!initialSetup && !construction) {... */\n      iszero\n      tag_216\n      jumpi\n        /* \"@openzeppelin/contracts-upgradeable/proxy/utils/Initializable.sol\":4908:4931  InvalidInitialization() */\n      mload(0x40)\n      0xf92ee8a900000000000000000000000000000000000000000000000000000000\n      dup2\n      mstore\n      0x04\n      add\n      mload(0x40)\n      dup1\n      swap2\n      sub\n      swap1\n      revert\n        /* \"@openzeppelin/contracts-upgradeable/proxy/utils/Initializable.sol\":4851:4942  if (!initialSetup && !construction) {... */\n    tag_216:\n        /* \"@openzeppelin/contracts-upgradeable/proxy/utils/Initializable.sol\":4968:4969  1 */\n      0x01\n        /* \"@openzeppelin/contracts-upgradeable/proxy/utils/Initializable.sol\":4951:4952  $ */\n      dup6\n        /* \"@openzeppelin/contracts-upgradeable/proxy/utils/Initializable.sol\":4951:4965  $._initialized */\n      0x00\n      add\n      0x00\n        /* \"@openzeppelin/contracts-upgradeable/proxy/utils/Initializable.sol\":4951:4969  $._initialized = 1 */\n      0x0100\n      exp\n      dup2\n      sload\n      dup2\n      0xffffffffffffffff\n      mul\n      not\n      and\n      swap1\n      dup4\n      0xffffffffffffffff\n      and\n      mul\n      or\n      swap1\n      sstore\n      pop\n        /* \"@openzeppelin/contracts-upgradeable/proxy/utils/Initializable.sol\":4983:4997  isTopLevelCall */\n      dup4\n        /* \"@openzeppelin/contracts-upgradeable/proxy/utils/Initializable.sol\":4979:5046  if (isTopLevelCall) {... */\n      iszero\n      tag_217\n      jumpi\n        /* \"@openzeppelin/contracts-upgradeable/proxy/utils/Initializable.sol\":5031:5035  true */\n      0x01\n        /* \"@openzeppelin/contracts-upgradeable/proxy/utils/Initializable.sol\":5013:5014  $ */\n      dup6\n        /* \"@openzeppelin/contracts-upgradeable/proxy/utils/Initializable.sol\":5013:5028  $._initializing */\n      0x00\n      add\n      0x08\n        /* \"@openzeppelin/contracts-upgradeable/proxy/utils/Initializable.sol\":5013:5035  $._initializing = true */\n      0x0100\n      exp\n      dup2\n      sload\n      dup2\n      0xff\n      mul\n      not\n      and\n      swap1\n      dup4\n      iszero\n      iszero\n      mul\n      or\n      swap1\n      sstore\n      pop\n        /* \"@openzeppelin/contracts-upgradeable/proxy/utils/Initializable.sol\":4979:5046  if (isTopLevelCall) {... */\n    tag_217:\n        /* \"UUPScontracts/CommunityStateManager.sol\":693:721  __Ownable_init(initialOwner) */\n      tag_219\n        /* \"UUPScontracts/CommunityStateManager.sol\":708:720  initialOwner */\n      dup7\n        /* \"UUPScontracts/CommunityStateManager.sol\":693:707  __Ownable_init */\n      tag_220\n        /* \"UUPScontracts/CommunityStateManager.sol\":693:721  __Ownable_init(initialOwner) */\n      jump\t// in\n    tag_219:\n        /* \"UUPScontracts/CommunityStateManager.sol\":731:755  __UUPSUpgradeable_init() */\n      tag_221\n        /* \"UUPScontracts/CommunityStateManager.sol\":731:753  __UUPSUpgradeable_init */\n      tag_222\n        /* \"UUPScontracts/CommunityStateManager.sol\":731:755  __UUPSUpgradeable_init() */\n      jump\t// in\n    tag_221:\n        /* \"@openzeppelin/contracts-upgradeable/proxy/utils/Initializable.sol\":5070:5084  isTopLevelCall */\n      dup4\n        /* \"@openzeppelin/contracts-upgradeable/proxy/utils/Initializable.sol\":5066:5167  if (isTopLevelCall) {... */\n      iszero\n      tag_223\n      jumpi\n        /* \"@openzeppelin/contracts-upgradeable/proxy/utils/Initializable.sol\":5118:5123  false */\n      0x00\n        /* \"@openzeppelin/contracts-upgradeable/proxy/utils/Initializable.sol\":5100:5101  $ */\n      dup6\n        /* \"@openzeppelin/contracts-upgradeable/proxy/utils/Initializable.sol\":5100:5115  $._initializing */\n      0x00\n      add\n      0x08\n        /* \"@openzeppelin/contracts-upgradeable/proxy/utils/Initializable.sol\":5100:5123  $._initializing = false */\n      0x0100\n      exp\n      dup2\n      sload\n      dup2\n      0xff\n      mul\n      not\n      and\n      swap1\n      dup4\n      iszero\n      iszero\n      mul\n      or\n      swap1\n      sstore\n      pop\n        /* \"@openzeppelin/contracts-upgradeable/proxy/utils/Initializable.sol\":5142:5156  Initialized(1) */\n      0xc7f505b2f371ae2175ee4913f4499e1f2633a7b5936321eed1cdaeb6115181d2\n        /* \"@openzeppelin/contracts-upgradeable/proxy/utils/Initializable.sol\":5154:5155  1 */\n      0x01\n        /* \"@openzeppelin/contracts-upgradeable/proxy/utils/Initializable.sol\":5142:5156  Initialized(1) */\n      mload(0x40)\n      tag_224\n      swap2\n      swap1\n      tag_225\n      jump\t// in\n    tag_224:\n      mload(0x40)\n      dup1\n      swap2\n      sub\n      swap1\n      log1\n        /* \"@openzeppelin/contracts-upgradeable/proxy/utils/Initializable.sol\":5066:5167  if (isTopLevelCall) {... */\n    tag_223:\n        /* \"@openzeppelin/contracts-upgradeable/proxy/utils/Initializable.sol\":4092:5173  {... */\n      pop\n      pop\n      pop\n      pop\n      pop\n        /* \"UUPScontracts/CommunityStateManager.sol\":622:762  function initialize(address initialOwner) public initializer {... */\n      pop\n      jump\t// out\n        /* \"UUPScontracts/CommunityStateManager.sol\":972:1144  function setProfilesContract(address _profilesContractAddress) external onlyOwner {... */\n    tag_74:\n        /* \"@openzeppelin/contracts-upgradeable/access/OwnableUpgradeable.sol\":2334:2347  _checkOwner() */\n      tag_227\n        /* \"@openzeppelin/contracts-upgradeable/access/OwnableUpgradeable.sol\":2334:2345  _checkOwner */\n      tag_95\n        /* \"@openzeppelin/contracts-upgradeable/access/OwnableUpgradeable.sol\":2334:2347  _checkOwner() */\n      jump\t// in\n    tag_227:\n        /* \"UUPScontracts/CommunityStateManager.sol\":1112:1136  _profilesContractAddress */\n      dup1\n        /* \"UUPScontracts/CommunityStateManager.sol\":1064:1080  profilesContract */\n      0x00\n      dup1\n        /* \"UUPScontracts/CommunityStateManager.sol\":1064:1137  profilesContract = ICommunityGovernanceProfiles(_profilesContractAddress) */\n      0x0100\n      exp\n      dup2\n      sload\n      dup2\n      0xffffffffffffffffffffffffffffffffffffffff\n      mul\n      not\n      and\n      swap1\n      dup4\n      0xffffffffffffffffffffffffffffffffffffffff\n      and\n      mul\n      or\n      swap1\n      sstore\n      pop\n        /* \"UUPScontracts/CommunityStateManager.sol\":972:1144  function setProfilesContract(address _profilesContractAddress) external onlyOwner {... */\n      pop\n      jump\t// out\n        /* \"UUPScontracts/CommunityStateManager.sol\":1328:1525  function setContributionsContract(address _contributionsContractAddress) external onlyOwner {... */\n    tag_78:\n        /* \"@openzeppelin/contracts-upgradeable/access/OwnableUpgradeable.sol\":2334:2347  _checkOwner() */\n      tag_230\n        /* \"@openzeppelin/contracts-upgradeable/access/OwnableUpgradeable.sol\":2334:2345  _checkOwner */\n      tag_95\n        /* \"@openzeppelin/contracts-upgradeable/access/OwnableUpgradeable.sol\":2334:2347  _checkOwner() */\n      jump\t// in\n    tag_230:\n        /* \"UUPScontracts/CommunityStateManager.sol\":1488:1517  _contributionsContractAddress */\n      dup1\n        /* \"UUPScontracts/CommunityStateManager.sol\":1430:1451  contributionsContract */\n      0x02\n      0x00\n        /* \"UUPScontracts/CommunityStateManager.sol\":1430:1518  contributionsContract = ICommunityGovernanceContributions(_contributionsContractAddress) */\n      0x0100\n      exp\n      dup2\n      sload\n      dup2\n      0xffffffffffffffffffffffffffffffffffffffff\n      mul\n      not\n      and\n      swap1\n      dup4\n      0xffffffffffffffffffffffffffffffffffffffff\n      and\n      mul\n      or\n      swap1\n      sstore\n      pop\n        /* \"UUPScontracts/CommunityStateManager.sol\":1328:1525  function setContributionsContract(address _contributionsContractAddress) external onlyOwner {... */\n      pop\n      jump\t// out\n        /* \"UUPScontracts/CommunityStateManagerStorage.sol\":447:509  ICommunityGovernanceContributions public contributionsContract */\n    tag_81:\n      0x02\n      0x00\n      swap1\n      sload\n      swap1\n      0x0100\n      exp\n      swap1\n      div\n      0xffffffffffffffffffffffffffffffffffffffff\n      and\n      dup2\n      jump\t// out\n        /* \"@openzeppelin/contracts-upgradeable/access/OwnableUpgradeable.sol\":3405:3620  function transferOwnership(address newOwner) public virtual onlyOwner {... */\n    tag_87:\n        /* \"@openzeppelin/contracts-upgradeable/access/OwnableUpgradeable.sol\":2334:2347  _checkOwner() */\n      tag_233\n        /* \"@openzeppelin/contracts-upgradeable/access/OwnableUpgradeable.sol\":2334:2345  _checkOwner */\n      tag_95\n        /* \"@openzeppelin/contracts-upgradeable/access/OwnableUpgradeable.sol\":2334:2347  _checkOwner() */\n      jump\t// in\n    tag_233:\n        /* \"@openzeppelin/contracts-upgradeable/access/OwnableUpgradeable.sol\":3509:3510  0 */\n      0x00\n        /* \"@openzeppelin/contracts-upgradeable/access/OwnableUpgradeable.sol\":3489:3511  newOwner == address(0) */\n      0xffffffffffffffffffffffffffffffffffffffff\n      and\n        /* \"@openzeppelin/contracts-upgradeable/access/OwnableUpgradeable.sol\":3489:3497  newOwner */\n      dup2\n        /* \"@openzeppelin/contracts-upgradeable/access/OwnableUpgradeable.sol\":3489:3511  newOwner == address(0) */\n      0xffffffffffffffffffffffffffffffffffffffff\n      and\n      sub\n        /* \"@openzeppelin/contracts-upgradeable/access/OwnableUpgradeable.sol\":3485:3576  if (newOwner == address(0)) {... */\n      tag_235\n      jumpi\n        /* \"@openzeppelin/contracts-upgradeable/access/OwnableUpgradeable.sol\":3562:3563  0 */\n      0x00\n        /* \"@openzeppelin/contracts-upgradeable/access/OwnableUpgradeable.sol\":3534:3565  OwnableInvalidOwner(address(0)) */\n      mload(0x40)\n      0x1e4fbdf700000000000000000000000000000000000000000000000000000000\n      dup2\n      mstore\n      0x04\n      add\n      tag_236\n      swap2\n      swap1\n      tag_51\n      jump\t// in\n    tag_236:\n      mload(0x40)\n      dup1\n      swap2\n      sub\n      swap1\n      revert\n        /* \"@openzeppelin/contracts-upgradeable/access/OwnableUpgradeable.sol\":3485:3576  if (newOwner == address(0)) {... */\n    tag_235:\n        /* \"@openzeppelin/contracts-upgradeable/access/OwnableUpgradeable.sol\":3585:3613  _transferOwnership(newOwner) */\n      tag_237\n        /* \"@openzeppelin/contracts-upgradeable/access/OwnableUpgradeable.sol\":3604:3612  newOwner */\n      dup2\n        /* \"@openzeppelin/contracts-upgradeable/access/OwnableUpgradeable.sol\":3585:3603  _transferOwnership */\n      tag_116\n        /* \"@openzeppelin/contracts-upgradeable/access/OwnableUpgradeable.sol\":3585:3613  _transferOwnership(newOwner) */\n      jump\t// in\n    tag_237:\n        /* \"@openzeppelin/contracts-upgradeable/access/OwnableUpgradeable.sol\":3405:3620  function transferOwnership(address newOwner) public virtual onlyOwner {... */\n      pop\n      jump\t// out\n        /* \"UUPScontracts/CommunityStateManagerStorage.sol\":389:441  ICommunityGovernanceRankings public rankingsContract */\n    tag_90:\n      0x01\n      0x00\n      swap1\n      sload\n      swap1\n      0x0100\n      exp\n      swap1\n      div\n      0xffffffffffffffffffffffffffffffffffffffff\n      and\n      dup2\n      jump\t// out\n        /* \"@openzeppelin/contracts-upgradeable/access/OwnableUpgradeable.sol\":2658:2820  function _checkOwner() internal view virtual {... */\n    tag_95:\n        /* \"@openzeppelin/contracts-upgradeable/access/OwnableUpgradeable.sol\":2728:2740  _msgSender() */\n      tag_239\n        /* \"@openzeppelin/contracts-upgradeable/access/OwnableUpgradeable.sol\":2728:2738  _msgSender */\n      tag_240\n        /* \"@openzeppelin/contracts-upgradeable/access/OwnableUpgradeable.sol\":2728:2740  _msgSender() */\n      jump\t// in\n    tag_239:\n        /* \"@openzeppelin/contracts-upgradeable/access/OwnableUpgradeable.sol\":2717:2740  owner() != _msgSender() */\n      0xffffffffffffffffffffffffffffffffffffffff\n      and\n        /* \"@openzeppelin/contracts-upgradeable/access/OwnableUpgradeable.sol\":2717:2724  owner() */\n      tag_241\n        /* \"@openzeppelin/contracts-upgradeable/access/OwnableUpgradeable.sol\":2717:2722  owner */\n      tag_49\n        /* \"@openzeppelin/contracts-upgradeable/access/OwnableUpgradeable.sol\":2717:2724  owner() */\n      jump\t// in\n    tag_241:\n        /* \"@openzeppelin/contracts-upgradeable/access/OwnableUpgradeable.sol\":2717:2740  owner() != _msgSender() */\n      0xffffffffffffffffffffffffffffffffffffffff\n      and\n      eq\n        /* \"@openzeppelin/contracts-upgradeable/access/OwnableUpgradeable.sol\":2713:2814  if (owner() != _msgSender()) {... */\n      tag_242\n      jumpi\n        /* \"@openzeppelin/contracts-upgradeable/access/OwnableUpgradeable.sol\":2790:2802  _msgSender() */\n      tag_243\n        /* \"@openzeppelin/contracts-upgradeable/access/OwnableUpgradeable.sol\":2790:2800  _msgSender */\n      tag_240\n        /* \"@openzeppelin/contracts-upgradeable/access/OwnableUpgradeable.sol\":2790:2802  _msgSender() */\n      jump\t// in\n    tag_243:\n        /* \"@openzeppelin/contracts-upgradeable/access/OwnableUpgradeable.sol\":2763:2803  OwnableUnauthorizedAccount(_msgSender()) */\n      mload(0x40)\n      0x118cdaa700000000000000000000000000000000000000000000000000000000\n      dup2\n      mstore\n      0x04\n      add\n      tag_244\n      swap2\n      swap1\n      tag_51\n      jump\t// in\n    tag_244:\n      mload(0x40)\n      dup1\n      swap2\n      sub\n      swap1\n      revert\n        /* \"@openzeppelin/contracts-upgradeable/access/OwnableUpgradeable.sol\":2713:2814  if (owner() != _msgSender()) {... */\n    tag_242:\n        /* \"@openzeppelin/contracts-upgradeable/access/OwnableUpgradeable.sol\":2658:2820  function _checkOwner() internal view virtual {... */\n      jump\t// out\n        /* \"@openzeppelin/contracts-upgradeable/proxy/utils/UUPSUpgradeable.sol\":4599:4911  function _checkProxy() internal view virtual {... */\n    tag_99:\n        /* \"@openzeppelin/contracts-upgradeable/proxy/utils/UUPSUpgradeable.sol\":4688:4694  __self */\n      immutable(\"0x0b83f23a4eeb8c3f5f7d5934a2289bcf0186d09a12e1b7f20adf54e4b179db15\")\n        /* \"@openzeppelin/contracts-upgradeable/proxy/utils/UUPSUpgradeable.sol\":4671:4694  address(this) == __self */\n      0xffffffffffffffffffffffffffffffffffffffff\n      and\n        /* \"@openzeppelin/contracts-upgradeable/proxy/utils/UUPSUpgradeable.sol\":4679:4683  this */\n      address\n        /* \"@openzeppelin/contracts-upgradeable/proxy/utils/UUPSUpgradeable.sol\":4671:4694  address(this) == __self */\n      0xffffffffffffffffffffffffffffffffffffffff\n      and\n      eq\n        /* \"@openzeppelin/contracts-upgradeable/proxy/utils/UUPSUpgradeable.sol\":4671:4791  address(this) == __self || // Must be called through delegatecall... */\n      dup1\n      tag_246\n      jumpi\n      pop\n        /* \"@openzeppelin/contracts-upgradeable/proxy/utils/UUPSUpgradeable.sol\":4785:4791  __self */\n      immutable(\"0x0b83f23a4eeb8c3f5f7d5934a2289bcf0186d09a12e1b7f20adf54e4b179db15\")\n        /* \"@openzeppelin/contracts-upgradeable/proxy/utils/UUPSUpgradeable.sol\":4749:4791  ERC1967Utils.getImplementation() != __self */\n      0xffffffffffffffffffffffffffffffffffffffff\n      and\n        /* \"@openzeppelin/contracts-upgradeable/proxy/utils/UUPSUpgradeable.sol\":4749:4781  ERC1967Utils.getImplementation() */\n      tag_247\n        /* \"@openzeppelin/contracts-upgradeable/proxy/utils/UUPSUpgradeable.sol\":4749:4779  ERC1967Utils.getImplementation */\n      tag_248\n        /* \"@openzeppelin/contracts-upgradeable/proxy/utils/UUPSUpgradeable.sol\":4749:4781  ERC1967Utils.getImplementation() */\n      jump\t// in\n    tag_247:\n        /* \"@openzeppelin/contracts-upgradeable/proxy/utils/UUPSUpgradeable.sol\":4749:4791  ERC1967Utils.getImplementation() != __self */\n      0xffffffffffffffffffffffffffffffffffffffff\n      and\n      eq\n      iszero\n        /* \"@openzeppelin/contracts-upgradeable/proxy/utils/UUPSUpgradeable.sol\":4671:4791  address(this) == __self || // Must be called through delegatecall... */\n    tag_246:\n        /* \"@openzeppelin/contracts-upgradeable/proxy/utils/UUPSUpgradeable.sol\":4654:4905  if (... */\n      iszero\n      tag_249\n      jumpi\n        /* \"@openzeppelin/contracts-upgradeable/proxy/utils/UUPSUpgradeable.sol\":4865:4894  UUPSUnauthorizedCallContext() */\n      mload(0x40)\n      0xe07c8dba00000000000000000000000000000000000000000000000000000000\n      dup2\n      mstore\n      0x04\n      add\n      mload(0x40)\n      dup1\n      swap2\n      sub\n      swap1\n      revert\n        /* \"@openzeppelin/contracts-upgradeable/proxy/utils/UUPSUpgradeable.sol\":4654:4905  if (... */\n    tag_249:\n        /* \"@openzeppelin/contracts-upgradeable/proxy/utils/UUPSUpgradeable.sol\":4599:4911  function _checkProxy() internal view virtual {... */\n      jump\t// out\n        /* \"UUPScontracts/CommunityStateManager.sol\":882:966  function _authorizeUpgrade(address newImplementation) internal override onlyOwner {} */\n    tag_102:\n        /* \"@openzeppelin/contracts-upgradeable/access/OwnableUpgradeable.sol\":2334:2347  _checkOwner() */\n      tag_251\n        /* \"@openzeppelin/contracts-upgradeable/access/OwnableUpgradeable.sol\":2334:2345  _checkOwner */\n      tag_95\n        /* \"@openzeppelin/contracts-upgradeable/access/OwnableUpgradeable.sol\":2334:2347  _checkOwner() */\n      jump\t// in\n    tag_251:\n        /* \"UUPScontracts/CommunityStateManager.sol\":882:966  function _authorizeUpgrade(address newImplementation) internal override onlyOwner {} */\n      pop\n      jump\t// out\n        /* \"@openzeppelin/contracts-upgradeable/proxy/utils/UUPSUpgradeable.sol\":6052:6590  function _upgradeToAndCallUUPS(address newImplementation, bytes memory data) private {... */\n    tag_104:\n        /* \"@openzeppelin/contracts-upgradeable/proxy/utils/UUPSUpgradeable.sol\":6169:6186  newImplementation */\n      dup2\n        /* \"@openzeppelin/contracts-upgradeable/proxy/utils/UUPSUpgradeable.sol\":6151:6201  IERC1822Proxiable(newImplementation).proxiableUUID */\n      0xffffffffffffffffffffffffffffffffffffffff\n      and\n      0x52d1902d\n        /* \"@openzeppelin/contracts-upgradeable/proxy/utils/UUPSUpgradeable.sol\":6151:6203  IERC1822Proxiable(newImplementation).proxiableUUID() */\n      mload(0x40)\n      dup2\n      0xffffffff\n      and\n      0xe0\n      shl\n      dup2\n      mstore\n      0x04\n      add\n      0x20\n      mload(0x40)\n      dup1\n      dup4\n      sub\n      dup2\n      dup7\n      gas\n      staticcall\n      swap3\n      pop\n      pop\n      pop\n      dup1\n      iszero\n      tag_254\n      jumpi\n      pop\n      mload(0x40)\n      returndatasize\n      not(0x1f)\n      0x1f\n      dup3\n      add\n      and\n      dup3\n      add\n      dup1\n      0x40\n      mstore\n      pop\n      dup2\n      add\n      swap1\n      tag_255\n      swap2\n      swap1\n      tag_256\n      jump\t// in\n    tag_255:\n      0x01\n    tag_254:\n        /* \"@openzeppelin/contracts-upgradeable/proxy/utils/UUPSUpgradeable.sol\":6147:6584  try IERC1822Proxiable(newImplementation).proxiableUUID() returns (bytes32 slot) {... */\n      tag_257\n      jumpi\n        /* \"@openzeppelin/contracts-upgradeable/proxy/utils/UUPSUpgradeable.sol\":6555:6572  newImplementation */\n      dup2\n        /* \"@openzeppelin/contracts-upgradeable/proxy/utils/UUPSUpgradeable.sol\":6513:6573  ERC1967Utils.ERC1967InvalidImplementation(newImplementation) */\n      mload(0x40)\n      0x4c9c8ce300000000000000000000000000000000000000000000000000000000\n      dup2\n      mstore\n      0x04\n      add\n      tag_261\n      swap2\n      swap1\n      tag_51\n      jump\t// in\n    tag_261:\n      mload(0x40)\n      dup1\n      swap2\n      sub\n      swap1\n      revert\n        /* \"@openzeppelin/contracts-upgradeable/proxy/utils/UUPSUpgradeable.sol\":6147:6584  try IERC1822Proxiable(newImplementation).proxiableUUID() returns (bytes32 slot) {... */\n    tag_257:\n        /* \"@openzeppelin/contracts/proxy/ERC1967/ERC1967Utils.sol\":1327:1393  0x360894a13ba1a3210667c828492db98dca3e2076cc3735a920a3ca505d382bbc */\n      0x360894a13ba1a3210667c828492db98dca3e2076cc3735a920a3ca505d382bbc\n        /* \"@openzeppelin/contracts-upgradeable/proxy/utils/UUPSUpgradeable.sol\":6253:6285  ERC1967Utils.IMPLEMENTATION_SLOT */\n      0x00\n      shl\n        /* \"@openzeppelin/contracts-upgradeable/proxy/utils/UUPSUpgradeable.sol\":6245:6249  slot */\n      dup2\n        /* \"@openzeppelin/contracts-upgradeable/proxy/utils/UUPSUpgradeable.sol\":6245:6285  slot != ERC1967Utils.IMPLEMENTATION_SLOT */\n      eq\n        /* \"@openzeppelin/contracts-upgradeable/proxy/utils/UUPSUpgradeable.sol\":6241:6361  if (slot != ERC1967Utils.IMPLEMENTATION_SLOT) {... */\n      tag_263\n      jumpi\n        /* \"@openzeppelin/contracts-upgradeable/proxy/utils/UUPSUpgradeable.sol\":6341:6345  slot */\n      dup1\n        /* \"@openzeppelin/contracts-upgradeable/proxy/utils/UUPSUpgradeable.sol\":6312:6346  UUPSUnsupportedProxiableUUID(slot) */\n      mload(0x40)\n      0xaa1d49a400000000000000000000000000000000000000000000000000000000\n      dup2\n      mstore\n      0x04\n      add\n      tag_264\n      swap2\n      swap1\n      tag_39\n      jump\t// in\n    tag_264:\n      mload(0x40)\n      dup1\n      swap2\n      sub\n      swap1\n      revert\n        /* \"@openzeppelin/contracts-upgradeable/proxy/utils/UUPSUpgradeable.sol\":6241:6361  if (slot != ERC1967Utils.IMPLEMENTATION_SLOT) {... */\n    tag_263:\n        /* \"@openzeppelin/contracts-upgradeable/proxy/utils/UUPSUpgradeable.sol\":6374:6428  ERC1967Utils.upgradeToAndCall(newImplementation, data) */\n      tag_265\n        /* \"@openzeppelin/contracts-upgradeable/proxy/utils/UUPSUpgradeable.sol\":6404:6421  newImplementation */\n      dup4\n        /* \"@openzeppelin/contracts-upgradeable/proxy/utils/UUPSUpgradeable.sol\":6423:6427  data */\n      dup4\n        /* \"@openzeppelin/contracts-upgradeable/proxy/utils/UUPSUpgradeable.sol\":6374:6403  ERC1967Utils.upgradeToAndCall */\n      tag_266\n        /* \"@openzeppelin/contracts-upgradeable/proxy/utils/UUPSUpgradeable.sol\":6374:6428  ERC1967Utils.upgradeToAndCall(newImplementation, data) */\n      jump\t// in\n    tag_265:\n        /* \"@openzeppelin/contracts-upgradeable/proxy/utils/UUPSUpgradeable.sol\":6204:6439  returns (bytes32 slot) {... */\n      pop\n        /* \"@openzeppelin/contracts-upgradeable/proxy/utils/UUPSUpgradeable.sol\":6052:6590  function _upgradeToAndCallUUPS(address newImplementation, bytes memory data) private {... */\n      pop\n      pop\n      jump\t// out\n        /* \"@openzeppelin/contracts-upgradeable/proxy/utils/UUPSUpgradeable.sol\":5028:5241  function _checkNotDelegated() internal view virtual {... */\n    tag_107:\n        /* \"@openzeppelin/contracts-upgradeable/proxy/utils/UUPSUpgradeable.sol\":5111:5117  __self */\n      immutable(\"0x0b83f23a4eeb8c3f5f7d5934a2289bcf0186d09a12e1b7f20adf54e4b179db15\")\n        /* \"@openzeppelin/contracts-upgradeable/proxy/utils/UUPSUpgradeable.sol\":5094:5117  address(this) != __self */\n      0xffffffffffffffffffffffffffffffffffffffff\n      and\n        /* \"@openzeppelin/contracts-upgradeable/proxy/utils/UUPSUpgradeable.sol\":5102:5106  this */\n      address\n        /* \"@openzeppelin/contracts-upgradeable/proxy/utils/UUPSUpgradeable.sol\":5094:5117  address(this) != __self */\n      0xffffffffffffffffffffffffffffffffffffffff\n      and\n      eq\n        /* \"@openzeppelin/contracts-upgradeable/proxy/utils/UUPSUpgradeable.sol\":5090:5235  if (address(this) != __self) {... */\n      tag_268\n      jumpi\n        /* \"@openzeppelin/contracts-upgradeable/proxy/utils/UUPSUpgradeable.sol\":5195:5224  UUPSUnauthorizedCallContext() */\n      mload(0x40)\n      0xe07c8dba00000000000000000000000000000000000000000000000000000000\n      dup2\n      mstore\n      0x04\n      add\n      mload(0x40)\n      dup1\n      swap2\n      sub\n      swap1\n      revert\n        /* \"@openzeppelin/contracts-upgradeable/proxy/utils/UUPSUpgradeable.sol\":5090:5235  if (address(this) != __self) {... */\n    tag_268:\n        /* \"@openzeppelin/contracts-upgradeable/proxy/utils/UUPSUpgradeable.sol\":5028:5241  function _checkNotDelegated() internal view virtual {... */\n      jump\t// out\n        /* \"@openzeppelin/contracts-upgradeable/access/OwnableUpgradeable.sol\":3774:4022  function _transferOwnership(address newOwner) internal virtual {... */\n    tag_116:\n        /* \"@openzeppelin/contracts-upgradeable/access/OwnableUpgradeable.sol\":3847:3871  OwnableStorage storage $ */\n      0x00\n        /* \"@openzeppelin/contracts-upgradeable/access/OwnableUpgradeable.sol\":3874:3894  _getOwnableStorage() */\n      tag_270\n        /* \"@openzeppelin/contracts-upgradeable/access/OwnableUpgradeable.sol\":3874:3892  _getOwnableStorage */\n      tag_119\n        /* \"@openzeppelin/contracts-upgradeable/access/OwnableUpgradeable.sol\":3874:3894  _getOwnableStorage() */\n      jump\t// in\n    tag_270:\n        /* \"@openzeppelin/contracts-upgradeable/access/OwnableUpgradeable.sol\":3847:3894  OwnableStorage storage $ = _getOwnableStorage() */\n      swap1\n      pop\n        /* \"@openzeppelin/contracts-upgradeable/access/OwnableUpgradeable.sol\":3904:3920  address oldOwner */\n      0x00\n        /* \"@openzeppelin/contracts-upgradeable/access/OwnableUpgradeable.sol\":3923:3924  $ */\n      dup2\n        /* \"@openzeppelin/contracts-upgradeable/access/OwnableUpgradeable.sol\":3923:3931  $._owner */\n      0x00\n      add\n      0x00\n      swap1\n      sload\n      swap1\n      0x0100\n      exp\n      swap1\n      div\n      0xffffffffffffffffffffffffffffffffffffffff\n      and\n        /* \"@openzeppelin/contracts-upgradeable/access/OwnableUpgradeable.sol\":3904:3931  address oldOwner = $._owner */\n      swap1\n      pop\n        /* \"@openzeppelin/contracts-upgradeable/access/OwnableUpgradeable.sol\":3952:3960  newOwner */\n      dup3\n        /* \"@openzeppelin/contracts-upgradeable/access/OwnableUpgradeable.sol\":3941:3942  $ */\n      dup3\n        /* \"@openzeppelin/contracts-upgradeable/access/OwnableUpgradeable.sol\":3941:3949  $._owner */\n      0x00\n      add\n      0x00\n        /* \"@openzeppelin/contracts-upgradeable/access/OwnableUpgradeable.sol\":3941:3960  $._owner = newOwner */\n      0x0100\n      exp\n      dup2\n      sload\n      dup2\n      0xffffffffffffffffffffffffffffffffffffffff\n      mul\n      not\n      and\n      swap1\n      dup4\n      0xffffffffffffffffffffffffffffffffffffffff\n      and\n      mul\n      or\n      swap1\n      sstore\n      pop\n        /* \"@openzeppelin/contracts-upgradeable/access/OwnableUpgradeable.sol\":4006:4014  newOwner */\n      dup3\n        /* \"@openzeppelin/contracts-upgradeable/access/OwnableUpgradeable.sol\":3975:4015  OwnershipTransferred(oldOwner, newOwner) */\n      0xffffffffffffffffffffffffffffffffffffffff\n      and\n        /* \"@openzeppelin/contracts-upgradeable/access/OwnableUpgradeable.sol\":3996:4004  oldOwner */\n      dup2\n        /* \"@openzeppelin/contracts-upgradeable/access/OwnableUpgradeable.sol\":3975:4015  OwnershipTransferred(oldOwner, newOwner) */\n      0xffffffffffffffffffffffffffffffffffffffff\n      and\n      0x8be0079c531659141344cd1fd0a4f28419497f9722a3daafe3b4186f6b6457e0\n      mload(0x40)\n      mload(0x40)\n      dup1\n      swap2\n      sub\n      swap1\n      log3\n        /* \"@openzeppelin/contracts-upgradeable/access/OwnableUpgradeable.sol\":3837:4022  {... */\n      pop\n      pop\n        /* \"@openzeppelin/contracts-upgradeable/access/OwnableUpgradeable.sol\":3774:4022  function _transferOwnership(address newOwner) internal virtual {... */\n      pop\n      jump\t// out\n        /* \"@openzeppelin/contracts-upgradeable/access/OwnableUpgradeable.sol\":1192:1351  function _getOwnableStorage() private pure returns (OwnableStorage storage $) {... */\n    tag_119:\n        /* \"@openzeppelin/contracts-upgradeable/access/OwnableUpgradeable.sol\":1244:1268  OwnableStorage storage $ */\n      0x00\n        /* \"@openzeppelin/contracts-upgradeable/access/OwnableUpgradeable.sol\":1313:1335  OwnableStorageLocation */\n      0x9016d09d72d40fdae2fd8ceac6b6234c7706214fd39c1cd1e609a0528c199300\n        /* \"@openzeppelin/contracts-upgradeable/access/OwnableUpgradeable.sol\":1303:1335  $.slot := OwnableStorageLocation */\n      swap1\n      pop\n        /* \"@openzeppelin/contracts-upgradeable/access/OwnableUpgradeable.sol\":1192:1351  function _getOwnableStorage() private pure returns (OwnableStorage storage $) {... */\n      swap1\n      jump\t// out\n        /* \"@openzeppelin/contracts/utils/Strings.sol\":637:1335  function toString(uint256 value) internal pure returns (string memory) {... */\n    tag_169:\n        /* \"@openzeppelin/contracts/utils/Strings.sol\":693:706  string memory */\n      0x60\n        /* \"@openzeppelin/contracts/utils/Strings.sol\":742:756  uint256 length */\n      0x00\n        /* \"@openzeppelin/contracts/utils/Strings.sol\":779:780  1 */\n      0x01\n        /* \"@openzeppelin/contracts/utils/Strings.sol\":759:776  Math.log10(value) */\n      tag_273\n        /* \"@openzeppelin/contracts/utils/Strings.sol\":770:775  value */\n      dup5\n        /* \"@openzeppelin/contracts/utils/Strings.sol\":759:769  Math.log10 */\n      tag_274\n        /* \"@openzeppelin/contracts/utils/Strings.sol\":759:776  Math.log10(value) */\n      jump\t// in\n    tag_273:\n        /* \"@openzeppelin/contracts/utils/Strings.sol\":759:780  Math.log10(value) + 1 */\n      add\n        /* \"@openzeppelin/contracts/utils/Strings.sol\":742:780  uint256 length = Math.log10(value) + 1 */\n      swap1\n      pop\n        /* \"@openzeppelin/contracts/utils/Strings.sol\":794:814  string memory buffer */\n      0x00\n        /* \"@openzeppelin/contracts/utils/Strings.sol\":828:834  length */\n      dup2\n        /* \"@openzeppelin/contracts/utils/Strings.sol\":817:835  new string(length) */\n      0xffffffffffffffff\n      dup2\n      gt\n      iszero\n      tag_275\n      jumpi\n      tag_276\n      tag_277\n      jump\t// in\n    tag_276:\n    tag_275:\n      mload(0x40)\n      swap1\n      dup1\n      dup3\n      mstore\n      dup1\n      0x1f\n      add\n      not(0x1f)\n      and\n      0x20\n      add\n      dup3\n      add\n      0x40\n      mstore\n      dup1\n      iszero\n      tag_278\n      jumpi\n      dup2\n      0x20\n      add\n      0x01\n      dup3\n      mul\n      dup1\n      calldatasize\n      dup4\n      calldatacopy\n      dup1\n      dup3\n      add\n      swap2\n      pop\n      pop\n      swap1\n      pop\n    tag_278:\n      pop\n        /* \"@openzeppelin/contracts/utils/Strings.sol\":794:835  string memory buffer = new string(length) */\n      swap1\n      pop\n        /* \"@openzeppelin/contracts/utils/Strings.sol\":849:860  uint256 ptr */\n      0x00\n        /* \"@openzeppelin/contracts/utils/Strings.sol\":975:981  length */\n      dup3\n        /* \"@openzeppelin/contracts/utils/Strings.sol\":971:973  32 */\n      0x20\n        /* \"@openzeppelin/contracts/utils/Strings.sol\":967:982  add(32, length) */\n      add\n        /* \"@openzeppelin/contracts/utils/Strings.sol\":959:965  buffer */\n      dup3\n        /* \"@openzeppelin/contracts/utils/Strings.sol\":955:983  add(buffer, add(32, length)) */\n      add\n        /* \"@openzeppelin/contracts/utils/Strings.sol\":948:983  ptr := add(buffer, add(32, length)) */\n      swap1\n      pop\n        /* \"@openzeppelin/contracts/utils/Strings.sol\":1010:1292  while (true) {... */\n    tag_279:\n        /* \"@openzeppelin/contracts/utils/Strings.sol\":1017:1021  true */\n      0x01\n        /* \"@openzeppelin/contracts/utils/Strings.sol\":1010:1292  while (true) {... */\n      iszero\n      tag_280\n      jumpi\n        /* \"@openzeppelin/contracts/utils/Strings.sol\":1041:1046  ptr-- */\n      dup1\n      dup1\n      0x01\n      swap1\n      sub\n      swap2\n      pop\n      pop\n        /* \"@openzeppelin/contracts/utils/Strings.sol\":1180:1190  HEX_DIGITS */\n      0x3031323334353637383961626364656600000000000000000000000000000000\n        /* \"@openzeppelin/contracts/utils/Strings.sol\":1175:1177  10 */\n      0x0a\n        /* \"@openzeppelin/contracts/utils/Strings.sol\":1168:1173  value */\n      dup7\n        /* \"@openzeppelin/contracts/utils/Strings.sol\":1164:1178  mod(value, 10) */\n      mod\n        /* \"@openzeppelin/contracts/utils/Strings.sol\":1159:1191  byte(mod(value, 10), HEX_DIGITS) */\n      byte\n        /* \"@openzeppelin/contracts/utils/Strings.sol\":1154:1157  ptr */\n      dup2\n        /* \"@openzeppelin/contracts/utils/Strings.sol\":1146:1192  mstore8(ptr, byte(mod(value, 10), HEX_DIGITS)) */\n      mstore8\n        /* \"@openzeppelin/contracts/utils/Strings.sol\":1236:1238  10 */\n      0x0a\n        /* \"@openzeppelin/contracts/utils/Strings.sol\":1227:1238  value /= 10 */\n      dup6\n      dup2\n      tag_281\n      jumpi\n      tag_282\n      tag_283\n      jump\t// in\n    tag_282:\n    tag_281:\n      div\n      swap5\n      pop\n        /* \"@openzeppelin/contracts/utils/Strings.sol\":1269:1270  0 */\n      0x00\n        /* \"@openzeppelin/contracts/utils/Strings.sol\":1260:1265  value */\n      dup6\n        /* \"@openzeppelin/contracts/utils/Strings.sol\":1260:1270  value == 0 */\n      sub\n        /* \"@openzeppelin/contracts/utils/Strings.sol\":1010:1292  while (true) {... */\n      tag_279\n        /* \"@openzeppelin/contracts/utils/Strings.sol\":1256:1277  if (value == 0) break */\n      jumpi\n        /* \"@openzeppelin/contracts/utils/Strings.sol\":1010:1292  while (true) {... */\n    tag_280:\n        /* \"@openzeppelin/contracts/utils/Strings.sol\":1312:1318  buffer */\n      dup2\n        /* \"@openzeppelin/contracts/utils/Strings.sol\":1305:1318  return buffer */\n      swap4\n      pop\n      pop\n      pop\n      pop\n        /* \"@openzeppelin/contracts/utils/Strings.sol\":637:1335  function toString(uint256 value) internal pure returns (string memory) {... */\n      swap2\n      swap1\n      pop\n      jump\t// out\n        /* \"@openzeppelin/contracts-upgradeable/proxy/utils/Initializable.sol\":8737:8907  function _getInitializableStorage() private pure returns (InitializableStorage storage $) {... */\n    tag_212:\n        /* \"@openzeppelin/contracts-upgradeable/proxy/utils/Initializable.sol\":8795:8825  InitializableStorage storage $ */\n      0x00\n        /* \"@openzeppelin/contracts-upgradeable/proxy/utils/Initializable.sol\":8870:8891  INITIALIZABLE_STORAGE */\n      0xf0c57e16840df040f15088dc2f81fe391c3923bec73e23a9662efc9c229c6a00\n        /* \"@openzeppelin/contracts-upgradeable/proxy/utils/Initializable.sol\":8860:8891  $.slot := INITIALIZABLE_STORAGE */\n      swap1\n      pop\n        /* \"@openzeppelin/contracts-upgradeable/proxy/utils/Initializable.sol\":8737:8907  function _getInitializableStorage() private pure returns (InitializableStorage storage $) {... */\n      swap1\n      jump\t// out\n        /* \"@openzeppelin/contracts-upgradeable/access/OwnableUpgradeable.sol\":1847:1974  function __Ownable_init(address initialOwner) internal onlyInitializing {... */\n    tag_220:\n        /* \"@openzeppelin/contracts-upgradeable/proxy/utils/Initializable.sol\":6931:6951  _checkInitializing() */\n      tag_287\n        /* \"@openzeppelin/contracts-upgradeable/proxy/utils/Initializable.sol\":6931:6949  _checkInitializing */\n      tag_288\n        /* \"@openzeppelin/contracts-upgradeable/proxy/utils/Initializable.sol\":6931:6951  _checkInitializing() */\n      jump\t// in\n    tag_287:\n        /* \"@openzeppelin/contracts-upgradeable/access/OwnableUpgradeable.sol\":1929:1967  __Ownable_init_unchained(initialOwner) */\n      tag_290\n        /* \"@openzeppelin/contracts-upgradeable/access/OwnableUpgradeable.sol\":1954:1966  initialOwner */\n      dup2\n        /* \"@openzeppelin/contracts-upgradeable/access/OwnableUpgradeable.sol\":1929:1953  __Ownable_init_unchained */\n      tag_291\n        /* \"@openzeppelin/contracts-upgradeable/access/OwnableUpgradeable.sol\":1929:1967  __Ownable_init_unchained(initialOwner) */\n      jump\t// in\n    tag_290:\n        /* \"@openzeppelin/contracts-upgradeable/access/OwnableUpgradeable.sol\":1847:1974  function __Ownable_init(address initialOwner) internal onlyInitializing {... */\n      pop\n      jump\t// out\n        /* \"@openzeppelin/contracts-upgradeable/proxy/utils/UUPSUpgradeable.sol\":2968:3035  function __UUPSUpgradeable_init() internal onlyInitializing {... */\n    tag_222:\n        /* \"@openzeppelin/contracts-upgradeable/proxy/utils/Initializable.sol\":6931:6951  _checkInitializing() */\n      tag_293\n        /* \"@openzeppelin/contracts-upgradeable/proxy/utils/Initializable.sol\":6931:6949  _checkInitializing */\n      tag_288\n        /* \"@openzeppelin/contracts-upgradeable/proxy/utils/Initializable.sol\":6931:6951  _checkInitializing() */\n      jump\t// in\n    tag_293:\n        /* \"@openzeppelin/contracts-upgradeable/proxy/utils/UUPSUpgradeable.sol\":2968:3035  function __UUPSUpgradeable_init() internal onlyInitializing {... */\n      jump\t// out\n        /* \"@openzeppelin/contracts-upgradeable/utils/ContextUpgradeable.sol\":887:983  function _msgSender() internal view virtual returns (address) {... */\n    tag_240:\n        /* \"@openzeppelin/contracts-upgradeable/utils/ContextUpgradeable.sol\":940:947  address */\n      0x00\n        /* \"@openzeppelin/contracts-upgradeable/utils/ContextUpgradeable.sol\":966:976  msg.sender */\n      caller\n        /* \"@openzeppelin/contracts-upgradeable/utils/ContextUpgradeable.sol\":959:976  return msg.sender */\n      swap1\n      pop\n        /* \"@openzeppelin/contracts-upgradeable/utils/ContextUpgradeable.sol\":887:983  function _msgSender() internal view virtual returns (address) {... */\n      swap1\n      jump\t// out\n        /* \"@openzeppelin/contracts/proxy/ERC1967/ERC1967Utils.sol\":1957:2095  function getImplementation() internal view returns (address) {... */\n    tag_248:\n        /* \"@openzeppelin/contracts/proxy/ERC1967/ERC1967Utils.sol\":2009:2016  address */\n      0x00\n        /* \"@openzeppelin/contracts/proxy/ERC1967/ERC1967Utils.sol\":2035:2082  StorageSlot.getAddressSlot(IMPLEMENTATION_SLOT) */\n      tag_297\n        /* \"@openzeppelin/contracts/proxy/ERC1967/ERC1967Utils.sol\":1327:1393  0x360894a13ba1a3210667c828492db98dca3e2076cc3735a920a3ca505d382bbc */\n      0x360894a13ba1a3210667c828492db98dca3e2076cc3735a920a3ca505d382bbc\n        /* \"@openzeppelin/contracts/proxy/ERC1967/ERC1967Utils.sol\":2062:2081  IMPLEMENTATION_SLOT */\n      0x00\n      shl\n        /* \"@openzeppelin/contracts/proxy/ERC1967/ERC1967Utils.sol\":2035:2061  StorageSlot.getAddressSlot */\n      tag_298\n        /* \"@openzeppelin/contracts/proxy/ERC1967/ERC1967Utils.sol\":2035:2082  StorageSlot.getAddressSlot(IMPLEMENTATION_SLOT) */\n      jump\t// in\n    tag_297:\n        /* \"@openzeppelin/contracts/proxy/ERC1967/ERC1967Utils.sol\":2035:2088  StorageSlot.getAddressSlot(IMPLEMENTATION_SLOT).value */\n      0x00\n      add\n      0x00\n      swap1\n      sload\n      swap1\n      0x0100\n      exp\n      swap1\n      div\n      0xffffffffffffffffffffffffffffffffffffffff\n      and\n        /* \"@openzeppelin/contracts/proxy/ERC1967/ERC1967Utils.sol\":2028:2088  return StorageSlot.getAddressSlot(IMPLEMENTATION_SLOT).value */\n      swap1\n      pop\n        /* \"@openzeppelin/contracts/proxy/ERC1967/ERC1967Utils.sol\":1957:2095  function getImplementation() internal view returns (address) {... */\n      swap1\n      jump\t// out\n        /* \"@openzeppelin/contracts/proxy/ERC1967/ERC1967Utils.sol\":2779:3114  function upgradeToAndCall(address newImplementation, bytes memory data) internal {... */\n    tag_266:\n        /* \"@openzeppelin/contracts/proxy/ERC1967/ERC1967Utils.sol\":2870:2907  _setImplementation(newImplementation) */\n      tag_300\n        /* \"@openzeppelin/contracts/proxy/ERC1967/ERC1967Utils.sol\":2889:2906  newImplementation */\n      dup3\n        /* \"@openzeppelin/contracts/proxy/ERC1967/ERC1967Utils.sol\":2870:2888  _setImplementation */\n      tag_301\n        /* \"@openzeppelin/contracts/proxy/ERC1967/ERC1967Utils.sol\":2870:2907  _setImplementation(newImplementation) */\n      jump\t// in\n    tag_300:\n        /* \"@openzeppelin/contracts/proxy/ERC1967/ERC1967Utils.sol\":2931:2948  newImplementation */\n      dup2\n        /* \"@openzeppelin/contracts/proxy/ERC1967/ERC1967Utils.sol\":2922:2949  Upgraded(newImplementation) */\n      0xffffffffffffffffffffffffffffffffffffffff\n      and\n      0xbc7cd75a20ee27fd9adebab32041f755214dbc6bffa90cc0225b39da2e5c2d3b\n      mload(0x40)\n      mload(0x40)\n      dup1\n      swap2\n      sub\n      swap1\n      log2\n        /* \"@openzeppelin/contracts/proxy/ERC1967/ERC1967Utils.sol\":2978:2979  0 */\n      0x00\n        /* \"@openzeppelin/contracts/proxy/ERC1967/ERC1967Utils.sol\":2964:2968  data */\n      dup2\n        /* \"@openzeppelin/contracts/proxy/ERC1967/ERC1967Utils.sol\":2964:2975  data.length */\n      mload\n        /* \"@openzeppelin/contracts/proxy/ERC1967/ERC1967Utils.sol\":2964:2979  data.length > 0 */\n      gt\n        /* \"@openzeppelin/contracts/proxy/ERC1967/ERC1967Utils.sol\":2960:3108  if (data.length > 0) {... */\n      iszero\n      tag_302\n      jumpi\n        /* \"@openzeppelin/contracts/proxy/ERC1967/ERC1967Utils.sol\":2995:3048  Address.functionDelegateCall(newImplementation, data) */\n      tag_303\n        /* \"@openzeppelin/contracts/proxy/ERC1967/ERC1967Utils.sol\":3024:3041  newImplementation */\n      dup3\n        /* \"@openzeppelin/contracts/proxy/ERC1967/ERC1967Utils.sol\":3043:3047  data */\n      dup3\n        /* \"@openzeppelin/contracts/proxy/ERC1967/ERC1967Utils.sol\":2995:3023  Address.functionDelegateCall */\n      tag_304\n        /* \"@openzeppelin/contracts/proxy/ERC1967/ERC1967Utils.sol\":2995:3048  Address.functionDelegateCall(newImplementation, data) */\n      jump\t// in\n    tag_303:\n      pop\n        /* \"@openzeppelin/contracts/proxy/ERC1967/ERC1967Utils.sol\":2960:3108  if (data.length > 0) {... */\n      jump(tag_305)\n    tag_302:\n        /* \"@openzeppelin/contracts/proxy/ERC1967/ERC1967Utils.sol\":3079:3097  _checkNonPayable() */\n      tag_306\n        /* \"@openzeppelin/contracts/proxy/ERC1967/ERC1967Utils.sol\":3079:3095  _checkNonPayable */\n      tag_307\n        /* \"@openzeppelin/contracts/proxy/ERC1967/ERC1967Utils.sol\":3079:3097  _checkNonPayable() */\n      jump\t// in\n    tag_306:\n        /* \"@openzeppelin/contracts/proxy/ERC1967/ERC1967Utils.sol\":2960:3108  if (data.length > 0) {... */\n    tag_305:\n        /* \"@openzeppelin/contracts/proxy/ERC1967/ERC1967Utils.sol\":2779:3114  function upgradeToAndCall(address newImplementation, bytes memory data) internal {... */\n      pop\n      pop\n      jump\t// out\n        /* \"@openzeppelin/contracts/utils/math/Math.sol\":12214:13130  function log10(uint256 value) internal pure returns (uint256) {... */\n    tag_274:\n        /* \"@openzeppelin/contracts/utils/math/Math.sol\":12267:12274  uint256 */\n      0x00\n        /* \"@openzeppelin/contracts/utils/math/Math.sol\":12286:12300  uint256 result */\n      dup1\n        /* \"@openzeppelin/contracts/utils/math/Math.sol\":12303:12304  0 */\n      0x00\n        /* \"@openzeppelin/contracts/utils/math/Math.sol\":12286:12304  uint256 result = 0 */\n      swap1\n      pop\n        /* \"@openzeppelin/contracts/utils/math/Math.sol\":12351:12359  10 ** 64 */\n      0x184f03e93ff9f4daa797ed6e38ed64bf6a1f010000000000000000\n        /* \"@openzeppelin/contracts/utils/math/Math.sol\":12342:12347  value */\n      dup4\n        /* \"@openzeppelin/contracts/utils/math/Math.sol\":12342:12359  value >= 10 ** 64 */\n      lt\n        /* \"@openzeppelin/contracts/utils/math/Math.sol\":12338:12441  if (value >= 10 ** 64) {... */\n      tag_309\n      jumpi\n        /* \"@openzeppelin/contracts/utils/math/Math.sol\":12388:12396  10 ** 64 */\n      0x184f03e93ff9f4daa797ed6e38ed64bf6a1f010000000000000000\n        /* \"@openzeppelin/contracts/utils/math/Math.sol\":12379:12396  value /= 10 ** 64 */\n      dup4\n      dup2\n      tag_310\n      jumpi\n      tag_311\n      tag_283\n      jump\t// in\n    tag_311:\n    tag_310:\n      div\n      swap3\n      pop\n        /* \"@openzeppelin/contracts/utils/math/Math.sol\":12424:12426  64 */\n      0x40\n        /* \"@openzeppelin/contracts/utils/math/Math.sol\":12414:12426  result += 64 */\n      dup2\n      add\n      swap1\n      pop\n        /* \"@openzeppelin/contracts/utils/math/Math.sol\":12338:12441  if (value >= 10 ** 64) {... */\n    tag_309:\n        /* \"@openzeppelin/contracts/utils/math/Math.sol\":12467:12475  10 ** 32 */\n      0x04ee2d6d415b85acef8100000000\n        /* \"@openzeppelin/contracts/utils/math/Math.sol\":12458:12463  value */\n      dup4\n        /* \"@openzeppelin/contracts/utils/math/Math.sol\":12458:12475  value >= 10 ** 32 */\n      lt\n        /* \"@openzeppelin/contracts/utils/math/Math.sol\":12454:12557  if (value >= 10 ** 32) {... */\n      tag_312\n      jumpi\n        /* \"@openzeppelin/contracts/utils/math/Math.sol\":12504:12512  10 ** 32 */\n      0x04ee2d6d415b85acef8100000000\n        /* \"@openzeppelin/contracts/utils/math/Math.sol\":12495:12512  value /= 10 ** 32 */\n      dup4\n      dup2\n      tag_313\n      jumpi\n      tag_314\n      tag_283\n      jump\t// in\n    tag_314:\n    tag_313:\n      div\n      swap3\n      pop\n        /* \"@openzeppelin/contracts/utils/math/Math.sol\":12540:12542  32 */\n      0x20\n        /* \"@openzeppelin/contracts/utils/math/Math.sol\":12530:12542  result += 32 */\n      dup2\n      add\n      swap1\n      pop\n        /* \"@openzeppelin/contracts/utils/math/Math.sol\":12454:12557  if (value >= 10 ** 32) {... */\n    tag_312:\n        /* \"@openzeppelin/contracts/utils/math/Math.sol\":12583:12591  10 ** 16 */\n      0x2386f26fc10000\n        /* \"@openzeppelin/contracts/utils/math/Math.sol\":12574:12579  value */\n      dup4\n        /* \"@openzeppelin/contracts/utils/math/Math.sol\":12574:12591  value >= 10 ** 16 */\n      lt\n        /* \"@openzeppelin/contracts/utils/math/Math.sol\":12570:12673  if (value >= 10 ** 16) {... */\n      tag_315\n      jumpi\n        /* \"@openzeppelin/contracts/utils/math/Math.sol\":12620:12628  10 ** 16 */\n      0x2386f26fc10000\n        /* \"@openzeppelin/contracts/utils/math/Math.sol\":12611:12628  value /= 10 ** 16 */\n      dup4\n      dup2\n      tag_316\n      jumpi\n      tag_317\n      tag_283\n      jump\t// in\n    tag_317:\n    tag_316:\n      div\n      swap3\n      pop\n        /* \"@openzeppelin/contracts/utils/math/Math.sol\":12656:12658  16 */\n      0x10\n        /* \"@openzeppelin/contracts/utils/math/Math.sol\":12646:12658  result += 16 */\n      dup2\n      add\n      swap1\n      pop\n        /* \"@openzeppelin/contracts/utils/math/Math.sol\":12570:12673  if (value >= 10 ** 16) {... */\n    tag_315:\n        /* \"@openzeppelin/contracts/utils/math/Math.sol\":12699:12706  10 ** 8 */\n      0x05f5e100\n        /* \"@openzeppelin/contracts/utils/math/Math.sol\":12690:12695  value */\n      dup4\n        /* \"@openzeppelin/contracts/utils/math/Math.sol\":12690:12706  value >= 10 ** 8 */\n      lt\n        /* \"@openzeppelin/contracts/utils/math/Math.sol\":12686:12786  if (value >= 10 ** 8) {... */\n      tag_318\n      jumpi\n        /* \"@openzeppelin/contracts/utils/math/Math.sol\":12735:12742  10 ** 8 */\n      0x05f5e100\n        /* \"@openzeppelin/contracts/utils/math/Math.sol\":12726:12742  value /= 10 ** 8 */\n      dup4\n      dup2\n      tag_319\n      jumpi\n      tag_320\n      tag_283\n      jump\t// in\n    tag_320:\n    tag_319:\n      div\n      swap3\n      pop\n        /* \"@openzeppelin/contracts/utils/math/Math.sol\":12770:12771  8 */\n      0x08\n        /* \"@openzeppelin/contracts/utils/math/Math.sol\":12760:12771  result += 8 */\n      dup2\n      add\n      swap1\n      pop\n        /* \"@openzeppelin/contracts/utils/math/Math.sol\":12686:12786  if (value >= 10 ** 8) {... */\n    tag_318:\n        /* \"@openzeppelin/contracts/utils/math/Math.sol\":12812:12819  10 ** 4 */\n      0x2710\n        /* \"@openzeppelin/contracts/utils/math/Math.sol\":12803:12808  value */\n      dup4\n        /* \"@openzeppelin/contracts/utils/math/Math.sol\":12803:12819  value >= 10 ** 4 */\n      lt\n        /* \"@openzeppelin/contracts/utils/math/Math.sol\":12799:12899  if (value >= 10 ** 4) {... */\n      tag_321\n      jumpi\n        /* \"@openzeppelin/contracts/utils/math/Math.sol\":12848:12855  10 ** 4 */\n      0x2710\n        /* \"@openzeppelin/contracts/utils/math/Math.sol\":12839:12855  value /= 10 ** 4 */\n      dup4\n      dup2\n      tag_322\n      jumpi\n      tag_323\n      tag_283\n      jump\t// in\n    tag_323:\n    tag_322:\n      div\n      swap3\n      pop\n        /* \"@openzeppelin/contracts/utils/math/Math.sol\":12883:12884  4 */\n      0x04\n        /* \"@openzeppelin/contracts/utils/math/Math.sol\":12873:12884  result += 4 */\n      dup2\n      add\n      swap1\n      pop\n        /* \"@openzeppelin/contracts/utils/math/Math.sol\":12799:12899  if (value >= 10 ** 4) {... */\n    tag_321:\n        /* \"@openzeppelin/contracts/utils/math/Math.sol\":12925:12932  10 ** 2 */\n      0x64\n        /* \"@openzeppelin/contracts/utils/math/Math.sol\":12916:12921  value */\n      dup4\n        /* \"@openzeppelin/contracts/utils/math/Math.sol\":12916:12932  value >= 10 ** 2 */\n      lt\n        /* \"@openzeppelin/contracts/utils/math/Math.sol\":12912:13012  if (value >= 10 ** 2) {... */\n      tag_324\n      jumpi\n        /* \"@openzeppelin/contracts/utils/math/Math.sol\":12961:12968  10 ** 2 */\n      0x64\n        /* \"@openzeppelin/contracts/utils/math/Math.sol\":12952:12968  value /= 10 ** 2 */\n      dup4\n      dup2\n      tag_325\n      jumpi\n      tag_326\n      tag_283\n      jump\t// in\n    tag_326:\n    tag_325:\n      div\n      swap3\n      pop\n        /* \"@openzeppelin/contracts/utils/math/Math.sol\":12996:12997  2 */\n      0x02\n        /* \"@openzeppelin/contracts/utils/math/Math.sol\":12986:12997  result += 2 */\n      dup2\n      add\n      swap1\n      pop\n        /* \"@openzeppelin/contracts/utils/math/Math.sol\":12912:13012  if (value >= 10 ** 2) {... */\n    tag_324:\n        /* \"@openzeppelin/contracts/utils/math/Math.sol\":13038:13045  10 ** 1 */\n      0x0a\n        /* \"@openzeppelin/contracts/utils/math/Math.sol\":13029:13034  value */\n      dup4\n        /* \"@openzeppelin/contracts/utils/math/Math.sol\":13029:13045  value >= 10 ** 1 */\n      lt\n        /* \"@openzeppelin/contracts/utils/math/Math.sol\":13025:13091  if (value >= 10 ** 1) {... */\n      tag_327\n      jumpi\n        /* \"@openzeppelin/contracts/utils/math/Math.sol\":13075:13076  1 */\n      0x01\n        /* \"@openzeppelin/contracts/utils/math/Math.sol\":13065:13076  result += 1 */\n      dup2\n      add\n      swap1\n      pop\n        /* \"@openzeppelin/contracts/utils/math/Math.sol\":13025:13091  if (value >= 10 ** 1) {... */\n    tag_327:\n        /* \"@openzeppelin/contracts/utils/math/Math.sol\":13117:13123  result */\n      dup1\n        /* \"@openzeppelin/contracts/utils/math/Math.sol\":13110:13123  return result */\n      swap2\n      pop\n      pop\n        /* \"@openzeppelin/contracts/utils/math/Math.sol\":12214:13130  function log10(uint256 value) internal pure returns (uint256) {... */\n      swap2\n      swap1\n      pop\n      jump\t// out\n        /* \"@openzeppelin/contracts-upgradeable/proxy/utils/Initializable.sol\":7084:7225  function _checkInitializing() internal view virtual {... */\n    tag_288:\n        /* \"@openzeppelin/contracts-upgradeable/proxy/utils/Initializable.sol\":7151:7168  _isInitializing() */\n      tag_329\n        /* \"@openzeppelin/contracts-upgradeable/proxy/utils/Initializable.sol\":7151:7166  _isInitializing */\n      tag_330\n        /* \"@openzeppelin/contracts-upgradeable/proxy/utils/Initializable.sol\":7151:7168  _isInitializing() */\n      jump\t// in\n    tag_329:\n        /* \"@openzeppelin/contracts-upgradeable/proxy/utils/Initializable.sol\":7146:7219  if (!_isInitializing()) {... */\n      tag_331\n      jumpi\n        /* \"@openzeppelin/contracts-upgradeable/proxy/utils/Initializable.sol\":7191:7208  NotInitializing() */\n      mload(0x40)\n      0xd7e6bcf800000000000000000000000000000000000000000000000000000000\n      dup2\n      mstore\n      0x04\n      add\n      mload(0x40)\n      dup1\n      swap2\n      sub\n      swap1\n      revert\n        /* \"@openzeppelin/contracts-upgradeable/proxy/utils/Initializable.sol\":7146:7219  if (!_isInitializing()) {... */\n    tag_331:\n        /* \"@openzeppelin/contracts-upgradeable/proxy/utils/Initializable.sol\":7084:7225  function _checkInitializing() internal view virtual {... */\n      jump\t// out\n        /* \"@openzeppelin/contracts-upgradeable/access/OwnableUpgradeable.sol\":1980:2215  function __Ownable_init_unchained(address initialOwner) internal onlyInitializing {... */\n    tag_291:\n        /* \"@openzeppelin/contracts-upgradeable/proxy/utils/Initializable.sol\":6931:6951  _checkInitializing() */\n      tag_333\n        /* \"@openzeppelin/contracts-upgradeable/proxy/utils/Initializable.sol\":6931:6949  _checkInitializing */\n      tag_288\n        /* \"@openzeppelin/contracts-upgradeable/proxy/utils/Initializable.sol\":6931:6951  _checkInitializing() */\n      jump\t// in\n    tag_333:\n        /* \"@openzeppelin/contracts-upgradeable/access/OwnableUpgradeable.sol\":2100:2101  0 */\n      0x00\n        /* \"@openzeppelin/contracts-upgradeable/access/OwnableUpgradeable.sol\":2076:2102  initialOwner == address(0) */\n      0xffffffffffffffffffffffffffffffffffffffff\n      and\n        /* \"@openzeppelin/contracts-upgradeable/access/OwnableUpgradeable.sol\":2076:2088  initialOwner */\n      dup2\n        /* \"@openzeppelin/contracts-upgradeable/access/OwnableUpgradeable.sol\":2076:2102  initialOwner == address(0) */\n      0xffffffffffffffffffffffffffffffffffffffff\n      and\n      sub\n        /* \"@openzeppelin/contracts-upgradeable/access/OwnableUpgradeable.sol\":2072:2167  if (initialOwner == address(0)) {... */\n      tag_335\n      jumpi\n        /* \"@openzeppelin/contracts-upgradeable/access/OwnableUpgradeable.sol\":2153:2154  0 */\n      0x00\n        /* \"@openzeppelin/contracts-upgradeable/access/OwnableUpgradeable.sol\":2125:2156  OwnableInvalidOwner(address(0)) */\n      mload(0x40)\n      0x1e4fbdf700000000000000000000000000000000000000000000000000000000\n      dup2\n      mstore\n      0x04\n      add\n      tag_336\n      swap2\n      swap1\n      tag_51\n      jump\t// in\n    tag_336:\n      mload(0x40)\n      dup1\n      swap2\n      sub\n      swap1\n      revert\n        /* \"@openzeppelin/contracts-upgradeable/access/OwnableUpgradeable.sol\":2072:2167  if (initialOwner == address(0)) {... */\n    tag_335:\n        /* \"@openzeppelin/contracts-upgradeable/access/OwnableUpgradeable.sol\":2176:2208  _transferOwnership(initialOwner) */\n      tag_337\n        /* \"@openzeppelin/contracts-upgradeable/access/OwnableUpgradeable.sol\":2195:2207  initialOwner */\n      dup2\n        /* \"@openzeppelin/contracts-upgradeable/access/OwnableUpgradeable.sol\":2176:2194  _transferOwnership */\n      tag_116\n        /* \"@openzeppelin/contracts-upgradeable/access/OwnableUpgradeable.sol\":2176:2208  _transferOwnership(initialOwner) */\n      jump\t// in\n    tag_337:\n        /* \"@openzeppelin/contracts-upgradeable/access/OwnableUpgradeable.sol\":1980:2215  function __Ownable_init_unchained(address initialOwner) internal onlyInitializing {... */\n      pop\n      jump\t// out\n        /* \"@openzeppelin/contracts/utils/StorageSlot.sol\":1684:1874  function getAddressSlot(bytes32 slot) internal pure returns (AddressSlot storage r) {... */\n    tag_298:\n        /* \"@openzeppelin/contracts/utils/StorageSlot.sol\":1745:1766  AddressSlot storage r */\n      0x00\n        /* \"@openzeppelin/contracts/utils/StorageSlot.sol\":1854:1858  slot */\n      dup2\n        /* \"@openzeppelin/contracts/utils/StorageSlot.sol\":1844:1858  r.slot := slot */\n      swap1\n      pop\n        /* \"@openzeppelin/contracts/utils/StorageSlot.sol\":1684:1874  function getAddressSlot(bytes32 slot) internal pure returns (AddressSlot storage r) {... */\n      swap2\n      swap1\n      pop\n      jump\t// out\n        /* \"@openzeppelin/contracts/proxy/ERC1967/ERC1967Utils.sol\":2186:2467  function _setImplementation(address newImplementation) private {... */\n    tag_301:\n        /* \"@openzeppelin/contracts/proxy/ERC1967/ERC1967Utils.sol\":2296:2297  0 */\n      0x00\n        /* \"@openzeppelin/contracts/proxy/ERC1967/ERC1967Utils.sol\":2263:2280  newImplementation */\n      dup2\n        /* \"@openzeppelin/contracts/proxy/ERC1967/ERC1967Utils.sol\":2263:2292  newImplementation.code.length */\n      0xffffffffffffffffffffffffffffffffffffffff\n      and\n      extcodesize\n        /* \"@openzeppelin/contracts/proxy/ERC1967/ERC1967Utils.sol\":2263:2297  newImplementation.code.length == 0 */\n      sub\n        /* \"@openzeppelin/contracts/proxy/ERC1967/ERC1967Utils.sol\":2259:2378  if (newImplementation.code.length == 0) {... */\n      tag_340\n      jumpi\n        /* \"@openzeppelin/contracts/proxy/ERC1967/ERC1967Utils.sol\":2349:2366  newImplementation */\n      dup1\n        /* \"@openzeppelin/contracts/proxy/ERC1967/ERC1967Utils.sol\":2320:2367  ERC1967InvalidImplementation(newImplementation) */\n      mload(0x40)\n      0x4c9c8ce300000000000000000000000000000000000000000000000000000000\n      dup2\n      mstore\n      0x04\n      add\n      tag_341\n      swap2\n      swap1\n      tag_51\n      jump\t// in\n    tag_341:\n      mload(0x40)\n      dup1\n      swap2\n      sub\n      swap1\n      revert\n        /* \"@openzeppelin/contracts/proxy/ERC1967/ERC1967Utils.sol\":2259:2378  if (newImplementation.code.length == 0) {... */\n    tag_340:\n        /* \"@openzeppelin/contracts/proxy/ERC1967/ERC1967Utils.sol\":2443:2460  newImplementation */\n      dup1\n        /* \"@openzeppelin/contracts/proxy/ERC1967/ERC1967Utils.sol\":2387:2434  StorageSlot.getAddressSlot(IMPLEMENTATION_SLOT) */\n      tag_342\n        /* \"@openzeppelin/contracts/proxy/ERC1967/ERC1967Utils.sol\":1327:1393  0x360894a13ba1a3210667c828492db98dca3e2076cc3735a920a3ca505d382bbc */\n      0x360894a13ba1a3210667c828492db98dca3e2076cc3735a920a3ca505d382bbc\n        /* \"@openzeppelin/contracts/proxy/ERC1967/ERC1967Utils.sol\":2414:2433  IMPLEMENTATION_SLOT */\n      0x00\n      shl\n        /* \"@openzeppelin/contracts/proxy/ERC1967/ERC1967Utils.sol\":2387:2413  StorageSlot.getAddressSlot */\n      tag_298\n        /* \"@openzeppelin/contracts/proxy/ERC1967/ERC1967Utils.sol\":2387:2434  StorageSlot.getAddressSlot(IMPLEMENTATION_SLOT) */\n      jump\t// in\n    tag_342:\n        /* \"@openzeppelin/contracts/proxy/ERC1967/ERC1967Utils.sol\":2387:2440  StorageSlot.getAddressSlot(IMPLEMENTATION_SLOT).value */\n      0x00\n      add\n      0x00\n        /* \"@openzeppelin/contracts/proxy/ERC1967/ERC1967Utils.sol\":2387:2460  StorageSlot.getAddressSlot(IMPLEMENTATION_SLOT).value = newImplementation */\n      0x0100\n      exp\n      dup2\n      sload\n      dup2\n      0xffffffffffffffffffffffffffffffffffffffff\n      mul\n      not\n      and\n      swap1\n      dup4\n      0xffffffffffffffffffffffffffffffffffffffff\n      and\n      mul\n      or\n      swap1\n      sstore\n      pop\n        /* \"@openzeppelin/contracts/proxy/ERC1967/ERC1967Utils.sol\":2186:2467  function _setImplementation(address newImplementation) private {... */\n      pop\n      jump\t// out\n        /* \"@openzeppelin/contracts/utils/Address.sol\":4106:4359  function functionDelegateCall(address target, bytes memory data) internal returns (bytes memory) {... */\n    tag_304:\n        /* \"@openzeppelin/contracts/utils/Address.sol\":4189:4201  bytes memory */\n      0x60\n        /* \"@openzeppelin/contracts/utils/Address.sol\":4214:4226  bool success */\n      0x00\n        /* \"@openzeppelin/contracts/utils/Address.sol\":4228:4251  bytes memory returndata */\n      dup1\n        /* \"@openzeppelin/contracts/utils/Address.sol\":4255:4261  target */\n      dup5\n        /* \"@openzeppelin/contracts/utils/Address.sol\":4255:4274  target.delegatecall */\n      0xffffffffffffffffffffffffffffffffffffffff\n      and\n        /* \"@openzeppelin/contracts/utils/Address.sol\":4275:4279  data */\n      dup5\n        /* \"@openzeppelin/contracts/utils/Address.sol\":4255:4280  target.delegatecall(data) */\n      mload(0x40)\n      tag_344\n      swap2\n      swap1\n      tag_345\n      jump\t// in\n    tag_344:\n      0x00\n      mload(0x40)\n      dup1\n      dup4\n      sub\n      dup2\n      dup6\n      gas\n      delegatecall\n      swap2\n      pop\n      pop\n      returndatasize\n      dup1\n      0x00\n      dup2\n      eq\n      tag_348\n      jumpi\n      mload(0x40)\n      swap2\n      pop\n      and(add(returndatasize, 0x3f), not(0x1f))\n      dup3\n      add\n      0x40\n      mstore\n      returndatasize\n      dup3\n      mstore\n      returndatasize\n      0x00\n      0x20\n      dup5\n      add\n      returndatacopy\n      jump(tag_347)\n    tag_348:\n      0x60\n      swap2\n      pop\n    tag_347:\n      pop\n        /* \"@openzeppelin/contracts/utils/Address.sol\":4213:4280  (bool success, bytes memory returndata) = target.delegatecall(data) */\n      swap2\n      pop\n      swap2\n      pop\n        /* \"@openzeppelin/contracts/utils/Address.sol\":4297:4352  verifyCallResultFromTarget(target, success, returndata) */\n      tag_349\n        /* \"@openzeppelin/contracts/utils/Address.sol\":4324:4330  target */\n      dup6\n        /* \"@openzeppelin/contracts/utils/Address.sol\":4332:4339  success */\n      dup4\n        /* \"@openzeppelin/contracts/utils/Address.sol\":4341:4351  returndata */\n      dup4\n        /* \"@openzeppelin/contracts/utils/Address.sol\":4297:4323  verifyCallResultFromTarget */\n      tag_350\n        /* \"@openzeppelin/contracts/utils/Address.sol\":4297:4352  verifyCallResultFromTarget(target, success, returndata) */\n      jump\t// in\n    tag_349:\n        /* \"@openzeppelin/contracts/utils/Address.sol\":4290:4352  return verifyCallResultFromTarget(target, success, returndata) */\n      swap3\n      pop\n      pop\n      pop\n        /* \"@openzeppelin/contracts/utils/Address.sol\":4106:4359  function functionDelegateCall(address target, bytes memory data) internal returns (bytes memory) {... */\n      swap3\n      swap2\n      pop\n      pop\n      jump\t// out\n        /* \"@openzeppelin/contracts/proxy/ERC1967/ERC1967Utils.sol\":6598:6720  function _checkNonPayable() private {... */\n    tag_307:\n        /* \"@openzeppelin/contracts/proxy/ERC1967/ERC1967Utils.sol\":6660:6661  0 */\n      0x00\n        /* \"@openzeppelin/contracts/proxy/ERC1967/ERC1967Utils.sol\":6648:6657  msg.value */\n      callvalue\n        /* \"@openzeppelin/contracts/proxy/ERC1967/ERC1967Utils.sol\":6648:6661  msg.value > 0 */\n      gt\n        /* \"@openzeppelin/contracts/proxy/ERC1967/ERC1967Utils.sol\":6644:6714  if (msg.value > 0) {... */\n      iszero\n      tag_352\n      jumpi\n        /* \"@openzeppelin/contracts/proxy/ERC1967/ERC1967Utils.sol\":6684:6703  ERC1967NonPayable() */\n      mload(0x40)\n      0xb398979f00000000000000000000000000000000000000000000000000000000\n      dup2\n      mstore\n      0x04\n      add\n      mload(0x40)\n      dup1\n      swap2\n      sub\n      swap1\n      revert\n        /* \"@openzeppelin/contracts/proxy/ERC1967/ERC1967Utils.sol\":6644:6714  if (msg.value > 0) {... */\n    tag_352:\n        /* \"@openzeppelin/contracts/proxy/ERC1967/ERC1967Utils.sol\":6598:6720  function _checkNonPayable() private {... */\n      jump\t// out\n        /* \"@openzeppelin/contracts-upgradeable/proxy/utils/Initializable.sol\":8487:8607  function _isInitializing() internal view returns (bool) {... */\n    tag_330:\n        /* \"@openzeppelin/contracts-upgradeable/proxy/utils/Initializable.sol\":8537:8541  bool */\n      0x00\n        /* \"@openzeppelin/contracts-upgradeable/proxy/utils/Initializable.sol\":8560:8586  _getInitializableStorage() */\n      tag_354\n        /* \"@openzeppelin/contracts-upgradeable/proxy/utils/Initializable.sol\":8560:8584  _getInitializableStorage */\n      tag_212\n        /* \"@openzeppelin/contracts-upgradeable/proxy/utils/Initializable.sol\":8560:8586  _getInitializableStorage() */\n      jump\t// in\n    tag_354:\n        /* \"@openzeppelin/contracts-upgradeable/proxy/utils/Initializable.sol\":8560:8600  _getInitializableStorage()._initializing */\n      0x00\n      add\n      0x08\n      swap1\n      sload\n      swap1\n      0x0100\n      exp\n      swap1\n      div\n      0xff\n      and\n        /* \"@openzeppelin/contracts-upgradeable/proxy/utils/Initializable.sol\":8553:8600  return _getInitializableStorage()._initializing */\n      swap1\n      pop\n        /* \"@openzeppelin/contracts-upgradeable/proxy/utils/Initializable.sol\":8487:8607  function _isInitializing() internal view returns (bool) {... */\n      swap1\n      jump\t// out\n        /* \"@openzeppelin/contracts/utils/Address.sol\":4625:5207  function verifyCallResultFromTarget(... */\n    tag_350:\n        /* \"@openzeppelin/contracts/utils/Address.sol\":4769:4781  bytes memory */\n      0x60\n        /* \"@openzeppelin/contracts/utils/Address.sol\":4798:4805  success */\n      dup3\n        /* \"@openzeppelin/contracts/utils/Address.sol\":4793:5201  if (!success) {... */\n      tag_356\n      jumpi\n        /* \"@openzeppelin/contracts/utils/Address.sol\":4821:4840  _revert(returndata) */\n      tag_357\n        /* \"@openzeppelin/contracts/utils/Address.sol\":4829:4839  returndata */\n      dup3\n        /* \"@openzeppelin/contracts/utils/Address.sol\":4821:4828  _revert */\n      tag_358\n        /* \"@openzeppelin/contracts/utils/Address.sol\":4821:4840  _revert(returndata) */\n      jump\t// in\n    tag_357:\n        /* \"@openzeppelin/contracts/utils/Address.sol\":4793:5201  if (!success) {... */\n      jump(tag_359)\n    tag_356:\n        /* \"@openzeppelin/contracts/utils/Address.sol\":5066:5067  0 */\n      0x00\n        /* \"@openzeppelin/contracts/utils/Address.sol\":5045:5055  returndata */\n      dup3\n        /* \"@openzeppelin/contracts/utils/Address.sol\":5045:5062  returndata.length */\n      mload\n        /* \"@openzeppelin/contracts/utils/Address.sol\":5045:5067  returndata.length == 0 */\n      eq\n        /* \"@openzeppelin/contracts/utils/Address.sol\":5045:5094  returndata.length == 0 && target.code.length == 0 */\n      dup1\n      iszero\n      tag_360\n      jumpi\n      pop\n        /* \"@openzeppelin/contracts/utils/Address.sol\":5093:5094  0 */\n      0x00\n        /* \"@openzeppelin/contracts/utils/Address.sol\":5071:5077  target */\n      dup5\n        /* \"@openzeppelin/contracts/utils/Address.sol\":5071:5089  target.code.length */\n      0xffffffffffffffffffffffffffffffffffffffff\n      and\n      extcodesize\n        /* \"@openzeppelin/contracts/utils/Address.sol\":5071:5094  target.code.length == 0 */\n      eq\n        /* \"@openzeppelin/contracts/utils/Address.sol\":5045:5094  returndata.length == 0 && target.code.length == 0 */\n    tag_360:\n        /* \"@openzeppelin/contracts/utils/Address.sol\":5041:5160  if (returndata.length == 0 && target.code.length == 0) {... */\n      iszero\n      tag_361\n      jumpi\n        /* \"@openzeppelin/contracts/utils/Address.sol\":5138:5144  target */\n      dup4\n        /* \"@openzeppelin/contracts/utils/Address.sol\":5121:5145  AddressEmptyCode(target) */\n      mload(0x40)\n      0x9996b31500000000000000000000000000000000000000000000000000000000\n      dup2\n      mstore\n      0x04\n      add\n      tag_362\n      swap2\n      swap1\n      tag_51\n      jump\t// in\n    tag_362:\n      mload(0x40)\n      dup1\n      swap2\n      sub\n      swap1\n      revert\n        /* \"@openzeppelin/contracts/utils/Address.sol\":5041:5160  if (returndata.length == 0 && target.code.length == 0) {... */\n    tag_361:\n        /* \"@openzeppelin/contracts/utils/Address.sol\":5180:5190  returndata */\n      dup2\n        /* \"@openzeppelin/contracts/utils/Address.sol\":5173:5190  return returndata */\n      swap1\n      pop\n      jump(tag_355)\n        /* \"@openzeppelin/contracts/utils/Address.sol\":4793:5201  if (!success) {... */\n    tag_359:\n        /* \"@openzeppelin/contracts/utils/Address.sol\":4625:5207  function verifyCallResultFromTarget(... */\n    tag_355:\n      swap4\n      swap3\n      pop\n      pop\n      pop\n      jump\t// out\n        /* \"@openzeppelin/contracts/utils/Address.sol\":5743:6259  function _revert(bytes memory returndata) private pure {... */\n    tag_358:\n        /* \"@openzeppelin/contracts/utils/Address.sol\":5894:5895  0 */\n      0x00\n        /* \"@openzeppelin/contracts/utils/Address.sol\":5874:5884  returndata */\n      dup2\n        /* \"@openzeppelin/contracts/utils/Address.sol\":5874:5891  returndata.length */\n      mload\n        /* \"@openzeppelin/contracts/utils/Address.sol\":5874:5895  returndata.length > 0 */\n      gt\n        /* \"@openzeppelin/contracts/utils/Address.sol\":5870:6253  if (returndata.length > 0) {... */\n      iszero\n      tag_364\n      jumpi\n        /* \"@openzeppelin/contracts/utils/Address.sol\":6102:6112  returndata */\n      dup1\n        /* \"@openzeppelin/contracts/utils/Address.sol\":6096:6113  mload(returndata) */\n      mload\n        /* \"@openzeppelin/contracts/utils/Address.sol\":6158:6173  returndata_size */\n      dup1\n        /* \"@openzeppelin/contracts/utils/Address.sol\":6145:6155  returndata */\n      dup3\n        /* \"@openzeppelin/contracts/utils/Address.sol\":6141:6143  32 */\n      0x20\n        /* \"@openzeppelin/contracts/utils/Address.sol\":6137:6156  add(32, returndata) */\n      add\n        /* \"@openzeppelin/contracts/utils/Address.sol\":6130:6174  revert(add(32, returndata), returndata_size) */\n      revert\n        /* \"@openzeppelin/contracts/utils/Address.sol\":5870:6253  if (returndata.length > 0) {... */\n    tag_364:\n        /* \"@openzeppelin/contracts/utils/Address.sol\":6225:6242  FailedInnerCall() */\n      mload(0x40)\n      0x1425ea4200000000000000000000000000000000000000000000000000000000\n      dup2\n      mstore\n      0x04\n      add\n      mload(0x40)\n      dup1\n      swap2\n      sub\n      swap1\n      revert\n        /* \"#utility.yul\":7:133   */\n    tag_366:\n        /* \"#utility.yul\":44:51   */\n      0x00\n        /* \"#utility.yul\":84:126   */\n      0xffffffffffffffffffffffffffffffffffffffff\n        /* \"#utility.yul\":77:82   */\n      dup3\n        /* \"#utility.yul\":73:127   */\n      and\n        /* \"#utility.yul\":62:127   */\n      swap1\n      pop\n        /* \"#utility.yul\":7:133   */\n      swap2\n      swap1\n      pop\n      jump\t// out\n        /* \"#utility.yul\":139:199   */\n    tag_367:\n        /* \"#utility.yul\":167:170   */\n      0x00\n        /* \"#utility.yul\":188:193   */\n      dup2\n        /* \"#utility.yul\":181:193   */\n      swap1\n      pop\n        /* \"#utility.yul\":139:199   */\n      swap2\n      swap1\n      pop\n      jump\t// out\n        /* \"#utility.yul\":205:347   */\n    tag_368:\n        /* \"#utility.yul\":255:264   */\n      0x00\n        /* \"#utility.yul\":288:341   */\n      tag_453\n        /* \"#utility.yul\":306:340   */\n      tag_454\n        /* \"#utility.yul\":315:339   */\n      tag_455\n        /* \"#utility.yul\":333:338   */\n      dup5\n        /* \"#utility.yul\":315:339   */\n      tag_366\n      jump\t// in\n    tag_455:\n        /* \"#utility.yul\":306:340   */\n      tag_367\n      jump\t// in\n    tag_454:\n        /* \"#utility.yul\":288:341   */\n      tag_366\n      jump\t// in\n    tag_453:\n        /* \"#utility.yul\":275:341   */\n      swap1\n      pop\n        /* \"#utility.yul\":205:347   */\n      swap2\n      swap1\n      pop\n      jump\t// out\n        /* \"#utility.yul\":353:479   */\n    tag_369:\n        /* \"#utility.yul\":403:412   */\n      0x00\n        /* \"#utility.yul\":436:473   */\n      tag_457\n        /* \"#utility.yul\":467:472   */\n      dup3\n        /* \"#utility.yul\":436:473   */\n      tag_368\n      jump\t// in\n    tag_457:\n        /* \"#utility.yul\":423:473   */\n      swap1\n      pop\n        /* \"#utility.yul\":353:479   */\n      swap2\n      swap1\n      pop\n      jump\t// out\n        /* \"#utility.yul\":485:648   */\n    tag_370:\n        /* \"#utility.yul\":572:581   */\n      0x00\n        /* \"#utility.yul\":605:642   */\n      tag_459\n        /* \"#utility.yul\":636:641   */\n      dup3\n        /* \"#utility.yul\":605:642   */\n      tag_369\n      jump\t// in\n    tag_459:\n        /* \"#utility.yul\":592:642   */\n      swap1\n      pop\n        /* \"#utility.yul\":485:648   */\n      swap2\n      swap1\n      pop\n      jump\t// out\n        /* \"#utility.yul\":654:859   */\n    tag_371:\n        /* \"#utility.yul\":778:852   */\n      tag_461\n        /* \"#utility.yul\":846:851   */\n      dup2\n        /* \"#utility.yul\":778:852   */\n      tag_370\n      jump\t// in\n    tag_461:\n        /* \"#utility.yul\":773:776   */\n      dup3\n        /* \"#utility.yul\":766:853   */\n      mstore\n        /* \"#utility.yul\":654:859   */\n      pop\n      pop\n      jump\t// out\n        /* \"#utility.yul\":865:1161   */\n    tag_25:\n        /* \"#utility.yul\":995:999   */\n      0x00\n        /* \"#utility.yul\":1033:1035   */\n      0x20\n        /* \"#utility.yul\":1022:1031   */\n      dup3\n        /* \"#utility.yul\":1018:1036   */\n      add\n        /* \"#utility.yul\":1010:1036   */\n      swap1\n      pop\n        /* \"#utility.yul\":1046:1154   */\n      tag_463\n        /* \"#utility.yul\":1151:1152   */\n      0x00\n        /* \"#utility.yul\":1140:1149   */\n      dup4\n        /* \"#utility.yul\":1136:1153   */\n      add\n        /* \"#utility.yul\":1127:1133   */\n      dup5\n        /* \"#utility.yul\":1046:1154   */\n      tag_371\n      jump\t// in\n    tag_463:\n        /* \"#utility.yul\":865:1161   */\n      swap3\n      swap2\n      pop\n      pop\n      jump\t// out\n        /* \"#utility.yul\":1167:1242   */\n    tag_372:\n        /* \"#utility.yul\":1200:1206   */\n      0x00\n        /* \"#utility.yul\":1233:1235   */\n      0x40\n        /* \"#utility.yul\":1227:1236   */\n      mload\n        /* \"#utility.yul\":1217:1236   */\n      swap1\n      pop\n        /* \"#utility.yul\":1167:1242   */\n      swap1\n      jump\t// out\n        /* \"#utility.yul\":1248:1365   */\n    tag_373:\n        /* \"#utility.yul\":1357:1358   */\n      0x00\n        /* \"#utility.yul\":1354:1355   */\n      dup1\n        /* \"#utility.yul\":1347:1359   */\n      revert\n        /* \"#utility.yul\":1371:1488   */\n    tag_374:\n        /* \"#utility.yul\":1480:1481   */\n      0x00\n        /* \"#utility.yul\":1477:1478   */\n      dup1\n        /* \"#utility.yul\":1470:1482   */\n      revert\n        /* \"#utility.yul\":1494:1590   */\n    tag_375:\n        /* \"#utility.yul\":1531:1538   */\n      0x00\n        /* \"#utility.yul\":1560:1584   */\n      tag_468\n        /* \"#utility.yul\":1578:1583   */\n      dup3\n        /* \"#utility.yul\":1560:1584   */\n      tag_366\n      jump\t// in\n    tag_468:\n        /* \"#utility.yul\":1549:1584   */\n      swap1\n      pop\n        /* \"#utility.yul\":1494:1590   */\n      swap2\n      swap1\n      pop\n      jump\t// out\n        /* \"#utility.yul\":1596:1718   */\n    tag_376:\n        /* \"#utility.yul\":1669:1693   */\n      tag_470\n        /* \"#utility.yul\":1687:1692   */\n      dup2\n        /* \"#utility.yul\":1669:1693   */\n      tag_375\n      jump\t// in\n    tag_470:\n        /* \"#utility.yul\":1662:1667   */\n      dup2\n        /* \"#utility.yul\":1659:1694   */\n      eq\n        /* \"#utility.yul\":1649:1712   */\n      tag_471\n      jumpi\n        /* \"#utility.yul\":1708:1709   */\n      0x00\n        /* \"#utility.yul\":1705:1706   */\n      dup1\n        /* \"#utility.yul\":1698:1710   */\n      revert\n        /* \"#utility.yul\":1649:1712   */\n    tag_471:\n        /* \"#utility.yul\":1596:1718   */\n      pop\n      jump\t// out\n        /* \"#utility.yul\":1724:1863   */\n    tag_377:\n        /* \"#utility.yul\":1770:1775   */\n      0x00\n        /* \"#utility.yul\":1808:1814   */\n      dup2\n        /* \"#utility.yul\":1795:1815   */\n      calldataload\n        /* \"#utility.yul\":1786:1815   */\n      swap1\n      pop\n        /* \"#utility.yul\":1824:1857   */\n      tag_473\n        /* \"#utility.yul\":1851:1856   */\n      dup2\n        /* \"#utility.yul\":1824:1857   */\n      tag_376\n      jump\t// in\n    tag_473:\n        /* \"#utility.yul\":1724:1863   */\n      swap3\n      swap2\n      pop\n      pop\n      jump\t// out\n        /* \"#utility.yul\":1869:2198   */\n    tag_29:\n        /* \"#utility.yul\":1928:1934   */\n      0x00\n        /* \"#utility.yul\":1977:1979   */\n      0x20\n        /* \"#utility.yul\":1965:1974   */\n      dup3\n        /* \"#utility.yul\":1956:1963   */\n      dup5\n        /* \"#utility.yul\":1952:1975   */\n      sub\n        /* \"#utility.yul\":1948:1980   */\n      slt\n        /* \"#utility.yul\":1945:2064   */\n      iszero\n      tag_475\n      jumpi\n        /* \"#utility.yul\":1983:2062   */\n      tag_476\n      tag_373\n      jump\t// in\n    tag_476:\n        /* \"#utility.yul\":1945:2064   */\n    tag_475:\n        /* \"#utility.yul\":2103:2104   */\n      0x00\n        /* \"#utility.yul\":2128:2181   */\n      tag_477\n        /* \"#utility.yul\":2173:2180   */\n      dup5\n        /* \"#utility.yul\":2164:2170   */\n      dup3\n        /* \"#utility.yul\":2153:2162   */\n      dup6\n        /* \"#utility.yul\":2149:2171   */\n      add\n        /* \"#utility.yul\":2128:2181   */\n      tag_377\n      jump\t// in\n    tag_477:\n        /* \"#utility.yul\":2118:2181   */\n      swap2\n      pop\n        /* \"#utility.yul\":2074:2191   */\n      pop\n        /* \"#utility.yul\":1869:2198   */\n      swap3\n      swap2\n      pop\n      pop\n      jump\t// out\n        /* \"#utility.yul\":2204:2321   */\n    tag_378:\n        /* \"#utility.yul\":2313:2314   */\n      0x00\n        /* \"#utility.yul\":2310:2311   */\n      dup1\n        /* \"#utility.yul\":2303:2315   */\n      revert\n        /* \"#utility.yul\":2327:2444   */\n    tag_379:\n        /* \"#utility.yul\":2436:2437   */\n      0x00\n        /* \"#utility.yul\":2433:2434   */\n      dup1\n        /* \"#utility.yul\":2426:2438   */\n      revert\n        /* \"#utility.yul\":2450:2552   */\n    tag_380:\n        /* \"#utility.yul\":2491:2497   */\n      0x00\n        /* \"#utility.yul\":2542:2544   */\n      0x1f\n        /* \"#utility.yul\":2538:2545   */\n      not\n        /* \"#utility.yul\":2533:2535   */\n      0x1f\n        /* \"#utility.yul\":2526:2531   */\n      dup4\n        /* \"#utility.yul\":2522:2536   */\n      add\n        /* \"#utility.yul\":2518:2546   */\n      and\n        /* \"#utility.yul\":2508:2546   */\n      swap1\n      pop\n        /* \"#utility.yul\":2450:2552   */\n      swap2\n      swap1\n      pop\n      jump\t// out\n        /* \"#utility.yul\":2558:2738   */\n    tag_277:\n        /* \"#utility.yul\":2606:2683   */\n      0x4e487b7100000000000000000000000000000000000000000000000000000000\n        /* \"#utility.yul\":2603:2604   */\n      0x00\n        /* \"#utility.yul\":2596:2684   */\n      mstore\n        /* \"#utility.yul\":2703:2707   */\n      0x41\n        /* \"#utility.yul\":2700:2701   */\n      0x04\n        /* \"#utility.yul\":2693:2708   */\n      mstore\n        /* \"#utility.yul\":2727:2731   */\n      0x24\n        /* \"#utility.yul\":2724:2725   */\n      0x00\n        /* \"#utility.yul\":2717:2732   */\n      revert\n        /* \"#utility.yul\":2744:3025   */\n    tag_381:\n        /* \"#utility.yul\":2827:2854   */\n      tag_483\n        /* \"#utility.yul\":2849:2853   */\n      dup3\n        /* \"#utility.yul\":2827:2854   */\n      tag_380\n      jump\t// in\n    tag_483:\n        /* \"#utility.yul\":2819:2825   */\n      dup2\n        /* \"#utility.yul\":2815:2855   */\n      add\n        /* \"#utility.yul\":2957:2963   */\n      dup2\n        /* \"#utility.yul\":2945:2955   */\n      dup2\n        /* \"#utility.yul\":2942:2964   */\n      lt\n        /* \"#utility.yul\":2921:2939   */\n      0xffffffffffffffff\n        /* \"#utility.yul\":2909:2919   */\n      dup3\n        /* \"#utility.yul\":2906:2940   */\n      gt\n        /* \"#utility.yul\":2903:2965   */\n      or\n        /* \"#utility.yul\":2900:2988   */\n      iszero\n      tag_484\n      jumpi\n        /* \"#utility.yul\":2968:2986   */\n      tag_485\n      tag_277\n      jump\t// in\n    tag_485:\n        /* \"#utility.yul\":2900:2988   */\n    tag_484:\n        /* \"#utility.yul\":3008:3018   */\n      dup1\n        /* \"#utility.yul\":3004:3006   */\n      0x40\n        /* \"#utility.yul\":2997:3019   */\n      mstore\n        /* \"#utility.yul\":2787:3025   */\n      pop\n        /* \"#utility.yul\":2744:3025   */\n      pop\n      pop\n      jump\t// out\n        /* \"#utility.yul\":3031:3160   */\n    tag_382:\n        /* \"#utility.yul\":3065:3071   */\n      0x00\n        /* \"#utility.yul\":3092:3112   */\n      tag_487\n      tag_372\n      jump\t// in\n    tag_487:\n        /* \"#utility.yul\":3082:3112   */\n      swap1\n      pop\n        /* \"#utility.yul\":3121:3154   */\n      tag_488\n        /* \"#utility.yul\":3149:3153   */\n      dup3\n        /* \"#utility.yul\":3141:3147   */\n      dup3\n        /* \"#utility.yul\":3121:3154   */\n      tag_381\n      jump\t// in\n    tag_488:\n        /* \"#utility.yul\":3031:3160   */\n      swap2\n      swap1\n      pop\n      jump\t// out\n        /* \"#utility.yul\":3166:3473   */\n    tag_383:\n        /* \"#utility.yul\":3227:3231   */\n      0x00\n        /* \"#utility.yul\":3317:3335   */\n      0xffffffffffffffff\n        /* \"#utility.yul\":3309:3315   */\n      dup3\n        /* \"#utility.yul\":3306:3336   */\n      gt\n        /* \"#utility.yul\":3303:3359   */\n      iszero\n      tag_490\n      jumpi\n        /* \"#utility.yul\":3339:3357   */\n      tag_491\n      tag_277\n      jump\t// in\n    tag_491:\n        /* \"#utility.yul\":3303:3359   */\n    tag_490:\n        /* \"#utility.yul\":3377:3406   */\n      tag_492\n        /* \"#utility.yul\":3399:3405   */\n      dup3\n        /* \"#utility.yul\":3377:3406   */\n      tag_380\n      jump\t// in\n    tag_492:\n        /* \"#utility.yul\":3369:3406   */\n      swap1\n      pop\n        /* \"#utility.yul\":3461:3465   */\n      0x20\n        /* \"#utility.yul\":3455:3459   */\n      dup2\n        /* \"#utility.yul\":3451:3466   */\n      add\n        /* \"#utility.yul\":3443:3466   */\n      swap1\n      pop\n        /* \"#utility.yul\":3166:3473   */\n      swap2\n      swap1\n      pop\n      jump\t// out\n        /* \"#utility.yul\":3479:3627   */\n    tag_384:\n        /* \"#utility.yul\":3577:3583   */\n      dup3\n        /* \"#utility.yul\":3572:3575   */\n      dup2\n        /* \"#utility.yul\":3567:3570   */\n      dup4\n        /* \"#utility.yul\":3554:3584   */\n      calldatacopy\n        /* \"#utility.yul\":3618:3619   */\n      0x00\n        /* \"#utility.yul\":3609:3615   */\n      dup4\n        /* \"#utility.yul\":3604:3607   */\n      dup4\n        /* \"#utility.yul\":3600:3616   */\n      add\n        /* \"#utility.yul\":3593:3620   */\n      mstore\n        /* \"#utility.yul\":3479:3627   */\n      pop\n      pop\n      pop\n      jump\t// out\n        /* \"#utility.yul\":3633:4056   */\n    tag_385:\n        /* \"#utility.yul\":3710:3715   */\n      0x00\n        /* \"#utility.yul\":3735:3800   */\n      tag_495\n        /* \"#utility.yul\":3751:3799   */\n      tag_496\n        /* \"#utility.yul\":3792:3798   */\n      dup5\n        /* \"#utility.yul\":3751:3799   */\n      tag_383\n      jump\t// in\n    tag_496:\n        /* \"#utility.yul\":3735:3800   */\n      tag_382\n      jump\t// in\n    tag_495:\n        /* \"#utility.yul\":3726:3800   */\n      swap1\n      pop\n        /* \"#utility.yul\":3823:3829   */\n      dup3\n        /* \"#utility.yul\":3816:3821   */\n      dup2\n        /* \"#utility.yul\":3809:3830   */\n      mstore\n        /* \"#utility.yul\":3861:3865   */\n      0x20\n        /* \"#utility.yul\":3854:3859   */\n      dup2\n        /* \"#utility.yul\":3850:3866   */\n      add\n        /* \"#utility.yul\":3899:3902   */\n      dup5\n        /* \"#utility.yul\":3890:3896   */\n      dup5\n        /* \"#utility.yul\":3885:3888   */\n      dup5\n        /* \"#utility.yul\":3881:3897   */\n      add\n        /* \"#utility.yul\":3878:3903   */\n      gt\n        /* \"#utility.yul\":3875:3987   */\n      iszero\n      tag_497\n      jumpi\n        /* \"#utility.yul\":3906:3985   */\n      tag_498\n      tag_379\n      jump\t// in\n    tag_498:\n        /* \"#utility.yul\":3875:3987   */\n    tag_497:\n        /* \"#utility.yul\":3996:4050   */\n      tag_499\n        /* \"#utility.yul\":4043:4049   */\n      dup5\n        /* \"#utility.yul\":4038:4041   */\n      dup3\n        /* \"#utility.yul\":4033:4036   */\n      dup6\n        /* \"#utility.yul\":3996:4050   */\n      tag_384\n      jump\t// in\n    tag_499:\n        /* \"#utility.yul\":3716:4056   */\n      pop\n        /* \"#utility.yul\":3633:4056   */\n      swap4\n      swap3\n      pop\n      pop\n      pop\n      jump\t// out\n        /* \"#utility.yul\":4075:4413   */\n    tag_386:\n        /* \"#utility.yul\":4130:4135   */\n      0x00\n        /* \"#utility.yul\":4179:4182   */\n      dup3\n        /* \"#utility.yul\":4172:4176   */\n      0x1f\n        /* \"#utility.yul\":4164:4170   */\n      dup4\n        /* \"#utility.yul\":4160:4177   */\n      add\n        /* \"#utility.yul\":4156:4183   */\n      slt\n        /* \"#utility.yul\":4146:4268   */\n      tag_501\n      jumpi\n        /* \"#utility.yul\":4187:4266   */\n      tag_502\n      tag_378\n      jump\t// in\n    tag_502:\n        /* \"#utility.yul\":4146:4268   */\n    tag_501:\n        /* \"#utility.yul\":4304:4310   */\n      dup2\n        /* \"#utility.yul\":4291:4311   */\n      calldataload\n        /* \"#utility.yul\":4329:4407   */\n      tag_503\n        /* \"#utility.yul\":4403:4406   */\n      dup5\n        /* \"#utility.yul\":4395:4401   */\n      dup3\n        /* \"#utility.yul\":4388:4392   */\n      0x20\n        /* \"#utility.yul\":4380:4386   */\n      dup7\n        /* \"#utility.yul\":4376:4393   */\n      add\n        /* \"#utility.yul\":4329:4407   */\n      tag_385\n      jump\t// in\n    tag_503:\n        /* \"#utility.yul\":4320:4407   */\n      swap2\n      pop\n        /* \"#utility.yul\":4136:4413   */\n      pop\n        /* \"#utility.yul\":4075:4413   */\n      swap3\n      swap2\n      pop\n      pop\n      jump\t// out\n        /* \"#utility.yul\":4419:5071   */\n    tag_33:\n        /* \"#utility.yul\":4496:4502   */\n      0x00\n        /* \"#utility.yul\":4504:4510   */\n      dup1\n        /* \"#utility.yul\":4553:4555   */\n      0x40\n        /* \"#utility.yul\":4541:4550   */\n      dup4\n        /* \"#utility.yul\":4532:4539   */\n      dup6\n        /* \"#utility.yul\":4528:4551   */\n      sub\n        /* \"#utility.yul\":4524:4556   */\n      slt\n        /* \"#utility.yul\":4521:4640   */\n      iszero\n      tag_505\n      jumpi\n        /* \"#utility.yul\":4559:4638   */\n      tag_506\n      tag_373\n      jump\t// in\n    tag_506:\n        /* \"#utility.yul\":4521:4640   */\n    tag_505:\n        /* \"#utility.yul\":4679:4680   */\n      0x00\n        /* \"#utility.yul\":4704:4757   */\n      tag_507\n        /* \"#utility.yul\":4749:4756   */\n      dup6\n        /* \"#utility.yul\":4740:4746   */\n      dup3\n        /* \"#utility.yul\":4729:4738   */\n      dup7\n        /* \"#utility.yul\":4725:4747   */\n      add\n        /* \"#utility.yul\":4704:4757   */\n      tag_377\n      jump\t// in\n    tag_507:\n        /* \"#utility.yul\":4694:4757   */\n      swap3\n      pop\n        /* \"#utility.yul\":4650:4767   */\n      pop\n        /* \"#utility.yul\":4834:4836   */\n      0x20\n        /* \"#utility.yul\":4823:4832   */\n      dup4\n        /* \"#utility.yul\":4819:4837   */\n      add\n        /* \"#utility.yul\":4806:4838   */\n      calldataload\n        /* \"#utility.yul\":4865:4883   */\n      0xffffffffffffffff\n        /* \"#utility.yul\":4857:4863   */\n      dup2\n        /* \"#utility.yul\":4854:4884   */\n      gt\n        /* \"#utility.yul\":4851:4968   */\n      iszero\n      tag_508\n      jumpi\n        /* \"#utility.yul\":4887:4966   */\n      tag_509\n      tag_374\n      jump\t// in\n    tag_509:\n        /* \"#utility.yul\":4851:4968   */\n    tag_508:\n        /* \"#utility.yul\":4992:5054   */\n      tag_510\n        /* \"#utility.yul\":5046:5053   */\n      dup6\n        /* \"#utility.yul\":5037:5043   */\n      dup3\n        /* \"#utility.yul\":5026:5035   */\n      dup7\n        /* \"#utility.yul\":5022:5044   */\n      add\n        /* \"#utility.yul\":4992:5054   */\n      tag_386\n      jump\t// in\n    tag_510:\n        /* \"#utility.yul\":4982:5054   */\n      swap2\n      pop\n        /* \"#utility.yul\":4777:5064   */\n      pop\n        /* \"#utility.yul\":4419:5071   */\n      swap3\n      pop\n      swap3\n      swap1\n      pop\n      jump\t// out\n        /* \"#utility.yul\":5077:5154   */\n    tag_387:\n        /* \"#utility.yul\":5114:5121   */\n      0x00\n        /* \"#utility.yul\":5143:5148   */\n      dup2\n        /* \"#utility.yul\":5132:5148   */\n      swap1\n      pop\n        /* \"#utility.yul\":5077:5154   */\n      swap2\n      swap1\n      pop\n      jump\t// out\n        /* \"#utility.yul\":5160:5278   */\n    tag_388:\n        /* \"#utility.yul\":5247:5271   */\n      tag_513\n        /* \"#utility.yul\":5265:5270   */\n      dup2\n        /* \"#utility.yul\":5247:5271   */\n      tag_387\n      jump\t// in\n    tag_513:\n        /* \"#utility.yul\":5242:5245   */\n      dup3\n        /* \"#utility.yul\":5235:5272   */\n      mstore\n        /* \"#utility.yul\":5160:5278   */\n      pop\n      pop\n      jump\t// out\n        /* \"#utility.yul\":5284:5506   */\n    tag_39:\n        /* \"#utility.yul\":5377:5381   */\n      0x00\n        /* \"#utility.yul\":5415:5417   */\n      0x20\n        /* \"#utility.yul\":5404:5413   */\n      dup3\n        /* \"#utility.yul\":5400:5418   */\n      add\n        /* \"#utility.yul\":5392:5418   */\n      swap1\n      pop\n        /* \"#utility.yul\":5428:5499   */\n      tag_515\n        /* \"#utility.yul\":5496:5497   */\n      0x00\n        /* \"#utility.yul\":5485:5494   */\n      dup4\n        /* \"#utility.yul\":5481:5498   */\n      add\n        /* \"#utility.yul\":5472:5478   */\n      dup5\n        /* \"#utility.yul\":5428:5499   */\n      tag_388\n      jump\t// in\n    tag_515:\n        /* \"#utility.yul\":5284:5506   */\n      swap3\n      swap2\n      pop\n      pop\n      jump\t// out\n        /* \"#utility.yul\":5512:5630   */\n    tag_389:\n        /* \"#utility.yul\":5599:5623   */\n      tag_517\n        /* \"#utility.yul\":5617:5622   */\n      dup2\n        /* \"#utility.yul\":5599:5623   */\n      tag_375\n      jump\t// in\n    tag_517:\n        /* \"#utility.yul\":5594:5597   */\n      dup3\n        /* \"#utility.yul\":5587:5624   */\n      mstore\n        /* \"#utility.yul\":5512:5630   */\n      pop\n      pop\n      jump\t// out\n        /* \"#utility.yul\":5636:5858   */\n    tag_51:\n        /* \"#utility.yul\":5729:5733   */\n      0x00\n        /* \"#utility.yul\":5767:5769   */\n      0x20\n        /* \"#utility.yul\":5756:5765   */\n      dup3\n        /* \"#utility.yul\":5752:5770   */\n      add\n        /* \"#utility.yul\":5744:5770   */\n      swap1\n      pop\n        /* \"#utility.yul\":5780:5851   */\n      tag_519\n        /* \"#utility.yul\":5848:5849   */\n      0x00\n        /* \"#utility.yul\":5837:5846   */\n      dup4\n        /* \"#utility.yul\":5833:5850   */\n      add\n        /* \"#utility.yul\":5824:5830   */\n      dup5\n        /* \"#utility.yul\":5780:5851   */\n      tag_389\n      jump\t// in\n    tag_519:\n        /* \"#utility.yul\":5636:5858   */\n      swap3\n      swap2\n      pop\n      pop\n      jump\t// out\n        /* \"#utility.yul\":5864:6027   */\n    tag_390:\n        /* \"#utility.yul\":5951:5960   */\n      0x00\n        /* \"#utility.yul\":5984:6021   */\n      tag_521\n        /* \"#utility.yul\":6015:6020   */\n      dup3\n        /* \"#utility.yul\":5984:6021   */\n      tag_369\n      jump\t// in\n    tag_521:\n        /* \"#utility.yul\":5971:6021   */\n      swap1\n      pop\n        /* \"#utility.yul\":5864:6027   */\n      swap2\n      swap1\n      pop\n      jump\t// out\n        /* \"#utility.yul\":6033:6238   */\n    tag_391:\n        /* \"#utility.yul\":6157:6231   */\n      tag_523\n        /* \"#utility.yul\":6225:6230   */\n      dup2\n        /* \"#utility.yul\":6157:6231   */\n      tag_390\n      jump\t// in\n    tag_523:\n        /* \"#utility.yul\":6152:6155   */\n      dup3\n        /* \"#utility.yul\":6145:6232   */\n      mstore\n        /* \"#utility.yul\":6033:6238   */\n      pop\n      pop\n      jump\t// out\n        /* \"#utility.yul\":6244:6540   */\n    tag_56:\n        /* \"#utility.yul\":6374:6378   */\n      0x00\n        /* \"#utility.yul\":6412:6414   */\n      0x20\n        /* \"#utility.yul\":6401:6410   */\n      dup3\n        /* \"#utility.yul\":6397:6415   */\n      add\n        /* \"#utility.yul\":6389:6415   */\n      swap1\n      pop\n        /* \"#utility.yul\":6425:6533   */\n      tag_525\n        /* \"#utility.yul\":6530:6531   */\n      0x00\n        /* \"#utility.yul\":6519:6528   */\n      dup4\n        /* \"#utility.yul\":6515:6532   */\n      add\n        /* \"#utility.yul\":6506:6512   */\n      dup5\n        /* \"#utility.yul\":6425:6533   */\n      tag_391\n      jump\t// in\n    tag_525:\n        /* \"#utility.yul\":6244:6540   */\n      swap3\n      swap2\n      pop\n      pop\n      jump\t// out\n        /* \"#utility.yul\":6546:6645   */\n    tag_392:\n        /* \"#utility.yul\":6598:6604   */\n      0x00\n        /* \"#utility.yul\":6632:6637   */\n      dup2\n        /* \"#utility.yul\":6626:6638   */\n      mload\n        /* \"#utility.yul\":6616:6638   */\n      swap1\n      pop\n        /* \"#utility.yul\":6546:6645   */\n      swap2\n      swap1\n      pop\n      jump\t// out\n        /* \"#utility.yul\":6651:6820   */\n    tag_393:\n        /* \"#utility.yul\":6735:6746   */\n      0x00\n        /* \"#utility.yul\":6769:6775   */\n      dup3\n        /* \"#utility.yul\":6764:6767   */\n      dup3\n        /* \"#utility.yul\":6757:6776   */\n      mstore\n        /* \"#utility.yul\":6809:6813   */\n      0x20\n        /* \"#utility.yul\":6804:6807   */\n      dup3\n        /* \"#utility.yul\":6800:6814   */\n      add\n        /* \"#utility.yul\":6785:6814   */\n      swap1\n      pop\n        /* \"#utility.yul\":6651:6820   */\n      swap3\n      swap2\n      pop\n      pop\n      jump\t// out\n        /* \"#utility.yul\":6826:6965   */\n    tag_394:\n        /* \"#utility.yul\":6915:6921   */\n      dup3\n        /* \"#utility.yul\":6910:6913   */\n      dup2\n        /* \"#utility.yul\":6905:6908   */\n      dup4\n        /* \"#utility.yul\":6899:6922   */\n      mcopy\n        /* \"#utility.yul\":6956:6957   */\n      0x00\n        /* \"#utility.yul\":6947:6953   */\n      dup4\n        /* \"#utility.yul\":6942:6945   */\n      dup4\n        /* \"#utility.yul\":6938:6954   */\n      add\n        /* \"#utility.yul\":6931:6958   */\n      mstore\n        /* \"#utility.yul\":6826:6965   */\n      pop\n      pop\n      pop\n      jump\t// out\n        /* \"#utility.yul\":6971:7348   */\n    tag_395:\n        /* \"#utility.yul\":7059:7062   */\n      0x00\n        /* \"#utility.yul\":7087:7126   */\n      tag_530\n        /* \"#utility.yul\":7120:7125   */\n      dup3\n        /* \"#utility.yul\":7087:7126   */\n      tag_392\n      jump\t// in\n    tag_530:\n        /* \"#utility.yul\":7142:7213   */\n      tag_531\n        /* \"#utility.yul\":7206:7212   */\n      dup2\n        /* \"#utility.yul\":7201:7204   */\n      dup6\n        /* \"#utility.yul\":7142:7213   */\n      tag_393\n      jump\t// in\n    tag_531:\n        /* \"#utility.yul\":7135:7213   */\n      swap4\n      pop\n        /* \"#utility.yul\":7222:7287   */\n      tag_532\n        /* \"#utility.yul\":7280:7286   */\n      dup2\n        /* \"#utility.yul\":7275:7278   */\n      dup6\n        /* \"#utility.yul\":7268:7272   */\n      0x20\n        /* \"#utility.yul\":7261:7266   */\n      dup7\n        /* \"#utility.yul\":7257:7273   */\n      add\n        /* \"#utility.yul\":7222:7287   */\n      tag_394\n      jump\t// in\n    tag_532:\n        /* \"#utility.yul\":7312:7341   */\n      tag_533\n        /* \"#utility.yul\":7334:7340   */\n      dup2\n        /* \"#utility.yul\":7312:7341   */\n      tag_380\n      jump\t// in\n    tag_533:\n        /* \"#utility.yul\":7307:7310   */\n      dup5\n        /* \"#utility.yul\":7303:7342   */\n      add\n        /* \"#utility.yul\":7296:7342   */\n      swap2\n      pop\n        /* \"#utility.yul\":7063:7348   */\n      pop\n        /* \"#utility.yul\":6971:7348   */\n      swap3\n      swap2\n      pop\n      pop\n      jump\t// out\n        /* \"#utility.yul\":7354:7667   */\n    tag_61:\n        /* \"#utility.yul\":7467:7471   */\n      0x00\n        /* \"#utility.yul\":7505:7507   */\n      0x20\n        /* \"#utility.yul\":7494:7503   */\n      dup3\n        /* \"#utility.yul\":7490:7508   */\n      add\n        /* \"#utility.yul\":7482:7508   */\n      swap1\n      pop\n        /* \"#utility.yul\":7554:7563   */\n      dup2\n        /* \"#utility.yul\":7548:7552   */\n      dup2\n        /* \"#utility.yul\":7544:7564   */\n      sub\n        /* \"#utility.yul\":7540:7541   */\n      0x00\n        /* \"#utility.yul\":7529:7538   */\n      dup4\n        /* \"#utility.yul\":7525:7542   */\n      add\n        /* \"#utility.yul\":7518:7565   */\n      mstore\n        /* \"#utility.yul\":7582:7660   */\n      tag_535\n        /* \"#utility.yul\":7655:7659   */\n      dup2\n        /* \"#utility.yul\":7646:7652   */\n      dup5\n        /* \"#utility.yul\":7582:7660   */\n      tag_395\n      jump\t// in\n    tag_535:\n        /* \"#utility.yul\":7574:7660   */\n      swap1\n      pop\n        /* \"#utility.yul\":7354:7667   */\n      swap3\n      swap2\n      pop\n      pop\n      jump\t// out\n        /* \"#utility.yul\":7673:7750   */\n    tag_396:\n        /* \"#utility.yul\":7710:7717   */\n      0x00\n        /* \"#utility.yul\":7739:7744   */\n      dup2\n        /* \"#utility.yul\":7728:7744   */\n      swap1\n      pop\n        /* \"#utility.yul\":7673:7750   */\n      swap2\n      swap1\n      pop\n      jump\t// out\n        /* \"#utility.yul\":7756:7878   */\n    tag_397:\n        /* \"#utility.yul\":7829:7853   */\n      tag_538\n        /* \"#utility.yul\":7847:7852   */\n      dup2\n        /* \"#utility.yul\":7829:7853   */\n      tag_396\n      jump\t// in\n    tag_538:\n        /* \"#utility.yul\":7822:7827   */\n      dup2\n        /* \"#utility.yul\":7819:7854   */\n      eq\n        /* \"#utility.yul\":7809:7872   */\n      tag_539\n      jumpi\n        /* \"#utility.yul\":7868:7869   */\n      0x00\n        /* \"#utility.yul\":7865:7866   */\n      dup1\n        /* \"#utility.yul\":7858:7870   */\n      revert\n        /* \"#utility.yul\":7809:7872   */\n    tag_539:\n        /* \"#utility.yul\":7756:7878   */\n      pop\n      jump\t// out\n        /* \"#utility.yul\":7884:8023   */\n    tag_398:\n        /* \"#utility.yul\":7930:7935   */\n      0x00\n        /* \"#utility.yul\":7968:7974   */\n      dup2\n        /* \"#utility.yul\":7955:7975   */\n      calldataload\n        /* \"#utility.yul\":7946:7975   */\n      swap1\n      pop\n        /* \"#utility.yul\":7984:8017   */\n      tag_541\n        /* \"#utility.yul\":8011:8016   */\n      dup2\n        /* \"#utility.yul\":7984:8017   */\n      tag_397\n      jump\t// in\n    tag_541:\n        /* \"#utility.yul\":7884:8023   */\n      swap3\n      swap2\n      pop\n      pop\n      jump\t// out\n        /* \"#utility.yul\":8029:8358   */\n    tag_65:\n        /* \"#utility.yul\":8088:8094   */\n      0x00\n        /* \"#utility.yul\":8137:8139   */\n      0x20\n        /* \"#utility.yul\":8125:8134   */\n      dup3\n        /* \"#utility.yul\":8116:8123   */\n      dup5\n        /* \"#utility.yul\":8112:8135   */\n      sub\n        /* \"#utility.yul\":8108:8140   */\n      slt\n        /* \"#utility.yul\":8105:8224   */\n      iszero\n      tag_543\n      jumpi\n        /* \"#utility.yul\":8143:8222   */\n      tag_544\n      tag_373\n      jump\t// in\n    tag_544:\n        /* \"#utility.yul\":8105:8224   */\n    tag_543:\n        /* \"#utility.yul\":8263:8264   */\n      0x00\n        /* \"#utility.yul\":8288:8341   */\n      tag_545\n        /* \"#utility.yul\":8333:8340   */\n      dup5\n        /* \"#utility.yul\":8324:8330   */\n      dup3\n        /* \"#utility.yul\":8313:8322   */\n      dup6\n        /* \"#utility.yul\":8309:8331   */\n      add\n        /* \"#utility.yul\":8288:8341   */\n      tag_398\n      jump\t// in\n    tag_545:\n        /* \"#utility.yul\":8278:8341   */\n      swap2\n      pop\n        /* \"#utility.yul\":8234:8351   */\n      pop\n        /* \"#utility.yul\":8029:8358   */\n      swap3\n      swap2\n      pop\n      pop\n      jump\t// out\n        /* \"#utility.yul\":8364:8532   */\n    tag_399:\n        /* \"#utility.yul\":8456:8465   */\n      0x00\n        /* \"#utility.yul\":8489:8526   */\n      tag_547\n        /* \"#utility.yul\":8520:8525   */\n      dup3\n        /* \"#utility.yul\":8489:8526   */\n      tag_369\n      jump\t// in\n    tag_547:\n        /* \"#utility.yul\":8476:8526   */\n      swap1\n      pop\n        /* \"#utility.yul\":8364:8532   */\n      swap2\n      swap1\n      pop\n      jump\t// out\n        /* \"#utility.yul\":8538:8753   */\n    tag_400:\n        /* \"#utility.yul\":8667:8746   */\n      tag_549\n        /* \"#utility.yul\":8740:8745   */\n      dup2\n        /* \"#utility.yul\":8667:8746   */\n      tag_399\n      jump\t// in\n    tag_549:\n        /* \"#utility.yul\":8662:8665   */\n      dup3\n        /* \"#utility.yul\":8655:8747   */\n      mstore\n        /* \"#utility.yul\":8538:8753   */\n      pop\n      pop\n      jump\t// out\n        /* \"#utility.yul\":8759:9065   */\n    tag_83:\n        /* \"#utility.yul\":8894:8898   */\n      0x00\n        /* \"#utility.yul\":8932:8934   */\n      0x20\n        /* \"#utility.yul\":8921:8930   */\n      dup3\n        /* \"#utility.yul\":8917:8935   */\n      add\n        /* \"#utility.yul\":8909:8935   */\n      swap1\n      pop\n        /* \"#utility.yul\":8945:9058   */\n      tag_551\n        /* \"#utility.yul\":9055:9056   */\n      0x00\n        /* \"#utility.yul\":9044:9053   */\n      dup4\n        /* \"#utility.yul\":9040:9057   */\n      add\n        /* \"#utility.yul\":9031:9037   */\n      dup5\n        /* \"#utility.yul\":8945:9058   */\n      tag_400\n      jump\t// in\n    tag_551:\n        /* \"#utility.yul\":8759:9065   */\n      swap3\n      swap2\n      pop\n      pop\n      jump\t// out\n        /* \"#utility.yul\":9071:9234   */\n    tag_401:\n        /* \"#utility.yul\":9158:9167   */\n      0x00\n        /* \"#utility.yul\":9191:9228   */\n      tag_553\n        /* \"#utility.yul\":9222:9227   */\n      dup3\n        /* \"#utility.yul\":9191:9228   */\n      tag_369\n      jump\t// in\n    tag_553:\n        /* \"#utility.yul\":9178:9228   */\n      swap1\n      pop\n        /* \"#utility.yul\":9071:9234   */\n      swap2\n      swap1\n      pop\n      jump\t// out\n        /* \"#utility.yul\":9240:9445   */\n    tag_402:\n        /* \"#utility.yul\":9364:9438   */\n      tag_555\n        /* \"#utility.yul\":9432:9437   */\n      dup2\n        /* \"#utility.yul\":9364:9438   */\n      tag_401\n      jump\t// in\n    tag_555:\n        /* \"#utility.yul\":9359:9362   */\n      dup3\n        /* \"#utility.yul\":9352:9439   */\n      mstore\n        /* \"#utility.yul\":9240:9445   */\n      pop\n      pop\n      jump\t// out\n        /* \"#utility.yul\":9451:9747   */\n    tag_92:\n        /* \"#utility.yul\":9581:9585   */\n      0x00\n        /* \"#utility.yul\":9619:9621   */\n      0x20\n        /* \"#utility.yul\":9608:9617   */\n      dup3\n        /* \"#utility.yul\":9604:9622   */\n      add\n        /* \"#utility.yul\":9596:9622   */\n      swap1\n      pop\n        /* \"#utility.yul\":9632:9740   */\n      tag_557\n        /* \"#utility.yul\":9737:9738   */\n      0x00\n        /* \"#utility.yul\":9726:9735   */\n      dup4\n        /* \"#utility.yul\":9722:9739   */\n      add\n        /* \"#utility.yul\":9713:9719   */\n      dup5\n        /* \"#utility.yul\":9632:9740   */\n      tag_402\n      jump\t// in\n    tag_557:\n        /* \"#utility.yul\":9451:9747   */\n      swap3\n      swap2\n      pop\n      pop\n      jump\t// out\n        /* \"#utility.yul\":9753:9871   */\n    tag_403:\n        /* \"#utility.yul\":9840:9864   */\n      tag_559\n        /* \"#utility.yul\":9858:9863   */\n      dup2\n        /* \"#utility.yul\":9840:9864   */\n      tag_396\n      jump\t// in\n    tag_559:\n        /* \"#utility.yul\":9835:9838   */\n      dup3\n        /* \"#utility.yul\":9828:9865   */\n      mstore\n        /* \"#utility.yul\":9753:9871   */\n      pop\n      pop\n      jump\t// out\n        /* \"#utility.yul\":9877:10099   */\n    tag_122:\n        /* \"#utility.yul\":9970:9974   */\n      0x00\n        /* \"#utility.yul\":10008:10010   */\n      0x20\n        /* \"#utility.yul\":9997:10006   */\n      dup3\n        /* \"#utility.yul\":9993:10011   */\n      add\n        /* \"#utility.yul\":9985:10011   */\n      swap1\n      pop\n        /* \"#utility.yul\":10021:10092   */\n      tag_561\n        /* \"#utility.yul\":10089:10090   */\n      0x00\n        /* \"#utility.yul\":10078:10087   */\n      dup4\n        /* \"#utility.yul\":10074:10091   */\n      add\n        /* \"#utility.yul\":10065:10071   */\n      dup5\n        /* \"#utility.yul\":10021:10092   */\n      tag_403\n      jump\t// in\n    tag_561:\n        /* \"#utility.yul\":9877:10099   */\n      swap3\n      swap2\n      pop\n      pop\n      jump\t// out\n        /* \"#utility.yul\":10105:10413   */\n    tag_404:\n        /* \"#utility.yul\":10167:10171   */\n      0x00\n        /* \"#utility.yul\":10257:10275   */\n      0xffffffffffffffff\n        /* \"#utility.yul\":10249:10255   */\n      dup3\n        /* \"#utility.yul\":10246:10276   */\n      gt\n        /* \"#utility.yul\":10243:10299   */\n      iszero\n      tag_563\n      jumpi\n        /* \"#utility.yul\":10279:10297   */\n      tag_564\n      tag_277\n      jump\t// in\n    tag_564:\n        /* \"#utility.yul\":10243:10299   */\n    tag_563:\n        /* \"#utility.yul\":10317:10346   */\n      tag_565\n        /* \"#utility.yul\":10339:10345   */\n      dup3\n        /* \"#utility.yul\":10317:10346   */\n      tag_380\n      jump\t// in\n    tag_565:\n        /* \"#utility.yul\":10309:10346   */\n      swap1\n      pop\n        /* \"#utility.yul\":10401:10405   */\n      0x20\n        /* \"#utility.yul\":10395:10399   */\n      dup2\n        /* \"#utility.yul\":10391:10406   */\n      add\n        /* \"#utility.yul\":10383:10406   */\n      swap1\n      pop\n        /* \"#utility.yul\":10105:10413   */\n      swap2\n      swap1\n      pop\n      jump\t// out\n        /* \"#utility.yul\":10419:10853   */\n    tag_405:\n        /* \"#utility.yul\":10508:10513   */\n      0x00\n        /* \"#utility.yul\":10533:10599   */\n      tag_567\n        /* \"#utility.yul\":10549:10598   */\n      tag_568\n        /* \"#utility.yul\":10591:10597   */\n      dup5\n        /* \"#utility.yul\":10549:10598   */\n      tag_404\n      jump\t// in\n    tag_568:\n        /* \"#utility.yul\":10533:10599   */\n      tag_382\n      jump\t// in\n    tag_567:\n        /* \"#utility.yul\":10524:10599   */\n      swap1\n      pop\n        /* \"#utility.yul\":10622:10628   */\n      dup3\n        /* \"#utility.yul\":10615:10620   */\n      dup2\n        /* \"#utility.yul\":10608:10629   */\n      mstore\n        /* \"#utility.yul\":10660:10664   */\n      0x20\n        /* \"#utility.yul\":10653:10658   */\n      dup2\n        /* \"#utility.yul\":10649:10665   */\n      add\n        /* \"#utility.yul\":10698:10701   */\n      dup5\n        /* \"#utility.yul\":10689:10695   */\n      dup5\n        /* \"#utility.yul\":10684:10687   */\n      dup5\n        /* \"#utility.yul\":10680:10696   */\n      add\n        /* \"#utility.yul\":10677:10702   */\n      gt\n        /* \"#utility.yul\":10674:10786   */\n      iszero\n      tag_569\n      jumpi\n        /* \"#utility.yul\":10705:10784   */\n      tag_570\n      tag_379\n      jump\t// in\n    tag_570:\n        /* \"#utility.yul\":10674:10786   */\n    tag_569:\n        /* \"#utility.yul\":10795:10847   */\n      tag_571\n        /* \"#utility.yul\":10840:10846   */\n      dup5\n        /* \"#utility.yul\":10835:10838   */\n      dup3\n        /* \"#utility.yul\":10830:10833   */\n      dup6\n        /* \"#utility.yul\":10795:10847   */\n      tag_394\n      jump\t// in\n    tag_571:\n        /* \"#utility.yul\":10514:10853   */\n      pop\n        /* \"#utility.yul\":10419:10853   */\n      swap4\n      swap3\n      pop\n      pop\n      pop\n      jump\t// out\n        /* \"#utility.yul\":10873:11228   */\n    tag_406:\n        /* \"#utility.yul\":10940:10945   */\n      0x00\n        /* \"#utility.yul\":10989:10992   */\n      dup3\n        /* \"#utility.yul\":10982:10986   */\n      0x1f\n        /* \"#utility.yul\":10974:10980   */\n      dup4\n        /* \"#utility.yul\":10970:10987   */\n      add\n        /* \"#utility.yul\":10966:10993   */\n      slt\n        /* \"#utility.yul\":10956:11078   */\n      tag_573\n      jumpi\n        /* \"#utility.yul\":10997:11076   */\n      tag_574\n      tag_378\n      jump\t// in\n    tag_574:\n        /* \"#utility.yul\":10956:11078   */\n    tag_573:\n        /* \"#utility.yul\":11107:11113   */\n      dup2\n        /* \"#utility.yul\":11101:11114   */\n      mload\n        /* \"#utility.yul\":11132:11222   */\n      tag_575\n        /* \"#utility.yul\":11218:11221   */\n      dup5\n        /* \"#utility.yul\":11210:11216   */\n      dup3\n        /* \"#utility.yul\":11203:11207   */\n      0x20\n        /* \"#utility.yul\":11195:11201   */\n      dup7\n        /* \"#utility.yul\":11191:11208   */\n      add\n        /* \"#utility.yul\":11132:11222   */\n      tag_405\n      jump\t// in\n    tag_575:\n        /* \"#utility.yul\":11123:11222   */\n      swap2\n      pop\n        /* \"#utility.yul\":10946:11228   */\n      pop\n        /* \"#utility.yul\":10873:11228   */\n      swap3\n      swap2\n      pop\n      pop\n      jump\t// out\n        /* \"#utility.yul\":11234:11377   */\n    tag_407:\n        /* \"#utility.yul\":11291:11296   */\n      0x00\n        /* \"#utility.yul\":11322:11328   */\n      dup2\n        /* \"#utility.yul\":11316:11329   */\n      mload\n        /* \"#utility.yul\":11307:11329   */\n      swap1\n      pop\n        /* \"#utility.yul\":11338:11371   */\n      tag_577\n        /* \"#utility.yul\":11365:11370   */\n      dup2\n        /* \"#utility.yul\":11338:11371   */\n      tag_376\n      jump\t// in\n    tag_577:\n        /* \"#utility.yul\":11234:11377   */\n      swap3\n      swap2\n      pop\n      pop\n      jump\t// out\n        /* \"#utility.yul\":11383:11526   */\n    tag_408:\n        /* \"#utility.yul\":11440:11445   */\n      0x00\n        /* \"#utility.yul\":11471:11477   */\n      dup2\n        /* \"#utility.yul\":11465:11478   */\n      mload\n        /* \"#utility.yul\":11456:11478   */\n      swap1\n      pop\n        /* \"#utility.yul\":11487:11520   */\n      tag_579\n        /* \"#utility.yul\":11514:11519   */\n      dup2\n        /* \"#utility.yul\":11487:11520   */\n      tag_397\n      jump\t// in\n    tag_579:\n        /* \"#utility.yul\":11383:11526   */\n      swap3\n      swap2\n      pop\n      pop\n      jump\t// out\n        /* \"#utility.yul\":11532:11650   */\n    tag_409:\n        /* \"#utility.yul\":11624:11625   */\n      0x02\n        /* \"#utility.yul\":11617:11622   */\n      dup2\n        /* \"#utility.yul\":11614:11626   */\n      lt\n        /* \"#utility.yul\":11604:11644   */\n      tag_581\n      jumpi\n        /* \"#utility.yul\":11640:11641   */\n      0x00\n        /* \"#utility.yul\":11637:11638   */\n      dup1\n        /* \"#utility.yul\":11630:11642   */\n      revert\n        /* \"#utility.yul\":11604:11644   */\n    tag_581:\n        /* \"#utility.yul\":11532:11650   */\n      pop\n      jump\t// out\n        /* \"#utility.yul\":11656:11837   */\n    tag_410:\n        /* \"#utility.yul\":11732:11737   */\n      0x00\n        /* \"#utility.yul\":11763:11769   */\n      dup2\n        /* \"#utility.yul\":11757:11770   */\n      mload\n        /* \"#utility.yul\":11748:11770   */\n      swap1\n      pop\n        /* \"#utility.yul\":11779:11831   */\n      tag_583\n        /* \"#utility.yul\":11825:11830   */\n      dup2\n        /* \"#utility.yul\":11779:11831   */\n      tag_409\n      jump\t// in\n    tag_583:\n        /* \"#utility.yul\":11656:11837   */\n      swap3\n      swap2\n      pop\n      pop\n      jump\t// out\n        /* \"#utility.yul\":11843:13848   */\n    tag_126:\n        /* \"#utility.yul\":12025:12031   */\n      0x00\n        /* \"#utility.yul\":12033:12039   */\n      dup1\n        /* \"#utility.yul\":12041:12047   */\n      0x00\n        /* \"#utility.yul\":12049:12055   */\n      dup1\n        /* \"#utility.yul\":12057:12063   */\n      0x00\n        /* \"#utility.yul\":12065:12071   */\n      dup1\n        /* \"#utility.yul\":12073:12079   */\n      0x00\n        /* \"#utility.yul\":12081:12087   */\n      dup1\n        /* \"#utility.yul\":12130:12133   */\n      0x0100\n        /* \"#utility.yul\":12118:12127   */\n      dup10\n        /* \"#utility.yul\":12109:12116   */\n      dup12\n        /* \"#utility.yul\":12105:12128   */\n      sub\n        /* \"#utility.yul\":12101:12134   */\n      slt\n        /* \"#utility.yul\":12098:12218   */\n      iszero\n      tag_585\n      jumpi\n        /* \"#utility.yul\":12137:12216   */\n      tag_586\n      tag_373\n      jump\t// in\n    tag_586:\n        /* \"#utility.yul\":12098:12218   */\n    tag_585:\n        /* \"#utility.yul\":12278:12279   */\n      0x00\n        /* \"#utility.yul\":12267:12276   */\n      dup10\n        /* \"#utility.yul\":12263:12280   */\n      add\n        /* \"#utility.yul\":12257:12281   */\n      mload\n        /* \"#utility.yul\":12308:12326   */\n      0xffffffffffffffff\n        /* \"#utility.yul\":12300:12306   */\n      dup2\n        /* \"#utility.yul\":12297:12327   */\n      gt\n        /* \"#utility.yul\":12294:12411   */\n      iszero\n      tag_587\n      jumpi\n        /* \"#utility.yul\":12330:12409   */\n      tag_588\n      tag_374\n      jump\t// in\n    tag_588:\n        /* \"#utility.yul\":12294:12411   */\n    tag_587:\n        /* \"#utility.yul\":12435:12509   */\n      tag_589\n        /* \"#utility.yul\":12501:12508   */\n      dup12\n        /* \"#utility.yul\":12492:12498   */\n      dup3\n        /* \"#utility.yul\":12481:12490   */\n      dup13\n        /* \"#utility.yul\":12477:12499   */\n      add\n        /* \"#utility.yul\":12435:12509   */\n      tag_406\n      jump\t// in\n    tag_589:\n        /* \"#utility.yul\":12425:12509   */\n      swap9\n      pop\n        /* \"#utility.yul\":12228:12519   */\n      pop\n        /* \"#utility.yul\":12579:12581   */\n      0x20\n        /* \"#utility.yul\":12568:12577   */\n      dup10\n        /* \"#utility.yul\":12564:12582   */\n      add\n        /* \"#utility.yul\":12558:12583   */\n      mload\n        /* \"#utility.yul\":12610:12628   */\n      0xffffffffffffffff\n        /* \"#utility.yul\":12602:12608   */\n      dup2\n        /* \"#utility.yul\":12599:12629   */\n      gt\n        /* \"#utility.yul\":12596:12713   */\n      iszero\n      tag_590\n      jumpi\n        /* \"#utility.yul\":12632:12711   */\n      tag_591\n      tag_374\n      jump\t// in\n    tag_591:\n        /* \"#utility.yul\":12596:12713   */\n    tag_590:\n        /* \"#utility.yul\":12737:12811   */\n      tag_592\n        /* \"#utility.yul\":12803:12810   */\n      dup12\n        /* \"#utility.yul\":12794:12800   */\n      dup3\n        /* \"#utility.yul\":12783:12792   */\n      dup13\n        /* \"#utility.yul\":12779:12801   */\n      add\n        /* \"#utility.yul\":12737:12811   */\n      tag_406\n      jump\t// in\n    tag_592:\n        /* \"#utility.yul\":12727:12811   */\n      swap8\n      pop\n        /* \"#utility.yul\":12529:12821   */\n      pop\n        /* \"#utility.yul\":12881:12883   */\n      0x40\n        /* \"#utility.yul\":12870:12879   */\n      dup10\n        /* \"#utility.yul\":12866:12884   */\n      add\n        /* \"#utility.yul\":12860:12885   */\n      mload\n        /* \"#utility.yul\":12912:12930   */\n      0xffffffffffffffff\n        /* \"#utility.yul\":12904:12910   */\n      dup2\n        /* \"#utility.yul\":12901:12931   */\n      gt\n        /* \"#utility.yul\":12898:13015   */\n      iszero\n      tag_593\n      jumpi\n        /* \"#utility.yul\":12934:13013   */\n      tag_594\n      tag_374\n      jump\t// in\n    tag_594:\n        /* \"#utility.yul\":12898:13015   */\n    tag_593:\n        /* \"#utility.yul\":13039:13113   */\n      tag_595\n        /* \"#utility.yul\":13105:13112   */\n      dup12\n        /* \"#utility.yul\":13096:13102   */\n      dup3\n        /* \"#utility.yul\":13085:13094   */\n      dup13\n        /* \"#utility.yul\":13081:13103   */\n      add\n        /* \"#utility.yul\":13039:13113   */\n      tag_406\n      jump\t// in\n    tag_595:\n        /* \"#utility.yul\":13029:13113   */\n      swap7\n      pop\n        /* \"#utility.yul\":12831:13123   */\n      pop\n        /* \"#utility.yul\":13162:13164   */\n      0x60\n        /* \"#utility.yul\":13188:13252   */\n      tag_596\n        /* \"#utility.yul\":13244:13251   */\n      dup12\n        /* \"#utility.yul\":13235:13241   */\n      dup3\n        /* \"#utility.yul\":13224:13233   */\n      dup13\n        /* \"#utility.yul\":13220:13242   */\n      add\n        /* \"#utility.yul\":13188:13252   */\n      tag_407\n      jump\t// in\n    tag_596:\n        /* \"#utility.yul\":13178:13252   */\n      swap6\n      pop\n        /* \"#utility.yul\":13133:13262   */\n      pop\n        /* \"#utility.yul\":13301:13304   */\n      0x80\n        /* \"#utility.yul\":13328:13392   */\n      tag_597\n        /* \"#utility.yul\":13384:13391   */\n      dup12\n        /* \"#utility.yul\":13375:13381   */\n      dup3\n        /* \"#utility.yul\":13364:13373   */\n      dup13\n        /* \"#utility.yul\":13360:13382   */\n      add\n        /* \"#utility.yul\":13328:13392   */\n      tag_408\n      jump\t// in\n    tag_597:\n        /* \"#utility.yul\":13318:13392   */\n      swap5\n      pop\n        /* \"#utility.yul\":13272:13402   */\n      pop\n        /* \"#utility.yul\":13441:13444   */\n      0xa0\n        /* \"#utility.yul\":13468:13551   */\n      tag_598\n        /* \"#utility.yul\":13543:13550   */\n      dup12\n        /* \"#utility.yul\":13534:13540   */\n      dup3\n        /* \"#utility.yul\":13523:13532   */\n      dup13\n        /* \"#utility.yul\":13519:13541   */\n      add\n        /* \"#utility.yul\":13468:13551   */\n      tag_410\n      jump\t// in\n    tag_598:\n        /* \"#utility.yul\":13458:13551   */\n      swap4\n      pop\n        /* \"#utility.yul\":13412:13561   */\n      pop\n        /* \"#utility.yul\":13600:13603   */\n      0xc0\n        /* \"#utility.yul\":13627:13691   */\n      tag_599\n        /* \"#utility.yul\":13683:13690   */\n      dup12\n        /* \"#utility.yul\":13674:13680   */\n      dup3\n        /* \"#utility.yul\":13663:13672   */\n      dup13\n        /* \"#utility.yul\":13659:13681   */\n      add\n        /* \"#utility.yul\":13627:13691   */\n      tag_408\n      jump\t// in\n    tag_599:\n        /* \"#utility.yul\":13617:13691   */\n      swap3\n      pop\n        /* \"#utility.yul\":13571:13701   */\n      pop\n        /* \"#utility.yul\":13740:13743   */\n      0xe0\n        /* \"#utility.yul\":13767:13831   */\n      tag_600\n        /* \"#utility.yul\":13823:13830   */\n      dup12\n        /* \"#utility.yul\":13814:13820   */\n      dup3\n        /* \"#utility.yul\":13803:13812   */\n      dup13\n        /* \"#utility.yul\":13799:13821   */\n      add\n        /* \"#utility.yul\":13767:13831   */\n      tag_407\n      jump\t// in\n    tag_600:\n        /* \"#utility.yul\":13757:13831   */\n      swap2\n      pop\n        /* \"#utility.yul\":13711:13841   */\n      pop\n        /* \"#utility.yul\":11843:13848   */\n      swap3\n      swap6\n      swap9\n      pop\n      swap3\n      swap6\n      swap9\n      swap1\n      swap4\n      swap7\n      pop\n      jump\t// out\n        /* \"#utility.yul\":13854:14028   */\n    tag_411:\n        /* \"#utility.yul\":13994:14020   */\n      0x436f6d6d756e69747920646f6573206e6f742065786973740000000000000000\n        /* \"#utility.yul\":13990:13991   */\n      0x00\n        /* \"#utility.yul\":13982:13988   */\n      dup3\n        /* \"#utility.yul\":13978:13992   */\n      add\n        /* \"#utility.yul\":13971:14021   */\n      mstore\n        /* \"#utility.yul\":13854:14028   */\n      pop\n      jump\t// out\n        /* \"#utility.yul\":14034:14400   */\n    tag_412:\n        /* \"#utility.yul\":14176:14179   */\n      0x00\n        /* \"#utility.yul\":14197:14264   */\n      tag_603\n        /* \"#utility.yul\":14261:14263   */\n      0x18\n        /* \"#utility.yul\":14256:14259   */\n      dup4\n        /* \"#utility.yul\":14197:14264   */\n      tag_393\n      jump\t// in\n    tag_603:\n        /* \"#utility.yul\":14190:14264   */\n      swap2\n      pop\n        /* \"#utility.yul\":14273:14366   */\n      tag_604\n        /* \"#utility.yul\":14362:14365   */\n      dup3\n        /* \"#utility.yul\":14273:14366   */\n      tag_411\n      jump\t// in\n    tag_604:\n        /* \"#utility.yul\":14391:14393   */\n      0x20\n        /* \"#utility.yul\":14386:14389   */\n      dup3\n        /* \"#utility.yul\":14382:14394   */\n      add\n        /* \"#utility.yul\":14375:14394   */\n      swap1\n      pop\n        /* \"#utility.yul\":14034:14400   */\n      swap2\n      swap1\n      pop\n      jump\t// out\n        /* \"#utility.yul\":14406:14825   */\n    tag_129:\n        /* \"#utility.yul\":14572:14576   */\n      0x00\n        /* \"#utility.yul\":14610:14612   */\n      0x20\n        /* \"#utility.yul\":14599:14608   */\n      dup3\n        /* \"#utility.yul\":14595:14613   */\n      add\n        /* \"#utility.yul\":14587:14613   */\n      swap1\n      pop\n        /* \"#utility.yul\":14659:14668   */\n      dup2\n        /* \"#utility.yul\":14653:14657   */\n      dup2\n        /* \"#utility.yul\":14649:14669   */\n      sub\n        /* \"#utility.yul\":14645:14646   */\n      0x00\n        /* \"#utility.yul\":14634:14643   */\n      dup4\n        /* \"#utility.yul\":14630:14647   */\n      add\n        /* \"#utility.yul\":14623:14670   */\n      mstore\n        /* \"#utility.yul\":14687:14818   */\n      tag_606\n        /* \"#utility.yul\":14813:14817   */\n      dup2\n        /* \"#utility.yul\":14687:14818   */\n      tag_412\n      jump\t// in\n    tag_606:\n        /* \"#utility.yul\":14679:14818   */\n      swap1\n      pop\n        /* \"#utility.yul\":14406:14825   */\n      swap2\n      swap1\n      pop\n      jump\t// out\n        /* \"#utility.yul\":14831:15182   */\n    tag_134:\n        /* \"#utility.yul\":14901:14907   */\n      0x00\n        /* \"#utility.yul\":14950:14952   */\n      0x20\n        /* \"#utility.yul\":14938:14947   */\n      dup3\n        /* \"#utility.yul\":14929:14936   */\n      dup5\n        /* \"#utility.yul\":14925:14948   */\n      sub\n        /* \"#utility.yul\":14921:14953   */\n      slt\n        /* \"#utility.yul\":14918:15037   */\n      iszero\n      tag_608\n      jumpi\n        /* \"#utility.yul\":14956:15035   */\n      tag_609\n      tag_373\n      jump\t// in\n    tag_609:\n        /* \"#utility.yul\":14918:15037   */\n    tag_608:\n        /* \"#utility.yul\":15076:15077   */\n      0x00\n        /* \"#utility.yul\":15101:15165   */\n      tag_610\n        /* \"#utility.yul\":15157:15164   */\n      dup5\n        /* \"#utility.yul\":15148:15154   */\n      dup3\n        /* \"#utility.yul\":15137:15146   */\n      dup6\n        /* \"#utility.yul\":15133:15155   */\n      add\n        /* \"#utility.yul\":15101:15165   */\n      tag_408\n      jump\t// in\n    tag_610:\n        /* \"#utility.yul\":15091:15165   */\n      swap2\n      pop\n        /* \"#utility.yul\":15047:15175   */\n      pop\n        /* \"#utility.yul\":14831:15182   */\n      swap3\n      swap2\n      pop\n      pop\n      jump\t// out\n        /* \"#utility.yul\":15188:15408   */\n    tag_413:\n        /* \"#utility.yul\":15328:15362   */\n      0x5374617465207472616e736974696f6e2074696d65206e6f7420726561636865\n        /* \"#utility.yul\":15324:15325   */\n      0x00\n        /* \"#utility.yul\":15316:15322   */\n      dup3\n        /* \"#utility.yul\":15312:15326   */\n      add\n        /* \"#utility.yul\":15305:15363   */\n      mstore\n        /* \"#utility.yul\":15397:15400   */\n      0x6400000000000000000000000000000000000000000000000000000000000000\n        /* \"#utility.yul\":15392:15394   */\n      0x20\n        /* \"#utility.yul\":15384:15390   */\n      dup3\n        /* \"#utility.yul\":15380:15395   */\n      add\n        /* \"#utility.yul\":15373:15401   */\n      mstore\n        /* \"#utility.yul\":15188:15408   */\n      pop\n      jump\t// out\n        /* \"#utility.yul\":15414:15780   */\n    tag_414:\n        /* \"#utility.yul\":15556:15559   */\n      0x00\n        /* \"#utility.yul\":15577:15644   */\n      tag_613\n        /* \"#utility.yul\":15641:15643   */\n      0x21\n        /* \"#utility.yul\":15636:15639   */\n      dup4\n        /* \"#utility.yul\":15577:15644   */\n      tag_393\n      jump\t// in\n    tag_613:\n        /* \"#utility.yul\":15570:15644   */\n      swap2\n      pop\n        /* \"#utility.yul\":15653:15746   */\n      tag_614\n        /* \"#utility.yul\":15742:15745   */\n      dup3\n        /* \"#utility.yul\":15653:15746   */\n      tag_413\n      jump\t// in\n    tag_614:\n        /* \"#utility.yul\":15771:15773   */\n      0x40\n        /* \"#utility.yul\":15766:15769   */\n      dup3\n        /* \"#utility.yul\":15762:15774   */\n      add\n        /* \"#utility.yul\":15755:15774   */\n      swap1\n      pop\n        /* \"#utility.yul\":15414:15780   */\n      swap2\n      swap1\n      pop\n      jump\t// out\n        /* \"#utility.yul\":15786:16205   */\n    tag_137:\n        /* \"#utility.yul\":15952:15956   */\n      0x00\n        /* \"#utility.yul\":15990:15992   */\n      0x20\n        /* \"#utility.yul\":15979:15988   */\n      dup3\n        /* \"#utility.yul\":15975:15993   */\n      add\n        /* \"#utility.yul\":15967:15993   */\n      swap1\n      pop\n        /* \"#utility.yul\":16039:16048   */\n      dup2\n        /* \"#utility.yul\":16033:16037   */\n      dup2\n        /* \"#utility.yul\":16029:16049   */\n      sub\n        /* \"#utility.yul\":16025:16026   */\n      0x00\n        /* \"#utility.yul\":16014:16023   */\n      dup4\n        /* \"#utility.yul\":16010:16027   */\n      add\n        /* \"#utility.yul\":16003:16050   */\n      mstore\n        /* \"#utility.yul\":16067:16198   */\n      tag_616\n        /* \"#utility.yul\":16193:16197   */\n      dup2\n        /* \"#utility.yul\":16067:16198   */\n      tag_414\n      jump\t// in\n    tag_616:\n        /* \"#utility.yul\":16059:16198   */\n      swap1\n      pop\n        /* \"#utility.yul\":15786:16205   */\n      swap2\n      swap1\n      pop\n      jump\t// out\n        /* \"#utility.yul\":16211:16391   */\n    tag_140:\n        /* \"#utility.yul\":16259:16336   */\n      0x4e487b7100000000000000000000000000000000000000000000000000000000\n        /* \"#utility.yul\":16256:16257   */\n      0x00\n        /* \"#utility.yul\":16249:16337   */\n      mstore\n        /* \"#utility.yul\":16356:16360   */\n      0x21\n        /* \"#utility.yul\":16353:16354   */\n      0x04\n        /* \"#utility.yul\":16346:16361   */\n      mstore\n        /* \"#utility.yul\":16380:16384   */\n      0x24\n        /* \"#utility.yul\":16377:16378   */\n      0x00\n        /* \"#utility.yul\":16370:16385   */\n      revert\n        /* \"#utility.yul\":16397:16521   */\n    tag_415:\n        /* \"#utility.yul\":16489:16490   */\n      0x02\n        /* \"#utility.yul\":16482:16487   */\n      dup2\n        /* \"#utility.yul\":16479:16491   */\n      lt\n        /* \"#utility.yul\":16469:16515   */\n      tag_619\n      jumpi\n        /* \"#utility.yul\":16495:16513   */\n      tag_620\n      tag_140\n      jump\t// in\n    tag_620:\n        /* \"#utility.yul\":16469:16515   */\n    tag_619:\n        /* \"#utility.yul\":16397:16521   */\n      pop\n      jump\t// out\n        /* \"#utility.yul\":16527:16676   */\n    tag_416:\n        /* \"#utility.yul\":16583:16590   */\n      0x00\n        /* \"#utility.yul\":16612:16617   */\n      dup2\n        /* \"#utility.yul\":16601:16617   */\n      swap1\n      pop\n        /* \"#utility.yul\":16618:16670   */\n      tag_622\n        /* \"#utility.yul\":16664:16669   */\n      dup3\n        /* \"#utility.yul\":16618:16670   */\n      tag_415\n      jump\t// in\n    tag_622:\n        /* \"#utility.yul\":16527:16676   */\n      swap2\n      swap1\n      pop\n      jump\t// out\n        /* \"#utility.yul\":16682:16831   */\n    tag_417:\n        /* \"#utility.yul\":16749:16758   */\n      0x00\n        /* \"#utility.yul\":16782:16825   */\n      tag_624\n        /* \"#utility.yul\":16819:16824   */\n      dup3\n        /* \"#utility.yul\":16782:16825   */\n      tag_416\n      jump\t// in\n    tag_624:\n        /* \"#utility.yul\":16769:16825   */\n      swap1\n      pop\n        /* \"#utility.yul\":16682:16831   */\n      swap2\n      swap1\n      pop\n      jump\t// out\n        /* \"#utility.yul\":16837:17002   */\n    tag_418:\n        /* \"#utility.yul\":16941:16995   */\n      tag_626\n        /* \"#utility.yul\":16989:16994   */\n      dup2\n        /* \"#utility.yul\":16941:16995   */\n      tag_417\n      jump\t// in\n    tag_626:\n        /* \"#utility.yul\":16936:16939   */\n      dup3\n        /* \"#utility.yul\":16929:16996   */\n      mstore\n        /* \"#utility.yul\":16837:17002   */\n      pop\n      pop\n      jump\t// out\n        /* \"#utility.yul\":17008:17374   */\n    tag_145:\n        /* \"#utility.yul\":17146:17150   */\n      0x00\n        /* \"#utility.yul\":17184:17186   */\n      0x40\n        /* \"#utility.yul\":17173:17182   */\n      dup3\n        /* \"#utility.yul\":17169:17187   */\n      add\n        /* \"#utility.yul\":17161:17187   */\n      swap1\n      pop\n        /* \"#utility.yul\":17197:17268   */\n      tag_628\n        /* \"#utility.yul\":17265:17266   */\n      0x00\n        /* \"#utility.yul\":17254:17263   */\n      dup4\n        /* \"#utility.yul\":17250:17267   */\n      add\n        /* \"#utility.yul\":17241:17247   */\n      dup6\n        /* \"#utility.yul\":17197:17268   */\n      tag_403\n      jump\t// in\n    tag_628:\n        /* \"#utility.yul\":17278:17367   */\n      tag_629\n        /* \"#utility.yul\":17363:17365   */\n      0x20\n        /* \"#utility.yul\":17352:17361   */\n      dup4\n        /* \"#utility.yul\":17348:17366   */\n      add\n        /* \"#utility.yul\":17339:17345   */\n      dup5\n        /* \"#utility.yul\":17278:17367   */\n      tag_418\n      jump\t// in\n    tag_629:\n        /* \"#utility.yul\":17008:17374   */\n      swap4\n      swap3\n      pop\n      pop\n      pop\n      jump\t// out\n        /* \"#utility.yul\":17380:17712   */\n    tag_150:\n        /* \"#utility.yul\":17501:17505   */\n      0x00\n        /* \"#utility.yul\":17539:17541   */\n      0x40\n        /* \"#utility.yul\":17528:17537   */\n      dup3\n        /* \"#utility.yul\":17524:17542   */\n      add\n        /* \"#utility.yul\":17516:17542   */\n      swap1\n      pop\n        /* \"#utility.yul\":17552:17623   */\n      tag_631\n        /* \"#utility.yul\":17620:17621   */\n      0x00\n        /* \"#utility.yul\":17609:17618   */\n      dup4\n        /* \"#utility.yul\":17605:17622   */\n      add\n        /* \"#utility.yul\":17596:17602   */\n      dup6\n        /* \"#utility.yul\":17552:17623   */\n      tag_403\n      jump\t// in\n    tag_631:\n        /* \"#utility.yul\":17633:17705   */\n      tag_632\n        /* \"#utility.yul\":17701:17703   */\n      0x20\n        /* \"#utility.yul\":17690:17699   */\n      dup4\n        /* \"#utility.yul\":17686:17704   */\n      add\n        /* \"#utility.yul\":17677:17683   */\n      dup5\n        /* \"#utility.yul\":17633:17705   */\n      tag_403\n      jump\t// in\n    tag_632:\n        /* \"#utility.yul\":17380:17712   */\n      swap4\n      swap3\n      pop\n      pop\n      pop\n      jump\t// out\n        /* \"#utility.yul\":17718:18029   */\n    tag_419:\n        /* \"#utility.yul\":17795:17799   */\n      0x00\n        /* \"#utility.yul\":17885:17903   */\n      0xffffffffffffffff\n        /* \"#utility.yul\":17877:17883   */\n      dup3\n        /* \"#utility.yul\":17874:17904   */\n      gt\n        /* \"#utility.yul\":17871:17927   */\n      iszero\n      tag_634\n      jumpi\n        /* \"#utility.yul\":17907:17925   */\n      tag_635\n      tag_277\n      jump\t// in\n    tag_635:\n        /* \"#utility.yul\":17871:17927   */\n    tag_634:\n        /* \"#utility.yul\":17957:17961   */\n      0x20\n        /* \"#utility.yul\":17949:17955   */\n      dup3\n        /* \"#utility.yul\":17945:17962   */\n      mul\n        /* \"#utility.yul\":17937:17962   */\n      swap1\n      pop\n        /* \"#utility.yul\":18017:18021   */\n      0x20\n        /* \"#utility.yul\":18011:18015   */\n      dup2\n        /* \"#utility.yul\":18007:18022   */\n      add\n        /* \"#utility.yul\":17999:18022   */\n      swap1\n      pop\n        /* \"#utility.yul\":17718:18029   */\n      swap2\n      swap1\n      pop\n      jump\t// out\n        /* \"#utility.yul\":18035:18152   */\n    tag_420:\n        /* \"#utility.yul\":18144:18145   */\n      0x00\n        /* \"#utility.yul\":18141:18142   */\n      dup1\n        /* \"#utility.yul\":18134:18146   */\n      revert\n        /* \"#utility.yul\":18175:18907   */\n    tag_421:\n        /* \"#utility.yul\":18282:18287   */\n      0x00\n        /* \"#utility.yul\":18307:18388   */\n      tag_638\n        /* \"#utility.yul\":18323:18387   */\n      tag_639\n        /* \"#utility.yul\":18380:18386   */\n      dup5\n        /* \"#utility.yul\":18323:18387   */\n      tag_419\n      jump\t// in\n    tag_639:\n        /* \"#utility.yul\":18307:18388   */\n      tag_382\n      jump\t// in\n    tag_638:\n        /* \"#utility.yul\":18298:18388   */\n      swap1\n      pop\n        /* \"#utility.yul\":18408:18413   */\n      dup1\n        /* \"#utility.yul\":18437:18443   */\n      dup4\n        /* \"#utility.yul\":18430:18435   */\n      dup3\n        /* \"#utility.yul\":18423:18444   */\n      mstore\n        /* \"#utility.yul\":18471:18475   */\n      0x20\n        /* \"#utility.yul\":18464:18469   */\n      dup3\n        /* \"#utility.yul\":18460:18476   */\n      add\n        /* \"#utility.yul\":18453:18476   */\n      swap1\n      pop\n        /* \"#utility.yul\":18524:18528   */\n      0x20\n        /* \"#utility.yul\":18516:18522   */\n      dup5\n        /* \"#utility.yul\":18512:18529   */\n      mul\n        /* \"#utility.yul\":18504:18510   */\n      dup4\n        /* \"#utility.yul\":18500:18530   */\n      add\n        /* \"#utility.yul\":18553:18556   */\n      dup6\n        /* \"#utility.yul\":18545:18551   */\n      dup2\n        /* \"#utility.yul\":18542:18557   */\n      gt\n        /* \"#utility.yul\":18539:18661   */\n      iszero\n      tag_640\n      jumpi\n        /* \"#utility.yul\":18572:18651   */\n      tag_641\n      tag_420\n      jump\t// in\n    tag_641:\n        /* \"#utility.yul\":18539:18661   */\n    tag_640:\n        /* \"#utility.yul\":18687:18693   */\n      dup4\n        /* \"#utility.yul\":18670:18901   */\n    tag_642:\n        /* \"#utility.yul\":18704:18710   */\n      dup2\n        /* \"#utility.yul\":18699:18702   */\n      dup2\n        /* \"#utility.yul\":18696:18711   */\n      lt\n        /* \"#utility.yul\":18670:18901   */\n      iszero\n      tag_644\n      jumpi\n        /* \"#utility.yul\":18779:18782   */\n      dup1\n        /* \"#utility.yul\":18808:18856   */\n      tag_645\n        /* \"#utility.yul\":18852:18855   */\n      dup9\n        /* \"#utility.yul\":18840:18850   */\n      dup3\n        /* \"#utility.yul\":18808:18856   */\n      tag_407\n      jump\t// in\n    tag_645:\n        /* \"#utility.yul\":18803:18806   */\n      dup5\n        /* \"#utility.yul\":18796:18857   */\n      mstore\n        /* \"#utility.yul\":18886:18890   */\n      0x20\n        /* \"#utility.yul\":18881:18884   */\n      dup5\n        /* \"#utility.yul\":18877:18891   */\n      add\n        /* \"#utility.yul\":18870:18891   */\n      swap4\n      pop\n        /* \"#utility.yul\":18746:18901   */\n      pop\n        /* \"#utility.yul\":18730:18734   */\n      0x20\n        /* \"#utility.yul\":18725:18728   */\n      dup2\n        /* \"#utility.yul\":18721:18735   */\n      add\n        /* \"#utility.yul\":18714:18735   */\n      swap1\n      pop\n        /* \"#utility.yul\":18670:18901   */\n      jump(tag_642)\n    tag_644:\n        /* \"#utility.yul\":18674:18695   */\n      pop\n        /* \"#utility.yul\":18288:18907   */\n      pop\n      pop\n        /* \"#utility.yul\":18175:18907   */\n      swap4\n      swap3\n      pop\n      pop\n      pop\n      jump\t// out\n        /* \"#utility.yul\":18930:19315   */\n    tag_422:\n        /* \"#utility.yul\":19012:19017   */\n      0x00\n        /* \"#utility.yul\":19061:19064   */\n      dup3\n        /* \"#utility.yul\":19054:19058   */\n      0x1f\n        /* \"#utility.yul\":19046:19052   */\n      dup4\n        /* \"#utility.yul\":19042:19059   */\n      add\n        /* \"#utility.yul\":19038:19065   */\n      slt\n        /* \"#utility.yul\":19028:19150   */\n      tag_647\n      jumpi\n        /* \"#utility.yul\":19069:19148   */\n      tag_648\n      tag_378\n      jump\t// in\n    tag_648:\n        /* \"#utility.yul\":19028:19150   */\n    tag_647:\n        /* \"#utility.yul\":19179:19185   */\n      dup2\n        /* \"#utility.yul\":19173:19186   */\n      mload\n        /* \"#utility.yul\":19204:19309   */\n      tag_649\n        /* \"#utility.yul\":19305:19308   */\n      dup5\n        /* \"#utility.yul\":19297:19303   */\n      dup3\n        /* \"#utility.yul\":19290:19294   */\n      0x20\n        /* \"#utility.yul\":19282:19288   */\n      dup7\n        /* \"#utility.yul\":19278:19295   */\n      add\n        /* \"#utility.yul\":19204:19309   */\n      tag_421\n      jump\t// in\n    tag_649:\n        /* \"#utility.yul\":19195:19309   */\n      swap2\n      pop\n        /* \"#utility.yul\":19018:19315   */\n      pop\n        /* \"#utility.yul\":18930:19315   */\n      swap3\n      swap2\n      pop\n      pop\n      jump\t// out\n        /* \"#utility.yul\":19321:19875   */\n    tag_154:\n        /* \"#utility.yul\":19416:19422   */\n      0x00\n        /* \"#utility.yul\":19465:19467   */\n      0x20\n        /* \"#utility.yul\":19453:19462   */\n      dup3\n        /* \"#utility.yul\":19444:19451   */\n      dup5\n        /* \"#utility.yul\":19440:19463   */\n      sub\n        /* \"#utility.yul\":19436:19468   */\n      slt\n        /* \"#utility.yul\":19433:19552   */\n      iszero\n      tag_651\n      jumpi\n        /* \"#utility.yul\":19471:19550   */\n      tag_652\n      tag_373\n      jump\t// in\n    tag_652:\n        /* \"#utility.yul\":19433:19552   */\n    tag_651:\n        /* \"#utility.yul\":19612:19613   */\n      0x00\n        /* \"#utility.yul\":19601:19610   */\n      dup3\n        /* \"#utility.yul\":19597:19614   */\n      add\n        /* \"#utility.yul\":19591:19615   */\n      mload\n        /* \"#utility.yul\":19642:19660   */\n      0xffffffffffffffff\n        /* \"#utility.yul\":19634:19640   */\n      dup2\n        /* \"#utility.yul\":19631:19661   */\n      gt\n        /* \"#utility.yul\":19628:19745   */\n      iszero\n      tag_653\n      jumpi\n        /* \"#utility.yul\":19664:19743   */\n      tag_654\n      tag_374\n      jump\t// in\n    tag_654:\n        /* \"#utility.yul\":19628:19745   */\n    tag_653:\n        /* \"#utility.yul\":19769:19858   */\n      tag_655\n        /* \"#utility.yul\":19850:19857   */\n      dup5\n        /* \"#utility.yul\":19841:19847   */\n      dup3\n        /* \"#utility.yul\":19830:19839   */\n      dup6\n        /* \"#utility.yul\":19826:19848   */\n      add\n        /* \"#utility.yul\":19769:19858   */\n      tag_422\n      jump\t// in\n    tag_655:\n        /* \"#utility.yul\":19759:19858   */\n      swap2\n      pop\n        /* \"#utility.yul\":19562:19868   */\n      pop\n        /* \"#utility.yul\":19321:19875   */\n      swap3\n      swap2\n      pop\n      pop\n      jump\t// out\n        /* \"#utility.yul\":19881:20060   */\n    tag_423:\n        /* \"#utility.yul\":20021:20052   */\n      0x4e6f20636f6e7472696275746f727320666f722074686973207765656b000000\n        /* \"#utility.yul\":20017:20018   */\n      0x00\n        /* \"#utility.yul\":20009:20015   */\n      dup3\n        /* \"#utility.yul\":20005:20019   */\n      add\n        /* \"#utility.yul\":19998:20053   */\n      mstore\n        /* \"#utility.yul\":19881:20060   */\n      pop\n      jump\t// out\n        /* \"#utility.yul\":20066:20432   */\n    tag_424:\n        /* \"#utility.yul\":20208:20211   */\n      0x00\n        /* \"#utility.yul\":20229:20296   */\n      tag_658\n        /* \"#utility.yul\":20293:20295   */\n      0x1d\n        /* \"#utility.yul\":20288:20291   */\n      dup4\n        /* \"#utility.yul\":20229:20296   */\n      tag_393\n      jump\t// in\n    tag_658:\n        /* \"#utility.yul\":20222:20296   */\n      swap2\n      pop\n        /* \"#utility.yul\":20305:20398   */\n      tag_659\n        /* \"#utility.yul\":20394:20397   */\n      dup3\n        /* \"#utility.yul\":20305:20398   */\n      tag_423\n      jump\t// in\n    tag_659:\n        /* \"#utility.yul\":20423:20425   */\n      0x20\n        /* \"#utility.yul\":20418:20421   */\n      dup3\n        /* \"#utility.yul\":20414:20426   */\n      add\n        /* \"#utility.yul\":20407:20426   */\n      swap1\n      pop\n        /* \"#utility.yul\":20066:20432   */\n      swap2\n      swap1\n      pop\n      jump\t// out\n        /* \"#utility.yul\":20438:20857   */\n    tag_157:\n        /* \"#utility.yul\":20604:20608   */\n      0x00\n        /* \"#utility.yul\":20642:20644   */\n      0x20\n        /* \"#utility.yul\":20631:20640   */\n      dup3\n        /* \"#utility.yul\":20627:20645   */\n      add\n        /* \"#utility.yul\":20619:20645   */\n      swap1\n      pop\n        /* \"#utility.yul\":20691:20700   */\n      dup2\n        /* \"#utility.yul\":20685:20689   */\n      dup2\n        /* \"#utility.yul\":20681:20701   */\n      sub\n        /* \"#utility.yul\":20677:20678   */\n      0x00\n        /* \"#utility.yul\":20666:20675   */\n      dup4\n        /* \"#utility.yul\":20662:20679   */\n      add\n        /* \"#utility.yul\":20655:20702   */\n      mstore\n        /* \"#utility.yul\":20719:20850   */\n      tag_661\n        /* \"#utility.yul\":20845:20849   */\n      dup2\n        /* \"#utility.yul\":20719:20850   */\n      tag_424\n      jump\t// in\n    tag_661:\n        /* \"#utility.yul\":20711:20850   */\n      swap1\n      pop\n        /* \"#utility.yul\":20438:20857   */\n      swap2\n      swap1\n      pop\n      jump\t// out\n        /* \"#utility.yul\":20863:21043   */\n    tag_425:\n        /* \"#utility.yul\":20911:20988   */\n      0x4e487b7100000000000000000000000000000000000000000000000000000000\n        /* \"#utility.yul\":20908:20909   */\n      0x00\n        /* \"#utility.yul\":20901:20989   */\n      mstore\n        /* \"#utility.yul\":21008:21012   */\n      0x11\n        /* \"#utility.yul\":21005:21006   */\n      0x04\n        /* \"#utility.yul\":20998:21013   */\n      mstore\n        /* \"#utility.yul\":21032:21036   */\n      0x24\n        /* \"#utility.yul\":21029:21030   */\n      0x00\n        /* \"#utility.yul\":21022:21037   */\n      revert\n        /* \"#utility.yul\":21049:21240   */\n    tag_163:\n        /* \"#utility.yul\":21089:21092   */\n      0x00\n        /* \"#utility.yul\":21108:21128   */\n      tag_664\n        /* \"#utility.yul\":21126:21127   */\n      dup3\n        /* \"#utility.yul\":21108:21128   */\n      tag_396\n      jump\t// in\n    tag_664:\n        /* \"#utility.yul\":21103:21128   */\n      swap2\n      pop\n        /* \"#utility.yul\":21142:21162   */\n      tag_665\n        /* \"#utility.yul\":21160:21161   */\n      dup4\n        /* \"#utility.yul\":21142:21162   */\n      tag_396\n      jump\t// in\n    tag_665:\n        /* \"#utility.yul\":21137:21162   */\n      swap3\n      pop\n        /* \"#utility.yul\":21185:21186   */\n      dup3\n        /* \"#utility.yul\":21182:21183   */\n      dup3\n        /* \"#utility.yul\":21178:21187   */\n      add\n        /* \"#utility.yul\":21171:21187   */\n      swap1\n      pop\n        /* \"#utility.yul\":21206:21209   */\n      dup1\n        /* \"#utility.yul\":21203:21204   */\n      dup3\n        /* \"#utility.yul\":21200:21210   */\n      gt\n        /* \"#utility.yul\":21197:21233   */\n      iszero\n      tag_666\n      jumpi\n        /* \"#utility.yul\":21213:21231   */\n      tag_667\n      tag_425\n      jump\t// in\n    tag_667:\n        /* \"#utility.yul\":21197:21233   */\n    tag_666:\n        /* \"#utility.yul\":21049:21240   */\n      swap3\n      swap2\n      pop\n      pop\n      jump\t// out\n        /* \"#utility.yul\":21246:21394   */\n    tag_426:\n        /* \"#utility.yul\":21348:21359   */\n      0x00\n        /* \"#utility.yul\":21385:21388   */\n      dup2\n        /* \"#utility.yul\":21370:21388   */\n      swap1\n      pop\n        /* \"#utility.yul\":21246:21394   */\n      swap3\n      swap2\n      pop\n      pop\n      jump\t// out\n        /* \"#utility.yul\":21400:21790   */\n    tag_427:\n        /* \"#utility.yul\":21506:21509   */\n      0x00\n        /* \"#utility.yul\":21534:21573   */\n      tag_670\n        /* \"#utility.yul\":21567:21572   */\n      dup3\n        /* \"#utility.yul\":21534:21573   */\n      tag_392\n      jump\t// in\n    tag_670:\n        /* \"#utility.yul\":21589:21678   */\n      tag_671\n        /* \"#utility.yul\":21671:21677   */\n      dup2\n        /* \"#utility.yul\":21666:21669   */\n      dup6\n        /* \"#utility.yul\":21589:21678   */\n      tag_426\n      jump\t// in\n    tag_671:\n        /* \"#utility.yul\":21582:21678   */\n      swap4\n      pop\n        /* \"#utility.yul\":21687:21752   */\n      tag_672\n        /* \"#utility.yul\":21745:21751   */\n      dup2\n        /* \"#utility.yul\":21740:21743   */\n      dup6\n        /* \"#utility.yul\":21733:21737   */\n      0x20\n        /* \"#utility.yul\":21726:21731   */\n      dup7\n        /* \"#utility.yul\":21722:21738   */\n      add\n        /* \"#utility.yul\":21687:21752   */\n      tag_394\n      jump\t// in\n    tag_672:\n        /* \"#utility.yul\":21777:21783   */\n      dup1\n        /* \"#utility.yul\":21772:21775   */\n      dup5\n        /* \"#utility.yul\":21768:21784   */\n      add\n        /* \"#utility.yul\":21761:21784   */\n      swap2\n      pop\n        /* \"#utility.yul\":21510:21790   */\n      pop\n        /* \"#utility.yul\":21400:21790   */\n      swap3\n      swap2\n      pop\n      pop\n      jump\t// out\n        /* \"#utility.yul\":21796:21949   */\n    tag_428:\n        /* \"#utility.yul\":21936:21941   */\n      0x202d200000000000000000000000000000000000000000000000000000000000\n        /* \"#utility.yul\":21932:21933   */\n      0x00\n        /* \"#utility.yul\":21924:21930   */\n      dup3\n        /* \"#utility.yul\":21920:21934   */\n      add\n        /* \"#utility.yul\":21913:21942   */\n      mstore\n        /* \"#utility.yul\":21796:21949   */\n      pop\n      jump\t// out\n        /* \"#utility.yul\":21955:22355   */\n    tag_429:\n        /* \"#utility.yul\":22115:22118   */\n      0x00\n        /* \"#utility.yul\":22136:22220   */\n      tag_675\n        /* \"#utility.yul\":22218:22219   */\n      0x03\n        /* \"#utility.yul\":22213:22216   */\n      dup4\n        /* \"#utility.yul\":22136:22220   */\n      tag_426\n      jump\t// in\n    tag_675:\n        /* \"#utility.yul\":22129:22220   */\n      swap2\n      pop\n        /* \"#utility.yul\":22229:22322   */\n      tag_676\n        /* \"#utility.yul\":22318:22321   */\n      dup3\n        /* \"#utility.yul\":22229:22322   */\n      tag_428\n      jump\t// in\n    tag_676:\n        /* \"#utility.yul\":22347:22348   */\n      0x03\n        /* \"#utility.yul\":22342:22345   */\n      dup3\n        /* \"#utility.yul\":22338:22349   */\n      add\n        /* \"#utility.yul\":22331:22349   */\n      swap1\n      pop\n        /* \"#utility.yul\":21955:22355   */\n      swap2\n      swap1\n      pop\n      jump\t// out\n        /* \"#utility.yul\":22361:23062   */\n    tag_172:\n        /* \"#utility.yul\":22642:22645   */\n      0x00\n        /* \"#utility.yul\":22664:22759   */\n      tag_678\n        /* \"#utility.yul\":22755:22758   */\n      dup3\n        /* \"#utility.yul\":22746:22752   */\n      dup6\n        /* \"#utility.yul\":22664:22759   */\n      tag_427\n      jump\t// in\n    tag_678:\n        /* \"#utility.yul\":22657:22759   */\n      swap2\n      pop\n        /* \"#utility.yul\":22776:22924   */\n      tag_679\n        /* \"#utility.yul\":22920:22923   */\n      dup3\n        /* \"#utility.yul\":22776:22924   */\n      tag_429\n      jump\t// in\n    tag_679:\n        /* \"#utility.yul\":22769:22924   */\n      swap2\n      pop\n        /* \"#utility.yul\":22941:23036   */\n      tag_680\n        /* \"#utility.yul\":23032:23035   */\n      dup3\n        /* \"#utility.yul\":23023:23029   */\n      dup5\n        /* \"#utility.yul\":22941:23036   */\n      tag_427\n      jump\t// in\n    tag_680:\n        /* \"#utility.yul\":22934:23036   */\n      swap2\n      pop\n        /* \"#utility.yul\":23053:23056   */\n      dup2\n        /* \"#utility.yul\":23046:23056   */\n      swap1\n      pop\n        /* \"#utility.yul\":22361:23062   */\n      swap4\n      swap3\n      pop\n      pop\n      pop\n      jump\t// out\n        /* \"#utility.yul\":23068:23389   */\n    tag_430:\n        /* \"#utility.yul\":23155:23159   */\n      0x00\n        /* \"#utility.yul\":23245:23263   */\n      0xffffffffffffffff\n        /* \"#utility.yul\":23237:23243   */\n      dup3\n        /* \"#utility.yul\":23234:23264   */\n      gt\n        /* \"#utility.yul\":23231:23287   */\n      iszero\n      tag_682\n      jumpi\n        /* \"#utility.yul\":23267:23285   */\n      tag_683\n      tag_277\n      jump\t// in\n    tag_683:\n        /* \"#utility.yul\":23231:23287   */\n    tag_682:\n        /* \"#utility.yul\":23317:23321   */\n      0x20\n        /* \"#utility.yul\":23309:23315   */\n      dup3\n        /* \"#utility.yul\":23305:23322   */\n      mul\n        /* \"#utility.yul\":23297:23322   */\n      swap1\n      pop\n        /* \"#utility.yul\":23377:23381   */\n      0x20\n        /* \"#utility.yul\":23371:23375   */\n      dup2\n        /* \"#utility.yul\":23367:23382   */\n      add\n        /* \"#utility.yul\":23359:23382   */\n      swap1\n      pop\n        /* \"#utility.yul\":23068:23389   */\n      swap2\n      swap1\n      pop\n      jump\t// out\n        /* \"#utility.yul\":23411:24371   */\n    tag_431:\n        /* \"#utility.yul\":23528:23533   */\n      0x00\n        /* \"#utility.yul\":23553:23644   */\n      tag_685\n        /* \"#utility.yul\":23569:23643   */\n      tag_686\n        /* \"#utility.yul\":23636:23642   */\n      dup5\n        /* \"#utility.yul\":23569:23643   */\n      tag_430\n      jump\t// in\n    tag_686:\n        /* \"#utility.yul\":23553:23644   */\n      tag_382\n      jump\t// in\n    tag_685:\n        /* \"#utility.yul\":23544:23644   */\n      swap1\n      pop\n        /* \"#utility.yul\":23664:23669   */\n      dup1\n        /* \"#utility.yul\":23693:23699   */\n      dup4\n        /* \"#utility.yul\":23686:23691   */\n      dup3\n        /* \"#utility.yul\":23679:23700   */\n      mstore\n        /* \"#utility.yul\":23727:23731   */\n      0x20\n        /* \"#utility.yul\":23720:23725   */\n      dup3\n        /* \"#utility.yul\":23716:23732   */\n      add\n        /* \"#utility.yul\":23709:23732   */\n      swap1\n      pop\n        /* \"#utility.yul\":23780:23784   */\n      0x20\n        /* \"#utility.yul\":23772:23778   */\n      dup5\n        /* \"#utility.yul\":23768:23785   */\n      mul\n        /* \"#utility.yul\":23760:23766   */\n      dup4\n        /* \"#utility.yul\":23756:23786   */\n      add\n        /* \"#utility.yul\":23809:23812   */\n      dup6\n        /* \"#utility.yul\":23801:23807   */\n      dup2\n        /* \"#utility.yul\":23798:23813   */\n      gt\n        /* \"#utility.yul\":23795:23917   */\n      iszero\n      tag_687\n      jumpi\n        /* \"#utility.yul\":23828:23907   */\n      tag_688\n      tag_420\n      jump\t// in\n    tag_688:\n        /* \"#utility.yul\":23795:23917   */\n    tag_687:\n        /* \"#utility.yul\":23943:23949   */\n      dup4\n        /* \"#utility.yul\":23926:24365   */\n    tag_689:\n        /* \"#utility.yul\":23960:23966   */\n      dup2\n        /* \"#utility.yul\":23955:23958   */\n      dup2\n        /* \"#utility.yul\":23952:23967   */\n      lt\n        /* \"#utility.yul\":23926:24365   */\n      iszero\n      tag_691\n      jumpi\n        /* \"#utility.yul\":24042:24045   */\n      dup1\n        /* \"#utility.yul\":24036:24046   */\n      mload\n        /* \"#utility.yul\":24078:24096   */\n      0xffffffffffffffff\n        /* \"#utility.yul\":24065:24076   */\n      dup2\n        /* \"#utility.yul\":24062:24097   */\n      gt\n        /* \"#utility.yul\":24059:24181   */\n      iszero\n      tag_692\n      jumpi\n        /* \"#utility.yul\":24100:24179   */\n      tag_693\n      tag_378\n      jump\t// in\n    tag_693:\n        /* \"#utility.yul\":24059:24181   */\n    tag_692:\n        /* \"#utility.yul\":24224:24235   */\n      dup1\n        /* \"#utility.yul\":24216:24222   */\n      dup7\n        /* \"#utility.yul\":24212:24236   */\n      add\n        /* \"#utility.yul\":24262:24320   */\n      tag_694\n        /* \"#utility.yul\":24316:24319   */\n      dup10\n        /* \"#utility.yul\":24304:24314   */\n      dup3\n        /* \"#utility.yul\":24262:24320   */\n      tag_406\n      jump\t// in\n    tag_694:\n        /* \"#utility.yul\":24257:24260   */\n      dup6\n        /* \"#utility.yul\":24250:24321   */\n      mstore\n        /* \"#utility.yul\":24350:24354   */\n      0x20\n        /* \"#utility.yul\":24345:24348   */\n      dup6\n        /* \"#utility.yul\":24341:24355   */\n      add\n        /* \"#utility.yul\":24334:24355   */\n      swap5\n      pop\n        /* \"#utility.yul\":24002:24365   */\n      pop\n      pop\n        /* \"#utility.yul\":23986:23990   */\n      0x20\n        /* \"#utility.yul\":23981:23984   */\n      dup2\n        /* \"#utility.yul\":23977:23991   */\n      add\n        /* \"#utility.yul\":23970:23991   */\n      swap1\n      pop\n        /* \"#utility.yul\":23926:24365   */\n      jump(tag_689)\n    tag_691:\n        /* \"#utility.yul\":23930:23951   */\n      pop\n        /* \"#utility.yul\":23534:24371   */\n      pop\n      pop\n        /* \"#utility.yul\":23411:24371   */\n      swap4\n      swap3\n      pop\n      pop\n      pop\n      jump\t// out\n        /* \"#utility.yul\":24393:24798   */\n    tag_432:\n        /* \"#utility.yul\":24485:24490   */\n      0x00\n        /* \"#utility.yul\":24534:24537   */\n      dup3\n        /* \"#utility.yul\":24527:24531   */\n      0x1f\n        /* \"#utility.yul\":24519:24525   */\n      dup4\n        /* \"#utility.yul\":24515:24532   */\n      add\n        /* \"#utility.yul\":24511:24538   */\n      slt\n        /* \"#utility.yul\":24501:24623   */\n      tag_696\n      jumpi\n        /* \"#utility.yul\":24542:24621   */\n      tag_697\n      tag_378\n      jump\t// in\n    tag_697:\n        /* \"#utility.yul\":24501:24623   */\n    tag_696:\n        /* \"#utility.yul\":24652:24658   */\n      dup2\n        /* \"#utility.yul\":24646:24659   */\n      mload\n        /* \"#utility.yul\":24677:24792   */\n      tag_698\n        /* \"#utility.yul\":24788:24791   */\n      dup5\n        /* \"#utility.yul\":24780:24786   */\n      dup3\n        /* \"#utility.yul\":24773:24777   */\n      0x20\n        /* \"#utility.yul\":24765:24771   */\n      dup7\n        /* \"#utility.yul\":24761:24778   */\n      add\n        /* \"#utility.yul\":24677:24792   */\n      tag_431\n      jump\t// in\n    tag_698:\n        /* \"#utility.yul\":24668:24792   */\n      swap2\n      pop\n        /* \"#utility.yul\":24491:24798   */\n      pop\n        /* \"#utility.yul\":24393:24798   */\n      swap3\n      swap2\n      pop\n      pop\n      jump\t// out\n        /* \"#utility.yul\":24804:25737   */\n    tag_195:\n        /* \"#utility.yul\":24943:24949   */\n      0x00\n        /* \"#utility.yul\":24951:24957   */\n      dup1\n        /* \"#utility.yul\":25000:25002   */\n      0x40\n        /* \"#utility.yul\":24988:24997   */\n      dup4\n        /* \"#utility.yul\":24979:24986   */\n      dup6\n        /* \"#utility.yul\":24975:24998   */\n      sub\n        /* \"#utility.yul\":24971:25003   */\n      slt\n        /* \"#utility.yul\":24968:25087   */\n      iszero\n      tag_700\n      jumpi\n        /* \"#utility.yul\":25006:25085   */\n      tag_701\n      tag_373\n      jump\t// in\n    tag_701:\n        /* \"#utility.yul\":24968:25087   */\n    tag_700:\n        /* \"#utility.yul\":25147:25148   */\n      0x00\n        /* \"#utility.yul\":25136:25145   */\n      dup4\n        /* \"#utility.yul\":25132:25149   */\n      add\n        /* \"#utility.yul\":25126:25150   */\n      mload\n        /* \"#utility.yul\":25177:25195   */\n      0xffffffffffffffff\n        /* \"#utility.yul\":25169:25175   */\n      dup2\n        /* \"#utility.yul\":25166:25196   */\n      gt\n        /* \"#utility.yul\":25163:25280   */\n      iszero\n      tag_702\n      jumpi\n        /* \"#utility.yul\":25199:25278   */\n      tag_703\n      tag_374\n      jump\t// in\n    tag_703:\n        /* \"#utility.yul\":25163:25280   */\n    tag_702:\n        /* \"#utility.yul\":25304:25393   */\n      tag_704\n        /* \"#utility.yul\":25385:25392   */\n      dup6\n        /* \"#utility.yul\":25376:25382   */\n      dup3\n        /* \"#utility.yul\":25365:25374   */\n      dup7\n        /* \"#utility.yul\":25361:25383   */\n      add\n        /* \"#utility.yul\":25304:25393   */\n      tag_422\n      jump\t// in\n    tag_704:\n        /* \"#utility.yul\":25294:25393   */\n      swap3\n      pop\n        /* \"#utility.yul\":25097:25403   */\n      pop\n        /* \"#utility.yul\":25463:25465   */\n      0x20\n        /* \"#utility.yul\":25452:25461   */\n      dup4\n        /* \"#utility.yul\":25448:25466   */\n      add\n        /* \"#utility.yul\":25442:25467   */\n      mload\n        /* \"#utility.yul\":25494:25512   */\n      0xffffffffffffffff\n        /* \"#utility.yul\":25486:25492   */\n      dup2\n        /* \"#utility.yul\":25483:25513   */\n      gt\n        /* \"#utility.yul\":25480:25597   */\n      iszero\n      tag_705\n      jumpi\n        /* \"#utility.yul\":25516:25595   */\n      tag_706\n      tag_374\n      jump\t// in\n    tag_706:\n        /* \"#utility.yul\":25480:25597   */\n    tag_705:\n        /* \"#utility.yul\":25621:25720   */\n      tag_707\n        /* \"#utility.yul\":25712:25719   */\n      dup6\n        /* \"#utility.yul\":25703:25709   */\n      dup3\n        /* \"#utility.yul\":25692:25701   */\n      dup7\n        /* \"#utility.yul\":25688:25710   */\n      add\n        /* \"#utility.yul\":25621:25720   */\n      tag_432\n      jump\t// in\n    tag_707:\n        /* \"#utility.yul\":25611:25720   */\n      swap2\n      pop\n        /* \"#utility.yul\":25413:25730   */\n      pop\n        /* \"#utility.yul\":24804:25737   */\n      swap3\n      pop\n      swap3\n      swap1\n      pop\n      jump\t// out\n        /* \"#utility.yul\":25743:25857   */\n    tag_433:\n        /* \"#utility.yul\":25810:25816   */\n      0x00\n        /* \"#utility.yul\":25844:25849   */\n      dup2\n        /* \"#utility.yul\":25838:25850   */\n      mload\n        /* \"#utility.yul\":25828:25850   */\n      swap1\n      pop\n        /* \"#utility.yul\":25743:25857   */\n      swap2\n      swap1\n      pop\n      jump\t// out\n        /* \"#utility.yul\":25863:26047   */\n    tag_434:\n        /* \"#utility.yul\":25962:25973   */\n      0x00\n        /* \"#utility.yul\":25996:26002   */\n      dup3\n        /* \"#utility.yul\":25991:25994   */\n      dup3\n        /* \"#utility.yul\":25984:26003   */\n      mstore\n        /* \"#utility.yul\":26036:26040   */\n      0x20\n        /* \"#utility.yul\":26031:26034   */\n      dup3\n        /* \"#utility.yul\":26027:26041   */\n      add\n        /* \"#utility.yul\":26012:26041   */\n      swap1\n      pop\n        /* \"#utility.yul\":25863:26047   */\n      swap3\n      swap2\n      pop\n      pop\n      jump\t// out\n        /* \"#utility.yul\":26053:26185   */\n    tag_435:\n        /* \"#utility.yul\":26120:26124   */\n      0x00\n        /* \"#utility.yul\":26143:26146   */\n      dup2\n        /* \"#utility.yul\":26135:26146   */\n      swap1\n      pop\n        /* \"#utility.yul\":26173:26177   */\n      0x20\n        /* \"#utility.yul\":26168:26171   */\n      dup3\n        /* \"#utility.yul\":26164:26178   */\n      add\n        /* \"#utility.yul\":26156:26178   */\n      swap1\n      pop\n        /* \"#utility.yul\":26053:26185   */\n      swap2\n      swap1\n      pop\n      jump\t// out\n        /* \"#utility.yul\":26191:26299   */\n    tag_436:\n        /* \"#utility.yul\":26268:26292   */\n      tag_712\n        /* \"#utility.yul\":26286:26291   */\n      dup2\n        /* \"#utility.yul\":26268:26292   */\n      tag_375\n      jump\t// in\n    tag_712:\n        /* \"#utility.yul\":26263:26266   */\n      dup3\n        /* \"#utility.yul\":26256:26293   */\n      mstore\n        /* \"#utility.yul\":26191:26299   */\n      pop\n      pop\n      jump\t// out\n        /* \"#utility.yul\":26305:26484   */\n    tag_437:\n        /* \"#utility.yul\":26374:26384   */\n      0x00\n        /* \"#utility.yul\":26395:26441   */\n      tag_714\n        /* \"#utility.yul\":26437:26440   */\n      dup4\n        /* \"#utility.yul\":26429:26435   */\n      dup4\n        /* \"#utility.yul\":26395:26441   */\n      tag_436\n      jump\t// in\n    tag_714:\n        /* \"#utility.yul\":26473:26477   */\n      0x20\n        /* \"#utility.yul\":26468:26471   */\n      dup4\n        /* \"#utility.yul\":26464:26478   */\n      add\n        /* \"#utility.yul\":26450:26478   */\n      swap1\n      pop\n        /* \"#utility.yul\":26305:26484   */\n      swap3\n      swap2\n      pop\n      pop\n      jump\t// out\n        /* \"#utility.yul\":26490:26603   */\n    tag_438:\n        /* \"#utility.yul\":26560:26564   */\n      0x00\n        /* \"#utility.yul\":26592:26596   */\n      0x20\n        /* \"#utility.yul\":26587:26590   */\n      dup3\n        /* \"#utility.yul\":26583:26597   */\n      add\n        /* \"#utility.yul\":26575:26597   */\n      swap1\n      pop\n        /* \"#utility.yul\":26490:26603   */\n      swap2\n      swap1\n      pop\n      jump\t// out\n        /* \"#utility.yul\":26639:27371   */\n    tag_439:\n        /* \"#utility.yul\":26758:26761   */\n      0x00\n        /* \"#utility.yul\":26787:26841   */\n      tag_717\n        /* \"#utility.yul\":26835:26840   */\n      dup3\n        /* \"#utility.yul\":26787:26841   */\n      tag_433\n      jump\t// in\n    tag_717:\n        /* \"#utility.yul\":26857:26943   */\n      tag_718\n        /* \"#utility.yul\":26936:26942   */\n      dup2\n        /* \"#utility.yul\":26931:26934   */\n      dup6\n        /* \"#utility.yul\":26857:26943   */\n      tag_434\n      jump\t// in\n    tag_718:\n        /* \"#utility.yul\":26850:26943   */\n      swap4\n      pop\n        /* \"#utility.yul\":26967:27023   */\n      tag_719\n        /* \"#utility.yul\":27017:27022   */\n      dup4\n        /* \"#utility.yul\":26967:27023   */\n      tag_435\n      jump\t// in\n    tag_719:\n        /* \"#utility.yul\":27046:27053   */\n      dup1\n        /* \"#utility.yul\":27077:27078   */\n      0x00\n        /* \"#utility.yul\":27062:27346   */\n    tag_720:\n        /* \"#utility.yul\":27087:27093   */\n      dup4\n        /* \"#utility.yul\":27084:27085   */\n      dup2\n        /* \"#utility.yul\":27081:27094   */\n      lt\n        /* \"#utility.yul\":27062:27346   */\n      iszero\n      tag_722\n      jumpi\n        /* \"#utility.yul\":27163:27169   */\n      dup2\n        /* \"#utility.yul\":27157:27170   */\n      mload\n        /* \"#utility.yul\":27190:27253   */\n      tag_723\n        /* \"#utility.yul\":27249:27252   */\n      dup9\n        /* \"#utility.yul\":27234:27247   */\n      dup3\n        /* \"#utility.yul\":27190:27253   */\n      tag_437\n      jump\t// in\n    tag_723:\n        /* \"#utility.yul\":27183:27253   */\n      swap8\n      pop\n        /* \"#utility.yul\":27276:27336   */\n      tag_724\n        /* \"#utility.yul\":27329:27335   */\n      dup4\n        /* \"#utility.yul\":27276:27336   */\n      tag_438\n      jump\t// in\n    tag_724:\n        /* \"#utility.yul\":27266:27336   */\n      swap3\n      pop\n        /* \"#utility.yul\":27122:27346   */\n      pop\n        /* \"#utility.yul\":27109:27110   */\n      0x01\n        /* \"#utility.yul\":27106:27107   */\n      dup2\n        /* \"#utility.yul\":27102:27111   */\n      add\n        /* \"#utility.yul\":27097:27111   */\n      swap1\n      pop\n        /* \"#utility.yul\":27062:27346   */\n      jump(tag_720)\n    tag_722:\n        /* \"#utility.yul\":27066:27080   */\n      pop\n        /* \"#utility.yul\":27362:27365   */\n      dup6\n        /* \"#utility.yul\":27355:27365   */\n      swap4\n      pop\n        /* \"#utility.yul\":26763:27371   */\n      pop\n      pop\n      pop\n        /* \"#utility.yul\":26639:27371   */\n      swap3\n      swap2\n      pop\n      pop\n      jump\t// out\n        /* \"#utility.yul\":27377:27860   */\n    tag_197:\n        /* \"#utility.yul\":27548:27552   */\n      0x00\n        /* \"#utility.yul\":27586:27588   */\n      0x40\n        /* \"#utility.yul\":27575:27584   */\n      dup3\n        /* \"#utility.yul\":27571:27589   */\n      add\n        /* \"#utility.yul\":27563:27589   */\n      swap1\n      pop\n        /* \"#utility.yul\":27599:27670   */\n      tag_726\n        /* \"#utility.yul\":27667:27668   */\n      0x00\n        /* \"#utility.yul\":27656:27665   */\n      dup4\n        /* \"#utility.yul\":27652:27669   */\n      add\n        /* \"#utility.yul\":27643:27649   */\n      dup6\n        /* \"#utility.yul\":27599:27670   */\n      tag_403\n      jump\t// in\n    tag_726:\n        /* \"#utility.yul\":27717:27726   */\n      dup2\n        /* \"#utility.yul\":27711:27715   */\n      dup2\n        /* \"#utility.yul\":27707:27727   */\n      sub\n        /* \"#utility.yul\":27702:27704   */\n      0x20\n        /* \"#utility.yul\":27691:27700   */\n      dup4\n        /* \"#utility.yul\":27687:27705   */\n      add\n        /* \"#utility.yul\":27680:27728   */\n      mstore\n        /* \"#utility.yul\":27745:27853   */\n      tag_727\n        /* \"#utility.yul\":27848:27852   */\n      dup2\n        /* \"#utility.yul\":27839:27845   */\n      dup5\n        /* \"#utility.yul\":27745:27853   */\n      tag_439\n      jump\t// in\n    tag_727:\n        /* \"#utility.yul\":27737:27853   */\n      swap1\n      pop\n        /* \"#utility.yul\":27377:27860   */\n      swap4\n      swap3\n      pop\n      pop\n      pop\n      jump\t// out\n        /* \"#utility.yul\":27866:28141   */\n    tag_208:\n        /* \"#utility.yul\":27998:28001   */\n      0x00\n        /* \"#utility.yul\":28020:28115   */\n      tag_729\n        /* \"#utility.yul\":28111:28114   */\n      dup3\n        /* \"#utility.yul\":28102:28108   */\n      dup5\n        /* \"#utility.yul\":28020:28115   */\n      tag_427\n      jump\t// in\n    tag_729:\n        /* \"#utility.yul\":28013:28115   */\n      swap2\n      pop\n        /* \"#utility.yul\":28132:28135   */\n      dup2\n        /* \"#utility.yul\":28125:28135   */\n      swap1\n      pop\n        /* \"#utility.yul\":27866:28141   */\n      swap3\n      swap2\n      pop\n      pop\n      jump\t// out\n        /* \"#utility.yul\":28147:28232   */\n    tag_440:\n        /* \"#utility.yul\":28192:28199   */\n      0x00\n        /* \"#utility.yul\":28221:28226   */\n      dup2\n        /* \"#utility.yul\":28210:28226   */\n      swap1\n      pop\n        /* \"#utility.yul\":28147:28232   */\n      swap2\n      swap1\n      pop\n      jump\t// out\n        /* \"#utility.yul\":28238:28339   */\n    tag_441:\n        /* \"#utility.yul\":28274:28281   */\n      0x00\n        /* \"#utility.yul\":28314:28332   */\n      0xffffffffffffffff\n        /* \"#utility.yul\":28307:28312   */\n      dup3\n        /* \"#utility.yul\":28303:28333   */\n      and\n        /* \"#utility.yul\":28292:28333   */\n      swap1\n      pop\n        /* \"#utility.yul\":28238:28339   */\n      swap2\n      swap1\n      pop\n      jump\t// out\n        /* \"#utility.yul\":28345:28501   */\n    tag_442:\n        /* \"#utility.yul\":28402:28411   */\n      0x00\n        /* \"#utility.yul\":28435:28495   */\n      tag_733\n        /* \"#utility.yul\":28452:28494   */\n      tag_734\n        /* \"#utility.yul\":28461:28493   */\n      tag_735\n        /* \"#utility.yul\":28487:28492   */\n      dup5\n        /* \"#utility.yul\":28461:28493   */\n      tag_440\n      jump\t// in\n    tag_735:\n        /* \"#utility.yul\":28452:28494   */\n      tag_367\n      jump\t// in\n    tag_734:\n        /* \"#utility.yul\":28435:28495   */\n      tag_441\n      jump\t// in\n    tag_733:\n        /* \"#utility.yul\":28422:28495   */\n      swap1\n      pop\n        /* \"#utility.yul\":28345:28501   */\n      swap2\n      swap1\n      pop\n      jump\t// out\n        /* \"#utility.yul\":28507:28652   */\n    tag_443:\n        /* \"#utility.yul\":28601:28645   */\n      tag_737\n        /* \"#utility.yul\":28639:28644   */\n      dup2\n        /* \"#utility.yul\":28601:28645   */\n      tag_442\n      jump\t// in\n    tag_737:\n        /* \"#utility.yul\":28596:28599   */\n      dup3\n        /* \"#utility.yul\":28589:28646   */\n      mstore\n        /* \"#utility.yul\":28507:28652   */\n      pop\n      pop\n      jump\t// out\n        /* \"#utility.yul\":28658:28894   */\n    tag_225:\n        /* \"#utility.yul\":28758:28762   */\n      0x00\n        /* \"#utility.yul\":28796:28798   */\n      0x20\n        /* \"#utility.yul\":28785:28794   */\n      dup3\n        /* \"#utility.yul\":28781:28799   */\n      add\n        /* \"#utility.yul\":28773:28799   */\n      swap1\n      pop\n        /* \"#utility.yul\":28809:28887   */\n      tag_739\n        /* \"#utility.yul\":28884:28885   */\n      0x00\n        /* \"#utility.yul\":28873:28882   */\n      dup4\n        /* \"#utility.yul\":28869:28886   */\n      add\n        /* \"#utility.yul\":28860:28866   */\n      dup5\n        /* \"#utility.yul\":28809:28887   */\n      tag_443\n      jump\t// in\n    tag_739:\n        /* \"#utility.yul\":28658:28894   */\n      swap3\n      swap2\n      pop\n      pop\n      jump\t// out\n        /* \"#utility.yul\":28900:29022   */\n    tag_444:\n        /* \"#utility.yul\":28973:28997   */\n      tag_741\n        /* \"#utility.yul\":28991:28996   */\n      dup2\n        /* \"#utility.yul\":28973:28997   */\n      tag_387\n      jump\t// in\n    tag_741:\n        /* \"#utility.yul\":28966:28971   */\n      dup2\n        /* \"#utility.yul\":28963:28998   */\n      eq\n        /* \"#utility.yul\":28953:29016   */\n      tag_742\n      jumpi\n        /* \"#utility.yul\":29012:29013   */\n      0x00\n        /* \"#utility.yul\":29009:29010   */\n      dup1\n        /* \"#utility.yul\":29002:29014   */\n      revert\n        /* \"#utility.yul\":28953:29016   */\n    tag_742:\n        /* \"#utility.yul\":28900:29022   */\n      pop\n      jump\t// out\n        /* \"#utility.yul\":29028:29171   */\n    tag_445:\n        /* \"#utility.yul\":29085:29090   */\n      0x00\n        /* \"#utility.yul\":29116:29122   */\n      dup2\n        /* \"#utility.yul\":29110:29123   */\n      mload\n        /* \"#utility.yul\":29101:29123   */\n      swap1\n      pop\n        /* \"#utility.yul\":29132:29165   */\n      tag_744\n        /* \"#utility.yul\":29159:29164   */\n      dup2\n        /* \"#utility.yul\":29132:29165   */\n      tag_444\n      jump\t// in\n    tag_744:\n        /* \"#utility.yul\":29028:29171   */\n      swap3\n      swap2\n      pop\n      pop\n      jump\t// out\n        /* \"#utility.yul\":29177:29528   */\n    tag_256:\n        /* \"#utility.yul\":29247:29253   */\n      0x00\n        /* \"#utility.yul\":29296:29298   */\n      0x20\n        /* \"#utility.yul\":29284:29293   */\n      dup3\n        /* \"#utility.yul\":29275:29282   */\n      dup5\n        /* \"#utility.yul\":29271:29294   */\n      sub\n        /* \"#utility.yul\":29267:29299   */\n      slt\n        /* \"#utility.yul\":29264:29383   */\n      iszero\n      tag_746\n      jumpi\n        /* \"#utility.yul\":29302:29381   */\n      tag_747\n      tag_373\n      jump\t// in\n    tag_747:\n        /* \"#utility.yul\":29264:29383   */\n    tag_746:\n        /* \"#utility.yul\":29422:29423   */\n      0x00\n        /* \"#utility.yul\":29447:29511   */\n      tag_748\n        /* \"#utility.yul\":29503:29510   */\n      dup5\n        /* \"#utility.yul\":29494:29500   */\n      dup3\n        /* \"#utility.yul\":29483:29492   */\n      dup6\n        /* \"#utility.yul\":29479:29501   */\n      add\n        /* \"#utility.yul\":29447:29511   */\n      tag_445\n      jump\t// in\n    tag_748:\n        /* \"#utility.yul\":29437:29511   */\n      swap2\n      pop\n        /* \"#utility.yul\":29393:29521   */\n      pop\n        /* \"#utility.yul\":29177:29528   */\n      swap3\n      swap2\n      pop\n      pop\n      jump\t// out\n        /* \"#utility.yul\":29534:29714   */\n    tag_283:\n        /* \"#utility.yul\":29582:29659   */\n      0x4e487b7100000000000000000000000000000000000000000000000000000000\n        /* \"#utility.yul\":29579:29580   */\n      0x00\n        /* \"#utility.yul\":29572:29660   */\n      mstore\n        /* \"#utility.yul\":29679:29683   */\n      0x12\n        /* \"#utility.yul\":29676:29677   */\n      0x04\n        /* \"#utility.yul\":29669:29684   */\n      mstore\n        /* \"#utility.yul\":29703:29707   */\n      0x24\n        /* \"#utility.yul\":29700:29701   */\n      0x00\n        /* \"#utility.yul\":29693:29708   */\n      revert\n        /* \"#utility.yul\":29720:29818   */\n    tag_446:\n        /* \"#utility.yul\":29771:29777   */\n      0x00\n        /* \"#utility.yul\":29805:29810   */\n      dup2\n        /* \"#utility.yul\":29799:29811   */\n      mload\n        /* \"#utility.yul\":29789:29811   */\n      swap1\n      pop\n        /* \"#utility.yul\":29720:29818   */\n      swap2\n      swap1\n      pop\n      jump\t// out\n        /* \"#utility.yul\":29824:29971   */\n    tag_447:\n        /* \"#utility.yul\":29925:29936   */\n      0x00\n        /* \"#utility.yul\":29962:29965   */\n      dup2\n        /* \"#utility.yul\":29947:29965   */\n      swap1\n      pop\n        /* \"#utility.yul\":29824:29971   */\n      swap3\n      swap2\n      pop\n      pop\n      jump\t// out\n        /* \"#utility.yul\":29977:30363   */\n    tag_448:\n        /* \"#utility.yul\":30081:30084   */\n      0x00\n        /* \"#utility.yul\":30109:30147   */\n      tag_753\n        /* \"#utility.yul\":30141:30146   */\n      dup3\n        /* \"#utility.yul\":30109:30147   */\n      tag_446\n      jump\t// in\n    tag_753:\n        /* \"#utility.yul\":30163:30251   */\n      tag_754\n        /* \"#utility.yul\":30244:30250   */\n      dup2\n        /* \"#utility.yul\":30239:30242   */\n      dup6\n        /* \"#utility.yul\":30163:30251   */\n      tag_447\n      jump\t// in\n    tag_754:\n        /* \"#utility.yul\":30156:30251   */\n      swap4\n      pop\n        /* \"#utility.yul\":30260:30325   */\n      tag_755\n        /* \"#utility.yul\":30318:30324   */\n      dup2\n        /* \"#utility.yul\":30313:30316   */\n      dup6\n        /* \"#utility.yul\":30306:30310   */\n      0x20\n        /* \"#utility.yul\":30299:30304   */\n      dup7\n        /* \"#utility.yul\":30295:30311   */\n      add\n        /* \"#utility.yul\":30260:30325   */\n      tag_394\n      jump\t// in\n    tag_755:\n        /* \"#utility.yul\":30350:30356   */\n      dup1\n        /* \"#utility.yul\":30345:30348   */\n      dup5\n        /* \"#utility.yul\":30341:30357   */\n      add\n        /* \"#utility.yul\":30334:30357   */\n      swap2\n      pop\n        /* \"#utility.yul\":30085:30363   */\n      pop\n        /* \"#utility.yul\":29977:30363   */\n      swap3\n      swap2\n      pop\n      pop\n      jump\t// out\n        /* \"#utility.yul\":30369:30640   */\n    tag_345:\n        /* \"#utility.yul\":30499:30502   */\n      0x00\n        /* \"#utility.yul\":30521:30614   */\n      tag_757\n        /* \"#utility.yul\":30610:30613   */\n      dup3\n        /* \"#utility.yul\":30601:30607   */\n      dup5\n        /* \"#utility.yul\":30521:30614   */\n      tag_448\n      jump\t// in\n    tag_757:\n        /* \"#utility.yul\":30514:30614   */\n      swap2\n      pop\n        /* \"#utility.yul\":30631:30634   */\n      dup2\n        /* \"#utility.yul\":30624:30634   */\n      swap1\n      pop\n        /* \"#utility.yul\":30369:30640   */\n      swap3\n      swap2\n      pop\n      pop\n      jump\t// out\n\n    auxdata: 0xa26469706673582212201d84bbea87c904cdaba8034884930b4ecfb5471d7a339f622a57d6f9f2b43e9264736f6c634300081a0033\n}\n",
				"bytecode": {
					"linkReferences": {},
					"object": "60a06040523073ffffffffffffffffffffffffffffffffffffffff1660809073ffffffffffffffffffffffffffffffffffffffff16815250348015610042575f80fd5b5061005161005660201b60201c565b6101b6565b5f61006561015460201b60201c565b9050805f0160089054906101000a900460ff16156100af576040517ff92ee8a900000000000000000000000000000000000000000000000000000000815260040160405180910390fd5b67ffffffffffffffff8016815f015f9054906101000a900467ffffffffffffffff1667ffffffffffffffff16146101515767ffffffffffffffff815f015f6101000a81548167ffffffffffffffff021916908367ffffffffffffffff1602179055507fc7f505b2f371ae2175ee4913f4499e1f2633a7b5936321eed1cdaeb6115181d267ffffffffffffffff604051610148919061019d565b60405180910390a15b50565b5f7ff0c57e16840df040f15088dc2f81fe391c3923bec73e23a9662efc9c229c6a00905090565b5f67ffffffffffffffff82169050919050565b6101978161017b565b82525050565b5f6020820190506101b05f83018461018e565b92915050565b608051612aa46101dc5f395f81816111e60152818161123b01526113f50152612aa45ff3fe6080604052600436106100f2575f3560e01c8063ad3cb1cc11610089578063d599ba9211610058578063d599ba92146102c2578063de04bbd2146102ea578063f2fde38b14610314578063fa96a0e71461033c576100f2565b8063ad3cb1cc14610220578063b00741cb1461024a578063c4d66de814610272578063c56b4aed1461029a576100f2565b806367d0864b116100c557806367d0864b1461018e578063715018a6146101b65780638da5cb5b146101cc5780638faaefc8146101f6576100f2565b806306428f02146100f657806334c6d8b5146101205780634f1ef2861461014857806352d1902d14610164575b5f80fd5b348015610101575f80fd5b5061010a610366565b6040516101179190611c59565b60405180910390f35b34801561012b575f80fd5b5061014660048036038101906101419190611cbe565b610389565b005b610162600480360381019061015d9190611e25565b6103d4565b005b34801561016f575f80fd5b506101786103f3565b6040516101859190611e97565b60405180910390f35b348015610199575f80fd5b506101b460048036038101906101af9190611cbe565b610424565b005b3480156101c1575f80fd5b506101ca61046f565b005b3480156101d7575f80fd5b506101e0610482565b6040516101ed9190611ebf565b60405180910390f35b348015610201575f80fd5b5061020a6104b7565b6040516102179190611ef8565b60405180910390f35b34801561022b575f80fd5b506102346104dc565b6040516102419190611f71565b60405180910390f35b348015610255575f80fd5b50610270600480360381019061026b9190611fc4565b610515565b005b34801561027d575f80fd5b5061029860048036038101906102939190611cbe565b610e71565b005b3480156102a5575f80fd5b506102c060048036038101906102bb9190611cbe565b610ffa565b005b3480156102cd575f80fd5b506102e860048036038101906102e39190611cbe565b611044565b005b3480156102f5575f80fd5b506102fe61108f565b60405161030b919061200f565b60405180910390f35b34801561031f575f80fd5b5061033a60048036038101906103359190611cbe565b6110b4565b005b348015610347575f80fd5b50610350611138565b60405161035d9190612048565b60405180910390f35b5f8054906101000a900473ffffffffffffffffffffffffffffffffffffffff1681565b61039161115d565b8060035f6101000a81548173ffffffffffffffffffffffffffffffffffffffff021916908373ffffffffffffffffffffffffffffffffffffffff16021790555050565b6103dc6111e4565b6103e5826112ca565b6103ef82826112d5565b5050565b5f6103fc6113f3565b7f360894a13ba1a3210667c828492db98dca3e2076cc3735a920a3ca505d382bbc5f1b905090565b61042c61115d565b8060015f6101000a81548173ffffffffffffffffffffffffffffffffffffffff021916908373ffffffffffffffffffffffffffffffffffffffff16021790555050565b61047761115d565b6104805f61147a565b565b5f8061048c61154b565b9050805f015f9054906101000a900473ffffffffffffffffffffffffffffffffffffffff1691505090565b60035f9054906101000a900473ffffffffffffffffffffffffffffffffffffffff1681565b6040518060400160405280600581526020017f352e302e3000000000000000000000000000000000000000000000000000000081525081565b5f805f805f9054906101000a900473ffffffffffffffffffffffffffffffffffffffff1673ffffffffffffffffffffffffffffffffffffffff166399664245856040518263ffffffff1660e01b81526004016105719190612070565b5f60405180830381865afa15801561058b573d5f803e3d5ffd5b505050506040513d5f823e3d601f19601f820116820180604052508101906105b39190612172565b50965096505095505050505f73ffffffffffffffffffffffffffffffffffffffff168373ffffffffffffffffffffffffffffffffffffffff160361062c576040517f08c379a0000000000000000000000000000000000000000000000000000000008152600401610623906122c1565b60405180910390fd5b5f805f9054906101000a900473ffffffffffffffffffffffffffffffffffffffff1673ffffffffffffffffffffffffffffffffffffffff1663eae99e0d866040518263ffffffff1660e01b81526004016106869190612070565b602060405180830381865afa1580156106a1573d5f803e3d5ffd5b505050506040513d601f19601f820116820180604052508101906106c591906122df565b90508042101561070a576040517f08c379a00000000000000000000000000000000000000000000000000000000081526004016107019061237a565b60405180910390fd5b5f600181111561071d5761071c612398565b5b8360018111156107305761072f612398565b5b03610a2e575f8054906101000a900473ffffffffffffffffffffffffffffffffffffffff1673ffffffffffffffffffffffffffffffffffffffff1663fa54d3d98660016040518363ffffffff1660e01b815260040161079092919061240b565b5f604051808303815f87803b1580156107a7575f80fd5b505af11580156107b9573d5f803e3d5ffd5b505050505f60025f9054906101000a900473ffffffffffffffffffffffffffffffffffffffff1673ffffffffffffffffffffffffffffffffffffffff16638ec2c82b87856040518363ffffffff1660e01b815260040161081a929190612432565b5f60405180830381865afa158015610834573d5f803e3d5ffd5b505050506040513d5f823e3d601f19601f8201168201806040525081019061085c919061251d565b90505f8151116108a1576040517f08c379a0000000000000000000000000000000000000000000000000000000008152600401610898906125ae565b60405180910390fd5b60025f9054906101000a900473ffffffffffffffffffffffffffffffffffffffff1673ffffffffffffffffffffffffffffffffffffffff1663690ec8d1876040518263ffffffff1660e01b81526004016108fb9190612070565b5f604051808303815f87803b158015610912575f80fd5b505af1158015610924573d5f803e3d5ffd5b505050505f8054906101000a900473ffffffffffffffffffffffffffffffffffffffff1673ffffffffffffffffffffffffffffffffffffffff1663611ab3688760014261097191906125f9565b6040518363ffffffff1660e01b815260040161098e929190612432565b5f604051808303815f87803b1580156109a5575f80fd5b505af11580156109b7573d5f803e3d5ffd5b505050505f6109c587611572565b6109ce85611572565b6040516020016109df9291906126b0565b60405160208183030381529060405290507f9e1871a2896fd899e76fb1aef1c66629254addff8de93370420922401c7eb21881604051610a1f9190611f71565b60405180910390a15050610e6a565b5f8054906101000a900473ffffffffffffffffffffffffffffffffffffffff1673ffffffffffffffffffffffffffffffffffffffff1663fa54d3d9865f6040518363ffffffff1660e01b8152600401610a8892919061240b565b5f604051808303815f87803b158015610a9f575f80fd5b505af1158015610ab1573d5f803e3d5ffd5b505050505f8054906101000a900473ffffffffffffffffffffffffffffffffffffffff1673ffffffffffffffffffffffffffffffffffffffff166344a2074c866040518263ffffffff1660e01b8152600401610b0d9190612070565b5f604051808303815f87803b158015610b24575f80fd5b505af1158015610b36573d5f803e3d5ffd5b5050505060015f9054906101000a900473ffffffffffffffffffffffffffffffffffffffff1673ffffffffffffffffffffffffffffffffffffffff166333718ce886846040518363ffffffff1660e01b8152600401610b96929190612432565b5f604051808303815f87803b158015610bad575f80fd5b505af1158015610bbf573d5f803e3d5ffd5b5050505060025f9054906101000a900473ffffffffffffffffffffffffffffffffffffffff1673ffffffffffffffffffffffffffffffffffffffff16635ae25992866040518263ffffffff1660e01b8152600401610c1d9190612070565b5f604051808303815f87803b158015610c34575f80fd5b505af1158015610c46573d5f803e3d5ffd5b505050505f805f9054906101000a900473ffffffffffffffffffffffffffffffffffffffff1673ffffffffffffffffffffffffffffffffffffffff16637199ee48876040518263ffffffff1660e01b8152600401610ca49190612070565b5f60405180830381865afa158015610cbe573d5f803e3d5ffd5b505050506040513d5f823e3d601f19601f82011682018060405250810190610ce691906127bc565b50905060035f9054906101000a900473ffffffffffffffffffffffffffffffffffffffff1673ffffffffffffffffffffffffffffffffffffffff166369c4391587836040518363ffffffff1660e01b8152600401610d459291906128e9565b5f604051808303815f87803b158015610d5c575f80fd5b505af1158015610d6e573d5f803e3d5ffd5b505050505f8054906101000a900473ffffffffffffffffffffffffffffffffffffffff1673ffffffffffffffffffffffffffffffffffffffff1663611ab36887600142610dbb91906125f9565b6040518363ffffffff1660e01b8152600401610dd8929190612432565b5f604051808303815f87803b158015610def575f80fd5b505af1158015610e01573d5f803e3d5ffd5b505050505f610e0f87611572565b604051602001610e1f9190612917565b60405160208183030381529060405290507fb72d3b0ff08b267c8db675db62d13b3c4fdcf916a22e2967bfaa8cab88ffd42281604051610e5f9190611f71565b60405180910390a150505b5050505050565b5f610e7a61163c565b90505f815f0160089054906101000a900460ff161590505f825f015f9054906101000a900467ffffffffffffffff1690505f808267ffffffffffffffff16148015610ec25750825b90505f60018367ffffffffffffffff16148015610ef557505f3073ffffffffffffffffffffffffffffffffffffffff163b145b905081158015610f03575080155b15610f3a576040517ff92ee8a900000000000000000000000000000000000000000000000000000000815260040160405180910390fd5b6001855f015f6101000a81548167ffffffffffffffff021916908367ffffffffffffffff1602179055508315610f87576001855f0160086101000a81548160ff0219169083151502179055505b610f9086611663565b610f98611677565b8315610ff2575f855f0160086101000a81548160ff0219169083151502179055507fc7f505b2f371ae2175ee4913f4499e1f2633a7b5936321eed1cdaeb6115181d26001604051610fe99190612979565b60405180910390a15b505050505050565b61100261115d565b805f806101000a81548173ffffffffffffffffffffffffffffffffffffffff021916908373ffffffffffffffffffffffffffffffffffffffff16021790555050565b61104c61115d565b8060025f6101000a81548173ffffffffffffffffffffffffffffffffffffffff021916908373ffffffffffffffffffffffffffffffffffffffff16021790555050565b60025f9054906101000a900473ffffffffffffffffffffffffffffffffffffffff1681565b6110bc61115d565b5f73ffffffffffffffffffffffffffffffffffffffff168173ffffffffffffffffffffffffffffffffffffffff160361112c575f6040517f1e4fbdf70000000000000000000000000000000000000000000000000000000081526004016111239190611ebf565b60405180910390fd5b6111358161147a565b50565b60015f9054906101000a900473ffffffffffffffffffffffffffffffffffffffff1681565b611165611681565b73ffffffffffffffffffffffffffffffffffffffff16611183610482565b73ffffffffffffffffffffffffffffffffffffffff16146111e2576111a6611681565b6040517f118cdaa70000000000000000000000000000000000000000000000000000000081526004016111d99190611ebf565b60405180910390fd5b565b7f000000000000000000000000000000000000000000000000000000000000000073ffffffffffffffffffffffffffffffffffffffff163073ffffffffffffffffffffffffffffffffffffffff16148061129157507f000000000000000000000000000000000000000000000000000000000000000073ffffffffffffffffffffffffffffffffffffffff16611278611688565b73ffffffffffffffffffffffffffffffffffffffff1614155b156112c8576040517fe07c8dba00000000000000000000000000000000000000000000000000000000815260040160405180910390fd5b565b6112d261115d565b50565b8173ffffffffffffffffffffffffffffffffffffffff166352d1902d6040518163ffffffff1660e01b8152600401602060405180830381865afa92505050801561133d57506040513d601f19601f8201168201806040525081019061133a91906129bc565b60015b61137e57816040517f4c9c8ce30000000000000000000000000000000000000000000000000000000081526004016113759190611ebf565b60405180910390fd5b7f360894a13ba1a3210667c828492db98dca3e2076cc3735a920a3ca505d382bbc5f1b81146113e457806040517faa1d49a40000000000000000000000000000000000000000000000000000000081526004016113db9190611e97565b60405180910390fd5b6113ee83836116db565b505050565b7f000000000000000000000000000000000000000000000000000000000000000073ffffffffffffffffffffffffffffffffffffffff163073ffffffffffffffffffffffffffffffffffffffff1614611478576040517fe07c8dba00000000000000000000000000000000000000000000000000000000815260040160405180910390fd5b565b5f61148361154b565b90505f815f015f9054906101000a900473ffffffffffffffffffffffffffffffffffffffff16905082825f015f6101000a81548173ffffffffffffffffffffffffffffffffffffffff021916908373ffffffffffffffffffffffffffffffffffffffff1602179055508273ffffffffffffffffffffffffffffffffffffffff168173ffffffffffffffffffffffffffffffffffffffff167f8be0079c531659141344cd1fd0a4f28419497f9722a3daafe3b4186f6b6457e060405160405180910390a3505050565b5f7f9016d09d72d40fdae2fd8ceac6b6234c7706214fd39c1cd1e609a0528c199300905090565b60605f60016115808461174d565b0190505f8167ffffffffffffffff81111561159e5761159d611d01565b5b6040519080825280601f01601f1916602001820160405280156115d05781602001600182028036833780820191505090505b5090505f82602001820190505b600115611631578080600190039150507f3031323334353637383961626364656600000000000000000000000000000000600a86061a8153600a8581611626576116256129e7565b5b0494505f85036115dd575b819350505050919050565b5f7ff0c57e16840df040f15088dc2f81fe391c3923bec73e23a9662efc9c229c6a00905090565b61166b61189e565b611674816118de565b50565b61167f61189e565b565b5f33905090565b5f6116b47f360894a13ba1a3210667c828492db98dca3e2076cc3735a920a3ca505d382bbc5f1b611962565b5f015f9054906101000a900473ffffffffffffffffffffffffffffffffffffffff16905090565b6116e48261196b565b8173ffffffffffffffffffffffffffffffffffffffff167fbc7cd75a20ee27fd9adebab32041f755214dbc6bffa90cc0225b39da2e5c2d3b60405160405180910390a25f815111156117405761173a8282611a34565b50611749565b611748611ab4565b5b5050565b5f805f90507a184f03e93ff9f4daa797ed6e38ed64bf6a1f01000000000000000083106117a9577a184f03e93ff9f4daa797ed6e38ed64bf6a1f010000000000000000838161179f5761179e6129e7565b5b0492506040810190505b6d04ee2d6d415b85acef810000000083106117e6576d04ee2d6d415b85acef810000000083816117dc576117db6129e7565b5b0492506020810190505b662386f26fc10000831061181557662386f26fc10000838161180b5761180a6129e7565b5b0492506010810190505b6305f5e100831061183e576305f5e1008381611834576118336129e7565b5b0492506008810190505b6127108310611863576127108381611859576118586129e7565b5b0492506004810190505b60648310611886576064838161187c5761187b6129e7565b5b0492506002810190505b600a8310611895576001810190505b80915050919050565b6118a6611af0565b6118dc576040517fd7e6bcf800000000000000000000000000000000000000000000000000000000815260040160405180910390fd5b565b6118e661189e565b5f73ffffffffffffffffffffffffffffffffffffffff168173ffffffffffffffffffffffffffffffffffffffff1603611956575f6040517f1e4fbdf700000000000000000000000000000000000000000000000000000000815260040161194d9190611ebf565b60405180910390fd5b61195f8161147a565b50565b5f819050919050565b5f8173ffffffffffffffffffffffffffffffffffffffff163b036119c657806040517f4c9c8ce30000000000000000000000000000000000000000000000000000000081526004016119bd9190611ebf565b60405180910390fd5b806119f27f360894a13ba1a3210667c828492db98dca3e2076cc3735a920a3ca505d382bbc5f1b611962565b5f015f6101000a81548173ffffffffffffffffffffffffffffffffffffffff021916908373ffffffffffffffffffffffffffffffffffffffff16021790555050565b60605f808473ffffffffffffffffffffffffffffffffffffffff1684604051611a5d9190612a58565b5f60405180830381855af49150503d805f8114611a95576040519150601f19603f3d011682016040523d82523d5f602084013e611a9a565b606091505b5091509150611aaa858383611b0e565b9250505092915050565b5f341115611aee576040517fb398979f00000000000000000000000000000000000000000000000000000000815260040160405180910390fd5b565b5f611af961163c565b5f0160089054906101000a900460ff16905090565b606082611b2357611b1e82611b9b565b611b93565b5f8251148015611b4957505f8473ffffffffffffffffffffffffffffffffffffffff163b145b15611b8b57836040517f9996b315000000000000000000000000000000000000000000000000000000008152600401611b829190611ebf565b60405180910390fd5b819050611b94565b5b9392505050565b5f81511115611bad5780518082602001fd5b6040517f1425ea4200000000000000000000000000000000000000000000000000000000815260040160405180910390fd5b5f73ffffffffffffffffffffffffffffffffffffffff82169050919050565b5f819050919050565b5f611c21611c1c611c1784611bdf565b611bfe565b611bdf565b9050919050565b5f611c3282611c07565b9050919050565b5f611c4382611c28565b9050919050565b611c5381611c39565b82525050565b5f602082019050611c6c5f830184611c4a565b92915050565b5f604051905090565b5f80fd5b5f80fd5b5f611c8d82611bdf565b9050919050565b611c9d81611c83565b8114611ca7575f80fd5b50565b5f81359050611cb881611c94565b92915050565b5f60208284031215611cd357611cd2611c7b565b5b5f611ce084828501611caa565b91505092915050565b5f80fd5b5f80fd5b5f601f19601f8301169050919050565b7f4e487b71000000000000000000000000000000000000000000000000000000005f52604160045260245ffd5b611d3782611cf1565b810181811067ffffffffffffffff82111715611d5657611d55611d01565b5b80604052505050565b5f611d68611c72565b9050611d748282611d2e565b919050565b5f67ffffffffffffffff821115611d9357611d92611d01565b5b611d9c82611cf1565b9050602081019050919050565b828183375f83830152505050565b5f611dc9611dc484611d79565b611d5f565b905082815260208101848484011115611de557611de4611ced565b5b611df0848285611da9565b509392505050565b5f82601f830112611e0c57611e0b611ce9565b5b8135611e1c848260208601611db7565b91505092915050565b5f8060408385031215611e3b57611e3a611c7b565b5b5f611e4885828601611caa565b925050602083013567ffffffffffffffff811115611e6957611e68611c7f565b5b611e7585828601611df8565b9150509250929050565b5f819050919050565b611e9181611e7f565b82525050565b5f602082019050611eaa5f830184611e88565b92915050565b611eb981611c83565b82525050565b5f602082019050611ed25f830184611eb0565b92915050565b5f611ee282611c28565b9050919050565b611ef281611ed8565b82525050565b5f602082019050611f0b5f830184611ee9565b92915050565b5f81519050919050565b5f82825260208201905092915050565b8281835e5f83830152505050565b5f611f4382611f11565b611f4d8185611f1b565b9350611f5d818560208601611f2b565b611f6681611cf1565b840191505092915050565b5f6020820190508181035f830152611f898184611f39565b905092915050565b5f819050919050565b611fa381611f91565b8114611fad575f80fd5b50565b5f81359050611fbe81611f9a565b92915050565b5f60208284031215611fd957611fd8611c7b565b5b5f611fe684828501611fb0565b91505092915050565b5f611ff982611c28565b9050919050565b61200981611fef565b82525050565b5f6020820190506120225f830184612000565b92915050565b5f61203282611c28565b9050919050565b61204281612028565b82525050565b5f60208201905061205b5f830184612039565b92915050565b61206a81611f91565b82525050565b5f6020820190506120835f830184612061565b92915050565b5f67ffffffffffffffff8211156120a3576120a2611d01565b5b6120ac82611cf1565b9050602081019050919050565b5f6120cb6120c684612089565b611d5f565b9050828152602081018484840111156120e7576120e6611ced565b5b6120f2848285611f2b565b509392505050565b5f82601f83011261210e5761210d611ce9565b5b815161211e8482602086016120b9565b91505092915050565b5f8151905061213581611c94565b92915050565b5f8151905061214981611f9a565b92915050565b6002811061215b575f80fd5b50565b5f8151905061216c8161214f565b92915050565b5f805f805f805f80610100898b03121561218f5761218e611c7b565b5b5f89015167ffffffffffffffff8111156121ac576121ab611c7f565b5b6121b88b828c016120fa565b985050602089015167ffffffffffffffff8111156121d9576121d8611c7f565b5b6121e58b828c016120fa565b975050604089015167ffffffffffffffff81111561220657612205611c7f565b5b6122128b828c016120fa565b96505060606122238b828c01612127565b95505060806122348b828c0161213b565b94505060a06122458b828c0161215e565b93505060c06122568b828c0161213b565b92505060e06122678b828c01612127565b9150509295985092959890939650565b7f436f6d6d756e69747920646f6573206e6f7420657869737400000000000000005f82015250565b5f6122ab601883611f1b565b91506122b682612277565b602082019050919050565b5f6020820190508181035f8301526122d88161229f565b9050919050565b5f602082840312156122f4576122f3611c7b565b5b5f6123018482850161213b565b91505092915050565b7f5374617465207472616e736974696f6e2074696d65206e6f74207265616368655f8201527f6400000000000000000000000000000000000000000000000000000000000000602082015250565b5f612364602183611f1b565b915061236f8261230a565b604082019050919050565b5f6020820190508181035f83015261239181612358565b9050919050565b7f4e487b71000000000000000000000000000000000000000000000000000000005f52602160045260245ffd5b600281106123d6576123d5612398565b5b50565b5f8190506123e6826123c5565b919050565b5f6123f5826123d9565b9050919050565b612405816123eb565b82525050565b5f60408201905061241e5f830185612061565b61242b60208301846123fc565b9392505050565b5f6040820190506124455f830185612061565b6124526020830184612061565b9392505050565b5f67ffffffffffffffff82111561247357612472611d01565b5b602082029050602081019050919050565b5f80fd5b5f61249a61249584612459565b611d5f565b905080838252602082019050602084028301858111156124bd576124bc612484565b5b835b818110156124e657806124d28882612127565b8452602084019350506020810190506124bf565b5050509392505050565b5f82601f83011261250457612503611ce9565b5b8151612514848260208601612488565b91505092915050565b5f6020828403121561253257612531611c7b565b5b5f82015167ffffffffffffffff81111561254f5761254e611c7f565b5b61255b848285016124f0565b91505092915050565b7f4e6f20636f6e7472696275746f727320666f722074686973207765656b0000005f82015250565b5f612598601d83611f1b565b91506125a382612564565b602082019050919050565b5f6020820190508181035f8301526125c58161258c565b9050919050565b7f4e487b71000000000000000000000000000000000000000000000000000000005f52601160045260245ffd5b5f61260382611f91565b915061260e83611f91565b9250828201905080821115612626576126256125cc565b5b92915050565b5f81905092915050565b5f61264082611f11565b61264a818561262c565b935061265a818560208601611f2b565b80840191505092915050565b7f202d2000000000000000000000000000000000000000000000000000000000005f82015250565b5f61269a60038361262c565b91506126a582612666565b600382019050919050565b5f6126bb8285612636565b91506126c68261268e565b91506126d28284612636565b91508190509392505050565b5f67ffffffffffffffff8211156126f8576126f7611d01565b5b602082029050602081019050919050565b5f61271b612716846126de565b611d5f565b9050808382526020820190506020840283018581111561273e5761273d612484565b5b835b8181101561278557805167ffffffffffffffff81111561276357612762611ce9565b5b80860161277089826120fa565b85526020850194505050602081019050612740565b5050509392505050565b5f82601f8301126127a3576127a2611ce9565b5b81516127b3848260208601612709565b91505092915050565b5f80604083850312156127d2576127d1611c7b565b5b5f83015167ffffffffffffffff8111156127ef576127ee611c7f565b5b6127fb858286016124f0565b925050602083015167ffffffffffffffff81111561281c5761281b611c7f565b5b6128288582860161278f565b9150509250929050565b5f81519050919050565b5f82825260208201905092915050565b5f819050602082019050919050565b61286481611c83565b82525050565b5f612875838361285b565b60208301905092915050565b5f602082019050919050565b5f61289782612832565b6128a1818561283c565b93506128ac8361284c565b805f5b838110156128dc5781516128c3888261286a565b97506128ce83612881565b9250506001810190506128af565b5085935050505092915050565b5f6040820190506128fc5f830185612061565b818103602083015261290e818461288d565b90509392505050565b5f6129228284612636565b915081905092915050565b5f819050919050565b5f67ffffffffffffffff82169050919050565b5f61296361295e6129598461292d565b611bfe565b612936565b9050919050565b61297381612949565b82525050565b5f60208201905061298c5f83018461296a565b92915050565b61299b81611e7f565b81146129a5575f80fd5b50565b5f815190506129b681612992565b92915050565b5f602082840312156129d1576129d0611c7b565b5b5f6129de848285016129a8565b91505092915050565b7f4e487b71000000000000000000000000000000000000000000000000000000005f52601260045260245ffd5b5f81519050919050565b5f81905092915050565b5f612a3282612a14565b612a3c8185612a1e565b9350612a4c818560208601611f2b565b80840191505092915050565b5f612a638284612a28565b91508190509291505056fea26469706673582212201d84bbea87c904cdaba8034884930b4ecfb5471d7a339f622a57d6f9f2b43e9264736f6c634300081a0033",
					"opcodes": "PUSH1 0xA0 PUSH1 0x40 MSTORE ADDRESS PUSH20 0xFFFFFFFFFFFFFFFFFFFFFFFFFFFFFFFFFFFFFFFF AND PUSH1 0x80 SWAP1 PUSH20 0xFFFFFFFFFFFFFFFFFFFFFFFFFFFFFFFFFFFFFFFF AND DUP2 MSTORE POP CALLVALUE DUP1 ISZERO PUSH2 0x42 JUMPI PUSH0 DUP1 REVERT JUMPDEST POP PUSH2 0x51 PUSH2 0x56 PUSH1 0x20 SHL PUSH1 0x20 SHR JUMP JUMPDEST PUSH2 0x1B6 JUMP JUMPDEST PUSH0 PUSH2 0x65 PUSH2 0x154 PUSH1 0x20 SHL PUSH1 0x20 SHR JUMP JUMPDEST SWAP1 POP DUP1 PUSH0 ADD PUSH1 0x8 SWAP1 SLOAD SWAP1 PUSH2 0x100 EXP SWAP1 DIV PUSH1 0xFF AND ISZERO PUSH2 0xAF JUMPI PUSH1 0x40 MLOAD PUSH32 0xF92EE8A900000000000000000000000000000000000000000000000000000000 DUP2 MSTORE PUSH1 0x4 ADD PUSH1 0x40 MLOAD DUP1 SWAP2 SUB SWAP1 REVERT JUMPDEST PUSH8 0xFFFFFFFFFFFFFFFF DUP1 AND DUP2 PUSH0 ADD PUSH0 SWAP1 SLOAD SWAP1 PUSH2 0x100 EXP SWAP1 DIV PUSH8 0xFFFFFFFFFFFFFFFF AND PUSH8 0xFFFFFFFFFFFFFFFF AND EQ PUSH2 0x151 JUMPI PUSH8 0xFFFFFFFFFFFFFFFF DUP2 PUSH0 ADD PUSH0 PUSH2 0x100 EXP DUP2 SLOAD DUP2 PUSH8 0xFFFFFFFFFFFFFFFF MUL NOT AND SWAP1 DUP4 PUSH8 0xFFFFFFFFFFFFFFFF AND MUL OR SWAP1 SSTORE POP PUSH32 0xC7F505B2F371AE2175EE4913F4499E1F2633A7B5936321EED1CDAEB6115181D2 PUSH8 0xFFFFFFFFFFFFFFFF PUSH1 0x40 MLOAD PUSH2 0x148 SWAP2 SWAP1 PUSH2 0x19D JUMP JUMPDEST PUSH1 0x40 MLOAD DUP1 SWAP2 SUB SWAP1 LOG1 JUMPDEST POP JUMP JUMPDEST PUSH0 PUSH32 0xF0C57E16840DF040F15088DC2F81FE391C3923BEC73E23A9662EFC9C229C6A00 SWAP1 POP SWAP1 JUMP JUMPDEST PUSH0 PUSH8 0xFFFFFFFFFFFFFFFF DUP3 AND SWAP1 POP SWAP2 SWAP1 POP JUMP JUMPDEST PUSH2 0x197 DUP2 PUSH2 0x17B JUMP JUMPDEST DUP3 MSTORE POP POP JUMP JUMPDEST PUSH0 PUSH1 0x20 DUP3 ADD SWAP1 POP PUSH2 0x1B0 PUSH0 DUP4 ADD DUP5 PUSH2 0x18E JUMP JUMPDEST SWAP3 SWAP2 POP POP JUMP JUMPDEST PUSH1 0x80 MLOAD PUSH2 0x2AA4 PUSH2 0x1DC PUSH0 CODECOPY PUSH0 DUP2 DUP2 PUSH2 0x11E6 ADD MSTORE DUP2 DUP2 PUSH2 0x123B ADD MSTORE PUSH2 0x13F5 ADD MSTORE PUSH2 0x2AA4 PUSH0 RETURN INVALID PUSH1 0x80 PUSH1 0x40 MSTORE PUSH1 0x4 CALLDATASIZE LT PUSH2 0xF2 JUMPI PUSH0 CALLDATALOAD PUSH1 0xE0 SHR DUP1 PUSH4 0xAD3CB1CC GT PUSH2 0x89 JUMPI DUP1 PUSH4 0xD599BA92 GT PUSH2 0x58 JUMPI DUP1 PUSH4 0xD599BA92 EQ PUSH2 0x2C2 JUMPI DUP1 PUSH4 0xDE04BBD2 EQ PUSH2 0x2EA JUMPI DUP1 PUSH4 0xF2FDE38B EQ PUSH2 0x314 JUMPI DUP1 PUSH4 0xFA96A0E7 EQ PUSH2 0x33C JUMPI PUSH2 0xF2 JUMP JUMPDEST DUP1 PUSH4 0xAD3CB1CC EQ PUSH2 0x220 JUMPI DUP1 PUSH4 0xB00741CB EQ PUSH2 0x24A JUMPI DUP1 PUSH4 0xC4D66DE8 EQ PUSH2 0x272 JUMPI DUP1 PUSH4 0xC56B4AED EQ PUSH2 0x29A JUMPI PUSH2 0xF2 JUMP JUMPDEST DUP1 PUSH4 0x67D0864B GT PUSH2 0xC5 JUMPI DUP1 PUSH4 0x67D0864B EQ PUSH2 0x18E JUMPI DUP1 PUSH4 0x715018A6 EQ PUSH2 0x1B6 JUMPI DUP1 PUSH4 0x8DA5CB5B EQ PUSH2 0x1CC JUMPI DUP1 PUSH4 0x8FAAEFC8 EQ PUSH2 0x1F6 JUMPI PUSH2 0xF2 JUMP JUMPDEST DUP1 PUSH4 0x6428F02 EQ PUSH2 0xF6 JUMPI DUP1 PUSH4 0x34C6D8B5 EQ PUSH2 0x120 JUMPI DUP1 PUSH4 0x4F1EF286 EQ PUSH2 0x148 JUMPI DUP1 PUSH4 0x52D1902D EQ PUSH2 0x164 JUMPI JUMPDEST PUSH0 DUP1 REVERT JUMPDEST CALLVALUE DUP1 ISZERO PUSH2 0x101 JUMPI PUSH0 DUP1 REVERT JUMPDEST POP PUSH2 0x10A PUSH2 0x366 JUMP JUMPDEST PUSH1 0x40 MLOAD PUSH2 0x117 SWAP2 SWAP1 PUSH2 0x1C59 JUMP JUMPDEST PUSH1 0x40 MLOAD DUP1 SWAP2 SUB SWAP1 RETURN JUMPDEST CALLVALUE DUP1 ISZERO PUSH2 0x12B JUMPI PUSH0 DUP1 REVERT JUMPDEST POP PUSH2 0x146 PUSH1 0x4 DUP1 CALLDATASIZE SUB DUP2 ADD SWAP1 PUSH2 0x141 SWAP2 SWAP1 PUSH2 0x1CBE JUMP JUMPDEST PUSH2 0x389 JUMP JUMPDEST STOP JUMPDEST PUSH2 0x162 PUSH1 0x4 DUP1 CALLDATASIZE SUB DUP2 ADD SWAP1 PUSH2 0x15D SWAP2 SWAP1 PUSH2 0x1E25 JUMP JUMPDEST PUSH2 0x3D4 JUMP JUMPDEST STOP JUMPDEST CALLVALUE DUP1 ISZERO PUSH2 0x16F JUMPI PUSH0 DUP1 REVERT JUMPDEST POP PUSH2 0x178 PUSH2 0x3F3 JUMP JUMPDEST PUSH1 0x40 MLOAD PUSH2 0x185 SWAP2 SWAP1 PUSH2 0x1E97 JUMP JUMPDEST PUSH1 0x40 MLOAD DUP1 SWAP2 SUB SWAP1 RETURN JUMPDEST CALLVALUE DUP1 ISZERO PUSH2 0x199 JUMPI PUSH0 DUP1 REVERT JUMPDEST POP PUSH2 0x1B4 PUSH1 0x4 DUP1 CALLDATASIZE SUB DUP2 ADD SWAP1 PUSH2 0x1AF SWAP2 SWAP1 PUSH2 0x1CBE JUMP JUMPDEST PUSH2 0x424 JUMP JUMPDEST STOP JUMPDEST CALLVALUE DUP1 ISZERO PUSH2 0x1C1 JUMPI PUSH0 DUP1 REVERT JUMPDEST POP PUSH2 0x1CA PUSH2 0x46F JUMP JUMPDEST STOP JUMPDEST CALLVALUE DUP1 ISZERO PUSH2 0x1D7 JUMPI PUSH0 DUP1 REVERT JUMPDEST POP PUSH2 0x1E0 PUSH2 0x482 JUMP JUMPDEST PUSH1 0x40 MLOAD PUSH2 0x1ED SWAP2 SWAP1 PUSH2 0x1EBF JUMP JUMPDEST PUSH1 0x40 MLOAD DUP1 SWAP2 SUB SWAP1 RETURN JUMPDEST CALLVALUE DUP1 ISZERO PUSH2 0x201 JUMPI PUSH0 DUP1 REVERT JUMPDEST POP PUSH2 0x20A PUSH2 0x4B7 JUMP JUMPDEST PUSH1 0x40 MLOAD PUSH2 0x217 SWAP2 SWAP1 PUSH2 0x1EF8 JUMP JUMPDEST PUSH1 0x40 MLOAD DUP1 SWAP2 SUB SWAP1 RETURN JUMPDEST CALLVALUE DUP1 ISZERO PUSH2 0x22B JUMPI PUSH0 DUP1 REVERT JUMPDEST POP PUSH2 0x234 PUSH2 0x4DC JUMP JUMPDEST PUSH1 0x40 MLOAD PUSH2 0x241 SWAP2 SWAP1 PUSH2 0x1F71 JUMP JUMPDEST PUSH1 0x40 MLOAD DUP1 SWAP2 SUB SWAP1 RETURN JUMPDEST CALLVALUE DUP1 ISZERO PUSH2 0x255 JUMPI PUSH0 DUP1 REVERT JUMPDEST POP PUSH2 0x270 PUSH1 0x4 DUP1 CALLDATASIZE SUB DUP2 ADD SWAP1 PUSH2 0x26B SWAP2 SWAP1 PUSH2 0x1FC4 JUMP JUMPDEST PUSH2 0x515 JUMP JUMPDEST STOP JUMPDEST CALLVALUE DUP1 ISZERO PUSH2 0x27D JUMPI PUSH0 DUP1 REVERT JUMPDEST POP PUSH2 0x298 PUSH1 0x4 DUP1 CALLDATASIZE SUB DUP2 ADD SWAP1 PUSH2 0x293 SWAP2 SWAP1 PUSH2 0x1CBE JUMP JUMPDEST PUSH2 0xE71 JUMP JUMPDEST STOP JUMPDEST CALLVALUE DUP1 ISZERO PUSH2 0x2A5 JUMPI PUSH0 DUP1 REVERT JUMPDEST POP PUSH2 0x2C0 PUSH1 0x4 DUP1 CALLDATASIZE SUB DUP2 ADD SWAP1 PUSH2 0x2BB SWAP2 SWAP1 PUSH2 0x1CBE JUMP JUMPDEST PUSH2 0xFFA JUMP JUMPDEST STOP JUMPDEST CALLVALUE DUP1 ISZERO PUSH2 0x2CD JUMPI PUSH0 DUP1 REVERT JUMPDEST POP PUSH2 0x2E8 PUSH1 0x4 DUP1 CALLDATASIZE SUB DUP2 ADD SWAP1 PUSH2 0x2E3 SWAP2 SWAP1 PUSH2 0x1CBE JUMP JUMPDEST PUSH2 0x1044 JUMP JUMPDEST STOP JUMPDEST CALLVALUE DUP1 ISZERO PUSH2 0x2F5 JUMPI PUSH0 DUP1 REVERT JUMPDEST POP PUSH2 0x2FE PUSH2 0x108F JUMP JUMPDEST PUSH1 0x40 MLOAD PUSH2 0x30B SWAP2 SWAP1 PUSH2 0x200F JUMP JUMPDEST PUSH1 0x40 MLOAD DUP1 SWAP2 SUB SWAP1 RETURN JUMPDEST CALLVALUE DUP1 ISZERO PUSH2 0x31F JUMPI PUSH0 DUP1 REVERT JUMPDEST POP PUSH2 0x33A PUSH1 0x4 DUP1 CALLDATASIZE SUB DUP2 ADD SWAP1 PUSH2 0x335 SWAP2 SWAP1 PUSH2 0x1CBE JUMP JUMPDEST PUSH2 0x10B4 JUMP JUMPDEST STOP JUMPDEST CALLVALUE DUP1 ISZERO PUSH2 0x347 JUMPI PUSH0 DUP1 REVERT JUMPDEST POP PUSH2 0x350 PUSH2 0x1138 JUMP JUMPDEST PUSH1 0x40 MLOAD PUSH2 0x35D SWAP2 SWAP1 PUSH2 0x2048 JUMP JUMPDEST PUSH1 0x40 MLOAD DUP1 SWAP2 SUB SWAP1 RETURN JUMPDEST PUSH0 DUP1 SLOAD SWAP1 PUSH2 0x100 EXP SWAP1 DIV PUSH20 0xFFFFFFFFFFFFFFFFFFFFFFFFFFFFFFFFFFFFFFFF AND DUP2 JUMP JUMPDEST PUSH2 0x391 PUSH2 0x115D JUMP JUMPDEST DUP1 PUSH1 0x3 PUSH0 PUSH2 0x100 EXP DUP2 SLOAD DUP2 PUSH20 0xFFFFFFFFFFFFFFFFFFFFFFFFFFFFFFFFFFFFFFFF MUL NOT AND SWAP1 DUP4 PUSH20 0xFFFFFFFFFFFFFFFFFFFFFFFFFFFFFFFFFFFFFFFF AND MUL OR SWAP1 SSTORE POP POP JUMP JUMPDEST PUSH2 0x3DC PUSH2 0x11E4 JUMP JUMPDEST PUSH2 0x3E5 DUP3 PUSH2 0x12CA JUMP JUMPDEST PUSH2 0x3EF DUP3 DUP3 PUSH2 0x12D5 JUMP JUMPDEST POP POP JUMP JUMPDEST PUSH0 PUSH2 0x3FC PUSH2 0x13F3 JUMP JUMPDEST PUSH32 0x360894A13BA1A3210667C828492DB98DCA3E2076CC3735A920A3CA505D382BBC PUSH0 SHL SWAP1 POP SWAP1 JUMP JUMPDEST PUSH2 0x42C PUSH2 0x115D JUMP JUMPDEST DUP1 PUSH1 0x1 PUSH0 PUSH2 0x100 EXP DUP2 SLOAD DUP2 PUSH20 0xFFFFFFFFFFFFFFFFFFFFFFFFFFFFFFFFFFFFFFFF MUL NOT AND SWAP1 DUP4 PUSH20 0xFFFFFFFFFFFFFFFFFFFFFFFFFFFFFFFFFFFFFFFF AND MUL OR SWAP1 SSTORE POP POP JUMP JUMPDEST PUSH2 0x477 PUSH2 0x115D JUMP JUMPDEST PUSH2 0x480 PUSH0 PUSH2 0x147A JUMP JUMPDEST JUMP JUMPDEST PUSH0 DUP1 PUSH2 0x48C PUSH2 0x154B JUMP JUMPDEST SWAP1 POP DUP1 PUSH0 ADD PUSH0 SWAP1 SLOAD SWAP1 PUSH2 0x100 EXP SWAP1 DIV PUSH20 0xFFFFFFFFFFFFFFFFFFFFFFFFFFFFFFFFFFFFFFFF AND SWAP2 POP POP SWAP1 JUMP JUMPDEST PUSH1 0x3 PUSH0 SWAP1 SLOAD SWAP1 PUSH2 0x100 EXP SWAP1 DIV PUSH20 0xFFFFFFFFFFFFFFFFFFFFFFFFFFFFFFFFFFFFFFFF AND DUP2 JUMP JUMPDEST PUSH1 0x40 MLOAD DUP1 PUSH1 0x40 ADD PUSH1 0x40 MSTORE DUP1 PUSH1 0x5 DUP2 MSTORE PUSH1 0x20 ADD PUSH32 0x352E302E30000000000000000000000000000000000000000000000000000000 DUP2 MSTORE POP DUP2 JUMP JUMPDEST PUSH0 DUP1 PUSH0 DUP1 PUSH0 SWAP1 SLOAD SWAP1 PUSH2 0x100 EXP SWAP1 DIV PUSH20 0xFFFFFFFFFFFFFFFFFFFFFFFFFFFFFFFFFFFFFFFF AND PUSH20 0xFFFFFFFFFFFFFFFFFFFFFFFFFFFFFFFFFFFFFFFF AND PUSH4 0x99664245 DUP6 PUSH1 0x40 MLOAD DUP3 PUSH4 0xFFFFFFFF AND PUSH1 0xE0 SHL DUP2 MSTORE PUSH1 0x4 ADD PUSH2 0x571 SWAP2 SWAP1 PUSH2 0x2070 JUMP JUMPDEST PUSH0 PUSH1 0x40 MLOAD DUP1 DUP4 SUB DUP2 DUP7 GAS STATICCALL ISZERO DUP1 ISZERO PUSH2 0x58B JUMPI RETURNDATASIZE PUSH0 DUP1 RETURNDATACOPY RETURNDATASIZE PUSH0 REVERT JUMPDEST POP POP POP POP PUSH1 0x40 MLOAD RETURNDATASIZE PUSH0 DUP3 RETURNDATACOPY RETURNDATASIZE PUSH1 0x1F NOT PUSH1 0x1F DUP3 ADD AND DUP3 ADD DUP1 PUSH1 0x40 MSTORE POP DUP2 ADD SWAP1 PUSH2 0x5B3 SWAP2 SWAP1 PUSH2 0x2172 JUMP JUMPDEST POP SWAP7 POP SWAP7 POP POP SWAP6 POP POP POP POP PUSH0 PUSH20 0xFFFFFFFFFFFFFFFFFFFFFFFFFFFFFFFFFFFFFFFF AND DUP4 PUSH20 0xFFFFFFFFFFFFFFFFFFFFFFFFFFFFFFFFFFFFFFFF AND SUB PUSH2 0x62C JUMPI PUSH1 0x40 MLOAD PUSH32 0x8C379A000000000000000000000000000000000000000000000000000000000 DUP2 MSTORE PUSH1 0x4 ADD PUSH2 0x623 SWAP1 PUSH2 0x22C1 JUMP JUMPDEST PUSH1 0x40 MLOAD DUP1 SWAP2 SUB SWAP1 REVERT JUMPDEST PUSH0 DUP1 PUSH0 SWAP1 SLOAD SWAP1 PUSH2 0x100 EXP SWAP1 DIV PUSH20 0xFFFFFFFFFFFFFFFFFFFFFFFFFFFFFFFFFFFFFFFF AND PUSH20 0xFFFFFFFFFFFFFFFFFFFFFFFFFFFFFFFFFFFFFFFF AND PUSH4 0xEAE99E0D DUP7 PUSH1 0x40 MLOAD DUP3 PUSH4 0xFFFFFFFF AND PUSH1 0xE0 SHL DUP2 MSTORE PUSH1 0x4 ADD PUSH2 0x686 SWAP2 SWAP1 PUSH2 0x2070 JUMP JUMPDEST PUSH1 0x20 PUSH1 0x40 MLOAD DUP1 DUP4 SUB DUP2 DUP7 GAS STATICCALL ISZERO DUP1 ISZERO PUSH2 0x6A1 JUMPI RETURNDATASIZE PUSH0 DUP1 RETURNDATACOPY RETURNDATASIZE PUSH0 REVERT JUMPDEST POP POP POP POP PUSH1 0x40 MLOAD RETURNDATASIZE PUSH1 0x1F NOT PUSH1 0x1F DUP3 ADD AND DUP3 ADD DUP1 PUSH1 0x40 MSTORE POP DUP2 ADD SWAP1 PUSH2 0x6C5 SWAP2 SWAP1 PUSH2 0x22DF JUMP JUMPDEST SWAP1 POP DUP1 TIMESTAMP LT ISZERO PUSH2 0x70A JUMPI PUSH1 0x40 MLOAD PUSH32 0x8C379A000000000000000000000000000000000000000000000000000000000 DUP2 MSTORE PUSH1 0x4 ADD PUSH2 0x701 SWAP1 PUSH2 0x237A JUMP JUMPDEST PUSH1 0x40 MLOAD DUP1 SWAP2 SUB SWAP1 REVERT JUMPDEST PUSH0 PUSH1 0x1 DUP2 GT ISZERO PUSH2 0x71D JUMPI PUSH2 0x71C PUSH2 0x2398 JUMP JUMPDEST JUMPDEST DUP4 PUSH1 0x1 DUP2 GT ISZERO PUSH2 0x730 JUMPI PUSH2 0x72F PUSH2 0x2398 JUMP JUMPDEST JUMPDEST SUB PUSH2 0xA2E JUMPI PUSH0 DUP1 SLOAD SWAP1 PUSH2 0x100 EXP SWAP1 DIV PUSH20 0xFFFFFFFFFFFFFFFFFFFFFFFFFFFFFFFFFFFFFFFF AND PUSH20 0xFFFFFFFFFFFFFFFFFFFFFFFFFFFFFFFFFFFFFFFF AND PUSH4 0xFA54D3D9 DUP7 PUSH1 0x1 PUSH1 0x40 MLOAD DUP4 PUSH4 0xFFFFFFFF AND PUSH1 0xE0 SHL DUP2 MSTORE PUSH1 0x4 ADD PUSH2 0x790 SWAP3 SWAP2 SWAP1 PUSH2 0x240B JUMP JUMPDEST PUSH0 PUSH1 0x40 MLOAD DUP1 DUP4 SUB DUP2 PUSH0 DUP8 DUP1 EXTCODESIZE ISZERO DUP1 ISZERO PUSH2 0x7A7 JUMPI PUSH0 DUP1 REVERT JUMPDEST POP GAS CALL ISZERO DUP1 ISZERO PUSH2 0x7B9 JUMPI RETURNDATASIZE PUSH0 DUP1 RETURNDATACOPY RETURNDATASIZE PUSH0 REVERT JUMPDEST POP POP POP POP PUSH0 PUSH1 0x2 PUSH0 SWAP1 SLOAD SWAP1 PUSH2 0x100 EXP SWAP1 DIV PUSH20 0xFFFFFFFFFFFFFFFFFFFFFFFFFFFFFFFFFFFFFFFF AND PUSH20 0xFFFFFFFFFFFFFFFFFFFFFFFFFFFFFFFFFFFFFFFF AND PUSH4 0x8EC2C82B DUP8 DUP6 PUSH1 0x40 MLOAD DUP4 PUSH4 0xFFFFFFFF AND PUSH1 0xE0 SHL DUP2 MSTORE PUSH1 0x4 ADD PUSH2 0x81A SWAP3 SWAP2 SWAP1 PUSH2 0x2432 JUMP JUMPDEST PUSH0 PUSH1 0x40 MLOAD DUP1 DUP4 SUB DUP2 DUP7 GAS STATICCALL ISZERO DUP1 ISZERO PUSH2 0x834 JUMPI RETURNDATASIZE PUSH0 DUP1 RETURNDATACOPY RETURNDATASIZE PUSH0 REVERT JUMPDEST POP POP POP POP PUSH1 0x40 MLOAD RETURNDATASIZE PUSH0 DUP3 RETURNDATACOPY RETURNDATASIZE PUSH1 0x1F NOT PUSH1 0x1F DUP3 ADD AND DUP3 ADD DUP1 PUSH1 0x40 MSTORE POP DUP2 ADD SWAP1 PUSH2 0x85C SWAP2 SWAP1 PUSH2 0x251D JUMP JUMPDEST SWAP1 POP PUSH0 DUP2 MLOAD GT PUSH2 0x8A1 JUMPI PUSH1 0x40 MLOAD PUSH32 0x8C379A000000000000000000000000000000000000000000000000000000000 DUP2 MSTORE PUSH1 0x4 ADD PUSH2 0x898 SWAP1 PUSH2 0x25AE JUMP JUMPDEST PUSH1 0x40 MLOAD DUP1 SWAP2 SUB SWAP1 REVERT JUMPDEST PUSH1 0x2 PUSH0 SWAP1 SLOAD SWAP1 PUSH2 0x100 EXP SWAP1 DIV PUSH20 0xFFFFFFFFFFFFFFFFFFFFFFFFFFFFFFFFFFFFFFFF AND PUSH20 0xFFFFFFFFFFFFFFFFFFFFFFFFFFFFFFFFFFFFFFFF AND PUSH4 0x690EC8D1 DUP8 PUSH1 0x40 MLOAD DUP3 PUSH4 0xFFFFFFFF AND PUSH1 0xE0 SHL DUP2 MSTORE PUSH1 0x4 ADD PUSH2 0x8FB SWAP2 SWAP1 PUSH2 0x2070 JUMP JUMPDEST PUSH0 PUSH1 0x40 MLOAD DUP1 DUP4 SUB DUP2 PUSH0 DUP8 DUP1 EXTCODESIZE ISZERO DUP1 ISZERO PUSH2 0x912 JUMPI PUSH0 DUP1 REVERT JUMPDEST POP GAS CALL ISZERO DUP1 ISZERO PUSH2 0x924 JUMPI RETURNDATASIZE PUSH0 DUP1 RETURNDATACOPY RETURNDATASIZE PUSH0 REVERT JUMPDEST POP POP POP POP PUSH0 DUP1 SLOAD SWAP1 PUSH2 0x100 EXP SWAP1 DIV PUSH20 0xFFFFFFFFFFFFFFFFFFFFFFFFFFFFFFFFFFFFFFFF AND PUSH20 0xFFFFFFFFFFFFFFFFFFFFFFFFFFFFFFFFFFFFFFFF AND PUSH4 0x611AB368 DUP8 PUSH1 0x1 TIMESTAMP PUSH2 0x971 SWAP2 SWAP1 PUSH2 0x25F9 JUMP JUMPDEST PUSH1 0x40 MLOAD DUP4 PUSH4 0xFFFFFFFF AND PUSH1 0xE0 SHL DUP2 MSTORE PUSH1 0x4 ADD PUSH2 0x98E SWAP3 SWAP2 SWAP1 PUSH2 0x2432 JUMP JUMPDEST PUSH0 PUSH1 0x40 MLOAD DUP1 DUP4 SUB DUP2 PUSH0 DUP8 DUP1 EXTCODESIZE ISZERO DUP1 ISZERO PUSH2 0x9A5 JUMPI PUSH0 DUP1 REVERT JUMPDEST POP GAS CALL ISZERO DUP1 ISZERO PUSH2 0x9B7 JUMPI RETURNDATASIZE PUSH0 DUP1 RETURNDATACOPY RETURNDATASIZE PUSH0 REVERT JUMPDEST POP POP POP POP PUSH0 PUSH2 0x9C5 DUP8 PUSH2 0x1572 JUMP JUMPDEST PUSH2 0x9CE DUP6 PUSH2 0x1572 JUMP JUMPDEST PUSH1 0x40 MLOAD PUSH1 0x20 ADD PUSH2 0x9DF SWAP3 SWAP2 SWAP1 PUSH2 0x26B0 JUMP JUMPDEST PUSH1 0x40 MLOAD PUSH1 0x20 DUP2 DUP4 SUB SUB DUP2 MSTORE SWAP1 PUSH1 0x40 MSTORE SWAP1 POP PUSH32 0x9E1871A2896FD899E76FB1AEF1C66629254ADDFF8DE93370420922401C7EB218 DUP2 PUSH1 0x40 MLOAD PUSH2 0xA1F SWAP2 SWAP1 PUSH2 0x1F71 JUMP JUMPDEST PUSH1 0x40 MLOAD DUP1 SWAP2 SUB SWAP1 LOG1 POP POP PUSH2 0xE6A JUMP JUMPDEST PUSH0 DUP1 SLOAD SWAP1 PUSH2 0x100 EXP SWAP1 DIV PUSH20 0xFFFFFFFFFFFFFFFFFFFFFFFFFFFFFFFFFFFFFFFF AND PUSH20 0xFFFFFFFFFFFFFFFFFFFFFFFFFFFFFFFFFFFFFFFF AND PUSH4 0xFA54D3D9 DUP7 PUSH0 PUSH1 0x40 MLOAD DUP4 PUSH4 0xFFFFFFFF AND PUSH1 0xE0 SHL DUP2 MSTORE PUSH1 0x4 ADD PUSH2 0xA88 SWAP3 SWAP2 SWAP1 PUSH2 0x240B JUMP JUMPDEST PUSH0 PUSH1 0x40 MLOAD DUP1 DUP4 SUB DUP2 PUSH0 DUP8 DUP1 EXTCODESIZE ISZERO DUP1 ISZERO PUSH2 0xA9F JUMPI PUSH0 DUP1 REVERT JUMPDEST POP GAS CALL ISZERO DUP1 ISZERO PUSH2 0xAB1 JUMPI RETURNDATASIZE PUSH0 DUP1 RETURNDATACOPY RETURNDATASIZE PUSH0 REVERT JUMPDEST POP POP POP POP PUSH0 DUP1 SLOAD SWAP1 PUSH2 0x100 EXP SWAP1 DIV PUSH20 0xFFFFFFFFFFFFFFFFFFFFFFFFFFFFFFFFFFFFFFFF AND PUSH20 0xFFFFFFFFFFFFFFFFFFFFFFFFFFFFFFFFFFFFFFFF AND PUSH4 0x44A2074C DUP7 PUSH1 0x40 MLOAD DUP3 PUSH4 0xFFFFFFFF AND PUSH1 0xE0 SHL DUP2 MSTORE PUSH1 0x4 ADD PUSH2 0xB0D SWAP2 SWAP1 PUSH2 0x2070 JUMP JUMPDEST PUSH0 PUSH1 0x40 MLOAD DUP1 DUP4 SUB DUP2 PUSH0 DUP8 DUP1 EXTCODESIZE ISZERO DUP1 ISZERO PUSH2 0xB24 JUMPI PUSH0 DUP1 REVERT JUMPDEST POP GAS CALL ISZERO DUP1 ISZERO PUSH2 0xB36 JUMPI RETURNDATASIZE PUSH0 DUP1 RETURNDATACOPY RETURNDATASIZE PUSH0 REVERT JUMPDEST POP POP POP POP PUSH1 0x1 PUSH0 SWAP1 SLOAD SWAP1 PUSH2 0x100 EXP SWAP1 DIV PUSH20 0xFFFFFFFFFFFFFFFFFFFFFFFFFFFFFFFFFFFFFFFF AND PUSH20 0xFFFFFFFFFFFFFFFFFFFFFFFFFFFFFFFFFFFFFFFF AND PUSH4 0x33718CE8 DUP7 DUP5 PUSH1 0x40 MLOAD DUP4 PUSH4 0xFFFFFFFF AND PUSH1 0xE0 SHL DUP2 MSTORE PUSH1 0x4 ADD PUSH2 0xB96 SWAP3 SWAP2 SWAP1 PUSH2 0x2432 JUMP JUMPDEST PUSH0 PUSH1 0x40 MLOAD DUP1 DUP4 SUB DUP2 PUSH0 DUP8 DUP1 EXTCODESIZE ISZERO DUP1 ISZERO PUSH2 0xBAD JUMPI PUSH0 DUP1 REVERT JUMPDEST POP GAS CALL ISZERO DUP1 ISZERO PUSH2 0xBBF JUMPI RETURNDATASIZE PUSH0 DUP1 RETURNDATACOPY RETURNDATASIZE PUSH0 REVERT JUMPDEST POP POP POP POP PUSH1 0x2 PUSH0 SWAP1 SLOAD SWAP1 PUSH2 0x100 EXP SWAP1 DIV PUSH20 0xFFFFFFFFFFFFFFFFFFFFFFFFFFFFFFFFFFFFFFFF AND PUSH20 0xFFFFFFFFFFFFFFFFFFFFFFFFFFFFFFFFFFFFFFFF AND PUSH4 0x5AE25992 DUP7 PUSH1 0x40 MLOAD DUP3 PUSH4 0xFFFFFFFF AND PUSH1 0xE0 SHL DUP2 MSTORE PUSH1 0x4 ADD PUSH2 0xC1D SWAP2 SWAP1 PUSH2 0x2070 JUMP JUMPDEST PUSH0 PUSH1 0x40 MLOAD DUP1 DUP4 SUB DUP2 PUSH0 DUP8 DUP1 EXTCODESIZE ISZERO DUP1 ISZERO PUSH2 0xC34 JUMPI PUSH0 DUP1 REVERT JUMPDEST POP GAS CALL ISZERO DUP1 ISZERO PUSH2 0xC46 JUMPI RETURNDATASIZE PUSH0 DUP1 RETURNDATACOPY RETURNDATASIZE PUSH0 REVERT JUMPDEST POP POP POP POP PUSH0 DUP1 PUSH0 SWAP1 SLOAD SWAP1 PUSH2 0x100 EXP SWAP1 DIV PUSH20 0xFFFFFFFFFFFFFFFFFFFFFFFFFFFFFFFFFFFFFFFF AND PUSH20 0xFFFFFFFFFFFFFFFFFFFFFFFFFFFFFFFFFFFFFFFF AND PUSH4 0x7199EE48 DUP8 PUSH1 0x40 MLOAD DUP3 PUSH4 0xFFFFFFFF AND PUSH1 0xE0 SHL DUP2 MSTORE PUSH1 0x4 ADD PUSH2 0xCA4 SWAP2 SWAP1 PUSH2 0x2070 JUMP JUMPDEST PUSH0 PUSH1 0x40 MLOAD DUP1 DUP4 SUB DUP2 DUP7 GAS STATICCALL ISZERO DUP1 ISZERO PUSH2 0xCBE JUMPI RETURNDATASIZE PUSH0 DUP1 RETURNDATACOPY RETURNDATASIZE PUSH0 REVERT JUMPDEST POP POP POP POP PUSH1 0x40 MLOAD RETURNDATASIZE PUSH0 DUP3 RETURNDATACOPY RETURNDATASIZE PUSH1 0x1F NOT PUSH1 0x1F DUP3 ADD AND DUP3 ADD DUP1 PUSH1 0x40 MSTORE POP DUP2 ADD SWAP1 PUSH2 0xCE6 SWAP2 SWAP1 PUSH2 0x27BC JUMP JUMPDEST POP SWAP1 POP PUSH1 0x3 PUSH0 SWAP1 SLOAD SWAP1 PUSH2 0x100 EXP SWAP1 DIV PUSH20 0xFFFFFFFFFFFFFFFFFFFFFFFFFFFFFFFFFFFFFFFF AND PUSH20 0xFFFFFFFFFFFFFFFFFFFFFFFFFFFFFFFFFFFFFFFF AND PUSH4 0x69C43915 DUP8 DUP4 PUSH1 0x40 MLOAD DUP4 PUSH4 0xFFFFFFFF AND PUSH1 0xE0 SHL DUP2 MSTORE PUSH1 0x4 ADD PUSH2 0xD45 SWAP3 SWAP2 SWAP1 PUSH2 0x28E9 JUMP JUMPDEST PUSH0 PUSH1 0x40 MLOAD DUP1 DUP4 SUB DUP2 PUSH0 DUP8 DUP1 EXTCODESIZE ISZERO DUP1 ISZERO PUSH2 0xD5C JUMPI PUSH0 DUP1 REVERT JUMPDEST POP GAS CALL ISZERO DUP1 ISZERO PUSH2 0xD6E JUMPI RETURNDATASIZE PUSH0 DUP1 RETURNDATACOPY RETURNDATASIZE PUSH0 REVERT JUMPDEST POP POP POP POP PUSH0 DUP1 SLOAD SWAP1 PUSH2 0x100 EXP SWAP1 DIV PUSH20 0xFFFFFFFFFFFFFFFFFFFFFFFFFFFFFFFFFFFFFFFF AND PUSH20 0xFFFFFFFFFFFFFFFFFFFFFFFFFFFFFFFFFFFFFFFF AND PUSH4 0x611AB368 DUP8 PUSH1 0x1 TIMESTAMP PUSH2 0xDBB SWAP2 SWAP1 PUSH2 0x25F9 JUMP JUMPDEST PUSH1 0x40 MLOAD DUP4 PUSH4 0xFFFFFFFF AND PUSH1 0xE0 SHL DUP2 MSTORE PUSH1 0x4 ADD PUSH2 0xDD8 SWAP3 SWAP2 SWAP1 PUSH2 0x2432 JUMP JUMPDEST PUSH0 PUSH1 0x40 MLOAD DUP1 DUP4 SUB DUP2 PUSH0 DUP8 DUP1 EXTCODESIZE ISZERO DUP1 ISZERO PUSH2 0xDEF JUMPI PUSH0 DUP1 REVERT JUMPDEST POP GAS CALL ISZERO DUP1 ISZERO PUSH2 0xE01 JUMPI RETURNDATASIZE PUSH0 DUP1 RETURNDATACOPY RETURNDATASIZE PUSH0 REVERT JUMPDEST POP POP POP POP PUSH0 PUSH2 0xE0F DUP8 PUSH2 0x1572 JUMP JUMPDEST PUSH1 0x40 MLOAD PUSH1 0x20 ADD PUSH2 0xE1F SWAP2 SWAP1 PUSH2 0x2917 JUMP JUMPDEST PUSH1 0x40 MLOAD PUSH1 0x20 DUP2 DUP4 SUB SUB DUP2 MSTORE SWAP1 PUSH1 0x40 MSTORE SWAP1 POP PUSH32 0xB72D3B0FF08B267C8DB675DB62D13B3C4FDCF916A22E2967BFAA8CAB88FFD422 DUP2 PUSH1 0x40 MLOAD PUSH2 0xE5F SWAP2 SWAP1 PUSH2 0x1F71 JUMP JUMPDEST PUSH1 0x40 MLOAD DUP1 SWAP2 SUB SWAP1 LOG1 POP POP JUMPDEST POP POP POP POP POP JUMP JUMPDEST PUSH0 PUSH2 0xE7A PUSH2 0x163C JUMP JUMPDEST SWAP1 POP PUSH0 DUP2 PUSH0 ADD PUSH1 0x8 SWAP1 SLOAD SWAP1 PUSH2 0x100 EXP SWAP1 DIV PUSH1 0xFF AND ISZERO SWAP1 POP PUSH0 DUP3 PUSH0 ADD PUSH0 SWAP1 SLOAD SWAP1 PUSH2 0x100 EXP SWAP1 DIV PUSH8 0xFFFFFFFFFFFFFFFF AND SWAP1 POP PUSH0 DUP1 DUP3 PUSH8 0xFFFFFFFFFFFFFFFF AND EQ DUP1 ISZERO PUSH2 0xEC2 JUMPI POP DUP3 JUMPDEST SWAP1 POP PUSH0 PUSH1 0x1 DUP4 PUSH8 0xFFFFFFFFFFFFFFFF AND EQ DUP1 ISZERO PUSH2 0xEF5 JUMPI POP PUSH0 ADDRESS PUSH20 0xFFFFFFFFFFFFFFFFFFFFFFFFFFFFFFFFFFFFFFFF AND EXTCODESIZE EQ JUMPDEST SWAP1 POP DUP2 ISZERO DUP1 ISZERO PUSH2 0xF03 JUMPI POP DUP1 ISZERO JUMPDEST ISZERO PUSH2 0xF3A JUMPI PUSH1 0x40 MLOAD PUSH32 0xF92EE8A900000000000000000000000000000000000000000000000000000000 DUP2 MSTORE PUSH1 0x4 ADD PUSH1 0x40 MLOAD DUP1 SWAP2 SUB SWAP1 REVERT JUMPDEST PUSH1 0x1 DUP6 PUSH0 ADD PUSH0 PUSH2 0x100 EXP DUP2 SLOAD DUP2 PUSH8 0xFFFFFFFFFFFFFFFF MUL NOT AND SWAP1 DUP4 PUSH8 0xFFFFFFFFFFFFFFFF AND MUL OR SWAP1 SSTORE POP DUP4 ISZERO PUSH2 0xF87 JUMPI PUSH1 0x1 DUP6 PUSH0 ADD PUSH1 0x8 PUSH2 0x100 EXP DUP2 SLOAD DUP2 PUSH1 0xFF MUL NOT AND SWAP1 DUP4 ISZERO ISZERO MUL OR SWAP1 SSTORE POP JUMPDEST PUSH2 0xF90 DUP7 PUSH2 0x1663 JUMP JUMPDEST PUSH2 0xF98 PUSH2 0x1677 JUMP JUMPDEST DUP4 ISZERO PUSH2 0xFF2 JUMPI PUSH0 DUP6 PUSH0 ADD PUSH1 0x8 PUSH2 0x100 EXP DUP2 SLOAD DUP2 PUSH1 0xFF MUL NOT AND SWAP1 DUP4 ISZERO ISZERO MUL OR SWAP1 SSTORE POP PUSH32 0xC7F505B2F371AE2175EE4913F4499E1F2633A7B5936321EED1CDAEB6115181D2 PUSH1 0x1 PUSH1 0x40 MLOAD PUSH2 0xFE9 SWAP2 SWAP1 PUSH2 0x2979 JUMP JUMPDEST PUSH1 0x40 MLOAD DUP1 SWAP2 SUB SWAP1 LOG1 JUMPDEST POP POP POP POP POP POP JUMP JUMPDEST PUSH2 0x1002 PUSH2 0x115D JUMP JUMPDEST DUP1 PUSH0 DUP1 PUSH2 0x100 EXP DUP2 SLOAD DUP2 PUSH20 0xFFFFFFFFFFFFFFFFFFFFFFFFFFFFFFFFFFFFFFFF MUL NOT AND SWAP1 DUP4 PUSH20 0xFFFFFFFFFFFFFFFFFFFFFFFFFFFFFFFFFFFFFFFF AND MUL OR SWAP1 SSTORE POP POP JUMP JUMPDEST PUSH2 0x104C PUSH2 0x115D JUMP JUMPDEST DUP1 PUSH1 0x2 PUSH0 PUSH2 0x100 EXP DUP2 SLOAD DUP2 PUSH20 0xFFFFFFFFFFFFFFFFFFFFFFFFFFFFFFFFFFFFFFFF MUL NOT AND SWAP1 DUP4 PUSH20 0xFFFFFFFFFFFFFFFFFFFFFFFFFFFFFFFFFFFFFFFF AND MUL OR SWAP1 SSTORE POP POP JUMP JUMPDEST PUSH1 0x2 PUSH0 SWAP1 SLOAD SWAP1 PUSH2 0x100 EXP SWAP1 DIV PUSH20 0xFFFFFFFFFFFFFFFFFFFFFFFFFFFFFFFFFFFFFFFF AND DUP2 JUMP JUMPDEST PUSH2 0x10BC PUSH2 0x115D JUMP JUMPDEST PUSH0 PUSH20 0xFFFFFFFFFFFFFFFFFFFFFFFFFFFFFFFFFFFFFFFF AND DUP2 PUSH20 0xFFFFFFFFFFFFFFFFFFFFFFFFFFFFFFFFFFFFFFFF AND SUB PUSH2 0x112C JUMPI PUSH0 PUSH1 0x40 MLOAD PUSH32 0x1E4FBDF700000000000000000000000000000000000000000000000000000000 DUP2 MSTORE PUSH1 0x4 ADD PUSH2 0x1123 SWAP2 SWAP1 PUSH2 0x1EBF JUMP JUMPDEST PUSH1 0x40 MLOAD DUP1 SWAP2 SUB SWAP1 REVERT JUMPDEST PUSH2 0x1135 DUP2 PUSH2 0x147A JUMP JUMPDEST POP JUMP JUMPDEST PUSH1 0x1 PUSH0 SWAP1 SLOAD SWAP1 PUSH2 0x100 EXP SWAP1 DIV PUSH20 0xFFFFFFFFFFFFFFFFFFFFFFFFFFFFFFFFFFFFFFFF AND DUP2 JUMP JUMPDEST PUSH2 0x1165 PUSH2 0x1681 JUMP JUMPDEST PUSH20 0xFFFFFFFFFFFFFFFFFFFFFFFFFFFFFFFFFFFFFFFF AND PUSH2 0x1183 PUSH2 0x482 JUMP JUMPDEST PUSH20 0xFFFFFFFFFFFFFFFFFFFFFFFFFFFFFFFFFFFFFFFF AND EQ PUSH2 0x11E2 JUMPI PUSH2 0x11A6 PUSH2 0x1681 JUMP JUMPDEST PUSH1 0x40 MLOAD PUSH32 0x118CDAA700000000000000000000000000000000000000000000000000000000 DUP2 MSTORE PUSH1 0x4 ADD PUSH2 0x11D9 SWAP2 SWAP1 PUSH2 0x1EBF JUMP JUMPDEST PUSH1 0x40 MLOAD DUP1 SWAP2 SUB SWAP1 REVERT JUMPDEST JUMP JUMPDEST PUSH32 0x0 PUSH20 0xFFFFFFFFFFFFFFFFFFFFFFFFFFFFFFFFFFFFFFFF AND ADDRESS PUSH20 0xFFFFFFFFFFFFFFFFFFFFFFFFFFFFFFFFFFFFFFFF AND EQ DUP1 PUSH2 0x1291 JUMPI POP PUSH32 0x0 PUSH20 0xFFFFFFFFFFFFFFFFFFFFFFFFFFFFFFFFFFFFFFFF AND PUSH2 0x1278 PUSH2 0x1688 JUMP JUMPDEST PUSH20 0xFFFFFFFFFFFFFFFFFFFFFFFFFFFFFFFFFFFFFFFF AND EQ ISZERO JUMPDEST ISZERO PUSH2 0x12C8 JUMPI PUSH1 0x40 MLOAD PUSH32 0xE07C8DBA00000000000000000000000000000000000000000000000000000000 DUP2 MSTORE PUSH1 0x4 ADD PUSH1 0x40 MLOAD DUP1 SWAP2 SUB SWAP1 REVERT JUMPDEST JUMP JUMPDEST PUSH2 0x12D2 PUSH2 0x115D JUMP JUMPDEST POP JUMP JUMPDEST DUP2 PUSH20 0xFFFFFFFFFFFFFFFFFFFFFFFFFFFFFFFFFFFFFFFF AND PUSH4 0x52D1902D PUSH1 0x40 MLOAD DUP2 PUSH4 0xFFFFFFFF AND PUSH1 0xE0 SHL DUP2 MSTORE PUSH1 0x4 ADD PUSH1 0x20 PUSH1 0x40 MLOAD DUP1 DUP4 SUB DUP2 DUP7 GAS STATICCALL SWAP3 POP POP POP DUP1 ISZERO PUSH2 0x133D JUMPI POP PUSH1 0x40 MLOAD RETURNDATASIZE PUSH1 0x1F NOT PUSH1 0x1F DUP3 ADD AND DUP3 ADD DUP1 PUSH1 0x40 MSTORE POP DUP2 ADD SWAP1 PUSH2 0x133A SWAP2 SWAP1 PUSH2 0x29BC JUMP JUMPDEST PUSH1 0x1 JUMPDEST PUSH2 0x137E JUMPI DUP2 PUSH1 0x40 MLOAD PUSH32 0x4C9C8CE300000000000000000000000000000000000000000000000000000000 DUP2 MSTORE PUSH1 0x4 ADD PUSH2 0x1375 SWAP2 SWAP1 PUSH2 0x1EBF JUMP JUMPDEST PUSH1 0x40 MLOAD DUP1 SWAP2 SUB SWAP1 REVERT JUMPDEST PUSH32 0x360894A13BA1A3210667C828492DB98DCA3E2076CC3735A920A3CA505D382BBC PUSH0 SHL DUP2 EQ PUSH2 0x13E4 JUMPI DUP1 PUSH1 0x40 MLOAD PUSH32 0xAA1D49A400000000000000000000000000000000000000000000000000000000 DUP2 MSTORE PUSH1 0x4 ADD PUSH2 0x13DB SWAP2 SWAP1 PUSH2 0x1E97 JUMP JUMPDEST PUSH1 0x40 MLOAD DUP1 SWAP2 SUB SWAP1 REVERT JUMPDEST PUSH2 0x13EE DUP4 DUP4 PUSH2 0x16DB JUMP JUMPDEST POP POP POP JUMP JUMPDEST PUSH32 0x0 PUSH20 0xFFFFFFFFFFFFFFFFFFFFFFFFFFFFFFFFFFFFFFFF AND ADDRESS PUSH20 0xFFFFFFFFFFFFFFFFFFFFFFFFFFFFFFFFFFFFFFFF AND EQ PUSH2 0x1478 JUMPI PUSH1 0x40 MLOAD PUSH32 0xE07C8DBA00000000000000000000000000000000000000000000000000000000 DUP2 MSTORE PUSH1 0x4 ADD PUSH1 0x40 MLOAD DUP1 SWAP2 SUB SWAP1 REVERT JUMPDEST JUMP JUMPDEST PUSH0 PUSH2 0x1483 PUSH2 0x154B JUMP JUMPDEST SWAP1 POP PUSH0 DUP2 PUSH0 ADD PUSH0 SWAP1 SLOAD SWAP1 PUSH2 0x100 EXP SWAP1 DIV PUSH20 0xFFFFFFFFFFFFFFFFFFFFFFFFFFFFFFFFFFFFFFFF AND SWAP1 POP DUP3 DUP3 PUSH0 ADD PUSH0 PUSH2 0x100 EXP DUP2 SLOAD DUP2 PUSH20 0xFFFFFFFFFFFFFFFFFFFFFFFFFFFFFFFFFFFFFFFF MUL NOT AND SWAP1 DUP4 PUSH20 0xFFFFFFFFFFFFFFFFFFFFFFFFFFFFFFFFFFFFFFFF AND MUL OR SWAP1 SSTORE POP DUP3 PUSH20 0xFFFFFFFFFFFFFFFFFFFFFFFFFFFFFFFFFFFFFFFF AND DUP2 PUSH20 0xFFFFFFFFFFFFFFFFFFFFFFFFFFFFFFFFFFFFFFFF AND PUSH32 0x8BE0079C531659141344CD1FD0A4F28419497F9722A3DAAFE3B4186F6B6457E0 PUSH1 0x40 MLOAD PUSH1 0x40 MLOAD DUP1 SWAP2 SUB SWAP1 LOG3 POP POP POP JUMP JUMPDEST PUSH0 PUSH32 0x9016D09D72D40FDAE2FD8CEAC6B6234C7706214FD39C1CD1E609A0528C199300 SWAP1 POP SWAP1 JUMP JUMPDEST PUSH1 0x60 PUSH0 PUSH1 0x1 PUSH2 0x1580 DUP5 PUSH2 0x174D JUMP JUMPDEST ADD SWAP1 POP PUSH0 DUP2 PUSH8 0xFFFFFFFFFFFFFFFF DUP2 GT ISZERO PUSH2 0x159E JUMPI PUSH2 0x159D PUSH2 0x1D01 JUMP JUMPDEST JUMPDEST PUSH1 0x40 MLOAD SWAP1 DUP1 DUP3 MSTORE DUP1 PUSH1 0x1F ADD PUSH1 0x1F NOT AND PUSH1 0x20 ADD DUP3 ADD PUSH1 0x40 MSTORE DUP1 ISZERO PUSH2 0x15D0 JUMPI DUP2 PUSH1 0x20 ADD PUSH1 0x1 DUP3 MUL DUP1 CALLDATASIZE DUP4 CALLDATACOPY DUP1 DUP3 ADD SWAP2 POP POP SWAP1 POP JUMPDEST POP SWAP1 POP PUSH0 DUP3 PUSH1 0x20 ADD DUP3 ADD SWAP1 POP JUMPDEST PUSH1 0x1 ISZERO PUSH2 0x1631 JUMPI DUP1 DUP1 PUSH1 0x1 SWAP1 SUB SWAP2 POP POP PUSH32 0x3031323334353637383961626364656600000000000000000000000000000000 PUSH1 0xA DUP7 MOD BYTE DUP2 MSTORE8 PUSH1 0xA DUP6 DUP2 PUSH2 0x1626 JUMPI PUSH2 0x1625 PUSH2 0x29E7 JUMP JUMPDEST JUMPDEST DIV SWAP5 POP PUSH0 DUP6 SUB PUSH2 0x15DD JUMPI JUMPDEST DUP2 SWAP4 POP POP POP POP SWAP2 SWAP1 POP JUMP JUMPDEST PUSH0 PUSH32 0xF0C57E16840DF040F15088DC2F81FE391C3923BEC73E23A9662EFC9C229C6A00 SWAP1 POP SWAP1 JUMP JUMPDEST PUSH2 0x166B PUSH2 0x189E JUMP JUMPDEST PUSH2 0x1674 DUP2 PUSH2 0x18DE JUMP JUMPDEST POP JUMP JUMPDEST PUSH2 0x167F PUSH2 0x189E JUMP JUMPDEST JUMP JUMPDEST PUSH0 CALLER SWAP1 POP SWAP1 JUMP JUMPDEST PUSH0 PUSH2 0x16B4 PUSH32 0x360894A13BA1A3210667C828492DB98DCA3E2076CC3735A920A3CA505D382BBC PUSH0 SHL PUSH2 0x1962 JUMP JUMPDEST PUSH0 ADD PUSH0 SWAP1 SLOAD SWAP1 PUSH2 0x100 EXP SWAP1 DIV PUSH20 0xFFFFFFFFFFFFFFFFFFFFFFFFFFFFFFFFFFFFFFFF AND SWAP1 POP SWAP1 JUMP JUMPDEST PUSH2 0x16E4 DUP3 PUSH2 0x196B JUMP JUMPDEST DUP2 PUSH20 0xFFFFFFFFFFFFFFFFFFFFFFFFFFFFFFFFFFFFFFFF AND PUSH32 0xBC7CD75A20EE27FD9ADEBAB32041F755214DBC6BFFA90CC0225B39DA2E5C2D3B PUSH1 0x40 MLOAD PUSH1 0x40 MLOAD DUP1 SWAP2 SUB SWAP1 LOG2 PUSH0 DUP2 MLOAD GT ISZERO PUSH2 0x1740 JUMPI PUSH2 0x173A DUP3 DUP3 PUSH2 0x1A34 JUMP JUMPDEST POP PUSH2 0x1749 JUMP JUMPDEST PUSH2 0x1748 PUSH2 0x1AB4 JUMP JUMPDEST JUMPDEST POP POP JUMP JUMPDEST PUSH0 DUP1 PUSH0 SWAP1 POP PUSH27 0x184F03E93FF9F4DAA797ED6E38ED64BF6A1F010000000000000000 DUP4 LT PUSH2 0x17A9 JUMPI PUSH27 0x184F03E93FF9F4DAA797ED6E38ED64BF6A1F010000000000000000 DUP4 DUP2 PUSH2 0x179F JUMPI PUSH2 0x179E PUSH2 0x29E7 JUMP JUMPDEST JUMPDEST DIV SWAP3 POP PUSH1 0x40 DUP2 ADD SWAP1 POP JUMPDEST PUSH14 0x4EE2D6D415B85ACEF8100000000 DUP4 LT PUSH2 0x17E6 JUMPI PUSH14 0x4EE2D6D415B85ACEF8100000000 DUP4 DUP2 PUSH2 0x17DC JUMPI PUSH2 0x17DB PUSH2 0x29E7 JUMP JUMPDEST JUMPDEST DIV SWAP3 POP PUSH1 0x20 DUP2 ADD SWAP1 POP JUMPDEST PUSH7 0x2386F26FC10000 DUP4 LT PUSH2 0x1815 JUMPI PUSH7 0x2386F26FC10000 DUP4 DUP2 PUSH2 0x180B JUMPI PUSH2 0x180A PUSH2 0x29E7 JUMP JUMPDEST JUMPDEST DIV SWAP3 POP PUSH1 0x10 DUP2 ADD SWAP1 POP JUMPDEST PUSH4 0x5F5E100 DUP4 LT PUSH2 0x183E JUMPI PUSH4 0x5F5E100 DUP4 DUP2 PUSH2 0x1834 JUMPI PUSH2 0x1833 PUSH2 0x29E7 JUMP JUMPDEST JUMPDEST DIV SWAP3 POP PUSH1 0x8 DUP2 ADD SWAP1 POP JUMPDEST PUSH2 0x2710 DUP4 LT PUSH2 0x1863 JUMPI PUSH2 0x2710 DUP4 DUP2 PUSH2 0x1859 JUMPI PUSH2 0x1858 PUSH2 0x29E7 JUMP JUMPDEST JUMPDEST DIV SWAP3 POP PUSH1 0x4 DUP2 ADD SWAP1 POP JUMPDEST PUSH1 0x64 DUP4 LT PUSH2 0x1886 JUMPI PUSH1 0x64 DUP4 DUP2 PUSH2 0x187C JUMPI PUSH2 0x187B PUSH2 0x29E7 JUMP JUMPDEST JUMPDEST DIV SWAP3 POP PUSH1 0x2 DUP2 ADD SWAP1 POP JUMPDEST PUSH1 0xA DUP4 LT PUSH2 0x1895 JUMPI PUSH1 0x1 DUP2 ADD SWAP1 POP JUMPDEST DUP1 SWAP2 POP POP SWAP2 SWAP1 POP JUMP JUMPDEST PUSH2 0x18A6 PUSH2 0x1AF0 JUMP JUMPDEST PUSH2 0x18DC JUMPI PUSH1 0x40 MLOAD PUSH32 0xD7E6BCF800000000000000000000000000000000000000000000000000000000 DUP2 MSTORE PUSH1 0x4 ADD PUSH1 0x40 MLOAD DUP1 SWAP2 SUB SWAP1 REVERT JUMPDEST JUMP JUMPDEST PUSH2 0x18E6 PUSH2 0x189E JUMP JUMPDEST PUSH0 PUSH20 0xFFFFFFFFFFFFFFFFFFFFFFFFFFFFFFFFFFFFFFFF AND DUP2 PUSH20 0xFFFFFFFFFFFFFFFFFFFFFFFFFFFFFFFFFFFFFFFF AND SUB PUSH2 0x1956 JUMPI PUSH0 PUSH1 0x40 MLOAD PUSH32 0x1E4FBDF700000000000000000000000000000000000000000000000000000000 DUP2 MSTORE PUSH1 0x4 ADD PUSH2 0x194D SWAP2 SWAP1 PUSH2 0x1EBF JUMP JUMPDEST PUSH1 0x40 MLOAD DUP1 SWAP2 SUB SWAP1 REVERT JUMPDEST PUSH2 0x195F DUP2 PUSH2 0x147A JUMP JUMPDEST POP JUMP JUMPDEST PUSH0 DUP2 SWAP1 POP SWAP2 SWAP1 POP JUMP JUMPDEST PUSH0 DUP2 PUSH20 0xFFFFFFFFFFFFFFFFFFFFFFFFFFFFFFFFFFFFFFFF AND EXTCODESIZE SUB PUSH2 0x19C6 JUMPI DUP1 PUSH1 0x40 MLOAD PUSH32 0x4C9C8CE300000000000000000000000000000000000000000000000000000000 DUP2 MSTORE PUSH1 0x4 ADD PUSH2 0x19BD SWAP2 SWAP1 PUSH2 0x1EBF JUMP JUMPDEST PUSH1 0x40 MLOAD DUP1 SWAP2 SUB SWAP1 REVERT JUMPDEST DUP1 PUSH2 0x19F2 PUSH32 0x360894A13BA1A3210667C828492DB98DCA3E2076CC3735A920A3CA505D382BBC PUSH0 SHL PUSH2 0x1962 JUMP JUMPDEST PUSH0 ADD PUSH0 PUSH2 0x100 EXP DUP2 SLOAD DUP2 PUSH20 0xFFFFFFFFFFFFFFFFFFFFFFFFFFFFFFFFFFFFFFFF MUL NOT AND SWAP1 DUP4 PUSH20 0xFFFFFFFFFFFFFFFFFFFFFFFFFFFFFFFFFFFFFFFF AND MUL OR SWAP1 SSTORE POP POP JUMP JUMPDEST PUSH1 0x60 PUSH0 DUP1 DUP5 PUSH20 0xFFFFFFFFFFFFFFFFFFFFFFFFFFFFFFFFFFFFFFFF AND DUP5 PUSH1 0x40 MLOAD PUSH2 0x1A5D SWAP2 SWAP1 PUSH2 0x2A58 JUMP JUMPDEST PUSH0 PUSH1 0x40 MLOAD DUP1 DUP4 SUB DUP2 DUP6 GAS DELEGATECALL SWAP2 POP POP RETURNDATASIZE DUP1 PUSH0 DUP2 EQ PUSH2 0x1A95 JUMPI PUSH1 0x40 MLOAD SWAP2 POP PUSH1 0x1F NOT PUSH1 0x3F RETURNDATASIZE ADD AND DUP3 ADD PUSH1 0x40 MSTORE RETURNDATASIZE DUP3 MSTORE RETURNDATASIZE PUSH0 PUSH1 0x20 DUP5 ADD RETURNDATACOPY PUSH2 0x1A9A JUMP JUMPDEST PUSH1 0x60 SWAP2 POP JUMPDEST POP SWAP2 POP SWAP2 POP PUSH2 0x1AAA DUP6 DUP4 DUP4 PUSH2 0x1B0E JUMP JUMPDEST SWAP3 POP POP POP SWAP3 SWAP2 POP POP JUMP JUMPDEST PUSH0 CALLVALUE GT ISZERO PUSH2 0x1AEE JUMPI PUSH1 0x40 MLOAD PUSH32 0xB398979F00000000000000000000000000000000000000000000000000000000 DUP2 MSTORE PUSH1 0x4 ADD PUSH1 0x40 MLOAD DUP1 SWAP2 SUB SWAP1 REVERT JUMPDEST JUMP JUMPDEST PUSH0 PUSH2 0x1AF9 PUSH2 0x163C JUMP JUMPDEST PUSH0 ADD PUSH1 0x8 SWAP1 SLOAD SWAP1 PUSH2 0x100 EXP SWAP1 DIV PUSH1 0xFF AND SWAP1 POP SWAP1 JUMP JUMPDEST PUSH1 0x60 DUP3 PUSH2 0x1B23 JUMPI PUSH2 0x1B1E DUP3 PUSH2 0x1B9B JUMP JUMPDEST PUSH2 0x1B93 JUMP JUMPDEST PUSH0 DUP3 MLOAD EQ DUP1 ISZERO PUSH2 0x1B49 JUMPI POP PUSH0 DUP5 PUSH20 0xFFFFFFFFFFFFFFFFFFFFFFFFFFFFFFFFFFFFFFFF AND EXTCODESIZE EQ JUMPDEST ISZERO PUSH2 0x1B8B JUMPI DUP4 PUSH1 0x40 MLOAD PUSH32 0x9996B31500000000000000000000000000000000000000000000000000000000 DUP2 MSTORE PUSH1 0x4 ADD PUSH2 0x1B82 SWAP2 SWAP1 PUSH2 0x1EBF JUMP JUMPDEST PUSH1 0x40 MLOAD DUP1 SWAP2 SUB SWAP1 REVERT JUMPDEST DUP2 SWAP1 POP PUSH2 0x1B94 JUMP JUMPDEST JUMPDEST SWAP4 SWAP3 POP POP POP JUMP JUMPDEST PUSH0 DUP2 MLOAD GT ISZERO PUSH2 0x1BAD JUMPI DUP1 MLOAD DUP1 DUP3 PUSH1 0x20 ADD REVERT JUMPDEST PUSH1 0x40 MLOAD PUSH32 0x1425EA4200000000000000000000000000000000000000000000000000000000 DUP2 MSTORE PUSH1 0x4 ADD PUSH1 0x40 MLOAD DUP1 SWAP2 SUB SWAP1 REVERT JUMPDEST PUSH0 PUSH20 0xFFFFFFFFFFFFFFFFFFFFFFFFFFFFFFFFFFFFFFFF DUP3 AND SWAP1 POP SWAP2 SWAP1 POP JUMP JUMPDEST PUSH0 DUP2 SWAP1 POP SWAP2 SWAP1 POP JUMP JUMPDEST PUSH0 PUSH2 0x1C21 PUSH2 0x1C1C PUSH2 0x1C17 DUP5 PUSH2 0x1BDF JUMP JUMPDEST PUSH2 0x1BFE JUMP JUMPDEST PUSH2 0x1BDF JUMP JUMPDEST SWAP1 POP SWAP2 SWAP1 POP JUMP JUMPDEST PUSH0 PUSH2 0x1C32 DUP3 PUSH2 0x1C07 JUMP JUMPDEST SWAP1 POP SWAP2 SWAP1 POP JUMP JUMPDEST PUSH0 PUSH2 0x1C43 DUP3 PUSH2 0x1C28 JUMP JUMPDEST SWAP1 POP SWAP2 SWAP1 POP JUMP JUMPDEST PUSH2 0x1C53 DUP2 PUSH2 0x1C39 JUMP JUMPDEST DUP3 MSTORE POP POP JUMP JUMPDEST PUSH0 PUSH1 0x20 DUP3 ADD SWAP1 POP PUSH2 0x1C6C PUSH0 DUP4 ADD DUP5 PUSH2 0x1C4A JUMP JUMPDEST SWAP3 SWAP2 POP POP JUMP JUMPDEST PUSH0 PUSH1 0x40 MLOAD SWAP1 POP SWAP1 JUMP JUMPDEST PUSH0 DUP1 REVERT JUMPDEST PUSH0 DUP1 REVERT JUMPDEST PUSH0 PUSH2 0x1C8D DUP3 PUSH2 0x1BDF JUMP JUMPDEST SWAP1 POP SWAP2 SWAP1 POP JUMP JUMPDEST PUSH2 0x1C9D DUP2 PUSH2 0x1C83 JUMP JUMPDEST DUP2 EQ PUSH2 0x1CA7 JUMPI PUSH0 DUP1 REVERT JUMPDEST POP JUMP JUMPDEST PUSH0 DUP2 CALLDATALOAD SWAP1 POP PUSH2 0x1CB8 DUP2 PUSH2 0x1C94 JUMP JUMPDEST SWAP3 SWAP2 POP POP JUMP JUMPDEST PUSH0 PUSH1 0x20 DUP3 DUP5 SUB SLT ISZERO PUSH2 0x1CD3 JUMPI PUSH2 0x1CD2 PUSH2 0x1C7B JUMP JUMPDEST JUMPDEST PUSH0 PUSH2 0x1CE0 DUP5 DUP3 DUP6 ADD PUSH2 0x1CAA JUMP JUMPDEST SWAP2 POP POP SWAP3 SWAP2 POP POP JUMP JUMPDEST PUSH0 DUP1 REVERT JUMPDEST PUSH0 DUP1 REVERT JUMPDEST PUSH0 PUSH1 0x1F NOT PUSH1 0x1F DUP4 ADD AND SWAP1 POP SWAP2 SWAP1 POP JUMP JUMPDEST PUSH32 0x4E487B7100000000000000000000000000000000000000000000000000000000 PUSH0 MSTORE PUSH1 0x41 PUSH1 0x4 MSTORE PUSH1 0x24 PUSH0 REVERT JUMPDEST PUSH2 0x1D37 DUP3 PUSH2 0x1CF1 JUMP JUMPDEST DUP2 ADD DUP2 DUP2 LT PUSH8 0xFFFFFFFFFFFFFFFF DUP3 GT OR ISZERO PUSH2 0x1D56 JUMPI PUSH2 0x1D55 PUSH2 0x1D01 JUMP JUMPDEST JUMPDEST DUP1 PUSH1 0x40 MSTORE POP POP POP JUMP JUMPDEST PUSH0 PUSH2 0x1D68 PUSH2 0x1C72 JUMP JUMPDEST SWAP1 POP PUSH2 0x1D74 DUP3 DUP3 PUSH2 0x1D2E JUMP JUMPDEST SWAP2 SWAP1 POP JUMP JUMPDEST PUSH0 PUSH8 0xFFFFFFFFFFFFFFFF DUP3 GT ISZERO PUSH2 0x1D93 JUMPI PUSH2 0x1D92 PUSH2 0x1D01 JUMP JUMPDEST JUMPDEST PUSH2 0x1D9C DUP3 PUSH2 0x1CF1 JUMP JUMPDEST SWAP1 POP PUSH1 0x20 DUP2 ADD SWAP1 POP SWAP2 SWAP1 POP JUMP JUMPDEST DUP3 DUP2 DUP4 CALLDATACOPY PUSH0 DUP4 DUP4 ADD MSTORE POP POP POP JUMP JUMPDEST PUSH0 PUSH2 0x1DC9 PUSH2 0x1DC4 DUP5 PUSH2 0x1D79 JUMP JUMPDEST PUSH2 0x1D5F JUMP JUMPDEST SWAP1 POP DUP3 DUP2 MSTORE PUSH1 0x20 DUP2 ADD DUP5 DUP5 DUP5 ADD GT ISZERO PUSH2 0x1DE5 JUMPI PUSH2 0x1DE4 PUSH2 0x1CED JUMP JUMPDEST JUMPDEST PUSH2 0x1DF0 DUP5 DUP3 DUP6 PUSH2 0x1DA9 JUMP JUMPDEST POP SWAP4 SWAP3 POP POP POP JUMP JUMPDEST PUSH0 DUP3 PUSH1 0x1F DUP4 ADD SLT PUSH2 0x1E0C JUMPI PUSH2 0x1E0B PUSH2 0x1CE9 JUMP JUMPDEST JUMPDEST DUP2 CALLDATALOAD PUSH2 0x1E1C DUP5 DUP3 PUSH1 0x20 DUP7 ADD PUSH2 0x1DB7 JUMP JUMPDEST SWAP2 POP POP SWAP3 SWAP2 POP POP JUMP JUMPDEST PUSH0 DUP1 PUSH1 0x40 DUP4 DUP6 SUB SLT ISZERO PUSH2 0x1E3B JUMPI PUSH2 0x1E3A PUSH2 0x1C7B JUMP JUMPDEST JUMPDEST PUSH0 PUSH2 0x1E48 DUP6 DUP3 DUP7 ADD PUSH2 0x1CAA JUMP JUMPDEST SWAP3 POP POP PUSH1 0x20 DUP4 ADD CALLDATALOAD PUSH8 0xFFFFFFFFFFFFFFFF DUP2 GT ISZERO PUSH2 0x1E69 JUMPI PUSH2 0x1E68 PUSH2 0x1C7F JUMP JUMPDEST JUMPDEST PUSH2 0x1E75 DUP6 DUP3 DUP7 ADD PUSH2 0x1DF8 JUMP JUMPDEST SWAP2 POP POP SWAP3 POP SWAP3 SWAP1 POP JUMP JUMPDEST PUSH0 DUP2 SWAP1 POP SWAP2 SWAP1 POP JUMP JUMPDEST PUSH2 0x1E91 DUP2 PUSH2 0x1E7F JUMP JUMPDEST DUP3 MSTORE POP POP JUMP JUMPDEST PUSH0 PUSH1 0x20 DUP3 ADD SWAP1 POP PUSH2 0x1EAA PUSH0 DUP4 ADD DUP5 PUSH2 0x1E88 JUMP JUMPDEST SWAP3 SWAP2 POP POP JUMP JUMPDEST PUSH2 0x1EB9 DUP2 PUSH2 0x1C83 JUMP JUMPDEST DUP3 MSTORE POP POP JUMP JUMPDEST PUSH0 PUSH1 0x20 DUP3 ADD SWAP1 POP PUSH2 0x1ED2 PUSH0 DUP4 ADD DUP5 PUSH2 0x1EB0 JUMP JUMPDEST SWAP3 SWAP2 POP POP JUMP JUMPDEST PUSH0 PUSH2 0x1EE2 DUP3 PUSH2 0x1C28 JUMP JUMPDEST SWAP1 POP SWAP2 SWAP1 POP JUMP JUMPDEST PUSH2 0x1EF2 DUP2 PUSH2 0x1ED8 JUMP JUMPDEST DUP3 MSTORE POP POP JUMP JUMPDEST PUSH0 PUSH1 0x20 DUP3 ADD SWAP1 POP PUSH2 0x1F0B PUSH0 DUP4 ADD DUP5 PUSH2 0x1EE9 JUMP JUMPDEST SWAP3 SWAP2 POP POP JUMP JUMPDEST PUSH0 DUP2 MLOAD SWAP1 POP SWAP2 SWAP1 POP JUMP JUMPDEST PUSH0 DUP3 DUP3 MSTORE PUSH1 0x20 DUP3 ADD SWAP1 POP SWAP3 SWAP2 POP POP JUMP JUMPDEST DUP3 DUP2 DUP4 MCOPY PUSH0 DUP4 DUP4 ADD MSTORE POP POP POP JUMP JUMPDEST PUSH0 PUSH2 0x1F43 DUP3 PUSH2 0x1F11 JUMP JUMPDEST PUSH2 0x1F4D DUP2 DUP6 PUSH2 0x1F1B JUMP JUMPDEST SWAP4 POP PUSH2 0x1F5D DUP2 DUP6 PUSH1 0x20 DUP7 ADD PUSH2 0x1F2B JUMP JUMPDEST PUSH2 0x1F66 DUP2 PUSH2 0x1CF1 JUMP JUMPDEST DUP5 ADD SWAP2 POP POP SWAP3 SWAP2 POP POP JUMP JUMPDEST PUSH0 PUSH1 0x20 DUP3 ADD SWAP1 POP DUP2 DUP2 SUB PUSH0 DUP4 ADD MSTORE PUSH2 0x1F89 DUP2 DUP5 PUSH2 0x1F39 JUMP JUMPDEST SWAP1 POP SWAP3 SWAP2 POP POP JUMP JUMPDEST PUSH0 DUP2 SWAP1 POP SWAP2 SWAP1 POP JUMP JUMPDEST PUSH2 0x1FA3 DUP2 PUSH2 0x1F91 JUMP JUMPDEST DUP2 EQ PUSH2 0x1FAD JUMPI PUSH0 DUP1 REVERT JUMPDEST POP JUMP JUMPDEST PUSH0 DUP2 CALLDATALOAD SWAP1 POP PUSH2 0x1FBE DUP2 PUSH2 0x1F9A JUMP JUMPDEST SWAP3 SWAP2 POP POP JUMP JUMPDEST PUSH0 PUSH1 0x20 DUP3 DUP5 SUB SLT ISZERO PUSH2 0x1FD9 JUMPI PUSH2 0x1FD8 PUSH2 0x1C7B JUMP JUMPDEST JUMPDEST PUSH0 PUSH2 0x1FE6 DUP5 DUP3 DUP6 ADD PUSH2 0x1FB0 JUMP JUMPDEST SWAP2 POP POP SWAP3 SWAP2 POP POP JUMP JUMPDEST PUSH0 PUSH2 0x1FF9 DUP3 PUSH2 0x1C28 JUMP JUMPDEST SWAP1 POP SWAP2 SWAP1 POP JUMP JUMPDEST PUSH2 0x2009 DUP2 PUSH2 0x1FEF JUMP JUMPDEST DUP3 MSTORE POP POP JUMP JUMPDEST PUSH0 PUSH1 0x20 DUP3 ADD SWAP1 POP PUSH2 0x2022 PUSH0 DUP4 ADD DUP5 PUSH2 0x2000 JUMP JUMPDEST SWAP3 SWAP2 POP POP JUMP JUMPDEST PUSH0 PUSH2 0x2032 DUP3 PUSH2 0x1C28 JUMP JUMPDEST SWAP1 POP SWAP2 SWAP1 POP JUMP JUMPDEST PUSH2 0x2042 DUP2 PUSH2 0x2028 JUMP JUMPDEST DUP3 MSTORE POP POP JUMP JUMPDEST PUSH0 PUSH1 0x20 DUP3 ADD SWAP1 POP PUSH2 0x205B PUSH0 DUP4 ADD DUP5 PUSH2 0x2039 JUMP JUMPDEST SWAP3 SWAP2 POP POP JUMP JUMPDEST PUSH2 0x206A DUP2 PUSH2 0x1F91 JUMP JUMPDEST DUP3 MSTORE POP POP JUMP JUMPDEST PUSH0 PUSH1 0x20 DUP3 ADD SWAP1 POP PUSH2 0x2083 PUSH0 DUP4 ADD DUP5 PUSH2 0x2061 JUMP JUMPDEST SWAP3 SWAP2 POP POP JUMP JUMPDEST PUSH0 PUSH8 0xFFFFFFFFFFFFFFFF DUP3 GT ISZERO PUSH2 0x20A3 JUMPI PUSH2 0x20A2 PUSH2 0x1D01 JUMP JUMPDEST JUMPDEST PUSH2 0x20AC DUP3 PUSH2 0x1CF1 JUMP JUMPDEST SWAP1 POP PUSH1 0x20 DUP2 ADD SWAP1 POP SWAP2 SWAP1 POP JUMP JUMPDEST PUSH0 PUSH2 0x20CB PUSH2 0x20C6 DUP5 PUSH2 0x2089 JUMP JUMPDEST PUSH2 0x1D5F JUMP JUMPDEST SWAP1 POP DUP3 DUP2 MSTORE PUSH1 0x20 DUP2 ADD DUP5 DUP5 DUP5 ADD GT ISZERO PUSH2 0x20E7 JUMPI PUSH2 0x20E6 PUSH2 0x1CED JUMP JUMPDEST JUMPDEST PUSH2 0x20F2 DUP5 DUP3 DUP6 PUSH2 0x1F2B JUMP JUMPDEST POP SWAP4 SWAP3 POP POP POP JUMP JUMPDEST PUSH0 DUP3 PUSH1 0x1F DUP4 ADD SLT PUSH2 0x210E JUMPI PUSH2 0x210D PUSH2 0x1CE9 JUMP JUMPDEST JUMPDEST DUP2 MLOAD PUSH2 0x211E DUP5 DUP3 PUSH1 0x20 DUP7 ADD PUSH2 0x20B9 JUMP JUMPDEST SWAP2 POP POP SWAP3 SWAP2 POP POP JUMP JUMPDEST PUSH0 DUP2 MLOAD SWAP1 POP PUSH2 0x2135 DUP2 PUSH2 0x1C94 JUMP JUMPDEST SWAP3 SWAP2 POP POP JUMP JUMPDEST PUSH0 DUP2 MLOAD SWAP1 POP PUSH2 0x2149 DUP2 PUSH2 0x1F9A JUMP JUMPDEST SWAP3 SWAP2 POP POP JUMP JUMPDEST PUSH1 0x2 DUP2 LT PUSH2 0x215B JUMPI PUSH0 DUP1 REVERT JUMPDEST POP JUMP JUMPDEST PUSH0 DUP2 MLOAD SWAP1 POP PUSH2 0x216C DUP2 PUSH2 0x214F JUMP JUMPDEST SWAP3 SWAP2 POP POP JUMP JUMPDEST PUSH0 DUP1 PUSH0 DUP1 PUSH0 DUP1 PUSH0 DUP1 PUSH2 0x100 DUP10 DUP12 SUB SLT ISZERO PUSH2 0x218F JUMPI PUSH2 0x218E PUSH2 0x1C7B JUMP JUMPDEST JUMPDEST PUSH0 DUP10 ADD MLOAD PUSH8 0xFFFFFFFFFFFFFFFF DUP2 GT ISZERO PUSH2 0x21AC JUMPI PUSH2 0x21AB PUSH2 0x1C7F JUMP JUMPDEST JUMPDEST PUSH2 0x21B8 DUP12 DUP3 DUP13 ADD PUSH2 0x20FA JUMP JUMPDEST SWAP9 POP POP PUSH1 0x20 DUP10 ADD MLOAD PUSH8 0xFFFFFFFFFFFFFFFF DUP2 GT ISZERO PUSH2 0x21D9 JUMPI PUSH2 0x21D8 PUSH2 0x1C7F JUMP JUMPDEST JUMPDEST PUSH2 0x21E5 DUP12 DUP3 DUP13 ADD PUSH2 0x20FA JUMP JUMPDEST SWAP8 POP POP PUSH1 0x40 DUP10 ADD MLOAD PUSH8 0xFFFFFFFFFFFFFFFF DUP2 GT ISZERO PUSH2 0x2206 JUMPI PUSH2 0x2205 PUSH2 0x1C7F JUMP JUMPDEST JUMPDEST PUSH2 0x2212 DUP12 DUP3 DUP13 ADD PUSH2 0x20FA JUMP JUMPDEST SWAP7 POP POP PUSH1 0x60 PUSH2 0x2223 DUP12 DUP3 DUP13 ADD PUSH2 0x2127 JUMP JUMPDEST SWAP6 POP POP PUSH1 0x80 PUSH2 0x2234 DUP12 DUP3 DUP13 ADD PUSH2 0x213B JUMP JUMPDEST SWAP5 POP POP PUSH1 0xA0 PUSH2 0x2245 DUP12 DUP3 DUP13 ADD PUSH2 0x215E JUMP JUMPDEST SWAP4 POP POP PUSH1 0xC0 PUSH2 0x2256 DUP12 DUP3 DUP13 ADD PUSH2 0x213B JUMP JUMPDEST SWAP3 POP POP PUSH1 0xE0 PUSH2 0x2267 DUP12 DUP3 DUP13 ADD PUSH2 0x2127 JUMP JUMPDEST SWAP2 POP POP SWAP3 SWAP6 SWAP9 POP SWAP3 SWAP6 SWAP9 SWAP1 SWAP4 SWAP7 POP JUMP JUMPDEST PUSH32 0x436F6D6D756E69747920646F6573206E6F742065786973740000000000000000 PUSH0 DUP3 ADD MSTORE POP JUMP JUMPDEST PUSH0 PUSH2 0x22AB PUSH1 0x18 DUP4 PUSH2 0x1F1B JUMP JUMPDEST SWAP2 POP PUSH2 0x22B6 DUP3 PUSH2 0x2277 JUMP JUMPDEST PUSH1 0x20 DUP3 ADD SWAP1 POP SWAP2 SWAP1 POP JUMP JUMPDEST PUSH0 PUSH1 0x20 DUP3 ADD SWAP1 POP DUP2 DUP2 SUB PUSH0 DUP4 ADD MSTORE PUSH2 0x22D8 DUP2 PUSH2 0x229F JUMP JUMPDEST SWAP1 POP SWAP2 SWAP1 POP JUMP JUMPDEST PUSH0 PUSH1 0x20 DUP3 DUP5 SUB SLT ISZERO PUSH2 0x22F4 JUMPI PUSH2 0x22F3 PUSH2 0x1C7B JUMP JUMPDEST JUMPDEST PUSH0 PUSH2 0x2301 DUP5 DUP3 DUP6 ADD PUSH2 0x213B JUMP JUMPDEST SWAP2 POP POP SWAP3 SWAP2 POP POP JUMP JUMPDEST PUSH32 0x5374617465207472616E736974696F6E2074696D65206E6F7420726561636865 PUSH0 DUP3 ADD MSTORE PUSH32 0x6400000000000000000000000000000000000000000000000000000000000000 PUSH1 0x20 DUP3 ADD MSTORE POP JUMP JUMPDEST PUSH0 PUSH2 0x2364 PUSH1 0x21 DUP4 PUSH2 0x1F1B JUMP JUMPDEST SWAP2 POP PUSH2 0x236F DUP3 PUSH2 0x230A JUMP JUMPDEST PUSH1 0x40 DUP3 ADD SWAP1 POP SWAP2 SWAP1 POP JUMP JUMPDEST PUSH0 PUSH1 0x20 DUP3 ADD SWAP1 POP DUP2 DUP2 SUB PUSH0 DUP4 ADD MSTORE PUSH2 0x2391 DUP2 PUSH2 0x2358 JUMP JUMPDEST SWAP1 POP SWAP2 SWAP1 POP JUMP JUMPDEST PUSH32 0x4E487B7100000000000000000000000000000000000000000000000000000000 PUSH0 MSTORE PUSH1 0x21 PUSH1 0x4 MSTORE PUSH1 0x24 PUSH0 REVERT JUMPDEST PUSH1 0x2 DUP2 LT PUSH2 0x23D6 JUMPI PUSH2 0x23D5 PUSH2 0x2398 JUMP JUMPDEST JUMPDEST POP JUMP JUMPDEST PUSH0 DUP2 SWAP1 POP PUSH2 0x23E6 DUP3 PUSH2 0x23C5 JUMP JUMPDEST SWAP2 SWAP1 POP JUMP JUMPDEST PUSH0 PUSH2 0x23F5 DUP3 PUSH2 0x23D9 JUMP JUMPDEST SWAP1 POP SWAP2 SWAP1 POP JUMP JUMPDEST PUSH2 0x2405 DUP2 PUSH2 0x23EB JUMP JUMPDEST DUP3 MSTORE POP POP JUMP JUMPDEST PUSH0 PUSH1 0x40 DUP3 ADD SWAP1 POP PUSH2 0x241E PUSH0 DUP4 ADD DUP6 PUSH2 0x2061 JUMP JUMPDEST PUSH2 0x242B PUSH1 0x20 DUP4 ADD DUP5 PUSH2 0x23FC JUMP JUMPDEST SWAP4 SWAP3 POP POP POP JUMP JUMPDEST PUSH0 PUSH1 0x40 DUP3 ADD SWAP1 POP PUSH2 0x2445 PUSH0 DUP4 ADD DUP6 PUSH2 0x2061 JUMP JUMPDEST PUSH2 0x2452 PUSH1 0x20 DUP4 ADD DUP5 PUSH2 0x2061 JUMP JUMPDEST SWAP4 SWAP3 POP POP POP JUMP JUMPDEST PUSH0 PUSH8 0xFFFFFFFFFFFFFFFF DUP3 GT ISZERO PUSH2 0x2473 JUMPI PUSH2 0x2472 PUSH2 0x1D01 JUMP JUMPDEST JUMPDEST PUSH1 0x20 DUP3 MUL SWAP1 POP PUSH1 0x20 DUP2 ADD SWAP1 POP SWAP2 SWAP1 POP JUMP JUMPDEST PUSH0 DUP1 REVERT JUMPDEST PUSH0 PUSH2 0x249A PUSH2 0x2495 DUP5 PUSH2 0x2459 JUMP JUMPDEST PUSH2 0x1D5F JUMP JUMPDEST SWAP1 POP DUP1 DUP4 DUP3 MSTORE PUSH1 0x20 DUP3 ADD SWAP1 POP PUSH1 0x20 DUP5 MUL DUP4 ADD DUP6 DUP2 GT ISZERO PUSH2 0x24BD JUMPI PUSH2 0x24BC PUSH2 0x2484 JUMP JUMPDEST JUMPDEST DUP4 JUMPDEST DUP2 DUP2 LT ISZERO PUSH2 0x24E6 JUMPI DUP1 PUSH2 0x24D2 DUP9 DUP3 PUSH2 0x2127 JUMP JUMPDEST DUP5 MSTORE PUSH1 0x20 DUP5 ADD SWAP4 POP POP PUSH1 0x20 DUP2 ADD SWAP1 POP PUSH2 0x24BF JUMP JUMPDEST POP POP POP SWAP4 SWAP3 POP POP POP JUMP JUMPDEST PUSH0 DUP3 PUSH1 0x1F DUP4 ADD SLT PUSH2 0x2504 JUMPI PUSH2 0x2503 PUSH2 0x1CE9 JUMP JUMPDEST JUMPDEST DUP2 MLOAD PUSH2 0x2514 DUP5 DUP3 PUSH1 0x20 DUP7 ADD PUSH2 0x2488 JUMP JUMPDEST SWAP2 POP POP SWAP3 SWAP2 POP POP JUMP JUMPDEST PUSH0 PUSH1 0x20 DUP3 DUP5 SUB SLT ISZERO PUSH2 0x2532 JUMPI PUSH2 0x2531 PUSH2 0x1C7B JUMP JUMPDEST JUMPDEST PUSH0 DUP3 ADD MLOAD PUSH8 0xFFFFFFFFFFFFFFFF DUP2 GT ISZERO PUSH2 0x254F JUMPI PUSH2 0x254E PUSH2 0x1C7F JUMP JUMPDEST JUMPDEST PUSH2 0x255B DUP5 DUP3 DUP6 ADD PUSH2 0x24F0 JUMP JUMPDEST SWAP2 POP POP SWAP3 SWAP2 POP POP JUMP JUMPDEST PUSH32 0x4E6F20636F6E7472696275746F727320666F722074686973207765656B000000 PUSH0 DUP3 ADD MSTORE POP JUMP JUMPDEST PUSH0 PUSH2 0x2598 PUSH1 0x1D DUP4 PUSH2 0x1F1B JUMP JUMPDEST SWAP2 POP PUSH2 0x25A3 DUP3 PUSH2 0x2564 JUMP JUMPDEST PUSH1 0x20 DUP3 ADD SWAP1 POP SWAP2 SWAP1 POP JUMP JUMPDEST PUSH0 PUSH1 0x20 DUP3 ADD SWAP1 POP DUP2 DUP2 SUB PUSH0 DUP4 ADD MSTORE PUSH2 0x25C5 DUP2 PUSH2 0x258C JUMP JUMPDEST SWAP1 POP SWAP2 SWAP1 POP JUMP JUMPDEST PUSH32 0x4E487B7100000000000000000000000000000000000000000000000000000000 PUSH0 MSTORE PUSH1 0x11 PUSH1 0x4 MSTORE PUSH1 0x24 PUSH0 REVERT JUMPDEST PUSH0 PUSH2 0x2603 DUP3 PUSH2 0x1F91 JUMP JUMPDEST SWAP2 POP PUSH2 0x260E DUP4 PUSH2 0x1F91 JUMP JUMPDEST SWAP3 POP DUP3 DUP3 ADD SWAP1 POP DUP1 DUP3 GT ISZERO PUSH2 0x2626 JUMPI PUSH2 0x2625 PUSH2 0x25CC JUMP JUMPDEST JUMPDEST SWAP3 SWAP2 POP POP JUMP JUMPDEST PUSH0 DUP2 SWAP1 POP SWAP3 SWAP2 POP POP JUMP JUMPDEST PUSH0 PUSH2 0x2640 DUP3 PUSH2 0x1F11 JUMP JUMPDEST PUSH2 0x264A DUP2 DUP6 PUSH2 0x262C JUMP JUMPDEST SWAP4 POP PUSH2 0x265A DUP2 DUP6 PUSH1 0x20 DUP7 ADD PUSH2 0x1F2B JUMP JUMPDEST DUP1 DUP5 ADD SWAP2 POP POP SWAP3 SWAP2 POP POP JUMP JUMPDEST PUSH32 0x202D200000000000000000000000000000000000000000000000000000000000 PUSH0 DUP3 ADD MSTORE POP JUMP JUMPDEST PUSH0 PUSH2 0x269A PUSH1 0x3 DUP4 PUSH2 0x262C JUMP JUMPDEST SWAP2 POP PUSH2 0x26A5 DUP3 PUSH2 0x2666 JUMP JUMPDEST PUSH1 0x3 DUP3 ADD SWAP1 POP SWAP2 SWAP1 POP JUMP JUMPDEST PUSH0 PUSH2 0x26BB DUP3 DUP6 PUSH2 0x2636 JUMP JUMPDEST SWAP2 POP PUSH2 0x26C6 DUP3 PUSH2 0x268E JUMP JUMPDEST SWAP2 POP PUSH2 0x26D2 DUP3 DUP5 PUSH2 0x2636 JUMP JUMPDEST SWAP2 POP DUP2 SWAP1 POP SWAP4 SWAP3 POP POP POP JUMP JUMPDEST PUSH0 PUSH8 0xFFFFFFFFFFFFFFFF DUP3 GT ISZERO PUSH2 0x26F8 JUMPI PUSH2 0x26F7 PUSH2 0x1D01 JUMP JUMPDEST JUMPDEST PUSH1 0x20 DUP3 MUL SWAP1 POP PUSH1 0x20 DUP2 ADD SWAP1 POP SWAP2 SWAP1 POP JUMP JUMPDEST PUSH0 PUSH2 0x271B PUSH2 0x2716 DUP5 PUSH2 0x26DE JUMP JUMPDEST PUSH2 0x1D5F JUMP JUMPDEST SWAP1 POP DUP1 DUP4 DUP3 MSTORE PUSH1 0x20 DUP3 ADD SWAP1 POP PUSH1 0x20 DUP5 MUL DUP4 ADD DUP6 DUP2 GT ISZERO PUSH2 0x273E JUMPI PUSH2 0x273D PUSH2 0x2484 JUMP JUMPDEST JUMPDEST DUP4 JUMPDEST DUP2 DUP2 LT ISZERO PUSH2 0x2785 JUMPI DUP1 MLOAD PUSH8 0xFFFFFFFFFFFFFFFF DUP2 GT ISZERO PUSH2 0x2763 JUMPI PUSH2 0x2762 PUSH2 0x1CE9 JUMP JUMPDEST JUMPDEST DUP1 DUP7 ADD PUSH2 0x2770 DUP10 DUP3 PUSH2 0x20FA JUMP JUMPDEST DUP6 MSTORE PUSH1 0x20 DUP6 ADD SWAP5 POP POP POP PUSH1 0x20 DUP2 ADD SWAP1 POP PUSH2 0x2740 JUMP JUMPDEST POP POP POP SWAP4 SWAP3 POP POP POP JUMP JUMPDEST PUSH0 DUP3 PUSH1 0x1F DUP4 ADD SLT PUSH2 0x27A3 JUMPI PUSH2 0x27A2 PUSH2 0x1CE9 JUMP JUMPDEST JUMPDEST DUP2 MLOAD PUSH2 0x27B3 DUP5 DUP3 PUSH1 0x20 DUP7 ADD PUSH2 0x2709 JUMP JUMPDEST SWAP2 POP POP SWAP3 SWAP2 POP POP JUMP JUMPDEST PUSH0 DUP1 PUSH1 0x40 DUP4 DUP6 SUB SLT ISZERO PUSH2 0x27D2 JUMPI PUSH2 0x27D1 PUSH2 0x1C7B JUMP JUMPDEST JUMPDEST PUSH0 DUP4 ADD MLOAD PUSH8 0xFFFFFFFFFFFFFFFF DUP2 GT ISZERO PUSH2 0x27EF JUMPI PUSH2 0x27EE PUSH2 0x1C7F JUMP JUMPDEST JUMPDEST PUSH2 0x27FB DUP6 DUP3 DUP7 ADD PUSH2 0x24F0 JUMP JUMPDEST SWAP3 POP POP PUSH1 0x20 DUP4 ADD MLOAD PUSH8 0xFFFFFFFFFFFFFFFF DUP2 GT ISZERO PUSH2 0x281C JUMPI PUSH2 0x281B PUSH2 0x1C7F JUMP JUMPDEST JUMPDEST PUSH2 0x2828 DUP6 DUP3 DUP7 ADD PUSH2 0x278F JUMP JUMPDEST SWAP2 POP POP SWAP3 POP SWAP3 SWAP1 POP JUMP JUMPDEST PUSH0 DUP2 MLOAD SWAP1 POP SWAP2 SWAP1 POP JUMP JUMPDEST PUSH0 DUP3 DUP3 MSTORE PUSH1 0x20 DUP3 ADD SWAP1 POP SWAP3 SWAP2 POP POP JUMP JUMPDEST PUSH0 DUP2 SWAP1 POP PUSH1 0x20 DUP3 ADD SWAP1 POP SWAP2 SWAP1 POP JUMP JUMPDEST PUSH2 0x2864 DUP2 PUSH2 0x1C83 JUMP JUMPDEST DUP3 MSTORE POP POP JUMP JUMPDEST PUSH0 PUSH2 0x2875 DUP4 DUP4 PUSH2 0x285B JUMP JUMPDEST PUSH1 0x20 DUP4 ADD SWAP1 POP SWAP3 SWAP2 POP POP JUMP JUMPDEST PUSH0 PUSH1 0x20 DUP3 ADD SWAP1 POP SWAP2 SWAP1 POP JUMP JUMPDEST PUSH0 PUSH2 0x2897 DUP3 PUSH2 0x2832 JUMP JUMPDEST PUSH2 0x28A1 DUP2 DUP6 PUSH2 0x283C JUMP JUMPDEST SWAP4 POP PUSH2 0x28AC DUP4 PUSH2 0x284C JUMP JUMPDEST DUP1 PUSH0 JUMPDEST DUP4 DUP2 LT ISZERO PUSH2 0x28DC JUMPI DUP2 MLOAD PUSH2 0x28C3 DUP9 DUP3 PUSH2 0x286A JUMP JUMPDEST SWAP8 POP PUSH2 0x28CE DUP4 PUSH2 0x2881 JUMP JUMPDEST SWAP3 POP POP PUSH1 0x1 DUP2 ADD SWAP1 POP PUSH2 0x28AF JUMP JUMPDEST POP DUP6 SWAP4 POP POP POP POP SWAP3 SWAP2 POP POP JUMP JUMPDEST PUSH0 PUSH1 0x40 DUP3 ADD SWAP1 POP PUSH2 0x28FC PUSH0 DUP4 ADD DUP6 PUSH2 0x2061 JUMP JUMPDEST DUP2 DUP2 SUB PUSH1 0x20 DUP4 ADD MSTORE PUSH2 0x290E DUP2 DUP5 PUSH2 0x288D JUMP JUMPDEST SWAP1 POP SWAP4 SWAP3 POP POP POP JUMP JUMPDEST PUSH0 PUSH2 0x2922 DUP3 DUP5 PUSH2 0x2636 JUMP JUMPDEST SWAP2 POP DUP2 SWAP1 POP SWAP3 SWAP2 POP POP JUMP JUMPDEST PUSH0 DUP2 SWAP1 POP SWAP2 SWAP1 POP JUMP JUMPDEST PUSH0 PUSH8 0xFFFFFFFFFFFFFFFF DUP3 AND SWAP1 POP SWAP2 SWAP1 POP JUMP JUMPDEST PUSH0 PUSH2 0x2963 PUSH2 0x295E PUSH2 0x2959 DUP5 PUSH2 0x292D JUMP JUMPDEST PUSH2 0x1BFE JUMP JUMPDEST PUSH2 0x2936 JUMP JUMPDEST SWAP1 POP SWAP2 SWAP1 POP JUMP JUMPDEST PUSH2 0x2973 DUP2 PUSH2 0x2949 JUMP JUMPDEST DUP3 MSTORE POP POP JUMP JUMPDEST PUSH0 PUSH1 0x20 DUP3 ADD SWAP1 POP PUSH2 0x298C PUSH0 DUP4 ADD DUP5 PUSH2 0x296A JUMP JUMPDEST SWAP3 SWAP2 POP POP JUMP JUMPDEST PUSH2 0x299B DUP2 PUSH2 0x1E7F JUMP JUMPDEST DUP2 EQ PUSH2 0x29A5 JUMPI PUSH0 DUP1 REVERT JUMPDEST POP JUMP JUMPDEST PUSH0 DUP2 MLOAD SWAP1 POP PUSH2 0x29B6 DUP2 PUSH2 0x2992 JUMP JUMPDEST SWAP3 SWAP2 POP POP JUMP JUMPDEST PUSH0 PUSH1 0x20 DUP3 DUP5 SUB SLT ISZERO PUSH2 0x29D1 JUMPI PUSH2 0x29D0 PUSH2 0x1C7B JUMP JUMPDEST JUMPDEST PUSH0 PUSH2 0x29DE DUP5 DUP3 DUP6 ADD PUSH2 0x29A8 JUMP JUMPDEST SWAP2 POP POP SWAP3 SWAP2 POP POP JUMP JUMPDEST PUSH32 0x4E487B7100000000000000000000000000000000000000000000000000000000 PUSH0 MSTORE PUSH1 0x12 PUSH1 0x4 MSTORE PUSH1 0x24 PUSH0 REVERT JUMPDEST PUSH0 DUP2 MLOAD SWAP1 POP SWAP2 SWAP1 POP JUMP JUMPDEST PUSH0 DUP2 SWAP1 POP SWAP3 SWAP2 POP POP JUMP JUMPDEST PUSH0 PUSH2 0x2A32 DUP3 PUSH2 0x2A14 JUMP JUMPDEST PUSH2 0x2A3C DUP2 DUP6 PUSH2 0x2A1E JUMP JUMPDEST SWAP4 POP PUSH2 0x2A4C DUP2 DUP6 PUSH1 0x20 DUP7 ADD PUSH2 0x1F2B JUMP JUMPDEST DUP1 DUP5 ADD SWAP2 POP POP SWAP3 SWAP2 POP POP JUMP JUMPDEST PUSH0 PUSH2 0x2A63 DUP3 DUP5 PUSH2 0x2A28 JUMP JUMPDEST SWAP2 POP DUP2 SWAP1 POP SWAP3 SWAP2 POP POP JUMP INVALID LOG2 PUSH5 0x6970667358 0x22 SLT KECCAK256 SAR DUP5 0xBB 0xEA DUP8 0xC9 DIV 0xCD 0xAB 0xA8 SUB BASEFEE DUP5 SWAP4 SIGNEXTEND 0x4E 0xCF 0xB5 SELFBALANCE SAR PUSH27 0x339F622A57D6F9F2B43E9264736F6C634300081A00330000000000 "
				},
				"gasEstimates": {
					"creation": {
						"codeDepositCost": "2183200",
						"executionCost": "infinite",
						"totalCost": "infinite"
					},
					"external": {
						"UPGRADE_INTERFACE_VERSION()": "infinite",
						"changeState(uint256)": "infinite",
						"contributionsContract()": "infinite",
						"initialize(address)": "infinite",
						"multiSigContract()": "infinite",
						"owner()": "2634",
						"profilesContract()": "infinite",
						"proxiableUUID()": "infinite",
						"rankingsContract()": "infinite",
						"renounceOwnership()": "infinite",
						"setContributionsContract(address)": "infinite",
						"setMultiSigContract(address)": "infinite",
						"setProfilesContract(address)": "infinite",
						"setRankingsContract(address)": "infinite",
						"transferOwnership(address)": "infinite",
						"upgradeToAndCall(address,bytes)": "infinite"
					},
					"internal": {
						"_authorizeUpgrade(address)": "infinite"
					}
				},
				"methodIdentifiers": {
					"UPGRADE_INTERFACE_VERSION()": "ad3cb1cc",
					"changeState(uint256)": "b00741cb",
					"contributionsContract()": "de04bbd2",
					"initialize(address)": "c4d66de8",
					"multiSigContract()": "8faaefc8",
					"owner()": "8da5cb5b",
					"profilesContract()": "06428f02",
					"proxiableUUID()": "52d1902d",
					"rankingsContract()": "fa96a0e7",
					"renounceOwnership()": "715018a6",
					"setContributionsContract(address)": "d599ba92",
					"setMultiSigContract(address)": "34c6d8b5",
					"setProfilesContract(address)": "c56b4aed",
					"setRankingsContract(address)": "67d0864b",
					"transferOwnership(address)": "f2fde38b",
					"upgradeToAndCall(address,bytes)": "4f1ef286"
				}
			},
			"storageLayout": {
				"storage": [
					{
						"astId": 3086,
						"contract": "UUPScontracts/CommunityStateManager.sol:CommunityStateManager",
						"label": "profilesContract",
						"offset": 0,
						"slot": "0",
						"type": "t_contract(ICommunityGovernanceProfiles)3417"
					},
					{
						"astId": 3089,
						"contract": "UUPScontracts/CommunityStateManager.sol:CommunityStateManager",
						"label": "rankingsContract",
						"offset": 0,
						"slot": "1",
						"type": "t_contract(ICommunityGovernanceRankings)3441"
					},
					{
						"astId": 3092,
						"contract": "UUPScontracts/CommunityStateManager.sol:CommunityStateManager",
						"label": "contributionsContract",
						"offset": 0,
						"slot": "2",
						"type": "t_contract(ICommunityGovernanceContributions)3217"
					},
					{
						"astId": 3095,
						"contract": "UUPScontracts/CommunityStateManager.sol:CommunityStateManager",
						"label": "multiSigContract",
						"offset": 0,
						"slot": "3",
						"type": "t_contract(ICommunityGovernanceMultiSig)3279"
					}
				],
				"types": {
					"t_contract(ICommunityGovernanceContributions)3217": {
						"encoding": "inplace",
						"label": "contract ICommunityGovernanceContributions",
						"numberOfBytes": "20"
					},
					"t_contract(ICommunityGovernanceMultiSig)3279": {
						"encoding": "inplace",
						"label": "contract ICommunityGovernanceMultiSig",
						"numberOfBytes": "20"
					},
					"t_contract(ICommunityGovernanceProfiles)3417": {
						"encoding": "inplace",
						"label": "contract ICommunityGovernanceProfiles",
						"numberOfBytes": "20"
					},
					"t_contract(ICommunityGovernanceRankings)3441": {
						"encoding": "inplace",
						"label": "contract ICommunityGovernanceRankings",
						"numberOfBytes": "20"
					}
				}
			},
			"userdoc": {
				"kind": "user",
				"methods": {},
				"version": 1
			}
		}
	}
}