{
	"UUPScontracts/CommunityGovernanceProfilesStorage.sol": {
		"CommunityGovernanceProfilesStorage": {
			"abi": [
				{
					"inputs": [],
					"name": "stateManagerAddress",
					"outputs": [
						{
							"internalType": "address",
							"name": "",
							"type": "address"
						}
					],
					"stateMutability": "view",
					"type": "function"
				}
			],
			"devdoc": {
				"kind": "dev",
				"methods": {},
				"version": 1
			},
			"evm": {
				"assembly": "    /* \"UUPScontracts/CommunityGovernanceProfilesStorage.sol\":287:1443  contract CommunityGovernanceProfilesStorage {... */\n  mstore(0x40, 0x80)\n  callvalue\n  dup1\n  iszero\n  tag_1\n  jumpi\n  0x00\n  dup1\n  revert\ntag_1:\n  pop\n  dataSize(sub_0)\n  dup1\n  dataOffset(sub_0)\n  0x00\n  codecopy\n  0x00\n  return\nstop\n\nsub_0: assembly {\n        /* \"UUPScontracts/CommunityGovernanceProfilesStorage.sol\":287:1443  contract CommunityGovernanceProfilesStorage {... */\n      mstore(0x40, 0x80)\n      callvalue\n      dup1\n      iszero\n      tag_1\n      jumpi\n      0x00\n      dup1\n      revert\n    tag_1:\n      pop\n      jumpi(tag_2, lt(calldatasize, 0x04))\n      shr(0xe0, calldataload(0x00))\n      dup1\n      0x722bc8be\n      eq\n      tag_3\n      jumpi\n    tag_2:\n      0x00\n      dup1\n      revert\n        /* \"UUPScontracts/CommunityGovernanceProfilesStorage.sol\":1160:1194  address public stateManagerAddress */\n    tag_3:\n      tag_4\n      tag_5\n      jump\t// in\n    tag_4:\n      mload(0x40)\n      tag_6\n      swap2\n      swap1\n      tag_7\n      jump\t// in\n    tag_6:\n      mload(0x40)\n      dup1\n      swap2\n      sub\n      swap1\n      return\n    tag_5:\n      0x03\n      0x00\n      swap1\n      sload\n      swap1\n      0x0100\n      exp\n      swap1\n      div\n      0xffffffffffffffffffffffffffffffffffffffff\n      and\n      dup2\n      jump\t// out\n        /* \"#utility.yul\":7:133   */\n    tag_8:\n        /* \"#utility.yul\":44:51   */\n      0x00\n        /* \"#utility.yul\":84:126   */\n      0xffffffffffffffffffffffffffffffffffffffff\n        /* \"#utility.yul\":77:82   */\n      dup3\n        /* \"#utility.yul\":73:127   */\n      and\n        /* \"#utility.yul\":62:127   */\n      swap1\n      pop\n        /* \"#utility.yul\":7:133   */\n      swap2\n      swap1\n      pop\n      jump\t// out\n        /* \"#utility.yul\":139:235   */\n    tag_9:\n        /* \"#utility.yul\":176:183   */\n      0x00\n        /* \"#utility.yul\":205:229   */\n      tag_14\n        /* \"#utility.yul\":223:228   */\n      dup3\n        /* \"#utility.yul\":205:229   */\n      tag_8\n      jump\t// in\n    tag_14:\n        /* \"#utility.yul\":194:229   */\n      swap1\n      pop\n        /* \"#utility.yul\":139:235   */\n      swap2\n      swap1\n      pop\n      jump\t// out\n        /* \"#utility.yul\":241:359   */\n    tag_10:\n        /* \"#utility.yul\":328:352   */\n      tag_16\n        /* \"#utility.yul\":346:351   */\n      dup2\n        /* \"#utility.yul\":328:352   */\n      tag_9\n      jump\t// in\n    tag_16:\n        /* \"#utility.yul\":323:326   */\n      dup3\n        /* \"#utility.yul\":316:353   */\n      mstore\n        /* \"#utility.yul\":241:359   */\n      pop\n      pop\n      jump\t// out\n        /* \"#utility.yul\":365:587   */\n    tag_7:\n        /* \"#utility.yul\":458:462   */\n      0x00\n        /* \"#utility.yul\":496:498   */\n      0x20\n        /* \"#utility.yul\":485:494   */\n      dup3\n        /* \"#utility.yul\":481:499   */\n      add\n        /* \"#utility.yul\":473:499   */\n      swap1\n      pop\n        /* \"#utility.yul\":509:580   */\n      tag_18\n        /* \"#utility.yul\":577:578   */\n      0x00\n        /* \"#utility.yul\":566:575   */\n      dup4\n        /* \"#utility.yul\":562:579   */\n      add\n        /* \"#utility.yul\":553:559   */\n      dup5\n        /* \"#utility.yul\":509:580   */\n      tag_10\n      jump\t// in\n    tag_18:\n        /* \"#utility.yul\":365:587   */\n      swap3\n      swap2\n      pop\n      pop\n      jump\t// out\n\n    auxdata: 0xa26469706673582212204797d368297436791c241ea8caf982de0d80c889a33f43fe4a2bcc0035a4969764736f6c634300081a0033\n}\n",
				"bytecode": {
					"linkReferences": {},
					"object": "6080604052348015600e575f80fd5b5060f18061001b5f395ff3fe6080604052348015600e575f80fd5b50600436106026575f3560e01c8063722bc8be14602a575b5f80fd5b60306044565b604051603b919060a4565b60405180910390f35b60035f9054906101000a900473ffffffffffffffffffffffffffffffffffffffff1681565b5f73ffffffffffffffffffffffffffffffffffffffff82169050919050565b5f6090826069565b9050919050565b609e816088565b82525050565b5f60208201905060b55f8301846097565b9291505056fea26469706673582212204797d368297436791c241ea8caf982de0d80c889a33f43fe4a2bcc0035a4969764736f6c634300081a0033",
					"opcodes": "PUSH1 0x80 PUSH1 0x40 MSTORE CALLVALUE DUP1 ISZERO PUSH1 0xE JUMPI PUSH0 DUP1 REVERT JUMPDEST POP PUSH1 0xF1 DUP1 PUSH2 0x1B PUSH0 CODECOPY PUSH0 RETURN INVALID PUSH1 0x80 PUSH1 0x40 MSTORE CALLVALUE DUP1 ISZERO PUSH1 0xE JUMPI PUSH0 DUP1 REVERT JUMPDEST POP PUSH1 0x4 CALLDATASIZE LT PUSH1 0x26 JUMPI PUSH0 CALLDATALOAD PUSH1 0xE0 SHR DUP1 PUSH4 0x722BC8BE EQ PUSH1 0x2A JUMPI JUMPDEST PUSH0 DUP1 REVERT JUMPDEST PUSH1 0x30 PUSH1 0x44 JUMP JUMPDEST PUSH1 0x40 MLOAD PUSH1 0x3B SWAP2 SWAP1 PUSH1 0xA4 JUMP JUMPDEST PUSH1 0x40 MLOAD DUP1 SWAP2 SUB SWAP1 RETURN JUMPDEST PUSH1 0x3 PUSH0 SWAP1 SLOAD SWAP1 PUSH2 0x100 EXP SWAP1 DIV PUSH20 0xFFFFFFFFFFFFFFFFFFFFFFFFFFFFFFFFFFFFFFFF AND DUP2 JUMP JUMPDEST PUSH0 PUSH20 0xFFFFFFFFFFFFFFFFFFFFFFFFFFFFFFFFFFFFFFFF DUP3 AND SWAP1 POP SWAP2 SWAP1 POP JUMP JUMPDEST PUSH0 PUSH1 0x90 DUP3 PUSH1 0x69 JUMP JUMPDEST SWAP1 POP SWAP2 SWAP1 POP JUMP JUMPDEST PUSH1 0x9E DUP2 PUSH1 0x88 JUMP JUMPDEST DUP3 MSTORE POP POP JUMP JUMPDEST PUSH0 PUSH1 0x20 DUP3 ADD SWAP1 POP PUSH1 0xB5 PUSH0 DUP4 ADD DUP5 PUSH1 0x97 JUMP JUMPDEST SWAP3 SWAP2 POP POP JUMP INVALID LOG2 PUSH5 0x6970667358 0x22 SLT KECCAK256 SELFBALANCE SWAP8 0xD3 PUSH9 0x297436791C241EA8CA 0xF9 DUP3 0xDE 0xD DUP1 0xC8 DUP10 LOG3 EXTCODEHASH NUMBER INVALID BLOBBASEFEE 0x2B 0xCC STOP CALLDATALOAD LOG4 SWAP7 SWAP8 PUSH5 0x736F6C6343 STOP ADDMOD BYTE STOP CALLER "
				},
				"gasEstimates": {
					"creation": {
						"codeDepositCost": "48200",
						"executionCost": "97",
						"totalCost": "48297"
					},
					"external": {
						"stateManagerAddress()": "2486"
					}
				},
				"methodIdentifiers": {
					"stateManagerAddress()": "722bc8be"
				}
			},
			"storageLayout": {
				"storage": [
					{
						"astId": 55,
						"contract": "UUPScontracts/CommunityGovernanceProfilesStorage.sol:CommunityGovernanceProfilesStorage",
						"label": "users",
						"offset": 0,
						"slot": "0",
						"type": "t_mapping(t_address,t_struct(UserProfile)17_storage)"
					},
					{
						"astId": 60,
						"contract": "UUPScontracts/CommunityGovernanceProfilesStorage.sol:CommunityGovernanceProfilesStorage",
						"label": "communities",
						"offset": 0,
						"slot": "1",
						"type": "t_mapping(t_uint256,t_struct(Community)50_storage)"
					},
					{
						"astId": 62,
						"contract": "UUPScontracts/CommunityGovernanceProfilesStorage.sol:CommunityGovernanceProfilesStorage",
						"label": "nextCommunityId",
						"offset": 0,
						"slot": "2",
						"type": "t_uint256"
					},
					{
						"astId": 64,
						"contract": "UUPScontracts/CommunityGovernanceProfilesStorage.sol:CommunityGovernanceProfilesStorage",
						"label": "stateManagerAddress",
						"offset": 0,
						"slot": "3",
						"type": "t_address"
					},
					{
						"astId": 67,
						"contract": "UUPScontracts/CommunityGovernanceProfilesStorage.sol:CommunityGovernanceProfilesStorage",
						"label": "multiSigContract",
						"offset": 0,
						"slot": "4",
						"type": "t_contract(ICommunityGovernanceMultiSig)254"
					},
					{
						"astId": 70,
						"contract": "UUPScontracts/CommunityGovernanceProfilesStorage.sol:CommunityGovernanceProfilesStorage",
						"label": "rankingsContract",
						"offset": 0,
						"slot": "5",
						"type": "t_contract(ICommunityGovernanceRankings)400"
					},
					{
						"astId": 73,
						"contract": "UUPScontracts/CommunityGovernanceProfilesStorage.sol:CommunityGovernanceProfilesStorage",
						"label": "contributionsContract",
						"offset": 0,
						"slot": "6",
						"type": "t_contract(ICommunityGovernanceContributions)192"
					}
				],
				"types": {
					"t_address": {
						"encoding": "inplace",
						"label": "address",
						"numberOfBytes": "20"
					},
					"t_array(t_address)dyn_storage": {
						"base": "t_address",
						"encoding": "dynamic_array",
						"label": "address[]",
						"numberOfBytes": "32"
					},
					"t_bool": {
						"encoding": "inplace",
						"label": "bool",
						"numberOfBytes": "1"
					},
					"t_contract(ICommunityGovernanceContributions)192": {
						"encoding": "inplace",
						"label": "contract ICommunityGovernanceContributions",
						"numberOfBytes": "20"
					},
					"t_contract(ICommunityGovernanceMultiSig)254": {
						"encoding": "inplace",
						"label": "contract ICommunityGovernanceMultiSig",
						"numberOfBytes": "20"
					},
					"t_contract(ICommunityGovernanceRankings)400": {
						"encoding": "inplace",
						"label": "contract ICommunityGovernanceRankings",
						"numberOfBytes": "20"
					},
					"t_enum(CommunityState)259": {
						"encoding": "inplace",
						"label": "enum ICommunityGovernanceProfiles.CommunityState",
						"numberOfBytes": "1"
					},
					"t_mapping(t_address,t_struct(UserProfile)17_storage)": {
						"encoding": "mapping",
						"key": "t_address",
						"label": "mapping(address => struct CommunityGovernanceProfilesStorage.UserProfile)",
						"numberOfBytes": "32",
						"value": "t_struct(UserProfile)17_storage"
					},
					"t_mapping(t_uint256,t_struct(Community)50_storage)": {
						"encoding": "mapping",
						"key": "t_uint256",
						"label": "mapping(uint256 => struct CommunityGovernanceProfilesStorage.Community)",
						"numberOfBytes": "32",
						"value": "t_struct(Community)50_storage"
					},
					"t_mapping(t_uint256,t_struct(CommunityData)25_storage)": {
						"encoding": "mapping",
						"key": "t_uint256",
						"label": "mapping(uint256 => struct CommunityGovernanceProfilesStorage.CommunityData)",
						"numberOfBytes": "32",
						"value": "t_struct(CommunityData)25_storage"
					},
					"t_string_storage": {
						"encoding": "bytes",
						"label": "string",
						"numberOfBytes": "32"
					},
					"t_struct(Community)50_storage": {
						"encoding": "inplace",
						"label": "struct CommunityGovernanceProfilesStorage.Community",
						"members": [
							{
								"astId": 27,
								"contract": "UUPScontracts/CommunityGovernanceProfilesStorage.sol:CommunityGovernanceProfilesStorage",
								"label": "name",
								"offset": 0,
								"slot": "0",
								"type": "t_string_storage"
							},
							{
								"astId": 29,
								"contract": "UUPScontracts/CommunityGovernanceProfilesStorage.sol:CommunityGovernanceProfilesStorage",
								"label": "description",
								"offset": 0,
								"slot": "1",
								"type": "t_string_storage"
							},
							{
								"astId": 31,
								"contract": "UUPScontracts/CommunityGovernanceProfilesStorage.sol:CommunityGovernanceProfilesStorage",
								"label": "imageUrl",
								"offset": 0,
								"slot": "2",
								"type": "t_string_storage"
							},
							{
								"astId": 33,
								"contract": "UUPScontracts/CommunityGovernanceProfilesStorage.sol:CommunityGovernanceProfilesStorage",
								"label": "creator",
								"offset": 0,
								"slot": "3",
								"type": "t_address"
							},
							{
								"astId": 35,
								"contract": "UUPScontracts/CommunityGovernanceProfilesStorage.sol:CommunityGovernanceProfilesStorage",
								"label": "memberCount",
								"offset": 0,
								"slot": "4",
								"type": "t_uint256"
							},
							{
								"astId": 38,
								"contract": "UUPScontracts/CommunityGovernanceProfilesStorage.sol:CommunityGovernanceProfilesStorage",
								"label": "members",
								"offset": 0,
								"slot": "5",
								"type": "t_array(t_address)dyn_storage"
							},
							{
								"astId": 41,
								"contract": "UUPScontracts/CommunityGovernanceProfilesStorage.sol:CommunityGovernanceProfilesStorage",
								"label": "state",
								"offset": 0,
								"slot": "6",
								"type": "t_enum(CommunityState)259"
							},
							{
								"astId": 43,
								"contract": "UUPScontracts/CommunityGovernanceProfilesStorage.sol:CommunityGovernanceProfilesStorage",
								"label": "eventCount",
								"offset": 0,
								"slot": "7",
								"type": "t_uint256"
							},
							{
								"astId": 45,
								"contract": "UUPScontracts/CommunityGovernanceProfilesStorage.sol:CommunityGovernanceProfilesStorage",
								"label": "nextStateTransitionTime",
								"offset": 0,
								"slot": "8",
								"type": "t_uint256"
							},
							{
								"astId": 47,
								"contract": "UUPScontracts/CommunityGovernanceProfilesStorage.sol:CommunityGovernanceProfilesStorage",
								"label": "tokenContractAddress",
								"offset": 0,
								"slot": "9",
								"type": "t_address"
							},
							{
								"astId": 49,
								"contract": "UUPScontracts/CommunityGovernanceProfilesStorage.sol:CommunityGovernanceProfilesStorage",
								"label": "respectToDistribute",
								"offset": 0,
								"slot": "10",
								"type": "t_uint256"
							}
						],
						"numberOfBytes": "352"
					},
					"t_struct(CommunityData)25_storage": {
						"encoding": "inplace",
						"label": "struct CommunityGovernanceProfilesStorage.CommunityData",
						"members": [
							{
								"astId": 19,
								"contract": "UUPScontracts/CommunityGovernanceProfilesStorage.sol:CommunityGovernanceProfilesStorage",
								"label": "communityId",
								"offset": 0,
								"slot": "0",
								"type": "t_uint256"
							},
							{
								"astId": 21,
								"contract": "UUPScontracts/CommunityGovernanceProfilesStorage.sol:CommunityGovernanceProfilesStorage",
								"label": "isApproved",
								"offset": 0,
								"slot": "1",
								"type": "t_bool"
							},
							{
								"astId": 24,
								"contract": "UUPScontracts/CommunityGovernanceProfilesStorage.sol:CommunityGovernanceProfilesStorage",
								"label": "approvers",
								"offset": 0,
								"slot": "2",
								"type": "t_array(t_address)dyn_storage"
							}
						],
						"numberOfBytes": "96"
					},
					"t_struct(UserProfile)17_storage": {
						"encoding": "inplace",
						"label": "struct CommunityGovernanceProfilesStorage.UserProfile",
						"members": [
							{
								"astId": 7,
								"contract": "UUPScontracts/CommunityGovernanceProfilesStorage.sol:CommunityGovernanceProfilesStorage",
								"label": "username",
								"offset": 0,
								"slot": "0",
								"type": "t_string_storage"
							},
							{
								"astId": 9,
								"contract": "UUPScontracts/CommunityGovernanceProfilesStorage.sol:CommunityGovernanceProfilesStorage",
								"label": "description",
								"offset": 0,
								"slot": "1",
								"type": "t_string_storage"
							},
							{
								"astId": 11,
								"contract": "UUPScontracts/CommunityGovernanceProfilesStorage.sol:CommunityGovernanceProfilesStorage",
								"label": "profilePicUrl",
								"offset": 0,
								"slot": "2",
								"type": "t_string_storage"
							},
							{
								"astId": 16,
								"contract": "UUPScontracts/CommunityGovernanceProfilesStorage.sol:CommunityGovernanceProfilesStorage",
								"label": "communityData",
								"offset": 0,
								"slot": "3",
								"type": "t_mapping(t_uint256,t_struct(CommunityData)25_storage)"
							}
						],
						"numberOfBytes": "128"
					},
					"t_uint256": {
						"encoding": "inplace",
						"label": "uint256",
						"numberOfBytes": "32"
					}
				}
			},
			"userdoc": {
				"kind": "user",
				"methods": {},
				"version": 1
			}
		}
	}
}