{
	"data": {
		"bytecode": {
			"linkReferences": {},
			"object": "60a06040523073ffffffffffffffffffffffffffffffffffffffff1660809073ffffffffffffffffffffffffffffffffffffffff16815250348015610042575f80fd5b5061005161005660201b60201c565b6101b6565b5f61006561015460201b60201c565b9050805f0160089054906101000a900460ff16156100af576040517ff92ee8a900000000000000000000000000000000000000000000000000000000815260040160405180910390fd5b67ffffffffffffffff8016815f015f9054906101000a900467ffffffffffffffff1667ffffffffffffffff16146101515767ffffffffffffffff815f015f6101000a81548167ffffffffffffffff021916908367ffffffffffffffff1602179055507fc7f505b2f371ae2175ee4913f4499e1f2633a7b5936321eed1cdaeb6115181d267ffffffffffffffff604051610148919061019d565b60405180910390a15b50565b5f7ff0c57e16840df040f15088dc2f81fe391c3923bec73e23a9662efc9c229c6a00905090565b5f67ffffffffffffffff82169050919050565b6101978161017b565b82525050565b5f6020820190506101b05f83018461018e565b92915050565b608051615f1a6101dc5f395f818161265c015281816126b1015261286b0152615f1a5ff3fe608060405260043610610164575f3560e01c806365c33697116100d0578063b74ca71311610089578063de04bbd211610063578063de04bbd214610515578063e985e9c51461053f578063f242432a1461057b578063f2fde38b146105a357610164565b8063b74ca71314610489578063c4d66de8146104b1578063d60429d0146104d957610164565b806365c33697146103a7578063715018a6146103cf5780638da5cb5b146103e5578063a22cb4651461040f578063ad3cb1cc14610437578063b3066d491461046157610164565b80632eb2c2d6116101225780632eb2c2d61461029857806333718ce8146102c05780634e1273f4146102e85780634f1ef2861461032457806352d1902d14610340578063643f273d1461036a57610164565b8062fdd58e1461016857806301ffc9a7146101a457806304d5232b146101e057806306428f021461020a5780630e89341c1461023457806317dd9e7314610270575b5f80fd5b348015610173575f80fd5b5061018e600480360381019061018991906140b5565b6105cb565b60405161019b9190614102565b60405180910390f35b3480156101af575f80fd5b506101ca60048036038101906101c59190614170565b61062e565b6040516101d791906141b5565b60405180910390f35b3480156101eb575f80fd5b506101f461070f565b6040516102019190614229565b60405180910390f35b348015610215575f80fd5b5061021e610734565b60405161022b9190614262565b60405180910390f35b34801561023f575f80fd5b5061025a6004803603810190610255919061427b565b610759565b6040516102679190614316565b60405180910390f35b34801561027b575f80fd5b5061029660048036038101906102919190614336565b6107f9565b005b3480156102a3575f80fd5b506102be60048036038101906102b99190614576565b610b2c565b005b3480156102cb575f80fd5b506102e660048036038101906102e19190614641565b610bd3565b005b3480156102f3575f80fd5b5061030e6004803603810190610309919061473f565b611014565b60405161031b919061486c565b60405180910390f35b61033e6004803603810190610339919061488c565b61111b565b005b34801561034b575f80fd5b5061035461113a565b60405161036191906148fe565b60405180910390f35b348015610375575f80fd5b50610390600480360381019061038b9190614917565b61116b565b60405161039e929190614955565b60405180910390f35b3480156103b2575f80fd5b506103cd60048036038101906103c8919061427b565b6111a2565b005b3480156103da575f80fd5b506103e3611234565b005b3480156103f0575f80fd5b506103f9611247565b604051610406919061498b565b60405180910390f35b34801561041a575f80fd5b50610435600480360381019061043091906149ce565b61127c565b005b348015610442575f80fd5b5061044b611292565b6040516104589190614316565b60405180910390f35b34801561046c575f80fd5b5061048760048036038101906104829190614a0c565b6112cb565b005b348015610494575f80fd5b506104af60048036038101906104aa9190614a5c565b611398565b005b3480156104bc575f80fd5b506104d760048036038101906104d29190614adc565b61183e565b005b3480156104e4575f80fd5b506104ff60048036038101906104fa919061427b565b611a34565b60405161050c91906141b5565b60405180910390f35b348015610520575f80fd5b50610529611a51565b6040516105369190614b27565b60405180910390f35b34801561054a575f80fd5b5061056560048036038101906105609190614b40565b611a76565b60405161057291906141b5565b60405180910390f35b348015610586575f80fd5b506105a1600480360381019061059c9190614b7e565b611b12565b005b3480156105ae575f80fd5b506105c960048036038101906105c49190614adc565b611bb9565b005b5f806105d5611c3d565b9050805f015f8481526020019081526020015f205f8573ffffffffffffffffffffffffffffffffffffffff1673ffffffffffffffffffffffffffffffffffffffff1681526020019081526020015f205491505092915050565b5f7fd9b67a26000000000000000000000000000000000000000000000000000000007bffffffffffffffffffffffffffffffffffffffffffffffffffffffff1916827bffffffffffffffffffffffffffffffffffffffffffffffffffffffff191614806106f857507f0e89341c000000000000000000000000000000000000000000000000000000007bffffffffffffffffffffffffffffffffffffffffffffffffffffffff1916827bffffffffffffffffffffffffffffffffffffffffffffffffffffffff1916145b80610708575061070782611c64565b5b9050919050565b60075f9054906101000a900473ffffffffffffffffffffffffffffffffffffffff1681565b60065f9054906101000a900473ffffffffffffffffffffffffffffffffffffffff1681565b60605f610764611c3d565b905080600201805461077590614c3e565b80601f01602080910402602001604051908101604052809291908181526020018280546107a190614c3e565b80156107ec5780601f106107c3576101008083540402835291602001916107ec565b820191905f5260205f20905b8154815290600101906020018083116107cf57829003601f168201915b5050505050915050919050565b5f60055f9054906101000a900473ffffffffffffffffffffffffffffffffffffffff1673ffffffffffffffffffffffffffffffffffffffff16636c331bd385856040518363ffffffff1660e01b8152600401610856929190614c6e565b5f60405180830381865afa158015610870573d5f803e3d5ffd5b505050506040513d5f823e3d601f19601f820116820180604052508101906108989190614e79565b90505f8183815181106108ae576108ad614ec0565b5b602002602001015190505f815f01515190505f8167ffffffffffffffff8111156108db576108da61438a565b5b6040519080825280602002602001820160405280156109095781602001602082028036833780820191505090505b5090505f5b8281101561094f576109238888888488611ccd565b82828151811061093657610935614ec0565b5b602002602001018181525050808060010191505061090e565b505f61095a82611ea0565b90505f60405180606001604052808381526020018481526020014281525090508060015f8b81526020019081526020015f205f8a81526020019081526020015f205f8981526020019081526020015f205f820151815f0190805190602001906109c4929190613f61565b5060208201518160010190805190602001906109e1929190613f61565b50604082015181600201559050505f6109f98a612110565b610a028a612110565b610a0b8a612110565b604051602001610a1d93929190614f71565b60405160208183030381529060405290505f835167ffffffffffffffff811115610a4a57610a4961438a565b5b604051908082528060200260200182016040528015610a7d57816020015b6060815260200190600190039081610a685790505b5090505f5b8451811015610ad957610aae858281518110610aa157610aa0614ec0565b5b6020026020010151612110565b828281518110610ac157610ac0614ec0565b5b60200260200101819052508080600101915050610a82565b507f585300e39b71a8d6b68ca839f22b8c2a4a29a9ed364ddeba3c13557f2f47dd8b8282604051610b0b9291906150ba565b60405180910390a1610b1f8b8b8b8a6121da565b5050505050505050505050565b5f610b3561238f565b90508073ffffffffffffffffffffffffffffffffffffffff168673ffffffffffffffffffffffffffffffffffffffff1614158015610b7a5750610b788682611a76565b155b15610bbe5780866040517fe237d922000000000000000000000000000000000000000000000000000000008152600401610bb59291906150ef565b60405180910390fd5b610bcb8686868686612396565b505050505050565b5f60075f9054906101000a900473ffffffffffffffffffffffffffffffffffffffff1673ffffffffffffffffffffffffffffffffffffffff1663392ee8c1846040518263ffffffff1660e01b8152600401610c2e9190614102565b60c060405180830381865afa158015610c49573d5f803e3d5ffd5b505050506040513d601f19601f82011682018060405250810190610c6d91906151d8565b5090505f60055f9054906101000a900473ffffffffffffffffffffffffffffffffffffffff1673ffffffffffffffffffffffffffffffffffffffff16636c331bd385856040518363ffffffff1660e01b8152600401610ccd929190614c6e565b5f60405180830381865afa158015610ce7573d5f803e3d5ffd5b505050506040513d5f823e3d601f19601f82011682018060405250810190610d0f9190614e79565b90505f815167ffffffffffffffff811115610d2d57610d2c61438a565b5b604051908082528060200260200182016040528015610d6057816020015b6060815260200190600190039081610d4b5790505b5090505f5b8251811015610e2757610d798686836107f9565b5f60015f8881526020019081526020015f205f8781526020019081526020015f205f8381526020019081526020015f209050805f01805480602002602001604051908101604052809291908181526020018280548015610df657602002820191905f5260205f20905b815481526020019060010190808311610de2575b5050505050838381518110610e0e57610e0d614ec0565b5b6020026020010181905250508080600101915050610d65565b505f610e33848361248a565b90505f805b845181101561100a575f5b858281518110610e5657610e55614ec0565b5b60200260200101515f015151811015610ffc575f868381518110610e7d57610e7c614ec0565b5b60200260200101515f01518281518110610e9a57610e99614ec0565b5b602002602001015190505f858581518110610eb857610eb7614ec0565b5b602002602001015190505f811115610fdf575f60065f9054906101000a900473ffffffffffffffffffffffffffffffffffffffff1673ffffffffffffffffffffffffffffffffffffffff1663996642458d6040518263ffffffff1660e01b8152600401610f259190614102565b5f60405180830381865afa158015610f3f573d5f803e3d5ffd5b505050506040513d5f823e3d601f19601f82011682018060405250810190610f6791906152d7565b9750505050505050505f8190508073ffffffffffffffffffffffffffffffffffffffff166340c10f1985856040518363ffffffff1660e01b8152600401610faf9291906153dc565b5f604051808303815f87803b158015610fc6575f80fd5b505af1158015610fd8573d5f803e3d5ffd5b5050505050505b8480610fea90615430565b95505050508080600101915050610e43565b508080600101915050610e38565b5050505050505050565b6060815183511461106057815183516040517f5b059991000000000000000000000000000000000000000000000000000000008152600401611057929190614c6e565b60405180910390fd5b5f835167ffffffffffffffff81111561107c5761107b61438a565b5b6040519080825280602002602001820160405280156110aa5781602001602082028036833780820191505090505b5090505f5b8451811015611110576110e66110ce828761263490919063ffffffff16565b6110e1838761264790919063ffffffff16565b6105cb565b8282815181106110f9576110f8614ec0565b5b6020026020010181815250508060010190506110af565b508091505092915050565b61112361265a565b61112c82612740565b611136828261274b565b5050565b5f611143612869565b7f360894a13ba1a3210667c828492db98dca3e2076cc3735a920a3ca505d382bbc5f1b905090565b6003602052815f5260405f20602052805f5260405f205f9150915050805f015490806001015f9054906101000a900460ff16905082565b6111aa6128f0565b60025f8281526020019081526020015f205f9054906101000a900460ff1615611208576040517f08c379a00000000000000000000000000000000000000000000000000000000081526004016111ff906154c1565b60405180910390fd5b600160025f8381526020019081526020015f205f6101000a81548160ff02191690831515021790555050565b61123c6128f0565b6112455f612977565b565b5f80611251612a48565b9050805f015f9054906101000a900473ffffffffffffffffffffffffffffffffffffffff1691505090565b61128e61128761238f565b8383612a6f565b5050565b6040518060400160405280600581526020017f352e302e3000000000000000000000000000000000000000000000000000000081525081565b6112d36128f0565b8260055f6101000a81548173ffffffffffffffffffffffffffffffffffffffff021916908373ffffffffffffffffffffffffffffffffffffffff1602179055508160065f6101000a81548173ffffffffffffffffffffffffffffffffffffffff021916908373ffffffffffffffffffffffffffffffffffffffff1602179055508060075f6101000a81548173ffffffffffffffffffffffffffffffffffffffff021916908373ffffffffffffffffffffffffffffffffffffffff160217905550505050565b5f8060065f9054906101000a900473ffffffffffffffffffffffffffffffffffffffff1673ffffffffffffffffffffffffffffffffffffffff166399664245876040518263ffffffff1660e01b81526004016113f49190614102565b5f60405180830381865afa15801561140e573d5f803e3d5ffd5b505050506040513d5f823e3d601f19601f8201168201806040525081019061143691906152d7565b50965096505050505050600180811115611453576114526154df565b5b826001811115611466576114656154df565b5b146114a6576040517f08c379a000000000000000000000000000000000000000000000000000000000815260040161149d90615556565b60405180910390fd5b5f60055f9054906101000a900473ffffffffffffffffffffffffffffffffffffffff1673ffffffffffffffffffffffffffffffffffffffff16636c331bd388886040518363ffffffff1660e01b8152600401611503929190614c6e565b5f60405180830381865afa15801561151d573d5f803e3d5ffd5b505050506040513d5f823e3d601f19601f820116820180604052508101906115459190614e79565b90505f81868151811061155b5761155a614ec0565b5b60200260200101519050805f0151518551146115ac576040517f08c379a00000000000000000000000000000000000000000000000000000000081526004016115a3906155e4565b60405180910390fd5b6115b68133612be6565b6115f5576040517f08c379a00000000000000000000000000000000000000000000000000000000081526004016115ec9061564c565b60405180910390fd5b6040518060200160405280868152505f808a81526020019081526020015f205f8981526020019081526020015f205f8881526020019081526020015f205f3373ffffffffffffffffffffffffffffffffffffffff1673ffffffffffffffffffffffffffffffffffffffff1681526020019081526020015f205f820151815f019080519060200190611687929190613f61565b509050505f855167ffffffffffffffff8111156116a7576116a661438a565b5b6040519080825280602002602001820160405280156116da57816020015b60608152602001906001900390816116c55790505b5090505f5b86518110156117a1576117765f808c81526020019081526020015f205f8b81526020019081526020015f205f8a81526020019081526020015f205f3373ffffffffffffffffffffffffffffffffffffffff1673ffffffffffffffffffffffffffffffffffffffff1681526020019081526020015f205f01828154811061176857611767614ec0565b5b905f5260205f200154612110565b82828151811061178957611788614ec0565b5b602002602001018190525080806001019150506116df565b505f6117ac8a612110565b6117b58a612110565b6117d63373ffffffffffffffffffffffffffffffffffffffff166014612c6a565b6040516020016117e8939291906156fe565b60405160208183030381529060405290507fb423aa2de1d13018481ac3a60faecf65df38d56e640000fb19c88eff5304d5aa818360405161182a9291906150ba565b60405180910390a150505050505050505050565b5f611847612ea8565b90505f815f0160089054906101000a900460ff161590505f825f015f9054906101000a900467ffffffffffffffff1690505f808267ffffffffffffffff1614801561188f5750825b90505f60018367ffffffffffffffff161480156118c257505f3073ffffffffffffffffffffffffffffffffffffffff163b145b9050811580156118d0575080155b15611907576040517ff92ee8a900000000000000000000000000000000000000000000000000000000815260040160405180910390fd5b6001855f015f6101000a81548167ffffffffffffffff021916908367ffffffffffffffff1602179055508315611954576001855f0160086101000a81548160ff0219169083151502179055505b61195d86612ecf565b61197460405180602001604052805f815250612ee3565b61197c612ef7565b6040518060c00160405280601560ff168152602001600d60ff168152602001600860ff168152602001600560ff168152602001600360ff168152602001600260ff1681525060049060066119d1929190613fac565b508315611a2c575f855f0160086101000a81548160ff0219169083151502179055507fc7f505b2f371ae2175ee4913f4499e1f2633a7b5936321eed1cdaeb6115181d26001604051611a23919061579b565b60405180910390a15b505050505050565b6002602052805f5260405f205f915054906101000a900460ff1681565b60055f9054906101000a900473ffffffffffffffffffffffffffffffffffffffff1681565b5f80611a80611c3d565b9050806001015f8573ffffffffffffffffffffffffffffffffffffffff1673ffffffffffffffffffffffffffffffffffffffff1681526020019081526020015f205f8473ffffffffffffffffffffffffffffffffffffffff1673ffffffffffffffffffffffffffffffffffffffff1681526020019081526020015f205f9054906101000a900460ff1691505092915050565b5f611b1b61238f565b90508073ffffffffffffffffffffffffffffffffffffffff168673ffffffffffffffffffffffffffffffffffffffff1614158015611b605750611b5e8682611a76565b155b15611ba45780866040517fe237d922000000000000000000000000000000000000000000000000000000008152600401611b9b9291906150ef565b60405180910390fd5b611bb18686868686612f01565b505050505050565b611bc16128f0565b5f73ffffffffffffffffffffffffffffffffffffffff168173ffffffffffffffffffffffffffffffffffffffff1603611c31575f6040517f1e4fbdf7000000000000000000000000000000000000000000000000000000008152600401611c28919061498b565b60405180910390fd5b611c3a81612977565b50565b5f7f88be536d5240c274a3b1d3a1be54482fd9caa294f08c62a7cde569f49a3c4500905090565b5f7f01ffc9a7000000000000000000000000000000000000000000000000000000007bffffffffffffffffffffffffffffffffffffffffffffffffffffffff1916827bffffffffffffffffffffffffffffffffffffffffffffffffffffffff1916149050919050565b5f80825f01515167ffffffffffffffff811115611ced57611cec61438a565b5b604051908082528060200260200182016040528015611d1b5781602001602082028036833780820191505090505b5090505f5b835f015151811015611dfb575f808981526020019081526020015f205f8881526020019081526020015f205f8781526020019081526020015f205f855f01518381518110611d7157611d70614ec0565b5b602002602001015173ffffffffffffffffffffffffffffffffffffffff1673ffffffffffffffffffffffffffffffffffffffff1681526020019081526020015f205f018581548110611dc657611dc5614ec0565b5b905f5260205f200154828281518110611de257611de1614ec0565b5b6020026020010181815250508080600101915050611d20565b505f611e0682613007565b90505f611e1283613075565b90505f611e22865f01515161311b565b90505f808203611e3c57670de0b6b3a76400009050611e71565b81670de0b6b3a764000084611e5191906157b4565b611e5b9190615822565b670de0b6b3a7640000611e6e9190615852565b90505b670de0b6b3a76400008185611e8691906157b4565b611e909190615822565b9550505050505095945050505050565b60605f825167ffffffffffffffff811115611ebe57611ebd61438a565b5b604051908082528060200260200182016040528015611eec5781602001602082028036833780820191505090505b5090505f5b8151811015611f275780828281518110611f0e57611f0d614ec0565b5b6020026020010181815250508080600101915050611ef1565b505f5b60018451611f389190615852565b811015612059575f600182611f4d9190615885565b90505b845181101561204b5784838281518110611f6d57611f6c614ec0565b5b602002602001015181518110611f8657611f85614ec0565b5b602002602001015185848481518110611fa257611fa1614ec0565b5b602002602001015181518110611fbb57611fba614ec0565b5b6020026020010151101561203e57828181518110611fdc57611fdb614ec0565b5b6020026020010151838381518110611ff757611ff6614ec0565b5b602002602001015184848151811061201257612011614ec0565b5b6020026020010185848151811061202c5761202b614ec0565b5b60200260200101828152508281525050505b8080600101915050611f50565b508080600101915050611f2a565b505f835167ffffffffffffffff8111156120765761207561438a565b5b6040519080825280602002602001820160405280156120a45781602001602082028036833780820191505090505b5090505f5b8151811015612105578085516120bf9190615852565b828483815181106120d3576120d2614ec0565b5b6020026020010151815181106120ec576120eb614ec0565b5b60200260200101818152505080806001019150506120a9565b508092505050919050565b60605f600161211e84613194565b0190505f8167ffffffffffffffff81111561213c5761213b61438a565b5b6040519080825280601f01601f19166020018201604052801561216e5781602001600182028036833780820191505090505b5090505f82602001820190505b6001156121cf578080600190039150507f3031323334353637383961626364656600000000000000000000000000000000600a86061a8153600a85816121c4576121c36157f5565b5b0494505f850361217b575b819350505050919050565b5f60015f8681526020019081526020015f205f8581526020019081526020015f205f8481526020019081526020015f205f0180548060200260200160405190810160405280929190818152602001828054801561225457602002820191905f5260205f20905b815481526020019060010190808311612240575b505050505090505f825f01515190505f5b8181108015612278575060048054905081105b15612386575f845f0151600185848151811061229757612296614ec0565b5b60200260200101516122a99190615852565b815181106122ba576122b9614ec0565b5b602002602001015190505f600483815481106122d9576122d8614ec0565b5b905f5260205f200154905060055f9054906101000a900473ffffffffffffffffffffffffffffffffffffffff1673ffffffffffffffffffffffffffffffffffffffff16639807f9e88a848b856040518563ffffffff1660e01b815260040161234494939291906158b8565b5f604051808303815f87803b15801561235b575f80fd5b505af115801561236d573d5f803e3d5ffd5b505050505050808061237e90615430565b915050612265565b50505050505050565b5f33905090565b5f73ffffffffffffffffffffffffffffffffffffffff168473ffffffffffffffffffffffffffffffffffffffff1603612406575f6040517f57f447ce0000000000000000000000000000000000000000000000000000000081526004016123fd919061498b565b60405180910390fd5b5f73ffffffffffffffffffffffffffffffffffffffff168573ffffffffffffffffffffffffffffffffffffffff1603612476575f6040517f01a8351400000000000000000000000000000000000000000000000000000000815260040161246d919061498b565b60405180910390fd5b61248385858585856132e5565b5050505050565b60605f805b83518110156124ce578381815181106124ab576124aa614ec0565b5b602002602001015151826124bf9190615885565b9150808060010191505061248f565b505f8167ffffffffffffffff8111156124ea576124e961438a565b5b6040519080825280602002602001820160405280156125185781602001602082028036833780820191505090505b5090505f805f5b86518110156125bd575f5b87828151811061253d5761253c614ec0565b5b6020026020010151518110156125af575f61256382600661255e9190615852565b613391565b905080856125719190615885565b94508086858151811061258757612586614ec0565b5b602002602001018181525050838061259e90615430565b94505050808060010191505061252a565b50808060010191505061251f565b505f5b83518110156126265782888583815181106125de576125dd614ec0565b5b60200260200101516125f091906157b4565b6125fa9190615822565b84828151811061260d5761260c614ec0565b5b60200260200101818152505080806001019150506125c0565b508294505050505092915050565b5f60208202602084010151905092915050565b5f60208202602084010151905092915050565b7f000000000000000000000000000000000000000000000000000000000000000073ffffffffffffffffffffffffffffffffffffffff163073ffffffffffffffffffffffffffffffffffffffff16148061270757507f000000000000000000000000000000000000000000000000000000000000000073ffffffffffffffffffffffffffffffffffffffff166126ee6133f6565b73ffffffffffffffffffffffffffffffffffffffff1614155b1561273e576040517fe07c8dba00000000000000000000000000000000000000000000000000000000815260040160405180910390fd5b565b6127486128f0565b50565b8173ffffffffffffffffffffffffffffffffffffffff166352d1902d6040518163ffffffff1660e01b8152600401602060405180830381865afa9250505080156127b357506040513d601f19601f820116820180604052508101906127b09190615925565b60015b6127f457816040517f4c9c8ce30000000000000000000000000000000000000000000000000000000081526004016127eb919061498b565b60405180910390fd5b7f360894a13ba1a3210667c828492db98dca3e2076cc3735a920a3ca505d382bbc5f1b811461285a57806040517faa1d49a400000000000000000000000000000000000000000000000000000000815260040161285191906148fe565b60405180910390fd5b6128648383613449565b505050565b7f000000000000000000000000000000000000000000000000000000000000000073ffffffffffffffffffffffffffffffffffffffff163073ffffffffffffffffffffffffffffffffffffffff16146128ee576040517fe07c8dba00000000000000000000000000000000000000000000000000000000815260040160405180910390fd5b565b6128f861238f565b73ffffffffffffffffffffffffffffffffffffffff16612916611247565b73ffffffffffffffffffffffffffffffffffffffff16146129755761293961238f565b6040517f118cdaa700000000000000000000000000000000000000000000000000000000815260040161296c919061498b565b60405180910390fd5b565b5f612980612a48565b90505f815f015f9054906101000a900473ffffffffffffffffffffffffffffffffffffffff16905082825f015f6101000a81548173ffffffffffffffffffffffffffffffffffffffff021916908373ffffffffffffffffffffffffffffffffffffffff1602179055508273ffffffffffffffffffffffffffffffffffffffff168173ffffffffffffffffffffffffffffffffffffffff167f8be0079c531659141344cd1fd0a4f28419497f9722a3daafe3b4186f6b6457e060405160405180910390a3505050565b5f7f9016d09d72d40fdae2fd8ceac6b6234c7706214fd39c1cd1e609a0528c199300905090565b5f612a78611c3d565b90505f73ffffffffffffffffffffffffffffffffffffffff168373ffffffffffffffffffffffffffffffffffffffff1603612aea575f6040517fced3e100000000000000000000000000000000000000000000000000000000008152600401612ae1919061498b565b60405180910390fd5b81816001015f8673ffffffffffffffffffffffffffffffffffffffff1673ffffffffffffffffffffffffffffffffffffffff1681526020019081526020015f205f8573ffffffffffffffffffffffffffffffffffffffff1673ffffffffffffffffffffffffffffffffffffffff1681526020019081526020015f205f6101000a81548160ff0219169083151502179055508273ffffffffffffffffffffffffffffffffffffffff168473ffffffffffffffffffffffffffffffffffffffff167f17307eab39ab6107e8899845ad3d59bd9653f200f220920489ca2b5937696c3184604051612bd891906141b5565b60405180910390a350505050565b5f805f90505b835f015151811015612c5f578273ffffffffffffffffffffffffffffffffffffffff16845f01518281518110612c2557612c24614ec0565b5b602002602001015173ffffffffffffffffffffffffffffffffffffffff1603612c52576001915050612c64565b8080600101915050612bec565b505f90505b92915050565b60605f8390505f6002846002612c8091906157b4565b612c8a9190615885565b67ffffffffffffffff811115612ca357612ca261438a565b5b6040519080825280601f01601f191660200182016040528015612cd55781602001600182028036833780820191505090505b5090507f3000000000000000000000000000000000000000000000000000000000000000815f81518110612d0c57612d0b614ec0565b5b60200101907effffffffffffffffffffffffffffffffffffffffffffffffffffffffffffff191690815f1a9053507f780000000000000000000000000000000000000000000000000000000000000081600181518110612d6f57612d6e614ec0565b5b60200101907effffffffffffffffffffffffffffffffffffffffffffffffffffffffffffff191690815f1a9053505f6001856002612dad91906157b4565b612db79190615885565b90505b6001811115612e56577f3031323334353637383961626364656600000000000000000000000000000000600f841660108110612df957612df8614ec0565b5b1a60f81b828281518110612e1057612e0f614ec0565b5b60200101907effffffffffffffffffffffffffffffffffffffffffffffffffffffffffffff191690815f1a905350600483901c925080612e4f90615950565b9050612dba565b505f8214612e9d5784846040517fe22e27eb000000000000000000000000000000000000000000000000000000008152600401612e94929190614c6e565b60405180910390fd5b809250505092915050565b5f7ff0c57e16840df040f15088dc2f81fe391c3923bec73e23a9662efc9c229c6a00905090565b612ed76134bb565b612ee0816134fb565b50565b612eeb6134bb565b612ef48161357f565b50565b612eff6134bb565b565b5f73ffffffffffffffffffffffffffffffffffffffff168473ffffffffffffffffffffffffffffffffffffffff1603612f71575f6040517f57f447ce000000000000000000000000000000000000000000000000000000008152600401612f68919061498b565b60405180910390fd5b5f73ffffffffffffffffffffffffffffffffffffffff168573ffffffffffffffffffffffffffffffffffffffff1603612fe1575f6040517f01a83514000000000000000000000000000000000000000000000000000000008152600401612fd8919061498b565b60405180910390fd5b5f80612fed8585613593565b91509150612ffe87878484876132e5565b50505050505050565b5f805f90505f5b835181101561304c5783818151811061302a57613029614ec0565b5b60200260200101518261303d9190615885565b9150808060010191505061300e565b508251670de0b6b3a76400008261306391906157b4565b61306d9190615822565b915050919050565b5f8061308083613007565b90505f805b8451811015613104575f83670de0b6b3a76400008784815181106130ac576130ab614ec0565b5b60200260200101516130be91906157b4565b6130c89190615980565b9050670de0b6b3a764000081826130df91906159c0565b6130e99190615822565b836130f49190615885565b9250508080600101915050613085565b508351816131129190615822565b92505050919050565b5f805f90505f600190505b83811015613168576002670de0b6b3a76400008261314491906157b4565b61314e9190615822565b826131599190615885565b91508080600101915050613126565b506001836131769190615852565b818461318291906157b4565b61318c9190615822565b915050919050565b5f805f90507a184f03e93ff9f4daa797ed6e38ed64bf6a1f01000000000000000083106131f0577a184f03e93ff9f4daa797ed6e38ed64bf6a1f01000000000000000083816131e6576131e56157f5565b5b0492506040810190505b6d04ee2d6d415b85acef8100000000831061322d576d04ee2d6d415b85acef81000000008381613223576132226157f5565b5b0492506020810190505b662386f26fc10000831061325c57662386f26fc100008381613252576132516157f5565b5b0492506010810190505b6305f5e1008310613285576305f5e100838161327b5761327a6157f5565b5b0492506008810190505b61271083106132aa5761271083816132a05761329f6157f5565b5b0492506004810190505b606483106132cd57606483816132c3576132c26157f5565b5b0492506002810190505b600a83106132dc576001810190505b80915050919050565b6132f1858585856135c3565b5f73ffffffffffffffffffffffffffffffffffffffff168473ffffffffffffffffffffffffffffffffffffffff161461338a575f61332d61238f565b90506001845103613379575f61334c5f8661264790919063ffffffff16565b90505f6133625f8661264790919063ffffffff16565b9050613372838989858589613965565b5050613388565b613387818787878787613b14565b5b505b5050505050565b5f60018260ff16116133a8578160ff1690506133f1565b5f80600190505f600290505b8460ff168160ff16116133ea575f82846133ce9190615885565b90508293508092505080806133e290615a42565b9150506133b4565b5080925050505b919050565b5f6134227f360894a13ba1a3210667c828492db98dca3e2076cc3735a920a3ca505d382bbc5f1b613cc3565b5f015f9054906101000a900473ffffffffffffffffffffffffffffffffffffffff16905090565b61345282613ccc565b8173ffffffffffffffffffffffffffffffffffffffff167fbc7cd75a20ee27fd9adebab32041f755214dbc6bffa90cc0225b39da2e5c2d3b60405160405180910390a25f815111156134ae576134a88282613d95565b506134b7565b6134b6613e15565b5b5050565b6134c3613e51565b6134f9576040517fd7e6bcf800000000000000000000000000000000000000000000000000000000815260040160405180910390fd5b565b6135036134bb565b5f73ffffffffffffffffffffffffffffffffffffffff168173ffffffffffffffffffffffffffffffffffffffff1603613573575f6040517f1e4fbdf700000000000000000000000000000000000000000000000000000000815260040161356a919061498b565b60405180910390fd5b61357c81612977565b50565b6135876134bb565b61359081613e6f565b50565b60608060405191506001825283602083015260408201905060018152826020820152604081016040529250929050565b5f6135cc611c3d565b9050815183511461361857825182516040517f5b05999100000000000000000000000000000000000000000000000000000000815260040161360f929190614c6e565b60405180910390fd5b5f61362161238f565b90505f5b8451811015613823575f613642828761264790919063ffffffff16565b90505f613658838761264790919063ffffffff16565b90505f73ffffffffffffffffffffffffffffffffffffffff168973ffffffffffffffffffffffffffffffffffffffff161461377f575f855f015f8481526020019081526020015f205f8b73ffffffffffffffffffffffffffffffffffffffff1673ffffffffffffffffffffffffffffffffffffffff1681526020019081526020015f205490508181101561372957898183856040517f03dee4c50000000000000000000000000000000000000000000000000000000081526004016137209493929190615a6a565b60405180910390fd5b818103865f015f8581526020019081526020015f205f8c73ffffffffffffffffffffffffffffffffffffffff1673ffffffffffffffffffffffffffffffffffffffff1681526020019081526020015f2081905550505b5f73ffffffffffffffffffffffffffffffffffffffff168873ffffffffffffffffffffffffffffffffffffffff16146138165780855f015f8481526020019081526020015f205f8a73ffffffffffffffffffffffffffffffffffffffff1673ffffffffffffffffffffffffffffffffffffffff1681526020019081526020015f205f82825461380e9190615885565b925050819055505b5050806001019050613625565b5060018451036138de575f6138415f8661264790919063ffffffff16565b90505f6138575f8661264790919063ffffffff16565b90508673ffffffffffffffffffffffffffffffffffffffff168873ffffffffffffffffffffffffffffffffffffffff168473ffffffffffffffffffffffffffffffffffffffff167fc3d58168c5ae7397731d063d5bbf3d657854427343f4c083240f7aacaa2d0f6285856040516138cf929190614c6e565b60405180910390a4505061395d565b8473ffffffffffffffffffffffffffffffffffffffff168673ffffffffffffffffffffffffffffffffffffffff168273ffffffffffffffffffffffffffffffffffffffff167f4a39dc06d4c0dbc64b70af90fd698a233a518aa5d07e595d983b8c0526c8f7fb8787604051613954929190615aad565b60405180910390a45b505050505050565b5f8473ffffffffffffffffffffffffffffffffffffffff163b1115613b0c578373ffffffffffffffffffffffffffffffffffffffff1663f23a6e6187878686866040518663ffffffff1660e01b81526004016139c5959493929190615b34565b6020604051808303815f875af1925050508015613a0057506040513d601f19601f820116820180604052508101906139fd9190615ba0565b60015b613a81573d805f8114613a2e576040519150601f19603f3d011682016040523d82523d5f602084013e613a33565b606091505b505f815103613a7957846040517f57f447ce000000000000000000000000000000000000000000000000000000008152600401613a70919061498b565b60405180910390fd5b805181602001fd5b63f23a6e6160e01b7bffffffffffffffffffffffffffffffffffffffffffffffffffffffff1916817bffffffffffffffffffffffffffffffffffffffffffffffffffffffff191614613b0a57846040517f57f447ce000000000000000000000000000000000000000000000000000000008152600401613b01919061498b565b60405180910390fd5b505b505050505050565b5f8473ffffffffffffffffffffffffffffffffffffffff163b1115613cbb578373ffffffffffffffffffffffffffffffffffffffff1663bc197c8187878686866040518663ffffffff1660e01b8152600401613b74959493929190615bcb565b6020604051808303815f875af1925050508015613baf57506040513d601f19601f82011682018060405250810190613bac9190615ba0565b60015b613c30573d805f8114613bdd576040519150601f19603f3d011682016040523d82523d5f602084013e613be2565b606091505b505f815103613c2857846040517f57f447ce000000000000000000000000000000000000000000000000000000008152600401613c1f919061498b565b60405180910390fd5b805181602001fd5b63bc197c8160e01b7bffffffffffffffffffffffffffffffffffffffffffffffffffffffff1916817bffffffffffffffffffffffffffffffffffffffffffffffffffffffff191614613cb957846040517f57f447ce000000000000000000000000000000000000000000000000000000008152600401613cb0919061498b565b60405180910390fd5b505b505050505050565b5f819050919050565b5f8173ffffffffffffffffffffffffffffffffffffffff163b03613d2757806040517f4c9c8ce3000000000000000000000000000000000000000000000000000000008152600401613d1e919061498b565b60405180910390fd5b80613d537f360894a13ba1a3210667c828492db98dca3e2076cc3735a920a3ca505d382bbc5f1b613cc3565b5f015f6101000a81548173ffffffffffffffffffffffffffffffffffffffff021916908373ffffffffffffffffffffffffffffffffffffffff16021790555050565b60605f808473ffffffffffffffffffffffffffffffffffffffff1684604051613dbe9190615c6b565b5f60405180830381855af49150503d805f8114613df6576040519150601f19603f3d011682016040523d82523d5f602084013e613dfb565b606091505b5091509150613e0b858383613e90565b9250505092915050565b5f341115613e4f576040517fb398979f00000000000000000000000000000000000000000000000000000000815260040160405180910390fd5b565b5f613e5a612ea8565b5f0160089054906101000a900460ff16905090565b5f613e78611c3d565b905081816002019081613e8b9190615e15565b505050565b606082613ea557613ea082613f1d565b613f15565b5f8251148015613ecb57505f8473ffffffffffffffffffffffffffffffffffffffff163b145b15613f0d57836040517f9996b315000000000000000000000000000000000000000000000000000000008152600401613f04919061498b565b60405180910390fd5b819050613f16565b5b9392505050565b5f81511115613f2f5780518082602001fd5b6040517f1425ea4200000000000000000000000000000000000000000000000000000000815260040160405180910390fd5b828054828255905f5260205f20908101928215613f9b579160200282015b82811115613f9a578251825591602001919060010190613f7f565b5b509050613fa89190613ffc565b5090565b828054828255905f5260205f20908101928215613feb579160200282015b82811115613fea578251829060ff16905591602001919060010190613fca565b5b509050613ff89190613ffc565b5090565b5b80821115614013575f815f905550600101613ffd565b5090565b5f604051905090565b5f80fd5b5f80fd5b5f73ffffffffffffffffffffffffffffffffffffffff82169050919050565b5f61405182614028565b9050919050565b61406181614047565b811461406b575f80fd5b50565b5f8135905061407c81614058565b92915050565b5f819050919050565b61409481614082565b811461409e575f80fd5b50565b5f813590506140af8161408b565b92915050565b5f80604083850312156140cb576140ca614020565b5b5f6140d88582860161406e565b92505060206140e9858286016140a1565b9150509250929050565b6140fc81614082565b82525050565b5f6020820190506141155f8301846140f3565b92915050565b5f7fffffffff0000000000000000000000000000000000000000000000000000000082169050919050565b61414f8161411b565b8114614159575f80fd5b50565b5f8135905061416a81614146565b92915050565b5f6020828403121561418557614184614020565b5b5f6141928482850161415c565b91505092915050565b5f8115159050919050565b6141af8161419b565b82525050565b5f6020820190506141c85f8301846141a6565b92915050565b5f819050919050565b5f6141f16141ec6141e784614028565b6141ce565b614028565b9050919050565b5f614202826141d7565b9050919050565b5f614213826141f8565b9050919050565b61422381614209565b82525050565b5f60208201905061423c5f83018461421a565b92915050565b5f61424c826141f8565b9050919050565b61425c81614242565b82525050565b5f6020820190506142755f830184614253565b92915050565b5f602082840312156142905761428f614020565b5b5f61429d848285016140a1565b91505092915050565b5f81519050919050565b5f82825260208201905092915050565b8281835e5f83830152505050565b5f601f19601f8301169050919050565b5f6142e8826142a6565b6142f281856142b0565b93506143028185602086016142c0565b61430b816142ce565b840191505092915050565b5f6020820190508181035f83015261432e81846142de565b905092915050565b5f805f6060848603121561434d5761434c614020565b5b5f61435a868287016140a1565b935050602061436b868287016140a1565b925050604061437c868287016140a1565b9150509250925092565b5f80fd5b7f4e487b71000000000000000000000000000000000000000000000000000000005f52604160045260245ffd5b6143c0826142ce565b810181811067ffffffffffffffff821117156143df576143de61438a565b5b80604052505050565b5f6143f1614017565b90506143fd82826143b7565b919050565b5f67ffffffffffffffff82111561441c5761441b61438a565b5b602082029050602081019050919050565b5f80fd5b5f61444361443e84614402565b6143e8565b905080838252602082019050602084028301858111156144665761446561442d565b5b835b8181101561448f578061447b88826140a1565b845260208401935050602081019050614468565b5050509392505050565b5f82601f8301126144ad576144ac614386565b5b81356144bd848260208601614431565b91505092915050565b5f80fd5b5f67ffffffffffffffff8211156144e4576144e361438a565b5b6144ed826142ce565b9050602081019050919050565b828183375f83830152505050565b5f61451a614515846144ca565b6143e8565b905082815260208101848484011115614536576145356144c6565b5b6145418482856144fa565b509392505050565b5f82601f83011261455d5761455c614386565b5b813561456d848260208601614508565b91505092915050565b5f805f805f60a0868803121561458f5761458e614020565b5b5f61459c8882890161406e565b95505060206145ad8882890161406e565b945050604086013567ffffffffffffffff8111156145ce576145cd614024565b5b6145da88828901614499565b935050606086013567ffffffffffffffff8111156145fb576145fa614024565b5b61460788828901614499565b925050608086013567ffffffffffffffff81111561462857614627614024565b5b61463488828901614549565b9150509295509295909350565b5f806040838503121561465757614656614020565b5b5f614664858286016140a1565b9250506020614675858286016140a1565b9150509250929050565b5f67ffffffffffffffff8211156146995761469861438a565b5b602082029050602081019050919050565b5f6146bc6146b78461467f565b6143e8565b905080838252602082019050602084028301858111156146df576146de61442d565b5b835b8181101561470857806146f4888261406e565b8452602084019350506020810190506146e1565b5050509392505050565b5f82601f83011261472657614725614386565b5b81356147368482602086016146aa565b91505092915050565b5f806040838503121561475557614754614020565b5b5f83013567ffffffffffffffff81111561477257614771614024565b5b61477e85828601614712565b925050602083013567ffffffffffffffff81111561479f5761479e614024565b5b6147ab85828601614499565b9150509250929050565b5f81519050919050565b5f82825260208201905092915050565b5f819050602082019050919050565b6147e781614082565b82525050565b5f6147f883836147de565b60208301905092915050565b5f602082019050919050565b5f61481a826147b5565b61482481856147bf565b935061482f836147cf565b805f5b8381101561485f57815161484688826147ed565b975061485183614804565b925050600181019050614832565b5085935050505092915050565b5f6020820190508181035f8301526148848184614810565b905092915050565b5f80604083850312156148a2576148a1614020565b5b5f6148af8582860161406e565b925050602083013567ffffffffffffffff8111156148d0576148cf614024565b5b6148dc85828601614549565b9150509250929050565b5f819050919050565b6148f8816148e6565b82525050565b5f6020820190506149115f8301846148ef565b92915050565b5f806040838503121561492d5761492c614020565b5b5f61493a858286016140a1565b925050602061494b8582860161406e565b9150509250929050565b5f6040820190506149685f8301856140f3565b61497560208301846141a6565b9392505050565b61498581614047565b82525050565b5f60208201905061499e5f83018461497c565b92915050565b6149ad8161419b565b81146149b7575f80fd5b50565b5f813590506149c8816149a4565b92915050565b5f80604083850312156149e4576149e3614020565b5b5f6149f18582860161406e565b9250506020614a02858286016149ba565b9150509250929050565b5f805f60608486031215614a2357614a22614020565b5b5f614a308682870161406e565b9350506020614a418682870161406e565b9250506040614a528682870161406e565b9150509250925092565b5f805f8060808587031215614a7457614a73614020565b5b5f614a81878288016140a1565b9450506020614a92878288016140a1565b9350506040614aa3878288016140a1565b925050606085013567ffffffffffffffff811115614ac457614ac3614024565b5b614ad087828801614499565b91505092959194509250565b5f60208284031215614af157614af0614020565b5b5f614afe8482850161406e565b91505092915050565b5f614b11826141f8565b9050919050565b614b2181614b07565b82525050565b5f602082019050614b3a5f830184614b18565b92915050565b5f8060408385031215614b5657614b55614020565b5b5f614b638582860161406e565b9250506020614b748582860161406e565b9150509250929050565b5f805f805f60a08688031215614b9757614b96614020565b5b5f614ba48882890161406e565b9550506020614bb58882890161406e565b9450506040614bc6888289016140a1565b9350506060614bd7888289016140a1565b925050608086013567ffffffffffffffff811115614bf857614bf7614024565b5b614c0488828901614549565b9150509295509295909350565b7f4e487b71000000000000000000000000000000000000000000000000000000005f52602260045260245ffd5b5f6002820490506001821680614c5557607f821691505b602082108103614c6857614c67614c11565b5b50919050565b5f604082019050614c815f8301856140f3565b614c8e60208301846140f3565b9392505050565b5f67ffffffffffffffff821115614caf57614cae61438a565b5b602082029050602081019050919050565b5f80fd5b5f80fd5b5f81519050614cd681614058565b92915050565b5f614cee614ce98461467f565b6143e8565b90508083825260208201905060208402830185811115614d1157614d1061442d565b5b835b81811015614d3a5780614d268882614cc8565b845260208401935050602081019050614d13565b5050509392505050565b5f82601f830112614d5857614d57614386565b5b8151614d68848260208601614cdc565b91505092915050565b5f60208284031215614d8657614d85614cc0565b5b614d9060206143e8565b90505f82015167ffffffffffffffff811115614daf57614dae614cc4565b5b614dbb84828501614d44565b5f8301525092915050565b5f614dd8614dd384614c95565b6143e8565b90508083825260208201905060208402830185811115614dfb57614dfa61442d565b5b835b81811015614e4257805167ffffffffffffffff811115614e2057614e1f614386565b5b808601614e2d8982614d71565b85526020850194505050602081019050614dfd565b5050509392505050565b5f82601f830112614e6057614e5f614386565b5b8151614e70848260208601614dc6565b91505092915050565b5f60208284031215614e8e57614e8d614020565b5b5f82015167ffffffffffffffff811115614eab57614eaa614024565b5b614eb784828501614e4c565b91505092915050565b7f4e487b71000000000000000000000000000000000000000000000000000000005f52603260045260245ffd5b5f81905092915050565b5f614f01826142a6565b614f0b8185614eed565b9350614f1b8185602086016142c0565b80840191505092915050565b7f2d000000000000000000000000000000000000000000000000000000000000005f82015250565b5f614f5b600183614eed565b9150614f6682614f27565b600182019050919050565b5f614f7c8286614ef7565b9150614f8782614f4f565b9150614f938285614ef7565b9150614f9e82614f4f565b9150614faa8284614ef7565b9150819050949350505050565b5f81519050919050565b5f82825260208201905092915050565b5f819050602082019050919050565b5f82825260208201905092915050565b5f614ffa826142a6565b6150048185614fe0565b93506150148185602086016142c0565b61501d816142ce565b840191505092915050565b5f6150338383614ff0565b905092915050565b5f602082019050919050565b5f61505182614fb7565b61505b8185614fc1565b93508360208202850161506d85614fd1565b805f5b858110156150a857848403895281516150898582615028565b94506150948361503b565b925060208a01995050600181019050615070565b50829750879550505050505092915050565b5f6040820190508181035f8301526150d281856142de565b905081810360208301526150e68184615047565b90509392505050565b5f6040820190506151025f83018561497c565b61510f602083018461497c565b9392505050565b5f815190506151248161408b565b92915050565b5f67ffffffffffffffff8211156151445761514361438a565b5b602082029050919050565b5f61516161515c8461512a565b6143e8565b9050806020840283018581111561517b5761517a61442d565b5b835b818110156151a457806151908882614cc8565b84526020840193505060208101905061517d565b5050509392505050565b5f82601f8301126151c2576151c1614386565b5b60056151cf84828561514f565b91505092915050565b5f8060c083850312156151ee576151ed614020565b5b5f6151fb85828601615116565b925050602061520c858286016151ae565b9150509250929050565b5f67ffffffffffffffff8211156152305761522f61438a565b5b615239826142ce565b9050602081019050919050565b5f61525861525384615216565b6143e8565b905082815260208101848484011115615274576152736144c6565b5b61527f8482856142c0565b509392505050565b5f82601f83011261529b5761529a614386565b5b81516152ab848260208601615246565b91505092915050565b600281106152c0575f80fd5b50565b5f815190506152d1816152b4565b92915050565b5f805f805f805f80610100898b0312156152f4576152f3614020565b5b5f89015167ffffffffffffffff81111561531157615310614024565b5b61531d8b828c01615287565b985050602089015167ffffffffffffffff81111561533e5761533d614024565b5b61534a8b828c01615287565b975050604089015167ffffffffffffffff81111561536b5761536a614024565b5b6153778b828c01615287565b96505060606153888b828c01614cc8565b95505060806153998b828c01615116565b94505060a06153aa8b828c016152c3565b93505060c06153bb8b828c01615116565b92505060e06153cc8b828c01614cc8565b9150509295985092959890939650565b5f6040820190506153ef5f83018561497c565b6153fc60208301846140f3565b9392505050565b7f4e487b71000000000000000000000000000000000000000000000000000000005f52601160045260245ffd5b5f61543a82614082565b91507fffffffffffffffffffffffffffffffffffffffffffffffffffffffffffffffff820361546c5761546b615403565b5b600182019050919050565b7f436f6d6d756e69747920746f6b656e20616c72656164792065786973747300005f82015250565b5f6154ab601e836142b0565b91506154b682615477565b602082019050919050565b5f6020820190508181035f8301526154d88161549f565b9050919050565b7f4e487b71000000000000000000000000000000000000000000000000000000005f52602160045260245ffd5b7f4e6f7420696e2072616e6b696e672070686173650000000000000000000000005f82015250565b5f6155406014836142b0565b915061554b8261550c565b602082019050919050565b5f6020820190508181035f83015261556d81615534565b9050919050565b7f52616e6b696e67206d75737420696e636c75646520616c6c2067726f7570206d5f8201527f656d626572730000000000000000000000000000000000000000000000000000602082015250565b5f6155ce6026836142b0565b91506155d982615574565b604082019050919050565b5f6020820190508181035f8301526155fb816155c2565b9050919050565b7f53656e646572206e6f742070617274206f66207468652067726f7570000000005f82015250565b5f615636601c836142b0565b915061564182615602565b602082019050919050565b5f6020820190508181035f8301526156638161562a565b9050919050565b7f202d2000000000000000000000000000000000000000000000000000000000005f82015250565b5f61569e600383614eed565b91506156a98261566a565b600382019050919050565b7f202d2052000000000000000000000000000000000000000000000000000000005f82015250565b5f6156e8600483614eed565b91506156f3826156b4565b600482019050919050565b5f6157098286614ef7565b915061571482615692565b91506157208285614ef7565b915061572b82615692565b91506157378284614ef7565b9150615742826156dc565b9150819050949350505050565b5f819050919050565b5f67ffffffffffffffff82169050919050565b5f61578561578061577b8461574f565b6141ce565b615758565b9050919050565b6157958161576b565b82525050565b5f6020820190506157ae5f83018461578c565b92915050565b5f6157be82614082565b91506157c983614082565b92508282026157d781614082565b915082820484148315176157ee576157ed615403565b5b5092915050565b7f4e487b71000000000000000000000000000000000000000000000000000000005f52601260045260245ffd5b5f61582c82614082565b915061583783614082565b925082615847576158466157f5565b5b828204905092915050565b5f61585c82614082565b915061586783614082565b925082820390508181111561587f5761587e615403565b5b92915050565b5f61588f82614082565b915061589a83614082565b92508282019050808211156158b2576158b1615403565b5b92915050565b5f6080820190506158cb5f8301876140f3565b6158d8602083018661497c565b6158e560408301856140f3565b6158f260608301846140f3565b95945050505050565b615904816148e6565b811461590e575f80fd5b50565b5f8151905061591f816158fb565b92915050565b5f6020828403121561593a57615939614020565b5b5f61594784828501615911565b91505092915050565b5f61595a82614082565b91505f820361596c5761596b615403565b5b600182039050919050565b5f819050919050565b5f61598a82615977565b915061599583615977565b925082820390508181125f8412168282135f8512151617156159ba576159b9615403565b5b92915050565b5f6159ca82615977565b91506159d583615977565b92508282026159e381615977565b91507f800000000000000000000000000000000000000000000000000000000000000084145f84121615615a1a57615a19615403565b5b8282058414831517615a2f57615a2e615403565b5b5092915050565b5f60ff82169050919050565b5f615a4c82615a36565b915060ff8203615a5f57615a5e615403565b5b600182019050919050565b5f608082019050615a7d5f83018761497c565b615a8a60208301866140f3565b615a9760408301856140f3565b615aa460608301846140f3565b95945050505050565b5f6040820190508181035f830152615ac58185614810565b90508181036020830152615ad98184614810565b90509392505050565b5f81519050919050565b5f82825260208201905092915050565b5f615b0682615ae2565b615b108185615aec565b9350615b208185602086016142c0565b615b29816142ce565b840191505092915050565b5f60a082019050615b475f83018861497c565b615b54602083018761497c565b615b6160408301866140f3565b615b6e60608301856140f3565b8181036080830152615b808184615afc565b90509695505050505050565b5f81519050615b9a81614146565b92915050565b5f60208284031215615bb557615bb4614020565b5b5f615bc284828501615b8c565b91505092915050565b5f60a082019050615bde5f83018861497c565b615beb602083018761497c565b8181036040830152615bfd8186614810565b90508181036060830152615c118185614810565b90508181036080830152615c258184615afc565b90509695505050505050565b5f81905092915050565b5f615c4582615ae2565b615c4f8185615c31565b9350615c5f8185602086016142c0565b80840191505092915050565b5f615c768284615c3b565b915081905092915050565b5f819050815f5260205f209050919050565b5f6020601f8301049050919050565b5f82821b905092915050565b5f60088302615cdd7fffffffffffffffffffffffffffffffffffffffffffffffffffffffffffffffff82615ca2565b615ce78683615ca2565b95508019841693508086168417925050509392505050565b5f615d19615d14615d0f84614082565b6141ce565b614082565b9050919050565b5f819050919050565b615d3283615cff565b615d46615d3e82615d20565b848454615cae565b825550505050565b5f90565b615d5a615d4e565b615d65818484615d29565b505050565b5b81811015615d8857615d7d5f82615d52565b600181019050615d6b565b5050565b601f821115615dcd57615d9e81615c81565b615da784615c93565b81016020851015615db6578190505b615dca615dc285615c93565b830182615d6a565b50505b505050565b5f82821c905092915050565b5f615ded5f1984600802615dd2565b1980831691505092915050565b5f615e058383615dde565b9150826002028217905092915050565b615e1e826142a6565b67ffffffffffffffff811115615e3757615e3661438a565b5b615e418254614c3e565b615e4c828285615d8c565b5f60209050601f831160018114615e7d575f8415615e6b578287015190505b615e758582615dfa565b865550615edc565b601f198416615e8b86615c81565b5f5b82811015615eb257848901518255600182019150602085019450602081019050615e8d565b86831015615ecf5784890151615ecb601f891682615dde565b8355505b6001600288020188555050505b50505050505056fea2646970667358221220493325a0ac999ccc5778849e18e60b12f2fb0664b25171afa8e00684b174d3c364736f6c634300081a0033",
			"opcodes": "PUSH1 0xA0 PUSH1 0x40 MSTORE ADDRESS PUSH20 0xFFFFFFFFFFFFFFFFFFFFFFFFFFFFFFFFFFFFFFFF AND PUSH1 0x80 SWAP1 PUSH20 0xFFFFFFFFFFFFFFFFFFFFFFFFFFFFFFFFFFFFFFFF AND DUP2 MSTORE POP CALLVALUE DUP1 ISZERO PUSH2 0x42 JUMPI PUSH0 DUP1 REVERT JUMPDEST POP PUSH2 0x51 PUSH2 0x56 PUSH1 0x20 SHL PUSH1 0x20 SHR JUMP JUMPDEST PUSH2 0x1B6 JUMP JUMPDEST PUSH0 PUSH2 0x65 PUSH2 0x154 PUSH1 0x20 SHL PUSH1 0x20 SHR JUMP JUMPDEST SWAP1 POP DUP1 PUSH0 ADD PUSH1 0x8 SWAP1 SLOAD SWAP1 PUSH2 0x100 EXP SWAP1 DIV PUSH1 0xFF AND ISZERO PUSH2 0xAF JUMPI PUSH1 0x40 MLOAD PUSH32 0xF92EE8A900000000000000000000000000000000000000000000000000000000 DUP2 MSTORE PUSH1 0x4 ADD PUSH1 0x40 MLOAD DUP1 SWAP2 SUB SWAP1 REVERT JUMPDEST PUSH8 0xFFFFFFFFFFFFFFFF DUP1 AND DUP2 PUSH0 ADD PUSH0 SWAP1 SLOAD SWAP1 PUSH2 0x100 EXP SWAP1 DIV PUSH8 0xFFFFFFFFFFFFFFFF AND PUSH8 0xFFFFFFFFFFFFFFFF AND EQ PUSH2 0x151 JUMPI PUSH8 0xFFFFFFFFFFFFFFFF DUP2 PUSH0 ADD PUSH0 PUSH2 0x100 EXP DUP2 SLOAD DUP2 PUSH8 0xFFFFFFFFFFFFFFFF MUL NOT AND SWAP1 DUP4 PUSH8 0xFFFFFFFFFFFFFFFF AND MUL OR SWAP1 SSTORE POP PUSH32 0xC7F505B2F371AE2175EE4913F4499E1F2633A7B5936321EED1CDAEB6115181D2 PUSH8 0xFFFFFFFFFFFFFFFF PUSH1 0x40 MLOAD PUSH2 0x148 SWAP2 SWAP1 PUSH2 0x19D JUMP JUMPDEST PUSH1 0x40 MLOAD DUP1 SWAP2 SUB SWAP1 LOG1 JUMPDEST POP JUMP JUMPDEST PUSH0 PUSH32 0xF0C57E16840DF040F15088DC2F81FE391C3923BEC73E23A9662EFC9C229C6A00 SWAP1 POP SWAP1 JUMP JUMPDEST PUSH0 PUSH8 0xFFFFFFFFFFFFFFFF DUP3 AND SWAP1 POP SWAP2 SWAP1 POP JUMP JUMPDEST PUSH2 0x197 DUP2 PUSH2 0x17B JUMP JUMPDEST DUP3 MSTORE POP POP JUMP JUMPDEST PUSH0 PUSH1 0x20 DUP3 ADD SWAP1 POP PUSH2 0x1B0 PUSH0 DUP4 ADD DUP5 PUSH2 0x18E JUMP JUMPDEST SWAP3 SWAP2 POP POP JUMP JUMPDEST PUSH1 0x80 MLOAD PUSH2 0x5F1A PUSH2 0x1DC PUSH0 CODECOPY PUSH0 DUP2 DUP2 PUSH2 0x265C ADD MSTORE DUP2 DUP2 PUSH2 0x26B1 ADD MSTORE PUSH2 0x286B ADD MSTORE PUSH2 0x5F1A PUSH0 RETURN INVALID PUSH1 0x80 PUSH1 0x40 MSTORE PUSH1 0x4 CALLDATASIZE LT PUSH2 0x164 JUMPI PUSH0 CALLDATALOAD PUSH1 0xE0 SHR DUP1 PUSH4 0x65C33697 GT PUSH2 0xD0 JUMPI DUP1 PUSH4 0xB74CA713 GT PUSH2 0x89 JUMPI DUP1 PUSH4 0xDE04BBD2 GT PUSH2 0x63 JUMPI DUP1 PUSH4 0xDE04BBD2 EQ PUSH2 0x515 JUMPI DUP1 PUSH4 0xE985E9C5 EQ PUSH2 0x53F JUMPI DUP1 PUSH4 0xF242432A EQ PUSH2 0x57B JUMPI DUP1 PUSH4 0xF2FDE38B EQ PUSH2 0x5A3 JUMPI PUSH2 0x164 JUMP JUMPDEST DUP1 PUSH4 0xB74CA713 EQ PUSH2 0x489 JUMPI DUP1 PUSH4 0xC4D66DE8 EQ PUSH2 0x4B1 JUMPI DUP1 PUSH4 0xD60429D0 EQ PUSH2 0x4D9 JUMPI PUSH2 0x164 JUMP JUMPDEST DUP1 PUSH4 0x65C33697 EQ PUSH2 0x3A7 JUMPI DUP1 PUSH4 0x715018A6 EQ PUSH2 0x3CF JUMPI DUP1 PUSH4 0x8DA5CB5B EQ PUSH2 0x3E5 JUMPI DUP1 PUSH4 0xA22CB465 EQ PUSH2 0x40F JUMPI DUP1 PUSH4 0xAD3CB1CC EQ PUSH2 0x437 JUMPI DUP1 PUSH4 0xB3066D49 EQ PUSH2 0x461 JUMPI PUSH2 0x164 JUMP JUMPDEST DUP1 PUSH4 0x2EB2C2D6 GT PUSH2 0x122 JUMPI DUP1 PUSH4 0x2EB2C2D6 EQ PUSH2 0x298 JUMPI DUP1 PUSH4 0x33718CE8 EQ PUSH2 0x2C0 JUMPI DUP1 PUSH4 0x4E1273F4 EQ PUSH2 0x2E8 JUMPI DUP1 PUSH4 0x4F1EF286 EQ PUSH2 0x324 JUMPI DUP1 PUSH4 0x52D1902D EQ PUSH2 0x340 JUMPI DUP1 PUSH4 0x643F273D EQ PUSH2 0x36A JUMPI PUSH2 0x164 JUMP JUMPDEST DUP1 PUSH3 0xFDD58E EQ PUSH2 0x168 JUMPI DUP1 PUSH4 0x1FFC9A7 EQ PUSH2 0x1A4 JUMPI DUP1 PUSH4 0x4D5232B EQ PUSH2 0x1E0 JUMPI DUP1 PUSH4 0x6428F02 EQ PUSH2 0x20A JUMPI DUP1 PUSH4 0xE89341C EQ PUSH2 0x234 JUMPI DUP1 PUSH4 0x17DD9E73 EQ PUSH2 0x270 JUMPI JUMPDEST PUSH0 DUP1 REVERT JUMPDEST CALLVALUE DUP1 ISZERO PUSH2 0x173 JUMPI PUSH0 DUP1 REVERT JUMPDEST POP PUSH2 0x18E PUSH1 0x4 DUP1 CALLDATASIZE SUB DUP2 ADD SWAP1 PUSH2 0x189 SWAP2 SWAP1 PUSH2 0x40B5 JUMP JUMPDEST PUSH2 0x5CB JUMP JUMPDEST PUSH1 0x40 MLOAD PUSH2 0x19B SWAP2 SWAP1 PUSH2 0x4102 JUMP JUMPDEST PUSH1 0x40 MLOAD DUP1 SWAP2 SUB SWAP1 RETURN JUMPDEST CALLVALUE DUP1 ISZERO PUSH2 0x1AF JUMPI PUSH0 DUP1 REVERT JUMPDEST POP PUSH2 0x1CA PUSH1 0x4 DUP1 CALLDATASIZE SUB DUP2 ADD SWAP1 PUSH2 0x1C5 SWAP2 SWAP1 PUSH2 0x4170 JUMP JUMPDEST PUSH2 0x62E JUMP JUMPDEST PUSH1 0x40 MLOAD PUSH2 0x1D7 SWAP2 SWAP1 PUSH2 0x41B5 JUMP JUMPDEST PUSH1 0x40 MLOAD DUP1 SWAP2 SUB SWAP1 RETURN JUMPDEST CALLVALUE DUP1 ISZERO PUSH2 0x1EB JUMPI PUSH0 DUP1 REVERT JUMPDEST POP PUSH2 0x1F4 PUSH2 0x70F JUMP JUMPDEST PUSH1 0x40 MLOAD PUSH2 0x201 SWAP2 SWAP1 PUSH2 0x4229 JUMP JUMPDEST PUSH1 0x40 MLOAD DUP1 SWAP2 SUB SWAP1 RETURN JUMPDEST CALLVALUE DUP1 ISZERO PUSH2 0x215 JUMPI PUSH0 DUP1 REVERT JUMPDEST POP PUSH2 0x21E PUSH2 0x734 JUMP JUMPDEST PUSH1 0x40 MLOAD PUSH2 0x22B SWAP2 SWAP1 PUSH2 0x4262 JUMP JUMPDEST PUSH1 0x40 MLOAD DUP1 SWAP2 SUB SWAP1 RETURN JUMPDEST CALLVALUE DUP1 ISZERO PUSH2 0x23F JUMPI PUSH0 DUP1 REVERT JUMPDEST POP PUSH2 0x25A PUSH1 0x4 DUP1 CALLDATASIZE SUB DUP2 ADD SWAP1 PUSH2 0x255 SWAP2 SWAP1 PUSH2 0x427B JUMP JUMPDEST PUSH2 0x759 JUMP JUMPDEST PUSH1 0x40 MLOAD PUSH2 0x267 SWAP2 SWAP1 PUSH2 0x4316 JUMP JUMPDEST PUSH1 0x40 MLOAD DUP1 SWAP2 SUB SWAP1 RETURN JUMPDEST CALLVALUE DUP1 ISZERO PUSH2 0x27B JUMPI PUSH0 DUP1 REVERT JUMPDEST POP PUSH2 0x296 PUSH1 0x4 DUP1 CALLDATASIZE SUB DUP2 ADD SWAP1 PUSH2 0x291 SWAP2 SWAP1 PUSH2 0x4336 JUMP JUMPDEST PUSH2 0x7F9 JUMP JUMPDEST STOP JUMPDEST CALLVALUE DUP1 ISZERO PUSH2 0x2A3 JUMPI PUSH0 DUP1 REVERT JUMPDEST POP PUSH2 0x2BE PUSH1 0x4 DUP1 CALLDATASIZE SUB DUP2 ADD SWAP1 PUSH2 0x2B9 SWAP2 SWAP1 PUSH2 0x4576 JUMP JUMPDEST PUSH2 0xB2C JUMP JUMPDEST STOP JUMPDEST CALLVALUE DUP1 ISZERO PUSH2 0x2CB JUMPI PUSH0 DUP1 REVERT JUMPDEST POP PUSH2 0x2E6 PUSH1 0x4 DUP1 CALLDATASIZE SUB DUP2 ADD SWAP1 PUSH2 0x2E1 SWAP2 SWAP1 PUSH2 0x4641 JUMP JUMPDEST PUSH2 0xBD3 JUMP JUMPDEST STOP JUMPDEST CALLVALUE DUP1 ISZERO PUSH2 0x2F3 JUMPI PUSH0 DUP1 REVERT JUMPDEST POP PUSH2 0x30E PUSH1 0x4 DUP1 CALLDATASIZE SUB DUP2 ADD SWAP1 PUSH2 0x309 SWAP2 SWAP1 PUSH2 0x473F JUMP JUMPDEST PUSH2 0x1014 JUMP JUMPDEST PUSH1 0x40 MLOAD PUSH2 0x31B SWAP2 SWAP1 PUSH2 0x486C JUMP JUMPDEST PUSH1 0x40 MLOAD DUP1 SWAP2 SUB SWAP1 RETURN JUMPDEST PUSH2 0x33E PUSH1 0x4 DUP1 CALLDATASIZE SUB DUP2 ADD SWAP1 PUSH2 0x339 SWAP2 SWAP1 PUSH2 0x488C JUMP JUMPDEST PUSH2 0x111B JUMP JUMPDEST STOP JUMPDEST CALLVALUE DUP1 ISZERO PUSH2 0x34B JUMPI PUSH0 DUP1 REVERT JUMPDEST POP PUSH2 0x354 PUSH2 0x113A JUMP JUMPDEST PUSH1 0x40 MLOAD PUSH2 0x361 SWAP2 SWAP1 PUSH2 0x48FE JUMP JUMPDEST PUSH1 0x40 MLOAD DUP1 SWAP2 SUB SWAP1 RETURN JUMPDEST CALLVALUE DUP1 ISZERO PUSH2 0x375 JUMPI PUSH0 DUP1 REVERT JUMPDEST POP PUSH2 0x390 PUSH1 0x4 DUP1 CALLDATASIZE SUB DUP2 ADD SWAP1 PUSH2 0x38B SWAP2 SWAP1 PUSH2 0x4917 JUMP JUMPDEST PUSH2 0x116B JUMP JUMPDEST PUSH1 0x40 MLOAD PUSH2 0x39E SWAP3 SWAP2 SWAP1 PUSH2 0x4955 JUMP JUMPDEST PUSH1 0x40 MLOAD DUP1 SWAP2 SUB SWAP1 RETURN JUMPDEST CALLVALUE DUP1 ISZERO PUSH2 0x3B2 JUMPI PUSH0 DUP1 REVERT JUMPDEST POP PUSH2 0x3CD PUSH1 0x4 DUP1 CALLDATASIZE SUB DUP2 ADD SWAP1 PUSH2 0x3C8 SWAP2 SWAP1 PUSH2 0x427B JUMP JUMPDEST PUSH2 0x11A2 JUMP JUMPDEST STOP JUMPDEST CALLVALUE DUP1 ISZERO PUSH2 0x3DA JUMPI PUSH0 DUP1 REVERT JUMPDEST POP PUSH2 0x3E3 PUSH2 0x1234 JUMP JUMPDEST STOP JUMPDEST CALLVALUE DUP1 ISZERO PUSH2 0x3F0 JUMPI PUSH0 DUP1 REVERT JUMPDEST POP PUSH2 0x3F9 PUSH2 0x1247 JUMP JUMPDEST PUSH1 0x40 MLOAD PUSH2 0x406 SWAP2 SWAP1 PUSH2 0x498B JUMP JUMPDEST PUSH1 0x40 MLOAD DUP1 SWAP2 SUB SWAP1 RETURN JUMPDEST CALLVALUE DUP1 ISZERO PUSH2 0x41A JUMPI PUSH0 DUP1 REVERT JUMPDEST POP PUSH2 0x435 PUSH1 0x4 DUP1 CALLDATASIZE SUB DUP2 ADD SWAP1 PUSH2 0x430 SWAP2 SWAP1 PUSH2 0x49CE JUMP JUMPDEST PUSH2 0x127C JUMP JUMPDEST STOP JUMPDEST CALLVALUE DUP1 ISZERO PUSH2 0x442 JUMPI PUSH0 DUP1 REVERT JUMPDEST POP PUSH2 0x44B PUSH2 0x1292 JUMP JUMPDEST PUSH1 0x40 MLOAD PUSH2 0x458 SWAP2 SWAP1 PUSH2 0x4316 JUMP JUMPDEST PUSH1 0x40 MLOAD DUP1 SWAP2 SUB SWAP1 RETURN JUMPDEST CALLVALUE DUP1 ISZERO PUSH2 0x46C JUMPI PUSH0 DUP1 REVERT JUMPDEST POP PUSH2 0x487 PUSH1 0x4 DUP1 CALLDATASIZE SUB DUP2 ADD SWAP1 PUSH2 0x482 SWAP2 SWAP1 PUSH2 0x4A0C JUMP JUMPDEST PUSH2 0x12CB JUMP JUMPDEST STOP JUMPDEST CALLVALUE DUP1 ISZERO PUSH2 0x494 JUMPI PUSH0 DUP1 REVERT JUMPDEST POP PUSH2 0x4AF PUSH1 0x4 DUP1 CALLDATASIZE SUB DUP2 ADD SWAP1 PUSH2 0x4AA SWAP2 SWAP1 PUSH2 0x4A5C JUMP JUMPDEST PUSH2 0x1398 JUMP JUMPDEST STOP JUMPDEST CALLVALUE DUP1 ISZERO PUSH2 0x4BC JUMPI PUSH0 DUP1 REVERT JUMPDEST POP PUSH2 0x4D7 PUSH1 0x4 DUP1 CALLDATASIZE SUB DUP2 ADD SWAP1 PUSH2 0x4D2 SWAP2 SWAP1 PUSH2 0x4ADC JUMP JUMPDEST PUSH2 0x183E JUMP JUMPDEST STOP JUMPDEST CALLVALUE DUP1 ISZERO PUSH2 0x4E4 JUMPI PUSH0 DUP1 REVERT JUMPDEST POP PUSH2 0x4FF PUSH1 0x4 DUP1 CALLDATASIZE SUB DUP2 ADD SWAP1 PUSH2 0x4FA SWAP2 SWAP1 PUSH2 0x427B JUMP JUMPDEST PUSH2 0x1A34 JUMP JUMPDEST PUSH1 0x40 MLOAD PUSH2 0x50C SWAP2 SWAP1 PUSH2 0x41B5 JUMP JUMPDEST PUSH1 0x40 MLOAD DUP1 SWAP2 SUB SWAP1 RETURN JUMPDEST CALLVALUE DUP1 ISZERO PUSH2 0x520 JUMPI PUSH0 DUP1 REVERT JUMPDEST POP PUSH2 0x529 PUSH2 0x1A51 JUMP JUMPDEST PUSH1 0x40 MLOAD PUSH2 0x536 SWAP2 SWAP1 PUSH2 0x4B27 JUMP JUMPDEST PUSH1 0x40 MLOAD DUP1 SWAP2 SUB SWAP1 RETURN JUMPDEST CALLVALUE DUP1 ISZERO PUSH2 0x54A JUMPI PUSH0 DUP1 REVERT JUMPDEST POP PUSH2 0x565 PUSH1 0x4 DUP1 CALLDATASIZE SUB DUP2 ADD SWAP1 PUSH2 0x560 SWAP2 SWAP1 PUSH2 0x4B40 JUMP JUMPDEST PUSH2 0x1A76 JUMP JUMPDEST PUSH1 0x40 MLOAD PUSH2 0x572 SWAP2 SWAP1 PUSH2 0x41B5 JUMP JUMPDEST PUSH1 0x40 MLOAD DUP1 SWAP2 SUB SWAP1 RETURN JUMPDEST CALLVALUE DUP1 ISZERO PUSH2 0x586 JUMPI PUSH0 DUP1 REVERT JUMPDEST POP PUSH2 0x5A1 PUSH1 0x4 DUP1 CALLDATASIZE SUB DUP2 ADD SWAP1 PUSH2 0x59C SWAP2 SWAP1 PUSH2 0x4B7E JUMP JUMPDEST PUSH2 0x1B12 JUMP JUMPDEST STOP JUMPDEST CALLVALUE DUP1 ISZERO PUSH2 0x5AE JUMPI PUSH0 DUP1 REVERT JUMPDEST POP PUSH2 0x5C9 PUSH1 0x4 DUP1 CALLDATASIZE SUB DUP2 ADD SWAP1 PUSH2 0x5C4 SWAP2 SWAP1 PUSH2 0x4ADC JUMP JUMPDEST PUSH2 0x1BB9 JUMP JUMPDEST STOP JUMPDEST PUSH0 DUP1 PUSH2 0x5D5 PUSH2 0x1C3D JUMP JUMPDEST SWAP1 POP DUP1 PUSH0 ADD PUSH0 DUP5 DUP2 MSTORE PUSH1 0x20 ADD SWAP1 DUP2 MSTORE PUSH1 0x20 ADD PUSH0 KECCAK256 PUSH0 DUP6 PUSH20 0xFFFFFFFFFFFFFFFFFFFFFFFFFFFFFFFFFFFFFFFF AND PUSH20 0xFFFFFFFFFFFFFFFFFFFFFFFFFFFFFFFFFFFFFFFF AND DUP2 MSTORE PUSH1 0x20 ADD SWAP1 DUP2 MSTORE PUSH1 0x20 ADD PUSH0 KECCAK256 SLOAD SWAP2 POP POP SWAP3 SWAP2 POP POP JUMP JUMPDEST PUSH0 PUSH32 0xD9B67A2600000000000000000000000000000000000000000000000000000000 PUSH28 0xFFFFFFFFFFFFFFFFFFFFFFFFFFFFFFFFFFFFFFFFFFFFFFFFFFFFFFFF NOT AND DUP3 PUSH28 0xFFFFFFFFFFFFFFFFFFFFFFFFFFFFFFFFFFFFFFFFFFFFFFFFFFFFFFFF NOT AND EQ DUP1 PUSH2 0x6F8 JUMPI POP PUSH32 0xE89341C00000000000000000000000000000000000000000000000000000000 PUSH28 0xFFFFFFFFFFFFFFFFFFFFFFFFFFFFFFFFFFFFFFFFFFFFFFFFFFFFFFFF NOT AND DUP3 PUSH28 0xFFFFFFFFFFFFFFFFFFFFFFFFFFFFFFFFFFFFFFFFFFFFFFFFFFFFFFFF NOT AND EQ JUMPDEST DUP1 PUSH2 0x708 JUMPI POP PUSH2 0x707 DUP3 PUSH2 0x1C64 JUMP JUMPDEST JUMPDEST SWAP1 POP SWAP2 SWAP1 POP JUMP JUMPDEST PUSH1 0x7 PUSH0 SWAP1 SLOAD SWAP1 PUSH2 0x100 EXP SWAP1 DIV PUSH20 0xFFFFFFFFFFFFFFFFFFFFFFFFFFFFFFFFFFFFFFFF AND DUP2 JUMP JUMPDEST PUSH1 0x6 PUSH0 SWAP1 SLOAD SWAP1 PUSH2 0x100 EXP SWAP1 DIV PUSH20 0xFFFFFFFFFFFFFFFFFFFFFFFFFFFFFFFFFFFFFFFF AND DUP2 JUMP JUMPDEST PUSH1 0x60 PUSH0 PUSH2 0x764 PUSH2 0x1C3D JUMP JUMPDEST SWAP1 POP DUP1 PUSH1 0x2 ADD DUP1 SLOAD PUSH2 0x775 SWAP1 PUSH2 0x4C3E JUMP JUMPDEST DUP1 PUSH1 0x1F ADD PUSH1 0x20 DUP1 SWAP2 DIV MUL PUSH1 0x20 ADD PUSH1 0x40 MLOAD SWAP1 DUP2 ADD PUSH1 0x40 MSTORE DUP1 SWAP3 SWAP2 SWAP1 DUP2 DUP2 MSTORE PUSH1 0x20 ADD DUP3 DUP1 SLOAD PUSH2 0x7A1 SWAP1 PUSH2 0x4C3E JUMP JUMPDEST DUP1 ISZERO PUSH2 0x7EC JUMPI DUP1 PUSH1 0x1F LT PUSH2 0x7C3 JUMPI PUSH2 0x100 DUP1 DUP4 SLOAD DIV MUL DUP4 MSTORE SWAP2 PUSH1 0x20 ADD SWAP2 PUSH2 0x7EC JUMP JUMPDEST DUP3 ADD SWAP2 SWAP1 PUSH0 MSTORE PUSH1 0x20 PUSH0 KECCAK256 SWAP1 JUMPDEST DUP2 SLOAD DUP2 MSTORE SWAP1 PUSH1 0x1 ADD SWAP1 PUSH1 0x20 ADD DUP1 DUP4 GT PUSH2 0x7CF JUMPI DUP3 SWAP1 SUB PUSH1 0x1F AND DUP3 ADD SWAP2 JUMPDEST POP POP POP POP POP SWAP2 POP POP SWAP2 SWAP1 POP JUMP JUMPDEST PUSH0 PUSH1 0x5 PUSH0 SWAP1 SLOAD SWAP1 PUSH2 0x100 EXP SWAP1 DIV PUSH20 0xFFFFFFFFFFFFFFFFFFFFFFFFFFFFFFFFFFFFFFFF AND PUSH20 0xFFFFFFFFFFFFFFFFFFFFFFFFFFFFFFFFFFFFFFFF AND PUSH4 0x6C331BD3 DUP6 DUP6 PUSH1 0x40 MLOAD DUP4 PUSH4 0xFFFFFFFF AND PUSH1 0xE0 SHL DUP2 MSTORE PUSH1 0x4 ADD PUSH2 0x856 SWAP3 SWAP2 SWAP1 PUSH2 0x4C6E JUMP JUMPDEST PUSH0 PUSH1 0x40 MLOAD DUP1 DUP4 SUB DUP2 DUP7 GAS STATICCALL ISZERO DUP1 ISZERO PUSH2 0x870 JUMPI RETURNDATASIZE PUSH0 DUP1 RETURNDATACOPY RETURNDATASIZE PUSH0 REVERT JUMPDEST POP POP POP POP PUSH1 0x40 MLOAD RETURNDATASIZE PUSH0 DUP3 RETURNDATACOPY RETURNDATASIZE PUSH1 0x1F NOT PUSH1 0x1F DUP3 ADD AND DUP3 ADD DUP1 PUSH1 0x40 MSTORE POP DUP2 ADD SWAP1 PUSH2 0x898 SWAP2 SWAP1 PUSH2 0x4E79 JUMP JUMPDEST SWAP1 POP PUSH0 DUP2 DUP4 DUP2 MLOAD DUP2 LT PUSH2 0x8AE JUMPI PUSH2 0x8AD PUSH2 0x4EC0 JUMP JUMPDEST JUMPDEST PUSH1 0x20 MUL PUSH1 0x20 ADD ADD MLOAD SWAP1 POP PUSH0 DUP2 PUSH0 ADD MLOAD MLOAD SWAP1 POP PUSH0 DUP2 PUSH8 0xFFFFFFFFFFFFFFFF DUP2 GT ISZERO PUSH2 0x8DB JUMPI PUSH2 0x8DA PUSH2 0x438A JUMP JUMPDEST JUMPDEST PUSH1 0x40 MLOAD SWAP1 DUP1 DUP3 MSTORE DUP1 PUSH1 0x20 MUL PUSH1 0x20 ADD DUP3 ADD PUSH1 0x40 MSTORE DUP1 ISZERO PUSH2 0x909 JUMPI DUP2 PUSH1 0x20 ADD PUSH1 0x20 DUP3 MUL DUP1 CALLDATASIZE DUP4 CALLDATACOPY DUP1 DUP3 ADD SWAP2 POP POP SWAP1 POP JUMPDEST POP SWAP1 POP PUSH0 JUMPDEST DUP3 DUP2 LT ISZERO PUSH2 0x94F JUMPI PUSH2 0x923 DUP9 DUP9 DUP9 DUP5 DUP9 PUSH2 0x1CCD JUMP JUMPDEST DUP3 DUP3 DUP2 MLOAD DUP2 LT PUSH2 0x936 JUMPI PUSH2 0x935 PUSH2 0x4EC0 JUMP JUMPDEST JUMPDEST PUSH1 0x20 MUL PUSH1 0x20 ADD ADD DUP2 DUP2 MSTORE POP POP DUP1 DUP1 PUSH1 0x1 ADD SWAP2 POP POP PUSH2 0x90E JUMP JUMPDEST POP PUSH0 PUSH2 0x95A DUP3 PUSH2 0x1EA0 JUMP JUMPDEST SWAP1 POP PUSH0 PUSH1 0x40 MLOAD DUP1 PUSH1 0x60 ADD PUSH1 0x40 MSTORE DUP1 DUP4 DUP2 MSTORE PUSH1 0x20 ADD DUP5 DUP2 MSTORE PUSH1 0x20 ADD TIMESTAMP DUP2 MSTORE POP SWAP1 POP DUP1 PUSH1 0x1 PUSH0 DUP12 DUP2 MSTORE PUSH1 0x20 ADD SWAP1 DUP2 MSTORE PUSH1 0x20 ADD PUSH0 KECCAK256 PUSH0 DUP11 DUP2 MSTORE PUSH1 0x20 ADD SWAP1 DUP2 MSTORE PUSH1 0x20 ADD PUSH0 KECCAK256 PUSH0 DUP10 DUP2 MSTORE PUSH1 0x20 ADD SWAP1 DUP2 MSTORE PUSH1 0x20 ADD PUSH0 KECCAK256 PUSH0 DUP3 ADD MLOAD DUP2 PUSH0 ADD SWAP1 DUP1 MLOAD SWAP1 PUSH1 0x20 ADD SWAP1 PUSH2 0x9C4 SWAP3 SWAP2 SWAP1 PUSH2 0x3F61 JUMP JUMPDEST POP PUSH1 0x20 DUP3 ADD MLOAD DUP2 PUSH1 0x1 ADD SWAP1 DUP1 MLOAD SWAP1 PUSH1 0x20 ADD SWAP1 PUSH2 0x9E1 SWAP3 SWAP2 SWAP1 PUSH2 0x3F61 JUMP JUMPDEST POP PUSH1 0x40 DUP3 ADD MLOAD DUP2 PUSH1 0x2 ADD SSTORE SWAP1 POP POP PUSH0 PUSH2 0x9F9 DUP11 PUSH2 0x2110 JUMP JUMPDEST PUSH2 0xA02 DUP11 PUSH2 0x2110 JUMP JUMPDEST PUSH2 0xA0B DUP11 PUSH2 0x2110 JUMP JUMPDEST PUSH1 0x40 MLOAD PUSH1 0x20 ADD PUSH2 0xA1D SWAP4 SWAP3 SWAP2 SWAP1 PUSH2 0x4F71 JUMP JUMPDEST PUSH1 0x40 MLOAD PUSH1 0x20 DUP2 DUP4 SUB SUB DUP2 MSTORE SWAP1 PUSH1 0x40 MSTORE SWAP1 POP PUSH0 DUP4 MLOAD PUSH8 0xFFFFFFFFFFFFFFFF DUP2 GT ISZERO PUSH2 0xA4A JUMPI PUSH2 0xA49 PUSH2 0x438A JUMP JUMPDEST JUMPDEST PUSH1 0x40 MLOAD SWAP1 DUP1 DUP3 MSTORE DUP1 PUSH1 0x20 MUL PUSH1 0x20 ADD DUP3 ADD PUSH1 0x40 MSTORE DUP1 ISZERO PUSH2 0xA7D JUMPI DUP2 PUSH1 0x20 ADD JUMPDEST PUSH1 0x60 DUP2 MSTORE PUSH1 0x20 ADD SWAP1 PUSH1 0x1 SWAP1 SUB SWAP1 DUP2 PUSH2 0xA68 JUMPI SWAP1 POP JUMPDEST POP SWAP1 POP PUSH0 JUMPDEST DUP5 MLOAD DUP2 LT ISZERO PUSH2 0xAD9 JUMPI PUSH2 0xAAE DUP6 DUP3 DUP2 MLOAD DUP2 LT PUSH2 0xAA1 JUMPI PUSH2 0xAA0 PUSH2 0x4EC0 JUMP JUMPDEST JUMPDEST PUSH1 0x20 MUL PUSH1 0x20 ADD ADD MLOAD PUSH2 0x2110 JUMP JUMPDEST DUP3 DUP3 DUP2 MLOAD DUP2 LT PUSH2 0xAC1 JUMPI PUSH2 0xAC0 PUSH2 0x4EC0 JUMP JUMPDEST JUMPDEST PUSH1 0x20 MUL PUSH1 0x20 ADD ADD DUP2 SWAP1 MSTORE POP DUP1 DUP1 PUSH1 0x1 ADD SWAP2 POP POP PUSH2 0xA82 JUMP JUMPDEST POP PUSH32 0x585300E39B71A8D6B68CA839F22B8C2A4A29A9ED364DDEBA3C13557F2F47DD8B DUP3 DUP3 PUSH1 0x40 MLOAD PUSH2 0xB0B SWAP3 SWAP2 SWAP1 PUSH2 0x50BA JUMP JUMPDEST PUSH1 0x40 MLOAD DUP1 SWAP2 SUB SWAP1 LOG1 PUSH2 0xB1F DUP12 DUP12 DUP12 DUP11 PUSH2 0x21DA JUMP JUMPDEST POP POP POP POP POP POP POP POP POP POP POP JUMP JUMPDEST PUSH0 PUSH2 0xB35 PUSH2 0x238F JUMP JUMPDEST SWAP1 POP DUP1 PUSH20 0xFFFFFFFFFFFFFFFFFFFFFFFFFFFFFFFFFFFFFFFF AND DUP7 PUSH20 0xFFFFFFFFFFFFFFFFFFFFFFFFFFFFFFFFFFFFFFFF AND EQ ISZERO DUP1 ISZERO PUSH2 0xB7A JUMPI POP PUSH2 0xB78 DUP7 DUP3 PUSH2 0x1A76 JUMP JUMPDEST ISZERO JUMPDEST ISZERO PUSH2 0xBBE JUMPI DUP1 DUP7 PUSH1 0x40 MLOAD PUSH32 0xE237D92200000000000000000000000000000000000000000000000000000000 DUP2 MSTORE PUSH1 0x4 ADD PUSH2 0xBB5 SWAP3 SWAP2 SWAP1 PUSH2 0x50EF JUMP JUMPDEST PUSH1 0x40 MLOAD DUP1 SWAP2 SUB SWAP1 REVERT JUMPDEST PUSH2 0xBCB DUP7 DUP7 DUP7 DUP7 DUP7 PUSH2 0x2396 JUMP JUMPDEST POP POP POP POP POP POP JUMP JUMPDEST PUSH0 PUSH1 0x7 PUSH0 SWAP1 SLOAD SWAP1 PUSH2 0x100 EXP SWAP1 DIV PUSH20 0xFFFFFFFFFFFFFFFFFFFFFFFFFFFFFFFFFFFFFFFF AND PUSH20 0xFFFFFFFFFFFFFFFFFFFFFFFFFFFFFFFFFFFFFFFF AND PUSH4 0x392EE8C1 DUP5 PUSH1 0x40 MLOAD DUP3 PUSH4 0xFFFFFFFF AND PUSH1 0xE0 SHL DUP2 MSTORE PUSH1 0x4 ADD PUSH2 0xC2E SWAP2 SWAP1 PUSH2 0x4102 JUMP JUMPDEST PUSH1 0xC0 PUSH1 0x40 MLOAD DUP1 DUP4 SUB DUP2 DUP7 GAS STATICCALL ISZERO DUP1 ISZERO PUSH2 0xC49 JUMPI RETURNDATASIZE PUSH0 DUP1 RETURNDATACOPY RETURNDATASIZE PUSH0 REVERT JUMPDEST POP POP POP POP PUSH1 0x40 MLOAD RETURNDATASIZE PUSH1 0x1F NOT PUSH1 0x1F DUP3 ADD AND DUP3 ADD DUP1 PUSH1 0x40 MSTORE POP DUP2 ADD SWAP1 PUSH2 0xC6D SWAP2 SWAP1 PUSH2 0x51D8 JUMP JUMPDEST POP SWAP1 POP PUSH0 PUSH1 0x5 PUSH0 SWAP1 SLOAD SWAP1 PUSH2 0x100 EXP SWAP1 DIV PUSH20 0xFFFFFFFFFFFFFFFFFFFFFFFFFFFFFFFFFFFFFFFF AND PUSH20 0xFFFFFFFFFFFFFFFFFFFFFFFFFFFFFFFFFFFFFFFF AND PUSH4 0x6C331BD3 DUP6 DUP6 PUSH1 0x40 MLOAD DUP4 PUSH4 0xFFFFFFFF AND PUSH1 0xE0 SHL DUP2 MSTORE PUSH1 0x4 ADD PUSH2 0xCCD SWAP3 SWAP2 SWAP1 PUSH2 0x4C6E JUMP JUMPDEST PUSH0 PUSH1 0x40 MLOAD DUP1 DUP4 SUB DUP2 DUP7 GAS STATICCALL ISZERO DUP1 ISZERO PUSH2 0xCE7 JUMPI RETURNDATASIZE PUSH0 DUP1 RETURNDATACOPY RETURNDATASIZE PUSH0 REVERT JUMPDEST POP POP POP POP PUSH1 0x40 MLOAD RETURNDATASIZE PUSH0 DUP3 RETURNDATACOPY RETURNDATASIZE PUSH1 0x1F NOT PUSH1 0x1F DUP3 ADD AND DUP3 ADD DUP1 PUSH1 0x40 MSTORE POP DUP2 ADD SWAP1 PUSH2 0xD0F SWAP2 SWAP1 PUSH2 0x4E79 JUMP JUMPDEST SWAP1 POP PUSH0 DUP2 MLOAD PUSH8 0xFFFFFFFFFFFFFFFF DUP2 GT ISZERO PUSH2 0xD2D JUMPI PUSH2 0xD2C PUSH2 0x438A JUMP JUMPDEST JUMPDEST PUSH1 0x40 MLOAD SWAP1 DUP1 DUP3 MSTORE DUP1 PUSH1 0x20 MUL PUSH1 0x20 ADD DUP3 ADD PUSH1 0x40 MSTORE DUP1 ISZERO PUSH2 0xD60 JUMPI DUP2 PUSH1 0x20 ADD JUMPDEST PUSH1 0x60 DUP2 MSTORE PUSH1 0x20 ADD SWAP1 PUSH1 0x1 SWAP1 SUB SWAP1 DUP2 PUSH2 0xD4B JUMPI SWAP1 POP JUMPDEST POP SWAP1 POP PUSH0 JUMPDEST DUP3 MLOAD DUP2 LT ISZERO PUSH2 0xE27 JUMPI PUSH2 0xD79 DUP7 DUP7 DUP4 PUSH2 0x7F9 JUMP JUMPDEST PUSH0 PUSH1 0x1 PUSH0 DUP9 DUP2 MSTORE PUSH1 0x20 ADD SWAP1 DUP2 MSTORE PUSH1 0x20 ADD PUSH0 KECCAK256 PUSH0 DUP8 DUP2 MSTORE PUSH1 0x20 ADD SWAP1 DUP2 MSTORE PUSH1 0x20 ADD PUSH0 KECCAK256 PUSH0 DUP4 DUP2 MSTORE PUSH1 0x20 ADD SWAP1 DUP2 MSTORE PUSH1 0x20 ADD PUSH0 KECCAK256 SWAP1 POP DUP1 PUSH0 ADD DUP1 SLOAD DUP1 PUSH1 0x20 MUL PUSH1 0x20 ADD PUSH1 0x40 MLOAD SWAP1 DUP2 ADD PUSH1 0x40 MSTORE DUP1 SWAP3 SWAP2 SWAP1 DUP2 DUP2 MSTORE PUSH1 0x20 ADD DUP3 DUP1 SLOAD DUP1 ISZERO PUSH2 0xDF6 JUMPI PUSH1 0x20 MUL DUP3 ADD SWAP2 SWAP1 PUSH0 MSTORE PUSH1 0x20 PUSH0 KECCAK256 SWAP1 JUMPDEST DUP2 SLOAD DUP2 MSTORE PUSH1 0x20 ADD SWAP1 PUSH1 0x1 ADD SWAP1 DUP1 DUP4 GT PUSH2 0xDE2 JUMPI JUMPDEST POP POP POP POP POP DUP4 DUP4 DUP2 MLOAD DUP2 LT PUSH2 0xE0E JUMPI PUSH2 0xE0D PUSH2 0x4EC0 JUMP JUMPDEST JUMPDEST PUSH1 0x20 MUL PUSH1 0x20 ADD ADD DUP2 SWAP1 MSTORE POP POP DUP1 DUP1 PUSH1 0x1 ADD SWAP2 POP POP PUSH2 0xD65 JUMP JUMPDEST POP PUSH0 PUSH2 0xE33 DUP5 DUP4 PUSH2 0x248A JUMP JUMPDEST SWAP1 POP PUSH0 DUP1 JUMPDEST DUP5 MLOAD DUP2 LT ISZERO PUSH2 0x100A JUMPI PUSH0 JUMPDEST DUP6 DUP3 DUP2 MLOAD DUP2 LT PUSH2 0xE56 JUMPI PUSH2 0xE55 PUSH2 0x4EC0 JUMP JUMPDEST JUMPDEST PUSH1 0x20 MUL PUSH1 0x20 ADD ADD MLOAD PUSH0 ADD MLOAD MLOAD DUP2 LT ISZERO PUSH2 0xFFC JUMPI PUSH0 DUP7 DUP4 DUP2 MLOAD DUP2 LT PUSH2 0xE7D JUMPI PUSH2 0xE7C PUSH2 0x4EC0 JUMP JUMPDEST JUMPDEST PUSH1 0x20 MUL PUSH1 0x20 ADD ADD MLOAD PUSH0 ADD MLOAD DUP3 DUP2 MLOAD DUP2 LT PUSH2 0xE9A JUMPI PUSH2 0xE99 PUSH2 0x4EC0 JUMP JUMPDEST JUMPDEST PUSH1 0x20 MUL PUSH1 0x20 ADD ADD MLOAD SWAP1 POP PUSH0 DUP6 DUP6 DUP2 MLOAD DUP2 LT PUSH2 0xEB8 JUMPI PUSH2 0xEB7 PUSH2 0x4EC0 JUMP JUMPDEST JUMPDEST PUSH1 0x20 MUL PUSH1 0x20 ADD ADD MLOAD SWAP1 POP PUSH0 DUP2 GT ISZERO PUSH2 0xFDF JUMPI PUSH0 PUSH1 0x6 PUSH0 SWAP1 SLOAD SWAP1 PUSH2 0x100 EXP SWAP1 DIV PUSH20 0xFFFFFFFFFFFFFFFFFFFFFFFFFFFFFFFFFFFFFFFF AND PUSH20 0xFFFFFFFFFFFFFFFFFFFFFFFFFFFFFFFFFFFFFFFF AND PUSH4 0x99664245 DUP14 PUSH1 0x40 MLOAD DUP3 PUSH4 0xFFFFFFFF AND PUSH1 0xE0 SHL DUP2 MSTORE PUSH1 0x4 ADD PUSH2 0xF25 SWAP2 SWAP1 PUSH2 0x4102 JUMP JUMPDEST PUSH0 PUSH1 0x40 MLOAD DUP1 DUP4 SUB DUP2 DUP7 GAS STATICCALL ISZERO DUP1 ISZERO PUSH2 0xF3F JUMPI RETURNDATASIZE PUSH0 DUP1 RETURNDATACOPY RETURNDATASIZE PUSH0 REVERT JUMPDEST POP POP POP POP PUSH1 0x40 MLOAD RETURNDATASIZE PUSH0 DUP3 RETURNDATACOPY RETURNDATASIZE PUSH1 0x1F NOT PUSH1 0x1F DUP3 ADD AND DUP3 ADD DUP1 PUSH1 0x40 MSTORE POP DUP2 ADD SWAP1 PUSH2 0xF67 SWAP2 SWAP1 PUSH2 0x52D7 JUMP JUMPDEST SWAP8 POP POP POP POP POP POP POP POP PUSH0 DUP2 SWAP1 POP DUP1 PUSH20 0xFFFFFFFFFFFFFFFFFFFFFFFFFFFFFFFFFFFFFFFF AND PUSH4 0x40C10F19 DUP6 DUP6 PUSH1 0x40 MLOAD DUP4 PUSH4 0xFFFFFFFF AND PUSH1 0xE0 SHL DUP2 MSTORE PUSH1 0x4 ADD PUSH2 0xFAF SWAP3 SWAP2 SWAP1 PUSH2 0x53DC JUMP JUMPDEST PUSH0 PUSH1 0x40 MLOAD DUP1 DUP4 SUB DUP2 PUSH0 DUP8 DUP1 EXTCODESIZE ISZERO DUP1 ISZERO PUSH2 0xFC6 JUMPI PUSH0 DUP1 REVERT JUMPDEST POP GAS CALL ISZERO DUP1 ISZERO PUSH2 0xFD8 JUMPI RETURNDATASIZE PUSH0 DUP1 RETURNDATACOPY RETURNDATASIZE PUSH0 REVERT JUMPDEST POP POP POP POP POP POP JUMPDEST DUP5 DUP1 PUSH2 0xFEA SWAP1 PUSH2 0x5430 JUMP JUMPDEST SWAP6 POP POP POP POP DUP1 DUP1 PUSH1 0x1 ADD SWAP2 POP POP PUSH2 0xE43 JUMP JUMPDEST POP DUP1 DUP1 PUSH1 0x1 ADD SWAP2 POP POP PUSH2 0xE38 JUMP JUMPDEST POP POP POP POP POP POP POP POP JUMP JUMPDEST PUSH1 0x60 DUP2 MLOAD DUP4 MLOAD EQ PUSH2 0x1060 JUMPI DUP2 MLOAD DUP4 MLOAD PUSH1 0x40 MLOAD PUSH32 0x5B05999100000000000000000000000000000000000000000000000000000000 DUP2 MSTORE PUSH1 0x4 ADD PUSH2 0x1057 SWAP3 SWAP2 SWAP1 PUSH2 0x4C6E JUMP JUMPDEST PUSH1 0x40 MLOAD DUP1 SWAP2 SUB SWAP1 REVERT JUMPDEST PUSH0 DUP4 MLOAD PUSH8 0xFFFFFFFFFFFFFFFF DUP2 GT ISZERO PUSH2 0x107C JUMPI PUSH2 0x107B PUSH2 0x438A JUMP JUMPDEST JUMPDEST PUSH1 0x40 MLOAD SWAP1 DUP1 DUP3 MSTORE DUP1 PUSH1 0x20 MUL PUSH1 0x20 ADD DUP3 ADD PUSH1 0x40 MSTORE DUP1 ISZERO PUSH2 0x10AA JUMPI DUP2 PUSH1 0x20 ADD PUSH1 0x20 DUP3 MUL DUP1 CALLDATASIZE DUP4 CALLDATACOPY DUP1 DUP3 ADD SWAP2 POP POP SWAP1 POP JUMPDEST POP SWAP1 POP PUSH0 JUMPDEST DUP5 MLOAD DUP2 LT ISZERO PUSH2 0x1110 JUMPI PUSH2 0x10E6 PUSH2 0x10CE DUP3 DUP8 PUSH2 0x2634 SWAP1 SWAP2 SWAP1 PUSH4 0xFFFFFFFF AND JUMP JUMPDEST PUSH2 0x10E1 DUP4 DUP8 PUSH2 0x2647 SWAP1 SWAP2 SWAP1 PUSH4 0xFFFFFFFF AND JUMP JUMPDEST PUSH2 0x5CB JUMP JUMPDEST DUP3 DUP3 DUP2 MLOAD DUP2 LT PUSH2 0x10F9 JUMPI PUSH2 0x10F8 PUSH2 0x4EC0 JUMP JUMPDEST JUMPDEST PUSH1 0x20 MUL PUSH1 0x20 ADD ADD DUP2 DUP2 MSTORE POP POP DUP1 PUSH1 0x1 ADD SWAP1 POP PUSH2 0x10AF JUMP JUMPDEST POP DUP1 SWAP2 POP POP SWAP3 SWAP2 POP POP JUMP JUMPDEST PUSH2 0x1123 PUSH2 0x265A JUMP JUMPDEST PUSH2 0x112C DUP3 PUSH2 0x2740 JUMP JUMPDEST PUSH2 0x1136 DUP3 DUP3 PUSH2 0x274B JUMP JUMPDEST POP POP JUMP JUMPDEST PUSH0 PUSH2 0x1143 PUSH2 0x2869 JUMP JUMPDEST PUSH32 0x360894A13BA1A3210667C828492DB98DCA3E2076CC3735A920A3CA505D382BBC PUSH0 SHL SWAP1 POP SWAP1 JUMP JUMPDEST PUSH1 0x3 PUSH1 0x20 MSTORE DUP2 PUSH0 MSTORE PUSH1 0x40 PUSH0 KECCAK256 PUSH1 0x20 MSTORE DUP1 PUSH0 MSTORE PUSH1 0x40 PUSH0 KECCAK256 PUSH0 SWAP2 POP SWAP2 POP POP DUP1 PUSH0 ADD SLOAD SWAP1 DUP1 PUSH1 0x1 ADD PUSH0 SWAP1 SLOAD SWAP1 PUSH2 0x100 EXP SWAP1 DIV PUSH1 0xFF AND SWAP1 POP DUP3 JUMP JUMPDEST PUSH2 0x11AA PUSH2 0x28F0 JUMP JUMPDEST PUSH1 0x2 PUSH0 DUP3 DUP2 MSTORE PUSH1 0x20 ADD SWAP1 DUP2 MSTORE PUSH1 0x20 ADD PUSH0 KECCAK256 PUSH0 SWAP1 SLOAD SWAP1 PUSH2 0x100 EXP SWAP1 DIV PUSH1 0xFF AND ISZERO PUSH2 0x1208 JUMPI PUSH1 0x40 MLOAD PUSH32 0x8C379A000000000000000000000000000000000000000000000000000000000 DUP2 MSTORE PUSH1 0x4 ADD PUSH2 0x11FF SWAP1 PUSH2 0x54C1 JUMP JUMPDEST PUSH1 0x40 MLOAD DUP1 SWAP2 SUB SWAP1 REVERT JUMPDEST PUSH1 0x1 PUSH1 0x2 PUSH0 DUP4 DUP2 MSTORE PUSH1 0x20 ADD SWAP1 DUP2 MSTORE PUSH1 0x20 ADD PUSH0 KECCAK256 PUSH0 PUSH2 0x100 EXP DUP2 SLOAD DUP2 PUSH1 0xFF MUL NOT AND SWAP1 DUP4 ISZERO ISZERO MUL OR SWAP1 SSTORE POP POP JUMP JUMPDEST PUSH2 0x123C PUSH2 0x28F0 JUMP JUMPDEST PUSH2 0x1245 PUSH0 PUSH2 0x2977 JUMP JUMPDEST JUMP JUMPDEST PUSH0 DUP1 PUSH2 0x1251 PUSH2 0x2A48 JUMP JUMPDEST SWAP1 POP DUP1 PUSH0 ADD PUSH0 SWAP1 SLOAD SWAP1 PUSH2 0x100 EXP SWAP1 DIV PUSH20 0xFFFFFFFFFFFFFFFFFFFFFFFFFFFFFFFFFFFFFFFF AND SWAP2 POP POP SWAP1 JUMP JUMPDEST PUSH2 0x128E PUSH2 0x1287 PUSH2 0x238F JUMP JUMPDEST DUP4 DUP4 PUSH2 0x2A6F JUMP JUMPDEST POP POP JUMP JUMPDEST PUSH1 0x40 MLOAD DUP1 PUSH1 0x40 ADD PUSH1 0x40 MSTORE DUP1 PUSH1 0x5 DUP2 MSTORE PUSH1 0x20 ADD PUSH32 0x352E302E30000000000000000000000000000000000000000000000000000000 DUP2 MSTORE POP DUP2 JUMP JUMPDEST PUSH2 0x12D3 PUSH2 0x28F0 JUMP JUMPDEST DUP3 PUSH1 0x5 PUSH0 PUSH2 0x100 EXP DUP2 SLOAD DUP2 PUSH20 0xFFFFFFFFFFFFFFFFFFFFFFFFFFFFFFFFFFFFFFFF MUL NOT AND SWAP1 DUP4 PUSH20 0xFFFFFFFFFFFFFFFFFFFFFFFFFFFFFFFFFFFFFFFF AND MUL OR SWAP1 SSTORE POP DUP2 PUSH1 0x6 PUSH0 PUSH2 0x100 EXP DUP2 SLOAD DUP2 PUSH20 0xFFFFFFFFFFFFFFFFFFFFFFFFFFFFFFFFFFFFFFFF MUL NOT AND SWAP1 DUP4 PUSH20 0xFFFFFFFFFFFFFFFFFFFFFFFFFFFFFFFFFFFFFFFF AND MUL OR SWAP1 SSTORE POP DUP1 PUSH1 0x7 PUSH0 PUSH2 0x100 EXP DUP2 SLOAD DUP2 PUSH20 0xFFFFFFFFFFFFFFFFFFFFFFFFFFFFFFFFFFFFFFFF MUL NOT AND SWAP1 DUP4 PUSH20 0xFFFFFFFFFFFFFFFFFFFFFFFFFFFFFFFFFFFFFFFF AND MUL OR SWAP1 SSTORE POP POP POP POP JUMP JUMPDEST PUSH0 DUP1 PUSH1 0x6 PUSH0 SWAP1 SLOAD SWAP1 PUSH2 0x100 EXP SWAP1 DIV PUSH20 0xFFFFFFFFFFFFFFFFFFFFFFFFFFFFFFFFFFFFFFFF AND PUSH20 0xFFFFFFFFFFFFFFFFFFFFFFFFFFFFFFFFFFFFFFFF AND PUSH4 0x99664245 DUP8 PUSH1 0x40 MLOAD DUP3 PUSH4 0xFFFFFFFF AND PUSH1 0xE0 SHL DUP2 MSTORE PUSH1 0x4 ADD PUSH2 0x13F4 SWAP2 SWAP1 PUSH2 0x4102 JUMP JUMPDEST PUSH0 PUSH1 0x40 MLOAD DUP1 DUP4 SUB DUP2 DUP7 GAS STATICCALL ISZERO DUP1 ISZERO PUSH2 0x140E JUMPI RETURNDATASIZE PUSH0 DUP1 RETURNDATACOPY RETURNDATASIZE PUSH0 REVERT JUMPDEST POP POP POP POP PUSH1 0x40 MLOAD RETURNDATASIZE PUSH0 DUP3 RETURNDATACOPY RETURNDATASIZE PUSH1 0x1F NOT PUSH1 0x1F DUP3 ADD AND DUP3 ADD DUP1 PUSH1 0x40 MSTORE POP DUP2 ADD SWAP1 PUSH2 0x1436 SWAP2 SWAP1 PUSH2 0x52D7 JUMP JUMPDEST POP SWAP7 POP SWAP7 POP POP POP POP POP POP PUSH1 0x1 DUP1 DUP2 GT ISZERO PUSH2 0x1453 JUMPI PUSH2 0x1452 PUSH2 0x54DF JUMP JUMPDEST JUMPDEST DUP3 PUSH1 0x1 DUP2 GT ISZERO PUSH2 0x1466 JUMPI PUSH2 0x1465 PUSH2 0x54DF JUMP JUMPDEST JUMPDEST EQ PUSH2 0x14A6 JUMPI PUSH1 0x40 MLOAD PUSH32 0x8C379A000000000000000000000000000000000000000000000000000000000 DUP2 MSTORE PUSH1 0x4 ADD PUSH2 0x149D SWAP1 PUSH2 0x5556 JUMP JUMPDEST PUSH1 0x40 MLOAD DUP1 SWAP2 SUB SWAP1 REVERT JUMPDEST PUSH0 PUSH1 0x5 PUSH0 SWAP1 SLOAD SWAP1 PUSH2 0x100 EXP SWAP1 DIV PUSH20 0xFFFFFFFFFFFFFFFFFFFFFFFFFFFFFFFFFFFFFFFF AND PUSH20 0xFFFFFFFFFFFFFFFFFFFFFFFFFFFFFFFFFFFFFFFF AND PUSH4 0x6C331BD3 DUP9 DUP9 PUSH1 0x40 MLOAD DUP4 PUSH4 0xFFFFFFFF AND PUSH1 0xE0 SHL DUP2 MSTORE PUSH1 0x4 ADD PUSH2 0x1503 SWAP3 SWAP2 SWAP1 PUSH2 0x4C6E JUMP JUMPDEST PUSH0 PUSH1 0x40 MLOAD DUP1 DUP4 SUB DUP2 DUP7 GAS STATICCALL ISZERO DUP1 ISZERO PUSH2 0x151D JUMPI RETURNDATASIZE PUSH0 DUP1 RETURNDATACOPY RETURNDATASIZE PUSH0 REVERT JUMPDEST POP POP POP POP PUSH1 0x40 MLOAD RETURNDATASIZE PUSH0 DUP3 RETURNDATACOPY RETURNDATASIZE PUSH1 0x1F NOT PUSH1 0x1F DUP3 ADD AND DUP3 ADD DUP1 PUSH1 0x40 MSTORE POP DUP2 ADD SWAP1 PUSH2 0x1545 SWAP2 SWAP1 PUSH2 0x4E79 JUMP JUMPDEST SWAP1 POP PUSH0 DUP2 DUP7 DUP2 MLOAD DUP2 LT PUSH2 0x155B JUMPI PUSH2 0x155A PUSH2 0x4EC0 JUMP JUMPDEST JUMPDEST PUSH1 0x20 MUL PUSH1 0x20 ADD ADD MLOAD SWAP1 POP DUP1 PUSH0 ADD MLOAD MLOAD DUP6 MLOAD EQ PUSH2 0x15AC JUMPI PUSH1 0x40 MLOAD PUSH32 0x8C379A000000000000000000000000000000000000000000000000000000000 DUP2 MSTORE PUSH1 0x4 ADD PUSH2 0x15A3 SWAP1 PUSH2 0x55E4 JUMP JUMPDEST PUSH1 0x40 MLOAD DUP1 SWAP2 SUB SWAP1 REVERT JUMPDEST PUSH2 0x15B6 DUP2 CALLER PUSH2 0x2BE6 JUMP JUMPDEST PUSH2 0x15F5 JUMPI PUSH1 0x40 MLOAD PUSH32 0x8C379A000000000000000000000000000000000000000000000000000000000 DUP2 MSTORE PUSH1 0x4 ADD PUSH2 0x15EC SWAP1 PUSH2 0x564C JUMP JUMPDEST PUSH1 0x40 MLOAD DUP1 SWAP2 SUB SWAP1 REVERT JUMPDEST PUSH1 0x40 MLOAD DUP1 PUSH1 0x20 ADD PUSH1 0x40 MSTORE DUP1 DUP7 DUP2 MSTORE POP PUSH0 DUP1 DUP11 DUP2 MSTORE PUSH1 0x20 ADD SWAP1 DUP2 MSTORE PUSH1 0x20 ADD PUSH0 KECCAK256 PUSH0 DUP10 DUP2 MSTORE PUSH1 0x20 ADD SWAP1 DUP2 MSTORE PUSH1 0x20 ADD PUSH0 KECCAK256 PUSH0 DUP9 DUP2 MSTORE PUSH1 0x20 ADD SWAP1 DUP2 MSTORE PUSH1 0x20 ADD PUSH0 KECCAK256 PUSH0 CALLER PUSH20 0xFFFFFFFFFFFFFFFFFFFFFFFFFFFFFFFFFFFFFFFF AND PUSH20 0xFFFFFFFFFFFFFFFFFFFFFFFFFFFFFFFFFFFFFFFF AND DUP2 MSTORE PUSH1 0x20 ADD SWAP1 DUP2 MSTORE PUSH1 0x20 ADD PUSH0 KECCAK256 PUSH0 DUP3 ADD MLOAD DUP2 PUSH0 ADD SWAP1 DUP1 MLOAD SWAP1 PUSH1 0x20 ADD SWAP1 PUSH2 0x1687 SWAP3 SWAP2 SWAP1 PUSH2 0x3F61 JUMP JUMPDEST POP SWAP1 POP POP PUSH0 DUP6 MLOAD PUSH8 0xFFFFFFFFFFFFFFFF DUP2 GT ISZERO PUSH2 0x16A7 JUMPI PUSH2 0x16A6 PUSH2 0x438A JUMP JUMPDEST JUMPDEST PUSH1 0x40 MLOAD SWAP1 DUP1 DUP3 MSTORE DUP1 PUSH1 0x20 MUL PUSH1 0x20 ADD DUP3 ADD PUSH1 0x40 MSTORE DUP1 ISZERO PUSH2 0x16DA JUMPI DUP2 PUSH1 0x20 ADD JUMPDEST PUSH1 0x60 DUP2 MSTORE PUSH1 0x20 ADD SWAP1 PUSH1 0x1 SWAP1 SUB SWAP1 DUP2 PUSH2 0x16C5 JUMPI SWAP1 POP JUMPDEST POP SWAP1 POP PUSH0 JUMPDEST DUP7 MLOAD DUP2 LT ISZERO PUSH2 0x17A1 JUMPI PUSH2 0x1776 PUSH0 DUP1 DUP13 DUP2 MSTORE PUSH1 0x20 ADD SWAP1 DUP2 MSTORE PUSH1 0x20 ADD PUSH0 KECCAK256 PUSH0 DUP12 DUP2 MSTORE PUSH1 0x20 ADD SWAP1 DUP2 MSTORE PUSH1 0x20 ADD PUSH0 KECCAK256 PUSH0 DUP11 DUP2 MSTORE PUSH1 0x20 ADD SWAP1 DUP2 MSTORE PUSH1 0x20 ADD PUSH0 KECCAK256 PUSH0 CALLER PUSH20 0xFFFFFFFFFFFFFFFFFFFFFFFFFFFFFFFFFFFFFFFF AND PUSH20 0xFFFFFFFFFFFFFFFFFFFFFFFFFFFFFFFFFFFFFFFF AND DUP2 MSTORE PUSH1 0x20 ADD SWAP1 DUP2 MSTORE PUSH1 0x20 ADD PUSH0 KECCAK256 PUSH0 ADD DUP3 DUP2 SLOAD DUP2 LT PUSH2 0x1768 JUMPI PUSH2 0x1767 PUSH2 0x4EC0 JUMP JUMPDEST JUMPDEST SWAP1 PUSH0 MSTORE PUSH1 0x20 PUSH0 KECCAK256 ADD SLOAD PUSH2 0x2110 JUMP JUMPDEST DUP3 DUP3 DUP2 MLOAD DUP2 LT PUSH2 0x1789 JUMPI PUSH2 0x1788 PUSH2 0x4EC0 JUMP JUMPDEST JUMPDEST PUSH1 0x20 MUL PUSH1 0x20 ADD ADD DUP2 SWAP1 MSTORE POP DUP1 DUP1 PUSH1 0x1 ADD SWAP2 POP POP PUSH2 0x16DF JUMP JUMPDEST POP PUSH0 PUSH2 0x17AC DUP11 PUSH2 0x2110 JUMP JUMPDEST PUSH2 0x17B5 DUP11 PUSH2 0x2110 JUMP JUMPDEST PUSH2 0x17D6 CALLER PUSH20 0xFFFFFFFFFFFFFFFFFFFFFFFFFFFFFFFFFFFFFFFF AND PUSH1 0x14 PUSH2 0x2C6A JUMP JUMPDEST PUSH1 0x40 MLOAD PUSH1 0x20 ADD PUSH2 0x17E8 SWAP4 SWAP3 SWAP2 SWAP1 PUSH2 0x56FE JUMP JUMPDEST PUSH1 0x40 MLOAD PUSH1 0x20 DUP2 DUP4 SUB SUB DUP2 MSTORE SWAP1 PUSH1 0x40 MSTORE SWAP1 POP PUSH32 0xB423AA2DE1D13018481AC3A60FAECF65DF38D56E640000FB19C88EFF5304D5AA DUP2 DUP4 PUSH1 0x40 MLOAD PUSH2 0x182A SWAP3 SWAP2 SWAP1 PUSH2 0x50BA JUMP JUMPDEST PUSH1 0x40 MLOAD DUP1 SWAP2 SUB SWAP1 LOG1 POP POP POP POP POP POP POP POP POP POP JUMP JUMPDEST PUSH0 PUSH2 0x1847 PUSH2 0x2EA8 JUMP JUMPDEST SWAP1 POP PUSH0 DUP2 PUSH0 ADD PUSH1 0x8 SWAP1 SLOAD SWAP1 PUSH2 0x100 EXP SWAP1 DIV PUSH1 0xFF AND ISZERO SWAP1 POP PUSH0 DUP3 PUSH0 ADD PUSH0 SWAP1 SLOAD SWAP1 PUSH2 0x100 EXP SWAP1 DIV PUSH8 0xFFFFFFFFFFFFFFFF AND SWAP1 POP PUSH0 DUP1 DUP3 PUSH8 0xFFFFFFFFFFFFFFFF AND EQ DUP1 ISZERO PUSH2 0x188F JUMPI POP DUP3 JUMPDEST SWAP1 POP PUSH0 PUSH1 0x1 DUP4 PUSH8 0xFFFFFFFFFFFFFFFF AND EQ DUP1 ISZERO PUSH2 0x18C2 JUMPI POP PUSH0 ADDRESS PUSH20 0xFFFFFFFFFFFFFFFFFFFFFFFFFFFFFFFFFFFFFFFF AND EXTCODESIZE EQ JUMPDEST SWAP1 POP DUP2 ISZERO DUP1 ISZERO PUSH2 0x18D0 JUMPI POP DUP1 ISZERO JUMPDEST ISZERO PUSH2 0x1907 JUMPI PUSH1 0x40 MLOAD PUSH32 0xF92EE8A900000000000000000000000000000000000000000000000000000000 DUP2 MSTORE PUSH1 0x4 ADD PUSH1 0x40 MLOAD DUP1 SWAP2 SUB SWAP1 REVERT JUMPDEST PUSH1 0x1 DUP6 PUSH0 ADD PUSH0 PUSH2 0x100 EXP DUP2 SLOAD DUP2 PUSH8 0xFFFFFFFFFFFFFFFF MUL NOT AND SWAP1 DUP4 PUSH8 0xFFFFFFFFFFFFFFFF AND MUL OR SWAP1 SSTORE POP DUP4 ISZERO PUSH2 0x1954 JUMPI PUSH1 0x1 DUP6 PUSH0 ADD PUSH1 0x8 PUSH2 0x100 EXP DUP2 SLOAD DUP2 PUSH1 0xFF MUL NOT AND SWAP1 DUP4 ISZERO ISZERO MUL OR SWAP1 SSTORE POP JUMPDEST PUSH2 0x195D DUP7 PUSH2 0x2ECF JUMP JUMPDEST PUSH2 0x1974 PUSH1 0x40 MLOAD DUP1 PUSH1 0x20 ADD PUSH1 0x40 MSTORE DUP1 PUSH0 DUP2 MSTORE POP PUSH2 0x2EE3 JUMP JUMPDEST PUSH2 0x197C PUSH2 0x2EF7 JUMP JUMPDEST PUSH1 0x40 MLOAD DUP1 PUSH1 0xC0 ADD PUSH1 0x40 MSTORE DUP1 PUSH1 0x15 PUSH1 0xFF AND DUP2 MSTORE PUSH1 0x20 ADD PUSH1 0xD PUSH1 0xFF AND DUP2 MSTORE PUSH1 0x20 ADD PUSH1 0x8 PUSH1 0xFF AND DUP2 MSTORE PUSH1 0x20 ADD PUSH1 0x5 PUSH1 0xFF AND DUP2 MSTORE PUSH1 0x20 ADD PUSH1 0x3 PUSH1 0xFF AND DUP2 MSTORE PUSH1 0x20 ADD PUSH1 0x2 PUSH1 0xFF AND DUP2 MSTORE POP PUSH1 0x4 SWAP1 PUSH1 0x6 PUSH2 0x19D1 SWAP3 SWAP2 SWAP1 PUSH2 0x3FAC JUMP JUMPDEST POP DUP4 ISZERO PUSH2 0x1A2C JUMPI PUSH0 DUP6 PUSH0 ADD PUSH1 0x8 PUSH2 0x100 EXP DUP2 SLOAD DUP2 PUSH1 0xFF MUL NOT AND SWAP1 DUP4 ISZERO ISZERO MUL OR SWAP1 SSTORE POP PUSH32 0xC7F505B2F371AE2175EE4913F4499E1F2633A7B5936321EED1CDAEB6115181D2 PUSH1 0x1 PUSH1 0x40 MLOAD PUSH2 0x1A23 SWAP2 SWAP1 PUSH2 0x579B JUMP JUMPDEST PUSH1 0x40 MLOAD DUP1 SWAP2 SUB SWAP1 LOG1 JUMPDEST POP POP POP POP POP POP JUMP JUMPDEST PUSH1 0x2 PUSH1 0x20 MSTORE DUP1 PUSH0 MSTORE PUSH1 0x40 PUSH0 KECCAK256 PUSH0 SWAP2 POP SLOAD SWAP1 PUSH2 0x100 EXP SWAP1 DIV PUSH1 0xFF AND DUP2 JUMP JUMPDEST PUSH1 0x5 PUSH0 SWAP1 SLOAD SWAP1 PUSH2 0x100 EXP SWAP1 DIV PUSH20 0xFFFFFFFFFFFFFFFFFFFFFFFFFFFFFFFFFFFFFFFF AND DUP2 JUMP JUMPDEST PUSH0 DUP1 PUSH2 0x1A80 PUSH2 0x1C3D JUMP JUMPDEST SWAP1 POP DUP1 PUSH1 0x1 ADD PUSH0 DUP6 PUSH20 0xFFFFFFFFFFFFFFFFFFFFFFFFFFFFFFFFFFFFFFFF AND PUSH20 0xFFFFFFFFFFFFFFFFFFFFFFFFFFFFFFFFFFFFFFFF AND DUP2 MSTORE PUSH1 0x20 ADD SWAP1 DUP2 MSTORE PUSH1 0x20 ADD PUSH0 KECCAK256 PUSH0 DUP5 PUSH20 0xFFFFFFFFFFFFFFFFFFFFFFFFFFFFFFFFFFFFFFFF AND PUSH20 0xFFFFFFFFFFFFFFFFFFFFFFFFFFFFFFFFFFFFFFFF AND DUP2 MSTORE PUSH1 0x20 ADD SWAP1 DUP2 MSTORE PUSH1 0x20 ADD PUSH0 KECCAK256 PUSH0 SWAP1 SLOAD SWAP1 PUSH2 0x100 EXP SWAP1 DIV PUSH1 0xFF AND SWAP2 POP POP SWAP3 SWAP2 POP POP JUMP JUMPDEST PUSH0 PUSH2 0x1B1B PUSH2 0x238F JUMP JUMPDEST SWAP1 POP DUP1 PUSH20 0xFFFFFFFFFFFFFFFFFFFFFFFFFFFFFFFFFFFFFFFF AND DUP7 PUSH20 0xFFFFFFFFFFFFFFFFFFFFFFFFFFFFFFFFFFFFFFFF AND EQ ISZERO DUP1 ISZERO PUSH2 0x1B60 JUMPI POP PUSH2 0x1B5E DUP7 DUP3 PUSH2 0x1A76 JUMP JUMPDEST ISZERO JUMPDEST ISZERO PUSH2 0x1BA4 JUMPI DUP1 DUP7 PUSH1 0x40 MLOAD PUSH32 0xE237D92200000000000000000000000000000000000000000000000000000000 DUP2 MSTORE PUSH1 0x4 ADD PUSH2 0x1B9B SWAP3 SWAP2 SWAP1 PUSH2 0x50EF JUMP JUMPDEST PUSH1 0x40 MLOAD DUP1 SWAP2 SUB SWAP1 REVERT JUMPDEST PUSH2 0x1BB1 DUP7 DUP7 DUP7 DUP7 DUP7 PUSH2 0x2F01 JUMP JUMPDEST POP POP POP POP POP POP JUMP JUMPDEST PUSH2 0x1BC1 PUSH2 0x28F0 JUMP JUMPDEST PUSH0 PUSH20 0xFFFFFFFFFFFFFFFFFFFFFFFFFFFFFFFFFFFFFFFF AND DUP2 PUSH20 0xFFFFFFFFFFFFFFFFFFFFFFFFFFFFFFFFFFFFFFFF AND SUB PUSH2 0x1C31 JUMPI PUSH0 PUSH1 0x40 MLOAD PUSH32 0x1E4FBDF700000000000000000000000000000000000000000000000000000000 DUP2 MSTORE PUSH1 0x4 ADD PUSH2 0x1C28 SWAP2 SWAP1 PUSH2 0x498B JUMP JUMPDEST PUSH1 0x40 MLOAD DUP1 SWAP2 SUB SWAP1 REVERT JUMPDEST PUSH2 0x1C3A DUP2 PUSH2 0x2977 JUMP JUMPDEST POP JUMP JUMPDEST PUSH0 PUSH32 0x88BE536D5240C274A3B1D3A1BE54482FD9CAA294F08C62A7CDE569F49A3C4500 SWAP1 POP SWAP1 JUMP JUMPDEST PUSH0 PUSH32 0x1FFC9A700000000000000000000000000000000000000000000000000000000 PUSH28 0xFFFFFFFFFFFFFFFFFFFFFFFFFFFFFFFFFFFFFFFFFFFFFFFFFFFFFFFF NOT AND DUP3 PUSH28 0xFFFFFFFFFFFFFFFFFFFFFFFFFFFFFFFFFFFFFFFFFFFFFFFFFFFFFFFF NOT AND EQ SWAP1 POP SWAP2 SWAP1 POP JUMP JUMPDEST PUSH0 DUP1 DUP3 PUSH0 ADD MLOAD MLOAD PUSH8 0xFFFFFFFFFFFFFFFF DUP2 GT ISZERO PUSH2 0x1CED JUMPI PUSH2 0x1CEC PUSH2 0x438A JUMP JUMPDEST JUMPDEST PUSH1 0x40 MLOAD SWAP1 DUP1 DUP3 MSTORE DUP1 PUSH1 0x20 MUL PUSH1 0x20 ADD DUP3 ADD PUSH1 0x40 MSTORE DUP1 ISZERO PUSH2 0x1D1B JUMPI DUP2 PUSH1 0x20 ADD PUSH1 0x20 DUP3 MUL DUP1 CALLDATASIZE DUP4 CALLDATACOPY DUP1 DUP3 ADD SWAP2 POP POP SWAP1 POP JUMPDEST POP SWAP1 POP PUSH0 JUMPDEST DUP4 PUSH0 ADD MLOAD MLOAD DUP2 LT ISZERO PUSH2 0x1DFB JUMPI PUSH0 DUP1 DUP10 DUP2 MSTORE PUSH1 0x20 ADD SWAP1 DUP2 MSTORE PUSH1 0x20 ADD PUSH0 KECCAK256 PUSH0 DUP9 DUP2 MSTORE PUSH1 0x20 ADD SWAP1 DUP2 MSTORE PUSH1 0x20 ADD PUSH0 KECCAK256 PUSH0 DUP8 DUP2 MSTORE PUSH1 0x20 ADD SWAP1 DUP2 MSTORE PUSH1 0x20 ADD PUSH0 KECCAK256 PUSH0 DUP6 PUSH0 ADD MLOAD DUP4 DUP2 MLOAD DUP2 LT PUSH2 0x1D71 JUMPI PUSH2 0x1D70 PUSH2 0x4EC0 JUMP JUMPDEST JUMPDEST PUSH1 0x20 MUL PUSH1 0x20 ADD ADD MLOAD PUSH20 0xFFFFFFFFFFFFFFFFFFFFFFFFFFFFFFFFFFFFFFFF AND PUSH20 0xFFFFFFFFFFFFFFFFFFFFFFFFFFFFFFFFFFFFFFFF AND DUP2 MSTORE PUSH1 0x20 ADD SWAP1 DUP2 MSTORE PUSH1 0x20 ADD PUSH0 KECCAK256 PUSH0 ADD DUP6 DUP2 SLOAD DUP2 LT PUSH2 0x1DC6 JUMPI PUSH2 0x1DC5 PUSH2 0x4EC0 JUMP JUMPDEST JUMPDEST SWAP1 PUSH0 MSTORE PUSH1 0x20 PUSH0 KECCAK256 ADD SLOAD DUP3 DUP3 DUP2 MLOAD DUP2 LT PUSH2 0x1DE2 JUMPI PUSH2 0x1DE1 PUSH2 0x4EC0 JUMP JUMPDEST JUMPDEST PUSH1 0x20 MUL PUSH1 0x20 ADD ADD DUP2 DUP2 MSTORE POP POP DUP1 DUP1 PUSH1 0x1 ADD SWAP2 POP POP PUSH2 0x1D20 JUMP JUMPDEST POP PUSH0 PUSH2 0x1E06 DUP3 PUSH2 0x3007 JUMP JUMPDEST SWAP1 POP PUSH0 PUSH2 0x1E12 DUP4 PUSH2 0x3075 JUMP JUMPDEST SWAP1 POP PUSH0 PUSH2 0x1E22 DUP7 PUSH0 ADD MLOAD MLOAD PUSH2 0x311B JUMP JUMPDEST SWAP1 POP PUSH0 DUP1 DUP3 SUB PUSH2 0x1E3C JUMPI PUSH8 0xDE0B6B3A7640000 SWAP1 POP PUSH2 0x1E71 JUMP JUMPDEST DUP2 PUSH8 0xDE0B6B3A7640000 DUP5 PUSH2 0x1E51 SWAP2 SWAP1 PUSH2 0x57B4 JUMP JUMPDEST PUSH2 0x1E5B SWAP2 SWAP1 PUSH2 0x5822 JUMP JUMPDEST PUSH8 0xDE0B6B3A7640000 PUSH2 0x1E6E SWAP2 SWAP1 PUSH2 0x5852 JUMP JUMPDEST SWAP1 POP JUMPDEST PUSH8 0xDE0B6B3A7640000 DUP2 DUP6 PUSH2 0x1E86 SWAP2 SWAP1 PUSH2 0x57B4 JUMP JUMPDEST PUSH2 0x1E90 SWAP2 SWAP1 PUSH2 0x5822 JUMP JUMPDEST SWAP6 POP POP POP POP POP POP SWAP6 SWAP5 POP POP POP POP POP JUMP JUMPDEST PUSH1 0x60 PUSH0 DUP3 MLOAD PUSH8 0xFFFFFFFFFFFFFFFF DUP2 GT ISZERO PUSH2 0x1EBE JUMPI PUSH2 0x1EBD PUSH2 0x438A JUMP JUMPDEST JUMPDEST PUSH1 0x40 MLOAD SWAP1 DUP1 DUP3 MSTORE DUP1 PUSH1 0x20 MUL PUSH1 0x20 ADD DUP3 ADD PUSH1 0x40 MSTORE DUP1 ISZERO PUSH2 0x1EEC JUMPI DUP2 PUSH1 0x20 ADD PUSH1 0x20 DUP3 MUL DUP1 CALLDATASIZE DUP4 CALLDATACOPY DUP1 DUP3 ADD SWAP2 POP POP SWAP1 POP JUMPDEST POP SWAP1 POP PUSH0 JUMPDEST DUP2 MLOAD DUP2 LT ISZERO PUSH2 0x1F27 JUMPI DUP1 DUP3 DUP3 DUP2 MLOAD DUP2 LT PUSH2 0x1F0E JUMPI PUSH2 0x1F0D PUSH2 0x4EC0 JUMP JUMPDEST JUMPDEST PUSH1 0x20 MUL PUSH1 0x20 ADD ADD DUP2 DUP2 MSTORE POP POP DUP1 DUP1 PUSH1 0x1 ADD SWAP2 POP POP PUSH2 0x1EF1 JUMP JUMPDEST POP PUSH0 JUMPDEST PUSH1 0x1 DUP5 MLOAD PUSH2 0x1F38 SWAP2 SWAP1 PUSH2 0x5852 JUMP JUMPDEST DUP2 LT ISZERO PUSH2 0x2059 JUMPI PUSH0 PUSH1 0x1 DUP3 PUSH2 0x1F4D SWAP2 SWAP1 PUSH2 0x5885 JUMP JUMPDEST SWAP1 POP JUMPDEST DUP5 MLOAD DUP2 LT ISZERO PUSH2 0x204B JUMPI DUP5 DUP4 DUP3 DUP2 MLOAD DUP2 LT PUSH2 0x1F6D JUMPI PUSH2 0x1F6C PUSH2 0x4EC0 JUMP JUMPDEST JUMPDEST PUSH1 0x20 MUL PUSH1 0x20 ADD ADD MLOAD DUP2 MLOAD DUP2 LT PUSH2 0x1F86 JUMPI PUSH2 0x1F85 PUSH2 0x4EC0 JUMP JUMPDEST JUMPDEST PUSH1 0x20 MUL PUSH1 0x20 ADD ADD MLOAD DUP6 DUP5 DUP5 DUP2 MLOAD DUP2 LT PUSH2 0x1FA2 JUMPI PUSH2 0x1FA1 PUSH2 0x4EC0 JUMP JUMPDEST JUMPDEST PUSH1 0x20 MUL PUSH1 0x20 ADD ADD MLOAD DUP2 MLOAD DUP2 LT PUSH2 0x1FBB JUMPI PUSH2 0x1FBA PUSH2 0x4EC0 JUMP JUMPDEST JUMPDEST PUSH1 0x20 MUL PUSH1 0x20 ADD ADD MLOAD LT ISZERO PUSH2 0x203E JUMPI DUP3 DUP2 DUP2 MLOAD DUP2 LT PUSH2 0x1FDC JUMPI PUSH2 0x1FDB PUSH2 0x4EC0 JUMP JUMPDEST JUMPDEST PUSH1 0x20 MUL PUSH1 0x20 ADD ADD MLOAD DUP4 DUP4 DUP2 MLOAD DUP2 LT PUSH2 0x1FF7 JUMPI PUSH2 0x1FF6 PUSH2 0x4EC0 JUMP JUMPDEST JUMPDEST PUSH1 0x20 MUL PUSH1 0x20 ADD ADD MLOAD DUP5 DUP5 DUP2 MLOAD DUP2 LT PUSH2 0x2012 JUMPI PUSH2 0x2011 PUSH2 0x4EC0 JUMP JUMPDEST JUMPDEST PUSH1 0x20 MUL PUSH1 0x20 ADD ADD DUP6 DUP5 DUP2 MLOAD DUP2 LT PUSH2 0x202C JUMPI PUSH2 0x202B PUSH2 0x4EC0 JUMP JUMPDEST JUMPDEST PUSH1 0x20 MUL PUSH1 0x20 ADD ADD DUP3 DUP2 MSTORE POP DUP3 DUP2 MSTORE POP POP POP JUMPDEST DUP1 DUP1 PUSH1 0x1 ADD SWAP2 POP POP PUSH2 0x1F50 JUMP JUMPDEST POP DUP1 DUP1 PUSH1 0x1 ADD SWAP2 POP POP PUSH2 0x1F2A JUMP JUMPDEST POP PUSH0 DUP4 MLOAD PUSH8 0xFFFFFFFFFFFFFFFF DUP2 GT ISZERO PUSH2 0x2076 JUMPI PUSH2 0x2075 PUSH2 0x438A JUMP JUMPDEST JUMPDEST PUSH1 0x40 MLOAD SWAP1 DUP1 DUP3 MSTORE DUP1 PUSH1 0x20 MUL PUSH1 0x20 ADD DUP3 ADD PUSH1 0x40 MSTORE DUP1 ISZERO PUSH2 0x20A4 JUMPI DUP2 PUSH1 0x20 ADD PUSH1 0x20 DUP3 MUL DUP1 CALLDATASIZE DUP4 CALLDATACOPY DUP1 DUP3 ADD SWAP2 POP POP SWAP1 POP JUMPDEST POP SWAP1 POP PUSH0 JUMPDEST DUP2 MLOAD DUP2 LT ISZERO PUSH2 0x2105 JUMPI DUP1 DUP6 MLOAD PUSH2 0x20BF SWAP2 SWAP1 PUSH2 0x5852 JUMP JUMPDEST DUP3 DUP5 DUP4 DUP2 MLOAD DUP2 LT PUSH2 0x20D3 JUMPI PUSH2 0x20D2 PUSH2 0x4EC0 JUMP JUMPDEST JUMPDEST PUSH1 0x20 MUL PUSH1 0x20 ADD ADD MLOAD DUP2 MLOAD DUP2 LT PUSH2 0x20EC JUMPI PUSH2 0x20EB PUSH2 0x4EC0 JUMP JUMPDEST JUMPDEST PUSH1 0x20 MUL PUSH1 0x20 ADD ADD DUP2 DUP2 MSTORE POP POP DUP1 DUP1 PUSH1 0x1 ADD SWAP2 POP POP PUSH2 0x20A9 JUMP JUMPDEST POP DUP1 SWAP3 POP POP POP SWAP2 SWAP1 POP JUMP JUMPDEST PUSH1 0x60 PUSH0 PUSH1 0x1 PUSH2 0x211E DUP5 PUSH2 0x3194 JUMP JUMPDEST ADD SWAP1 POP PUSH0 DUP2 PUSH8 0xFFFFFFFFFFFFFFFF DUP2 GT ISZERO PUSH2 0x213C JUMPI PUSH2 0x213B PUSH2 0x438A JUMP JUMPDEST JUMPDEST PUSH1 0x40 MLOAD SWAP1 DUP1 DUP3 MSTORE DUP1 PUSH1 0x1F ADD PUSH1 0x1F NOT AND PUSH1 0x20 ADD DUP3 ADD PUSH1 0x40 MSTORE DUP1 ISZERO PUSH2 0x216E JUMPI DUP2 PUSH1 0x20 ADD PUSH1 0x1 DUP3 MUL DUP1 CALLDATASIZE DUP4 CALLDATACOPY DUP1 DUP3 ADD SWAP2 POP POP SWAP1 POP JUMPDEST POP SWAP1 POP PUSH0 DUP3 PUSH1 0x20 ADD DUP3 ADD SWAP1 POP JUMPDEST PUSH1 0x1 ISZERO PUSH2 0x21CF JUMPI DUP1 DUP1 PUSH1 0x1 SWAP1 SUB SWAP2 POP POP PUSH32 0x3031323334353637383961626364656600000000000000000000000000000000 PUSH1 0xA DUP7 MOD BYTE DUP2 MSTORE8 PUSH1 0xA DUP6 DUP2 PUSH2 0x21C4 JUMPI PUSH2 0x21C3 PUSH2 0x57F5 JUMP JUMPDEST JUMPDEST DIV SWAP5 POP PUSH0 DUP6 SUB PUSH2 0x217B JUMPI JUMPDEST DUP2 SWAP4 POP POP POP POP SWAP2 SWAP1 POP JUMP JUMPDEST PUSH0 PUSH1 0x1 PUSH0 DUP7 DUP2 MSTORE PUSH1 0x20 ADD SWAP1 DUP2 MSTORE PUSH1 0x20 ADD PUSH0 KECCAK256 PUSH0 DUP6 DUP2 MSTORE PUSH1 0x20 ADD SWAP1 DUP2 MSTORE PUSH1 0x20 ADD PUSH0 KECCAK256 PUSH0 DUP5 DUP2 MSTORE PUSH1 0x20 ADD SWAP1 DUP2 MSTORE PUSH1 0x20 ADD PUSH0 KECCAK256 PUSH0 ADD DUP1 SLOAD DUP1 PUSH1 0x20 MUL PUSH1 0x20 ADD PUSH1 0x40 MLOAD SWAP1 DUP2 ADD PUSH1 0x40 MSTORE DUP1 SWAP3 SWAP2 SWAP1 DUP2 DUP2 MSTORE PUSH1 0x20 ADD DUP3 DUP1 SLOAD DUP1 ISZERO PUSH2 0x2254 JUMPI PUSH1 0x20 MUL DUP3 ADD SWAP2 SWAP1 PUSH0 MSTORE PUSH1 0x20 PUSH0 KECCAK256 SWAP1 JUMPDEST DUP2 SLOAD DUP2 MSTORE PUSH1 0x20 ADD SWAP1 PUSH1 0x1 ADD SWAP1 DUP1 DUP4 GT PUSH2 0x2240 JUMPI JUMPDEST POP POP POP POP POP SWAP1 POP PUSH0 DUP3 PUSH0 ADD MLOAD MLOAD SWAP1 POP PUSH0 JUMPDEST DUP2 DUP2 LT DUP1 ISZERO PUSH2 0x2278 JUMPI POP PUSH1 0x4 DUP1 SLOAD SWAP1 POP DUP2 LT JUMPDEST ISZERO PUSH2 0x2386 JUMPI PUSH0 DUP5 PUSH0 ADD MLOAD PUSH1 0x1 DUP6 DUP5 DUP2 MLOAD DUP2 LT PUSH2 0x2297 JUMPI PUSH2 0x2296 PUSH2 0x4EC0 JUMP JUMPDEST JUMPDEST PUSH1 0x20 MUL PUSH1 0x20 ADD ADD MLOAD PUSH2 0x22A9 SWAP2 SWAP1 PUSH2 0x5852 JUMP JUMPDEST DUP2 MLOAD DUP2 LT PUSH2 0x22BA JUMPI PUSH2 0x22B9 PUSH2 0x4EC0 JUMP JUMPDEST JUMPDEST PUSH1 0x20 MUL PUSH1 0x20 ADD ADD MLOAD SWAP1 POP PUSH0 PUSH1 0x4 DUP4 DUP2 SLOAD DUP2 LT PUSH2 0x22D9 JUMPI PUSH2 0x22D8 PUSH2 0x4EC0 JUMP JUMPDEST JUMPDEST SWAP1 PUSH0 MSTORE PUSH1 0x20 PUSH0 KECCAK256 ADD SLOAD SWAP1 POP PUSH1 0x5 PUSH0 SWAP1 SLOAD SWAP1 PUSH2 0x100 EXP SWAP1 DIV PUSH20 0xFFFFFFFFFFFFFFFFFFFFFFFFFFFFFFFFFFFFFFFF AND PUSH20 0xFFFFFFFFFFFFFFFFFFFFFFFFFFFFFFFFFFFFFFFF AND PUSH4 0x9807F9E8 DUP11 DUP5 DUP12 DUP6 PUSH1 0x40 MLOAD DUP6 PUSH4 0xFFFFFFFF AND PUSH1 0xE0 SHL DUP2 MSTORE PUSH1 0x4 ADD PUSH2 0x2344 SWAP5 SWAP4 SWAP3 SWAP2 SWAP1 PUSH2 0x58B8 JUMP JUMPDEST PUSH0 PUSH1 0x40 MLOAD DUP1 DUP4 SUB DUP2 PUSH0 DUP8 DUP1 EXTCODESIZE ISZERO DUP1 ISZERO PUSH2 0x235B JUMPI PUSH0 DUP1 REVERT JUMPDEST POP GAS CALL ISZERO DUP1 ISZERO PUSH2 0x236D JUMPI RETURNDATASIZE PUSH0 DUP1 RETURNDATACOPY RETURNDATASIZE PUSH0 REVERT JUMPDEST POP POP POP POP POP POP DUP1 DUP1 PUSH2 0x237E SWAP1 PUSH2 0x5430 JUMP JUMPDEST SWAP2 POP POP PUSH2 0x2265 JUMP JUMPDEST POP POP POP POP POP POP POP JUMP JUMPDEST PUSH0 CALLER SWAP1 POP SWAP1 JUMP JUMPDEST PUSH0 PUSH20 0xFFFFFFFFFFFFFFFFFFFFFFFFFFFFFFFFFFFFFFFF AND DUP5 PUSH20 0xFFFFFFFFFFFFFFFFFFFFFFFFFFFFFFFFFFFFFFFF AND SUB PUSH2 0x2406 JUMPI PUSH0 PUSH1 0x40 MLOAD PUSH32 0x57F447CE00000000000000000000000000000000000000000000000000000000 DUP2 MSTORE PUSH1 0x4 ADD PUSH2 0x23FD SWAP2 SWAP1 PUSH2 0x498B JUMP JUMPDEST PUSH1 0x40 MLOAD DUP1 SWAP2 SUB SWAP1 REVERT JUMPDEST PUSH0 PUSH20 0xFFFFFFFFFFFFFFFFFFFFFFFFFFFFFFFFFFFFFFFF AND DUP6 PUSH20 0xFFFFFFFFFFFFFFFFFFFFFFFFFFFFFFFFFFFFFFFF AND SUB PUSH2 0x2476 JUMPI PUSH0 PUSH1 0x40 MLOAD PUSH32 0x1A8351400000000000000000000000000000000000000000000000000000000 DUP2 MSTORE PUSH1 0x4 ADD PUSH2 0x246D SWAP2 SWAP1 PUSH2 0x498B JUMP JUMPDEST PUSH1 0x40 MLOAD DUP1 SWAP2 SUB SWAP1 REVERT JUMPDEST PUSH2 0x2483 DUP6 DUP6 DUP6 DUP6 DUP6 PUSH2 0x32E5 JUMP JUMPDEST POP POP POP POP POP JUMP JUMPDEST PUSH1 0x60 PUSH0 DUP1 JUMPDEST DUP4 MLOAD DUP2 LT ISZERO PUSH2 0x24CE JUMPI DUP4 DUP2 DUP2 MLOAD DUP2 LT PUSH2 0x24AB JUMPI PUSH2 0x24AA PUSH2 0x4EC0 JUMP JUMPDEST JUMPDEST PUSH1 0x20 MUL PUSH1 0x20 ADD ADD MLOAD MLOAD DUP3 PUSH2 0x24BF SWAP2 SWAP1 PUSH2 0x5885 JUMP JUMPDEST SWAP2 POP DUP1 DUP1 PUSH1 0x1 ADD SWAP2 POP POP PUSH2 0x248F JUMP JUMPDEST POP PUSH0 DUP2 PUSH8 0xFFFFFFFFFFFFFFFF DUP2 GT ISZERO PUSH2 0x24EA JUMPI PUSH2 0x24E9 PUSH2 0x438A JUMP JUMPDEST JUMPDEST PUSH1 0x40 MLOAD SWAP1 DUP1 DUP3 MSTORE DUP1 PUSH1 0x20 MUL PUSH1 0x20 ADD DUP3 ADD PUSH1 0x40 MSTORE DUP1 ISZERO PUSH2 0x2518 JUMPI DUP2 PUSH1 0x20 ADD PUSH1 0x20 DUP3 MUL DUP1 CALLDATASIZE DUP4 CALLDATACOPY DUP1 DUP3 ADD SWAP2 POP POP SWAP1 POP JUMPDEST POP SWAP1 POP PUSH0 DUP1 PUSH0 JUMPDEST DUP7 MLOAD DUP2 LT ISZERO PUSH2 0x25BD JUMPI PUSH0 JUMPDEST DUP8 DUP3 DUP2 MLOAD DUP2 LT PUSH2 0x253D JUMPI PUSH2 0x253C PUSH2 0x4EC0 JUMP JUMPDEST JUMPDEST PUSH1 0x20 MUL PUSH1 0x20 ADD ADD MLOAD MLOAD DUP2 LT ISZERO PUSH2 0x25AF JUMPI PUSH0 PUSH2 0x2563 DUP3 PUSH1 0x6 PUSH2 0x255E SWAP2 SWAP1 PUSH2 0x5852 JUMP JUMPDEST PUSH2 0x3391 JUMP JUMPDEST SWAP1 POP DUP1 DUP6 PUSH2 0x2571 SWAP2 SWAP1 PUSH2 0x5885 JUMP JUMPDEST SWAP5 POP DUP1 DUP7 DUP6 DUP2 MLOAD DUP2 LT PUSH2 0x2587 JUMPI PUSH2 0x2586 PUSH2 0x4EC0 JUMP JUMPDEST JUMPDEST PUSH1 0x20 MUL PUSH1 0x20 ADD ADD DUP2 DUP2 MSTORE POP POP DUP4 DUP1 PUSH2 0x259E SWAP1 PUSH2 0x5430 JUMP JUMPDEST SWAP5 POP POP POP DUP1 DUP1 PUSH1 0x1 ADD SWAP2 POP POP PUSH2 0x252A JUMP JUMPDEST POP DUP1 DUP1 PUSH1 0x1 ADD SWAP2 POP POP PUSH2 0x251F JUMP JUMPDEST POP PUSH0 JUMPDEST DUP4 MLOAD DUP2 LT ISZERO PUSH2 0x2626 JUMPI DUP3 DUP9 DUP6 DUP4 DUP2 MLOAD DUP2 LT PUSH2 0x25DE JUMPI PUSH2 0x25DD PUSH2 0x4EC0 JUMP JUMPDEST JUMPDEST PUSH1 0x20 MUL PUSH1 0x20 ADD ADD MLOAD PUSH2 0x25F0 SWAP2 SWAP1 PUSH2 0x57B4 JUMP JUMPDEST PUSH2 0x25FA SWAP2 SWAP1 PUSH2 0x5822 JUMP JUMPDEST DUP5 DUP3 DUP2 MLOAD DUP2 LT PUSH2 0x260D JUMPI PUSH2 0x260C PUSH2 0x4EC0 JUMP JUMPDEST JUMPDEST PUSH1 0x20 MUL PUSH1 0x20 ADD ADD DUP2 DUP2 MSTORE POP POP DUP1 DUP1 PUSH1 0x1 ADD SWAP2 POP POP PUSH2 0x25C0 JUMP JUMPDEST POP DUP3 SWAP5 POP POP POP POP POP SWAP3 SWAP2 POP POP JUMP JUMPDEST PUSH0 PUSH1 0x20 DUP3 MUL PUSH1 0x20 DUP5 ADD ADD MLOAD SWAP1 POP SWAP3 SWAP2 POP POP JUMP JUMPDEST PUSH0 PUSH1 0x20 DUP3 MUL PUSH1 0x20 DUP5 ADD ADD MLOAD SWAP1 POP SWAP3 SWAP2 POP POP JUMP JUMPDEST PUSH32 0x0 PUSH20 0xFFFFFFFFFFFFFFFFFFFFFFFFFFFFFFFFFFFFFFFF AND ADDRESS PUSH20 0xFFFFFFFFFFFFFFFFFFFFFFFFFFFFFFFFFFFFFFFF AND EQ DUP1 PUSH2 0x2707 JUMPI POP PUSH32 0x0 PUSH20 0xFFFFFFFFFFFFFFFFFFFFFFFFFFFFFFFFFFFFFFFF AND PUSH2 0x26EE PUSH2 0x33F6 JUMP JUMPDEST PUSH20 0xFFFFFFFFFFFFFFFFFFFFFFFFFFFFFFFFFFFFFFFF AND EQ ISZERO JUMPDEST ISZERO PUSH2 0x273E JUMPI PUSH1 0x40 MLOAD PUSH32 0xE07C8DBA00000000000000000000000000000000000000000000000000000000 DUP2 MSTORE PUSH1 0x4 ADD PUSH1 0x40 MLOAD DUP1 SWAP2 SUB SWAP1 REVERT JUMPDEST JUMP JUMPDEST PUSH2 0x2748 PUSH2 0x28F0 JUMP JUMPDEST POP JUMP JUMPDEST DUP2 PUSH20 0xFFFFFFFFFFFFFFFFFFFFFFFFFFFFFFFFFFFFFFFF AND PUSH4 0x52D1902D PUSH1 0x40 MLOAD DUP2 PUSH4 0xFFFFFFFF AND PUSH1 0xE0 SHL DUP2 MSTORE PUSH1 0x4 ADD PUSH1 0x20 PUSH1 0x40 MLOAD DUP1 DUP4 SUB DUP2 DUP7 GAS STATICCALL SWAP3 POP POP POP DUP1 ISZERO PUSH2 0x27B3 JUMPI POP PUSH1 0x40 MLOAD RETURNDATASIZE PUSH1 0x1F NOT PUSH1 0x1F DUP3 ADD AND DUP3 ADD DUP1 PUSH1 0x40 MSTORE POP DUP2 ADD SWAP1 PUSH2 0x27B0 SWAP2 SWAP1 PUSH2 0x5925 JUMP JUMPDEST PUSH1 0x1 JUMPDEST PUSH2 0x27F4 JUMPI DUP2 PUSH1 0x40 MLOAD PUSH32 0x4C9C8CE300000000000000000000000000000000000000000000000000000000 DUP2 MSTORE PUSH1 0x4 ADD PUSH2 0x27EB SWAP2 SWAP1 PUSH2 0x498B JUMP JUMPDEST PUSH1 0x40 MLOAD DUP1 SWAP2 SUB SWAP1 REVERT JUMPDEST PUSH32 0x360894A13BA1A3210667C828492DB98DCA3E2076CC3735A920A3CA505D382BBC PUSH0 SHL DUP2 EQ PUSH2 0x285A JUMPI DUP1 PUSH1 0x40 MLOAD PUSH32 0xAA1D49A400000000000000000000000000000000000000000000000000000000 DUP2 MSTORE PUSH1 0x4 ADD PUSH2 0x2851 SWAP2 SWAP1 PUSH2 0x48FE JUMP JUMPDEST PUSH1 0x40 MLOAD DUP1 SWAP2 SUB SWAP1 REVERT JUMPDEST PUSH2 0x2864 DUP4 DUP4 PUSH2 0x3449 JUMP JUMPDEST POP POP POP JUMP JUMPDEST PUSH32 0x0 PUSH20 0xFFFFFFFFFFFFFFFFFFFFFFFFFFFFFFFFFFFFFFFF AND ADDRESS PUSH20 0xFFFFFFFFFFFFFFFFFFFFFFFFFFFFFFFFFFFFFFFF AND EQ PUSH2 0x28EE JUMPI PUSH1 0x40 MLOAD PUSH32 0xE07C8DBA00000000000000000000000000000000000000000000000000000000 DUP2 MSTORE PUSH1 0x4 ADD PUSH1 0x40 MLOAD DUP1 SWAP2 SUB SWAP1 REVERT JUMPDEST JUMP JUMPDEST PUSH2 0x28F8 PUSH2 0x238F JUMP JUMPDEST PUSH20 0xFFFFFFFFFFFFFFFFFFFFFFFFFFFFFFFFFFFFFFFF AND PUSH2 0x2916 PUSH2 0x1247 JUMP JUMPDEST PUSH20 0xFFFFFFFFFFFFFFFFFFFFFFFFFFFFFFFFFFFFFFFF AND EQ PUSH2 0x2975 JUMPI PUSH2 0x2939 PUSH2 0x238F JUMP JUMPDEST PUSH1 0x40 MLOAD PUSH32 0x118CDAA700000000000000000000000000000000000000000000000000000000 DUP2 MSTORE PUSH1 0x4 ADD PUSH2 0x296C SWAP2 SWAP1 PUSH2 0x498B JUMP JUMPDEST PUSH1 0x40 MLOAD DUP1 SWAP2 SUB SWAP1 REVERT JUMPDEST JUMP JUMPDEST PUSH0 PUSH2 0x2980 PUSH2 0x2A48 JUMP JUMPDEST SWAP1 POP PUSH0 DUP2 PUSH0 ADD PUSH0 SWAP1 SLOAD SWAP1 PUSH2 0x100 EXP SWAP1 DIV PUSH20 0xFFFFFFFFFFFFFFFFFFFFFFFFFFFFFFFFFFFFFFFF AND SWAP1 POP DUP3 DUP3 PUSH0 ADD PUSH0 PUSH2 0x100 EXP DUP2 SLOAD DUP2 PUSH20 0xFFFFFFFFFFFFFFFFFFFFFFFFFFFFFFFFFFFFFFFF MUL NOT AND SWAP1 DUP4 PUSH20 0xFFFFFFFFFFFFFFFFFFFFFFFFFFFFFFFFFFFFFFFF AND MUL OR SWAP1 SSTORE POP DUP3 PUSH20 0xFFFFFFFFFFFFFFFFFFFFFFFFFFFFFFFFFFFFFFFF AND DUP2 PUSH20 0xFFFFFFFFFFFFFFFFFFFFFFFFFFFFFFFFFFFFFFFF AND PUSH32 0x8BE0079C531659141344CD1FD0A4F28419497F9722A3DAAFE3B4186F6B6457E0 PUSH1 0x40 MLOAD PUSH1 0x40 MLOAD DUP1 SWAP2 SUB SWAP1 LOG3 POP POP POP JUMP JUMPDEST PUSH0 PUSH32 0x9016D09D72D40FDAE2FD8CEAC6B6234C7706214FD39C1CD1E609A0528C199300 SWAP1 POP SWAP1 JUMP JUMPDEST PUSH0 PUSH2 0x2A78 PUSH2 0x1C3D JUMP JUMPDEST SWAP1 POP PUSH0 PUSH20 0xFFFFFFFFFFFFFFFFFFFFFFFFFFFFFFFFFFFFFFFF AND DUP4 PUSH20 0xFFFFFFFFFFFFFFFFFFFFFFFFFFFFFFFFFFFFFFFF AND SUB PUSH2 0x2AEA JUMPI PUSH0 PUSH1 0x40 MLOAD PUSH32 0xCED3E10000000000000000000000000000000000000000000000000000000000 DUP2 MSTORE PUSH1 0x4 ADD PUSH2 0x2AE1 SWAP2 SWAP1 PUSH2 0x498B JUMP JUMPDEST PUSH1 0x40 MLOAD DUP1 SWAP2 SUB SWAP1 REVERT JUMPDEST DUP2 DUP2 PUSH1 0x1 ADD PUSH0 DUP7 PUSH20 0xFFFFFFFFFFFFFFFFFFFFFFFFFFFFFFFFFFFFFFFF AND PUSH20 0xFFFFFFFFFFFFFFFFFFFFFFFFFFFFFFFFFFFFFFFF AND DUP2 MSTORE PUSH1 0x20 ADD SWAP1 DUP2 MSTORE PUSH1 0x20 ADD PUSH0 KECCAK256 PUSH0 DUP6 PUSH20 0xFFFFFFFFFFFFFFFFFFFFFFFFFFFFFFFFFFFFFFFF AND PUSH20 0xFFFFFFFFFFFFFFFFFFFFFFFFFFFFFFFFFFFFFFFF AND DUP2 MSTORE PUSH1 0x20 ADD SWAP1 DUP2 MSTORE PUSH1 0x20 ADD PUSH0 KECCAK256 PUSH0 PUSH2 0x100 EXP DUP2 SLOAD DUP2 PUSH1 0xFF MUL NOT AND SWAP1 DUP4 ISZERO ISZERO MUL OR SWAP1 SSTORE POP DUP3 PUSH20 0xFFFFFFFFFFFFFFFFFFFFFFFFFFFFFFFFFFFFFFFF AND DUP5 PUSH20 0xFFFFFFFFFFFFFFFFFFFFFFFFFFFFFFFFFFFFFFFF AND PUSH32 0x17307EAB39AB6107E8899845AD3D59BD9653F200F220920489CA2B5937696C31 DUP5 PUSH1 0x40 MLOAD PUSH2 0x2BD8 SWAP2 SWAP1 PUSH2 0x41B5 JUMP JUMPDEST PUSH1 0x40 MLOAD DUP1 SWAP2 SUB SWAP1 LOG3 POP POP POP POP JUMP JUMPDEST PUSH0 DUP1 PUSH0 SWAP1 POP JUMPDEST DUP4 PUSH0 ADD MLOAD MLOAD DUP2 LT ISZERO PUSH2 0x2C5F JUMPI DUP3 PUSH20 0xFFFFFFFFFFFFFFFFFFFFFFFFFFFFFFFFFFFFFFFF AND DUP5 PUSH0 ADD MLOAD DUP3 DUP2 MLOAD DUP2 LT PUSH2 0x2C25 JUMPI PUSH2 0x2C24 PUSH2 0x4EC0 JUMP JUMPDEST JUMPDEST PUSH1 0x20 MUL PUSH1 0x20 ADD ADD MLOAD PUSH20 0xFFFFFFFFFFFFFFFFFFFFFFFFFFFFFFFFFFFFFFFF AND SUB PUSH2 0x2C52 JUMPI PUSH1 0x1 SWAP2 POP POP PUSH2 0x2C64 JUMP JUMPDEST DUP1 DUP1 PUSH1 0x1 ADD SWAP2 POP POP PUSH2 0x2BEC JUMP JUMPDEST POP PUSH0 SWAP1 POP JUMPDEST SWAP3 SWAP2 POP POP JUMP JUMPDEST PUSH1 0x60 PUSH0 DUP4 SWAP1 POP PUSH0 PUSH1 0x2 DUP5 PUSH1 0x2 PUSH2 0x2C80 SWAP2 SWAP1 PUSH2 0x57B4 JUMP JUMPDEST PUSH2 0x2C8A SWAP2 SWAP1 PUSH2 0x5885 JUMP JUMPDEST PUSH8 0xFFFFFFFFFFFFFFFF DUP2 GT ISZERO PUSH2 0x2CA3 JUMPI PUSH2 0x2CA2 PUSH2 0x438A JUMP JUMPDEST JUMPDEST PUSH1 0x40 MLOAD SWAP1 DUP1 DUP3 MSTORE DUP1 PUSH1 0x1F ADD PUSH1 0x1F NOT AND PUSH1 0x20 ADD DUP3 ADD PUSH1 0x40 MSTORE DUP1 ISZERO PUSH2 0x2CD5 JUMPI DUP2 PUSH1 0x20 ADD PUSH1 0x1 DUP3 MUL DUP1 CALLDATASIZE DUP4 CALLDATACOPY DUP1 DUP3 ADD SWAP2 POP POP SWAP1 POP JUMPDEST POP SWAP1 POP PUSH32 0x3000000000000000000000000000000000000000000000000000000000000000 DUP2 PUSH0 DUP2 MLOAD DUP2 LT PUSH2 0x2D0C JUMPI PUSH2 0x2D0B PUSH2 0x4EC0 JUMP JUMPDEST JUMPDEST PUSH1 0x20 ADD ADD SWAP1 PUSH31 0xFFFFFFFFFFFFFFFFFFFFFFFFFFFFFFFFFFFFFFFFFFFFFFFFFFFFFFFFFFFFFF NOT AND SWAP1 DUP2 PUSH0 BYTE SWAP1 MSTORE8 POP PUSH32 0x7800000000000000000000000000000000000000000000000000000000000000 DUP2 PUSH1 0x1 DUP2 MLOAD DUP2 LT PUSH2 0x2D6F JUMPI PUSH2 0x2D6E PUSH2 0x4EC0 JUMP JUMPDEST JUMPDEST PUSH1 0x20 ADD ADD SWAP1 PUSH31 0xFFFFFFFFFFFFFFFFFFFFFFFFFFFFFFFFFFFFFFFFFFFFFFFFFFFFFFFFFFFFFF NOT AND SWAP1 DUP2 PUSH0 BYTE SWAP1 MSTORE8 POP PUSH0 PUSH1 0x1 DUP6 PUSH1 0x2 PUSH2 0x2DAD SWAP2 SWAP1 PUSH2 0x57B4 JUMP JUMPDEST PUSH2 0x2DB7 SWAP2 SWAP1 PUSH2 0x5885 JUMP JUMPDEST SWAP1 POP JUMPDEST PUSH1 0x1 DUP2 GT ISZERO PUSH2 0x2E56 JUMPI PUSH32 0x3031323334353637383961626364656600000000000000000000000000000000 PUSH1 0xF DUP5 AND PUSH1 0x10 DUP2 LT PUSH2 0x2DF9 JUMPI PUSH2 0x2DF8 PUSH2 0x4EC0 JUMP JUMPDEST JUMPDEST BYTE PUSH1 0xF8 SHL DUP3 DUP3 DUP2 MLOAD DUP2 LT PUSH2 0x2E10 JUMPI PUSH2 0x2E0F PUSH2 0x4EC0 JUMP JUMPDEST JUMPDEST PUSH1 0x20 ADD ADD SWAP1 PUSH31 0xFFFFFFFFFFFFFFFFFFFFFFFFFFFFFFFFFFFFFFFFFFFFFFFFFFFFFFFFFFFFFF NOT AND SWAP1 DUP2 PUSH0 BYTE SWAP1 MSTORE8 POP PUSH1 0x4 DUP4 SWAP1 SHR SWAP3 POP DUP1 PUSH2 0x2E4F SWAP1 PUSH2 0x5950 JUMP JUMPDEST SWAP1 POP PUSH2 0x2DBA JUMP JUMPDEST POP PUSH0 DUP3 EQ PUSH2 0x2E9D JUMPI DUP5 DUP5 PUSH1 0x40 MLOAD PUSH32 0xE22E27EB00000000000000000000000000000000000000000000000000000000 DUP2 MSTORE PUSH1 0x4 ADD PUSH2 0x2E94 SWAP3 SWAP2 SWAP1 PUSH2 0x4C6E JUMP JUMPDEST PUSH1 0x40 MLOAD DUP1 SWAP2 SUB SWAP1 REVERT JUMPDEST DUP1 SWAP3 POP POP POP SWAP3 SWAP2 POP POP JUMP JUMPDEST PUSH0 PUSH32 0xF0C57E16840DF040F15088DC2F81FE391C3923BEC73E23A9662EFC9C229C6A00 SWAP1 POP SWAP1 JUMP JUMPDEST PUSH2 0x2ED7 PUSH2 0x34BB JUMP JUMPDEST PUSH2 0x2EE0 DUP2 PUSH2 0x34FB JUMP JUMPDEST POP JUMP JUMPDEST PUSH2 0x2EEB PUSH2 0x34BB JUMP JUMPDEST PUSH2 0x2EF4 DUP2 PUSH2 0x357F JUMP JUMPDEST POP JUMP JUMPDEST PUSH2 0x2EFF PUSH2 0x34BB JUMP JUMPDEST JUMP JUMPDEST PUSH0 PUSH20 0xFFFFFFFFFFFFFFFFFFFFFFFFFFFFFFFFFFFFFFFF AND DUP5 PUSH20 0xFFFFFFFFFFFFFFFFFFFFFFFFFFFFFFFFFFFFFFFF AND SUB PUSH2 0x2F71 JUMPI PUSH0 PUSH1 0x40 MLOAD PUSH32 0x57F447CE00000000000000000000000000000000000000000000000000000000 DUP2 MSTORE PUSH1 0x4 ADD PUSH2 0x2F68 SWAP2 SWAP1 PUSH2 0x498B JUMP JUMPDEST PUSH1 0x40 MLOAD DUP1 SWAP2 SUB SWAP1 REVERT JUMPDEST PUSH0 PUSH20 0xFFFFFFFFFFFFFFFFFFFFFFFFFFFFFFFFFFFFFFFF AND DUP6 PUSH20 0xFFFFFFFFFFFFFFFFFFFFFFFFFFFFFFFFFFFFFFFF AND SUB PUSH2 0x2FE1 JUMPI PUSH0 PUSH1 0x40 MLOAD PUSH32 0x1A8351400000000000000000000000000000000000000000000000000000000 DUP2 MSTORE PUSH1 0x4 ADD PUSH2 0x2FD8 SWAP2 SWAP1 PUSH2 0x498B JUMP JUMPDEST PUSH1 0x40 MLOAD DUP1 SWAP2 SUB SWAP1 REVERT JUMPDEST PUSH0 DUP1 PUSH2 0x2FED DUP6 DUP6 PUSH2 0x3593 JUMP JUMPDEST SWAP2 POP SWAP2 POP PUSH2 0x2FFE DUP8 DUP8 DUP5 DUP5 DUP8 PUSH2 0x32E5 JUMP JUMPDEST POP POP POP POP POP POP POP JUMP JUMPDEST PUSH0 DUP1 PUSH0 SWAP1 POP PUSH0 JUMPDEST DUP4 MLOAD DUP2 LT ISZERO PUSH2 0x304C JUMPI DUP4 DUP2 DUP2 MLOAD DUP2 LT PUSH2 0x302A JUMPI PUSH2 0x3029 PUSH2 0x4EC0 JUMP JUMPDEST JUMPDEST PUSH1 0x20 MUL PUSH1 0x20 ADD ADD MLOAD DUP3 PUSH2 0x303D SWAP2 SWAP1 PUSH2 0x5885 JUMP JUMPDEST SWAP2 POP DUP1 DUP1 PUSH1 0x1 ADD SWAP2 POP POP PUSH2 0x300E JUMP JUMPDEST POP DUP3 MLOAD PUSH8 0xDE0B6B3A7640000 DUP3 PUSH2 0x3063 SWAP2 SWAP1 PUSH2 0x57B4 JUMP JUMPDEST PUSH2 0x306D SWAP2 SWAP1 PUSH2 0x5822 JUMP JUMPDEST SWAP2 POP POP SWAP2 SWAP1 POP JUMP JUMPDEST PUSH0 DUP1 PUSH2 0x3080 DUP4 PUSH2 0x3007 JUMP JUMPDEST SWAP1 POP PUSH0 DUP1 JUMPDEST DUP5 MLOAD DUP2 LT ISZERO PUSH2 0x3104 JUMPI PUSH0 DUP4 PUSH8 0xDE0B6B3A7640000 DUP8 DUP5 DUP2 MLOAD DUP2 LT PUSH2 0x30AC JUMPI PUSH2 0x30AB PUSH2 0x4EC0 JUMP JUMPDEST JUMPDEST PUSH1 0x20 MUL PUSH1 0x20 ADD ADD MLOAD PUSH2 0x30BE SWAP2 SWAP1 PUSH2 0x57B4 JUMP JUMPDEST PUSH2 0x30C8 SWAP2 SWAP1 PUSH2 0x5980 JUMP JUMPDEST SWAP1 POP PUSH8 0xDE0B6B3A7640000 DUP2 DUP3 PUSH2 0x30DF SWAP2 SWAP1 PUSH2 0x59C0 JUMP JUMPDEST PUSH2 0x30E9 SWAP2 SWAP1 PUSH2 0x5822 JUMP JUMPDEST DUP4 PUSH2 0x30F4 SWAP2 SWAP1 PUSH2 0x5885 JUMP JUMPDEST SWAP3 POP POP DUP1 DUP1 PUSH1 0x1 ADD SWAP2 POP POP PUSH2 0x3085 JUMP JUMPDEST POP DUP4 MLOAD DUP2 PUSH2 0x3112 SWAP2 SWAP1 PUSH2 0x5822 JUMP JUMPDEST SWAP3 POP POP POP SWAP2 SWAP1 POP JUMP JUMPDEST PUSH0 DUP1 PUSH0 SWAP1 POP PUSH0 PUSH1 0x1 SWAP1 POP JUMPDEST DUP4 DUP2 LT ISZERO PUSH2 0x3168 JUMPI PUSH1 0x2 PUSH8 0xDE0B6B3A7640000 DUP3 PUSH2 0x3144 SWAP2 SWAP1 PUSH2 0x57B4 JUMP JUMPDEST PUSH2 0x314E SWAP2 SWAP1 PUSH2 0x5822 JUMP JUMPDEST DUP3 PUSH2 0x3159 SWAP2 SWAP1 PUSH2 0x5885 JUMP JUMPDEST SWAP2 POP DUP1 DUP1 PUSH1 0x1 ADD SWAP2 POP POP PUSH2 0x3126 JUMP JUMPDEST POP PUSH1 0x1 DUP4 PUSH2 0x3176 SWAP2 SWAP1 PUSH2 0x5852 JUMP JUMPDEST DUP2 DUP5 PUSH2 0x3182 SWAP2 SWAP1 PUSH2 0x57B4 JUMP JUMPDEST PUSH2 0x318C SWAP2 SWAP1 PUSH2 0x5822 JUMP JUMPDEST SWAP2 POP POP SWAP2 SWAP1 POP JUMP JUMPDEST PUSH0 DUP1 PUSH0 SWAP1 POP PUSH27 0x184F03E93FF9F4DAA797ED6E38ED64BF6A1F010000000000000000 DUP4 LT PUSH2 0x31F0 JUMPI PUSH27 0x184F03E93FF9F4DAA797ED6E38ED64BF6A1F010000000000000000 DUP4 DUP2 PUSH2 0x31E6 JUMPI PUSH2 0x31E5 PUSH2 0x57F5 JUMP JUMPDEST JUMPDEST DIV SWAP3 POP PUSH1 0x40 DUP2 ADD SWAP1 POP JUMPDEST PUSH14 0x4EE2D6D415B85ACEF8100000000 DUP4 LT PUSH2 0x322D JUMPI PUSH14 0x4EE2D6D415B85ACEF8100000000 DUP4 DUP2 PUSH2 0x3223 JUMPI PUSH2 0x3222 PUSH2 0x57F5 JUMP JUMPDEST JUMPDEST DIV SWAP3 POP PUSH1 0x20 DUP2 ADD SWAP1 POP JUMPDEST PUSH7 0x2386F26FC10000 DUP4 LT PUSH2 0x325C JUMPI PUSH7 0x2386F26FC10000 DUP4 DUP2 PUSH2 0x3252 JUMPI PUSH2 0x3251 PUSH2 0x57F5 JUMP JUMPDEST JUMPDEST DIV SWAP3 POP PUSH1 0x10 DUP2 ADD SWAP1 POP JUMPDEST PUSH4 0x5F5E100 DUP4 LT PUSH2 0x3285 JUMPI PUSH4 0x5F5E100 DUP4 DUP2 PUSH2 0x327B JUMPI PUSH2 0x327A PUSH2 0x57F5 JUMP JUMPDEST JUMPDEST DIV SWAP3 POP PUSH1 0x8 DUP2 ADD SWAP1 POP JUMPDEST PUSH2 0x2710 DUP4 LT PUSH2 0x32AA JUMPI PUSH2 0x2710 DUP4 DUP2 PUSH2 0x32A0 JUMPI PUSH2 0x329F PUSH2 0x57F5 JUMP JUMPDEST JUMPDEST DIV SWAP3 POP PUSH1 0x4 DUP2 ADD SWAP1 POP JUMPDEST PUSH1 0x64 DUP4 LT PUSH2 0x32CD JUMPI PUSH1 0x64 DUP4 DUP2 PUSH2 0x32C3 JUMPI PUSH2 0x32C2 PUSH2 0x57F5 JUMP JUMPDEST JUMPDEST DIV SWAP3 POP PUSH1 0x2 DUP2 ADD SWAP1 POP JUMPDEST PUSH1 0xA DUP4 LT PUSH2 0x32DC JUMPI PUSH1 0x1 DUP2 ADD SWAP1 POP JUMPDEST DUP1 SWAP2 POP POP SWAP2 SWAP1 POP JUMP JUMPDEST PUSH2 0x32F1 DUP6 DUP6 DUP6 DUP6 PUSH2 0x35C3 JUMP JUMPDEST PUSH0 PUSH20 0xFFFFFFFFFFFFFFFFFFFFFFFFFFFFFFFFFFFFFFFF AND DUP5 PUSH20 0xFFFFFFFFFFFFFFFFFFFFFFFFFFFFFFFFFFFFFFFF AND EQ PUSH2 0x338A JUMPI PUSH0 PUSH2 0x332D PUSH2 0x238F JUMP JUMPDEST SWAP1 POP PUSH1 0x1 DUP5 MLOAD SUB PUSH2 0x3379 JUMPI PUSH0 PUSH2 0x334C PUSH0 DUP7 PUSH2 0x2647 SWAP1 SWAP2 SWAP1 PUSH4 0xFFFFFFFF AND JUMP JUMPDEST SWAP1 POP PUSH0 PUSH2 0x3362 PUSH0 DUP7 PUSH2 0x2647 SWAP1 SWAP2 SWAP1 PUSH4 0xFFFFFFFF AND JUMP JUMPDEST SWAP1 POP PUSH2 0x3372 DUP4 DUP10 DUP10 DUP6 DUP6 DUP10 PUSH2 0x3965 JUMP JUMPDEST POP POP PUSH2 0x3388 JUMP JUMPDEST PUSH2 0x3387 DUP2 DUP8 DUP8 DUP8 DUP8 DUP8 PUSH2 0x3B14 JUMP JUMPDEST JUMPDEST POP JUMPDEST POP POP POP POP POP JUMP JUMPDEST PUSH0 PUSH1 0x1 DUP3 PUSH1 0xFF AND GT PUSH2 0x33A8 JUMPI DUP2 PUSH1 0xFF AND SWAP1 POP PUSH2 0x33F1 JUMP JUMPDEST PUSH0 DUP1 PUSH1 0x1 SWAP1 POP PUSH0 PUSH1 0x2 SWAP1 POP JUMPDEST DUP5 PUSH1 0xFF AND DUP2 PUSH1 0xFF AND GT PUSH2 0x33EA JUMPI PUSH0 DUP3 DUP5 PUSH2 0x33CE SWAP2 SWAP1 PUSH2 0x5885 JUMP JUMPDEST SWAP1 POP DUP3 SWAP4 POP DUP1 SWAP3 POP POP DUP1 DUP1 PUSH2 0x33E2 SWAP1 PUSH2 0x5A42 JUMP JUMPDEST SWAP2 POP POP PUSH2 0x33B4 JUMP JUMPDEST POP DUP1 SWAP3 POP POP POP JUMPDEST SWAP2 SWAP1 POP JUMP JUMPDEST PUSH0 PUSH2 0x3422 PUSH32 0x360894A13BA1A3210667C828492DB98DCA3E2076CC3735A920A3CA505D382BBC PUSH0 SHL PUSH2 0x3CC3 JUMP JUMPDEST PUSH0 ADD PUSH0 SWAP1 SLOAD SWAP1 PUSH2 0x100 EXP SWAP1 DIV PUSH20 0xFFFFFFFFFFFFFFFFFFFFFFFFFFFFFFFFFFFFFFFF AND SWAP1 POP SWAP1 JUMP JUMPDEST PUSH2 0x3452 DUP3 PUSH2 0x3CCC JUMP JUMPDEST DUP2 PUSH20 0xFFFFFFFFFFFFFFFFFFFFFFFFFFFFFFFFFFFFFFFF AND PUSH32 0xBC7CD75A20EE27FD9ADEBAB32041F755214DBC6BFFA90CC0225B39DA2E5C2D3B PUSH1 0x40 MLOAD PUSH1 0x40 MLOAD DUP1 SWAP2 SUB SWAP1 LOG2 PUSH0 DUP2 MLOAD GT ISZERO PUSH2 0x34AE JUMPI PUSH2 0x34A8 DUP3 DUP3 PUSH2 0x3D95 JUMP JUMPDEST POP PUSH2 0x34B7 JUMP JUMPDEST PUSH2 0x34B6 PUSH2 0x3E15 JUMP JUMPDEST JUMPDEST POP POP JUMP JUMPDEST PUSH2 0x34C3 PUSH2 0x3E51 JUMP JUMPDEST PUSH2 0x34F9 JUMPI PUSH1 0x40 MLOAD PUSH32 0xD7E6BCF800000000000000000000000000000000000000000000000000000000 DUP2 MSTORE PUSH1 0x4 ADD PUSH1 0x40 MLOAD DUP1 SWAP2 SUB SWAP1 REVERT JUMPDEST JUMP JUMPDEST PUSH2 0x3503 PUSH2 0x34BB JUMP JUMPDEST PUSH0 PUSH20 0xFFFFFFFFFFFFFFFFFFFFFFFFFFFFFFFFFFFFFFFF AND DUP2 PUSH20 0xFFFFFFFFFFFFFFFFFFFFFFFFFFFFFFFFFFFFFFFF AND SUB PUSH2 0x3573 JUMPI PUSH0 PUSH1 0x40 MLOAD PUSH32 0x1E4FBDF700000000000000000000000000000000000000000000000000000000 DUP2 MSTORE PUSH1 0x4 ADD PUSH2 0x356A SWAP2 SWAP1 PUSH2 0x498B JUMP JUMPDEST PUSH1 0x40 MLOAD DUP1 SWAP2 SUB SWAP1 REVERT JUMPDEST PUSH2 0x357C DUP2 PUSH2 0x2977 JUMP JUMPDEST POP JUMP JUMPDEST PUSH2 0x3587 PUSH2 0x34BB JUMP JUMPDEST PUSH2 0x3590 DUP2 PUSH2 0x3E6F JUMP JUMPDEST POP JUMP JUMPDEST PUSH1 0x60 DUP1 PUSH1 0x40 MLOAD SWAP2 POP PUSH1 0x1 DUP3 MSTORE DUP4 PUSH1 0x20 DUP4 ADD MSTORE PUSH1 0x40 DUP3 ADD SWAP1 POP PUSH1 0x1 DUP2 MSTORE DUP3 PUSH1 0x20 DUP3 ADD MSTORE PUSH1 0x40 DUP2 ADD PUSH1 0x40 MSTORE SWAP3 POP SWAP3 SWAP1 POP JUMP JUMPDEST PUSH0 PUSH2 0x35CC PUSH2 0x1C3D JUMP JUMPDEST SWAP1 POP DUP2 MLOAD DUP4 MLOAD EQ PUSH2 0x3618 JUMPI DUP3 MLOAD DUP3 MLOAD PUSH1 0x40 MLOAD PUSH32 0x5B05999100000000000000000000000000000000000000000000000000000000 DUP2 MSTORE PUSH1 0x4 ADD PUSH2 0x360F SWAP3 SWAP2 SWAP1 PUSH2 0x4C6E JUMP JUMPDEST PUSH1 0x40 MLOAD DUP1 SWAP2 SUB SWAP1 REVERT JUMPDEST PUSH0 PUSH2 0x3621 PUSH2 0x238F JUMP JUMPDEST SWAP1 POP PUSH0 JUMPDEST DUP5 MLOAD DUP2 LT ISZERO PUSH2 0x3823 JUMPI PUSH0 PUSH2 0x3642 DUP3 DUP8 PUSH2 0x2647 SWAP1 SWAP2 SWAP1 PUSH4 0xFFFFFFFF AND JUMP JUMPDEST SWAP1 POP PUSH0 PUSH2 0x3658 DUP4 DUP8 PUSH2 0x2647 SWAP1 SWAP2 SWAP1 PUSH4 0xFFFFFFFF AND JUMP JUMPDEST SWAP1 POP PUSH0 PUSH20 0xFFFFFFFFFFFFFFFFFFFFFFFFFFFFFFFFFFFFFFFF AND DUP10 PUSH20 0xFFFFFFFFFFFFFFFFFFFFFFFFFFFFFFFFFFFFFFFF AND EQ PUSH2 0x377F JUMPI PUSH0 DUP6 PUSH0 ADD PUSH0 DUP5 DUP2 MSTORE PUSH1 0x20 ADD SWAP1 DUP2 MSTORE PUSH1 0x20 ADD PUSH0 KECCAK256 PUSH0 DUP12 PUSH20 0xFFFFFFFFFFFFFFFFFFFFFFFFFFFFFFFFFFFFFFFF AND PUSH20 0xFFFFFFFFFFFFFFFFFFFFFFFFFFFFFFFFFFFFFFFF AND DUP2 MSTORE PUSH1 0x20 ADD SWAP1 DUP2 MSTORE PUSH1 0x20 ADD PUSH0 KECCAK256 SLOAD SWAP1 POP DUP2 DUP2 LT ISZERO PUSH2 0x3729 JUMPI DUP10 DUP2 DUP4 DUP6 PUSH1 0x40 MLOAD PUSH32 0x3DEE4C500000000000000000000000000000000000000000000000000000000 DUP2 MSTORE PUSH1 0x4 ADD PUSH2 0x3720 SWAP5 SWAP4 SWAP3 SWAP2 SWAP1 PUSH2 0x5A6A JUMP JUMPDEST PUSH1 0x40 MLOAD DUP1 SWAP2 SUB SWAP1 REVERT JUMPDEST DUP2 DUP2 SUB DUP7 PUSH0 ADD PUSH0 DUP6 DUP2 MSTORE PUSH1 0x20 ADD SWAP1 DUP2 MSTORE PUSH1 0x20 ADD PUSH0 KECCAK256 PUSH0 DUP13 PUSH20 0xFFFFFFFFFFFFFFFFFFFFFFFFFFFFFFFFFFFFFFFF AND PUSH20 0xFFFFFFFFFFFFFFFFFFFFFFFFFFFFFFFFFFFFFFFF AND DUP2 MSTORE PUSH1 0x20 ADD SWAP1 DUP2 MSTORE PUSH1 0x20 ADD PUSH0 KECCAK256 DUP2 SWAP1 SSTORE POP POP JUMPDEST PUSH0 PUSH20 0xFFFFFFFFFFFFFFFFFFFFFFFFFFFFFFFFFFFFFFFF AND DUP9 PUSH20 0xFFFFFFFFFFFFFFFFFFFFFFFFFFFFFFFFFFFFFFFF AND EQ PUSH2 0x3816 JUMPI DUP1 DUP6 PUSH0 ADD PUSH0 DUP5 DUP2 MSTORE PUSH1 0x20 ADD SWAP1 DUP2 MSTORE PUSH1 0x20 ADD PUSH0 KECCAK256 PUSH0 DUP11 PUSH20 0xFFFFFFFFFFFFFFFFFFFFFFFFFFFFFFFFFFFFFFFF AND PUSH20 0xFFFFFFFFFFFFFFFFFFFFFFFFFFFFFFFFFFFFFFFF AND DUP2 MSTORE PUSH1 0x20 ADD SWAP1 DUP2 MSTORE PUSH1 0x20 ADD PUSH0 KECCAK256 PUSH0 DUP3 DUP3 SLOAD PUSH2 0x380E SWAP2 SWAP1 PUSH2 0x5885 JUMP JUMPDEST SWAP3 POP POP DUP2 SWAP1 SSTORE POP JUMPDEST POP POP DUP1 PUSH1 0x1 ADD SWAP1 POP PUSH2 0x3625 JUMP JUMPDEST POP PUSH1 0x1 DUP5 MLOAD SUB PUSH2 0x38DE JUMPI PUSH0 PUSH2 0x3841 PUSH0 DUP7 PUSH2 0x2647 SWAP1 SWAP2 SWAP1 PUSH4 0xFFFFFFFF AND JUMP JUMPDEST SWAP1 POP PUSH0 PUSH2 0x3857 PUSH0 DUP7 PUSH2 0x2647 SWAP1 SWAP2 SWAP1 PUSH4 0xFFFFFFFF AND JUMP JUMPDEST SWAP1 POP DUP7 PUSH20 0xFFFFFFFFFFFFFFFFFFFFFFFFFFFFFFFFFFFFFFFF AND DUP9 PUSH20 0xFFFFFFFFFFFFFFFFFFFFFFFFFFFFFFFFFFFFFFFF AND DUP5 PUSH20 0xFFFFFFFFFFFFFFFFFFFFFFFFFFFFFFFFFFFFFFFF AND PUSH32 0xC3D58168C5AE7397731D063D5BBF3D657854427343F4C083240F7AACAA2D0F62 DUP6 DUP6 PUSH1 0x40 MLOAD PUSH2 0x38CF SWAP3 SWAP2 SWAP1 PUSH2 0x4C6E JUMP JUMPDEST PUSH1 0x40 MLOAD DUP1 SWAP2 SUB SWAP1 LOG4 POP POP PUSH2 0x395D JUMP JUMPDEST DUP5 PUSH20 0xFFFFFFFFFFFFFFFFFFFFFFFFFFFFFFFFFFFFFFFF AND DUP7 PUSH20 0xFFFFFFFFFFFFFFFFFFFFFFFFFFFFFFFFFFFFFFFF AND DUP3 PUSH20 0xFFFFFFFFFFFFFFFFFFFFFFFFFFFFFFFFFFFFFFFF AND PUSH32 0x4A39DC06D4C0DBC64B70AF90FD698A233A518AA5D07E595D983B8C0526C8F7FB DUP8 DUP8 PUSH1 0x40 MLOAD PUSH2 0x3954 SWAP3 SWAP2 SWAP1 PUSH2 0x5AAD JUMP JUMPDEST PUSH1 0x40 MLOAD DUP1 SWAP2 SUB SWAP1 LOG4 JUMPDEST POP POP POP POP POP POP JUMP JUMPDEST PUSH0 DUP5 PUSH20 0xFFFFFFFFFFFFFFFFFFFFFFFFFFFFFFFFFFFFFFFF AND EXTCODESIZE GT ISZERO PUSH2 0x3B0C JUMPI DUP4 PUSH20 0xFFFFFFFFFFFFFFFFFFFFFFFFFFFFFFFFFFFFFFFF AND PUSH4 0xF23A6E61 DUP8 DUP8 DUP7 DUP7 DUP7 PUSH1 0x40 MLOAD DUP7 PUSH4 0xFFFFFFFF AND PUSH1 0xE0 SHL DUP2 MSTORE PUSH1 0x4 ADD PUSH2 0x39C5 SWAP6 SWAP5 SWAP4 SWAP3 SWAP2 SWAP1 PUSH2 0x5B34 JUMP JUMPDEST PUSH1 0x20 PUSH1 0x40 MLOAD DUP1 DUP4 SUB DUP2 PUSH0 DUP8 GAS CALL SWAP3 POP POP POP DUP1 ISZERO PUSH2 0x3A00 JUMPI POP PUSH1 0x40 MLOAD RETURNDATASIZE PUSH1 0x1F NOT PUSH1 0x1F DUP3 ADD AND DUP3 ADD DUP1 PUSH1 0x40 MSTORE POP DUP2 ADD SWAP1 PUSH2 0x39FD SWAP2 SWAP1 PUSH2 0x5BA0 JUMP JUMPDEST PUSH1 0x1 JUMPDEST PUSH2 0x3A81 JUMPI RETURNDATASIZE DUP1 PUSH0 DUP2 EQ PUSH2 0x3A2E JUMPI PUSH1 0x40 MLOAD SWAP2 POP PUSH1 0x1F NOT PUSH1 0x3F RETURNDATASIZE ADD AND DUP3 ADD PUSH1 0x40 MSTORE RETURNDATASIZE DUP3 MSTORE RETURNDATASIZE PUSH0 PUSH1 0x20 DUP5 ADD RETURNDATACOPY PUSH2 0x3A33 JUMP JUMPDEST PUSH1 0x60 SWAP2 POP JUMPDEST POP PUSH0 DUP2 MLOAD SUB PUSH2 0x3A79 JUMPI DUP5 PUSH1 0x40 MLOAD PUSH32 0x57F447CE00000000000000000000000000000000000000000000000000000000 DUP2 MSTORE PUSH1 0x4 ADD PUSH2 0x3A70 SWAP2 SWAP1 PUSH2 0x498B JUMP JUMPDEST PUSH1 0x40 MLOAD DUP1 SWAP2 SUB SWAP1 REVERT JUMPDEST DUP1 MLOAD DUP2 PUSH1 0x20 ADD REVERT JUMPDEST PUSH4 0xF23A6E61 PUSH1 0xE0 SHL PUSH28 0xFFFFFFFFFFFFFFFFFFFFFFFFFFFFFFFFFFFFFFFFFFFFFFFFFFFFFFFF NOT AND DUP2 PUSH28 0xFFFFFFFFFFFFFFFFFFFFFFFFFFFFFFFFFFFFFFFFFFFFFFFFFFFFFFFF NOT AND EQ PUSH2 0x3B0A JUMPI DUP5 PUSH1 0x40 MLOAD PUSH32 0x57F447CE00000000000000000000000000000000000000000000000000000000 DUP2 MSTORE PUSH1 0x4 ADD PUSH2 0x3B01 SWAP2 SWAP1 PUSH2 0x498B JUMP JUMPDEST PUSH1 0x40 MLOAD DUP1 SWAP2 SUB SWAP1 REVERT JUMPDEST POP JUMPDEST POP POP POP POP POP POP JUMP JUMPDEST PUSH0 DUP5 PUSH20 0xFFFFFFFFFFFFFFFFFFFFFFFFFFFFFFFFFFFFFFFF AND EXTCODESIZE GT ISZERO PUSH2 0x3CBB JUMPI DUP4 PUSH20 0xFFFFFFFFFFFFFFFFFFFFFFFFFFFFFFFFFFFFFFFF AND PUSH4 0xBC197C81 DUP8 DUP8 DUP7 DUP7 DUP7 PUSH1 0x40 MLOAD DUP7 PUSH4 0xFFFFFFFF AND PUSH1 0xE0 SHL DUP2 MSTORE PUSH1 0x4 ADD PUSH2 0x3B74 SWAP6 SWAP5 SWAP4 SWAP3 SWAP2 SWAP1 PUSH2 0x5BCB JUMP JUMPDEST PUSH1 0x20 PUSH1 0x40 MLOAD DUP1 DUP4 SUB DUP2 PUSH0 DUP8 GAS CALL SWAP3 POP POP POP DUP1 ISZERO PUSH2 0x3BAF JUMPI POP PUSH1 0x40 MLOAD RETURNDATASIZE PUSH1 0x1F NOT PUSH1 0x1F DUP3 ADD AND DUP3 ADD DUP1 PUSH1 0x40 MSTORE POP DUP2 ADD SWAP1 PUSH2 0x3BAC SWAP2 SWAP1 PUSH2 0x5BA0 JUMP JUMPDEST PUSH1 0x1 JUMPDEST PUSH2 0x3C30 JUMPI RETURNDATASIZE DUP1 PUSH0 DUP2 EQ PUSH2 0x3BDD JUMPI PUSH1 0x40 MLOAD SWAP2 POP PUSH1 0x1F NOT PUSH1 0x3F RETURNDATASIZE ADD AND DUP3 ADD PUSH1 0x40 MSTORE RETURNDATASIZE DUP3 MSTORE RETURNDATASIZE PUSH0 PUSH1 0x20 DUP5 ADD RETURNDATACOPY PUSH2 0x3BE2 JUMP JUMPDEST PUSH1 0x60 SWAP2 POP JUMPDEST POP PUSH0 DUP2 MLOAD SUB PUSH2 0x3C28 JUMPI DUP5 PUSH1 0x40 MLOAD PUSH32 0x57F447CE00000000000000000000000000000000000000000000000000000000 DUP2 MSTORE PUSH1 0x4 ADD PUSH2 0x3C1F SWAP2 SWAP1 PUSH2 0x498B JUMP JUMPDEST PUSH1 0x40 MLOAD DUP1 SWAP2 SUB SWAP1 REVERT JUMPDEST DUP1 MLOAD DUP2 PUSH1 0x20 ADD REVERT JUMPDEST PUSH4 0xBC197C81 PUSH1 0xE0 SHL PUSH28 0xFFFFFFFFFFFFFFFFFFFFFFFFFFFFFFFFFFFFFFFFFFFFFFFFFFFFFFFF NOT AND DUP2 PUSH28 0xFFFFFFFFFFFFFFFFFFFFFFFFFFFFFFFFFFFFFFFFFFFFFFFFFFFFFFFF NOT AND EQ PUSH2 0x3CB9 JUMPI DUP5 PUSH1 0x40 MLOAD PUSH32 0x57F447CE00000000000000000000000000000000000000000000000000000000 DUP2 MSTORE PUSH1 0x4 ADD PUSH2 0x3CB0 SWAP2 SWAP1 PUSH2 0x498B JUMP JUMPDEST PUSH1 0x40 MLOAD DUP1 SWAP2 SUB SWAP1 REVERT JUMPDEST POP JUMPDEST POP POP POP POP POP POP JUMP JUMPDEST PUSH0 DUP2 SWAP1 POP SWAP2 SWAP1 POP JUMP JUMPDEST PUSH0 DUP2 PUSH20 0xFFFFFFFFFFFFFFFFFFFFFFFFFFFFFFFFFFFFFFFF AND EXTCODESIZE SUB PUSH2 0x3D27 JUMPI DUP1 PUSH1 0x40 MLOAD PUSH32 0x4C9C8CE300000000000000000000000000000000000000000000000000000000 DUP2 MSTORE PUSH1 0x4 ADD PUSH2 0x3D1E SWAP2 SWAP1 PUSH2 0x498B JUMP JUMPDEST PUSH1 0x40 MLOAD DUP1 SWAP2 SUB SWAP1 REVERT JUMPDEST DUP1 PUSH2 0x3D53 PUSH32 0x360894A13BA1A3210667C828492DB98DCA3E2076CC3735A920A3CA505D382BBC PUSH0 SHL PUSH2 0x3CC3 JUMP JUMPDEST PUSH0 ADD PUSH0 PUSH2 0x100 EXP DUP2 SLOAD DUP2 PUSH20 0xFFFFFFFFFFFFFFFFFFFFFFFFFFFFFFFFFFFFFFFF MUL NOT AND SWAP1 DUP4 PUSH20 0xFFFFFFFFFFFFFFFFFFFFFFFFFFFFFFFFFFFFFFFF AND MUL OR SWAP1 SSTORE POP POP JUMP JUMPDEST PUSH1 0x60 PUSH0 DUP1 DUP5 PUSH20 0xFFFFFFFFFFFFFFFFFFFFFFFFFFFFFFFFFFFFFFFF AND DUP5 PUSH1 0x40 MLOAD PUSH2 0x3DBE SWAP2 SWAP1 PUSH2 0x5C6B JUMP JUMPDEST PUSH0 PUSH1 0x40 MLOAD DUP1 DUP4 SUB DUP2 DUP6 GAS DELEGATECALL SWAP2 POP POP RETURNDATASIZE DUP1 PUSH0 DUP2 EQ PUSH2 0x3DF6 JUMPI PUSH1 0x40 MLOAD SWAP2 POP PUSH1 0x1F NOT PUSH1 0x3F RETURNDATASIZE ADD AND DUP3 ADD PUSH1 0x40 MSTORE RETURNDATASIZE DUP3 MSTORE RETURNDATASIZE PUSH0 PUSH1 0x20 DUP5 ADD RETURNDATACOPY PUSH2 0x3DFB JUMP JUMPDEST PUSH1 0x60 SWAP2 POP JUMPDEST POP SWAP2 POP SWAP2 POP PUSH2 0x3E0B DUP6 DUP4 DUP4 PUSH2 0x3E90 JUMP JUMPDEST SWAP3 POP POP POP SWAP3 SWAP2 POP POP JUMP JUMPDEST PUSH0 CALLVALUE GT ISZERO PUSH2 0x3E4F JUMPI PUSH1 0x40 MLOAD PUSH32 0xB398979F00000000000000000000000000000000000000000000000000000000 DUP2 MSTORE PUSH1 0x4 ADD PUSH1 0x40 MLOAD DUP1 SWAP2 SUB SWAP1 REVERT JUMPDEST JUMP JUMPDEST PUSH0 PUSH2 0x3E5A PUSH2 0x2EA8 JUMP JUMPDEST PUSH0 ADD PUSH1 0x8 SWAP1 SLOAD SWAP1 PUSH2 0x100 EXP SWAP1 DIV PUSH1 0xFF AND SWAP1 POP SWAP1 JUMP JUMPDEST PUSH0 PUSH2 0x3E78 PUSH2 0x1C3D JUMP JUMPDEST SWAP1 POP DUP2 DUP2 PUSH1 0x2 ADD SWAP1 DUP2 PUSH2 0x3E8B SWAP2 SWAP1 PUSH2 0x5E15 JUMP JUMPDEST POP POP POP JUMP JUMPDEST PUSH1 0x60 DUP3 PUSH2 0x3EA5 JUMPI PUSH2 0x3EA0 DUP3 PUSH2 0x3F1D JUMP JUMPDEST PUSH2 0x3F15 JUMP JUMPDEST PUSH0 DUP3 MLOAD EQ DUP1 ISZERO PUSH2 0x3ECB JUMPI POP PUSH0 DUP5 PUSH20 0xFFFFFFFFFFFFFFFFFFFFFFFFFFFFFFFFFFFFFFFF AND EXTCODESIZE EQ JUMPDEST ISZERO PUSH2 0x3F0D JUMPI DUP4 PUSH1 0x40 MLOAD PUSH32 0x9996B31500000000000000000000000000000000000000000000000000000000 DUP2 MSTORE PUSH1 0x4 ADD PUSH2 0x3F04 SWAP2 SWAP1 PUSH2 0x498B JUMP JUMPDEST PUSH1 0x40 MLOAD DUP1 SWAP2 SUB SWAP1 REVERT JUMPDEST DUP2 SWAP1 POP PUSH2 0x3F16 JUMP JUMPDEST JUMPDEST SWAP4 SWAP3 POP POP POP JUMP JUMPDEST PUSH0 DUP2 MLOAD GT ISZERO PUSH2 0x3F2F JUMPI DUP1 MLOAD DUP1 DUP3 PUSH1 0x20 ADD REVERT JUMPDEST PUSH1 0x40 MLOAD PUSH32 0x1425EA4200000000000000000000000000000000000000000000000000000000 DUP2 MSTORE PUSH1 0x4 ADD PUSH1 0x40 MLOAD DUP1 SWAP2 SUB SWAP1 REVERT JUMPDEST DUP3 DUP1 SLOAD DUP3 DUP3 SSTORE SWAP1 PUSH0 MSTORE PUSH1 0x20 PUSH0 KECCAK256 SWAP1 DUP2 ADD SWAP3 DUP3 ISZERO PUSH2 0x3F9B JUMPI SWAP2 PUSH1 0x20 MUL DUP3 ADD JUMPDEST DUP3 DUP2 GT ISZERO PUSH2 0x3F9A JUMPI DUP3 MLOAD DUP3 SSTORE SWAP2 PUSH1 0x20 ADD SWAP2 SWAP1 PUSH1 0x1 ADD SWAP1 PUSH2 0x3F7F JUMP JUMPDEST JUMPDEST POP SWAP1 POP PUSH2 0x3FA8 SWAP2 SWAP1 PUSH2 0x3FFC JUMP JUMPDEST POP SWAP1 JUMP JUMPDEST DUP3 DUP1 SLOAD DUP3 DUP3 SSTORE SWAP1 PUSH0 MSTORE PUSH1 0x20 PUSH0 KECCAK256 SWAP1 DUP2 ADD SWAP3 DUP3 ISZERO PUSH2 0x3FEB JUMPI SWAP2 PUSH1 0x20 MUL DUP3 ADD JUMPDEST DUP3 DUP2 GT ISZERO PUSH2 0x3FEA JUMPI DUP3 MLOAD DUP3 SWAP1 PUSH1 0xFF AND SWAP1 SSTORE SWAP2 PUSH1 0x20 ADD SWAP2 SWAP1 PUSH1 0x1 ADD SWAP1 PUSH2 0x3FCA JUMP JUMPDEST JUMPDEST POP SWAP1 POP PUSH2 0x3FF8 SWAP2 SWAP1 PUSH2 0x3FFC JUMP JUMPDEST POP SWAP1 JUMP JUMPDEST JUMPDEST DUP1 DUP3 GT ISZERO PUSH2 0x4013 JUMPI PUSH0 DUP2 PUSH0 SWAP1 SSTORE POP PUSH1 0x1 ADD PUSH2 0x3FFD JUMP JUMPDEST POP SWAP1 JUMP JUMPDEST PUSH0 PUSH1 0x40 MLOAD SWAP1 POP SWAP1 JUMP JUMPDEST PUSH0 DUP1 REVERT JUMPDEST PUSH0 DUP1 REVERT JUMPDEST PUSH0 PUSH20 0xFFFFFFFFFFFFFFFFFFFFFFFFFFFFFFFFFFFFFFFF DUP3 AND SWAP1 POP SWAP2 SWAP1 POP JUMP JUMPDEST PUSH0 PUSH2 0x4051 DUP3 PUSH2 0x4028 JUMP JUMPDEST SWAP1 POP SWAP2 SWAP1 POP JUMP JUMPDEST PUSH2 0x4061 DUP2 PUSH2 0x4047 JUMP JUMPDEST DUP2 EQ PUSH2 0x406B JUMPI PUSH0 DUP1 REVERT JUMPDEST POP JUMP JUMPDEST PUSH0 DUP2 CALLDATALOAD SWAP1 POP PUSH2 0x407C DUP2 PUSH2 0x4058 JUMP JUMPDEST SWAP3 SWAP2 POP POP JUMP JUMPDEST PUSH0 DUP2 SWAP1 POP SWAP2 SWAP1 POP JUMP JUMPDEST PUSH2 0x4094 DUP2 PUSH2 0x4082 JUMP JUMPDEST DUP2 EQ PUSH2 0x409E JUMPI PUSH0 DUP1 REVERT JUMPDEST POP JUMP JUMPDEST PUSH0 DUP2 CALLDATALOAD SWAP1 POP PUSH2 0x40AF DUP2 PUSH2 0x408B JUMP JUMPDEST SWAP3 SWAP2 POP POP JUMP JUMPDEST PUSH0 DUP1 PUSH1 0x40 DUP4 DUP6 SUB SLT ISZERO PUSH2 0x40CB JUMPI PUSH2 0x40CA PUSH2 0x4020 JUMP JUMPDEST JUMPDEST PUSH0 PUSH2 0x40D8 DUP6 DUP3 DUP7 ADD PUSH2 0x406E JUMP JUMPDEST SWAP3 POP POP PUSH1 0x20 PUSH2 0x40E9 DUP6 DUP3 DUP7 ADD PUSH2 0x40A1 JUMP JUMPDEST SWAP2 POP POP SWAP3 POP SWAP3 SWAP1 POP JUMP JUMPDEST PUSH2 0x40FC DUP2 PUSH2 0x4082 JUMP JUMPDEST DUP3 MSTORE POP POP JUMP JUMPDEST PUSH0 PUSH1 0x20 DUP3 ADD SWAP1 POP PUSH2 0x4115 PUSH0 DUP4 ADD DUP5 PUSH2 0x40F3 JUMP JUMPDEST SWAP3 SWAP2 POP POP JUMP JUMPDEST PUSH0 PUSH32 0xFFFFFFFF00000000000000000000000000000000000000000000000000000000 DUP3 AND SWAP1 POP SWAP2 SWAP1 POP JUMP JUMPDEST PUSH2 0x414F DUP2 PUSH2 0x411B JUMP JUMPDEST DUP2 EQ PUSH2 0x4159 JUMPI PUSH0 DUP1 REVERT JUMPDEST POP JUMP JUMPDEST PUSH0 DUP2 CALLDATALOAD SWAP1 POP PUSH2 0x416A DUP2 PUSH2 0x4146 JUMP JUMPDEST SWAP3 SWAP2 POP POP JUMP JUMPDEST PUSH0 PUSH1 0x20 DUP3 DUP5 SUB SLT ISZERO PUSH2 0x4185 JUMPI PUSH2 0x4184 PUSH2 0x4020 JUMP JUMPDEST JUMPDEST PUSH0 PUSH2 0x4192 DUP5 DUP3 DUP6 ADD PUSH2 0x415C JUMP JUMPDEST SWAP2 POP POP SWAP3 SWAP2 POP POP JUMP JUMPDEST PUSH0 DUP2 ISZERO ISZERO SWAP1 POP SWAP2 SWAP1 POP JUMP JUMPDEST PUSH2 0x41AF DUP2 PUSH2 0x419B JUMP JUMPDEST DUP3 MSTORE POP POP JUMP JUMPDEST PUSH0 PUSH1 0x20 DUP3 ADD SWAP1 POP PUSH2 0x41C8 PUSH0 DUP4 ADD DUP5 PUSH2 0x41A6 JUMP JUMPDEST SWAP3 SWAP2 POP POP JUMP JUMPDEST PUSH0 DUP2 SWAP1 POP SWAP2 SWAP1 POP JUMP JUMPDEST PUSH0 PUSH2 0x41F1 PUSH2 0x41EC PUSH2 0x41E7 DUP5 PUSH2 0x4028 JUMP JUMPDEST PUSH2 0x41CE JUMP JUMPDEST PUSH2 0x4028 JUMP JUMPDEST SWAP1 POP SWAP2 SWAP1 POP JUMP JUMPDEST PUSH0 PUSH2 0x4202 DUP3 PUSH2 0x41D7 JUMP JUMPDEST SWAP1 POP SWAP2 SWAP1 POP JUMP JUMPDEST PUSH0 PUSH2 0x4213 DUP3 PUSH2 0x41F8 JUMP JUMPDEST SWAP1 POP SWAP2 SWAP1 POP JUMP JUMPDEST PUSH2 0x4223 DUP2 PUSH2 0x4209 JUMP JUMPDEST DUP3 MSTORE POP POP JUMP JUMPDEST PUSH0 PUSH1 0x20 DUP3 ADD SWAP1 POP PUSH2 0x423C PUSH0 DUP4 ADD DUP5 PUSH2 0x421A JUMP JUMPDEST SWAP3 SWAP2 POP POP JUMP JUMPDEST PUSH0 PUSH2 0x424C DUP3 PUSH2 0x41F8 JUMP JUMPDEST SWAP1 POP SWAP2 SWAP1 POP JUMP JUMPDEST PUSH2 0x425C DUP2 PUSH2 0x4242 JUMP JUMPDEST DUP3 MSTORE POP POP JUMP JUMPDEST PUSH0 PUSH1 0x20 DUP3 ADD SWAP1 POP PUSH2 0x4275 PUSH0 DUP4 ADD DUP5 PUSH2 0x4253 JUMP JUMPDEST SWAP3 SWAP2 POP POP JUMP JUMPDEST PUSH0 PUSH1 0x20 DUP3 DUP5 SUB SLT ISZERO PUSH2 0x4290 JUMPI PUSH2 0x428F PUSH2 0x4020 JUMP JUMPDEST JUMPDEST PUSH0 PUSH2 0x429D DUP5 DUP3 DUP6 ADD PUSH2 0x40A1 JUMP JUMPDEST SWAP2 POP POP SWAP3 SWAP2 POP POP JUMP JUMPDEST PUSH0 DUP2 MLOAD SWAP1 POP SWAP2 SWAP1 POP JUMP JUMPDEST PUSH0 DUP3 DUP3 MSTORE PUSH1 0x20 DUP3 ADD SWAP1 POP SWAP3 SWAP2 POP POP JUMP JUMPDEST DUP3 DUP2 DUP4 MCOPY PUSH0 DUP4 DUP4 ADD MSTORE POP POP POP JUMP JUMPDEST PUSH0 PUSH1 0x1F NOT PUSH1 0x1F DUP4 ADD AND SWAP1 POP SWAP2 SWAP1 POP JUMP JUMPDEST PUSH0 PUSH2 0x42E8 DUP3 PUSH2 0x42A6 JUMP JUMPDEST PUSH2 0x42F2 DUP2 DUP6 PUSH2 0x42B0 JUMP JUMPDEST SWAP4 POP PUSH2 0x4302 DUP2 DUP6 PUSH1 0x20 DUP7 ADD PUSH2 0x42C0 JUMP JUMPDEST PUSH2 0x430B DUP2 PUSH2 0x42CE JUMP JUMPDEST DUP5 ADD SWAP2 POP POP SWAP3 SWAP2 POP POP JUMP JUMPDEST PUSH0 PUSH1 0x20 DUP3 ADD SWAP1 POP DUP2 DUP2 SUB PUSH0 DUP4 ADD MSTORE PUSH2 0x432E DUP2 DUP5 PUSH2 0x42DE JUMP JUMPDEST SWAP1 POP SWAP3 SWAP2 POP POP JUMP JUMPDEST PUSH0 DUP1 PUSH0 PUSH1 0x60 DUP5 DUP7 SUB SLT ISZERO PUSH2 0x434D JUMPI PUSH2 0x434C PUSH2 0x4020 JUMP JUMPDEST JUMPDEST PUSH0 PUSH2 0x435A DUP7 DUP3 DUP8 ADD PUSH2 0x40A1 JUMP JUMPDEST SWAP4 POP POP PUSH1 0x20 PUSH2 0x436B DUP7 DUP3 DUP8 ADD PUSH2 0x40A1 JUMP JUMPDEST SWAP3 POP POP PUSH1 0x40 PUSH2 0x437C DUP7 DUP3 DUP8 ADD PUSH2 0x40A1 JUMP JUMPDEST SWAP2 POP POP SWAP3 POP SWAP3 POP SWAP3 JUMP JUMPDEST PUSH0 DUP1 REVERT JUMPDEST PUSH32 0x4E487B7100000000000000000000000000000000000000000000000000000000 PUSH0 MSTORE PUSH1 0x41 PUSH1 0x4 MSTORE PUSH1 0x24 PUSH0 REVERT JUMPDEST PUSH2 0x43C0 DUP3 PUSH2 0x42CE JUMP JUMPDEST DUP2 ADD DUP2 DUP2 LT PUSH8 0xFFFFFFFFFFFFFFFF DUP3 GT OR ISZERO PUSH2 0x43DF JUMPI PUSH2 0x43DE PUSH2 0x438A JUMP JUMPDEST JUMPDEST DUP1 PUSH1 0x40 MSTORE POP POP POP JUMP JUMPDEST PUSH0 PUSH2 0x43F1 PUSH2 0x4017 JUMP JUMPDEST SWAP1 POP PUSH2 0x43FD DUP3 DUP3 PUSH2 0x43B7 JUMP JUMPDEST SWAP2 SWAP1 POP JUMP JUMPDEST PUSH0 PUSH8 0xFFFFFFFFFFFFFFFF DUP3 GT ISZERO PUSH2 0x441C JUMPI PUSH2 0x441B PUSH2 0x438A JUMP JUMPDEST JUMPDEST PUSH1 0x20 DUP3 MUL SWAP1 POP PUSH1 0x20 DUP2 ADD SWAP1 POP SWAP2 SWAP1 POP JUMP JUMPDEST PUSH0 DUP1 REVERT JUMPDEST PUSH0 PUSH2 0x4443 PUSH2 0x443E DUP5 PUSH2 0x4402 JUMP JUMPDEST PUSH2 0x43E8 JUMP JUMPDEST SWAP1 POP DUP1 DUP4 DUP3 MSTORE PUSH1 0x20 DUP3 ADD SWAP1 POP PUSH1 0x20 DUP5 MUL DUP4 ADD DUP6 DUP2 GT ISZERO PUSH2 0x4466 JUMPI PUSH2 0x4465 PUSH2 0x442D JUMP JUMPDEST JUMPDEST DUP4 JUMPDEST DUP2 DUP2 LT ISZERO PUSH2 0x448F JUMPI DUP1 PUSH2 0x447B DUP9 DUP3 PUSH2 0x40A1 JUMP JUMPDEST DUP5 MSTORE PUSH1 0x20 DUP5 ADD SWAP4 POP POP PUSH1 0x20 DUP2 ADD SWAP1 POP PUSH2 0x4468 JUMP JUMPDEST POP POP POP SWAP4 SWAP3 POP POP POP JUMP JUMPDEST PUSH0 DUP3 PUSH1 0x1F DUP4 ADD SLT PUSH2 0x44AD JUMPI PUSH2 0x44AC PUSH2 0x4386 JUMP JUMPDEST JUMPDEST DUP2 CALLDATALOAD PUSH2 0x44BD DUP5 DUP3 PUSH1 0x20 DUP7 ADD PUSH2 0x4431 JUMP JUMPDEST SWAP2 POP POP SWAP3 SWAP2 POP POP JUMP JUMPDEST PUSH0 DUP1 REVERT JUMPDEST PUSH0 PUSH8 0xFFFFFFFFFFFFFFFF DUP3 GT ISZERO PUSH2 0x44E4 JUMPI PUSH2 0x44E3 PUSH2 0x438A JUMP JUMPDEST JUMPDEST PUSH2 0x44ED DUP3 PUSH2 0x42CE JUMP JUMPDEST SWAP1 POP PUSH1 0x20 DUP2 ADD SWAP1 POP SWAP2 SWAP1 POP JUMP JUMPDEST DUP3 DUP2 DUP4 CALLDATACOPY PUSH0 DUP4 DUP4 ADD MSTORE POP POP POP JUMP JUMPDEST PUSH0 PUSH2 0x451A PUSH2 0x4515 DUP5 PUSH2 0x44CA JUMP JUMPDEST PUSH2 0x43E8 JUMP JUMPDEST SWAP1 POP DUP3 DUP2 MSTORE PUSH1 0x20 DUP2 ADD DUP5 DUP5 DUP5 ADD GT ISZERO PUSH2 0x4536 JUMPI PUSH2 0x4535 PUSH2 0x44C6 JUMP JUMPDEST JUMPDEST PUSH2 0x4541 DUP5 DUP3 DUP6 PUSH2 0x44FA JUMP JUMPDEST POP SWAP4 SWAP3 POP POP POP JUMP JUMPDEST PUSH0 DUP3 PUSH1 0x1F DUP4 ADD SLT PUSH2 0x455D JUMPI PUSH2 0x455C PUSH2 0x4386 JUMP JUMPDEST JUMPDEST DUP2 CALLDATALOAD PUSH2 0x456D DUP5 DUP3 PUSH1 0x20 DUP7 ADD PUSH2 0x4508 JUMP JUMPDEST SWAP2 POP POP SWAP3 SWAP2 POP POP JUMP JUMPDEST PUSH0 DUP1 PUSH0 DUP1 PUSH0 PUSH1 0xA0 DUP7 DUP9 SUB SLT ISZERO PUSH2 0x458F JUMPI PUSH2 0x458E PUSH2 0x4020 JUMP JUMPDEST JUMPDEST PUSH0 PUSH2 0x459C DUP9 DUP3 DUP10 ADD PUSH2 0x406E JUMP JUMPDEST SWAP6 POP POP PUSH1 0x20 PUSH2 0x45AD DUP9 DUP3 DUP10 ADD PUSH2 0x406E JUMP JUMPDEST SWAP5 POP POP PUSH1 0x40 DUP7 ADD CALLDATALOAD PUSH8 0xFFFFFFFFFFFFFFFF DUP2 GT ISZERO PUSH2 0x45CE JUMPI PUSH2 0x45CD PUSH2 0x4024 JUMP JUMPDEST JUMPDEST PUSH2 0x45DA DUP9 DUP3 DUP10 ADD PUSH2 0x4499 JUMP JUMPDEST SWAP4 POP POP PUSH1 0x60 DUP7 ADD CALLDATALOAD PUSH8 0xFFFFFFFFFFFFFFFF DUP2 GT ISZERO PUSH2 0x45FB JUMPI PUSH2 0x45FA PUSH2 0x4024 JUMP JUMPDEST JUMPDEST PUSH2 0x4607 DUP9 DUP3 DUP10 ADD PUSH2 0x4499 JUMP JUMPDEST SWAP3 POP POP PUSH1 0x80 DUP7 ADD CALLDATALOAD PUSH8 0xFFFFFFFFFFFFFFFF DUP2 GT ISZERO PUSH2 0x4628 JUMPI PUSH2 0x4627 PUSH2 0x4024 JUMP JUMPDEST JUMPDEST PUSH2 0x4634 DUP9 DUP3 DUP10 ADD PUSH2 0x4549 JUMP JUMPDEST SWAP2 POP POP SWAP3 SWAP6 POP SWAP3 SWAP6 SWAP1 SWAP4 POP JUMP JUMPDEST PUSH0 DUP1 PUSH1 0x40 DUP4 DUP6 SUB SLT ISZERO PUSH2 0x4657 JUMPI PUSH2 0x4656 PUSH2 0x4020 JUMP JUMPDEST JUMPDEST PUSH0 PUSH2 0x4664 DUP6 DUP3 DUP7 ADD PUSH2 0x40A1 JUMP JUMPDEST SWAP3 POP POP PUSH1 0x20 PUSH2 0x4675 DUP6 DUP3 DUP7 ADD PUSH2 0x40A1 JUMP JUMPDEST SWAP2 POP POP SWAP3 POP SWAP3 SWAP1 POP JUMP JUMPDEST PUSH0 PUSH8 0xFFFFFFFFFFFFFFFF DUP3 GT ISZERO PUSH2 0x4699 JUMPI PUSH2 0x4698 PUSH2 0x438A JUMP JUMPDEST JUMPDEST PUSH1 0x20 DUP3 MUL SWAP1 POP PUSH1 0x20 DUP2 ADD SWAP1 POP SWAP2 SWAP1 POP JUMP JUMPDEST PUSH0 PUSH2 0x46BC PUSH2 0x46B7 DUP5 PUSH2 0x467F JUMP JUMPDEST PUSH2 0x43E8 JUMP JUMPDEST SWAP1 POP DUP1 DUP4 DUP3 MSTORE PUSH1 0x20 DUP3 ADD SWAP1 POP PUSH1 0x20 DUP5 MUL DUP4 ADD DUP6 DUP2 GT ISZERO PUSH2 0x46DF JUMPI PUSH2 0x46DE PUSH2 0x442D JUMP JUMPDEST JUMPDEST DUP4 JUMPDEST DUP2 DUP2 LT ISZERO PUSH2 0x4708 JUMPI DUP1 PUSH2 0x46F4 DUP9 DUP3 PUSH2 0x406E JUMP JUMPDEST DUP5 MSTORE PUSH1 0x20 DUP5 ADD SWAP4 POP POP PUSH1 0x20 DUP2 ADD SWAP1 POP PUSH2 0x46E1 JUMP JUMPDEST POP POP POP SWAP4 SWAP3 POP POP POP JUMP JUMPDEST PUSH0 DUP3 PUSH1 0x1F DUP4 ADD SLT PUSH2 0x4726 JUMPI PUSH2 0x4725 PUSH2 0x4386 JUMP JUMPDEST JUMPDEST DUP2 CALLDATALOAD PUSH2 0x4736 DUP5 DUP3 PUSH1 0x20 DUP7 ADD PUSH2 0x46AA JUMP JUMPDEST SWAP2 POP POP SWAP3 SWAP2 POP POP JUMP JUMPDEST PUSH0 DUP1 PUSH1 0x40 DUP4 DUP6 SUB SLT ISZERO PUSH2 0x4755 JUMPI PUSH2 0x4754 PUSH2 0x4020 JUMP JUMPDEST JUMPDEST PUSH0 DUP4 ADD CALLDATALOAD PUSH8 0xFFFFFFFFFFFFFFFF DUP2 GT ISZERO PUSH2 0x4772 JUMPI PUSH2 0x4771 PUSH2 0x4024 JUMP JUMPDEST JUMPDEST PUSH2 0x477E DUP6 DUP3 DUP7 ADD PUSH2 0x4712 JUMP JUMPDEST SWAP3 POP POP PUSH1 0x20 DUP4 ADD CALLDATALOAD PUSH8 0xFFFFFFFFFFFFFFFF DUP2 GT ISZERO PUSH2 0x479F JUMPI PUSH2 0x479E PUSH2 0x4024 JUMP JUMPDEST JUMPDEST PUSH2 0x47AB DUP6 DUP3 DUP7 ADD PUSH2 0x4499 JUMP JUMPDEST SWAP2 POP POP SWAP3 POP SWAP3 SWAP1 POP JUMP JUMPDEST PUSH0 DUP2 MLOAD SWAP1 POP SWAP2 SWAP1 POP JUMP JUMPDEST PUSH0 DUP3 DUP3 MSTORE PUSH1 0x20 DUP3 ADD SWAP1 POP SWAP3 SWAP2 POP POP JUMP JUMPDEST PUSH0 DUP2 SWAP1 POP PUSH1 0x20 DUP3 ADD SWAP1 POP SWAP2 SWAP1 POP JUMP JUMPDEST PUSH2 0x47E7 DUP2 PUSH2 0x4082 JUMP JUMPDEST DUP3 MSTORE POP POP JUMP JUMPDEST PUSH0 PUSH2 0x47F8 DUP4 DUP4 PUSH2 0x47DE JUMP JUMPDEST PUSH1 0x20 DUP4 ADD SWAP1 POP SWAP3 SWAP2 POP POP JUMP JUMPDEST PUSH0 PUSH1 0x20 DUP3 ADD SWAP1 POP SWAP2 SWAP1 POP JUMP JUMPDEST PUSH0 PUSH2 0x481A DUP3 PUSH2 0x47B5 JUMP JUMPDEST PUSH2 0x4824 DUP2 DUP6 PUSH2 0x47BF JUMP JUMPDEST SWAP4 POP PUSH2 0x482F DUP4 PUSH2 0x47CF JUMP JUMPDEST DUP1 PUSH0 JUMPDEST DUP4 DUP2 LT ISZERO PUSH2 0x485F JUMPI DUP2 MLOAD PUSH2 0x4846 DUP9 DUP3 PUSH2 0x47ED JUMP JUMPDEST SWAP8 POP PUSH2 0x4851 DUP4 PUSH2 0x4804 JUMP JUMPDEST SWAP3 POP POP PUSH1 0x1 DUP2 ADD SWAP1 POP PUSH2 0x4832 JUMP JUMPDEST POP DUP6 SWAP4 POP POP POP POP SWAP3 SWAP2 POP POP JUMP JUMPDEST PUSH0 PUSH1 0x20 DUP3 ADD SWAP1 POP DUP2 DUP2 SUB PUSH0 DUP4 ADD MSTORE PUSH2 0x4884 DUP2 DUP5 PUSH2 0x4810 JUMP JUMPDEST SWAP1 POP SWAP3 SWAP2 POP POP JUMP JUMPDEST PUSH0 DUP1 PUSH1 0x40 DUP4 DUP6 SUB SLT ISZERO PUSH2 0x48A2 JUMPI PUSH2 0x48A1 PUSH2 0x4020 JUMP JUMPDEST JUMPDEST PUSH0 PUSH2 0x48AF DUP6 DUP3 DUP7 ADD PUSH2 0x406E JUMP JUMPDEST SWAP3 POP POP PUSH1 0x20 DUP4 ADD CALLDATALOAD PUSH8 0xFFFFFFFFFFFFFFFF DUP2 GT ISZERO PUSH2 0x48D0 JUMPI PUSH2 0x48CF PUSH2 0x4024 JUMP JUMPDEST JUMPDEST PUSH2 0x48DC DUP6 DUP3 DUP7 ADD PUSH2 0x4549 JUMP JUMPDEST SWAP2 POP POP SWAP3 POP SWAP3 SWAP1 POP JUMP JUMPDEST PUSH0 DUP2 SWAP1 POP SWAP2 SWAP1 POP JUMP JUMPDEST PUSH2 0x48F8 DUP2 PUSH2 0x48E6 JUMP JUMPDEST DUP3 MSTORE POP POP JUMP JUMPDEST PUSH0 PUSH1 0x20 DUP3 ADD SWAP1 POP PUSH2 0x4911 PUSH0 DUP4 ADD DUP5 PUSH2 0x48EF JUMP JUMPDEST SWAP3 SWAP2 POP POP JUMP JUMPDEST PUSH0 DUP1 PUSH1 0x40 DUP4 DUP6 SUB SLT ISZERO PUSH2 0x492D JUMPI PUSH2 0x492C PUSH2 0x4020 JUMP JUMPDEST JUMPDEST PUSH0 PUSH2 0x493A DUP6 DUP3 DUP7 ADD PUSH2 0x40A1 JUMP JUMPDEST SWAP3 POP POP PUSH1 0x20 PUSH2 0x494B DUP6 DUP3 DUP7 ADD PUSH2 0x406E JUMP JUMPDEST SWAP2 POP POP SWAP3 POP SWAP3 SWAP1 POP JUMP JUMPDEST PUSH0 PUSH1 0x40 DUP3 ADD SWAP1 POP PUSH2 0x4968 PUSH0 DUP4 ADD DUP6 PUSH2 0x40F3 JUMP JUMPDEST PUSH2 0x4975 PUSH1 0x20 DUP4 ADD DUP5 PUSH2 0x41A6 JUMP JUMPDEST SWAP4 SWAP3 POP POP POP JUMP JUMPDEST PUSH2 0x4985 DUP2 PUSH2 0x4047 JUMP JUMPDEST DUP3 MSTORE POP POP JUMP JUMPDEST PUSH0 PUSH1 0x20 DUP3 ADD SWAP1 POP PUSH2 0x499E PUSH0 DUP4 ADD DUP5 PUSH2 0x497C JUMP JUMPDEST SWAP3 SWAP2 POP POP JUMP JUMPDEST PUSH2 0x49AD DUP2 PUSH2 0x419B JUMP JUMPDEST DUP2 EQ PUSH2 0x49B7 JUMPI PUSH0 DUP1 REVERT JUMPDEST POP JUMP JUMPDEST PUSH0 DUP2 CALLDATALOAD SWAP1 POP PUSH2 0x49C8 DUP2 PUSH2 0x49A4 JUMP JUMPDEST SWAP3 SWAP2 POP POP JUMP JUMPDEST PUSH0 DUP1 PUSH1 0x40 DUP4 DUP6 SUB SLT ISZERO PUSH2 0x49E4 JUMPI PUSH2 0x49E3 PUSH2 0x4020 JUMP JUMPDEST JUMPDEST PUSH0 PUSH2 0x49F1 DUP6 DUP3 DUP7 ADD PUSH2 0x406E JUMP JUMPDEST SWAP3 POP POP PUSH1 0x20 PUSH2 0x4A02 DUP6 DUP3 DUP7 ADD PUSH2 0x49BA JUMP JUMPDEST SWAP2 POP POP SWAP3 POP SWAP3 SWAP1 POP JUMP JUMPDEST PUSH0 DUP1 PUSH0 PUSH1 0x60 DUP5 DUP7 SUB SLT ISZERO PUSH2 0x4A23 JUMPI PUSH2 0x4A22 PUSH2 0x4020 JUMP JUMPDEST JUMPDEST PUSH0 PUSH2 0x4A30 DUP7 DUP3 DUP8 ADD PUSH2 0x406E JUMP JUMPDEST SWAP4 POP POP PUSH1 0x20 PUSH2 0x4A41 DUP7 DUP3 DUP8 ADD PUSH2 0x406E JUMP JUMPDEST SWAP3 POP POP PUSH1 0x40 PUSH2 0x4A52 DUP7 DUP3 DUP8 ADD PUSH2 0x406E JUMP JUMPDEST SWAP2 POP POP SWAP3 POP SWAP3 POP SWAP3 JUMP JUMPDEST PUSH0 DUP1 PUSH0 DUP1 PUSH1 0x80 DUP6 DUP8 SUB SLT ISZERO PUSH2 0x4A74 JUMPI PUSH2 0x4A73 PUSH2 0x4020 JUMP JUMPDEST JUMPDEST PUSH0 PUSH2 0x4A81 DUP8 DUP3 DUP9 ADD PUSH2 0x40A1 JUMP JUMPDEST SWAP5 POP POP PUSH1 0x20 PUSH2 0x4A92 DUP8 DUP3 DUP9 ADD PUSH2 0x40A1 JUMP JUMPDEST SWAP4 POP POP PUSH1 0x40 PUSH2 0x4AA3 DUP8 DUP3 DUP9 ADD PUSH2 0x40A1 JUMP JUMPDEST SWAP3 POP POP PUSH1 0x60 DUP6 ADD CALLDATALOAD PUSH8 0xFFFFFFFFFFFFFFFF DUP2 GT ISZERO PUSH2 0x4AC4 JUMPI PUSH2 0x4AC3 PUSH2 0x4024 JUMP JUMPDEST JUMPDEST PUSH2 0x4AD0 DUP8 DUP3 DUP9 ADD PUSH2 0x4499 JUMP JUMPDEST SWAP2 POP POP SWAP3 SWAP6 SWAP2 SWAP5 POP SWAP3 POP JUMP JUMPDEST PUSH0 PUSH1 0x20 DUP3 DUP5 SUB SLT ISZERO PUSH2 0x4AF1 JUMPI PUSH2 0x4AF0 PUSH2 0x4020 JUMP JUMPDEST JUMPDEST PUSH0 PUSH2 0x4AFE DUP5 DUP3 DUP6 ADD PUSH2 0x406E JUMP JUMPDEST SWAP2 POP POP SWAP3 SWAP2 POP POP JUMP JUMPDEST PUSH0 PUSH2 0x4B11 DUP3 PUSH2 0x41F8 JUMP JUMPDEST SWAP1 POP SWAP2 SWAP1 POP JUMP JUMPDEST PUSH2 0x4B21 DUP2 PUSH2 0x4B07 JUMP JUMPDEST DUP3 MSTORE POP POP JUMP JUMPDEST PUSH0 PUSH1 0x20 DUP3 ADD SWAP1 POP PUSH2 0x4B3A PUSH0 DUP4 ADD DUP5 PUSH2 0x4B18 JUMP JUMPDEST SWAP3 SWAP2 POP POP JUMP JUMPDEST PUSH0 DUP1 PUSH1 0x40 DUP4 DUP6 SUB SLT ISZERO PUSH2 0x4B56 JUMPI PUSH2 0x4B55 PUSH2 0x4020 JUMP JUMPDEST JUMPDEST PUSH0 PUSH2 0x4B63 DUP6 DUP3 DUP7 ADD PUSH2 0x406E JUMP JUMPDEST SWAP3 POP POP PUSH1 0x20 PUSH2 0x4B74 DUP6 DUP3 DUP7 ADD PUSH2 0x406E JUMP JUMPDEST SWAP2 POP POP SWAP3 POP SWAP3 SWAP1 POP JUMP JUMPDEST PUSH0 DUP1 PUSH0 DUP1 PUSH0 PUSH1 0xA0 DUP7 DUP9 SUB SLT ISZERO PUSH2 0x4B97 JUMPI PUSH2 0x4B96 PUSH2 0x4020 JUMP JUMPDEST JUMPDEST PUSH0 PUSH2 0x4BA4 DUP9 DUP3 DUP10 ADD PUSH2 0x406E JUMP JUMPDEST SWAP6 POP POP PUSH1 0x20 PUSH2 0x4BB5 DUP9 DUP3 DUP10 ADD PUSH2 0x406E JUMP JUMPDEST SWAP5 POP POP PUSH1 0x40 PUSH2 0x4BC6 DUP9 DUP3 DUP10 ADD PUSH2 0x40A1 JUMP JUMPDEST SWAP4 POP POP PUSH1 0x60 PUSH2 0x4BD7 DUP9 DUP3 DUP10 ADD PUSH2 0x40A1 JUMP JUMPDEST SWAP3 POP POP PUSH1 0x80 DUP7 ADD CALLDATALOAD PUSH8 0xFFFFFFFFFFFFFFFF DUP2 GT ISZERO PUSH2 0x4BF8 JUMPI PUSH2 0x4BF7 PUSH2 0x4024 JUMP JUMPDEST JUMPDEST PUSH2 0x4C04 DUP9 DUP3 DUP10 ADD PUSH2 0x4549 JUMP JUMPDEST SWAP2 POP POP SWAP3 SWAP6 POP SWAP3 SWAP6 SWAP1 SWAP4 POP JUMP JUMPDEST PUSH32 0x4E487B7100000000000000000000000000000000000000000000000000000000 PUSH0 MSTORE PUSH1 0x22 PUSH1 0x4 MSTORE PUSH1 0x24 PUSH0 REVERT JUMPDEST PUSH0 PUSH1 0x2 DUP3 DIV SWAP1 POP PUSH1 0x1 DUP3 AND DUP1 PUSH2 0x4C55 JUMPI PUSH1 0x7F DUP3 AND SWAP2 POP JUMPDEST PUSH1 0x20 DUP3 LT DUP2 SUB PUSH2 0x4C68 JUMPI PUSH2 0x4C67 PUSH2 0x4C11 JUMP JUMPDEST JUMPDEST POP SWAP2 SWAP1 POP JUMP JUMPDEST PUSH0 PUSH1 0x40 DUP3 ADD SWAP1 POP PUSH2 0x4C81 PUSH0 DUP4 ADD DUP6 PUSH2 0x40F3 JUMP JUMPDEST PUSH2 0x4C8E PUSH1 0x20 DUP4 ADD DUP5 PUSH2 0x40F3 JUMP JUMPDEST SWAP4 SWAP3 POP POP POP JUMP JUMPDEST PUSH0 PUSH8 0xFFFFFFFFFFFFFFFF DUP3 GT ISZERO PUSH2 0x4CAF JUMPI PUSH2 0x4CAE PUSH2 0x438A JUMP JUMPDEST JUMPDEST PUSH1 0x20 DUP3 MUL SWAP1 POP PUSH1 0x20 DUP2 ADD SWAP1 POP SWAP2 SWAP1 POP JUMP JUMPDEST PUSH0 DUP1 REVERT JUMPDEST PUSH0 DUP1 REVERT JUMPDEST PUSH0 DUP2 MLOAD SWAP1 POP PUSH2 0x4CD6 DUP2 PUSH2 0x4058 JUMP JUMPDEST SWAP3 SWAP2 POP POP JUMP JUMPDEST PUSH0 PUSH2 0x4CEE PUSH2 0x4CE9 DUP5 PUSH2 0x467F JUMP JUMPDEST PUSH2 0x43E8 JUMP JUMPDEST SWAP1 POP DUP1 DUP4 DUP3 MSTORE PUSH1 0x20 DUP3 ADD SWAP1 POP PUSH1 0x20 DUP5 MUL DUP4 ADD DUP6 DUP2 GT ISZERO PUSH2 0x4D11 JUMPI PUSH2 0x4D10 PUSH2 0x442D JUMP JUMPDEST JUMPDEST DUP4 JUMPDEST DUP2 DUP2 LT ISZERO PUSH2 0x4D3A JUMPI DUP1 PUSH2 0x4D26 DUP9 DUP3 PUSH2 0x4CC8 JUMP JUMPDEST DUP5 MSTORE PUSH1 0x20 DUP5 ADD SWAP4 POP POP PUSH1 0x20 DUP2 ADD SWAP1 POP PUSH2 0x4D13 JUMP JUMPDEST POP POP POP SWAP4 SWAP3 POP POP POP JUMP JUMPDEST PUSH0 DUP3 PUSH1 0x1F DUP4 ADD SLT PUSH2 0x4D58 JUMPI PUSH2 0x4D57 PUSH2 0x4386 JUMP JUMPDEST JUMPDEST DUP2 MLOAD PUSH2 0x4D68 DUP5 DUP3 PUSH1 0x20 DUP7 ADD PUSH2 0x4CDC JUMP JUMPDEST SWAP2 POP POP SWAP3 SWAP2 POP POP JUMP JUMPDEST PUSH0 PUSH1 0x20 DUP3 DUP5 SUB SLT ISZERO PUSH2 0x4D86 JUMPI PUSH2 0x4D85 PUSH2 0x4CC0 JUMP JUMPDEST JUMPDEST PUSH2 0x4D90 PUSH1 0x20 PUSH2 0x43E8 JUMP JUMPDEST SWAP1 POP PUSH0 DUP3 ADD MLOAD PUSH8 0xFFFFFFFFFFFFFFFF DUP2 GT ISZERO PUSH2 0x4DAF JUMPI PUSH2 0x4DAE PUSH2 0x4CC4 JUMP JUMPDEST JUMPDEST PUSH2 0x4DBB DUP5 DUP3 DUP6 ADD PUSH2 0x4D44 JUMP JUMPDEST PUSH0 DUP4 ADD MSTORE POP SWAP3 SWAP2 POP POP JUMP JUMPDEST PUSH0 PUSH2 0x4DD8 PUSH2 0x4DD3 DUP5 PUSH2 0x4C95 JUMP JUMPDEST PUSH2 0x43E8 JUMP JUMPDEST SWAP1 POP DUP1 DUP4 DUP3 MSTORE PUSH1 0x20 DUP3 ADD SWAP1 POP PUSH1 0x20 DUP5 MUL DUP4 ADD DUP6 DUP2 GT ISZERO PUSH2 0x4DFB JUMPI PUSH2 0x4DFA PUSH2 0x442D JUMP JUMPDEST JUMPDEST DUP4 JUMPDEST DUP2 DUP2 LT ISZERO PUSH2 0x4E42 JUMPI DUP1 MLOAD PUSH8 0xFFFFFFFFFFFFFFFF DUP2 GT ISZERO PUSH2 0x4E20 JUMPI PUSH2 0x4E1F PUSH2 0x4386 JUMP JUMPDEST JUMPDEST DUP1 DUP7 ADD PUSH2 0x4E2D DUP10 DUP3 PUSH2 0x4D71 JUMP JUMPDEST DUP6 MSTORE PUSH1 0x20 DUP6 ADD SWAP5 POP POP POP PUSH1 0x20 DUP2 ADD SWAP1 POP PUSH2 0x4DFD JUMP JUMPDEST POP POP POP SWAP4 SWAP3 POP POP POP JUMP JUMPDEST PUSH0 DUP3 PUSH1 0x1F DUP4 ADD SLT PUSH2 0x4E60 JUMPI PUSH2 0x4E5F PUSH2 0x4386 JUMP JUMPDEST JUMPDEST DUP2 MLOAD PUSH2 0x4E70 DUP5 DUP3 PUSH1 0x20 DUP7 ADD PUSH2 0x4DC6 JUMP JUMPDEST SWAP2 POP POP SWAP3 SWAP2 POP POP JUMP JUMPDEST PUSH0 PUSH1 0x20 DUP3 DUP5 SUB SLT ISZERO PUSH2 0x4E8E JUMPI PUSH2 0x4E8D PUSH2 0x4020 JUMP JUMPDEST JUMPDEST PUSH0 DUP3 ADD MLOAD PUSH8 0xFFFFFFFFFFFFFFFF DUP2 GT ISZERO PUSH2 0x4EAB JUMPI PUSH2 0x4EAA PUSH2 0x4024 JUMP JUMPDEST JUMPDEST PUSH2 0x4EB7 DUP5 DUP3 DUP6 ADD PUSH2 0x4E4C JUMP JUMPDEST SWAP2 POP POP SWAP3 SWAP2 POP POP JUMP JUMPDEST PUSH32 0x4E487B7100000000000000000000000000000000000000000000000000000000 PUSH0 MSTORE PUSH1 0x32 PUSH1 0x4 MSTORE PUSH1 0x24 PUSH0 REVERT JUMPDEST PUSH0 DUP2 SWAP1 POP SWAP3 SWAP2 POP POP JUMP JUMPDEST PUSH0 PUSH2 0x4F01 DUP3 PUSH2 0x42A6 JUMP JUMPDEST PUSH2 0x4F0B DUP2 DUP6 PUSH2 0x4EED JUMP JUMPDEST SWAP4 POP PUSH2 0x4F1B DUP2 DUP6 PUSH1 0x20 DUP7 ADD PUSH2 0x42C0 JUMP JUMPDEST DUP1 DUP5 ADD SWAP2 POP POP SWAP3 SWAP2 POP POP JUMP JUMPDEST PUSH32 0x2D00000000000000000000000000000000000000000000000000000000000000 PUSH0 DUP3 ADD MSTORE POP JUMP JUMPDEST PUSH0 PUSH2 0x4F5B PUSH1 0x1 DUP4 PUSH2 0x4EED JUMP JUMPDEST SWAP2 POP PUSH2 0x4F66 DUP3 PUSH2 0x4F27 JUMP JUMPDEST PUSH1 0x1 DUP3 ADD SWAP1 POP SWAP2 SWAP1 POP JUMP JUMPDEST PUSH0 PUSH2 0x4F7C DUP3 DUP7 PUSH2 0x4EF7 JUMP JUMPDEST SWAP2 POP PUSH2 0x4F87 DUP3 PUSH2 0x4F4F JUMP JUMPDEST SWAP2 POP PUSH2 0x4F93 DUP3 DUP6 PUSH2 0x4EF7 JUMP JUMPDEST SWAP2 POP PUSH2 0x4F9E DUP3 PUSH2 0x4F4F JUMP JUMPDEST SWAP2 POP PUSH2 0x4FAA DUP3 DUP5 PUSH2 0x4EF7 JUMP JUMPDEST SWAP2 POP DUP2 SWAP1 POP SWAP5 SWAP4 POP POP POP POP JUMP JUMPDEST PUSH0 DUP2 MLOAD SWAP1 POP SWAP2 SWAP1 POP JUMP JUMPDEST PUSH0 DUP3 DUP3 MSTORE PUSH1 0x20 DUP3 ADD SWAP1 POP SWAP3 SWAP2 POP POP JUMP JUMPDEST PUSH0 DUP2 SWAP1 POP PUSH1 0x20 DUP3 ADD SWAP1 POP SWAP2 SWAP1 POP JUMP JUMPDEST PUSH0 DUP3 DUP3 MSTORE PUSH1 0x20 DUP3 ADD SWAP1 POP SWAP3 SWAP2 POP POP JUMP JUMPDEST PUSH0 PUSH2 0x4FFA DUP3 PUSH2 0x42A6 JUMP JUMPDEST PUSH2 0x5004 DUP2 DUP6 PUSH2 0x4FE0 JUMP JUMPDEST SWAP4 POP PUSH2 0x5014 DUP2 DUP6 PUSH1 0x20 DUP7 ADD PUSH2 0x42C0 JUMP JUMPDEST PUSH2 0x501D DUP2 PUSH2 0x42CE JUMP JUMPDEST DUP5 ADD SWAP2 POP POP SWAP3 SWAP2 POP POP JUMP JUMPDEST PUSH0 PUSH2 0x5033 DUP4 DUP4 PUSH2 0x4FF0 JUMP JUMPDEST SWAP1 POP SWAP3 SWAP2 POP POP JUMP JUMPDEST PUSH0 PUSH1 0x20 DUP3 ADD SWAP1 POP SWAP2 SWAP1 POP JUMP JUMPDEST PUSH0 PUSH2 0x5051 DUP3 PUSH2 0x4FB7 JUMP JUMPDEST PUSH2 0x505B DUP2 DUP6 PUSH2 0x4FC1 JUMP JUMPDEST SWAP4 POP DUP4 PUSH1 0x20 DUP3 MUL DUP6 ADD PUSH2 0x506D DUP6 PUSH2 0x4FD1 JUMP JUMPDEST DUP1 PUSH0 JUMPDEST DUP6 DUP2 LT ISZERO PUSH2 0x50A8 JUMPI DUP5 DUP5 SUB DUP10 MSTORE DUP2 MLOAD PUSH2 0x5089 DUP6 DUP3 PUSH2 0x5028 JUMP JUMPDEST SWAP5 POP PUSH2 0x5094 DUP4 PUSH2 0x503B JUMP JUMPDEST SWAP3 POP PUSH1 0x20 DUP11 ADD SWAP10 POP POP PUSH1 0x1 DUP2 ADD SWAP1 POP PUSH2 0x5070 JUMP JUMPDEST POP DUP3 SWAP8 POP DUP8 SWAP6 POP POP POP POP POP POP SWAP3 SWAP2 POP POP JUMP JUMPDEST PUSH0 PUSH1 0x40 DUP3 ADD SWAP1 POP DUP2 DUP2 SUB PUSH0 DUP4 ADD MSTORE PUSH2 0x50D2 DUP2 DUP6 PUSH2 0x42DE JUMP JUMPDEST SWAP1 POP DUP2 DUP2 SUB PUSH1 0x20 DUP4 ADD MSTORE PUSH2 0x50E6 DUP2 DUP5 PUSH2 0x5047 JUMP JUMPDEST SWAP1 POP SWAP4 SWAP3 POP POP POP JUMP JUMPDEST PUSH0 PUSH1 0x40 DUP3 ADD SWAP1 POP PUSH2 0x5102 PUSH0 DUP4 ADD DUP6 PUSH2 0x497C JUMP JUMPDEST PUSH2 0x510F PUSH1 0x20 DUP4 ADD DUP5 PUSH2 0x497C JUMP JUMPDEST SWAP4 SWAP3 POP POP POP JUMP JUMPDEST PUSH0 DUP2 MLOAD SWAP1 POP PUSH2 0x5124 DUP2 PUSH2 0x408B JUMP JUMPDEST SWAP3 SWAP2 POP POP JUMP JUMPDEST PUSH0 PUSH8 0xFFFFFFFFFFFFFFFF DUP3 GT ISZERO PUSH2 0x5144 JUMPI PUSH2 0x5143 PUSH2 0x438A JUMP JUMPDEST JUMPDEST PUSH1 0x20 DUP3 MUL SWAP1 POP SWAP2 SWAP1 POP JUMP JUMPDEST PUSH0 PUSH2 0x5161 PUSH2 0x515C DUP5 PUSH2 0x512A JUMP JUMPDEST PUSH2 0x43E8 JUMP JUMPDEST SWAP1 POP DUP1 PUSH1 0x20 DUP5 MUL DUP4 ADD DUP6 DUP2 GT ISZERO PUSH2 0x517B JUMPI PUSH2 0x517A PUSH2 0x442D JUMP JUMPDEST JUMPDEST DUP4 JUMPDEST DUP2 DUP2 LT ISZERO PUSH2 0x51A4 JUMPI DUP1 PUSH2 0x5190 DUP9 DUP3 PUSH2 0x4CC8 JUMP JUMPDEST DUP5 MSTORE PUSH1 0x20 DUP5 ADD SWAP4 POP POP PUSH1 0x20 DUP2 ADD SWAP1 POP PUSH2 0x517D JUMP JUMPDEST POP POP POP SWAP4 SWAP3 POP POP POP JUMP JUMPDEST PUSH0 DUP3 PUSH1 0x1F DUP4 ADD SLT PUSH2 0x51C2 JUMPI PUSH2 0x51C1 PUSH2 0x4386 JUMP JUMPDEST JUMPDEST PUSH1 0x5 PUSH2 0x51CF DUP5 DUP3 DUP6 PUSH2 0x514F JUMP JUMPDEST SWAP2 POP POP SWAP3 SWAP2 POP POP JUMP JUMPDEST PUSH0 DUP1 PUSH1 0xC0 DUP4 DUP6 SUB SLT ISZERO PUSH2 0x51EE JUMPI PUSH2 0x51ED PUSH2 0x4020 JUMP JUMPDEST JUMPDEST PUSH0 PUSH2 0x51FB DUP6 DUP3 DUP7 ADD PUSH2 0x5116 JUMP JUMPDEST SWAP3 POP POP PUSH1 0x20 PUSH2 0x520C DUP6 DUP3 DUP7 ADD PUSH2 0x51AE JUMP JUMPDEST SWAP2 POP POP SWAP3 POP SWAP3 SWAP1 POP JUMP JUMPDEST PUSH0 PUSH8 0xFFFFFFFFFFFFFFFF DUP3 GT ISZERO PUSH2 0x5230 JUMPI PUSH2 0x522F PUSH2 0x438A JUMP JUMPDEST JUMPDEST PUSH2 0x5239 DUP3 PUSH2 0x42CE JUMP JUMPDEST SWAP1 POP PUSH1 0x20 DUP2 ADD SWAP1 POP SWAP2 SWAP1 POP JUMP JUMPDEST PUSH0 PUSH2 0x5258 PUSH2 0x5253 DUP5 PUSH2 0x5216 JUMP JUMPDEST PUSH2 0x43E8 JUMP JUMPDEST SWAP1 POP DUP3 DUP2 MSTORE PUSH1 0x20 DUP2 ADD DUP5 DUP5 DUP5 ADD GT ISZERO PUSH2 0x5274 JUMPI PUSH2 0x5273 PUSH2 0x44C6 JUMP JUMPDEST JUMPDEST PUSH2 0x527F DUP5 DUP3 DUP6 PUSH2 0x42C0 JUMP JUMPDEST POP SWAP4 SWAP3 POP POP POP JUMP JUMPDEST PUSH0 DUP3 PUSH1 0x1F DUP4 ADD SLT PUSH2 0x529B JUMPI PUSH2 0x529A PUSH2 0x4386 JUMP JUMPDEST JUMPDEST DUP2 MLOAD PUSH2 0x52AB DUP5 DUP3 PUSH1 0x20 DUP7 ADD PUSH2 0x5246 JUMP JUMPDEST SWAP2 POP POP SWAP3 SWAP2 POP POP JUMP JUMPDEST PUSH1 0x2 DUP2 LT PUSH2 0x52C0 JUMPI PUSH0 DUP1 REVERT JUMPDEST POP JUMP JUMPDEST PUSH0 DUP2 MLOAD SWAP1 POP PUSH2 0x52D1 DUP2 PUSH2 0x52B4 JUMP JUMPDEST SWAP3 SWAP2 POP POP JUMP JUMPDEST PUSH0 DUP1 PUSH0 DUP1 PUSH0 DUP1 PUSH0 DUP1 PUSH2 0x100 DUP10 DUP12 SUB SLT ISZERO PUSH2 0x52F4 JUMPI PUSH2 0x52F3 PUSH2 0x4020 JUMP JUMPDEST JUMPDEST PUSH0 DUP10 ADD MLOAD PUSH8 0xFFFFFFFFFFFFFFFF DUP2 GT ISZERO PUSH2 0x5311 JUMPI PUSH2 0x5310 PUSH2 0x4024 JUMP JUMPDEST JUMPDEST PUSH2 0x531D DUP12 DUP3 DUP13 ADD PUSH2 0x5287 JUMP JUMPDEST SWAP9 POP POP PUSH1 0x20 DUP10 ADD MLOAD PUSH8 0xFFFFFFFFFFFFFFFF DUP2 GT ISZERO PUSH2 0x533E JUMPI PUSH2 0x533D PUSH2 0x4024 JUMP JUMPDEST JUMPDEST PUSH2 0x534A DUP12 DUP3 DUP13 ADD PUSH2 0x5287 JUMP JUMPDEST SWAP8 POP POP PUSH1 0x40 DUP10 ADD MLOAD PUSH8 0xFFFFFFFFFFFFFFFF DUP2 GT ISZERO PUSH2 0x536B JUMPI PUSH2 0x536A PUSH2 0x4024 JUMP JUMPDEST JUMPDEST PUSH2 0x5377 DUP12 DUP3 DUP13 ADD PUSH2 0x5287 JUMP JUMPDEST SWAP7 POP POP PUSH1 0x60 PUSH2 0x5388 DUP12 DUP3 DUP13 ADD PUSH2 0x4CC8 JUMP JUMPDEST SWAP6 POP POP PUSH1 0x80 PUSH2 0x5399 DUP12 DUP3 DUP13 ADD PUSH2 0x5116 JUMP JUMPDEST SWAP5 POP POP PUSH1 0xA0 PUSH2 0x53AA DUP12 DUP3 DUP13 ADD PUSH2 0x52C3 JUMP JUMPDEST SWAP4 POP POP PUSH1 0xC0 PUSH2 0x53BB DUP12 DUP3 DUP13 ADD PUSH2 0x5116 JUMP JUMPDEST SWAP3 POP POP PUSH1 0xE0 PUSH2 0x53CC DUP12 DUP3 DUP13 ADD PUSH2 0x4CC8 JUMP JUMPDEST SWAP2 POP POP SWAP3 SWAP6 SWAP9 POP SWAP3 SWAP6 SWAP9 SWAP1 SWAP4 SWAP7 POP JUMP JUMPDEST PUSH0 PUSH1 0x40 DUP3 ADD SWAP1 POP PUSH2 0x53EF PUSH0 DUP4 ADD DUP6 PUSH2 0x497C JUMP JUMPDEST PUSH2 0x53FC PUSH1 0x20 DUP4 ADD DUP5 PUSH2 0x40F3 JUMP JUMPDEST SWAP4 SWAP3 POP POP POP JUMP JUMPDEST PUSH32 0x4E487B7100000000000000000000000000000000000000000000000000000000 PUSH0 MSTORE PUSH1 0x11 PUSH1 0x4 MSTORE PUSH1 0x24 PUSH0 REVERT JUMPDEST PUSH0 PUSH2 0x543A DUP3 PUSH2 0x4082 JUMP JUMPDEST SWAP2 POP PUSH32 0xFFFFFFFFFFFFFFFFFFFFFFFFFFFFFFFFFFFFFFFFFFFFFFFFFFFFFFFFFFFFFFFF DUP3 SUB PUSH2 0x546C JUMPI PUSH2 0x546B PUSH2 0x5403 JUMP JUMPDEST JUMPDEST PUSH1 0x1 DUP3 ADD SWAP1 POP SWAP2 SWAP1 POP JUMP JUMPDEST PUSH32 0x436F6D6D756E69747920746F6B656E20616C7265616479206578697374730000 PUSH0 DUP3 ADD MSTORE POP JUMP JUMPDEST PUSH0 PUSH2 0x54AB PUSH1 0x1E DUP4 PUSH2 0x42B0 JUMP JUMPDEST SWAP2 POP PUSH2 0x54B6 DUP3 PUSH2 0x5477 JUMP JUMPDEST PUSH1 0x20 DUP3 ADD SWAP1 POP SWAP2 SWAP1 POP JUMP JUMPDEST PUSH0 PUSH1 0x20 DUP3 ADD SWAP1 POP DUP2 DUP2 SUB PUSH0 DUP4 ADD MSTORE PUSH2 0x54D8 DUP2 PUSH2 0x549F JUMP JUMPDEST SWAP1 POP SWAP2 SWAP1 POP JUMP JUMPDEST PUSH32 0x4E487B7100000000000000000000000000000000000000000000000000000000 PUSH0 MSTORE PUSH1 0x21 PUSH1 0x4 MSTORE PUSH1 0x24 PUSH0 REVERT JUMPDEST PUSH32 0x4E6F7420696E2072616E6B696E67207068617365000000000000000000000000 PUSH0 DUP3 ADD MSTORE POP JUMP JUMPDEST PUSH0 PUSH2 0x5540 PUSH1 0x14 DUP4 PUSH2 0x42B0 JUMP JUMPDEST SWAP2 POP PUSH2 0x554B DUP3 PUSH2 0x550C JUMP JUMPDEST PUSH1 0x20 DUP3 ADD SWAP1 POP SWAP2 SWAP1 POP JUMP JUMPDEST PUSH0 PUSH1 0x20 DUP3 ADD SWAP1 POP DUP2 DUP2 SUB PUSH0 DUP4 ADD MSTORE PUSH2 0x556D DUP2 PUSH2 0x5534 JUMP JUMPDEST SWAP1 POP SWAP2 SWAP1 POP JUMP JUMPDEST PUSH32 0x52616E6B696E67206D75737420696E636C75646520616C6C2067726F7570206D PUSH0 DUP3 ADD MSTORE PUSH32 0x656D626572730000000000000000000000000000000000000000000000000000 PUSH1 0x20 DUP3 ADD MSTORE POP JUMP JUMPDEST PUSH0 PUSH2 0x55CE PUSH1 0x26 DUP4 PUSH2 0x42B0 JUMP JUMPDEST SWAP2 POP PUSH2 0x55D9 DUP3 PUSH2 0x5574 JUMP JUMPDEST PUSH1 0x40 DUP3 ADD SWAP1 POP SWAP2 SWAP1 POP JUMP JUMPDEST PUSH0 PUSH1 0x20 DUP3 ADD SWAP1 POP DUP2 DUP2 SUB PUSH0 DUP4 ADD MSTORE PUSH2 0x55FB DUP2 PUSH2 0x55C2 JUMP JUMPDEST SWAP1 POP SWAP2 SWAP1 POP JUMP JUMPDEST PUSH32 0x53656E646572206E6F742070617274206F66207468652067726F757000000000 PUSH0 DUP3 ADD MSTORE POP JUMP JUMPDEST PUSH0 PUSH2 0x5636 PUSH1 0x1C DUP4 PUSH2 0x42B0 JUMP JUMPDEST SWAP2 POP PUSH2 0x5641 DUP3 PUSH2 0x5602 JUMP JUMPDEST PUSH1 0x20 DUP3 ADD SWAP1 POP SWAP2 SWAP1 POP JUMP JUMPDEST PUSH0 PUSH1 0x20 DUP3 ADD SWAP1 POP DUP2 DUP2 SUB PUSH0 DUP4 ADD MSTORE PUSH2 0x5663 DUP2 PUSH2 0x562A JUMP JUMPDEST SWAP1 POP SWAP2 SWAP1 POP JUMP JUMPDEST PUSH32 0x202D200000000000000000000000000000000000000000000000000000000000 PUSH0 DUP3 ADD MSTORE POP JUMP JUMPDEST PUSH0 PUSH2 0x569E PUSH1 0x3 DUP4 PUSH2 0x4EED JUMP JUMPDEST SWAP2 POP PUSH2 0x56A9 DUP3 PUSH2 0x566A JUMP JUMPDEST PUSH1 0x3 DUP3 ADD SWAP1 POP SWAP2 SWAP1 POP JUMP JUMPDEST PUSH32 0x202D205200000000000000000000000000000000000000000000000000000000 PUSH0 DUP3 ADD MSTORE POP JUMP JUMPDEST PUSH0 PUSH2 0x56E8 PUSH1 0x4 DUP4 PUSH2 0x4EED JUMP JUMPDEST SWAP2 POP PUSH2 0x56F3 DUP3 PUSH2 0x56B4 JUMP JUMPDEST PUSH1 0x4 DUP3 ADD SWAP1 POP SWAP2 SWAP1 POP JUMP JUMPDEST PUSH0 PUSH2 0x5709 DUP3 DUP7 PUSH2 0x4EF7 JUMP JUMPDEST SWAP2 POP PUSH2 0x5714 DUP3 PUSH2 0x5692 JUMP JUMPDEST SWAP2 POP PUSH2 0x5720 DUP3 DUP6 PUSH2 0x4EF7 JUMP JUMPDEST SWAP2 POP PUSH2 0x572B DUP3 PUSH2 0x5692 JUMP JUMPDEST SWAP2 POP PUSH2 0x5737 DUP3 DUP5 PUSH2 0x4EF7 JUMP JUMPDEST SWAP2 POP PUSH2 0x5742 DUP3 PUSH2 0x56DC JUMP JUMPDEST SWAP2 POP DUP2 SWAP1 POP SWAP5 SWAP4 POP POP POP POP JUMP JUMPDEST PUSH0 DUP2 SWAP1 POP SWAP2 SWAP1 POP JUMP JUMPDEST PUSH0 PUSH8 0xFFFFFFFFFFFFFFFF DUP3 AND SWAP1 POP SWAP2 SWAP1 POP JUMP JUMPDEST PUSH0 PUSH2 0x5785 PUSH2 0x5780 PUSH2 0x577B DUP5 PUSH2 0x574F JUMP JUMPDEST PUSH2 0x41CE JUMP JUMPDEST PUSH2 0x5758 JUMP JUMPDEST SWAP1 POP SWAP2 SWAP1 POP JUMP JUMPDEST PUSH2 0x5795 DUP2 PUSH2 0x576B JUMP JUMPDEST DUP3 MSTORE POP POP JUMP JUMPDEST PUSH0 PUSH1 0x20 DUP3 ADD SWAP1 POP PUSH2 0x57AE PUSH0 DUP4 ADD DUP5 PUSH2 0x578C JUMP JUMPDEST SWAP3 SWAP2 POP POP JUMP JUMPDEST PUSH0 PUSH2 0x57BE DUP3 PUSH2 0x4082 JUMP JUMPDEST SWAP2 POP PUSH2 0x57C9 DUP4 PUSH2 0x4082 JUMP JUMPDEST SWAP3 POP DUP3 DUP3 MUL PUSH2 0x57D7 DUP2 PUSH2 0x4082 JUMP JUMPDEST SWAP2 POP DUP3 DUP3 DIV DUP5 EQ DUP4 ISZERO OR PUSH2 0x57EE JUMPI PUSH2 0x57ED PUSH2 0x5403 JUMP JUMPDEST JUMPDEST POP SWAP3 SWAP2 POP POP JUMP JUMPDEST PUSH32 0x4E487B7100000000000000000000000000000000000000000000000000000000 PUSH0 MSTORE PUSH1 0x12 PUSH1 0x4 MSTORE PUSH1 0x24 PUSH0 REVERT JUMPDEST PUSH0 PUSH2 0x582C DUP3 PUSH2 0x4082 JUMP JUMPDEST SWAP2 POP PUSH2 0x5837 DUP4 PUSH2 0x4082 JUMP JUMPDEST SWAP3 POP DUP3 PUSH2 0x5847 JUMPI PUSH2 0x5846 PUSH2 0x57F5 JUMP JUMPDEST JUMPDEST DUP3 DUP3 DIV SWAP1 POP SWAP3 SWAP2 POP POP JUMP JUMPDEST PUSH0 PUSH2 0x585C DUP3 PUSH2 0x4082 JUMP JUMPDEST SWAP2 POP PUSH2 0x5867 DUP4 PUSH2 0x4082 JUMP JUMPDEST SWAP3 POP DUP3 DUP3 SUB SWAP1 POP DUP2 DUP2 GT ISZERO PUSH2 0x587F JUMPI PUSH2 0x587E PUSH2 0x5403 JUMP JUMPDEST JUMPDEST SWAP3 SWAP2 POP POP JUMP JUMPDEST PUSH0 PUSH2 0x588F DUP3 PUSH2 0x4082 JUMP JUMPDEST SWAP2 POP PUSH2 0x589A DUP4 PUSH2 0x4082 JUMP JUMPDEST SWAP3 POP DUP3 DUP3 ADD SWAP1 POP DUP1 DUP3 GT ISZERO PUSH2 0x58B2 JUMPI PUSH2 0x58B1 PUSH2 0x5403 JUMP JUMPDEST JUMPDEST SWAP3 SWAP2 POP POP JUMP JUMPDEST PUSH0 PUSH1 0x80 DUP3 ADD SWAP1 POP PUSH2 0x58CB PUSH0 DUP4 ADD DUP8 PUSH2 0x40F3 JUMP JUMPDEST PUSH2 0x58D8 PUSH1 0x20 DUP4 ADD DUP7 PUSH2 0x497C JUMP JUMPDEST PUSH2 0x58E5 PUSH1 0x40 DUP4 ADD DUP6 PUSH2 0x40F3 JUMP JUMPDEST PUSH2 0x58F2 PUSH1 0x60 DUP4 ADD DUP5 PUSH2 0x40F3 JUMP JUMPDEST SWAP6 SWAP5 POP POP POP POP POP JUMP JUMPDEST PUSH2 0x5904 DUP2 PUSH2 0x48E6 JUMP JUMPDEST DUP2 EQ PUSH2 0x590E JUMPI PUSH0 DUP1 REVERT JUMPDEST POP JUMP JUMPDEST PUSH0 DUP2 MLOAD SWAP1 POP PUSH2 0x591F DUP2 PUSH2 0x58FB JUMP JUMPDEST SWAP3 SWAP2 POP POP JUMP JUMPDEST PUSH0 PUSH1 0x20 DUP3 DUP5 SUB SLT ISZERO PUSH2 0x593A JUMPI PUSH2 0x5939 PUSH2 0x4020 JUMP JUMPDEST JUMPDEST PUSH0 PUSH2 0x5947 DUP5 DUP3 DUP6 ADD PUSH2 0x5911 JUMP JUMPDEST SWAP2 POP POP SWAP3 SWAP2 POP POP JUMP JUMPDEST PUSH0 PUSH2 0x595A DUP3 PUSH2 0x4082 JUMP JUMPDEST SWAP2 POP PUSH0 DUP3 SUB PUSH2 0x596C JUMPI PUSH2 0x596B PUSH2 0x5403 JUMP JUMPDEST JUMPDEST PUSH1 0x1 DUP3 SUB SWAP1 POP SWAP2 SWAP1 POP JUMP JUMPDEST PUSH0 DUP2 SWAP1 POP SWAP2 SWAP1 POP JUMP JUMPDEST PUSH0 PUSH2 0x598A DUP3 PUSH2 0x5977 JUMP JUMPDEST SWAP2 POP PUSH2 0x5995 DUP4 PUSH2 0x5977 JUMP JUMPDEST SWAP3 POP DUP3 DUP3 SUB SWAP1 POP DUP2 DUP2 SLT PUSH0 DUP5 SLT AND DUP3 DUP3 SGT PUSH0 DUP6 SLT ISZERO AND OR ISZERO PUSH2 0x59BA JUMPI PUSH2 0x59B9 PUSH2 0x5403 JUMP JUMPDEST JUMPDEST SWAP3 SWAP2 POP POP JUMP JUMPDEST PUSH0 PUSH2 0x59CA DUP3 PUSH2 0x5977 JUMP JUMPDEST SWAP2 POP PUSH2 0x59D5 DUP4 PUSH2 0x5977 JUMP JUMPDEST SWAP3 POP DUP3 DUP3 MUL PUSH2 0x59E3 DUP2 PUSH2 0x5977 JUMP JUMPDEST SWAP2 POP PUSH32 0x8000000000000000000000000000000000000000000000000000000000000000 DUP5 EQ PUSH0 DUP5 SLT AND ISZERO PUSH2 0x5A1A JUMPI PUSH2 0x5A19 PUSH2 0x5403 JUMP JUMPDEST JUMPDEST DUP3 DUP3 SDIV DUP5 EQ DUP4 ISZERO OR PUSH2 0x5A2F JUMPI PUSH2 0x5A2E PUSH2 0x5403 JUMP JUMPDEST JUMPDEST POP SWAP3 SWAP2 POP POP JUMP JUMPDEST PUSH0 PUSH1 0xFF DUP3 AND SWAP1 POP SWAP2 SWAP1 POP JUMP JUMPDEST PUSH0 PUSH2 0x5A4C DUP3 PUSH2 0x5A36 JUMP JUMPDEST SWAP2 POP PUSH1 0xFF DUP3 SUB PUSH2 0x5A5F JUMPI PUSH2 0x5A5E PUSH2 0x5403 JUMP JUMPDEST JUMPDEST PUSH1 0x1 DUP3 ADD SWAP1 POP SWAP2 SWAP1 POP JUMP JUMPDEST PUSH0 PUSH1 0x80 DUP3 ADD SWAP1 POP PUSH2 0x5A7D PUSH0 DUP4 ADD DUP8 PUSH2 0x497C JUMP JUMPDEST PUSH2 0x5A8A PUSH1 0x20 DUP4 ADD DUP7 PUSH2 0x40F3 JUMP JUMPDEST PUSH2 0x5A97 PUSH1 0x40 DUP4 ADD DUP6 PUSH2 0x40F3 JUMP JUMPDEST PUSH2 0x5AA4 PUSH1 0x60 DUP4 ADD DUP5 PUSH2 0x40F3 JUMP JUMPDEST SWAP6 SWAP5 POP POP POP POP POP JUMP JUMPDEST PUSH0 PUSH1 0x40 DUP3 ADD SWAP1 POP DUP2 DUP2 SUB PUSH0 DUP4 ADD MSTORE PUSH2 0x5AC5 DUP2 DUP6 PUSH2 0x4810 JUMP JUMPDEST SWAP1 POP DUP2 DUP2 SUB PUSH1 0x20 DUP4 ADD MSTORE PUSH2 0x5AD9 DUP2 DUP5 PUSH2 0x4810 JUMP JUMPDEST SWAP1 POP SWAP4 SWAP3 POP POP POP JUMP JUMPDEST PUSH0 DUP2 MLOAD SWAP1 POP SWAP2 SWAP1 POP JUMP JUMPDEST PUSH0 DUP3 DUP3 MSTORE PUSH1 0x20 DUP3 ADD SWAP1 POP SWAP3 SWAP2 POP POP JUMP JUMPDEST PUSH0 PUSH2 0x5B06 DUP3 PUSH2 0x5AE2 JUMP JUMPDEST PUSH2 0x5B10 DUP2 DUP6 PUSH2 0x5AEC JUMP JUMPDEST SWAP4 POP PUSH2 0x5B20 DUP2 DUP6 PUSH1 0x20 DUP7 ADD PUSH2 0x42C0 JUMP JUMPDEST PUSH2 0x5B29 DUP2 PUSH2 0x42CE JUMP JUMPDEST DUP5 ADD SWAP2 POP POP SWAP3 SWAP2 POP POP JUMP JUMPDEST PUSH0 PUSH1 0xA0 DUP3 ADD SWAP1 POP PUSH2 0x5B47 PUSH0 DUP4 ADD DUP9 PUSH2 0x497C JUMP JUMPDEST PUSH2 0x5B54 PUSH1 0x20 DUP4 ADD DUP8 PUSH2 0x497C JUMP JUMPDEST PUSH2 0x5B61 PUSH1 0x40 DUP4 ADD DUP7 PUSH2 0x40F3 JUMP JUMPDEST PUSH2 0x5B6E PUSH1 0x60 DUP4 ADD DUP6 PUSH2 0x40F3 JUMP JUMPDEST DUP2 DUP2 SUB PUSH1 0x80 DUP4 ADD MSTORE PUSH2 0x5B80 DUP2 DUP5 PUSH2 0x5AFC JUMP JUMPDEST SWAP1 POP SWAP7 SWAP6 POP POP POP POP POP POP JUMP JUMPDEST PUSH0 DUP2 MLOAD SWAP1 POP PUSH2 0x5B9A DUP2 PUSH2 0x4146 JUMP JUMPDEST SWAP3 SWAP2 POP POP JUMP JUMPDEST PUSH0 PUSH1 0x20 DUP3 DUP5 SUB SLT ISZERO PUSH2 0x5BB5 JUMPI PUSH2 0x5BB4 PUSH2 0x4020 JUMP JUMPDEST JUMPDEST PUSH0 PUSH2 0x5BC2 DUP5 DUP3 DUP6 ADD PUSH2 0x5B8C JUMP JUMPDEST SWAP2 POP POP SWAP3 SWAP2 POP POP JUMP JUMPDEST PUSH0 PUSH1 0xA0 DUP3 ADD SWAP1 POP PUSH2 0x5BDE PUSH0 DUP4 ADD DUP9 PUSH2 0x497C JUMP JUMPDEST PUSH2 0x5BEB PUSH1 0x20 DUP4 ADD DUP8 PUSH2 0x497C JUMP JUMPDEST DUP2 DUP2 SUB PUSH1 0x40 DUP4 ADD MSTORE PUSH2 0x5BFD DUP2 DUP7 PUSH2 0x4810 JUMP JUMPDEST SWAP1 POP DUP2 DUP2 SUB PUSH1 0x60 DUP4 ADD MSTORE PUSH2 0x5C11 DUP2 DUP6 PUSH2 0x4810 JUMP JUMPDEST SWAP1 POP DUP2 DUP2 SUB PUSH1 0x80 DUP4 ADD MSTORE PUSH2 0x5C25 DUP2 DUP5 PUSH2 0x5AFC JUMP JUMPDEST SWAP1 POP SWAP7 SWAP6 POP POP POP POP POP POP JUMP JUMPDEST PUSH0 DUP2 SWAP1 POP SWAP3 SWAP2 POP POP JUMP JUMPDEST PUSH0 PUSH2 0x5C45 DUP3 PUSH2 0x5AE2 JUMP JUMPDEST PUSH2 0x5C4F DUP2 DUP6 PUSH2 0x5C31 JUMP JUMPDEST SWAP4 POP PUSH2 0x5C5F DUP2 DUP6 PUSH1 0x20 DUP7 ADD PUSH2 0x42C0 JUMP JUMPDEST DUP1 DUP5 ADD SWAP2 POP POP SWAP3 SWAP2 POP POP JUMP JUMPDEST PUSH0 PUSH2 0x5C76 DUP3 DUP5 PUSH2 0x5C3B JUMP JUMPDEST SWAP2 POP DUP2 SWAP1 POP SWAP3 SWAP2 POP POP JUMP JUMPDEST PUSH0 DUP2 SWAP1 POP DUP2 PUSH0 MSTORE PUSH1 0x20 PUSH0 KECCAK256 SWAP1 POP SWAP2 SWAP1 POP JUMP JUMPDEST PUSH0 PUSH1 0x20 PUSH1 0x1F DUP4 ADD DIV SWAP1 POP SWAP2 SWAP1 POP JUMP JUMPDEST PUSH0 DUP3 DUP3 SHL SWAP1 POP SWAP3 SWAP2 POP POP JUMP JUMPDEST PUSH0 PUSH1 0x8 DUP4 MUL PUSH2 0x5CDD PUSH32 0xFFFFFFFFFFFFFFFFFFFFFFFFFFFFFFFFFFFFFFFFFFFFFFFFFFFFFFFFFFFFFFFF DUP3 PUSH2 0x5CA2 JUMP JUMPDEST PUSH2 0x5CE7 DUP7 DUP4 PUSH2 0x5CA2 JUMP JUMPDEST SWAP6 POP DUP1 NOT DUP5 AND SWAP4 POP DUP1 DUP7 AND DUP5 OR SWAP3 POP POP POP SWAP4 SWAP3 POP POP POP JUMP JUMPDEST PUSH0 PUSH2 0x5D19 PUSH2 0x5D14 PUSH2 0x5D0F DUP5 PUSH2 0x4082 JUMP JUMPDEST PUSH2 0x41CE JUMP JUMPDEST PUSH2 0x4082 JUMP JUMPDEST SWAP1 POP SWAP2 SWAP1 POP JUMP JUMPDEST PUSH0 DUP2 SWAP1 POP SWAP2 SWAP1 POP JUMP JUMPDEST PUSH2 0x5D32 DUP4 PUSH2 0x5CFF JUMP JUMPDEST PUSH2 0x5D46 PUSH2 0x5D3E DUP3 PUSH2 0x5D20 JUMP JUMPDEST DUP5 DUP5 SLOAD PUSH2 0x5CAE JUMP JUMPDEST DUP3 SSTORE POP POP POP POP JUMP JUMPDEST PUSH0 SWAP1 JUMP JUMPDEST PUSH2 0x5D5A PUSH2 0x5D4E JUMP JUMPDEST PUSH2 0x5D65 DUP2 DUP5 DUP5 PUSH2 0x5D29 JUMP JUMPDEST POP POP POP JUMP JUMPDEST JUMPDEST DUP2 DUP2 LT ISZERO PUSH2 0x5D88 JUMPI PUSH2 0x5D7D PUSH0 DUP3 PUSH2 0x5D52 JUMP JUMPDEST PUSH1 0x1 DUP2 ADD SWAP1 POP PUSH2 0x5D6B JUMP JUMPDEST POP POP JUMP JUMPDEST PUSH1 0x1F DUP3 GT ISZERO PUSH2 0x5DCD JUMPI PUSH2 0x5D9E DUP2 PUSH2 0x5C81 JUMP JUMPDEST PUSH2 0x5DA7 DUP5 PUSH2 0x5C93 JUMP JUMPDEST DUP2 ADD PUSH1 0x20 DUP6 LT ISZERO PUSH2 0x5DB6 JUMPI DUP2 SWAP1 POP JUMPDEST PUSH2 0x5DCA PUSH2 0x5DC2 DUP6 PUSH2 0x5C93 JUMP JUMPDEST DUP4 ADD DUP3 PUSH2 0x5D6A JUMP JUMPDEST POP POP JUMPDEST POP POP POP JUMP JUMPDEST PUSH0 DUP3 DUP3 SHR SWAP1 POP SWAP3 SWAP2 POP POP JUMP JUMPDEST PUSH0 PUSH2 0x5DED PUSH0 NOT DUP5 PUSH1 0x8 MUL PUSH2 0x5DD2 JUMP JUMPDEST NOT DUP1 DUP4 AND SWAP2 POP POP SWAP3 SWAP2 POP POP JUMP JUMPDEST PUSH0 PUSH2 0x5E05 DUP4 DUP4 PUSH2 0x5DDE JUMP JUMPDEST SWAP2 POP DUP3 PUSH1 0x2 MUL DUP3 OR SWAP1 POP SWAP3 SWAP2 POP POP JUMP JUMPDEST PUSH2 0x5E1E DUP3 PUSH2 0x42A6 JUMP JUMPDEST PUSH8 0xFFFFFFFFFFFFFFFF DUP2 GT ISZERO PUSH2 0x5E37 JUMPI PUSH2 0x5E36 PUSH2 0x438A JUMP JUMPDEST JUMPDEST PUSH2 0x5E41 DUP3 SLOAD PUSH2 0x4C3E JUMP JUMPDEST PUSH2 0x5E4C DUP3 DUP3 DUP6 PUSH2 0x5D8C JUMP JUMPDEST PUSH0 PUSH1 0x20 SWAP1 POP PUSH1 0x1F DUP4 GT PUSH1 0x1 DUP2 EQ PUSH2 0x5E7D JUMPI PUSH0 DUP5 ISZERO PUSH2 0x5E6B JUMPI DUP3 DUP8 ADD MLOAD SWAP1 POP JUMPDEST PUSH2 0x5E75 DUP6 DUP3 PUSH2 0x5DFA JUMP JUMPDEST DUP7 SSTORE POP PUSH2 0x5EDC JUMP JUMPDEST PUSH1 0x1F NOT DUP5 AND PUSH2 0x5E8B DUP7 PUSH2 0x5C81 JUMP JUMPDEST PUSH0 JUMPDEST DUP3 DUP2 LT ISZERO PUSH2 0x5EB2 JUMPI DUP5 DUP10 ADD MLOAD DUP3 SSTORE PUSH1 0x1 DUP3 ADD SWAP2 POP PUSH1 0x20 DUP6 ADD SWAP5 POP PUSH1 0x20 DUP2 ADD SWAP1 POP PUSH2 0x5E8D JUMP JUMPDEST DUP7 DUP4 LT ISZERO PUSH2 0x5ECF JUMPI DUP5 DUP10 ADD MLOAD PUSH2 0x5ECB PUSH1 0x1F DUP10 AND DUP3 PUSH2 0x5DDE JUMP JUMPDEST DUP4 SSTORE POP JUMPDEST PUSH1 0x1 PUSH1 0x2 DUP9 MUL ADD DUP9 SSTORE POP POP POP JUMPDEST POP POP POP POP POP POP JUMP INVALID LOG2 PUSH5 0x6970667358 0x22 SLT KECCAK256 BLOBHASH CALLER 0x25 LOG0 0xAC SWAP10 SWAP13 0xCC JUMPI PUSH25 0x849E18E60B12F2FB0664B25171AFA8E00684B174D3C364736F PUSH13 0x634300081A0033000000000000 "
		},
		"gasEstimates": {
			"creation": {
				"codeDepositCost": "4869200",
				"executionCost": "infinite",
				"totalCost": "infinite"
			},
			"external": {
				"UPGRADE_INTERFACE_VERSION()": "infinite",
				"balanceOf(address,uint256)": "infinite",
				"balanceOfBatch(address[],uint256[])": "infinite",
				"communityExists(uint256)": "2874",
				"contributionsContract()": "infinite",
				"createCommunityToken(uint256)": "infinite",
				"determineConsensus(uint256,uint256,uint256)": "infinite",
				"determineConsensusForAllGroups(uint256,uint256)": "infinite",
				"initialize(address)": "infinite",
				"isApprovedForAll(address,address)": "infinite",
				"multisigContract()": "infinite",
				"owner()": "2634",
				"profilesContract()": "infinite",
				"proxiableUUID()": "infinite",
				"renounceOwnership()": "infinite",
				"safeBatchTransferFrom(address,address,uint256[],uint256[],bytes)": "infinite",
				"safeTransferFrom(address,address,uint256,uint256,bytes)": "infinite",
				"setApprovalForAll(address,bool)": "infinite",
				"setContracts(address,address,address)": "infinite",
				"submitRanking(uint256,uint256,uint256,uint256[])": "infinite",
				"supportsInterface(bytes4)": "809",
				"transferOwnership(address)": "infinite",
				"upgradeToAndCall(address,bytes)": "infinite",
				"uri(uint256)": "infinite",
				"userClaimableTokens(uint256,address)": "infinite"
			},
			"internal": {
				"_authorizeUpgrade(address)": "infinite",
				"calculateMaxVariance(uint256)": "infinite",
				"calculateMean(uint256[] memory)": "infinite",
				"calculateTransientScore(uint256,uint256,uint256,uint256,struct ICommunityGovernanceContributions.Group memory)": "infinite",
				"calculateVariance(uint256[] memory)": "infinite",
				"distributeRespect(uint256,uint256[] memory[] memory)": "infinite",
				"fib(uint8)": "infinite",
				"isPartOfGroup(struct ICommunityGovernanceContributions.Group memory,address)": "infinite",
				"issueRespectTokens(uint256,uint256,uint256,struct ICommunityGovernanceContributions.Group memory)": "infinite",
				"sortByScore(uint256[] memory)": "infinite"
			}
		},
		"methodIdentifiers": {
			"UPGRADE_INTERFACE_VERSION()": "ad3cb1cc",
			"balanceOf(address,uint256)": "00fdd58e",
			"balanceOfBatch(address[],uint256[])": "4e1273f4",
			"communityExists(uint256)": "d60429d0",
			"contributionsContract()": "de04bbd2",
			"createCommunityToken(uint256)": "65c33697",
			"determineConsensus(uint256,uint256,uint256)": "17dd9e73",
			"determineConsensusForAllGroups(uint256,uint256)": "33718ce8",
			"initialize(address)": "c4d66de8",
			"isApprovedForAll(address,address)": "e985e9c5",
			"multisigContract()": "04d5232b",
			"owner()": "8da5cb5b",
			"profilesContract()": "06428f02",
			"proxiableUUID()": "52d1902d",
			"renounceOwnership()": "715018a6",
			"safeBatchTransferFrom(address,address,uint256[],uint256[],bytes)": "2eb2c2d6",
			"safeTransferFrom(address,address,uint256,uint256,bytes)": "f242432a",
			"setApprovalForAll(address,bool)": "a22cb465",
			"setContracts(address,address,address)": "b3066d49",
			"submitRanking(uint256,uint256,uint256,uint256[])": "b74ca713",
			"supportsInterface(bytes4)": "01ffc9a7",
			"transferOwnership(address)": "f2fde38b",
			"upgradeToAndCall(address,bytes)": "4f1ef286",
			"uri(uint256)": "0e89341c",
			"userClaimableTokens(uint256,address)": "643f273d"
		}
	},
	"abi": [
		{
			"inputs": [],
			"stateMutability": "nonpayable",
			"type": "constructor"
		},
		{
			"inputs": [
				{
					"internalType": "address",
					"name": "target",
					"type": "address"
				}
			],
			"name": "AddressEmptyCode",
			"type": "error"
		},
		{
			"inputs": [
				{
					"internalType": "address",
					"name": "sender",
					"type": "address"
				},
				{
					"internalType": "uint256",
					"name": "balance",
					"type": "uint256"
				},
				{
					"internalType": "uint256",
					"name": "needed",
					"type": "uint256"
				},
				{
					"internalType": "uint256",
					"name": "tokenId",
					"type": "uint256"
				}
			],
			"name": "ERC1155InsufficientBalance",
			"type": "error"
		},
		{
			"inputs": [
				{
					"internalType": "address",
					"name": "approver",
					"type": "address"
				}
			],
			"name": "ERC1155InvalidApprover",
			"type": "error"
		},
		{
			"inputs": [
				{
					"internalType": "uint256",
					"name": "idsLength",
					"type": "uint256"
				},
				{
					"internalType": "uint256",
					"name": "valuesLength",
					"type": "uint256"
				}
			],
			"name": "ERC1155InvalidArrayLength",
			"type": "error"
		},
		{
			"inputs": [
				{
					"internalType": "address",
					"name": "operator",
					"type": "address"
				}
			],
			"name": "ERC1155InvalidOperator",
			"type": "error"
		},
		{
			"inputs": [
				{
					"internalType": "address",
					"name": "receiver",
					"type": "address"
				}
			],
			"name": "ERC1155InvalidReceiver",
			"type": "error"
		},
		{
			"inputs": [
				{
					"internalType": "address",
					"name": "sender",
					"type": "address"
				}
			],
			"name": "ERC1155InvalidSender",
			"type": "error"
		},
		{
			"inputs": [
				{
					"internalType": "address",
					"name": "operator",
					"type": "address"
				},
				{
					"internalType": "address",
					"name": "owner",
					"type": "address"
				}
			],
			"name": "ERC1155MissingApprovalForAll",
			"type": "error"
		},
		{
			"inputs": [
				{
					"internalType": "address",
					"name": "implementation",
					"type": "address"
				}
			],
			"name": "ERC1967InvalidImplementation",
			"type": "error"
		},
		{
			"inputs": [],
			"name": "ERC1967NonPayable",
			"type": "error"
		},
		{
			"inputs": [],
			"name": "FailedInnerCall",
			"type": "error"
		},
		{
			"inputs": [],
			"name": "InvalidInitialization",
			"type": "error"
		},
		{
			"inputs": [],
			"name": "NotInitializing",
			"type": "error"
		},
		{
			"inputs": [
				{
					"internalType": "address",
					"name": "owner",
					"type": "address"
				}
			],
			"name": "OwnableInvalidOwner",
			"type": "error"
		},
		{
			"inputs": [
				{
					"internalType": "address",
					"name": "account",
					"type": "address"
				}
			],
			"name": "OwnableUnauthorizedAccount",
			"type": "error"
		},
		{
			"inputs": [
				{
					"internalType": "uint256",
					"name": "value",
					"type": "uint256"
				},
				{
					"internalType": "uint256",
					"name": "length",
					"type": "uint256"
				}
			],
			"name": "StringsInsufficientHexLength",
			"type": "error"
		},
		{
			"inputs": [],
			"name": "UUPSUnauthorizedCallContext",
			"type": "error"
		},
		{
			"inputs": [
				{
					"internalType": "bytes32",
					"name": "slot",
					"type": "bytes32"
				}
			],
			"name": "UUPSUnsupportedProxiableUUID",
			"type": "error"
		},
		{
			"anonymous": false,
			"inputs": [
				{
					"indexed": true,
					"internalType": "address",
					"name": "account",
					"type": "address"
				},
				{
					"indexed": true,
					"internalType": "address",
					"name": "operator",
					"type": "address"
				},
				{
					"indexed": false,
					"internalType": "bool",
					"name": "approved",
					"type": "bool"
				}
			],
			"name": "ApprovalForAll",
			"type": "event"
		},
		{
			"anonymous": false,
			"inputs": [
				{
					"indexed": false,
					"internalType": "string",
					"name": "compositeId",
					"type": "string"
				},
				{
					"indexed": false,
					"internalType": "string[]",
					"name": "finalRanking",
					"type": "string[]"
				}
			],
			"name": "ConsensusReached",
			"type": "event"
		},
		{
			"anonymous": false,
			"inputs": [
				{
					"indexed": false,
					"internalType": "uint64",
					"name": "version",
					"type": "uint64"
				}
			],
			"name": "Initialized",
			"type": "event"
		},
		{
			"anonymous": false,
			"inputs": [
				{
					"indexed": true,
					"internalType": "address",
					"name": "previousOwner",
					"type": "address"
				},
				{
					"indexed": true,
					"internalType": "address",
					"name": "newOwner",
					"type": "address"
				}
			],
			"name": "OwnershipTransferred",
			"type": "event"
		},
		{
			"anonymous": false,
			"inputs": [
				{
					"indexed": false,
					"internalType": "string",
					"name": "eventId",
					"type": "string"
				},
				{
					"indexed": false,
					"internalType": "string[]",
					"name": "ranking",
					"type": "string[]"
				}
			],
			"name": "RankingSubmitted",
			"type": "event"
		},
		{
			"anonymous": false,
			"inputs": [
				{
					"indexed": true,
					"internalType": "address",
					"name": "operator",
					"type": "address"
				},
				{
					"indexed": true,
					"internalType": "address",
					"name": "from",
					"type": "address"
				},
				{
					"indexed": true,
					"internalType": "address",
					"name": "to",
					"type": "address"
				},
				{
					"indexed": false,
					"internalType": "uint256[]",
					"name": "ids",
					"type": "uint256[]"
				},
				{
					"indexed": false,
					"internalType": "uint256[]",
					"name": "values",
					"type": "uint256[]"
				}
			],
			"name": "TransferBatch",
			"type": "event"
		},
		{
			"anonymous": false,
			"inputs": [
				{
					"indexed": true,
					"internalType": "address",
					"name": "operator",
					"type": "address"
				},
				{
					"indexed": true,
					"internalType": "address",
					"name": "from",
					"type": "address"
				},
				{
					"indexed": true,
					"internalType": "address",
					"name": "to",
					"type": "address"
				},
				{
					"indexed": false,
					"internalType": "uint256",
					"name": "id",
					"type": "uint256"
				},
				{
					"indexed": false,
					"internalType": "uint256",
					"name": "value",
					"type": "uint256"
				}
			],
			"name": "TransferSingle",
			"type": "event"
		},
		{
			"anonymous": false,
			"inputs": [
				{
					"indexed": false,
					"internalType": "string",
					"name": "value",
					"type": "string"
				},
				{
					"indexed": true,
					"internalType": "uint256",
					"name": "id",
					"type": "uint256"
				}
			],
			"name": "URI",
			"type": "event"
		},
		{
			"anonymous": false,
			"inputs": [
				{
					"indexed": true,
					"internalType": "address",
					"name": "implementation",
					"type": "address"
				}
			],
			"name": "Upgraded",
			"type": "event"
		},
		{
			"inputs": [],
			"name": "UPGRADE_INTERFACE_VERSION",
			"outputs": [
				{
					"internalType": "string",
					"name": "",
					"type": "string"
				}
			],
			"stateMutability": "view",
			"type": "function"
		},
		{
			"inputs": [
				{
					"internalType": "address",
					"name": "account",
					"type": "address"
				},
				{
					"internalType": "uint256",
					"name": "id",
					"type": "uint256"
				}
			],
			"name": "balanceOf",
			"outputs": [
				{
					"internalType": "uint256",
					"name": "",
					"type": "uint256"
				}
			],
			"stateMutability": "view",
			"type": "function"
		},
		{
			"inputs": [
				{
					"internalType": "address[]",
					"name": "accounts",
					"type": "address[]"
				},
				{
					"internalType": "uint256[]",
					"name": "ids",
					"type": "uint256[]"
				}
			],
			"name": "balanceOfBatch",
			"outputs": [
				{
					"internalType": "uint256[]",
					"name": "",
					"type": "uint256[]"
				}
			],
			"stateMutability": "view",
			"type": "function"
		},
		{
			"inputs": [
				{
					"internalType": "uint256",
					"name": "",
					"type": "uint256"
				}
			],
			"name": "communityExists",
			"outputs": [
				{
					"internalType": "bool",
					"name": "",
					"type": "bool"
				}
			],
			"stateMutability": "view",
			"type": "function"
		},
		{
			"inputs": [],
			"name": "contributionsContract",
			"outputs": [
				{
					"internalType": "contract ICommunityGovernanceContributions",
					"name": "",
					"type": "address"
				}
			],
			"stateMutability": "view",
			"type": "function"
		},
		{
			"inputs": [
				{
					"internalType": "uint256",
					"name": "communityId",
					"type": "uint256"
				}
			],
			"name": "createCommunityToken",
			"outputs": [],
			"stateMutability": "nonpayable",
			"type": "function"
		},
		{
			"inputs": [
				{
					"internalType": "uint256",
					"name": "_communityId",
					"type": "uint256"
				},
				{
					"internalType": "uint256",
					"name": "_weekNumber",
					"type": "uint256"
				},
				{
					"internalType": "uint256",
					"name": "_groupId",
					"type": "uint256"
				}
			],
			"name": "determineConsensus",
			"outputs": [],
			"stateMutability": "nonpayable",
			"type": "function"
		},
		{
			"inputs": [
				{
					"internalType": "uint256",
					"name": "_communityId",
					"type": "uint256"
				},
				{
					"internalType": "uint256",
					"name": "_weekNumber",
					"type": "uint256"
				}
			],
			"name": "determineConsensusForAllGroups",
			"outputs": [],
			"stateMutability": "nonpayable",
			"type": "function"
		},
		{
			"inputs": [
				{
					"internalType": "address",
					"name": "initialOwner",
					"type": "address"
				}
			],
			"name": "initialize",
			"outputs": [],
			"stateMutability": "nonpayable",
			"type": "function"
		},
		{
			"inputs": [
				{
					"internalType": "address",
					"name": "account",
					"type": "address"
				},
				{
					"internalType": "address",
					"name": "operator",
					"type": "address"
				}
			],
			"name": "isApprovedForAll",
			"outputs": [
				{
					"internalType": "bool",
					"name": "",
					"type": "bool"
				}
			],
			"stateMutability": "view",
			"type": "function"
		},
		{
			"inputs": [],
			"name": "multisigContract",
			"outputs": [
				{
					"internalType": "contract ICommunityGovernanceMultiSig",
					"name": "",
					"type": "address"
				}
			],
			"stateMutability": "view",
			"type": "function"
		},
		{
			"inputs": [],
			"name": "owner",
			"outputs": [
				{
					"internalType": "address",
					"name": "",
					"type": "address"
				}
			],
			"stateMutability": "view",
			"type": "function"
		},
		{
			"inputs": [],
			"name": "profilesContract",
			"outputs": [
				{
					"internalType": "contract ICommunityGovernanceProfiles",
					"name": "",
					"type": "address"
				}
			],
			"stateMutability": "view",
			"type": "function"
		},
		{
			"inputs": [],
			"name": "proxiableUUID",
			"outputs": [
				{
					"internalType": "bytes32",
					"name": "",
					"type": "bytes32"
				}
			],
			"stateMutability": "view",
			"type": "function"
		},
		{
			"inputs": [],
			"name": "renounceOwnership",
			"outputs": [],
			"stateMutability": "nonpayable",
			"type": "function"
		},
		{
			"inputs": [
				{
					"internalType": "address",
					"name": "from",
					"type": "address"
				},
				{
					"internalType": "address",
					"name": "to",
					"type": "address"
				},
				{
					"internalType": "uint256[]",
					"name": "ids",
					"type": "uint256[]"
				},
				{
					"internalType": "uint256[]",
					"name": "values",
					"type": "uint256[]"
				},
				{
					"internalType": "bytes",
					"name": "data",
					"type": "bytes"
				}
			],
			"name": "safeBatchTransferFrom",
			"outputs": [],
			"stateMutability": "nonpayable",
			"type": "function"
		},
		{
			"inputs": [
				{
					"internalType": "address",
					"name": "from",
					"type": "address"
				},
				{
					"internalType": "address",
					"name": "to",
					"type": "address"
				},
				{
					"internalType": "uint256",
					"name": "id",
					"type": "uint256"
				},
				{
					"internalType": "uint256",
					"name": "value",
					"type": "uint256"
				},
				{
					"internalType": "bytes",
					"name": "data",
					"type": "bytes"
				}
			],
			"name": "safeTransferFrom",
			"outputs": [],
			"stateMutability": "nonpayable",
			"type": "function"
		},
		{
			"inputs": [
				{
					"internalType": "address",
					"name": "operator",
					"type": "address"
				},
				{
					"internalType": "bool",
					"name": "approved",
					"type": "bool"
				}
			],
			"name": "setApprovalForAll",
			"outputs": [],
			"stateMutability": "nonpayable",
			"type": "function"
		},
		{
			"inputs": [
				{
					"internalType": "address",
					"name": "_contributionsContractAddress",
					"type": "address"
				},
				{
					"internalType": "address",
					"name": "_profilesContractAddress",
					"type": "address"
				},
				{
					"internalType": "address",
					"name": "_multisigContractAddress",
					"type": "address"
				}
			],
			"name": "setContracts",
			"outputs": [],
			"stateMutability": "nonpayable",
			"type": "function"
		},
		{
			"inputs": [
				{
					"internalType": "uint256",
					"name": "_communityId",
					"type": "uint256"
				},
				{
					"internalType": "uint256",
					"name": "_weekNumber",
					"type": "uint256"
				},
				{
					"internalType": "uint256",
					"name": "_groupId",
					"type": "uint256"
				},
				{
					"internalType": "uint256[]",
					"name": "_ranking",
					"type": "uint256[]"
				}
			],
			"name": "submitRanking",
			"outputs": [],
			"stateMutability": "nonpayable",
			"type": "function"
		},
		{
			"inputs": [
				{
					"internalType": "bytes4",
					"name": "interfaceId",
					"type": "bytes4"
				}
			],
			"name": "supportsInterface",
			"outputs": [
				{
					"internalType": "bool",
					"name": "",
					"type": "bool"
				}
			],
			"stateMutability": "view",
			"type": "function"
		},
		{
			"inputs": [
				{
					"internalType": "address",
					"name": "newOwner",
					"type": "address"
				}
			],
			"name": "transferOwnership",
			"outputs": [],
			"stateMutability": "nonpayable",
			"type": "function"
		},
		{
			"inputs": [
				{
					"internalType": "address",
					"name": "newImplementation",
					"type": "address"
				},
				{
					"internalType": "bytes",
					"name": "data",
					"type": "bytes"
				}
			],
			"name": "upgradeToAndCall",
			"outputs": [],
			"stateMutability": "payable",
			"type": "function"
		},
		{
			"inputs": [
				{
					"internalType": "uint256",
					"name": "",
					"type": "uint256"
				}
			],
			"name": "uri",
			"outputs": [
				{
					"internalType": "string",
					"name": "",
					"type": "string"
				}
			],
			"stateMutability": "view",
			"type": "function"
		},
		{
			"inputs": [
				{
					"internalType": "uint256",
					"name": "",
					"type": "uint256"
				},
				{
					"internalType": "address",
					"name": "",
					"type": "address"
				}
			],
			"name": "userClaimableTokens",
			"outputs": [
				{
					"internalType": "uint256",
					"name": "amount",
					"type": "uint256"
				},
				{
					"internalType": "bool",
					"name": "claimed",
					"type": "bool"
				}
			],
			"stateMutability": "view",
			"type": "function"
		}
	]
}