{
	"data": {
		"bytecode": {
			"linkReferences": {},
			"object": "60a06040523073ffffffffffffffffffffffffffffffffffffffff1660809073ffffffffffffffffffffffffffffffffffffffff16815250348015610042575f80fd5b5061005161005660201b60201c565b6101b6565b5f61006561015460201b60201c565b9050805f0160089054906101000a900460ff16156100af576040517ff92ee8a900000000000000000000000000000000000000000000000000000000815260040160405180910390fd5b67ffffffffffffffff8016815f015f9054906101000a900467ffffffffffffffff1667ffffffffffffffff16146101515767ffffffffffffffff815f015f6101000a81548167ffffffffffffffff021916908367ffffffffffffffff1602179055507fc7f505b2f371ae2175ee4913f4499e1f2633a7b5936321eed1cdaeb6115181d267ffffffffffffffff604051610148919061019d565b60405180910390a15b50565b5f7ff0c57e16840df040f15088dc2f81fe391c3923bec73e23a9662efc9c229c6a00905090565b5f67ffffffffffffffff82169050919050565b6101978161017b565b82525050565b5f6020820190506101b05f83018461018e565b92915050565b608051615f2a6101dc5f395f8181611f3801528181611f8d01526121470152615f2a5ff3fe608060405260043610610113575f3560e01c8063771197d81161009f578063c45cfcf111610063578063c45cfcf114610371578063c4d66de8146103ad578063c56b4aed146103d5578063d91d9733146103fd578063f2fde38b1461043957610113565b8063771197d81461028f5780638da5cb5b146102b95780638ec2c82b146102e35780639807f9e81461031f578063ad3cb1cc1461034757610113565b806352d1902d116100e657806352d1902d146101c35780635ae25992146101ed578063690ec8d1146102155780636c331bd31461023d578063715018a61461027957610113565b806306428f021461011757806327a6acd1146101415780633722a0e81461017f5780634f1ef286146101a7575b5f80fd5b348015610122575f80fd5b5061012b610461565b6040516101389190614074565b60405180910390f35b34801561014c575f80fd5b506101676004803603810190610162919061410c565b610484565b60405161017693929190614210565b60405180910390f35b34801561018a575f80fd5b506101a560048036038101906101a09190614605565b610540565b005b6101c160048036038101906101bc91906146fd565b610a5d565b005b3480156101ce575f80fd5b506101d7610a7c565b6040516101e4919061476f565b60405180910390f35b3480156101f8575f80fd5b50610213600480360381019061020e9190614788565b610aad565b005b348015610220575f80fd5b5061023b60048036038101906102369190614788565b610d6f565b005b348015610248575f80fd5b50610263600480360381019061025e91906147b3565b611614565b604051610270919061498a565b60405180910390f35b348015610284575f80fd5b5061028d611717565b005b34801561029a575f80fd5b506102a361172a565b6040516102b09190614a6d565b60405180910390f35b3480156102c4575f80fd5b506102cd6117a4565b6040516102da9190614a9c565b60405180910390f35b3480156102ee575f80fd5b50610309600480360381019061030491906147b3565b6117d9565b6040516103169190614b21565b60405180910390f35b34801561032a575f80fd5b5061034560048036038101906103409190614b41565b611885565b005b348015610352575f80fd5b5061035b611897565b6040516103689190614c05565b60405180910390f35b34801561037c575f80fd5b5061039760048036038101906103929190614788565b6118d0565b6040516103a49190614c25565b60405180910390f35b3480156103b8575f80fd5b506103d360048036038101906103ce9190614c3e565b61197e565b005b3480156103e0575f80fd5b506103fb60048036038101906103f69190614c3e565b611b07565b005b348015610408575f80fd5b50610423600480360381019061041e919061410c565b611b51565b6040516104309190614c25565b60405180910390f35b348015610444575f80fd5b5061045f600480360381019061045a9190614c3e565b611baa565b005b5f8054906101000a900473ffffffffffffffffffffffffffffffffffffffff1681565b5f8060605f60015f8773ffffffffffffffffffffffffffffffffffffffff1673ffffffffffffffffffffffffffffffffffffffff1681526020019081526020015f205f8681526020019081526020015f20905080600301549350806004015492508060050180548060200260200160405190810160405280929190818152602001828054801561053157602002820191905f5260205f20905b81548152602001906001019080831161051d575b50505050509150509250925092565b5f805f8054906101000a900473ffffffffffffffffffffffffffffffffffffffff1673ffffffffffffffffffffffffffffffffffffffff16630b26ed7b33866040518363ffffffff1660e01b815260040161059c929190614c69565b5f60405180830381865afa1580156105b6573d5f803e3d5ffd5b505050506040513d5f823e3d601f19601f820116820180604052508101906105de9190614dad565b50915091505f82141580156105f05750805b61062f576040517f08c379a000000000000000000000000000000000000000000000000000000000815260040161062690614e63565b60405180910390fd5b5f805f8054906101000a900473ffffffffffffffffffffffffffffffffffffffff1673ffffffffffffffffffffffffffffffffffffffff166399664245876040518263ffffffff1660e01b81526004016106899190614c25565b5f60405180830381865afa1580156106a3573d5f803e3d5ffd5b505050506040513d5f823e3d601f19601f820116820180604052508101906106cb9190614f12565b509650965050505050505f60018111156106e8576106e7615017565b5b8260018111156106fb576106fa615017565b5b1461073b576040517f08c379a0000000000000000000000000000000000000000000000000000000008152600401610732906150b4565b60405180910390fd5b5f805b60025f8981526020019081526020015f205f8481526020019081526020015f208054905081101561080b573373ffffffffffffffffffffffffffffffffffffffff1660025f8a81526020019081526020015f205f8581526020019081526020015f2082815481106107b2576107b16150d2565b5b905f5260205f20015f9054906101000a900473ffffffffffffffffffffffffffffffffffffffff1673ffffffffffffffffffffffffffffffffffffffff16036107fe576001915061080b565b808060010191505061073e565b50806108905760025f8881526020019081526020015f205f8381526020019081526020015f2033908060018154018082558091505060019003905f5260205f20015f9091909190916101000a81548173ffffffffffffffffffffffffffffffffffffffff021916908373ffffffffffffffffffffffffffffffffffffffff1602179055505b5f60015f3373ffffffffffffffffffffffffffffffffffffffff1673ffffffffffffffffffffffffffffffffffffffff1681526020019081526020015f205f8981526020019081526020015f2090505f815f0154036108f25787815f01819055505b5f816001015f8581526020019081526020015f20905083815f0181905550806001015f61091f9190613d7d565b5f5b88518110156109c55781600101898281518110610941576109406150d2565b5b6020026020010151908060018154018082558091505060019003905f5260205f2090600302015f909190919091505f820151815f01908161098291906152f0565b50602082015181600101908161099891906152f0565b5060408201518160020190805190602001906109b5929190613d9e565b5050508080600101915050610921565b507f393bdeefac87eb08d07626f5e70477dca70b59bf28337db85906d137fabd818f6109f08a611c2e565b6109f986611c2e565b610a1a3373ffffffffffffffffffffffffffffffffffffffff166014611cf8565b604051602001610a2c9392919061548d565b60405160208183030381529060405289604051610a4a9291906156f7565b60405180910390a1505050505050505050565b610a65611f36565b610a6e8261201c565b610a788282612027565b5050565b5f610a85612145565b7f360894a13ba1a3210667c828492db98dca3e2076cc3735a920a3ca505d382bbc5f1b905090565b5f805f9054906101000a900473ffffffffffffffffffffffffffffffffffffffff1673ffffffffffffffffffffffffffffffffffffffff166399664245836040518263ffffffff1660e01b8152600401610b079190614c25565b5f60405180830381865afa158015610b21573d5f803e3d5ffd5b505050506040513d5f823e3d601f19601f82011682018060405250810190610b499190614f12565b5096505050505050505f805f9054906101000a900473ffffffffffffffffffffffffffffffffffffffff1673ffffffffffffffffffffffffffffffffffffffff16637199ee48846040518263ffffffff1660e01b8152600401610bac9190614c25565b5f60405180830381865afa158015610bc6573d5f803e3d5ffd5b505050506040513d5f823e3d601f19601f82011682018060405250810190610bee91906157df565b5090505f60025f8581526020019081526020015f205f600185610c119190615882565b81526020019081526020015f20805480602002602001604051908101604052809291908181526020018280548015610c9b57602002820191905f5260205f20905b815f9054906101000a900473ffffffffffffffffffffffffffffffffffffffff1673ffffffffffffffffffffffffffffffffffffffff1681526020019060010190808311610c52575b505050505090505f5b8251811015610d68575f838281518110610cc157610cc06150d2565b5b602002602001015190505f805b8451811015610d3a57848181518110610cea57610ce96150d2565b5b602002602001015173ffffffffffffffffffffffffffffffffffffffff168373ffffffffffffffffffffffffffffffffffffffff1603610d2d5760019150610d3a565b8080600101915050610cce565b5080610d5957610d588783600189610d529190615882565b5f6121cc565b5b50508080600101915050610ca4565b5050505050565b5f805f8054906101000a900473ffffffffffffffffffffffffffffffffffffffff1673ffffffffffffffffffffffffffffffffffffffff166399664245846040518263ffffffff1660e01b8152600401610dc99190614c25565b5f60405180830381865afa158015610de3573d5f803e3d5ffd5b505050506040513d5f823e3d601f19601f82011682018060405250810190610e0b9190614f12565b50965096505050505050600180811115610e2857610e27615017565b5b826001811115610e3b57610e3a615017565b5b14610e7b576040517f08c379a0000000000000000000000000000000000000000000000000000000008152600401610e72906158ff565b60405180910390fd5b5f60025f8581526020019081526020015f205f8381526020019081526020015f20805480602002602001604051908101604052809291908181526020018280548015610f1957602002820191905f5260205f20905b815f9054906101000a900473ffffffffffffffffffffffffffffffffffffffff1673ffffffffffffffffffffffffffffffffffffffff1681526020019060010190808311610ed0575b505050505090505f815111610f63576040517f08c379a0000000000000000000000000000000000000000000000000000000008152600401610f5a90615967565b60405180910390fd5b610f6c81612398565b5f610f7782516124dd565b90505f815167ffffffffffffffff811115610f9557610f94614260565b5b604051908082528060200260200182016040528015610fc857816020015b6060815260200190600190039081610fb35790505b5090505f825167ffffffffffffffff811115610fe757610fe6614260565b5b60405190808252806020026020018201604052801561101a57816020015b60608152602001906001900390816110055790505b5090505f805b845181101561157c575f85828151811061103d5761103c6150d2565b5b602002602001015160ff1667ffffffffffffffff81111561106157611060614260565b5b60405190808252806020026020018201604052801561108f5781602001602082028036833780820191505090505b5090505f8683815181106110a6576110a56150d2565b5b602002602001015160ff1667ffffffffffffffff8111156110ca576110c9614260565b5b6040519080825280602002602001820160405280156110fd57816020015b60608152602001906001900390816110e85790505b5090505f878481518110611114576111136150d2565b5b602002602001015160ff1667ffffffffffffffff81111561113857611137614260565b5b60405190808252806020026020018201604052801561116b57816020015b60608152602001906001900390816111565790505b5090505f888581518110611182576111816150d2565b5b602002602001015160ff1667ffffffffffffffff8111156111a6576111a5614260565b5b6040519080825280602002602001820160405280156111d957816020015b60608152602001906001900390816111c45790505b5090505f5b8986815181106111f1576111f06150d2565b5b602002602001015160ff168110801561120a57508a5187105b156113df578a8781518110611222576112216150d2565b5b602002602001015185828151811061123d5761123c6150d2565b5b602002602001019073ffffffffffffffffffffffffffffffffffffffff16908173ffffffffffffffffffffffffffffffffffffffff16815250505f6112818f611c2e565b61128a8e611c2e565b6112c58e8b815181106112a05761129f6150d2565b5b602002602001015173ffffffffffffffffffffffffffffffffffffffff166014611cf8565b6040516020016112d793929190615985565b6040516020818303038152906040529050806040516020016112f991906159cb565b60405160208183030381529060405285838151811061131b5761131a6150d2565b5b6020026020010181905250806040516020016113379190615a36565b604051602081830303815290604052848381518110611359576113586150d2565b5b602002602001018190525061139f8c898151811061137a576113796150d2565b5b602002602001015173ffffffffffffffffffffffffffffffffffffffff166014611cf8565b8383815181106113b2576113b16150d2565b5b602002602001018190525087806113c890615a57565b9850505080806113d790615a57565b9150506111de565b5060035f8e81526020019081526020015f205f8c81526020019081526020015f20604051806020016040528086815250908060018154018082558091505060019003905f5260205f20015f909190919091505f820151815f01908051906020019061144b929190613df5565b5050507f50f27c97e1d470f268640fb65651cb218b205faa1e09edd7271dd70a0069f5a86114788e611c2e565b6114818d611c2e565b6114966001896114919190615a9e565b611c2e565b6040516020016114a893929190615985565b6040516020818303038152906040528484846040516114ca9493929190615b54565b60405180910390a16114e76001866114e29190615a9e565b611c2e565b8886815181106114fa576114f96150d2565b5b602002602001018190525061150e8d611c2e565b6115178c611c2e565b61152c6001886115279190615a9e565b611c2e565b60405160200161153e93929190615985565b6040516020818303038152906040528786815181106115605761155f6150d2565b5b6020026020010181905250505050508080600101915050611020565b508360049080519060200190611593929190613e7c565b507fe9652a9b8d8f8d6a5a2ec24874d02e726ab9fb60b5887be28f4540b3d50320146115be89611c2e565b6115c788611c2e565b6040516020016115d8929190615bb3565b60405160208183030381529060405284846115f28a611c2e565b6040516116029493929190615be1565b60405180910390a15050505050505050565b606060035f8481526020019081526020015f205f8381526020019081526020015f20805480602002602001604051908101604052809291908181526020015f905b8282101561170b578382905f5260205f20016040518060200160405290815f82018054806020026020016040519081016040528092919081815260200182805480156116f357602002820191905f5260205f20905b815f9054906101000a900473ffffffffffffffffffffffffffffffffffffffff1673ffffffffffffffffffffffffffffffffffffffff16815260200190600101908083116116aa575b50505050508152505081526020019060010190611655565b50505050905092915050565b61171f612507565b6117285f61258e565b565b6060600480548060200260200160405190810160405280929190818152602001828054801561179a57602002820191905f5260205f20905f905b82829054906101000a900460ff1660ff16815260200190600101906020825f010492830192600103820291508084116117645790505b5050505050905090565b5f806117ae61265f565b9050805f015f9054906101000a900473ffffffffffffffffffffffffffffffffffffffff1691505090565b606060025f8481526020019081526020015f205f8381526020019081526020015f2080548060200260200160405190810160405280929190818152602001828054801561187857602002820191905f5260205f20905b815f9054906101000a900473ffffffffffffffffffffffffffffffffffffffff1673ffffffffffffffffffffffffffffffffffffffff168152602001906001019080831161182f575b5050505050905092915050565b611891848484846121cc565b50505050565b6040518060400160405280600581526020017f352e302e3000000000000000000000000000000000000000000000000000000081525081565b5f805f8054906101000a900473ffffffffffffffffffffffffffffffffffffffff1673ffffffffffffffffffffffffffffffffffffffff166399664245846040518263ffffffff1660e01b815260040161192a9190614c25565b5f60405180830381865afa158015611944573d5f803e3d5ffd5b505050506040513d5f823e3d601f19601f8201168201806040525081019061196c9190614f12565b50965050505050505080915050919050565b5f611987612686565b90505f815f0160089054906101000a900460ff161590505f825f015f9054906101000a900467ffffffffffffffff1690505f808267ffffffffffffffff161480156119cf5750825b90505f60018367ffffffffffffffff16148015611a0257505f3073ffffffffffffffffffffffffffffffffffffffff163b145b905081158015611a10575080155b15611a47576040517ff92ee8a900000000000000000000000000000000000000000000000000000000815260040160405180910390fd5b6001855f015f6101000a81548167ffffffffffffffff021916908367ffffffffffffffff1602179055508315611a94576001855f0160086101000a81548160ff0219169083151502179055505b611a9d866126ad565b611aa56126c1565b8315611aff575f855f0160086101000a81548160ff0219169083151502179055507fc7f505b2f371ae2175ee4913f4499e1f2633a7b5936321eed1cdaeb6115181d26001604051611af69190615c8c565b60405180910390a15b505050505050565b611b0f612507565b805f806101000a81548173ffffffffffffffffffffffffffffffffffffffff021916908373ffffffffffffffffffffffffffffffffffffffff16021790555050565b5f60015f8473ffffffffffffffffffffffffffffffffffffffff1673ffffffffffffffffffffffffffffffffffffffff1681526020019081526020015f205f8381526020019081526020015f2060040154905092915050565b611bb2612507565b5f73ffffffffffffffffffffffffffffffffffffffff168173ffffffffffffffffffffffffffffffffffffffff1603611c22575f6040517f1e4fbdf7000000000000000000000000000000000000000000000000000000008152600401611c199190614a9c565b60405180910390fd5b611c2b8161258e565b50565b60605f6001611c3c846126cb565b0190505f8167ffffffffffffffff811115611c5a57611c59614260565b5b6040519080825280601f01601f191660200182016040528015611c8c5781602001600182028036833780820191505090505b5090505f82602001820190505b600115611ced578080600190039150507f3031323334353637383961626364656600000000000000000000000000000000600a86061a8153600a8581611ce257611ce1615ca5565b5b0494505f8503611c99575b819350505050919050565b60605f8390505f6002846002611d0e9190615cd2565b611d189190615a9e565b67ffffffffffffffff811115611d3157611d30614260565b5b6040519080825280601f01601f191660200182016040528015611d635781602001600182028036833780820191505090505b5090507f3000000000000000000000000000000000000000000000000000000000000000815f81518110611d9a57611d996150d2565b5b60200101907effffffffffffffffffffffffffffffffffffffffffffffffffffffffffffff191690815f1a9053507f780000000000000000000000000000000000000000000000000000000000000081600181518110611dfd57611dfc6150d2565b5b60200101907effffffffffffffffffffffffffffffffffffffffffffffffffffffffffffff191690815f1a9053505f6001856002611e3b9190615cd2565b611e459190615a9e565b90505b6001811115611ee4577f3031323334353637383961626364656600000000000000000000000000000000600f841660108110611e8757611e866150d2565b5b1a60f81b828281518110611e9e57611e9d6150d2565b5b60200101907effffffffffffffffffffffffffffffffffffffffffffffffffffffffffffff191690815f1a905350600483901c925080611edd90615d13565b9050611e48565b505f8214611f2b5784846040517fe22e27eb000000000000000000000000000000000000000000000000000000008152600401611f22929190615d3a565b60405180910390fd5b809250505092915050565b7f000000000000000000000000000000000000000000000000000000000000000073ffffffffffffffffffffffffffffffffffffffff163073ffffffffffffffffffffffffffffffffffffffff161480611fe357507f000000000000000000000000000000000000000000000000000000000000000073ffffffffffffffffffffffffffffffffffffffff16611fca61281c565b73ffffffffffffffffffffffffffffffffffffffff1614155b1561201a576040517fe07c8dba00000000000000000000000000000000000000000000000000000000815260040160405180910390fd5b565b612024612507565b50565b8173ffffffffffffffffffffffffffffffffffffffff166352d1902d6040518163ffffffff1660e01b8152600401602060405180830381865afa92505050801561208f57506040513d601f19601f8201168201806040525081019061208c9190615d8b565b60015b6120d057816040517f4c9c8ce30000000000000000000000000000000000000000000000000000000081526004016120c79190614a9c565b60405180910390fd5b7f360894a13ba1a3210667c828492db98dca3e2076cc3735a920a3ca505d382bbc5f1b811461213657806040517faa1d49a400000000000000000000000000000000000000000000000000000000815260040161212d919061476f565b60405180910390fd5b612140838361286f565b505050565b7f000000000000000000000000000000000000000000000000000000000000000073ffffffffffffffffffffffffffffffffffffffff163073ffffffffffffffffffffffffffffffffffffffff16146121ca576040517fe07c8dba00000000000000000000000000000000000000000000000000000000815260040160405180910390fd5b565b5f60015f8573ffffffffffffffffffffffffffffffffffffffff1673ffffffffffffffffffffffffffffffffffffffff1681526020019081526020015f205f8681526020019081526020015f2090505f816001015f8581526020019081526020015f2090505f6103e8846122409190615cd2565b905080826002018190555080836003015f82825461225e9190615a9e565b92505081905550600c836005018054905010156122a2578260050181908060018154018082558091505060019003905f5260205f20015f909190919091505561232d565b5f5b600b81101561230757836005016001826122be9190615a9e565b815481106122cf576122ce6150d2565b5b905f5260205f2001548460050182815481106122ee576122ed6150d2565b5b905f5260205f20018190555080806001019150506122a4565b508083600501600b815481106123205761231f6150d2565b5b905f5260205f2001819055505b61233787876128e1565b8573ffffffffffffffffffffffffffffffffffffffff167f037a607a509f5f08767b51cd8af23a33ac0563c64da64b78ef9ca4f152cd188e84600301548560040154604051612387929190615d3a565b60405180910390a250505050505050565b5f600182516123a79190615882565b90505b5f8111156124d9575f6001826123c09190615a9e565b4244846040516020016123d593929190615dd6565b604051602081830303815290604052805190602001205f1c6123f79190615e12565b905082818151811061240c5761240b6150d2565b5b6020026020010151838381518110612427576124266150d2565b5b6020026020010151848481518110612442576124416150d2565b5b6020026020010185848151811061245c5761245b6150d2565b5b602002602001018273ffffffffffffffffffffffffffffffffffffffff1673ffffffffffffffffffffffffffffffffffffffff168152508273ffffffffffffffffffffffffffffffffffffffff1673ffffffffffffffffffffffffffffffffffffffff1681525050505080806124d190615d13565b9150506123aa565b5050565b606060148211156124f6576124f18261299c565b612500565b6124ff82612aef565b5b9050919050565b61250f613a35565b73ffffffffffffffffffffffffffffffffffffffff1661252d6117a4565b73ffffffffffffffffffffffffffffffffffffffff161461258c57612550613a35565b6040517f118cdaa70000000000000000000000000000000000000000000000000000000081526004016125839190614a9c565b60405180910390fd5b565b5f61259761265f565b90505f815f015f9054906101000a900473ffffffffffffffffffffffffffffffffffffffff16905082825f015f6101000a81548173ffffffffffffffffffffffffffffffffffffffff021916908373ffffffffffffffffffffffffffffffffffffffff1602179055508273ffffffffffffffffffffffffffffffffffffffff168173ffffffffffffffffffffffffffffffffffffffff167f8be0079c531659141344cd1fd0a4f28419497f9722a3daafe3b4186f6b6457e060405160405180910390a3505050565b5f7f9016d09d72d40fdae2fd8ceac6b6234c7706214fd39c1cd1e609a0528c199300905090565b5f7ff0c57e16840df040f15088dc2f81fe391c3923bec73e23a9662efc9c229c6a00905090565b6126b5613a3c565b6126be81613a7c565b50565b6126c9613a3c565b565b5f805f90507a184f03e93ff9f4daa797ed6e38ed64bf6a1f0100000000000000008310612727577a184f03e93ff9f4daa797ed6e38ed64bf6a1f010000000000000000838161271d5761271c615ca5565b5b0492506040810190505b6d04ee2d6d415b85acef81000000008310612764576d04ee2d6d415b85acef8100000000838161275a57612759615ca5565b5b0492506020810190505b662386f26fc10000831061279357662386f26fc10000838161278957612788615ca5565b5b0492506010810190505b6305f5e10083106127bc576305f5e10083816127b2576127b1615ca5565b5b0492506008810190505b61271083106127e15761271083816127d7576127d6615ca5565b5b0492506004810190505b6064831061280457606483816127fa576127f9615ca5565b5b0492506002810190505b600a8310612813576001810190505b80915050919050565b5f6128487f360894a13ba1a3210667c828492db98dca3e2076cc3735a920a3ca505d382bbc5f1b613b00565b5f015f9054906101000a900473ffffffffffffffffffffffffffffffffffffffff16905090565b61287882613b09565b8173ffffffffffffffffffffffffffffffffffffffff167fbc7cd75a20ee27fd9adebab32041f755214dbc6bffa90cc0225b39da2e5c2d3b60405160405180910390a25f815111156128d4576128ce8282613bd2565b506128dd565b6128dc613c52565b5b5050565b5f60015f8373ffffffffffffffffffffffffffffffffffffffff1673ffffffffffffffffffffffffffffffffffffffff1681526020019081526020015f205f8481526020019081526020015f2090505f80826005018054905090505f5b8181101561297f5783600501818154811061295c5761295b6150d2565b5b905f5260205f200154836129709190615a9e565b9250808060010191505061293e565b50600c8261298d9190615e42565b83600401819055505050505050565b60605f60066005846129ae9190615a9e565b6129b89190615e42565b67ffffffffffffffff8111156129d1576129d0614260565b5b6040519080825280602002602001820160405280156129ff5781602001602082028036833780820191505090505b5090505f805b5f851115612ae1575f600686612a1b9190615e12565b14158015612a2c575060058160ff16105b15612a88576005838380612a3f90615a57565b945081518110612a5257612a516150d2565b5b602002602001019060ff16908160ff1681525050600585612a739190615882565b94508080612a8090615e72565b915050612adc565b6006838380612a9690615a57565b945081518110612aa957612aa86150d2565b5b602002602001019060ff16908160ff1681525050600685612aca9190615882565b945060058160ff1603612adb575f90505b5b612a05565b818352829350505050919050565b60608060018303612b4b57600167ffffffffffffffff811115612b1557612b14614260565b5b604051908082528060200260200182016040528015612b435781602001602082028036833780820191505090505b5090506131f5565b60028303612ba457600167ffffffffffffffff811115612b6e57612b6d614260565b5b604051908082528060200260200182016040528015612b9c5781602001602082028036833780820191505090505b5090506131f4565b60038303612bfd57600167ffffffffffffffff811115612bc757612bc6614260565b5b604051908082528060200260200182016040528015612bf55781602001602082028036833780820191505090505b5090506131f3565b60048303612c5657600167ffffffffffffffff811115612c2057612c1f614260565b5b604051908082528060200260200182016040528015612c4e5781602001602082028036833780820191505090505b5090506131f2565b60058303612caf57600167ffffffffffffffff811115612c7957612c78614260565b5b604051908082528060200260200182016040528015612ca75781602001602082028036833780820191505090505b5090506131f1565b60068303612d0857600167ffffffffffffffff811115612cd257612cd1614260565b5b604051908082528060200260200182016040528015612d005781602001602082028036833780820191505090505b5090506131f0565b60078303612d6157600267ffffffffffffffff811115612d2b57612d2a614260565b5b604051908082528060200260200182016040528015612d595781602001602082028036833780820191505090505b5090506131ef565b60088303612dba57600267ffffffffffffffff811115612d8457612d83614260565b5b604051908082528060200260200182016040528015612db25781602001602082028036833780820191505090505b5090506131ee565b60098303612e1357600267ffffffffffffffff811115612ddd57612ddc614260565b5b604051908082528060200260200182016040528015612e0b5781602001602082028036833780820191505090505b5090506131ed565b600a8303612e6c57600267ffffffffffffffff811115612e3657612e35614260565b5b604051908082528060200260200182016040528015612e645781602001602082028036833780820191505090505b5090506131ec565b600b8303612ec557600267ffffffffffffffff811115612e8f57612e8e614260565b5b604051908082528060200260200182016040528015612ebd5781602001602082028036833780820191505090505b5090506131eb565b600c8303612f1e57600267ffffffffffffffff811115612ee857612ee7614260565b5b604051908082528060200260200182016040528015612f165781602001602082028036833780820191505090505b5090506131ea565b600d8303612f7757600367ffffffffffffffff811115612f4157612f40614260565b5b604051908082528060200260200182016040528015612f6f5781602001602082028036833780820191505090505b5090506131e9565b600e8303612fd057600367ffffffffffffffff811115612f9a57612f99614260565b5b604051908082528060200260200182016040528015612fc85781602001602082028036833780820191505090505b5090506131e8565b600f830361302957600367ffffffffffffffff811115612ff357612ff2614260565b5b6040519080825280602002602001820160405280156130215781602001602082028036833780820191505090505b5090506131e7565b6010830361308257600367ffffffffffffffff81111561304c5761304b614260565b5b60405190808252806020026020018201604052801561307a5781602001602082028036833780820191505090505b5090506131e6565b601183036130db57600367ffffffffffffffff8111156130a5576130a4614260565b5b6040519080825280602002602001820160405280156130d35781602001602082028036833780820191505090505b5090506131e5565b6012830361313457600367ffffffffffffffff8111156130fe576130fd614260565b5b60405190808252806020026020018201604052801561312c5781602001602082028036833780820191505090505b5090506131e4565b6013830361318d57600467ffffffffffffffff81111561315757613156614260565b5b6040519080825280602002602001820160405280156131855781602001602082028036833780820191505090505b5090506131e3565b601483036131e257600467ffffffffffffffff8111156131b0576131af614260565b5b6040519080825280602002602001820160405280156131de5781602001602082028036833780820191505090505b5090505b5b5b5b5b5b5b5b5b5b5b5b5b5b5b5b5b5b5b5b6001830361322b576001815f81518110613212576132116150d2565b5b602002602001019060ff16908160ff1681525050613a2c565b60028303613261576002815f81518110613248576132476150d2565b5b602002602001019060ff16908160ff1681525050613a2b565b60038303613297576003815f8151811061327e5761327d6150d2565b5b602002602001019060ff16908160ff1681525050613a2a565b600483036132cd576004815f815181106132b4576132b36150d2565b5b602002602001019060ff16908160ff1681525050613a29565b60058303613303576005815f815181106132ea576132e96150d2565b5b602002602001019060ff16908160ff1681525050613a28565b60068303613339576006815f815181106133205761331f6150d2565b5b602002602001019060ff16908160ff1681525050613a27565b60078303613399576003815f81518110613356576133556150d2565b5b602002602001019060ff16908160ff16815250506004816001815181106133805761337f6150d2565b5b602002602001019060ff16908160ff1681525050613a26565b600883036133f9576004815f815181106133b6576133b56150d2565b5b602002602001019060ff16908160ff16815250506004816001815181106133e0576133df6150d2565b5b602002602001019060ff16908160ff1681525050613a25565b60098303613459576005815f81518110613416576134156150d2565b5b602002602001019060ff16908160ff16815250506004816001815181106134405761343f6150d2565b5b602002602001019060ff16908160ff1681525050613a24565b600a83036134b9576005815f81518110613476576134756150d2565b5b602002602001019060ff16908160ff16815250506005816001815181106134a05761349f6150d2565b5b602002602001019060ff16908160ff1681525050613a23565b600b8303613519576005815f815181106134d6576134d56150d2565b5b602002602001019060ff16908160ff1681525050600681600181518110613500576134ff6150d2565b5b602002602001019060ff16908160ff1681525050613a22565b600c8303613579576006815f81518110613536576135356150d2565b5b602002602001019060ff16908160ff16815250506006816001815181106135605761355f6150d2565b5b602002602001019060ff16908160ff1681525050613a21565b600d8303613603576005815f81518110613596576135956150d2565b5b602002602001019060ff16908160ff16815250506004816001815181106135c0576135bf6150d2565b5b602002602001019060ff16908160ff16815250506004816002815181106135ea576135e96150d2565b5b602002602001019060ff16908160ff1681525050613a20565b600e830361368d576005815f815181106136205761361f6150d2565b5b602002602001019060ff16908160ff168152505060058160018151811061364a576136496150d2565b5b602002602001019060ff16908160ff1681525050600481600281518110613674576136736150d2565b5b602002602001019060ff16908160ff1681525050613a1f565b600f8303613717576005815f815181106136aa576136a96150d2565b5b602002602001019060ff16908160ff16815250506005816001815181106136d4576136d36150d2565b5b602002602001019060ff16908160ff16815250506005816002815181106136fe576136fd6150d2565b5b602002602001019060ff16908160ff1681525050613a1e565b601083036137a1576006815f81518110613734576137336150d2565b5b602002602001019060ff16908160ff168152505060058160018151811061375e5761375d6150d2565b5b602002602001019060ff16908160ff1681525050600581600281518110613788576137876150d2565b5b602002602001019060ff16908160ff1681525050613a1d565b6011830361382b576006815f815181106137be576137bd6150d2565b5b602002602001019060ff16908160ff16815250506006816001815181106137e8576137e76150d2565b5b602002602001019060ff16908160ff1681525050600581600281518110613812576138116150d2565b5b602002602001019060ff16908160ff1681525050613a1c565b601283036138b5576006815f81518110613848576138476150d2565b5b602002602001019060ff16908160ff1681525050600681600181518110613872576138716150d2565b5b602002602001019060ff16908160ff168152505060068160028151811061389c5761389b6150d2565b5b602002602001019060ff16908160ff1681525050613a1b565b60138303613969576005815f815181106138d2576138d16150d2565b5b602002602001019060ff16908160ff16815250506005816001815181106138fc576138fb6150d2565b5b602002602001019060ff16908160ff1681525050600581600281518110613926576139256150d2565b5b602002602001019060ff16908160ff16815250506004816003815181106139505761394f6150d2565b5b602002602001019060ff16908160ff1681525050613a1a565b60148303613a19576005815f81518110613986576139856150d2565b5b602002602001019060ff16908160ff16815250506005816001815181106139b0576139af6150d2565b5b602002602001019060ff16908160ff16815250506005816002815181106139da576139d96150d2565b5b602002602001019060ff16908160ff1681525050600581600381518110613a0457613a036150d2565b5b602002602001019060ff16908160ff16815250505b5b5b5b5b5b5b5b5b5b5b5b5b5b5b5b5b5b5b5b80915050919050565b5f33905090565b613a44613c8e565b613a7a576040517fd7e6bcf800000000000000000000000000000000000000000000000000000000815260040160405180910390fd5b565b613a84613a3c565b5f73ffffffffffffffffffffffffffffffffffffffff168173ffffffffffffffffffffffffffffffffffffffff1603613af4575f6040517f1e4fbdf7000000000000000000000000000000000000000000000000000000008152600401613aeb9190614a9c565b60405180910390fd5b613afd8161258e565b50565b5f819050919050565b5f8173ffffffffffffffffffffffffffffffffffffffff163b03613b6457806040517f4c9c8ce3000000000000000000000000000000000000000000000000000000008152600401613b5b9190614a9c565b60405180910390fd5b80613b907f360894a13ba1a3210667c828492db98dca3e2076cc3735a920a3ca505d382bbc5f1b613b00565b5f015f6101000a81548173ffffffffffffffffffffffffffffffffffffffff021916908373ffffffffffffffffffffffffffffffffffffffff16021790555050565b60605f808473ffffffffffffffffffffffffffffffffffffffff1684604051613bfb9190615ede565b5f60405180830381855af49150503d805f8114613c33576040519150601f19603f3d011682016040523d82523d5f602084013e613c38565b606091505b5091509150613c48858383613cac565b9250505092915050565b5f341115613c8c576040517fb398979f00000000000000000000000000000000000000000000000000000000815260040160405180910390fd5b565b5f613c97612686565b5f0160089054906101000a900460ff16905090565b606082613cc157613cbc82613d39565b613d31565b5f8251148015613ce757505f8473ffffffffffffffffffffffffffffffffffffffff163b145b15613d2957836040517f9996b315000000000000000000000000000000000000000000000000000000008152600401613d209190614a9c565b60405180910390fd5b819050613d32565b5b9392505050565b5f81511115613d4b5780518082602001fd5b6040517f1425ea4200000000000000000000000000000000000000000000000000000000815260040160405180910390fd5b5080545f8255600302905f5260205f2090810190613d9b9190613f1e565b50565b828054828255905f5260205f20908101928215613de4579160200282015b82811115613de3578251829081613dd391906152f0565b5091602001919060010190613dbc565b5b509050613df19190613f61565b5090565b828054828255905f5260205f20908101928215613e6b579160200282015b82811115613e6a578251825f6101000a81548173ffffffffffffffffffffffffffffffffffffffff021916908373ffffffffffffffffffffffffffffffffffffffff16021790555091602001919060010190613e13565b5b509050613e789190613f84565b5090565b828054828255905f5260205f2090601f01602090048101928215613f0d579160200282015f5b83821115613edf57835183826101000a81548160ff021916908360ff16021790555092602001926001016020815f01049283019260010302613ea2565b8015613f0b5782816101000a81549060ff02191690556001016020815f01049283019260010302613edf565b505b509050613f1a9190613f84565b5090565b5b80821115613f5d575f8082015f613f369190613f9f565b600182015f613f459190613f9f565b600282015f613f549190613fdc565b50600301613f1f565b5090565b5b80821115613f80575f8181613f779190613f9f565b50600101613f62565b5090565b5b80821115613f9b575f815f905550600101613f85565b5090565b508054613fab9061512c565b5f825580601f10613fbc5750613fd9565b601f0160209004905f5260205f2090810190613fd89190613f84565b5b50565b5080545f8255905f5260205f2090810190613ff79190613f61565b50565b5f73ffffffffffffffffffffffffffffffffffffffff82169050919050565b5f819050919050565b5f61403c61403761403284613ffa565b614019565b613ffa565b9050919050565b5f61404d82614022565b9050919050565b5f61405e82614043565b9050919050565b61406e81614054565b82525050565b5f6020820190506140875f830184614065565b92915050565b5f604051905090565b5f80fd5b5f80fd5b5f6140a882613ffa565b9050919050565b6140b88161409e565b81146140c2575f80fd5b50565b5f813590506140d3816140af565b92915050565b5f819050919050565b6140eb816140d9565b81146140f5575f80fd5b50565b5f81359050614106816140e2565b92915050565b5f806040838503121561412257614121614096565b5b5f61412f858286016140c5565b9250506020614140858286016140f8565b9150509250929050565b614153816140d9565b82525050565b5f81519050919050565b5f82825260208201905092915050565b5f819050602082019050919050565b61418b816140d9565b82525050565b5f61419c8383614182565b60208301905092915050565b5f602082019050919050565b5f6141be82614159565b6141c88185614163565b93506141d383614173565b805f5b838110156142035781516141ea8882614191565b97506141f5836141a8565b9250506001810190506141d6565b5085935050505092915050565b5f6060820190506142235f83018661414a565b614230602083018561414a565b818103604083015261424281846141b4565b9050949350505050565b5f80fd5b5f601f19601f8301169050919050565b7f4e487b71000000000000000000000000000000000000000000000000000000005f52604160045260245ffd5b61429682614250565b810181811067ffffffffffffffff821117156142b5576142b4614260565b5b80604052505050565b5f6142c761408d565b90506142d3828261428d565b919050565b5f67ffffffffffffffff8211156142f2576142f1614260565b5b602082029050602081019050919050565b5f80fd5b5f80fd5b5f80fd5b5f80fd5b5f67ffffffffffffffff82111561432d5761432c614260565b5b61433682614250565b9050602081019050919050565b828183375f83830152505050565b5f61436361435e84614313565b6142be565b90508281526020810184848401111561437f5761437e61430f565b5b61438a848285614343565b509392505050565b5f82601f8301126143a6576143a561424c565b5b81356143b6848260208601614351565b91505092915050565b5f67ffffffffffffffff8211156143d9576143d8614260565b5b602082029050602081019050919050565b5f6143fc6143f7846143bf565b6142be565b9050808382526020820190506020840283018581111561441f5761441e614303565b5b835b8181101561446657803567ffffffffffffffff8111156144445761444361424c565b5b8086016144518982614392565b85526020850194505050602081019050614421565b5050509392505050565b5f82601f8301126144845761448361424c565b5b81356144948482602086016143ea565b91505092915050565b5f606082840312156144b2576144b1614307565b5b6144bc60606142be565b90505f82013567ffffffffffffffff8111156144db576144da61430b565b5b6144e784828501614392565b5f83015250602082013567ffffffffffffffff81111561450a5761450961430b565b5b61451684828501614392565b602083015250604082013567ffffffffffffffff81111561453a5761453961430b565b5b61454684828501614470565b60408301525092915050565b5f61456461455f846142d8565b6142be565b9050808382526020820190506020840283018581111561458757614586614303565b5b835b818110156145ce57803567ffffffffffffffff8111156145ac576145ab61424c565b5b8086016145b9898261449d565b85526020850194505050602081019050614589565b5050509392505050565b5f82601f8301126145ec576145eb61424c565b5b81356145fc848260208601614552565b91505092915050565b5f806040838503121561461b5761461a614096565b5b5f614628858286016140f8565b925050602083013567ffffffffffffffff8111156146495761464861409a565b5b614655858286016145d8565b9150509250929050565b5f67ffffffffffffffff82111561467957614678614260565b5b61468282614250565b9050602081019050919050565b5f6146a161469c8461465f565b6142be565b9050828152602081018484840111156146bd576146bc61430f565b5b6146c8848285614343565b509392505050565b5f82601f8301126146e4576146e361424c565b5b81356146f484826020860161468f565b91505092915050565b5f806040838503121561471357614712614096565b5b5f614720858286016140c5565b925050602083013567ffffffffffffffff8111156147415761474061409a565b5b61474d858286016146d0565b9150509250929050565b5f819050919050565b61476981614757565b82525050565b5f6020820190506147825f830184614760565b92915050565b5f6020828403121561479d5761479c614096565b5b5f6147aa848285016140f8565b91505092915050565b5f80604083850312156147c9576147c8614096565b5b5f6147d6858286016140f8565b92505060206147e7858286016140f8565b9150509250929050565b5f81519050919050565b5f82825260208201905092915050565b5f819050602082019050919050565b5f81519050919050565b5f82825260208201905092915050565b5f819050602082019050919050565b61484c8161409e565b82525050565b5f61485d8383614843565b60208301905092915050565b5f602082019050919050565b5f61487f8261481a565b6148898185614824565b935061489483614834565b805f5b838110156148c45781516148ab8882614852565b97506148b683614869565b925050600181019050614897565b5085935050505092915050565b5f602083015f8301518482035f8601526148eb8282614875565b9150508091505092915050565b5f61490383836148d1565b905092915050565b5f602082019050919050565b5f614921826147f1565b61492b81856147fb565b93508360208202850161493d8561480b565b805f5b85811015614978578484038952815161495985826148f8565b94506149648361490b565b925060208a01995050600181019050614940565b50829750879550505050505092915050565b5f6020820190508181035f8301526149a28184614917565b905092915050565b5f81519050919050565b5f82825260208201905092915050565b5f819050602082019050919050565b5f60ff82169050919050565b6149e8816149d3565b82525050565b5f6149f983836149df565b60208301905092915050565b5f602082019050919050565b5f614a1b826149aa565b614a2581856149b4565b9350614a30836149c4565b805f5b83811015614a60578151614a4788826149ee565b9750614a5283614a05565b925050600181019050614a33565b5085935050505092915050565b5f6020820190508181035f830152614a858184614a11565b905092915050565b614a968161409e565b82525050565b5f602082019050614aaf5f830184614a8d565b92915050565b5f82825260208201905092915050565b5f614acf8261481a565b614ad98185614ab5565b9350614ae483614834565b805f5b83811015614b14578151614afb8882614852565b9750614b0683614869565b925050600181019050614ae7565b5085935050505092915050565b5f6020820190508181035f830152614b398184614ac5565b905092915050565b5f805f8060808587031215614b5957614b58614096565b5b5f614b66878288016140f8565b9450506020614b77878288016140c5565b9350506040614b88878288016140f8565b9250506060614b99878288016140f8565b91505092959194509250565b5f81519050919050565b5f82825260208201905092915050565b8281835e5f83830152505050565b5f614bd782614ba5565b614be18185614baf565b9350614bf1818560208601614bbf565b614bfa81614250565b840191505092915050565b5f6020820190508181035f830152614c1d8184614bcd565b905092915050565b5f602082019050614c385f83018461414a565b92915050565b5f60208284031215614c5357614c52614096565b5b5f614c60848285016140c5565b91505092915050565b5f604082019050614c7c5f830185614a8d565b614c89602083018461414a565b9392505050565b5f81519050614c9e816140e2565b92915050565b5f8115159050919050565b614cb881614ca4565b8114614cc2575f80fd5b50565b5f81519050614cd381614caf565b92915050565b5f67ffffffffffffffff821115614cf357614cf2614260565b5b602082029050602081019050919050565b5f81519050614d12816140af565b92915050565b5f614d2a614d2584614cd9565b6142be565b90508083825260208201905060208402830185811115614d4d57614d4c614303565b5b835b81811015614d765780614d628882614d04565b845260208401935050602081019050614d4f565b5050509392505050565b5f82601f830112614d9457614d9361424c565b5b8151614da4848260208601614d18565b91505092915050565b5f805f60608486031215614dc457614dc3614096565b5b5f614dd186828701614c90565b9350506020614de286828701614cc5565b925050604084015167ffffffffffffffff811115614e0357614e0261409a565b5b614e0f86828701614d80565b9150509250925092565b7f55736572206e6f7420617070726f7665640000000000000000000000000000005f82015250565b5f614e4d601183614baf565b9150614e5882614e19565b602082019050919050565b5f6020820190508181035f830152614e7a81614e41565b9050919050565b5f614e93614e8e84614313565b6142be565b905082815260208101848484011115614eaf57614eae61430f565b5b614eba848285614bbf565b509392505050565b5f82601f830112614ed657614ed561424c565b5b8151614ee6848260208601614e81565b91505092915050565b60028110614efb575f80fd5b50565b5f81519050614f0c81614eef565b92915050565b5f805f805f805f80610100898b031215614f2f57614f2e614096565b5b5f89015167ffffffffffffffff811115614f4c57614f4b61409a565b5b614f588b828c01614ec2565b985050602089015167ffffffffffffffff811115614f7957614f7861409a565b5b614f858b828c01614ec2565b975050604089015167ffffffffffffffff811115614fa657614fa561409a565b5b614fb28b828c01614ec2565b9650506060614fc38b828c01614d04565b9550506080614fd48b828c01614c90565b94505060a0614fe58b828c01614efe565b93505060c0614ff68b828c01614c90565b92505060e06150078b828c01614d04565b9150509295985092959890939650565b7f4e487b71000000000000000000000000000000000000000000000000000000005f52602160045260245ffd5b7f436f6d6d756e697479206973206e6f7420696e20636f6e747269627574696f6e5f8201527f207375626d697373696f6e207374617465000000000000000000000000000000602082015250565b5f61509e603183614baf565b91506150a982615044565b604082019050919050565b5f6020820190508181035f8301526150cb81615092565b9050919050565b7f4e487b71000000000000000000000000000000000000000000000000000000005f52603260045260245ffd5b7f4e487b71000000000000000000000000000000000000000000000000000000005f52602260045260245ffd5b5f600282049050600182168061514357607f821691505b602082108103615156576151556150ff565b5b50919050565b5f819050815f5260205f209050919050565b5f6020601f8301049050919050565b5f82821b905092915050565b5f600883026151b87fffffffffffffffffffffffffffffffffffffffffffffffffffffffffffffffff8261517d565b6151c2868361517d565b95508019841693508086168417925050509392505050565b5f6151f46151ef6151ea846140d9565b614019565b6140d9565b9050919050565b5f819050919050565b61520d836151da565b615221615219826151fb565b848454615189565b825550505050565b5f90565b615235615229565b615240818484615204565b505050565b5b81811015615263576152585f8261522d565b600181019050615246565b5050565b601f8211156152a8576152798161515c565b6152828461516e565b81016020851015615291578190505b6152a561529d8561516e565b830182615245565b50505b505050565b5f82821c905092915050565b5f6152c85f19846008026152ad565b1980831691505092915050565b5f6152e083836152b9565b9150826002028217905092915050565b6152f982614ba5565b67ffffffffffffffff81111561531257615311614260565b5b61531c825461512c565b615327828285615267565b5f60209050601f831160018114615358575f8415615346578287015190505b61535085826152d5565b8655506153b7565b601f1984166153668661515c565b5f5b8281101561538d57848901518255600182019150602085019450602081019050615368565b868310156153aa57848901516153a6601f8916826152b9565b8355505b6001600288020188555050505b505050505050565b5f81905092915050565b5f6153d382614ba5565b6153dd81856153bf565b93506153ed818560208601614bbf565b80840191505092915050565b7f2d000000000000000000000000000000000000000000000000000000000000005f82015250565b5f61542d6001836153bf565b9150615438826153f9565b600182019050919050565b7f2d430000000000000000000000000000000000000000000000000000000000005f82015250565b5f6154776002836153bf565b915061548282615443565b600282019050919050565b5f61549882866153c9565b91506154a382615421565b91506154af82856153c9565b91506154ba82615421565b91506154c682846153c9565b91506154d18261546b565b9150819050949350505050565b5f81519050919050565b5f82825260208201905092915050565b5f819050602082019050919050565b5f82825260208201905092915050565b5f61552182614ba5565b61552b8185615507565b935061553b818560208601614bbf565b61554481614250565b840191505092915050565b5f81519050919050565b5f82825260208201905092915050565b5f819050602082019050919050565b5f6155838383615517565b905092915050565b5f602082019050919050565b5f6155a18261554f565b6155ab8185615559565b9350836020820285016155bd85615569565b805f5b858110156155f857848403895281516155d98582615578565b94506155e48361558b565b925060208a019950506001810190506155c0565b50829750879550505050505092915050565b5f606083015f8301518482035f8601526156248282615517565b9150506020830151848203602086015261563e8282615517565b915050604083015184820360408601526156588282615597565b9150508091505092915050565b5f615670838361560a565b905092915050565b5f602082019050919050565b5f61568e826154de565b61569881856154e8565b9350836020820285016156aa856154f8565b805f5b858110156156e557848403895281516156c68582615665565b94506156d183615678565b925060208a019950506001810190506156ad565b50829750879550505050505092915050565b5f6040820190508181035f83015261570f8185614bcd565b905081810360208301526157238184615684565b90509392505050565b5f61573e615739846143bf565b6142be565b9050808382526020820190506020840283018581111561576157615760614303565b5b835b818110156157a857805167ffffffffffffffff8111156157865761578561424c565b5b8086016157938982614ec2565b85526020850194505050602081019050615763565b5050509392505050565b5f82601f8301126157c6576157c561424c565b5b81516157d684826020860161572c565b91505092915050565b5f80604083850312156157f5576157f4614096565b5b5f83015167ffffffffffffffff8111156158125761581161409a565b5b61581e85828601614d80565b925050602083015167ffffffffffffffff81111561583f5761583e61409a565b5b61584b858286016157b2565b9150509250929050565b7f4e487b71000000000000000000000000000000000000000000000000000000005f52601160045260245ffd5b5f61588c826140d9565b9150615897836140d9565b92508282039050818111156158af576158ae615855565b5b92915050565b7f4e6f7420696e2072616e6b696e670000000000000000000000000000000000005f82015250565b5f6158e9600e83614baf565b91506158f4826158b5565b602082019050919050565b5f6020820190508181035f830152615916816158dd565b9050919050565b7f4e6f20636f6e7472696275746f727300000000000000000000000000000000005f82015250565b5f615951600f83614baf565b915061595c8261591d565b602082019050919050565b5f6020820190508181035f83015261597e81615945565b9050919050565b5f61599082866153c9565b915061599b82615421565b91506159a782856153c9565b91506159b282615421565b91506159be82846153c9565b9150819050949350505050565b5f6159d682846153c9565b91506159e18261546b565b915081905092915050565b7f2d520000000000000000000000000000000000000000000000000000000000005f82015250565b5f615a206002836153bf565b9150615a2b826159ec565b600282019050919050565b5f615a4182846153c9565b9150615a4c82615a14565b915081905092915050565b5f615a61826140d9565b91507fffffffffffffffffffffffffffffffffffffffffffffffffffffffffffffffff8203615a9357615a92615855565b5b600182019050919050565b5f615aa8826140d9565b9150615ab3836140d9565b9250828201905080821115615acb57615aca615855565b5b92915050565b5f82825260208201905092915050565b5f615aeb8261554f565b615af58185615ad1565b935083602082028501615b0785615569565b805f5b85811015615b425784840389528151615b238582615578565b9450615b2e8361558b565b925060208a01995050600181019050615b0a565b50829750879550505050505092915050565b5f6080820190508181035f830152615b6c8187614bcd565b90508181036020830152615b808186615ae1565b90508181036040830152615b948185615ae1565b90508181036060830152615ba88184615ae1565b905095945050505050565b5f615bbe82856153c9565b9150615bc982615421565b9150615bd582846153c9565b91508190509392505050565b5f6080820190508181035f830152615bf98187614bcd565b90508181036020830152615c0d8186615ae1565b90508181036040830152615c218185615ae1565b90508181036060830152615c358184614bcd565b905095945050505050565b5f819050919050565b5f67ffffffffffffffff82169050919050565b5f615c76615c71615c6c84615c40565b614019565b615c49565b9050919050565b615c8681615c5c565b82525050565b5f602082019050615c9f5f830184615c7d565b92915050565b7f4e487b71000000000000000000000000000000000000000000000000000000005f52601260045260245ffd5b5f615cdc826140d9565b9150615ce7836140d9565b9250828202615cf5816140d9565b91508282048414831517615d0c57615d0b615855565b5b5092915050565b5f615d1d826140d9565b91505f8203615d2f57615d2e615855565b5b600182039050919050565b5f604082019050615d4d5f83018561414a565b615d5a602083018461414a565b9392505050565b615d6a81614757565b8114615d74575f80fd5b50565b5f81519050615d8581615d61565b92915050565b5f60208284031215615da057615d9f614096565b5b5f615dad84828501615d77565b91505092915050565b5f819050919050565b615dd0615dcb826140d9565b615db6565b82525050565b5f615de18286615dbf565b602082019150615df18285615dbf565b602082019150615e018284615dbf565b602082019150819050949350505050565b5f615e1c826140d9565b9150615e27836140d9565b925082615e3757615e36615ca5565b5b828206905092915050565b5f615e4c826140d9565b9150615e57836140d9565b925082615e6757615e66615ca5565b5b828204905092915050565b5f615e7c826149d3565b915060ff8203615e8f57615e8e615855565b5b600182019050919050565b5f81519050919050565b5f81905092915050565b5f615eb882615e9a565b615ec28185615ea4565b9350615ed2818560208601614bbf565b80840191505092915050565b5f615ee98284615eae565b91508190509291505056fea2646970667358221220e5adc24a96899af8f80b502a290d6719cfad4a3dac44ef53ae3689c69ae61b6164736f6c634300081a0033",
			"opcodes": "PUSH1 0xA0 PUSH1 0x40 MSTORE ADDRESS PUSH20 0xFFFFFFFFFFFFFFFFFFFFFFFFFFFFFFFFFFFFFFFF AND PUSH1 0x80 SWAP1 PUSH20 0xFFFFFFFFFFFFFFFFFFFFFFFFFFFFFFFFFFFFFFFF AND DUP2 MSTORE POP CALLVALUE DUP1 ISZERO PUSH2 0x42 JUMPI PUSH0 DUP1 REVERT JUMPDEST POP PUSH2 0x51 PUSH2 0x56 PUSH1 0x20 SHL PUSH1 0x20 SHR JUMP JUMPDEST PUSH2 0x1B6 JUMP JUMPDEST PUSH0 PUSH2 0x65 PUSH2 0x154 PUSH1 0x20 SHL PUSH1 0x20 SHR JUMP JUMPDEST SWAP1 POP DUP1 PUSH0 ADD PUSH1 0x8 SWAP1 SLOAD SWAP1 PUSH2 0x100 EXP SWAP1 DIV PUSH1 0xFF AND ISZERO PUSH2 0xAF JUMPI PUSH1 0x40 MLOAD PUSH32 0xF92EE8A900000000000000000000000000000000000000000000000000000000 DUP2 MSTORE PUSH1 0x4 ADD PUSH1 0x40 MLOAD DUP1 SWAP2 SUB SWAP1 REVERT JUMPDEST PUSH8 0xFFFFFFFFFFFFFFFF DUP1 AND DUP2 PUSH0 ADD PUSH0 SWAP1 SLOAD SWAP1 PUSH2 0x100 EXP SWAP1 DIV PUSH8 0xFFFFFFFFFFFFFFFF AND PUSH8 0xFFFFFFFFFFFFFFFF AND EQ PUSH2 0x151 JUMPI PUSH8 0xFFFFFFFFFFFFFFFF DUP2 PUSH0 ADD PUSH0 PUSH2 0x100 EXP DUP2 SLOAD DUP2 PUSH8 0xFFFFFFFFFFFFFFFF MUL NOT AND SWAP1 DUP4 PUSH8 0xFFFFFFFFFFFFFFFF AND MUL OR SWAP1 SSTORE POP PUSH32 0xC7F505B2F371AE2175EE4913F4499E1F2633A7B5936321EED1CDAEB6115181D2 PUSH8 0xFFFFFFFFFFFFFFFF PUSH1 0x40 MLOAD PUSH2 0x148 SWAP2 SWAP1 PUSH2 0x19D JUMP JUMPDEST PUSH1 0x40 MLOAD DUP1 SWAP2 SUB SWAP1 LOG1 JUMPDEST POP JUMP JUMPDEST PUSH0 PUSH32 0xF0C57E16840DF040F15088DC2F81FE391C3923BEC73E23A9662EFC9C229C6A00 SWAP1 POP SWAP1 JUMP JUMPDEST PUSH0 PUSH8 0xFFFFFFFFFFFFFFFF DUP3 AND SWAP1 POP SWAP2 SWAP1 POP JUMP JUMPDEST PUSH2 0x197 DUP2 PUSH2 0x17B JUMP JUMPDEST DUP3 MSTORE POP POP JUMP JUMPDEST PUSH0 PUSH1 0x20 DUP3 ADD SWAP1 POP PUSH2 0x1B0 PUSH0 DUP4 ADD DUP5 PUSH2 0x18E JUMP JUMPDEST SWAP3 SWAP2 POP POP JUMP JUMPDEST PUSH1 0x80 MLOAD PUSH2 0x5F2A PUSH2 0x1DC PUSH0 CODECOPY PUSH0 DUP2 DUP2 PUSH2 0x1F38 ADD MSTORE DUP2 DUP2 PUSH2 0x1F8D ADD MSTORE PUSH2 0x2147 ADD MSTORE PUSH2 0x5F2A PUSH0 RETURN INVALID PUSH1 0x80 PUSH1 0x40 MSTORE PUSH1 0x4 CALLDATASIZE LT PUSH2 0x113 JUMPI PUSH0 CALLDATALOAD PUSH1 0xE0 SHR DUP1 PUSH4 0x771197D8 GT PUSH2 0x9F JUMPI DUP1 PUSH4 0xC45CFCF1 GT PUSH2 0x63 JUMPI DUP1 PUSH4 0xC45CFCF1 EQ PUSH2 0x371 JUMPI DUP1 PUSH4 0xC4D66DE8 EQ PUSH2 0x3AD JUMPI DUP1 PUSH4 0xC56B4AED EQ PUSH2 0x3D5 JUMPI DUP1 PUSH4 0xD91D9733 EQ PUSH2 0x3FD JUMPI DUP1 PUSH4 0xF2FDE38B EQ PUSH2 0x439 JUMPI PUSH2 0x113 JUMP JUMPDEST DUP1 PUSH4 0x771197D8 EQ PUSH2 0x28F JUMPI DUP1 PUSH4 0x8DA5CB5B EQ PUSH2 0x2B9 JUMPI DUP1 PUSH4 0x8EC2C82B EQ PUSH2 0x2E3 JUMPI DUP1 PUSH4 0x9807F9E8 EQ PUSH2 0x31F JUMPI DUP1 PUSH4 0xAD3CB1CC EQ PUSH2 0x347 JUMPI PUSH2 0x113 JUMP JUMPDEST DUP1 PUSH4 0x52D1902D GT PUSH2 0xE6 JUMPI DUP1 PUSH4 0x52D1902D EQ PUSH2 0x1C3 JUMPI DUP1 PUSH4 0x5AE25992 EQ PUSH2 0x1ED JUMPI DUP1 PUSH4 0x690EC8D1 EQ PUSH2 0x215 JUMPI DUP1 PUSH4 0x6C331BD3 EQ PUSH2 0x23D JUMPI DUP1 PUSH4 0x715018A6 EQ PUSH2 0x279 JUMPI PUSH2 0x113 JUMP JUMPDEST DUP1 PUSH4 0x6428F02 EQ PUSH2 0x117 JUMPI DUP1 PUSH4 0x27A6ACD1 EQ PUSH2 0x141 JUMPI DUP1 PUSH4 0x3722A0E8 EQ PUSH2 0x17F JUMPI DUP1 PUSH4 0x4F1EF286 EQ PUSH2 0x1A7 JUMPI JUMPDEST PUSH0 DUP1 REVERT JUMPDEST CALLVALUE DUP1 ISZERO PUSH2 0x122 JUMPI PUSH0 DUP1 REVERT JUMPDEST POP PUSH2 0x12B PUSH2 0x461 JUMP JUMPDEST PUSH1 0x40 MLOAD PUSH2 0x138 SWAP2 SWAP1 PUSH2 0x4074 JUMP JUMPDEST PUSH1 0x40 MLOAD DUP1 SWAP2 SUB SWAP1 RETURN JUMPDEST CALLVALUE DUP1 ISZERO PUSH2 0x14C JUMPI PUSH0 DUP1 REVERT JUMPDEST POP PUSH2 0x167 PUSH1 0x4 DUP1 CALLDATASIZE SUB DUP2 ADD SWAP1 PUSH2 0x162 SWAP2 SWAP1 PUSH2 0x410C JUMP JUMPDEST PUSH2 0x484 JUMP JUMPDEST PUSH1 0x40 MLOAD PUSH2 0x176 SWAP4 SWAP3 SWAP2 SWAP1 PUSH2 0x4210 JUMP JUMPDEST PUSH1 0x40 MLOAD DUP1 SWAP2 SUB SWAP1 RETURN JUMPDEST CALLVALUE DUP1 ISZERO PUSH2 0x18A JUMPI PUSH0 DUP1 REVERT JUMPDEST POP PUSH2 0x1A5 PUSH1 0x4 DUP1 CALLDATASIZE SUB DUP2 ADD SWAP1 PUSH2 0x1A0 SWAP2 SWAP1 PUSH2 0x4605 JUMP JUMPDEST PUSH2 0x540 JUMP JUMPDEST STOP JUMPDEST PUSH2 0x1C1 PUSH1 0x4 DUP1 CALLDATASIZE SUB DUP2 ADD SWAP1 PUSH2 0x1BC SWAP2 SWAP1 PUSH2 0x46FD JUMP JUMPDEST PUSH2 0xA5D JUMP JUMPDEST STOP JUMPDEST CALLVALUE DUP1 ISZERO PUSH2 0x1CE JUMPI PUSH0 DUP1 REVERT JUMPDEST POP PUSH2 0x1D7 PUSH2 0xA7C JUMP JUMPDEST PUSH1 0x40 MLOAD PUSH2 0x1E4 SWAP2 SWAP1 PUSH2 0x476F JUMP JUMPDEST PUSH1 0x40 MLOAD DUP1 SWAP2 SUB SWAP1 RETURN JUMPDEST CALLVALUE DUP1 ISZERO PUSH2 0x1F8 JUMPI PUSH0 DUP1 REVERT JUMPDEST POP PUSH2 0x213 PUSH1 0x4 DUP1 CALLDATASIZE SUB DUP2 ADD SWAP1 PUSH2 0x20E SWAP2 SWAP1 PUSH2 0x4788 JUMP JUMPDEST PUSH2 0xAAD JUMP JUMPDEST STOP JUMPDEST CALLVALUE DUP1 ISZERO PUSH2 0x220 JUMPI PUSH0 DUP1 REVERT JUMPDEST POP PUSH2 0x23B PUSH1 0x4 DUP1 CALLDATASIZE SUB DUP2 ADD SWAP1 PUSH2 0x236 SWAP2 SWAP1 PUSH2 0x4788 JUMP JUMPDEST PUSH2 0xD6F JUMP JUMPDEST STOP JUMPDEST CALLVALUE DUP1 ISZERO PUSH2 0x248 JUMPI PUSH0 DUP1 REVERT JUMPDEST POP PUSH2 0x263 PUSH1 0x4 DUP1 CALLDATASIZE SUB DUP2 ADD SWAP1 PUSH2 0x25E SWAP2 SWAP1 PUSH2 0x47B3 JUMP JUMPDEST PUSH2 0x1614 JUMP JUMPDEST PUSH1 0x40 MLOAD PUSH2 0x270 SWAP2 SWAP1 PUSH2 0x498A JUMP JUMPDEST PUSH1 0x40 MLOAD DUP1 SWAP2 SUB SWAP1 RETURN JUMPDEST CALLVALUE DUP1 ISZERO PUSH2 0x284 JUMPI PUSH0 DUP1 REVERT JUMPDEST POP PUSH2 0x28D PUSH2 0x1717 JUMP JUMPDEST STOP JUMPDEST CALLVALUE DUP1 ISZERO PUSH2 0x29A JUMPI PUSH0 DUP1 REVERT JUMPDEST POP PUSH2 0x2A3 PUSH2 0x172A JUMP JUMPDEST PUSH1 0x40 MLOAD PUSH2 0x2B0 SWAP2 SWAP1 PUSH2 0x4A6D JUMP JUMPDEST PUSH1 0x40 MLOAD DUP1 SWAP2 SUB SWAP1 RETURN JUMPDEST CALLVALUE DUP1 ISZERO PUSH2 0x2C4 JUMPI PUSH0 DUP1 REVERT JUMPDEST POP PUSH2 0x2CD PUSH2 0x17A4 JUMP JUMPDEST PUSH1 0x40 MLOAD PUSH2 0x2DA SWAP2 SWAP1 PUSH2 0x4A9C JUMP JUMPDEST PUSH1 0x40 MLOAD DUP1 SWAP2 SUB SWAP1 RETURN JUMPDEST CALLVALUE DUP1 ISZERO PUSH2 0x2EE JUMPI PUSH0 DUP1 REVERT JUMPDEST POP PUSH2 0x309 PUSH1 0x4 DUP1 CALLDATASIZE SUB DUP2 ADD SWAP1 PUSH2 0x304 SWAP2 SWAP1 PUSH2 0x47B3 JUMP JUMPDEST PUSH2 0x17D9 JUMP JUMPDEST PUSH1 0x40 MLOAD PUSH2 0x316 SWAP2 SWAP1 PUSH2 0x4B21 JUMP JUMPDEST PUSH1 0x40 MLOAD DUP1 SWAP2 SUB SWAP1 RETURN JUMPDEST CALLVALUE DUP1 ISZERO PUSH2 0x32A JUMPI PUSH0 DUP1 REVERT JUMPDEST POP PUSH2 0x345 PUSH1 0x4 DUP1 CALLDATASIZE SUB DUP2 ADD SWAP1 PUSH2 0x340 SWAP2 SWAP1 PUSH2 0x4B41 JUMP JUMPDEST PUSH2 0x1885 JUMP JUMPDEST STOP JUMPDEST CALLVALUE DUP1 ISZERO PUSH2 0x352 JUMPI PUSH0 DUP1 REVERT JUMPDEST POP PUSH2 0x35B PUSH2 0x1897 JUMP JUMPDEST PUSH1 0x40 MLOAD PUSH2 0x368 SWAP2 SWAP1 PUSH2 0x4C05 JUMP JUMPDEST PUSH1 0x40 MLOAD DUP1 SWAP2 SUB SWAP1 RETURN JUMPDEST CALLVALUE DUP1 ISZERO PUSH2 0x37C JUMPI PUSH0 DUP1 REVERT JUMPDEST POP PUSH2 0x397 PUSH1 0x4 DUP1 CALLDATASIZE SUB DUP2 ADD SWAP1 PUSH2 0x392 SWAP2 SWAP1 PUSH2 0x4788 JUMP JUMPDEST PUSH2 0x18D0 JUMP JUMPDEST PUSH1 0x40 MLOAD PUSH2 0x3A4 SWAP2 SWAP1 PUSH2 0x4C25 JUMP JUMPDEST PUSH1 0x40 MLOAD DUP1 SWAP2 SUB SWAP1 RETURN JUMPDEST CALLVALUE DUP1 ISZERO PUSH2 0x3B8 JUMPI PUSH0 DUP1 REVERT JUMPDEST POP PUSH2 0x3D3 PUSH1 0x4 DUP1 CALLDATASIZE SUB DUP2 ADD SWAP1 PUSH2 0x3CE SWAP2 SWAP1 PUSH2 0x4C3E JUMP JUMPDEST PUSH2 0x197E JUMP JUMPDEST STOP JUMPDEST CALLVALUE DUP1 ISZERO PUSH2 0x3E0 JUMPI PUSH0 DUP1 REVERT JUMPDEST POP PUSH2 0x3FB PUSH1 0x4 DUP1 CALLDATASIZE SUB DUP2 ADD SWAP1 PUSH2 0x3F6 SWAP2 SWAP1 PUSH2 0x4C3E JUMP JUMPDEST PUSH2 0x1B07 JUMP JUMPDEST STOP JUMPDEST CALLVALUE DUP1 ISZERO PUSH2 0x408 JUMPI PUSH0 DUP1 REVERT JUMPDEST POP PUSH2 0x423 PUSH1 0x4 DUP1 CALLDATASIZE SUB DUP2 ADD SWAP1 PUSH2 0x41E SWAP2 SWAP1 PUSH2 0x410C JUMP JUMPDEST PUSH2 0x1B51 JUMP JUMPDEST PUSH1 0x40 MLOAD PUSH2 0x430 SWAP2 SWAP1 PUSH2 0x4C25 JUMP JUMPDEST PUSH1 0x40 MLOAD DUP1 SWAP2 SUB SWAP1 RETURN JUMPDEST CALLVALUE DUP1 ISZERO PUSH2 0x444 JUMPI PUSH0 DUP1 REVERT JUMPDEST POP PUSH2 0x45F PUSH1 0x4 DUP1 CALLDATASIZE SUB DUP2 ADD SWAP1 PUSH2 0x45A SWAP2 SWAP1 PUSH2 0x4C3E JUMP JUMPDEST PUSH2 0x1BAA JUMP JUMPDEST STOP JUMPDEST PUSH0 DUP1 SLOAD SWAP1 PUSH2 0x100 EXP SWAP1 DIV PUSH20 0xFFFFFFFFFFFFFFFFFFFFFFFFFFFFFFFFFFFFFFFF AND DUP2 JUMP JUMPDEST PUSH0 DUP1 PUSH1 0x60 PUSH0 PUSH1 0x1 PUSH0 DUP8 PUSH20 0xFFFFFFFFFFFFFFFFFFFFFFFFFFFFFFFFFFFFFFFF AND PUSH20 0xFFFFFFFFFFFFFFFFFFFFFFFFFFFFFFFFFFFFFFFF AND DUP2 MSTORE PUSH1 0x20 ADD SWAP1 DUP2 MSTORE PUSH1 0x20 ADD PUSH0 KECCAK256 PUSH0 DUP7 DUP2 MSTORE PUSH1 0x20 ADD SWAP1 DUP2 MSTORE PUSH1 0x20 ADD PUSH0 KECCAK256 SWAP1 POP DUP1 PUSH1 0x3 ADD SLOAD SWAP4 POP DUP1 PUSH1 0x4 ADD SLOAD SWAP3 POP DUP1 PUSH1 0x5 ADD DUP1 SLOAD DUP1 PUSH1 0x20 MUL PUSH1 0x20 ADD PUSH1 0x40 MLOAD SWAP1 DUP2 ADD PUSH1 0x40 MSTORE DUP1 SWAP3 SWAP2 SWAP1 DUP2 DUP2 MSTORE PUSH1 0x20 ADD DUP3 DUP1 SLOAD DUP1 ISZERO PUSH2 0x531 JUMPI PUSH1 0x20 MUL DUP3 ADD SWAP2 SWAP1 PUSH0 MSTORE PUSH1 0x20 PUSH0 KECCAK256 SWAP1 JUMPDEST DUP2 SLOAD DUP2 MSTORE PUSH1 0x20 ADD SWAP1 PUSH1 0x1 ADD SWAP1 DUP1 DUP4 GT PUSH2 0x51D JUMPI JUMPDEST POP POP POP POP POP SWAP2 POP POP SWAP3 POP SWAP3 POP SWAP3 JUMP JUMPDEST PUSH0 DUP1 PUSH0 DUP1 SLOAD SWAP1 PUSH2 0x100 EXP SWAP1 DIV PUSH20 0xFFFFFFFFFFFFFFFFFFFFFFFFFFFFFFFFFFFFFFFF AND PUSH20 0xFFFFFFFFFFFFFFFFFFFFFFFFFFFFFFFFFFFFFFFF AND PUSH4 0xB26ED7B CALLER DUP7 PUSH1 0x40 MLOAD DUP4 PUSH4 0xFFFFFFFF AND PUSH1 0xE0 SHL DUP2 MSTORE PUSH1 0x4 ADD PUSH2 0x59C SWAP3 SWAP2 SWAP1 PUSH2 0x4C69 JUMP JUMPDEST PUSH0 PUSH1 0x40 MLOAD DUP1 DUP4 SUB DUP2 DUP7 GAS STATICCALL ISZERO DUP1 ISZERO PUSH2 0x5B6 JUMPI RETURNDATASIZE PUSH0 DUP1 RETURNDATACOPY RETURNDATASIZE PUSH0 REVERT JUMPDEST POP POP POP POP PUSH1 0x40 MLOAD RETURNDATASIZE PUSH0 DUP3 RETURNDATACOPY RETURNDATASIZE PUSH1 0x1F NOT PUSH1 0x1F DUP3 ADD AND DUP3 ADD DUP1 PUSH1 0x40 MSTORE POP DUP2 ADD SWAP1 PUSH2 0x5DE SWAP2 SWAP1 PUSH2 0x4DAD JUMP JUMPDEST POP SWAP2 POP SWAP2 POP PUSH0 DUP3 EQ ISZERO DUP1 ISZERO PUSH2 0x5F0 JUMPI POP DUP1 JUMPDEST PUSH2 0x62F JUMPI PUSH1 0x40 MLOAD PUSH32 0x8C379A000000000000000000000000000000000000000000000000000000000 DUP2 MSTORE PUSH1 0x4 ADD PUSH2 0x626 SWAP1 PUSH2 0x4E63 JUMP JUMPDEST PUSH1 0x40 MLOAD DUP1 SWAP2 SUB SWAP1 REVERT JUMPDEST PUSH0 DUP1 PUSH0 DUP1 SLOAD SWAP1 PUSH2 0x100 EXP SWAP1 DIV PUSH20 0xFFFFFFFFFFFFFFFFFFFFFFFFFFFFFFFFFFFFFFFF AND PUSH20 0xFFFFFFFFFFFFFFFFFFFFFFFFFFFFFFFFFFFFFFFF AND PUSH4 0x99664245 DUP8 PUSH1 0x40 MLOAD DUP3 PUSH4 0xFFFFFFFF AND PUSH1 0xE0 SHL DUP2 MSTORE PUSH1 0x4 ADD PUSH2 0x689 SWAP2 SWAP1 PUSH2 0x4C25 JUMP JUMPDEST PUSH0 PUSH1 0x40 MLOAD DUP1 DUP4 SUB DUP2 DUP7 GAS STATICCALL ISZERO DUP1 ISZERO PUSH2 0x6A3 JUMPI RETURNDATASIZE PUSH0 DUP1 RETURNDATACOPY RETURNDATASIZE PUSH0 REVERT JUMPDEST POP POP POP POP PUSH1 0x40 MLOAD RETURNDATASIZE PUSH0 DUP3 RETURNDATACOPY RETURNDATASIZE PUSH1 0x1F NOT PUSH1 0x1F DUP3 ADD AND DUP3 ADD DUP1 PUSH1 0x40 MSTORE POP DUP2 ADD SWAP1 PUSH2 0x6CB SWAP2 SWAP1 PUSH2 0x4F12 JUMP JUMPDEST POP SWAP7 POP SWAP7 POP POP POP POP POP POP PUSH0 PUSH1 0x1 DUP2 GT ISZERO PUSH2 0x6E8 JUMPI PUSH2 0x6E7 PUSH2 0x5017 JUMP JUMPDEST JUMPDEST DUP3 PUSH1 0x1 DUP2 GT ISZERO PUSH2 0x6FB JUMPI PUSH2 0x6FA PUSH2 0x5017 JUMP JUMPDEST JUMPDEST EQ PUSH2 0x73B JUMPI PUSH1 0x40 MLOAD PUSH32 0x8C379A000000000000000000000000000000000000000000000000000000000 DUP2 MSTORE PUSH1 0x4 ADD PUSH2 0x732 SWAP1 PUSH2 0x50B4 JUMP JUMPDEST PUSH1 0x40 MLOAD DUP1 SWAP2 SUB SWAP1 REVERT JUMPDEST PUSH0 DUP1 JUMPDEST PUSH1 0x2 PUSH0 DUP10 DUP2 MSTORE PUSH1 0x20 ADD SWAP1 DUP2 MSTORE PUSH1 0x20 ADD PUSH0 KECCAK256 PUSH0 DUP5 DUP2 MSTORE PUSH1 0x20 ADD SWAP1 DUP2 MSTORE PUSH1 0x20 ADD PUSH0 KECCAK256 DUP1 SLOAD SWAP1 POP DUP2 LT ISZERO PUSH2 0x80B JUMPI CALLER PUSH20 0xFFFFFFFFFFFFFFFFFFFFFFFFFFFFFFFFFFFFFFFF AND PUSH1 0x2 PUSH0 DUP11 DUP2 MSTORE PUSH1 0x20 ADD SWAP1 DUP2 MSTORE PUSH1 0x20 ADD PUSH0 KECCAK256 PUSH0 DUP6 DUP2 MSTORE PUSH1 0x20 ADD SWAP1 DUP2 MSTORE PUSH1 0x20 ADD PUSH0 KECCAK256 DUP3 DUP2 SLOAD DUP2 LT PUSH2 0x7B2 JUMPI PUSH2 0x7B1 PUSH2 0x50D2 JUMP JUMPDEST JUMPDEST SWAP1 PUSH0 MSTORE PUSH1 0x20 PUSH0 KECCAK256 ADD PUSH0 SWAP1 SLOAD SWAP1 PUSH2 0x100 EXP SWAP1 DIV PUSH20 0xFFFFFFFFFFFFFFFFFFFFFFFFFFFFFFFFFFFFFFFF AND PUSH20 0xFFFFFFFFFFFFFFFFFFFFFFFFFFFFFFFFFFFFFFFF AND SUB PUSH2 0x7FE JUMPI PUSH1 0x1 SWAP2 POP PUSH2 0x80B JUMP JUMPDEST DUP1 DUP1 PUSH1 0x1 ADD SWAP2 POP POP PUSH2 0x73E JUMP JUMPDEST POP DUP1 PUSH2 0x890 JUMPI PUSH1 0x2 PUSH0 DUP9 DUP2 MSTORE PUSH1 0x20 ADD SWAP1 DUP2 MSTORE PUSH1 0x20 ADD PUSH0 KECCAK256 PUSH0 DUP4 DUP2 MSTORE PUSH1 0x20 ADD SWAP1 DUP2 MSTORE PUSH1 0x20 ADD PUSH0 KECCAK256 CALLER SWAP1 DUP1 PUSH1 0x1 DUP2 SLOAD ADD DUP1 DUP3 SSTORE DUP1 SWAP2 POP POP PUSH1 0x1 SWAP1 SUB SWAP1 PUSH0 MSTORE PUSH1 0x20 PUSH0 KECCAK256 ADD PUSH0 SWAP1 SWAP2 SWAP1 SWAP2 SWAP1 SWAP2 PUSH2 0x100 EXP DUP2 SLOAD DUP2 PUSH20 0xFFFFFFFFFFFFFFFFFFFFFFFFFFFFFFFFFFFFFFFF MUL NOT AND SWAP1 DUP4 PUSH20 0xFFFFFFFFFFFFFFFFFFFFFFFFFFFFFFFFFFFFFFFF AND MUL OR SWAP1 SSTORE POP JUMPDEST PUSH0 PUSH1 0x1 PUSH0 CALLER PUSH20 0xFFFFFFFFFFFFFFFFFFFFFFFFFFFFFFFFFFFFFFFF AND PUSH20 0xFFFFFFFFFFFFFFFFFFFFFFFFFFFFFFFFFFFFFFFF AND DUP2 MSTORE PUSH1 0x20 ADD SWAP1 DUP2 MSTORE PUSH1 0x20 ADD PUSH0 KECCAK256 PUSH0 DUP10 DUP2 MSTORE PUSH1 0x20 ADD SWAP1 DUP2 MSTORE PUSH1 0x20 ADD PUSH0 KECCAK256 SWAP1 POP PUSH0 DUP2 PUSH0 ADD SLOAD SUB PUSH2 0x8F2 JUMPI DUP8 DUP2 PUSH0 ADD DUP2 SWAP1 SSTORE POP JUMPDEST PUSH0 DUP2 PUSH1 0x1 ADD PUSH0 DUP6 DUP2 MSTORE PUSH1 0x20 ADD SWAP1 DUP2 MSTORE PUSH1 0x20 ADD PUSH0 KECCAK256 SWAP1 POP DUP4 DUP2 PUSH0 ADD DUP2 SWAP1 SSTORE POP DUP1 PUSH1 0x1 ADD PUSH0 PUSH2 0x91F SWAP2 SWAP1 PUSH2 0x3D7D JUMP JUMPDEST PUSH0 JUMPDEST DUP9 MLOAD DUP2 LT ISZERO PUSH2 0x9C5 JUMPI DUP2 PUSH1 0x1 ADD DUP10 DUP3 DUP2 MLOAD DUP2 LT PUSH2 0x941 JUMPI PUSH2 0x940 PUSH2 0x50D2 JUMP JUMPDEST JUMPDEST PUSH1 0x20 MUL PUSH1 0x20 ADD ADD MLOAD SWAP1 DUP1 PUSH1 0x1 DUP2 SLOAD ADD DUP1 DUP3 SSTORE DUP1 SWAP2 POP POP PUSH1 0x1 SWAP1 SUB SWAP1 PUSH0 MSTORE PUSH1 0x20 PUSH0 KECCAK256 SWAP1 PUSH1 0x3 MUL ADD PUSH0 SWAP1 SWAP2 SWAP1 SWAP2 SWAP1 SWAP2 POP PUSH0 DUP3 ADD MLOAD DUP2 PUSH0 ADD SWAP1 DUP2 PUSH2 0x982 SWAP2 SWAP1 PUSH2 0x52F0 JUMP JUMPDEST POP PUSH1 0x20 DUP3 ADD MLOAD DUP2 PUSH1 0x1 ADD SWAP1 DUP2 PUSH2 0x998 SWAP2 SWAP1 PUSH2 0x52F0 JUMP JUMPDEST POP PUSH1 0x40 DUP3 ADD MLOAD DUP2 PUSH1 0x2 ADD SWAP1 DUP1 MLOAD SWAP1 PUSH1 0x20 ADD SWAP1 PUSH2 0x9B5 SWAP3 SWAP2 SWAP1 PUSH2 0x3D9E JUMP JUMPDEST POP POP POP DUP1 DUP1 PUSH1 0x1 ADD SWAP2 POP POP PUSH2 0x921 JUMP JUMPDEST POP PUSH32 0x393BDEEFAC87EB08D07626F5E70477DCA70B59BF28337DB85906D137FABD818F PUSH2 0x9F0 DUP11 PUSH2 0x1C2E JUMP JUMPDEST PUSH2 0x9F9 DUP7 PUSH2 0x1C2E JUMP JUMPDEST PUSH2 0xA1A CALLER PUSH20 0xFFFFFFFFFFFFFFFFFFFFFFFFFFFFFFFFFFFFFFFF AND PUSH1 0x14 PUSH2 0x1CF8 JUMP JUMPDEST PUSH1 0x40 MLOAD PUSH1 0x20 ADD PUSH2 0xA2C SWAP4 SWAP3 SWAP2 SWAP1 PUSH2 0x548D JUMP JUMPDEST PUSH1 0x40 MLOAD PUSH1 0x20 DUP2 DUP4 SUB SUB DUP2 MSTORE SWAP1 PUSH1 0x40 MSTORE DUP10 PUSH1 0x40 MLOAD PUSH2 0xA4A SWAP3 SWAP2 SWAP1 PUSH2 0x56F7 JUMP JUMPDEST PUSH1 0x40 MLOAD DUP1 SWAP2 SUB SWAP1 LOG1 POP POP POP POP POP POP POP POP POP JUMP JUMPDEST PUSH2 0xA65 PUSH2 0x1F36 JUMP JUMPDEST PUSH2 0xA6E DUP3 PUSH2 0x201C JUMP JUMPDEST PUSH2 0xA78 DUP3 DUP3 PUSH2 0x2027 JUMP JUMPDEST POP POP JUMP JUMPDEST PUSH0 PUSH2 0xA85 PUSH2 0x2145 JUMP JUMPDEST PUSH32 0x360894A13BA1A3210667C828492DB98DCA3E2076CC3735A920A3CA505D382BBC PUSH0 SHL SWAP1 POP SWAP1 JUMP JUMPDEST PUSH0 DUP1 PUSH0 SWAP1 SLOAD SWAP1 PUSH2 0x100 EXP SWAP1 DIV PUSH20 0xFFFFFFFFFFFFFFFFFFFFFFFFFFFFFFFFFFFFFFFF AND PUSH20 0xFFFFFFFFFFFFFFFFFFFFFFFFFFFFFFFFFFFFFFFF AND PUSH4 0x99664245 DUP4 PUSH1 0x40 MLOAD DUP3 PUSH4 0xFFFFFFFF AND PUSH1 0xE0 SHL DUP2 MSTORE PUSH1 0x4 ADD PUSH2 0xB07 SWAP2 SWAP1 PUSH2 0x4C25 JUMP JUMPDEST PUSH0 PUSH1 0x40 MLOAD DUP1 DUP4 SUB DUP2 DUP7 GAS STATICCALL ISZERO DUP1 ISZERO PUSH2 0xB21 JUMPI RETURNDATASIZE PUSH0 DUP1 RETURNDATACOPY RETURNDATASIZE PUSH0 REVERT JUMPDEST POP POP POP POP PUSH1 0x40 MLOAD RETURNDATASIZE PUSH0 DUP3 RETURNDATACOPY RETURNDATASIZE PUSH1 0x1F NOT PUSH1 0x1F DUP3 ADD AND DUP3 ADD DUP1 PUSH1 0x40 MSTORE POP DUP2 ADD SWAP1 PUSH2 0xB49 SWAP2 SWAP1 PUSH2 0x4F12 JUMP JUMPDEST POP SWAP7 POP POP POP POP POP POP POP PUSH0 DUP1 PUSH0 SWAP1 SLOAD SWAP1 PUSH2 0x100 EXP SWAP1 DIV PUSH20 0xFFFFFFFFFFFFFFFFFFFFFFFFFFFFFFFFFFFFFFFF AND PUSH20 0xFFFFFFFFFFFFFFFFFFFFFFFFFFFFFFFFFFFFFFFF AND PUSH4 0x7199EE48 DUP5 PUSH1 0x40 MLOAD DUP3 PUSH4 0xFFFFFFFF AND PUSH1 0xE0 SHL DUP2 MSTORE PUSH1 0x4 ADD PUSH2 0xBAC SWAP2 SWAP1 PUSH2 0x4C25 JUMP JUMPDEST PUSH0 PUSH1 0x40 MLOAD DUP1 DUP4 SUB DUP2 DUP7 GAS STATICCALL ISZERO DUP1 ISZERO PUSH2 0xBC6 JUMPI RETURNDATASIZE PUSH0 DUP1 RETURNDATACOPY RETURNDATASIZE PUSH0 REVERT JUMPDEST POP POP POP POP PUSH1 0x40 MLOAD RETURNDATASIZE PUSH0 DUP3 RETURNDATACOPY RETURNDATASIZE PUSH1 0x1F NOT PUSH1 0x1F DUP3 ADD AND DUP3 ADD DUP1 PUSH1 0x40 MSTORE POP DUP2 ADD SWAP1 PUSH2 0xBEE SWAP2 SWAP1 PUSH2 0x57DF JUMP JUMPDEST POP SWAP1 POP PUSH0 PUSH1 0x2 PUSH0 DUP6 DUP2 MSTORE PUSH1 0x20 ADD SWAP1 DUP2 MSTORE PUSH1 0x20 ADD PUSH0 KECCAK256 PUSH0 PUSH1 0x1 DUP6 PUSH2 0xC11 SWAP2 SWAP1 PUSH2 0x5882 JUMP JUMPDEST DUP2 MSTORE PUSH1 0x20 ADD SWAP1 DUP2 MSTORE PUSH1 0x20 ADD PUSH0 KECCAK256 DUP1 SLOAD DUP1 PUSH1 0x20 MUL PUSH1 0x20 ADD PUSH1 0x40 MLOAD SWAP1 DUP2 ADD PUSH1 0x40 MSTORE DUP1 SWAP3 SWAP2 SWAP1 DUP2 DUP2 MSTORE PUSH1 0x20 ADD DUP3 DUP1 SLOAD DUP1 ISZERO PUSH2 0xC9B JUMPI PUSH1 0x20 MUL DUP3 ADD SWAP2 SWAP1 PUSH0 MSTORE PUSH1 0x20 PUSH0 KECCAK256 SWAP1 JUMPDEST DUP2 PUSH0 SWAP1 SLOAD SWAP1 PUSH2 0x100 EXP SWAP1 DIV PUSH20 0xFFFFFFFFFFFFFFFFFFFFFFFFFFFFFFFFFFFFFFFF AND PUSH20 0xFFFFFFFFFFFFFFFFFFFFFFFFFFFFFFFFFFFFFFFF AND DUP2 MSTORE PUSH1 0x20 ADD SWAP1 PUSH1 0x1 ADD SWAP1 DUP1 DUP4 GT PUSH2 0xC52 JUMPI JUMPDEST POP POP POP POP POP SWAP1 POP PUSH0 JUMPDEST DUP3 MLOAD DUP2 LT ISZERO PUSH2 0xD68 JUMPI PUSH0 DUP4 DUP3 DUP2 MLOAD DUP2 LT PUSH2 0xCC1 JUMPI PUSH2 0xCC0 PUSH2 0x50D2 JUMP JUMPDEST JUMPDEST PUSH1 0x20 MUL PUSH1 0x20 ADD ADD MLOAD SWAP1 POP PUSH0 DUP1 JUMPDEST DUP5 MLOAD DUP2 LT ISZERO PUSH2 0xD3A JUMPI DUP5 DUP2 DUP2 MLOAD DUP2 LT PUSH2 0xCEA JUMPI PUSH2 0xCE9 PUSH2 0x50D2 JUMP JUMPDEST JUMPDEST PUSH1 0x20 MUL PUSH1 0x20 ADD ADD MLOAD PUSH20 0xFFFFFFFFFFFFFFFFFFFFFFFFFFFFFFFFFFFFFFFF AND DUP4 PUSH20 0xFFFFFFFFFFFFFFFFFFFFFFFFFFFFFFFFFFFFFFFF AND SUB PUSH2 0xD2D JUMPI PUSH1 0x1 SWAP2 POP PUSH2 0xD3A JUMP JUMPDEST DUP1 DUP1 PUSH1 0x1 ADD SWAP2 POP POP PUSH2 0xCCE JUMP JUMPDEST POP DUP1 PUSH2 0xD59 JUMPI PUSH2 0xD58 DUP8 DUP4 PUSH1 0x1 DUP10 PUSH2 0xD52 SWAP2 SWAP1 PUSH2 0x5882 JUMP JUMPDEST PUSH0 PUSH2 0x21CC JUMP JUMPDEST JUMPDEST POP POP DUP1 DUP1 PUSH1 0x1 ADD SWAP2 POP POP PUSH2 0xCA4 JUMP JUMPDEST POP POP POP POP POP JUMP JUMPDEST PUSH0 DUP1 PUSH0 DUP1 SLOAD SWAP1 PUSH2 0x100 EXP SWAP1 DIV PUSH20 0xFFFFFFFFFFFFFFFFFFFFFFFFFFFFFFFFFFFFFFFF AND PUSH20 0xFFFFFFFFFFFFFFFFFFFFFFFFFFFFFFFFFFFFFFFF AND PUSH4 0x99664245 DUP5 PUSH1 0x40 MLOAD DUP3 PUSH4 0xFFFFFFFF AND PUSH1 0xE0 SHL DUP2 MSTORE PUSH1 0x4 ADD PUSH2 0xDC9 SWAP2 SWAP1 PUSH2 0x4C25 JUMP JUMPDEST PUSH0 PUSH1 0x40 MLOAD DUP1 DUP4 SUB DUP2 DUP7 GAS STATICCALL ISZERO DUP1 ISZERO PUSH2 0xDE3 JUMPI RETURNDATASIZE PUSH0 DUP1 RETURNDATACOPY RETURNDATASIZE PUSH0 REVERT JUMPDEST POP POP POP POP PUSH1 0x40 MLOAD RETURNDATASIZE PUSH0 DUP3 RETURNDATACOPY RETURNDATASIZE PUSH1 0x1F NOT PUSH1 0x1F DUP3 ADD AND DUP3 ADD DUP1 PUSH1 0x40 MSTORE POP DUP2 ADD SWAP1 PUSH2 0xE0B SWAP2 SWAP1 PUSH2 0x4F12 JUMP JUMPDEST POP SWAP7 POP SWAP7 POP POP POP POP POP POP PUSH1 0x1 DUP1 DUP2 GT ISZERO PUSH2 0xE28 JUMPI PUSH2 0xE27 PUSH2 0x5017 JUMP JUMPDEST JUMPDEST DUP3 PUSH1 0x1 DUP2 GT ISZERO PUSH2 0xE3B JUMPI PUSH2 0xE3A PUSH2 0x5017 JUMP JUMPDEST JUMPDEST EQ PUSH2 0xE7B JUMPI PUSH1 0x40 MLOAD PUSH32 0x8C379A000000000000000000000000000000000000000000000000000000000 DUP2 MSTORE PUSH1 0x4 ADD PUSH2 0xE72 SWAP1 PUSH2 0x58FF JUMP JUMPDEST PUSH1 0x40 MLOAD DUP1 SWAP2 SUB SWAP1 REVERT JUMPDEST PUSH0 PUSH1 0x2 PUSH0 DUP6 DUP2 MSTORE PUSH1 0x20 ADD SWAP1 DUP2 MSTORE PUSH1 0x20 ADD PUSH0 KECCAK256 PUSH0 DUP4 DUP2 MSTORE PUSH1 0x20 ADD SWAP1 DUP2 MSTORE PUSH1 0x20 ADD PUSH0 KECCAK256 DUP1 SLOAD DUP1 PUSH1 0x20 MUL PUSH1 0x20 ADD PUSH1 0x40 MLOAD SWAP1 DUP2 ADD PUSH1 0x40 MSTORE DUP1 SWAP3 SWAP2 SWAP1 DUP2 DUP2 MSTORE PUSH1 0x20 ADD DUP3 DUP1 SLOAD DUP1 ISZERO PUSH2 0xF19 JUMPI PUSH1 0x20 MUL DUP3 ADD SWAP2 SWAP1 PUSH0 MSTORE PUSH1 0x20 PUSH0 KECCAK256 SWAP1 JUMPDEST DUP2 PUSH0 SWAP1 SLOAD SWAP1 PUSH2 0x100 EXP SWAP1 DIV PUSH20 0xFFFFFFFFFFFFFFFFFFFFFFFFFFFFFFFFFFFFFFFF AND PUSH20 0xFFFFFFFFFFFFFFFFFFFFFFFFFFFFFFFFFFFFFFFF AND DUP2 MSTORE PUSH1 0x20 ADD SWAP1 PUSH1 0x1 ADD SWAP1 DUP1 DUP4 GT PUSH2 0xED0 JUMPI JUMPDEST POP POP POP POP POP SWAP1 POP PUSH0 DUP2 MLOAD GT PUSH2 0xF63 JUMPI PUSH1 0x40 MLOAD PUSH32 0x8C379A000000000000000000000000000000000000000000000000000000000 DUP2 MSTORE PUSH1 0x4 ADD PUSH2 0xF5A SWAP1 PUSH2 0x5967 JUMP JUMPDEST PUSH1 0x40 MLOAD DUP1 SWAP2 SUB SWAP1 REVERT JUMPDEST PUSH2 0xF6C DUP2 PUSH2 0x2398 JUMP JUMPDEST PUSH0 PUSH2 0xF77 DUP3 MLOAD PUSH2 0x24DD JUMP JUMPDEST SWAP1 POP PUSH0 DUP2 MLOAD PUSH8 0xFFFFFFFFFFFFFFFF DUP2 GT ISZERO PUSH2 0xF95 JUMPI PUSH2 0xF94 PUSH2 0x4260 JUMP JUMPDEST JUMPDEST PUSH1 0x40 MLOAD SWAP1 DUP1 DUP3 MSTORE DUP1 PUSH1 0x20 MUL PUSH1 0x20 ADD DUP3 ADD PUSH1 0x40 MSTORE DUP1 ISZERO PUSH2 0xFC8 JUMPI DUP2 PUSH1 0x20 ADD JUMPDEST PUSH1 0x60 DUP2 MSTORE PUSH1 0x20 ADD SWAP1 PUSH1 0x1 SWAP1 SUB SWAP1 DUP2 PUSH2 0xFB3 JUMPI SWAP1 POP JUMPDEST POP SWAP1 POP PUSH0 DUP3 MLOAD PUSH8 0xFFFFFFFFFFFFFFFF DUP2 GT ISZERO PUSH2 0xFE7 JUMPI PUSH2 0xFE6 PUSH2 0x4260 JUMP JUMPDEST JUMPDEST PUSH1 0x40 MLOAD SWAP1 DUP1 DUP3 MSTORE DUP1 PUSH1 0x20 MUL PUSH1 0x20 ADD DUP3 ADD PUSH1 0x40 MSTORE DUP1 ISZERO PUSH2 0x101A JUMPI DUP2 PUSH1 0x20 ADD JUMPDEST PUSH1 0x60 DUP2 MSTORE PUSH1 0x20 ADD SWAP1 PUSH1 0x1 SWAP1 SUB SWAP1 DUP2 PUSH2 0x1005 JUMPI SWAP1 POP JUMPDEST POP SWAP1 POP PUSH0 DUP1 JUMPDEST DUP5 MLOAD DUP2 LT ISZERO PUSH2 0x157C JUMPI PUSH0 DUP6 DUP3 DUP2 MLOAD DUP2 LT PUSH2 0x103D JUMPI PUSH2 0x103C PUSH2 0x50D2 JUMP JUMPDEST JUMPDEST PUSH1 0x20 MUL PUSH1 0x20 ADD ADD MLOAD PUSH1 0xFF AND PUSH8 0xFFFFFFFFFFFFFFFF DUP2 GT ISZERO PUSH2 0x1061 JUMPI PUSH2 0x1060 PUSH2 0x4260 JUMP JUMPDEST JUMPDEST PUSH1 0x40 MLOAD SWAP1 DUP1 DUP3 MSTORE DUP1 PUSH1 0x20 MUL PUSH1 0x20 ADD DUP3 ADD PUSH1 0x40 MSTORE DUP1 ISZERO PUSH2 0x108F JUMPI DUP2 PUSH1 0x20 ADD PUSH1 0x20 DUP3 MUL DUP1 CALLDATASIZE DUP4 CALLDATACOPY DUP1 DUP3 ADD SWAP2 POP POP SWAP1 POP JUMPDEST POP SWAP1 POP PUSH0 DUP7 DUP4 DUP2 MLOAD DUP2 LT PUSH2 0x10A6 JUMPI PUSH2 0x10A5 PUSH2 0x50D2 JUMP JUMPDEST JUMPDEST PUSH1 0x20 MUL PUSH1 0x20 ADD ADD MLOAD PUSH1 0xFF AND PUSH8 0xFFFFFFFFFFFFFFFF DUP2 GT ISZERO PUSH2 0x10CA JUMPI PUSH2 0x10C9 PUSH2 0x4260 JUMP JUMPDEST JUMPDEST PUSH1 0x40 MLOAD SWAP1 DUP1 DUP3 MSTORE DUP1 PUSH1 0x20 MUL PUSH1 0x20 ADD DUP3 ADD PUSH1 0x40 MSTORE DUP1 ISZERO PUSH2 0x10FD JUMPI DUP2 PUSH1 0x20 ADD JUMPDEST PUSH1 0x60 DUP2 MSTORE PUSH1 0x20 ADD SWAP1 PUSH1 0x1 SWAP1 SUB SWAP1 DUP2 PUSH2 0x10E8 JUMPI SWAP1 POP JUMPDEST POP SWAP1 POP PUSH0 DUP8 DUP5 DUP2 MLOAD DUP2 LT PUSH2 0x1114 JUMPI PUSH2 0x1113 PUSH2 0x50D2 JUMP JUMPDEST JUMPDEST PUSH1 0x20 MUL PUSH1 0x20 ADD ADD MLOAD PUSH1 0xFF AND PUSH8 0xFFFFFFFFFFFFFFFF DUP2 GT ISZERO PUSH2 0x1138 JUMPI PUSH2 0x1137 PUSH2 0x4260 JUMP JUMPDEST JUMPDEST PUSH1 0x40 MLOAD SWAP1 DUP1 DUP3 MSTORE DUP1 PUSH1 0x20 MUL PUSH1 0x20 ADD DUP3 ADD PUSH1 0x40 MSTORE DUP1 ISZERO PUSH2 0x116B JUMPI DUP2 PUSH1 0x20 ADD JUMPDEST PUSH1 0x60 DUP2 MSTORE PUSH1 0x20 ADD SWAP1 PUSH1 0x1 SWAP1 SUB SWAP1 DUP2 PUSH2 0x1156 JUMPI SWAP1 POP JUMPDEST POP SWAP1 POP PUSH0 DUP9 DUP6 DUP2 MLOAD DUP2 LT PUSH2 0x1182 JUMPI PUSH2 0x1181 PUSH2 0x50D2 JUMP JUMPDEST JUMPDEST PUSH1 0x20 MUL PUSH1 0x20 ADD ADD MLOAD PUSH1 0xFF AND PUSH8 0xFFFFFFFFFFFFFFFF DUP2 GT ISZERO PUSH2 0x11A6 JUMPI PUSH2 0x11A5 PUSH2 0x4260 JUMP JUMPDEST JUMPDEST PUSH1 0x40 MLOAD SWAP1 DUP1 DUP3 MSTORE DUP1 PUSH1 0x20 MUL PUSH1 0x20 ADD DUP3 ADD PUSH1 0x40 MSTORE DUP1 ISZERO PUSH2 0x11D9 JUMPI DUP2 PUSH1 0x20 ADD JUMPDEST PUSH1 0x60 DUP2 MSTORE PUSH1 0x20 ADD SWAP1 PUSH1 0x1 SWAP1 SUB SWAP1 DUP2 PUSH2 0x11C4 JUMPI SWAP1 POP JUMPDEST POP SWAP1 POP PUSH0 JUMPDEST DUP10 DUP7 DUP2 MLOAD DUP2 LT PUSH2 0x11F1 JUMPI PUSH2 0x11F0 PUSH2 0x50D2 JUMP JUMPDEST JUMPDEST PUSH1 0x20 MUL PUSH1 0x20 ADD ADD MLOAD PUSH1 0xFF AND DUP2 LT DUP1 ISZERO PUSH2 0x120A JUMPI POP DUP11 MLOAD DUP8 LT JUMPDEST ISZERO PUSH2 0x13DF JUMPI DUP11 DUP8 DUP2 MLOAD DUP2 LT PUSH2 0x1222 JUMPI PUSH2 0x1221 PUSH2 0x50D2 JUMP JUMPDEST JUMPDEST PUSH1 0x20 MUL PUSH1 0x20 ADD ADD MLOAD DUP6 DUP3 DUP2 MLOAD DUP2 LT PUSH2 0x123D JUMPI PUSH2 0x123C PUSH2 0x50D2 JUMP JUMPDEST JUMPDEST PUSH1 0x20 MUL PUSH1 0x20 ADD ADD SWAP1 PUSH20 0xFFFFFFFFFFFFFFFFFFFFFFFFFFFFFFFFFFFFFFFF AND SWAP1 DUP2 PUSH20 0xFFFFFFFFFFFFFFFFFFFFFFFFFFFFFFFFFFFFFFFF AND DUP2 MSTORE POP POP PUSH0 PUSH2 0x1281 DUP16 PUSH2 0x1C2E JUMP JUMPDEST PUSH2 0x128A DUP15 PUSH2 0x1C2E JUMP JUMPDEST PUSH2 0x12C5 DUP15 DUP12 DUP2 MLOAD DUP2 LT PUSH2 0x12A0 JUMPI PUSH2 0x129F PUSH2 0x50D2 JUMP JUMPDEST JUMPDEST PUSH1 0x20 MUL PUSH1 0x20 ADD ADD MLOAD PUSH20 0xFFFFFFFFFFFFFFFFFFFFFFFFFFFFFFFFFFFFFFFF AND PUSH1 0x14 PUSH2 0x1CF8 JUMP JUMPDEST PUSH1 0x40 MLOAD PUSH1 0x20 ADD PUSH2 0x12D7 SWAP4 SWAP3 SWAP2 SWAP1 PUSH2 0x5985 JUMP JUMPDEST PUSH1 0x40 MLOAD PUSH1 0x20 DUP2 DUP4 SUB SUB DUP2 MSTORE SWAP1 PUSH1 0x40 MSTORE SWAP1 POP DUP1 PUSH1 0x40 MLOAD PUSH1 0x20 ADD PUSH2 0x12F9 SWAP2 SWAP1 PUSH2 0x59CB JUMP JUMPDEST PUSH1 0x40 MLOAD PUSH1 0x20 DUP2 DUP4 SUB SUB DUP2 MSTORE SWAP1 PUSH1 0x40 MSTORE DUP6 DUP4 DUP2 MLOAD DUP2 LT PUSH2 0x131B JUMPI PUSH2 0x131A PUSH2 0x50D2 JUMP JUMPDEST JUMPDEST PUSH1 0x20 MUL PUSH1 0x20 ADD ADD DUP2 SWAP1 MSTORE POP DUP1 PUSH1 0x40 MLOAD PUSH1 0x20 ADD PUSH2 0x1337 SWAP2 SWAP1 PUSH2 0x5A36 JUMP JUMPDEST PUSH1 0x40 MLOAD PUSH1 0x20 DUP2 DUP4 SUB SUB DUP2 MSTORE SWAP1 PUSH1 0x40 MSTORE DUP5 DUP4 DUP2 MLOAD DUP2 LT PUSH2 0x1359 JUMPI PUSH2 0x1358 PUSH2 0x50D2 JUMP JUMPDEST JUMPDEST PUSH1 0x20 MUL PUSH1 0x20 ADD ADD DUP2 SWAP1 MSTORE POP PUSH2 0x139F DUP13 DUP10 DUP2 MLOAD DUP2 LT PUSH2 0x137A JUMPI PUSH2 0x1379 PUSH2 0x50D2 JUMP JUMPDEST JUMPDEST PUSH1 0x20 MUL PUSH1 0x20 ADD ADD MLOAD PUSH20 0xFFFFFFFFFFFFFFFFFFFFFFFFFFFFFFFFFFFFFFFF AND PUSH1 0x14 PUSH2 0x1CF8 JUMP JUMPDEST DUP4 DUP4 DUP2 MLOAD DUP2 LT PUSH2 0x13B2 JUMPI PUSH2 0x13B1 PUSH2 0x50D2 JUMP JUMPDEST JUMPDEST PUSH1 0x20 MUL PUSH1 0x20 ADD ADD DUP2 SWAP1 MSTORE POP DUP8 DUP1 PUSH2 0x13C8 SWAP1 PUSH2 0x5A57 JUMP JUMPDEST SWAP9 POP POP POP DUP1 DUP1 PUSH2 0x13D7 SWAP1 PUSH2 0x5A57 JUMP JUMPDEST SWAP2 POP POP PUSH2 0x11DE JUMP JUMPDEST POP PUSH1 0x3 PUSH0 DUP15 DUP2 MSTORE PUSH1 0x20 ADD SWAP1 DUP2 MSTORE PUSH1 0x20 ADD PUSH0 KECCAK256 PUSH0 DUP13 DUP2 MSTORE PUSH1 0x20 ADD SWAP1 DUP2 MSTORE PUSH1 0x20 ADD PUSH0 KECCAK256 PUSH1 0x40 MLOAD DUP1 PUSH1 0x20 ADD PUSH1 0x40 MSTORE DUP1 DUP7 DUP2 MSTORE POP SWAP1 DUP1 PUSH1 0x1 DUP2 SLOAD ADD DUP1 DUP3 SSTORE DUP1 SWAP2 POP POP PUSH1 0x1 SWAP1 SUB SWAP1 PUSH0 MSTORE PUSH1 0x20 PUSH0 KECCAK256 ADD PUSH0 SWAP1 SWAP2 SWAP1 SWAP2 SWAP1 SWAP2 POP PUSH0 DUP3 ADD MLOAD DUP2 PUSH0 ADD SWAP1 DUP1 MLOAD SWAP1 PUSH1 0x20 ADD SWAP1 PUSH2 0x144B SWAP3 SWAP2 SWAP1 PUSH2 0x3DF5 JUMP JUMPDEST POP POP POP PUSH32 0x50F27C97E1D470F268640FB65651CB218B205FAA1E09EDD7271DD70A0069F5A8 PUSH2 0x1478 DUP15 PUSH2 0x1C2E JUMP JUMPDEST PUSH2 0x1481 DUP14 PUSH2 0x1C2E JUMP JUMPDEST PUSH2 0x1496 PUSH1 0x1 DUP10 PUSH2 0x1491 SWAP2 SWAP1 PUSH2 0x5A9E JUMP JUMPDEST PUSH2 0x1C2E JUMP JUMPDEST PUSH1 0x40 MLOAD PUSH1 0x20 ADD PUSH2 0x14A8 SWAP4 SWAP3 SWAP2 SWAP1 PUSH2 0x5985 JUMP JUMPDEST PUSH1 0x40 MLOAD PUSH1 0x20 DUP2 DUP4 SUB SUB DUP2 MSTORE SWAP1 PUSH1 0x40 MSTORE DUP5 DUP5 DUP5 PUSH1 0x40 MLOAD PUSH2 0x14CA SWAP5 SWAP4 SWAP3 SWAP2 SWAP1 PUSH2 0x5B54 JUMP JUMPDEST PUSH1 0x40 MLOAD DUP1 SWAP2 SUB SWAP1 LOG1 PUSH2 0x14E7 PUSH1 0x1 DUP7 PUSH2 0x14E2 SWAP2 SWAP1 PUSH2 0x5A9E JUMP JUMPDEST PUSH2 0x1C2E JUMP JUMPDEST DUP9 DUP7 DUP2 MLOAD DUP2 LT PUSH2 0x14FA JUMPI PUSH2 0x14F9 PUSH2 0x50D2 JUMP JUMPDEST JUMPDEST PUSH1 0x20 MUL PUSH1 0x20 ADD ADD DUP2 SWAP1 MSTORE POP PUSH2 0x150E DUP14 PUSH2 0x1C2E JUMP JUMPDEST PUSH2 0x1517 DUP13 PUSH2 0x1C2E JUMP JUMPDEST PUSH2 0x152C PUSH1 0x1 DUP9 PUSH2 0x1527 SWAP2 SWAP1 PUSH2 0x5A9E JUMP JUMPDEST PUSH2 0x1C2E JUMP JUMPDEST PUSH1 0x40 MLOAD PUSH1 0x20 ADD PUSH2 0x153E SWAP4 SWAP3 SWAP2 SWAP1 PUSH2 0x5985 JUMP JUMPDEST PUSH1 0x40 MLOAD PUSH1 0x20 DUP2 DUP4 SUB SUB DUP2 MSTORE SWAP1 PUSH1 0x40 MSTORE DUP8 DUP7 DUP2 MLOAD DUP2 LT PUSH2 0x1560 JUMPI PUSH2 0x155F PUSH2 0x50D2 JUMP JUMPDEST JUMPDEST PUSH1 0x20 MUL PUSH1 0x20 ADD ADD DUP2 SWAP1 MSTORE POP POP POP POP POP DUP1 DUP1 PUSH1 0x1 ADD SWAP2 POP POP PUSH2 0x1020 JUMP JUMPDEST POP DUP4 PUSH1 0x4 SWAP1 DUP1 MLOAD SWAP1 PUSH1 0x20 ADD SWAP1 PUSH2 0x1593 SWAP3 SWAP2 SWAP1 PUSH2 0x3E7C JUMP JUMPDEST POP PUSH32 0xE9652A9B8D8F8D6A5A2EC24874D02E726AB9FB60B5887BE28F4540B3D5032014 PUSH2 0x15BE DUP10 PUSH2 0x1C2E JUMP JUMPDEST PUSH2 0x15C7 DUP9 PUSH2 0x1C2E JUMP JUMPDEST PUSH1 0x40 MLOAD PUSH1 0x20 ADD PUSH2 0x15D8 SWAP3 SWAP2 SWAP1 PUSH2 0x5BB3 JUMP JUMPDEST PUSH1 0x40 MLOAD PUSH1 0x20 DUP2 DUP4 SUB SUB DUP2 MSTORE SWAP1 PUSH1 0x40 MSTORE DUP5 DUP5 PUSH2 0x15F2 DUP11 PUSH2 0x1C2E JUMP JUMPDEST PUSH1 0x40 MLOAD PUSH2 0x1602 SWAP5 SWAP4 SWAP3 SWAP2 SWAP1 PUSH2 0x5BE1 JUMP JUMPDEST PUSH1 0x40 MLOAD DUP1 SWAP2 SUB SWAP1 LOG1 POP POP POP POP POP POP POP POP JUMP JUMPDEST PUSH1 0x60 PUSH1 0x3 PUSH0 DUP5 DUP2 MSTORE PUSH1 0x20 ADD SWAP1 DUP2 MSTORE PUSH1 0x20 ADD PUSH0 KECCAK256 PUSH0 DUP4 DUP2 MSTORE PUSH1 0x20 ADD SWAP1 DUP2 MSTORE PUSH1 0x20 ADD PUSH0 KECCAK256 DUP1 SLOAD DUP1 PUSH1 0x20 MUL PUSH1 0x20 ADD PUSH1 0x40 MLOAD SWAP1 DUP2 ADD PUSH1 0x40 MSTORE DUP1 SWAP3 SWAP2 SWAP1 DUP2 DUP2 MSTORE PUSH1 0x20 ADD PUSH0 SWAP1 JUMPDEST DUP3 DUP3 LT ISZERO PUSH2 0x170B JUMPI DUP4 DUP3 SWAP1 PUSH0 MSTORE PUSH1 0x20 PUSH0 KECCAK256 ADD PUSH1 0x40 MLOAD DUP1 PUSH1 0x20 ADD PUSH1 0x40 MSTORE SWAP1 DUP2 PUSH0 DUP3 ADD DUP1 SLOAD DUP1 PUSH1 0x20 MUL PUSH1 0x20 ADD PUSH1 0x40 MLOAD SWAP1 DUP2 ADD PUSH1 0x40 MSTORE DUP1 SWAP3 SWAP2 SWAP1 DUP2 DUP2 MSTORE PUSH1 0x20 ADD DUP3 DUP1 SLOAD DUP1 ISZERO PUSH2 0x16F3 JUMPI PUSH1 0x20 MUL DUP3 ADD SWAP2 SWAP1 PUSH0 MSTORE PUSH1 0x20 PUSH0 KECCAK256 SWAP1 JUMPDEST DUP2 PUSH0 SWAP1 SLOAD SWAP1 PUSH2 0x100 EXP SWAP1 DIV PUSH20 0xFFFFFFFFFFFFFFFFFFFFFFFFFFFFFFFFFFFFFFFF AND PUSH20 0xFFFFFFFFFFFFFFFFFFFFFFFFFFFFFFFFFFFFFFFF AND DUP2 MSTORE PUSH1 0x20 ADD SWAP1 PUSH1 0x1 ADD SWAP1 DUP1 DUP4 GT PUSH2 0x16AA JUMPI JUMPDEST POP POP POP POP POP DUP2 MSTORE POP POP DUP2 MSTORE PUSH1 0x20 ADD SWAP1 PUSH1 0x1 ADD SWAP1 PUSH2 0x1655 JUMP JUMPDEST POP POP POP POP SWAP1 POP SWAP3 SWAP2 POP POP JUMP JUMPDEST PUSH2 0x171F PUSH2 0x2507 JUMP JUMPDEST PUSH2 0x1728 PUSH0 PUSH2 0x258E JUMP JUMPDEST JUMP JUMPDEST PUSH1 0x60 PUSH1 0x4 DUP1 SLOAD DUP1 PUSH1 0x20 MUL PUSH1 0x20 ADD PUSH1 0x40 MLOAD SWAP1 DUP2 ADD PUSH1 0x40 MSTORE DUP1 SWAP3 SWAP2 SWAP1 DUP2 DUP2 MSTORE PUSH1 0x20 ADD DUP3 DUP1 SLOAD DUP1 ISZERO PUSH2 0x179A JUMPI PUSH1 0x20 MUL DUP3 ADD SWAP2 SWAP1 PUSH0 MSTORE PUSH1 0x20 PUSH0 KECCAK256 SWAP1 PUSH0 SWAP1 JUMPDEST DUP3 DUP3 SWAP1 SLOAD SWAP1 PUSH2 0x100 EXP SWAP1 DIV PUSH1 0xFF AND PUSH1 0xFF AND DUP2 MSTORE PUSH1 0x20 ADD SWAP1 PUSH1 0x1 ADD SWAP1 PUSH1 0x20 DUP3 PUSH0 ADD DIV SWAP3 DUP4 ADD SWAP3 PUSH1 0x1 SUB DUP3 MUL SWAP2 POP DUP1 DUP5 GT PUSH2 0x1764 JUMPI SWAP1 POP JUMPDEST POP POP POP POP POP SWAP1 POP SWAP1 JUMP JUMPDEST PUSH0 DUP1 PUSH2 0x17AE PUSH2 0x265F JUMP JUMPDEST SWAP1 POP DUP1 PUSH0 ADD PUSH0 SWAP1 SLOAD SWAP1 PUSH2 0x100 EXP SWAP1 DIV PUSH20 0xFFFFFFFFFFFFFFFFFFFFFFFFFFFFFFFFFFFFFFFF AND SWAP2 POP POP SWAP1 JUMP JUMPDEST PUSH1 0x60 PUSH1 0x2 PUSH0 DUP5 DUP2 MSTORE PUSH1 0x20 ADD SWAP1 DUP2 MSTORE PUSH1 0x20 ADD PUSH0 KECCAK256 PUSH0 DUP4 DUP2 MSTORE PUSH1 0x20 ADD SWAP1 DUP2 MSTORE PUSH1 0x20 ADD PUSH0 KECCAK256 DUP1 SLOAD DUP1 PUSH1 0x20 MUL PUSH1 0x20 ADD PUSH1 0x40 MLOAD SWAP1 DUP2 ADD PUSH1 0x40 MSTORE DUP1 SWAP3 SWAP2 SWAP1 DUP2 DUP2 MSTORE PUSH1 0x20 ADD DUP3 DUP1 SLOAD DUP1 ISZERO PUSH2 0x1878 JUMPI PUSH1 0x20 MUL DUP3 ADD SWAP2 SWAP1 PUSH0 MSTORE PUSH1 0x20 PUSH0 KECCAK256 SWAP1 JUMPDEST DUP2 PUSH0 SWAP1 SLOAD SWAP1 PUSH2 0x100 EXP SWAP1 DIV PUSH20 0xFFFFFFFFFFFFFFFFFFFFFFFFFFFFFFFFFFFFFFFF AND PUSH20 0xFFFFFFFFFFFFFFFFFFFFFFFFFFFFFFFFFFFFFFFF AND DUP2 MSTORE PUSH1 0x20 ADD SWAP1 PUSH1 0x1 ADD SWAP1 DUP1 DUP4 GT PUSH2 0x182F JUMPI JUMPDEST POP POP POP POP POP SWAP1 POP SWAP3 SWAP2 POP POP JUMP JUMPDEST PUSH2 0x1891 DUP5 DUP5 DUP5 DUP5 PUSH2 0x21CC JUMP JUMPDEST POP POP POP POP JUMP JUMPDEST PUSH1 0x40 MLOAD DUP1 PUSH1 0x40 ADD PUSH1 0x40 MSTORE DUP1 PUSH1 0x5 DUP2 MSTORE PUSH1 0x20 ADD PUSH32 0x352E302E30000000000000000000000000000000000000000000000000000000 DUP2 MSTORE POP DUP2 JUMP JUMPDEST PUSH0 DUP1 PUSH0 DUP1 SLOAD SWAP1 PUSH2 0x100 EXP SWAP1 DIV PUSH20 0xFFFFFFFFFFFFFFFFFFFFFFFFFFFFFFFFFFFFFFFF AND PUSH20 0xFFFFFFFFFFFFFFFFFFFFFFFFFFFFFFFFFFFFFFFF AND PUSH4 0x99664245 DUP5 PUSH1 0x40 MLOAD DUP3 PUSH4 0xFFFFFFFF AND PUSH1 0xE0 SHL DUP2 MSTORE PUSH1 0x4 ADD PUSH2 0x192A SWAP2 SWAP1 PUSH2 0x4C25 JUMP JUMPDEST PUSH0 PUSH1 0x40 MLOAD DUP1 DUP4 SUB DUP2 DUP7 GAS STATICCALL ISZERO DUP1 ISZERO PUSH2 0x1944 JUMPI RETURNDATASIZE PUSH0 DUP1 RETURNDATACOPY RETURNDATASIZE PUSH0 REVERT JUMPDEST POP POP POP POP PUSH1 0x40 MLOAD RETURNDATASIZE PUSH0 DUP3 RETURNDATACOPY RETURNDATASIZE PUSH1 0x1F NOT PUSH1 0x1F DUP3 ADD AND DUP3 ADD DUP1 PUSH1 0x40 MSTORE POP DUP2 ADD SWAP1 PUSH2 0x196C SWAP2 SWAP1 PUSH2 0x4F12 JUMP JUMPDEST POP SWAP7 POP POP POP POP POP POP POP DUP1 SWAP2 POP POP SWAP2 SWAP1 POP JUMP JUMPDEST PUSH0 PUSH2 0x1987 PUSH2 0x2686 JUMP JUMPDEST SWAP1 POP PUSH0 DUP2 PUSH0 ADD PUSH1 0x8 SWAP1 SLOAD SWAP1 PUSH2 0x100 EXP SWAP1 DIV PUSH1 0xFF AND ISZERO SWAP1 POP PUSH0 DUP3 PUSH0 ADD PUSH0 SWAP1 SLOAD SWAP1 PUSH2 0x100 EXP SWAP1 DIV PUSH8 0xFFFFFFFFFFFFFFFF AND SWAP1 POP PUSH0 DUP1 DUP3 PUSH8 0xFFFFFFFFFFFFFFFF AND EQ DUP1 ISZERO PUSH2 0x19CF JUMPI POP DUP3 JUMPDEST SWAP1 POP PUSH0 PUSH1 0x1 DUP4 PUSH8 0xFFFFFFFFFFFFFFFF AND EQ DUP1 ISZERO PUSH2 0x1A02 JUMPI POP PUSH0 ADDRESS PUSH20 0xFFFFFFFFFFFFFFFFFFFFFFFFFFFFFFFFFFFFFFFF AND EXTCODESIZE EQ JUMPDEST SWAP1 POP DUP2 ISZERO DUP1 ISZERO PUSH2 0x1A10 JUMPI POP DUP1 ISZERO JUMPDEST ISZERO PUSH2 0x1A47 JUMPI PUSH1 0x40 MLOAD PUSH32 0xF92EE8A900000000000000000000000000000000000000000000000000000000 DUP2 MSTORE PUSH1 0x4 ADD PUSH1 0x40 MLOAD DUP1 SWAP2 SUB SWAP1 REVERT JUMPDEST PUSH1 0x1 DUP6 PUSH0 ADD PUSH0 PUSH2 0x100 EXP DUP2 SLOAD DUP2 PUSH8 0xFFFFFFFFFFFFFFFF MUL NOT AND SWAP1 DUP4 PUSH8 0xFFFFFFFFFFFFFFFF AND MUL OR SWAP1 SSTORE POP DUP4 ISZERO PUSH2 0x1A94 JUMPI PUSH1 0x1 DUP6 PUSH0 ADD PUSH1 0x8 PUSH2 0x100 EXP DUP2 SLOAD DUP2 PUSH1 0xFF MUL NOT AND SWAP1 DUP4 ISZERO ISZERO MUL OR SWAP1 SSTORE POP JUMPDEST PUSH2 0x1A9D DUP7 PUSH2 0x26AD JUMP JUMPDEST PUSH2 0x1AA5 PUSH2 0x26C1 JUMP JUMPDEST DUP4 ISZERO PUSH2 0x1AFF JUMPI PUSH0 DUP6 PUSH0 ADD PUSH1 0x8 PUSH2 0x100 EXP DUP2 SLOAD DUP2 PUSH1 0xFF MUL NOT AND SWAP1 DUP4 ISZERO ISZERO MUL OR SWAP1 SSTORE POP PUSH32 0xC7F505B2F371AE2175EE4913F4499E1F2633A7B5936321EED1CDAEB6115181D2 PUSH1 0x1 PUSH1 0x40 MLOAD PUSH2 0x1AF6 SWAP2 SWAP1 PUSH2 0x5C8C JUMP JUMPDEST PUSH1 0x40 MLOAD DUP1 SWAP2 SUB SWAP1 LOG1 JUMPDEST POP POP POP POP POP POP JUMP JUMPDEST PUSH2 0x1B0F PUSH2 0x2507 JUMP JUMPDEST DUP1 PUSH0 DUP1 PUSH2 0x100 EXP DUP2 SLOAD DUP2 PUSH20 0xFFFFFFFFFFFFFFFFFFFFFFFFFFFFFFFFFFFFFFFF MUL NOT AND SWAP1 DUP4 PUSH20 0xFFFFFFFFFFFFFFFFFFFFFFFFFFFFFFFFFFFFFFFF AND MUL OR SWAP1 SSTORE POP POP JUMP JUMPDEST PUSH0 PUSH1 0x1 PUSH0 DUP5 PUSH20 0xFFFFFFFFFFFFFFFFFFFFFFFFFFFFFFFFFFFFFFFF AND PUSH20 0xFFFFFFFFFFFFFFFFFFFFFFFFFFFFFFFFFFFFFFFF AND DUP2 MSTORE PUSH1 0x20 ADD SWAP1 DUP2 MSTORE PUSH1 0x20 ADD PUSH0 KECCAK256 PUSH0 DUP4 DUP2 MSTORE PUSH1 0x20 ADD SWAP1 DUP2 MSTORE PUSH1 0x20 ADD PUSH0 KECCAK256 PUSH1 0x4 ADD SLOAD SWAP1 POP SWAP3 SWAP2 POP POP JUMP JUMPDEST PUSH2 0x1BB2 PUSH2 0x2507 JUMP JUMPDEST PUSH0 PUSH20 0xFFFFFFFFFFFFFFFFFFFFFFFFFFFFFFFFFFFFFFFF AND DUP2 PUSH20 0xFFFFFFFFFFFFFFFFFFFFFFFFFFFFFFFFFFFFFFFF AND SUB PUSH2 0x1C22 JUMPI PUSH0 PUSH1 0x40 MLOAD PUSH32 0x1E4FBDF700000000000000000000000000000000000000000000000000000000 DUP2 MSTORE PUSH1 0x4 ADD PUSH2 0x1C19 SWAP2 SWAP1 PUSH2 0x4A9C JUMP JUMPDEST PUSH1 0x40 MLOAD DUP1 SWAP2 SUB SWAP1 REVERT JUMPDEST PUSH2 0x1C2B DUP2 PUSH2 0x258E JUMP JUMPDEST POP JUMP JUMPDEST PUSH1 0x60 PUSH0 PUSH1 0x1 PUSH2 0x1C3C DUP5 PUSH2 0x26CB JUMP JUMPDEST ADD SWAP1 POP PUSH0 DUP2 PUSH8 0xFFFFFFFFFFFFFFFF DUP2 GT ISZERO PUSH2 0x1C5A JUMPI PUSH2 0x1C59 PUSH2 0x4260 JUMP JUMPDEST JUMPDEST PUSH1 0x40 MLOAD SWAP1 DUP1 DUP3 MSTORE DUP1 PUSH1 0x1F ADD PUSH1 0x1F NOT AND PUSH1 0x20 ADD DUP3 ADD PUSH1 0x40 MSTORE DUP1 ISZERO PUSH2 0x1C8C JUMPI DUP2 PUSH1 0x20 ADD PUSH1 0x1 DUP3 MUL DUP1 CALLDATASIZE DUP4 CALLDATACOPY DUP1 DUP3 ADD SWAP2 POP POP SWAP1 POP JUMPDEST POP SWAP1 POP PUSH0 DUP3 PUSH1 0x20 ADD DUP3 ADD SWAP1 POP JUMPDEST PUSH1 0x1 ISZERO PUSH2 0x1CED JUMPI DUP1 DUP1 PUSH1 0x1 SWAP1 SUB SWAP2 POP POP PUSH32 0x3031323334353637383961626364656600000000000000000000000000000000 PUSH1 0xA DUP7 MOD BYTE DUP2 MSTORE8 PUSH1 0xA DUP6 DUP2 PUSH2 0x1CE2 JUMPI PUSH2 0x1CE1 PUSH2 0x5CA5 JUMP JUMPDEST JUMPDEST DIV SWAP5 POP PUSH0 DUP6 SUB PUSH2 0x1C99 JUMPI JUMPDEST DUP2 SWAP4 POP POP POP POP SWAP2 SWAP1 POP JUMP JUMPDEST PUSH1 0x60 PUSH0 DUP4 SWAP1 POP PUSH0 PUSH1 0x2 DUP5 PUSH1 0x2 PUSH2 0x1D0E SWAP2 SWAP1 PUSH2 0x5CD2 JUMP JUMPDEST PUSH2 0x1D18 SWAP2 SWAP1 PUSH2 0x5A9E JUMP JUMPDEST PUSH8 0xFFFFFFFFFFFFFFFF DUP2 GT ISZERO PUSH2 0x1D31 JUMPI PUSH2 0x1D30 PUSH2 0x4260 JUMP JUMPDEST JUMPDEST PUSH1 0x40 MLOAD SWAP1 DUP1 DUP3 MSTORE DUP1 PUSH1 0x1F ADD PUSH1 0x1F NOT AND PUSH1 0x20 ADD DUP3 ADD PUSH1 0x40 MSTORE DUP1 ISZERO PUSH2 0x1D63 JUMPI DUP2 PUSH1 0x20 ADD PUSH1 0x1 DUP3 MUL DUP1 CALLDATASIZE DUP4 CALLDATACOPY DUP1 DUP3 ADD SWAP2 POP POP SWAP1 POP JUMPDEST POP SWAP1 POP PUSH32 0x3000000000000000000000000000000000000000000000000000000000000000 DUP2 PUSH0 DUP2 MLOAD DUP2 LT PUSH2 0x1D9A JUMPI PUSH2 0x1D99 PUSH2 0x50D2 JUMP JUMPDEST JUMPDEST PUSH1 0x20 ADD ADD SWAP1 PUSH31 0xFFFFFFFFFFFFFFFFFFFFFFFFFFFFFFFFFFFFFFFFFFFFFFFFFFFFFFFFFFFFFF NOT AND SWAP1 DUP2 PUSH0 BYTE SWAP1 MSTORE8 POP PUSH32 0x7800000000000000000000000000000000000000000000000000000000000000 DUP2 PUSH1 0x1 DUP2 MLOAD DUP2 LT PUSH2 0x1DFD JUMPI PUSH2 0x1DFC PUSH2 0x50D2 JUMP JUMPDEST JUMPDEST PUSH1 0x20 ADD ADD SWAP1 PUSH31 0xFFFFFFFFFFFFFFFFFFFFFFFFFFFFFFFFFFFFFFFFFFFFFFFFFFFFFFFFFFFFFF NOT AND SWAP1 DUP2 PUSH0 BYTE SWAP1 MSTORE8 POP PUSH0 PUSH1 0x1 DUP6 PUSH1 0x2 PUSH2 0x1E3B SWAP2 SWAP1 PUSH2 0x5CD2 JUMP JUMPDEST PUSH2 0x1E45 SWAP2 SWAP1 PUSH2 0x5A9E JUMP JUMPDEST SWAP1 POP JUMPDEST PUSH1 0x1 DUP2 GT ISZERO PUSH2 0x1EE4 JUMPI PUSH32 0x3031323334353637383961626364656600000000000000000000000000000000 PUSH1 0xF DUP5 AND PUSH1 0x10 DUP2 LT PUSH2 0x1E87 JUMPI PUSH2 0x1E86 PUSH2 0x50D2 JUMP JUMPDEST JUMPDEST BYTE PUSH1 0xF8 SHL DUP3 DUP3 DUP2 MLOAD DUP2 LT PUSH2 0x1E9E JUMPI PUSH2 0x1E9D PUSH2 0x50D2 JUMP JUMPDEST JUMPDEST PUSH1 0x20 ADD ADD SWAP1 PUSH31 0xFFFFFFFFFFFFFFFFFFFFFFFFFFFFFFFFFFFFFFFFFFFFFFFFFFFFFFFFFFFFFF NOT AND SWAP1 DUP2 PUSH0 BYTE SWAP1 MSTORE8 POP PUSH1 0x4 DUP4 SWAP1 SHR SWAP3 POP DUP1 PUSH2 0x1EDD SWAP1 PUSH2 0x5D13 JUMP JUMPDEST SWAP1 POP PUSH2 0x1E48 JUMP JUMPDEST POP PUSH0 DUP3 EQ PUSH2 0x1F2B JUMPI DUP5 DUP5 PUSH1 0x40 MLOAD PUSH32 0xE22E27EB00000000000000000000000000000000000000000000000000000000 DUP2 MSTORE PUSH1 0x4 ADD PUSH2 0x1F22 SWAP3 SWAP2 SWAP1 PUSH2 0x5D3A JUMP JUMPDEST PUSH1 0x40 MLOAD DUP1 SWAP2 SUB SWAP1 REVERT JUMPDEST DUP1 SWAP3 POP POP POP SWAP3 SWAP2 POP POP JUMP JUMPDEST PUSH32 0x0 PUSH20 0xFFFFFFFFFFFFFFFFFFFFFFFFFFFFFFFFFFFFFFFF AND ADDRESS PUSH20 0xFFFFFFFFFFFFFFFFFFFFFFFFFFFFFFFFFFFFFFFF AND EQ DUP1 PUSH2 0x1FE3 JUMPI POP PUSH32 0x0 PUSH20 0xFFFFFFFFFFFFFFFFFFFFFFFFFFFFFFFFFFFFFFFF AND PUSH2 0x1FCA PUSH2 0x281C JUMP JUMPDEST PUSH20 0xFFFFFFFFFFFFFFFFFFFFFFFFFFFFFFFFFFFFFFFF AND EQ ISZERO JUMPDEST ISZERO PUSH2 0x201A JUMPI PUSH1 0x40 MLOAD PUSH32 0xE07C8DBA00000000000000000000000000000000000000000000000000000000 DUP2 MSTORE PUSH1 0x4 ADD PUSH1 0x40 MLOAD DUP1 SWAP2 SUB SWAP1 REVERT JUMPDEST JUMP JUMPDEST PUSH2 0x2024 PUSH2 0x2507 JUMP JUMPDEST POP JUMP JUMPDEST DUP2 PUSH20 0xFFFFFFFFFFFFFFFFFFFFFFFFFFFFFFFFFFFFFFFF AND PUSH4 0x52D1902D PUSH1 0x40 MLOAD DUP2 PUSH4 0xFFFFFFFF AND PUSH1 0xE0 SHL DUP2 MSTORE PUSH1 0x4 ADD PUSH1 0x20 PUSH1 0x40 MLOAD DUP1 DUP4 SUB DUP2 DUP7 GAS STATICCALL SWAP3 POP POP POP DUP1 ISZERO PUSH2 0x208F JUMPI POP PUSH1 0x40 MLOAD RETURNDATASIZE PUSH1 0x1F NOT PUSH1 0x1F DUP3 ADD AND DUP3 ADD DUP1 PUSH1 0x40 MSTORE POP DUP2 ADD SWAP1 PUSH2 0x208C SWAP2 SWAP1 PUSH2 0x5D8B JUMP JUMPDEST PUSH1 0x1 JUMPDEST PUSH2 0x20D0 JUMPI DUP2 PUSH1 0x40 MLOAD PUSH32 0x4C9C8CE300000000000000000000000000000000000000000000000000000000 DUP2 MSTORE PUSH1 0x4 ADD PUSH2 0x20C7 SWAP2 SWAP1 PUSH2 0x4A9C JUMP JUMPDEST PUSH1 0x40 MLOAD DUP1 SWAP2 SUB SWAP1 REVERT JUMPDEST PUSH32 0x360894A13BA1A3210667C828492DB98DCA3E2076CC3735A920A3CA505D382BBC PUSH0 SHL DUP2 EQ PUSH2 0x2136 JUMPI DUP1 PUSH1 0x40 MLOAD PUSH32 0xAA1D49A400000000000000000000000000000000000000000000000000000000 DUP2 MSTORE PUSH1 0x4 ADD PUSH2 0x212D SWAP2 SWAP1 PUSH2 0x476F JUMP JUMPDEST PUSH1 0x40 MLOAD DUP1 SWAP2 SUB SWAP1 REVERT JUMPDEST PUSH2 0x2140 DUP4 DUP4 PUSH2 0x286F JUMP JUMPDEST POP POP POP JUMP JUMPDEST PUSH32 0x0 PUSH20 0xFFFFFFFFFFFFFFFFFFFFFFFFFFFFFFFFFFFFFFFF AND ADDRESS PUSH20 0xFFFFFFFFFFFFFFFFFFFFFFFFFFFFFFFFFFFFFFFF AND EQ PUSH2 0x21CA JUMPI PUSH1 0x40 MLOAD PUSH32 0xE07C8DBA00000000000000000000000000000000000000000000000000000000 DUP2 MSTORE PUSH1 0x4 ADD PUSH1 0x40 MLOAD DUP1 SWAP2 SUB SWAP1 REVERT JUMPDEST JUMP JUMPDEST PUSH0 PUSH1 0x1 PUSH0 DUP6 PUSH20 0xFFFFFFFFFFFFFFFFFFFFFFFFFFFFFFFFFFFFFFFF AND PUSH20 0xFFFFFFFFFFFFFFFFFFFFFFFFFFFFFFFFFFFFFFFF AND DUP2 MSTORE PUSH1 0x20 ADD SWAP1 DUP2 MSTORE PUSH1 0x20 ADD PUSH0 KECCAK256 PUSH0 DUP7 DUP2 MSTORE PUSH1 0x20 ADD SWAP1 DUP2 MSTORE PUSH1 0x20 ADD PUSH0 KECCAK256 SWAP1 POP PUSH0 DUP2 PUSH1 0x1 ADD PUSH0 DUP6 DUP2 MSTORE PUSH1 0x20 ADD SWAP1 DUP2 MSTORE PUSH1 0x20 ADD PUSH0 KECCAK256 SWAP1 POP PUSH0 PUSH2 0x3E8 DUP5 PUSH2 0x2240 SWAP2 SWAP1 PUSH2 0x5CD2 JUMP JUMPDEST SWAP1 POP DUP1 DUP3 PUSH1 0x2 ADD DUP2 SWAP1 SSTORE POP DUP1 DUP4 PUSH1 0x3 ADD PUSH0 DUP3 DUP3 SLOAD PUSH2 0x225E SWAP2 SWAP1 PUSH2 0x5A9E JUMP JUMPDEST SWAP3 POP POP DUP2 SWAP1 SSTORE POP PUSH1 0xC DUP4 PUSH1 0x5 ADD DUP1 SLOAD SWAP1 POP LT ISZERO PUSH2 0x22A2 JUMPI DUP3 PUSH1 0x5 ADD DUP2 SWAP1 DUP1 PUSH1 0x1 DUP2 SLOAD ADD DUP1 DUP3 SSTORE DUP1 SWAP2 POP POP PUSH1 0x1 SWAP1 SUB SWAP1 PUSH0 MSTORE PUSH1 0x20 PUSH0 KECCAK256 ADD PUSH0 SWAP1 SWAP2 SWAP1 SWAP2 SWAP1 SWAP2 POP SSTORE PUSH2 0x232D JUMP JUMPDEST PUSH0 JUMPDEST PUSH1 0xB DUP2 LT ISZERO PUSH2 0x2307 JUMPI DUP4 PUSH1 0x5 ADD PUSH1 0x1 DUP3 PUSH2 0x22BE SWAP2 SWAP1 PUSH2 0x5A9E JUMP JUMPDEST DUP2 SLOAD DUP2 LT PUSH2 0x22CF JUMPI PUSH2 0x22CE PUSH2 0x50D2 JUMP JUMPDEST JUMPDEST SWAP1 PUSH0 MSTORE PUSH1 0x20 PUSH0 KECCAK256 ADD SLOAD DUP5 PUSH1 0x5 ADD DUP3 DUP2 SLOAD DUP2 LT PUSH2 0x22EE JUMPI PUSH2 0x22ED PUSH2 0x50D2 JUMP JUMPDEST JUMPDEST SWAP1 PUSH0 MSTORE PUSH1 0x20 PUSH0 KECCAK256 ADD DUP2 SWAP1 SSTORE POP DUP1 DUP1 PUSH1 0x1 ADD SWAP2 POP POP PUSH2 0x22A4 JUMP JUMPDEST POP DUP1 DUP4 PUSH1 0x5 ADD PUSH1 0xB DUP2 SLOAD DUP2 LT PUSH2 0x2320 JUMPI PUSH2 0x231F PUSH2 0x50D2 JUMP JUMPDEST JUMPDEST SWAP1 PUSH0 MSTORE PUSH1 0x20 PUSH0 KECCAK256 ADD DUP2 SWAP1 SSTORE POP JUMPDEST PUSH2 0x2337 DUP8 DUP8 PUSH2 0x28E1 JUMP JUMPDEST DUP6 PUSH20 0xFFFFFFFFFFFFFFFFFFFFFFFFFFFFFFFFFFFFFFFF AND PUSH32 0x37A607A509F5F08767B51CD8AF23A33AC0563C64DA64B78EF9CA4F152CD188E DUP5 PUSH1 0x3 ADD SLOAD DUP6 PUSH1 0x4 ADD SLOAD PUSH1 0x40 MLOAD PUSH2 0x2387 SWAP3 SWAP2 SWAP1 PUSH2 0x5D3A JUMP JUMPDEST PUSH1 0x40 MLOAD DUP1 SWAP2 SUB SWAP1 LOG2 POP POP POP POP POP POP POP JUMP JUMPDEST PUSH0 PUSH1 0x1 DUP3 MLOAD PUSH2 0x23A7 SWAP2 SWAP1 PUSH2 0x5882 JUMP JUMPDEST SWAP1 POP JUMPDEST PUSH0 DUP2 GT ISZERO PUSH2 0x24D9 JUMPI PUSH0 PUSH1 0x1 DUP3 PUSH2 0x23C0 SWAP2 SWAP1 PUSH2 0x5A9E JUMP JUMPDEST TIMESTAMP PREVRANDAO DUP5 PUSH1 0x40 MLOAD PUSH1 0x20 ADD PUSH2 0x23D5 SWAP4 SWAP3 SWAP2 SWAP1 PUSH2 0x5DD6 JUMP JUMPDEST PUSH1 0x40 MLOAD PUSH1 0x20 DUP2 DUP4 SUB SUB DUP2 MSTORE SWAP1 PUSH1 0x40 MSTORE DUP1 MLOAD SWAP1 PUSH1 0x20 ADD KECCAK256 PUSH0 SHR PUSH2 0x23F7 SWAP2 SWAP1 PUSH2 0x5E12 JUMP JUMPDEST SWAP1 POP DUP3 DUP2 DUP2 MLOAD DUP2 LT PUSH2 0x240C JUMPI PUSH2 0x240B PUSH2 0x50D2 JUMP JUMPDEST JUMPDEST PUSH1 0x20 MUL PUSH1 0x20 ADD ADD MLOAD DUP4 DUP4 DUP2 MLOAD DUP2 LT PUSH2 0x2427 JUMPI PUSH2 0x2426 PUSH2 0x50D2 JUMP JUMPDEST JUMPDEST PUSH1 0x20 MUL PUSH1 0x20 ADD ADD MLOAD DUP5 DUP5 DUP2 MLOAD DUP2 LT PUSH2 0x2442 JUMPI PUSH2 0x2441 PUSH2 0x50D2 JUMP JUMPDEST JUMPDEST PUSH1 0x20 MUL PUSH1 0x20 ADD ADD DUP6 DUP5 DUP2 MLOAD DUP2 LT PUSH2 0x245C JUMPI PUSH2 0x245B PUSH2 0x50D2 JUMP JUMPDEST JUMPDEST PUSH1 0x20 MUL PUSH1 0x20 ADD ADD DUP3 PUSH20 0xFFFFFFFFFFFFFFFFFFFFFFFFFFFFFFFFFFFFFFFF AND PUSH20 0xFFFFFFFFFFFFFFFFFFFFFFFFFFFFFFFFFFFFFFFF AND DUP2 MSTORE POP DUP3 PUSH20 0xFFFFFFFFFFFFFFFFFFFFFFFFFFFFFFFFFFFFFFFF AND PUSH20 0xFFFFFFFFFFFFFFFFFFFFFFFFFFFFFFFFFFFFFFFF AND DUP2 MSTORE POP POP POP POP DUP1 DUP1 PUSH2 0x24D1 SWAP1 PUSH2 0x5D13 JUMP JUMPDEST SWAP2 POP POP PUSH2 0x23AA JUMP JUMPDEST POP POP JUMP JUMPDEST PUSH1 0x60 PUSH1 0x14 DUP3 GT ISZERO PUSH2 0x24F6 JUMPI PUSH2 0x24F1 DUP3 PUSH2 0x299C JUMP JUMPDEST PUSH2 0x2500 JUMP JUMPDEST PUSH2 0x24FF DUP3 PUSH2 0x2AEF JUMP JUMPDEST JUMPDEST SWAP1 POP SWAP2 SWAP1 POP JUMP JUMPDEST PUSH2 0x250F PUSH2 0x3A35 JUMP JUMPDEST PUSH20 0xFFFFFFFFFFFFFFFFFFFFFFFFFFFFFFFFFFFFFFFF AND PUSH2 0x252D PUSH2 0x17A4 JUMP JUMPDEST PUSH20 0xFFFFFFFFFFFFFFFFFFFFFFFFFFFFFFFFFFFFFFFF AND EQ PUSH2 0x258C JUMPI PUSH2 0x2550 PUSH2 0x3A35 JUMP JUMPDEST PUSH1 0x40 MLOAD PUSH32 0x118CDAA700000000000000000000000000000000000000000000000000000000 DUP2 MSTORE PUSH1 0x4 ADD PUSH2 0x2583 SWAP2 SWAP1 PUSH2 0x4A9C JUMP JUMPDEST PUSH1 0x40 MLOAD DUP1 SWAP2 SUB SWAP1 REVERT JUMPDEST JUMP JUMPDEST PUSH0 PUSH2 0x2597 PUSH2 0x265F JUMP JUMPDEST SWAP1 POP PUSH0 DUP2 PUSH0 ADD PUSH0 SWAP1 SLOAD SWAP1 PUSH2 0x100 EXP SWAP1 DIV PUSH20 0xFFFFFFFFFFFFFFFFFFFFFFFFFFFFFFFFFFFFFFFF AND SWAP1 POP DUP3 DUP3 PUSH0 ADD PUSH0 PUSH2 0x100 EXP DUP2 SLOAD DUP2 PUSH20 0xFFFFFFFFFFFFFFFFFFFFFFFFFFFFFFFFFFFFFFFF MUL NOT AND SWAP1 DUP4 PUSH20 0xFFFFFFFFFFFFFFFFFFFFFFFFFFFFFFFFFFFFFFFF AND MUL OR SWAP1 SSTORE POP DUP3 PUSH20 0xFFFFFFFFFFFFFFFFFFFFFFFFFFFFFFFFFFFFFFFF AND DUP2 PUSH20 0xFFFFFFFFFFFFFFFFFFFFFFFFFFFFFFFFFFFFFFFF AND PUSH32 0x8BE0079C531659141344CD1FD0A4F28419497F9722A3DAAFE3B4186F6B6457E0 PUSH1 0x40 MLOAD PUSH1 0x40 MLOAD DUP1 SWAP2 SUB SWAP1 LOG3 POP POP POP JUMP JUMPDEST PUSH0 PUSH32 0x9016D09D72D40FDAE2FD8CEAC6B6234C7706214FD39C1CD1E609A0528C199300 SWAP1 POP SWAP1 JUMP JUMPDEST PUSH0 PUSH32 0xF0C57E16840DF040F15088DC2F81FE391C3923BEC73E23A9662EFC9C229C6A00 SWAP1 POP SWAP1 JUMP JUMPDEST PUSH2 0x26B5 PUSH2 0x3A3C JUMP JUMPDEST PUSH2 0x26BE DUP2 PUSH2 0x3A7C JUMP JUMPDEST POP JUMP JUMPDEST PUSH2 0x26C9 PUSH2 0x3A3C JUMP JUMPDEST JUMP JUMPDEST PUSH0 DUP1 PUSH0 SWAP1 POP PUSH27 0x184F03E93FF9F4DAA797ED6E38ED64BF6A1F010000000000000000 DUP4 LT PUSH2 0x2727 JUMPI PUSH27 0x184F03E93FF9F4DAA797ED6E38ED64BF6A1F010000000000000000 DUP4 DUP2 PUSH2 0x271D JUMPI PUSH2 0x271C PUSH2 0x5CA5 JUMP JUMPDEST JUMPDEST DIV SWAP3 POP PUSH1 0x40 DUP2 ADD SWAP1 POP JUMPDEST PUSH14 0x4EE2D6D415B85ACEF8100000000 DUP4 LT PUSH2 0x2764 JUMPI PUSH14 0x4EE2D6D415B85ACEF8100000000 DUP4 DUP2 PUSH2 0x275A JUMPI PUSH2 0x2759 PUSH2 0x5CA5 JUMP JUMPDEST JUMPDEST DIV SWAP3 POP PUSH1 0x20 DUP2 ADD SWAP1 POP JUMPDEST PUSH7 0x2386F26FC10000 DUP4 LT PUSH2 0x2793 JUMPI PUSH7 0x2386F26FC10000 DUP4 DUP2 PUSH2 0x2789 JUMPI PUSH2 0x2788 PUSH2 0x5CA5 JUMP JUMPDEST JUMPDEST DIV SWAP3 POP PUSH1 0x10 DUP2 ADD SWAP1 POP JUMPDEST PUSH4 0x5F5E100 DUP4 LT PUSH2 0x27BC JUMPI PUSH4 0x5F5E100 DUP4 DUP2 PUSH2 0x27B2 JUMPI PUSH2 0x27B1 PUSH2 0x5CA5 JUMP JUMPDEST JUMPDEST DIV SWAP3 POP PUSH1 0x8 DUP2 ADD SWAP1 POP JUMPDEST PUSH2 0x2710 DUP4 LT PUSH2 0x27E1 JUMPI PUSH2 0x2710 DUP4 DUP2 PUSH2 0x27D7 JUMPI PUSH2 0x27D6 PUSH2 0x5CA5 JUMP JUMPDEST JUMPDEST DIV SWAP3 POP PUSH1 0x4 DUP2 ADD SWAP1 POP JUMPDEST PUSH1 0x64 DUP4 LT PUSH2 0x2804 JUMPI PUSH1 0x64 DUP4 DUP2 PUSH2 0x27FA JUMPI PUSH2 0x27F9 PUSH2 0x5CA5 JUMP JUMPDEST JUMPDEST DIV SWAP3 POP PUSH1 0x2 DUP2 ADD SWAP1 POP JUMPDEST PUSH1 0xA DUP4 LT PUSH2 0x2813 JUMPI PUSH1 0x1 DUP2 ADD SWAP1 POP JUMPDEST DUP1 SWAP2 POP POP SWAP2 SWAP1 POP JUMP JUMPDEST PUSH0 PUSH2 0x2848 PUSH32 0x360894A13BA1A3210667C828492DB98DCA3E2076CC3735A920A3CA505D382BBC PUSH0 SHL PUSH2 0x3B00 JUMP JUMPDEST PUSH0 ADD PUSH0 SWAP1 SLOAD SWAP1 PUSH2 0x100 EXP SWAP1 DIV PUSH20 0xFFFFFFFFFFFFFFFFFFFFFFFFFFFFFFFFFFFFFFFF AND SWAP1 POP SWAP1 JUMP JUMPDEST PUSH2 0x2878 DUP3 PUSH2 0x3B09 JUMP JUMPDEST DUP2 PUSH20 0xFFFFFFFFFFFFFFFFFFFFFFFFFFFFFFFFFFFFFFFF AND PUSH32 0xBC7CD75A20EE27FD9ADEBAB32041F755214DBC6BFFA90CC0225B39DA2E5C2D3B PUSH1 0x40 MLOAD PUSH1 0x40 MLOAD DUP1 SWAP2 SUB SWAP1 LOG2 PUSH0 DUP2 MLOAD GT ISZERO PUSH2 0x28D4 JUMPI PUSH2 0x28CE DUP3 DUP3 PUSH2 0x3BD2 JUMP JUMPDEST POP PUSH2 0x28DD JUMP JUMPDEST PUSH2 0x28DC PUSH2 0x3C52 JUMP JUMPDEST JUMPDEST POP POP JUMP JUMPDEST PUSH0 PUSH1 0x1 PUSH0 DUP4 PUSH20 0xFFFFFFFFFFFFFFFFFFFFFFFFFFFFFFFFFFFFFFFF AND PUSH20 0xFFFFFFFFFFFFFFFFFFFFFFFFFFFFFFFFFFFFFFFF AND DUP2 MSTORE PUSH1 0x20 ADD SWAP1 DUP2 MSTORE PUSH1 0x20 ADD PUSH0 KECCAK256 PUSH0 DUP5 DUP2 MSTORE PUSH1 0x20 ADD SWAP1 DUP2 MSTORE PUSH1 0x20 ADD PUSH0 KECCAK256 SWAP1 POP PUSH0 DUP1 DUP3 PUSH1 0x5 ADD DUP1 SLOAD SWAP1 POP SWAP1 POP PUSH0 JUMPDEST DUP2 DUP2 LT ISZERO PUSH2 0x297F JUMPI DUP4 PUSH1 0x5 ADD DUP2 DUP2 SLOAD DUP2 LT PUSH2 0x295C JUMPI PUSH2 0x295B PUSH2 0x50D2 JUMP JUMPDEST JUMPDEST SWAP1 PUSH0 MSTORE PUSH1 0x20 PUSH0 KECCAK256 ADD SLOAD DUP4 PUSH2 0x2970 SWAP2 SWAP1 PUSH2 0x5A9E JUMP JUMPDEST SWAP3 POP DUP1 DUP1 PUSH1 0x1 ADD SWAP2 POP POP PUSH2 0x293E JUMP JUMPDEST POP PUSH1 0xC DUP3 PUSH2 0x298D SWAP2 SWAP1 PUSH2 0x5E42 JUMP JUMPDEST DUP4 PUSH1 0x4 ADD DUP2 SWAP1 SSTORE POP POP POP POP POP POP JUMP JUMPDEST PUSH1 0x60 PUSH0 PUSH1 0x6 PUSH1 0x5 DUP5 PUSH2 0x29AE SWAP2 SWAP1 PUSH2 0x5A9E JUMP JUMPDEST PUSH2 0x29B8 SWAP2 SWAP1 PUSH2 0x5E42 JUMP JUMPDEST PUSH8 0xFFFFFFFFFFFFFFFF DUP2 GT ISZERO PUSH2 0x29D1 JUMPI PUSH2 0x29D0 PUSH2 0x4260 JUMP JUMPDEST JUMPDEST PUSH1 0x40 MLOAD SWAP1 DUP1 DUP3 MSTORE DUP1 PUSH1 0x20 MUL PUSH1 0x20 ADD DUP3 ADD PUSH1 0x40 MSTORE DUP1 ISZERO PUSH2 0x29FF JUMPI DUP2 PUSH1 0x20 ADD PUSH1 0x20 DUP3 MUL DUP1 CALLDATASIZE DUP4 CALLDATACOPY DUP1 DUP3 ADD SWAP2 POP POP SWAP1 POP JUMPDEST POP SWAP1 POP PUSH0 DUP1 JUMPDEST PUSH0 DUP6 GT ISZERO PUSH2 0x2AE1 JUMPI PUSH0 PUSH1 0x6 DUP7 PUSH2 0x2A1B SWAP2 SWAP1 PUSH2 0x5E12 JUMP JUMPDEST EQ ISZERO DUP1 ISZERO PUSH2 0x2A2C JUMPI POP PUSH1 0x5 DUP2 PUSH1 0xFF AND LT JUMPDEST ISZERO PUSH2 0x2A88 JUMPI PUSH1 0x5 DUP4 DUP4 DUP1 PUSH2 0x2A3F SWAP1 PUSH2 0x5A57 JUMP JUMPDEST SWAP5 POP DUP2 MLOAD DUP2 LT PUSH2 0x2A52 JUMPI PUSH2 0x2A51 PUSH2 0x50D2 JUMP JUMPDEST JUMPDEST PUSH1 0x20 MUL PUSH1 0x20 ADD ADD SWAP1 PUSH1 0xFF AND SWAP1 DUP2 PUSH1 0xFF AND DUP2 MSTORE POP POP PUSH1 0x5 DUP6 PUSH2 0x2A73 SWAP2 SWAP1 PUSH2 0x5882 JUMP JUMPDEST SWAP5 POP DUP1 DUP1 PUSH2 0x2A80 SWAP1 PUSH2 0x5E72 JUMP JUMPDEST SWAP2 POP POP PUSH2 0x2ADC JUMP JUMPDEST PUSH1 0x6 DUP4 DUP4 DUP1 PUSH2 0x2A96 SWAP1 PUSH2 0x5A57 JUMP JUMPDEST SWAP5 POP DUP2 MLOAD DUP2 LT PUSH2 0x2AA9 JUMPI PUSH2 0x2AA8 PUSH2 0x50D2 JUMP JUMPDEST JUMPDEST PUSH1 0x20 MUL PUSH1 0x20 ADD ADD SWAP1 PUSH1 0xFF AND SWAP1 DUP2 PUSH1 0xFF AND DUP2 MSTORE POP POP PUSH1 0x6 DUP6 PUSH2 0x2ACA SWAP2 SWAP1 PUSH2 0x5882 JUMP JUMPDEST SWAP5 POP PUSH1 0x5 DUP2 PUSH1 0xFF AND SUB PUSH2 0x2ADB JUMPI PUSH0 SWAP1 POP JUMPDEST JUMPDEST PUSH2 0x2A05 JUMP JUMPDEST DUP2 DUP4 MSTORE DUP3 SWAP4 POP POP POP POP SWAP2 SWAP1 POP JUMP JUMPDEST PUSH1 0x60 DUP1 PUSH1 0x1 DUP4 SUB PUSH2 0x2B4B JUMPI PUSH1 0x1 PUSH8 0xFFFFFFFFFFFFFFFF DUP2 GT ISZERO PUSH2 0x2B15 JUMPI PUSH2 0x2B14 PUSH2 0x4260 JUMP JUMPDEST JUMPDEST PUSH1 0x40 MLOAD SWAP1 DUP1 DUP3 MSTORE DUP1 PUSH1 0x20 MUL PUSH1 0x20 ADD DUP3 ADD PUSH1 0x40 MSTORE DUP1 ISZERO PUSH2 0x2B43 JUMPI DUP2 PUSH1 0x20 ADD PUSH1 0x20 DUP3 MUL DUP1 CALLDATASIZE DUP4 CALLDATACOPY DUP1 DUP3 ADD SWAP2 POP POP SWAP1 POP JUMPDEST POP SWAP1 POP PUSH2 0x31F5 JUMP JUMPDEST PUSH1 0x2 DUP4 SUB PUSH2 0x2BA4 JUMPI PUSH1 0x1 PUSH8 0xFFFFFFFFFFFFFFFF DUP2 GT ISZERO PUSH2 0x2B6E JUMPI PUSH2 0x2B6D PUSH2 0x4260 JUMP JUMPDEST JUMPDEST PUSH1 0x40 MLOAD SWAP1 DUP1 DUP3 MSTORE DUP1 PUSH1 0x20 MUL PUSH1 0x20 ADD DUP3 ADD PUSH1 0x40 MSTORE DUP1 ISZERO PUSH2 0x2B9C JUMPI DUP2 PUSH1 0x20 ADD PUSH1 0x20 DUP3 MUL DUP1 CALLDATASIZE DUP4 CALLDATACOPY DUP1 DUP3 ADD SWAP2 POP POP SWAP1 POP JUMPDEST POP SWAP1 POP PUSH2 0x31F4 JUMP JUMPDEST PUSH1 0x3 DUP4 SUB PUSH2 0x2BFD JUMPI PUSH1 0x1 PUSH8 0xFFFFFFFFFFFFFFFF DUP2 GT ISZERO PUSH2 0x2BC7 JUMPI PUSH2 0x2BC6 PUSH2 0x4260 JUMP JUMPDEST JUMPDEST PUSH1 0x40 MLOAD SWAP1 DUP1 DUP3 MSTORE DUP1 PUSH1 0x20 MUL PUSH1 0x20 ADD DUP3 ADD PUSH1 0x40 MSTORE DUP1 ISZERO PUSH2 0x2BF5 JUMPI DUP2 PUSH1 0x20 ADD PUSH1 0x20 DUP3 MUL DUP1 CALLDATASIZE DUP4 CALLDATACOPY DUP1 DUP3 ADD SWAP2 POP POP SWAP1 POP JUMPDEST POP SWAP1 POP PUSH2 0x31F3 JUMP JUMPDEST PUSH1 0x4 DUP4 SUB PUSH2 0x2C56 JUMPI PUSH1 0x1 PUSH8 0xFFFFFFFFFFFFFFFF DUP2 GT ISZERO PUSH2 0x2C20 JUMPI PUSH2 0x2C1F PUSH2 0x4260 JUMP JUMPDEST JUMPDEST PUSH1 0x40 MLOAD SWAP1 DUP1 DUP3 MSTORE DUP1 PUSH1 0x20 MUL PUSH1 0x20 ADD DUP3 ADD PUSH1 0x40 MSTORE DUP1 ISZERO PUSH2 0x2C4E JUMPI DUP2 PUSH1 0x20 ADD PUSH1 0x20 DUP3 MUL DUP1 CALLDATASIZE DUP4 CALLDATACOPY DUP1 DUP3 ADD SWAP2 POP POP SWAP1 POP JUMPDEST POP SWAP1 POP PUSH2 0x31F2 JUMP JUMPDEST PUSH1 0x5 DUP4 SUB PUSH2 0x2CAF JUMPI PUSH1 0x1 PUSH8 0xFFFFFFFFFFFFFFFF DUP2 GT ISZERO PUSH2 0x2C79 JUMPI PUSH2 0x2C78 PUSH2 0x4260 JUMP JUMPDEST JUMPDEST PUSH1 0x40 MLOAD SWAP1 DUP1 DUP3 MSTORE DUP1 PUSH1 0x20 MUL PUSH1 0x20 ADD DUP3 ADD PUSH1 0x40 MSTORE DUP1 ISZERO PUSH2 0x2CA7 JUMPI DUP2 PUSH1 0x20 ADD PUSH1 0x20 DUP3 MUL DUP1 CALLDATASIZE DUP4 CALLDATACOPY DUP1 DUP3 ADD SWAP2 POP POP SWAP1 POP JUMPDEST POP SWAP1 POP PUSH2 0x31F1 JUMP JUMPDEST PUSH1 0x6 DUP4 SUB PUSH2 0x2D08 JUMPI PUSH1 0x1 PUSH8 0xFFFFFFFFFFFFFFFF DUP2 GT ISZERO PUSH2 0x2CD2 JUMPI PUSH2 0x2CD1 PUSH2 0x4260 JUMP JUMPDEST JUMPDEST PUSH1 0x40 MLOAD SWAP1 DUP1 DUP3 MSTORE DUP1 PUSH1 0x20 MUL PUSH1 0x20 ADD DUP3 ADD PUSH1 0x40 MSTORE DUP1 ISZERO PUSH2 0x2D00 JUMPI DUP2 PUSH1 0x20 ADD PUSH1 0x20 DUP3 MUL DUP1 CALLDATASIZE DUP4 CALLDATACOPY DUP1 DUP3 ADD SWAP2 POP POP SWAP1 POP JUMPDEST POP SWAP1 POP PUSH2 0x31F0 JUMP JUMPDEST PUSH1 0x7 DUP4 SUB PUSH2 0x2D61 JUMPI PUSH1 0x2 PUSH8 0xFFFFFFFFFFFFFFFF DUP2 GT ISZERO PUSH2 0x2D2B JUMPI PUSH2 0x2D2A PUSH2 0x4260 JUMP JUMPDEST JUMPDEST PUSH1 0x40 MLOAD SWAP1 DUP1 DUP3 MSTORE DUP1 PUSH1 0x20 MUL PUSH1 0x20 ADD DUP3 ADD PUSH1 0x40 MSTORE DUP1 ISZERO PUSH2 0x2D59 JUMPI DUP2 PUSH1 0x20 ADD PUSH1 0x20 DUP3 MUL DUP1 CALLDATASIZE DUP4 CALLDATACOPY DUP1 DUP3 ADD SWAP2 POP POP SWAP1 POP JUMPDEST POP SWAP1 POP PUSH2 0x31EF JUMP JUMPDEST PUSH1 0x8 DUP4 SUB PUSH2 0x2DBA JUMPI PUSH1 0x2 PUSH8 0xFFFFFFFFFFFFFFFF DUP2 GT ISZERO PUSH2 0x2D84 JUMPI PUSH2 0x2D83 PUSH2 0x4260 JUMP JUMPDEST JUMPDEST PUSH1 0x40 MLOAD SWAP1 DUP1 DUP3 MSTORE DUP1 PUSH1 0x20 MUL PUSH1 0x20 ADD DUP3 ADD PUSH1 0x40 MSTORE DUP1 ISZERO PUSH2 0x2DB2 JUMPI DUP2 PUSH1 0x20 ADD PUSH1 0x20 DUP3 MUL DUP1 CALLDATASIZE DUP4 CALLDATACOPY DUP1 DUP3 ADD SWAP2 POP POP SWAP1 POP JUMPDEST POP SWAP1 POP PUSH2 0x31EE JUMP JUMPDEST PUSH1 0x9 DUP4 SUB PUSH2 0x2E13 JUMPI PUSH1 0x2 PUSH8 0xFFFFFFFFFFFFFFFF DUP2 GT ISZERO PUSH2 0x2DDD JUMPI PUSH2 0x2DDC PUSH2 0x4260 JUMP JUMPDEST JUMPDEST PUSH1 0x40 MLOAD SWAP1 DUP1 DUP3 MSTORE DUP1 PUSH1 0x20 MUL PUSH1 0x20 ADD DUP3 ADD PUSH1 0x40 MSTORE DUP1 ISZERO PUSH2 0x2E0B JUMPI DUP2 PUSH1 0x20 ADD PUSH1 0x20 DUP3 MUL DUP1 CALLDATASIZE DUP4 CALLDATACOPY DUP1 DUP3 ADD SWAP2 POP POP SWAP1 POP JUMPDEST POP SWAP1 POP PUSH2 0x31ED JUMP JUMPDEST PUSH1 0xA DUP4 SUB PUSH2 0x2E6C JUMPI PUSH1 0x2 PUSH8 0xFFFFFFFFFFFFFFFF DUP2 GT ISZERO PUSH2 0x2E36 JUMPI PUSH2 0x2E35 PUSH2 0x4260 JUMP JUMPDEST JUMPDEST PUSH1 0x40 MLOAD SWAP1 DUP1 DUP3 MSTORE DUP1 PUSH1 0x20 MUL PUSH1 0x20 ADD DUP3 ADD PUSH1 0x40 MSTORE DUP1 ISZERO PUSH2 0x2E64 JUMPI DUP2 PUSH1 0x20 ADD PUSH1 0x20 DUP3 MUL DUP1 CALLDATASIZE DUP4 CALLDATACOPY DUP1 DUP3 ADD SWAP2 POP POP SWAP1 POP JUMPDEST POP SWAP1 POP PUSH2 0x31EC JUMP JUMPDEST PUSH1 0xB DUP4 SUB PUSH2 0x2EC5 JUMPI PUSH1 0x2 PUSH8 0xFFFFFFFFFFFFFFFF DUP2 GT ISZERO PUSH2 0x2E8F JUMPI PUSH2 0x2E8E PUSH2 0x4260 JUMP JUMPDEST JUMPDEST PUSH1 0x40 MLOAD SWAP1 DUP1 DUP3 MSTORE DUP1 PUSH1 0x20 MUL PUSH1 0x20 ADD DUP3 ADD PUSH1 0x40 MSTORE DUP1 ISZERO PUSH2 0x2EBD JUMPI DUP2 PUSH1 0x20 ADD PUSH1 0x20 DUP3 MUL DUP1 CALLDATASIZE DUP4 CALLDATACOPY DUP1 DUP3 ADD SWAP2 POP POP SWAP1 POP JUMPDEST POP SWAP1 POP PUSH2 0x31EB JUMP JUMPDEST PUSH1 0xC DUP4 SUB PUSH2 0x2F1E JUMPI PUSH1 0x2 PUSH8 0xFFFFFFFFFFFFFFFF DUP2 GT ISZERO PUSH2 0x2EE8 JUMPI PUSH2 0x2EE7 PUSH2 0x4260 JUMP JUMPDEST JUMPDEST PUSH1 0x40 MLOAD SWAP1 DUP1 DUP3 MSTORE DUP1 PUSH1 0x20 MUL PUSH1 0x20 ADD DUP3 ADD PUSH1 0x40 MSTORE DUP1 ISZERO PUSH2 0x2F16 JUMPI DUP2 PUSH1 0x20 ADD PUSH1 0x20 DUP3 MUL DUP1 CALLDATASIZE DUP4 CALLDATACOPY DUP1 DUP3 ADD SWAP2 POP POP SWAP1 POP JUMPDEST POP SWAP1 POP PUSH2 0x31EA JUMP JUMPDEST PUSH1 0xD DUP4 SUB PUSH2 0x2F77 JUMPI PUSH1 0x3 PUSH8 0xFFFFFFFFFFFFFFFF DUP2 GT ISZERO PUSH2 0x2F41 JUMPI PUSH2 0x2F40 PUSH2 0x4260 JUMP JUMPDEST JUMPDEST PUSH1 0x40 MLOAD SWAP1 DUP1 DUP3 MSTORE DUP1 PUSH1 0x20 MUL PUSH1 0x20 ADD DUP3 ADD PUSH1 0x40 MSTORE DUP1 ISZERO PUSH2 0x2F6F JUMPI DUP2 PUSH1 0x20 ADD PUSH1 0x20 DUP3 MUL DUP1 CALLDATASIZE DUP4 CALLDATACOPY DUP1 DUP3 ADD SWAP2 POP POP SWAP1 POP JUMPDEST POP SWAP1 POP PUSH2 0x31E9 JUMP JUMPDEST PUSH1 0xE DUP4 SUB PUSH2 0x2FD0 JUMPI PUSH1 0x3 PUSH8 0xFFFFFFFFFFFFFFFF DUP2 GT ISZERO PUSH2 0x2F9A JUMPI PUSH2 0x2F99 PUSH2 0x4260 JUMP JUMPDEST JUMPDEST PUSH1 0x40 MLOAD SWAP1 DUP1 DUP3 MSTORE DUP1 PUSH1 0x20 MUL PUSH1 0x20 ADD DUP3 ADD PUSH1 0x40 MSTORE DUP1 ISZERO PUSH2 0x2FC8 JUMPI DUP2 PUSH1 0x20 ADD PUSH1 0x20 DUP3 MUL DUP1 CALLDATASIZE DUP4 CALLDATACOPY DUP1 DUP3 ADD SWAP2 POP POP SWAP1 POP JUMPDEST POP SWAP1 POP PUSH2 0x31E8 JUMP JUMPDEST PUSH1 0xF DUP4 SUB PUSH2 0x3029 JUMPI PUSH1 0x3 PUSH8 0xFFFFFFFFFFFFFFFF DUP2 GT ISZERO PUSH2 0x2FF3 JUMPI PUSH2 0x2FF2 PUSH2 0x4260 JUMP JUMPDEST JUMPDEST PUSH1 0x40 MLOAD SWAP1 DUP1 DUP3 MSTORE DUP1 PUSH1 0x20 MUL PUSH1 0x20 ADD DUP3 ADD PUSH1 0x40 MSTORE DUP1 ISZERO PUSH2 0x3021 JUMPI DUP2 PUSH1 0x20 ADD PUSH1 0x20 DUP3 MUL DUP1 CALLDATASIZE DUP4 CALLDATACOPY DUP1 DUP3 ADD SWAP2 POP POP SWAP1 POP JUMPDEST POP SWAP1 POP PUSH2 0x31E7 JUMP JUMPDEST PUSH1 0x10 DUP4 SUB PUSH2 0x3082 JUMPI PUSH1 0x3 PUSH8 0xFFFFFFFFFFFFFFFF DUP2 GT ISZERO PUSH2 0x304C JUMPI PUSH2 0x304B PUSH2 0x4260 JUMP JUMPDEST JUMPDEST PUSH1 0x40 MLOAD SWAP1 DUP1 DUP3 MSTORE DUP1 PUSH1 0x20 MUL PUSH1 0x20 ADD DUP3 ADD PUSH1 0x40 MSTORE DUP1 ISZERO PUSH2 0x307A JUMPI DUP2 PUSH1 0x20 ADD PUSH1 0x20 DUP3 MUL DUP1 CALLDATASIZE DUP4 CALLDATACOPY DUP1 DUP3 ADD SWAP2 POP POP SWAP1 POP JUMPDEST POP SWAP1 POP PUSH2 0x31E6 JUMP JUMPDEST PUSH1 0x11 DUP4 SUB PUSH2 0x30DB JUMPI PUSH1 0x3 PUSH8 0xFFFFFFFFFFFFFFFF DUP2 GT ISZERO PUSH2 0x30A5 JUMPI PUSH2 0x30A4 PUSH2 0x4260 JUMP JUMPDEST JUMPDEST PUSH1 0x40 MLOAD SWAP1 DUP1 DUP3 MSTORE DUP1 PUSH1 0x20 MUL PUSH1 0x20 ADD DUP3 ADD PUSH1 0x40 MSTORE DUP1 ISZERO PUSH2 0x30D3 JUMPI DUP2 PUSH1 0x20 ADD PUSH1 0x20 DUP3 MUL DUP1 CALLDATASIZE DUP4 CALLDATACOPY DUP1 DUP3 ADD SWAP2 POP POP SWAP1 POP JUMPDEST POP SWAP1 POP PUSH2 0x31E5 JUMP JUMPDEST PUSH1 0x12 DUP4 SUB PUSH2 0x3134 JUMPI PUSH1 0x3 PUSH8 0xFFFFFFFFFFFFFFFF DUP2 GT ISZERO PUSH2 0x30FE JUMPI PUSH2 0x30FD PUSH2 0x4260 JUMP JUMPDEST JUMPDEST PUSH1 0x40 MLOAD SWAP1 DUP1 DUP3 MSTORE DUP1 PUSH1 0x20 MUL PUSH1 0x20 ADD DUP3 ADD PUSH1 0x40 MSTORE DUP1 ISZERO PUSH2 0x312C JUMPI DUP2 PUSH1 0x20 ADD PUSH1 0x20 DUP3 MUL DUP1 CALLDATASIZE DUP4 CALLDATACOPY DUP1 DUP3 ADD SWAP2 POP POP SWAP1 POP JUMPDEST POP SWAP1 POP PUSH2 0x31E4 JUMP JUMPDEST PUSH1 0x13 DUP4 SUB PUSH2 0x318D JUMPI PUSH1 0x4 PUSH8 0xFFFFFFFFFFFFFFFF DUP2 GT ISZERO PUSH2 0x3157 JUMPI PUSH2 0x3156 PUSH2 0x4260 JUMP JUMPDEST JUMPDEST PUSH1 0x40 MLOAD SWAP1 DUP1 DUP3 MSTORE DUP1 PUSH1 0x20 MUL PUSH1 0x20 ADD DUP3 ADD PUSH1 0x40 MSTORE DUP1 ISZERO PUSH2 0x3185 JUMPI DUP2 PUSH1 0x20 ADD PUSH1 0x20 DUP3 MUL DUP1 CALLDATASIZE DUP4 CALLDATACOPY DUP1 DUP3 ADD SWAP2 POP POP SWAP1 POP JUMPDEST POP SWAP1 POP PUSH2 0x31E3 JUMP JUMPDEST PUSH1 0x14 DUP4 SUB PUSH2 0x31E2 JUMPI PUSH1 0x4 PUSH8 0xFFFFFFFFFFFFFFFF DUP2 GT ISZERO PUSH2 0x31B0 JUMPI PUSH2 0x31AF PUSH2 0x4260 JUMP JUMPDEST JUMPDEST PUSH1 0x40 MLOAD SWAP1 DUP1 DUP3 MSTORE DUP1 PUSH1 0x20 MUL PUSH1 0x20 ADD DUP3 ADD PUSH1 0x40 MSTORE DUP1 ISZERO PUSH2 0x31DE JUMPI DUP2 PUSH1 0x20 ADD PUSH1 0x20 DUP3 MUL DUP1 CALLDATASIZE DUP4 CALLDATACOPY DUP1 DUP3 ADD SWAP2 POP POP SWAP1 POP JUMPDEST POP SWAP1 POP JUMPDEST JUMPDEST JUMPDEST JUMPDEST JUMPDEST JUMPDEST JUMPDEST JUMPDEST JUMPDEST JUMPDEST JUMPDEST JUMPDEST JUMPDEST JUMPDEST JUMPDEST JUMPDEST JUMPDEST JUMPDEST JUMPDEST JUMPDEST PUSH1 0x1 DUP4 SUB PUSH2 0x322B JUMPI PUSH1 0x1 DUP2 PUSH0 DUP2 MLOAD DUP2 LT PUSH2 0x3212 JUMPI PUSH2 0x3211 PUSH2 0x50D2 JUMP JUMPDEST JUMPDEST PUSH1 0x20 MUL PUSH1 0x20 ADD ADD SWAP1 PUSH1 0xFF AND SWAP1 DUP2 PUSH1 0xFF AND DUP2 MSTORE POP POP PUSH2 0x3A2C JUMP JUMPDEST PUSH1 0x2 DUP4 SUB PUSH2 0x3261 JUMPI PUSH1 0x2 DUP2 PUSH0 DUP2 MLOAD DUP2 LT PUSH2 0x3248 JUMPI PUSH2 0x3247 PUSH2 0x50D2 JUMP JUMPDEST JUMPDEST PUSH1 0x20 MUL PUSH1 0x20 ADD ADD SWAP1 PUSH1 0xFF AND SWAP1 DUP2 PUSH1 0xFF AND DUP2 MSTORE POP POP PUSH2 0x3A2B JUMP JUMPDEST PUSH1 0x3 DUP4 SUB PUSH2 0x3297 JUMPI PUSH1 0x3 DUP2 PUSH0 DUP2 MLOAD DUP2 LT PUSH2 0x327E JUMPI PUSH2 0x327D PUSH2 0x50D2 JUMP JUMPDEST JUMPDEST PUSH1 0x20 MUL PUSH1 0x20 ADD ADD SWAP1 PUSH1 0xFF AND SWAP1 DUP2 PUSH1 0xFF AND DUP2 MSTORE POP POP PUSH2 0x3A2A JUMP JUMPDEST PUSH1 0x4 DUP4 SUB PUSH2 0x32CD JUMPI PUSH1 0x4 DUP2 PUSH0 DUP2 MLOAD DUP2 LT PUSH2 0x32B4 JUMPI PUSH2 0x32B3 PUSH2 0x50D2 JUMP JUMPDEST JUMPDEST PUSH1 0x20 MUL PUSH1 0x20 ADD ADD SWAP1 PUSH1 0xFF AND SWAP1 DUP2 PUSH1 0xFF AND DUP2 MSTORE POP POP PUSH2 0x3A29 JUMP JUMPDEST PUSH1 0x5 DUP4 SUB PUSH2 0x3303 JUMPI PUSH1 0x5 DUP2 PUSH0 DUP2 MLOAD DUP2 LT PUSH2 0x32EA JUMPI PUSH2 0x32E9 PUSH2 0x50D2 JUMP JUMPDEST JUMPDEST PUSH1 0x20 MUL PUSH1 0x20 ADD ADD SWAP1 PUSH1 0xFF AND SWAP1 DUP2 PUSH1 0xFF AND DUP2 MSTORE POP POP PUSH2 0x3A28 JUMP JUMPDEST PUSH1 0x6 DUP4 SUB PUSH2 0x3339 JUMPI PUSH1 0x6 DUP2 PUSH0 DUP2 MLOAD DUP2 LT PUSH2 0x3320 JUMPI PUSH2 0x331F PUSH2 0x50D2 JUMP JUMPDEST JUMPDEST PUSH1 0x20 MUL PUSH1 0x20 ADD ADD SWAP1 PUSH1 0xFF AND SWAP1 DUP2 PUSH1 0xFF AND DUP2 MSTORE POP POP PUSH2 0x3A27 JUMP JUMPDEST PUSH1 0x7 DUP4 SUB PUSH2 0x3399 JUMPI PUSH1 0x3 DUP2 PUSH0 DUP2 MLOAD DUP2 LT PUSH2 0x3356 JUMPI PUSH2 0x3355 PUSH2 0x50D2 JUMP JUMPDEST JUMPDEST PUSH1 0x20 MUL PUSH1 0x20 ADD ADD SWAP1 PUSH1 0xFF AND SWAP1 DUP2 PUSH1 0xFF AND DUP2 MSTORE POP POP PUSH1 0x4 DUP2 PUSH1 0x1 DUP2 MLOAD DUP2 LT PUSH2 0x3380 JUMPI PUSH2 0x337F PUSH2 0x50D2 JUMP JUMPDEST JUMPDEST PUSH1 0x20 MUL PUSH1 0x20 ADD ADD SWAP1 PUSH1 0xFF AND SWAP1 DUP2 PUSH1 0xFF AND DUP2 MSTORE POP POP PUSH2 0x3A26 JUMP JUMPDEST PUSH1 0x8 DUP4 SUB PUSH2 0x33F9 JUMPI PUSH1 0x4 DUP2 PUSH0 DUP2 MLOAD DUP2 LT PUSH2 0x33B6 JUMPI PUSH2 0x33B5 PUSH2 0x50D2 JUMP JUMPDEST JUMPDEST PUSH1 0x20 MUL PUSH1 0x20 ADD ADD SWAP1 PUSH1 0xFF AND SWAP1 DUP2 PUSH1 0xFF AND DUP2 MSTORE POP POP PUSH1 0x4 DUP2 PUSH1 0x1 DUP2 MLOAD DUP2 LT PUSH2 0x33E0 JUMPI PUSH2 0x33DF PUSH2 0x50D2 JUMP JUMPDEST JUMPDEST PUSH1 0x20 MUL PUSH1 0x20 ADD ADD SWAP1 PUSH1 0xFF AND SWAP1 DUP2 PUSH1 0xFF AND DUP2 MSTORE POP POP PUSH2 0x3A25 JUMP JUMPDEST PUSH1 0x9 DUP4 SUB PUSH2 0x3459 JUMPI PUSH1 0x5 DUP2 PUSH0 DUP2 MLOAD DUP2 LT PUSH2 0x3416 JUMPI PUSH2 0x3415 PUSH2 0x50D2 JUMP JUMPDEST JUMPDEST PUSH1 0x20 MUL PUSH1 0x20 ADD ADD SWAP1 PUSH1 0xFF AND SWAP1 DUP2 PUSH1 0xFF AND DUP2 MSTORE POP POP PUSH1 0x4 DUP2 PUSH1 0x1 DUP2 MLOAD DUP2 LT PUSH2 0x3440 JUMPI PUSH2 0x343F PUSH2 0x50D2 JUMP JUMPDEST JUMPDEST PUSH1 0x20 MUL PUSH1 0x20 ADD ADD SWAP1 PUSH1 0xFF AND SWAP1 DUP2 PUSH1 0xFF AND DUP2 MSTORE POP POP PUSH2 0x3A24 JUMP JUMPDEST PUSH1 0xA DUP4 SUB PUSH2 0x34B9 JUMPI PUSH1 0x5 DUP2 PUSH0 DUP2 MLOAD DUP2 LT PUSH2 0x3476 JUMPI PUSH2 0x3475 PUSH2 0x50D2 JUMP JUMPDEST JUMPDEST PUSH1 0x20 MUL PUSH1 0x20 ADD ADD SWAP1 PUSH1 0xFF AND SWAP1 DUP2 PUSH1 0xFF AND DUP2 MSTORE POP POP PUSH1 0x5 DUP2 PUSH1 0x1 DUP2 MLOAD DUP2 LT PUSH2 0x34A0 JUMPI PUSH2 0x349F PUSH2 0x50D2 JUMP JUMPDEST JUMPDEST PUSH1 0x20 MUL PUSH1 0x20 ADD ADD SWAP1 PUSH1 0xFF AND SWAP1 DUP2 PUSH1 0xFF AND DUP2 MSTORE POP POP PUSH2 0x3A23 JUMP JUMPDEST PUSH1 0xB DUP4 SUB PUSH2 0x3519 JUMPI PUSH1 0x5 DUP2 PUSH0 DUP2 MLOAD DUP2 LT PUSH2 0x34D6 JUMPI PUSH2 0x34D5 PUSH2 0x50D2 JUMP JUMPDEST JUMPDEST PUSH1 0x20 MUL PUSH1 0x20 ADD ADD SWAP1 PUSH1 0xFF AND SWAP1 DUP2 PUSH1 0xFF AND DUP2 MSTORE POP POP PUSH1 0x6 DUP2 PUSH1 0x1 DUP2 MLOAD DUP2 LT PUSH2 0x3500 JUMPI PUSH2 0x34FF PUSH2 0x50D2 JUMP JUMPDEST JUMPDEST PUSH1 0x20 MUL PUSH1 0x20 ADD ADD SWAP1 PUSH1 0xFF AND SWAP1 DUP2 PUSH1 0xFF AND DUP2 MSTORE POP POP PUSH2 0x3A22 JUMP JUMPDEST PUSH1 0xC DUP4 SUB PUSH2 0x3579 JUMPI PUSH1 0x6 DUP2 PUSH0 DUP2 MLOAD DUP2 LT PUSH2 0x3536 JUMPI PUSH2 0x3535 PUSH2 0x50D2 JUMP JUMPDEST JUMPDEST PUSH1 0x20 MUL PUSH1 0x20 ADD ADD SWAP1 PUSH1 0xFF AND SWAP1 DUP2 PUSH1 0xFF AND DUP2 MSTORE POP POP PUSH1 0x6 DUP2 PUSH1 0x1 DUP2 MLOAD DUP2 LT PUSH2 0x3560 JUMPI PUSH2 0x355F PUSH2 0x50D2 JUMP JUMPDEST JUMPDEST PUSH1 0x20 MUL PUSH1 0x20 ADD ADD SWAP1 PUSH1 0xFF AND SWAP1 DUP2 PUSH1 0xFF AND DUP2 MSTORE POP POP PUSH2 0x3A21 JUMP JUMPDEST PUSH1 0xD DUP4 SUB PUSH2 0x3603 JUMPI PUSH1 0x5 DUP2 PUSH0 DUP2 MLOAD DUP2 LT PUSH2 0x3596 JUMPI PUSH2 0x3595 PUSH2 0x50D2 JUMP JUMPDEST JUMPDEST PUSH1 0x20 MUL PUSH1 0x20 ADD ADD SWAP1 PUSH1 0xFF AND SWAP1 DUP2 PUSH1 0xFF AND DUP2 MSTORE POP POP PUSH1 0x4 DUP2 PUSH1 0x1 DUP2 MLOAD DUP2 LT PUSH2 0x35C0 JUMPI PUSH2 0x35BF PUSH2 0x50D2 JUMP JUMPDEST JUMPDEST PUSH1 0x20 MUL PUSH1 0x20 ADD ADD SWAP1 PUSH1 0xFF AND SWAP1 DUP2 PUSH1 0xFF AND DUP2 MSTORE POP POP PUSH1 0x4 DUP2 PUSH1 0x2 DUP2 MLOAD DUP2 LT PUSH2 0x35EA JUMPI PUSH2 0x35E9 PUSH2 0x50D2 JUMP JUMPDEST JUMPDEST PUSH1 0x20 MUL PUSH1 0x20 ADD ADD SWAP1 PUSH1 0xFF AND SWAP1 DUP2 PUSH1 0xFF AND DUP2 MSTORE POP POP PUSH2 0x3A20 JUMP JUMPDEST PUSH1 0xE DUP4 SUB PUSH2 0x368D JUMPI PUSH1 0x5 DUP2 PUSH0 DUP2 MLOAD DUP2 LT PUSH2 0x3620 JUMPI PUSH2 0x361F PUSH2 0x50D2 JUMP JUMPDEST JUMPDEST PUSH1 0x20 MUL PUSH1 0x20 ADD ADD SWAP1 PUSH1 0xFF AND SWAP1 DUP2 PUSH1 0xFF AND DUP2 MSTORE POP POP PUSH1 0x5 DUP2 PUSH1 0x1 DUP2 MLOAD DUP2 LT PUSH2 0x364A JUMPI PUSH2 0x3649 PUSH2 0x50D2 JUMP JUMPDEST JUMPDEST PUSH1 0x20 MUL PUSH1 0x20 ADD ADD SWAP1 PUSH1 0xFF AND SWAP1 DUP2 PUSH1 0xFF AND DUP2 MSTORE POP POP PUSH1 0x4 DUP2 PUSH1 0x2 DUP2 MLOAD DUP2 LT PUSH2 0x3674 JUMPI PUSH2 0x3673 PUSH2 0x50D2 JUMP JUMPDEST JUMPDEST PUSH1 0x20 MUL PUSH1 0x20 ADD ADD SWAP1 PUSH1 0xFF AND SWAP1 DUP2 PUSH1 0xFF AND DUP2 MSTORE POP POP PUSH2 0x3A1F JUMP JUMPDEST PUSH1 0xF DUP4 SUB PUSH2 0x3717 JUMPI PUSH1 0x5 DUP2 PUSH0 DUP2 MLOAD DUP2 LT PUSH2 0x36AA JUMPI PUSH2 0x36A9 PUSH2 0x50D2 JUMP JUMPDEST JUMPDEST PUSH1 0x20 MUL PUSH1 0x20 ADD ADD SWAP1 PUSH1 0xFF AND SWAP1 DUP2 PUSH1 0xFF AND DUP2 MSTORE POP POP PUSH1 0x5 DUP2 PUSH1 0x1 DUP2 MLOAD DUP2 LT PUSH2 0x36D4 JUMPI PUSH2 0x36D3 PUSH2 0x50D2 JUMP JUMPDEST JUMPDEST PUSH1 0x20 MUL PUSH1 0x20 ADD ADD SWAP1 PUSH1 0xFF AND SWAP1 DUP2 PUSH1 0xFF AND DUP2 MSTORE POP POP PUSH1 0x5 DUP2 PUSH1 0x2 DUP2 MLOAD DUP2 LT PUSH2 0x36FE JUMPI PUSH2 0x36FD PUSH2 0x50D2 JUMP JUMPDEST JUMPDEST PUSH1 0x20 MUL PUSH1 0x20 ADD ADD SWAP1 PUSH1 0xFF AND SWAP1 DUP2 PUSH1 0xFF AND DUP2 MSTORE POP POP PUSH2 0x3A1E JUMP JUMPDEST PUSH1 0x10 DUP4 SUB PUSH2 0x37A1 JUMPI PUSH1 0x6 DUP2 PUSH0 DUP2 MLOAD DUP2 LT PUSH2 0x3734 JUMPI PUSH2 0x3733 PUSH2 0x50D2 JUMP JUMPDEST JUMPDEST PUSH1 0x20 MUL PUSH1 0x20 ADD ADD SWAP1 PUSH1 0xFF AND SWAP1 DUP2 PUSH1 0xFF AND DUP2 MSTORE POP POP PUSH1 0x5 DUP2 PUSH1 0x1 DUP2 MLOAD DUP2 LT PUSH2 0x375E JUMPI PUSH2 0x375D PUSH2 0x50D2 JUMP JUMPDEST JUMPDEST PUSH1 0x20 MUL PUSH1 0x20 ADD ADD SWAP1 PUSH1 0xFF AND SWAP1 DUP2 PUSH1 0xFF AND DUP2 MSTORE POP POP PUSH1 0x5 DUP2 PUSH1 0x2 DUP2 MLOAD DUP2 LT PUSH2 0x3788 JUMPI PUSH2 0x3787 PUSH2 0x50D2 JUMP JUMPDEST JUMPDEST PUSH1 0x20 MUL PUSH1 0x20 ADD ADD SWAP1 PUSH1 0xFF AND SWAP1 DUP2 PUSH1 0xFF AND DUP2 MSTORE POP POP PUSH2 0x3A1D JUMP JUMPDEST PUSH1 0x11 DUP4 SUB PUSH2 0x382B JUMPI PUSH1 0x6 DUP2 PUSH0 DUP2 MLOAD DUP2 LT PUSH2 0x37BE JUMPI PUSH2 0x37BD PUSH2 0x50D2 JUMP JUMPDEST JUMPDEST PUSH1 0x20 MUL PUSH1 0x20 ADD ADD SWAP1 PUSH1 0xFF AND SWAP1 DUP2 PUSH1 0xFF AND DUP2 MSTORE POP POP PUSH1 0x6 DUP2 PUSH1 0x1 DUP2 MLOAD DUP2 LT PUSH2 0x37E8 JUMPI PUSH2 0x37E7 PUSH2 0x50D2 JUMP JUMPDEST JUMPDEST PUSH1 0x20 MUL PUSH1 0x20 ADD ADD SWAP1 PUSH1 0xFF AND SWAP1 DUP2 PUSH1 0xFF AND DUP2 MSTORE POP POP PUSH1 0x5 DUP2 PUSH1 0x2 DUP2 MLOAD DUP2 LT PUSH2 0x3812 JUMPI PUSH2 0x3811 PUSH2 0x50D2 JUMP JUMPDEST JUMPDEST PUSH1 0x20 MUL PUSH1 0x20 ADD ADD SWAP1 PUSH1 0xFF AND SWAP1 DUP2 PUSH1 0xFF AND DUP2 MSTORE POP POP PUSH2 0x3A1C JUMP JUMPDEST PUSH1 0x12 DUP4 SUB PUSH2 0x38B5 JUMPI PUSH1 0x6 DUP2 PUSH0 DUP2 MLOAD DUP2 LT PUSH2 0x3848 JUMPI PUSH2 0x3847 PUSH2 0x50D2 JUMP JUMPDEST JUMPDEST PUSH1 0x20 MUL PUSH1 0x20 ADD ADD SWAP1 PUSH1 0xFF AND SWAP1 DUP2 PUSH1 0xFF AND DUP2 MSTORE POP POP PUSH1 0x6 DUP2 PUSH1 0x1 DUP2 MLOAD DUP2 LT PUSH2 0x3872 JUMPI PUSH2 0x3871 PUSH2 0x50D2 JUMP JUMPDEST JUMPDEST PUSH1 0x20 MUL PUSH1 0x20 ADD ADD SWAP1 PUSH1 0xFF AND SWAP1 DUP2 PUSH1 0xFF AND DUP2 MSTORE POP POP PUSH1 0x6 DUP2 PUSH1 0x2 DUP2 MLOAD DUP2 LT PUSH2 0x389C JUMPI PUSH2 0x389B PUSH2 0x50D2 JUMP JUMPDEST JUMPDEST PUSH1 0x20 MUL PUSH1 0x20 ADD ADD SWAP1 PUSH1 0xFF AND SWAP1 DUP2 PUSH1 0xFF AND DUP2 MSTORE POP POP PUSH2 0x3A1B JUMP JUMPDEST PUSH1 0x13 DUP4 SUB PUSH2 0x3969 JUMPI PUSH1 0x5 DUP2 PUSH0 DUP2 MLOAD DUP2 LT PUSH2 0x38D2 JUMPI PUSH2 0x38D1 PUSH2 0x50D2 JUMP JUMPDEST JUMPDEST PUSH1 0x20 MUL PUSH1 0x20 ADD ADD SWAP1 PUSH1 0xFF AND SWAP1 DUP2 PUSH1 0xFF AND DUP2 MSTORE POP POP PUSH1 0x5 DUP2 PUSH1 0x1 DUP2 MLOAD DUP2 LT PUSH2 0x38FC JUMPI PUSH2 0x38FB PUSH2 0x50D2 JUMP JUMPDEST JUMPDEST PUSH1 0x20 MUL PUSH1 0x20 ADD ADD SWAP1 PUSH1 0xFF AND SWAP1 DUP2 PUSH1 0xFF AND DUP2 MSTORE POP POP PUSH1 0x5 DUP2 PUSH1 0x2 DUP2 MLOAD DUP2 LT PUSH2 0x3926 JUMPI PUSH2 0x3925 PUSH2 0x50D2 JUMP JUMPDEST JUMPDEST PUSH1 0x20 MUL PUSH1 0x20 ADD ADD SWAP1 PUSH1 0xFF AND SWAP1 DUP2 PUSH1 0xFF AND DUP2 MSTORE POP POP PUSH1 0x4 DUP2 PUSH1 0x3 DUP2 MLOAD DUP2 LT PUSH2 0x3950 JUMPI PUSH2 0x394F PUSH2 0x50D2 JUMP JUMPDEST JUMPDEST PUSH1 0x20 MUL PUSH1 0x20 ADD ADD SWAP1 PUSH1 0xFF AND SWAP1 DUP2 PUSH1 0xFF AND DUP2 MSTORE POP POP PUSH2 0x3A1A JUMP JUMPDEST PUSH1 0x14 DUP4 SUB PUSH2 0x3A19 JUMPI PUSH1 0x5 DUP2 PUSH0 DUP2 MLOAD DUP2 LT PUSH2 0x3986 JUMPI PUSH2 0x3985 PUSH2 0x50D2 JUMP JUMPDEST JUMPDEST PUSH1 0x20 MUL PUSH1 0x20 ADD ADD SWAP1 PUSH1 0xFF AND SWAP1 DUP2 PUSH1 0xFF AND DUP2 MSTORE POP POP PUSH1 0x5 DUP2 PUSH1 0x1 DUP2 MLOAD DUP2 LT PUSH2 0x39B0 JUMPI PUSH2 0x39AF PUSH2 0x50D2 JUMP JUMPDEST JUMPDEST PUSH1 0x20 MUL PUSH1 0x20 ADD ADD SWAP1 PUSH1 0xFF AND SWAP1 DUP2 PUSH1 0xFF AND DUP2 MSTORE POP POP PUSH1 0x5 DUP2 PUSH1 0x2 DUP2 MLOAD DUP2 LT PUSH2 0x39DA JUMPI PUSH2 0x39D9 PUSH2 0x50D2 JUMP JUMPDEST JUMPDEST PUSH1 0x20 MUL PUSH1 0x20 ADD ADD SWAP1 PUSH1 0xFF AND SWAP1 DUP2 PUSH1 0xFF AND DUP2 MSTORE POP POP PUSH1 0x5 DUP2 PUSH1 0x3 DUP2 MLOAD DUP2 LT PUSH2 0x3A04 JUMPI PUSH2 0x3A03 PUSH2 0x50D2 JUMP JUMPDEST JUMPDEST PUSH1 0x20 MUL PUSH1 0x20 ADD ADD SWAP1 PUSH1 0xFF AND SWAP1 DUP2 PUSH1 0xFF AND DUP2 MSTORE POP POP JUMPDEST JUMPDEST JUMPDEST JUMPDEST JUMPDEST JUMPDEST JUMPDEST JUMPDEST JUMPDEST JUMPDEST JUMPDEST JUMPDEST JUMPDEST JUMPDEST JUMPDEST JUMPDEST JUMPDEST JUMPDEST JUMPDEST JUMPDEST DUP1 SWAP2 POP POP SWAP2 SWAP1 POP JUMP JUMPDEST PUSH0 CALLER SWAP1 POP SWAP1 JUMP JUMPDEST PUSH2 0x3A44 PUSH2 0x3C8E JUMP JUMPDEST PUSH2 0x3A7A JUMPI PUSH1 0x40 MLOAD PUSH32 0xD7E6BCF800000000000000000000000000000000000000000000000000000000 DUP2 MSTORE PUSH1 0x4 ADD PUSH1 0x40 MLOAD DUP1 SWAP2 SUB SWAP1 REVERT JUMPDEST JUMP JUMPDEST PUSH2 0x3A84 PUSH2 0x3A3C JUMP JUMPDEST PUSH0 PUSH20 0xFFFFFFFFFFFFFFFFFFFFFFFFFFFFFFFFFFFFFFFF AND DUP2 PUSH20 0xFFFFFFFFFFFFFFFFFFFFFFFFFFFFFFFFFFFFFFFF AND SUB PUSH2 0x3AF4 JUMPI PUSH0 PUSH1 0x40 MLOAD PUSH32 0x1E4FBDF700000000000000000000000000000000000000000000000000000000 DUP2 MSTORE PUSH1 0x4 ADD PUSH2 0x3AEB SWAP2 SWAP1 PUSH2 0x4A9C JUMP JUMPDEST PUSH1 0x40 MLOAD DUP1 SWAP2 SUB SWAP1 REVERT JUMPDEST PUSH2 0x3AFD DUP2 PUSH2 0x258E JUMP JUMPDEST POP JUMP JUMPDEST PUSH0 DUP2 SWAP1 POP SWAP2 SWAP1 POP JUMP JUMPDEST PUSH0 DUP2 PUSH20 0xFFFFFFFFFFFFFFFFFFFFFFFFFFFFFFFFFFFFFFFF AND EXTCODESIZE SUB PUSH2 0x3B64 JUMPI DUP1 PUSH1 0x40 MLOAD PUSH32 0x4C9C8CE300000000000000000000000000000000000000000000000000000000 DUP2 MSTORE PUSH1 0x4 ADD PUSH2 0x3B5B SWAP2 SWAP1 PUSH2 0x4A9C JUMP JUMPDEST PUSH1 0x40 MLOAD DUP1 SWAP2 SUB SWAP1 REVERT JUMPDEST DUP1 PUSH2 0x3B90 PUSH32 0x360894A13BA1A3210667C828492DB98DCA3E2076CC3735A920A3CA505D382BBC PUSH0 SHL PUSH2 0x3B00 JUMP JUMPDEST PUSH0 ADD PUSH0 PUSH2 0x100 EXP DUP2 SLOAD DUP2 PUSH20 0xFFFFFFFFFFFFFFFFFFFFFFFFFFFFFFFFFFFFFFFF MUL NOT AND SWAP1 DUP4 PUSH20 0xFFFFFFFFFFFFFFFFFFFFFFFFFFFFFFFFFFFFFFFF AND MUL OR SWAP1 SSTORE POP POP JUMP JUMPDEST PUSH1 0x60 PUSH0 DUP1 DUP5 PUSH20 0xFFFFFFFFFFFFFFFFFFFFFFFFFFFFFFFFFFFFFFFF AND DUP5 PUSH1 0x40 MLOAD PUSH2 0x3BFB SWAP2 SWAP1 PUSH2 0x5EDE JUMP JUMPDEST PUSH0 PUSH1 0x40 MLOAD DUP1 DUP4 SUB DUP2 DUP6 GAS DELEGATECALL SWAP2 POP POP RETURNDATASIZE DUP1 PUSH0 DUP2 EQ PUSH2 0x3C33 JUMPI PUSH1 0x40 MLOAD SWAP2 POP PUSH1 0x1F NOT PUSH1 0x3F RETURNDATASIZE ADD AND DUP3 ADD PUSH1 0x40 MSTORE RETURNDATASIZE DUP3 MSTORE RETURNDATASIZE PUSH0 PUSH1 0x20 DUP5 ADD RETURNDATACOPY PUSH2 0x3C38 JUMP JUMPDEST PUSH1 0x60 SWAP2 POP JUMPDEST POP SWAP2 POP SWAP2 POP PUSH2 0x3C48 DUP6 DUP4 DUP4 PUSH2 0x3CAC JUMP JUMPDEST SWAP3 POP POP POP SWAP3 SWAP2 POP POP JUMP JUMPDEST PUSH0 CALLVALUE GT ISZERO PUSH2 0x3C8C JUMPI PUSH1 0x40 MLOAD PUSH32 0xB398979F00000000000000000000000000000000000000000000000000000000 DUP2 MSTORE PUSH1 0x4 ADD PUSH1 0x40 MLOAD DUP1 SWAP2 SUB SWAP1 REVERT JUMPDEST JUMP JUMPDEST PUSH0 PUSH2 0x3C97 PUSH2 0x2686 JUMP JUMPDEST PUSH0 ADD PUSH1 0x8 SWAP1 SLOAD SWAP1 PUSH2 0x100 EXP SWAP1 DIV PUSH1 0xFF AND SWAP1 POP SWAP1 JUMP JUMPDEST PUSH1 0x60 DUP3 PUSH2 0x3CC1 JUMPI PUSH2 0x3CBC DUP3 PUSH2 0x3D39 JUMP JUMPDEST PUSH2 0x3D31 JUMP JUMPDEST PUSH0 DUP3 MLOAD EQ DUP1 ISZERO PUSH2 0x3CE7 JUMPI POP PUSH0 DUP5 PUSH20 0xFFFFFFFFFFFFFFFFFFFFFFFFFFFFFFFFFFFFFFFF AND EXTCODESIZE EQ JUMPDEST ISZERO PUSH2 0x3D29 JUMPI DUP4 PUSH1 0x40 MLOAD PUSH32 0x9996B31500000000000000000000000000000000000000000000000000000000 DUP2 MSTORE PUSH1 0x4 ADD PUSH2 0x3D20 SWAP2 SWAP1 PUSH2 0x4A9C JUMP JUMPDEST PUSH1 0x40 MLOAD DUP1 SWAP2 SUB SWAP1 REVERT JUMPDEST DUP2 SWAP1 POP PUSH2 0x3D32 JUMP JUMPDEST JUMPDEST SWAP4 SWAP3 POP POP POP JUMP JUMPDEST PUSH0 DUP2 MLOAD GT ISZERO PUSH2 0x3D4B JUMPI DUP1 MLOAD DUP1 DUP3 PUSH1 0x20 ADD REVERT JUMPDEST PUSH1 0x40 MLOAD PUSH32 0x1425EA4200000000000000000000000000000000000000000000000000000000 DUP2 MSTORE PUSH1 0x4 ADD PUSH1 0x40 MLOAD DUP1 SWAP2 SUB SWAP1 REVERT JUMPDEST POP DUP1 SLOAD PUSH0 DUP3 SSTORE PUSH1 0x3 MUL SWAP1 PUSH0 MSTORE PUSH1 0x20 PUSH0 KECCAK256 SWAP1 DUP2 ADD SWAP1 PUSH2 0x3D9B SWAP2 SWAP1 PUSH2 0x3F1E JUMP JUMPDEST POP JUMP JUMPDEST DUP3 DUP1 SLOAD DUP3 DUP3 SSTORE SWAP1 PUSH0 MSTORE PUSH1 0x20 PUSH0 KECCAK256 SWAP1 DUP2 ADD SWAP3 DUP3 ISZERO PUSH2 0x3DE4 JUMPI SWAP2 PUSH1 0x20 MUL DUP3 ADD JUMPDEST DUP3 DUP2 GT ISZERO PUSH2 0x3DE3 JUMPI DUP3 MLOAD DUP3 SWAP1 DUP2 PUSH2 0x3DD3 SWAP2 SWAP1 PUSH2 0x52F0 JUMP JUMPDEST POP SWAP2 PUSH1 0x20 ADD SWAP2 SWAP1 PUSH1 0x1 ADD SWAP1 PUSH2 0x3DBC JUMP JUMPDEST JUMPDEST POP SWAP1 POP PUSH2 0x3DF1 SWAP2 SWAP1 PUSH2 0x3F61 JUMP JUMPDEST POP SWAP1 JUMP JUMPDEST DUP3 DUP1 SLOAD DUP3 DUP3 SSTORE SWAP1 PUSH0 MSTORE PUSH1 0x20 PUSH0 KECCAK256 SWAP1 DUP2 ADD SWAP3 DUP3 ISZERO PUSH2 0x3E6B JUMPI SWAP2 PUSH1 0x20 MUL DUP3 ADD JUMPDEST DUP3 DUP2 GT ISZERO PUSH2 0x3E6A JUMPI DUP3 MLOAD DUP3 PUSH0 PUSH2 0x100 EXP DUP2 SLOAD DUP2 PUSH20 0xFFFFFFFFFFFFFFFFFFFFFFFFFFFFFFFFFFFFFFFF MUL NOT AND SWAP1 DUP4 PUSH20 0xFFFFFFFFFFFFFFFFFFFFFFFFFFFFFFFFFFFFFFFF AND MUL OR SWAP1 SSTORE POP SWAP2 PUSH1 0x20 ADD SWAP2 SWAP1 PUSH1 0x1 ADD SWAP1 PUSH2 0x3E13 JUMP JUMPDEST JUMPDEST POP SWAP1 POP PUSH2 0x3E78 SWAP2 SWAP1 PUSH2 0x3F84 JUMP JUMPDEST POP SWAP1 JUMP JUMPDEST DUP3 DUP1 SLOAD DUP3 DUP3 SSTORE SWAP1 PUSH0 MSTORE PUSH1 0x20 PUSH0 KECCAK256 SWAP1 PUSH1 0x1F ADD PUSH1 0x20 SWAP1 DIV DUP2 ADD SWAP3 DUP3 ISZERO PUSH2 0x3F0D JUMPI SWAP2 PUSH1 0x20 MUL DUP3 ADD PUSH0 JUMPDEST DUP4 DUP3 GT ISZERO PUSH2 0x3EDF JUMPI DUP4 MLOAD DUP4 DUP3 PUSH2 0x100 EXP DUP2 SLOAD DUP2 PUSH1 0xFF MUL NOT AND SWAP1 DUP4 PUSH1 0xFF AND MUL OR SWAP1 SSTORE POP SWAP3 PUSH1 0x20 ADD SWAP3 PUSH1 0x1 ADD PUSH1 0x20 DUP2 PUSH0 ADD DIV SWAP3 DUP4 ADD SWAP3 PUSH1 0x1 SUB MUL PUSH2 0x3EA2 JUMP JUMPDEST DUP1 ISZERO PUSH2 0x3F0B JUMPI DUP3 DUP2 PUSH2 0x100 EXP DUP2 SLOAD SWAP1 PUSH1 0xFF MUL NOT AND SWAP1 SSTORE PUSH1 0x1 ADD PUSH1 0x20 DUP2 PUSH0 ADD DIV SWAP3 DUP4 ADD SWAP3 PUSH1 0x1 SUB MUL PUSH2 0x3EDF JUMP JUMPDEST POP JUMPDEST POP SWAP1 POP PUSH2 0x3F1A SWAP2 SWAP1 PUSH2 0x3F84 JUMP JUMPDEST POP SWAP1 JUMP JUMPDEST JUMPDEST DUP1 DUP3 GT ISZERO PUSH2 0x3F5D JUMPI PUSH0 DUP1 DUP3 ADD PUSH0 PUSH2 0x3F36 SWAP2 SWAP1 PUSH2 0x3F9F JUMP JUMPDEST PUSH1 0x1 DUP3 ADD PUSH0 PUSH2 0x3F45 SWAP2 SWAP1 PUSH2 0x3F9F JUMP JUMPDEST PUSH1 0x2 DUP3 ADD PUSH0 PUSH2 0x3F54 SWAP2 SWAP1 PUSH2 0x3FDC JUMP JUMPDEST POP PUSH1 0x3 ADD PUSH2 0x3F1F JUMP JUMPDEST POP SWAP1 JUMP JUMPDEST JUMPDEST DUP1 DUP3 GT ISZERO PUSH2 0x3F80 JUMPI PUSH0 DUP2 DUP2 PUSH2 0x3F77 SWAP2 SWAP1 PUSH2 0x3F9F JUMP JUMPDEST POP PUSH1 0x1 ADD PUSH2 0x3F62 JUMP JUMPDEST POP SWAP1 JUMP JUMPDEST JUMPDEST DUP1 DUP3 GT ISZERO PUSH2 0x3F9B JUMPI PUSH0 DUP2 PUSH0 SWAP1 SSTORE POP PUSH1 0x1 ADD PUSH2 0x3F85 JUMP JUMPDEST POP SWAP1 JUMP JUMPDEST POP DUP1 SLOAD PUSH2 0x3FAB SWAP1 PUSH2 0x512C JUMP JUMPDEST PUSH0 DUP3 SSTORE DUP1 PUSH1 0x1F LT PUSH2 0x3FBC JUMPI POP PUSH2 0x3FD9 JUMP JUMPDEST PUSH1 0x1F ADD PUSH1 0x20 SWAP1 DIV SWAP1 PUSH0 MSTORE PUSH1 0x20 PUSH0 KECCAK256 SWAP1 DUP2 ADD SWAP1 PUSH2 0x3FD8 SWAP2 SWAP1 PUSH2 0x3F84 JUMP JUMPDEST JUMPDEST POP JUMP JUMPDEST POP DUP1 SLOAD PUSH0 DUP3 SSTORE SWAP1 PUSH0 MSTORE PUSH1 0x20 PUSH0 KECCAK256 SWAP1 DUP2 ADD SWAP1 PUSH2 0x3FF7 SWAP2 SWAP1 PUSH2 0x3F61 JUMP JUMPDEST POP JUMP JUMPDEST PUSH0 PUSH20 0xFFFFFFFFFFFFFFFFFFFFFFFFFFFFFFFFFFFFFFFF DUP3 AND SWAP1 POP SWAP2 SWAP1 POP JUMP JUMPDEST PUSH0 DUP2 SWAP1 POP SWAP2 SWAP1 POP JUMP JUMPDEST PUSH0 PUSH2 0x403C PUSH2 0x4037 PUSH2 0x4032 DUP5 PUSH2 0x3FFA JUMP JUMPDEST PUSH2 0x4019 JUMP JUMPDEST PUSH2 0x3FFA JUMP JUMPDEST SWAP1 POP SWAP2 SWAP1 POP JUMP JUMPDEST PUSH0 PUSH2 0x404D DUP3 PUSH2 0x4022 JUMP JUMPDEST SWAP1 POP SWAP2 SWAP1 POP JUMP JUMPDEST PUSH0 PUSH2 0x405E DUP3 PUSH2 0x4043 JUMP JUMPDEST SWAP1 POP SWAP2 SWAP1 POP JUMP JUMPDEST PUSH2 0x406E DUP2 PUSH2 0x4054 JUMP JUMPDEST DUP3 MSTORE POP POP JUMP JUMPDEST PUSH0 PUSH1 0x20 DUP3 ADD SWAP1 POP PUSH2 0x4087 PUSH0 DUP4 ADD DUP5 PUSH2 0x4065 JUMP JUMPDEST SWAP3 SWAP2 POP POP JUMP JUMPDEST PUSH0 PUSH1 0x40 MLOAD SWAP1 POP SWAP1 JUMP JUMPDEST PUSH0 DUP1 REVERT JUMPDEST PUSH0 DUP1 REVERT JUMPDEST PUSH0 PUSH2 0x40A8 DUP3 PUSH2 0x3FFA JUMP JUMPDEST SWAP1 POP SWAP2 SWAP1 POP JUMP JUMPDEST PUSH2 0x40B8 DUP2 PUSH2 0x409E JUMP JUMPDEST DUP2 EQ PUSH2 0x40C2 JUMPI PUSH0 DUP1 REVERT JUMPDEST POP JUMP JUMPDEST PUSH0 DUP2 CALLDATALOAD SWAP1 POP PUSH2 0x40D3 DUP2 PUSH2 0x40AF JUMP JUMPDEST SWAP3 SWAP2 POP POP JUMP JUMPDEST PUSH0 DUP2 SWAP1 POP SWAP2 SWAP1 POP JUMP JUMPDEST PUSH2 0x40EB DUP2 PUSH2 0x40D9 JUMP JUMPDEST DUP2 EQ PUSH2 0x40F5 JUMPI PUSH0 DUP1 REVERT JUMPDEST POP JUMP JUMPDEST PUSH0 DUP2 CALLDATALOAD SWAP1 POP PUSH2 0x4106 DUP2 PUSH2 0x40E2 JUMP JUMPDEST SWAP3 SWAP2 POP POP JUMP JUMPDEST PUSH0 DUP1 PUSH1 0x40 DUP4 DUP6 SUB SLT ISZERO PUSH2 0x4122 JUMPI PUSH2 0x4121 PUSH2 0x4096 JUMP JUMPDEST JUMPDEST PUSH0 PUSH2 0x412F DUP6 DUP3 DUP7 ADD PUSH2 0x40C5 JUMP JUMPDEST SWAP3 POP POP PUSH1 0x20 PUSH2 0x4140 DUP6 DUP3 DUP7 ADD PUSH2 0x40F8 JUMP JUMPDEST SWAP2 POP POP SWAP3 POP SWAP3 SWAP1 POP JUMP JUMPDEST PUSH2 0x4153 DUP2 PUSH2 0x40D9 JUMP JUMPDEST DUP3 MSTORE POP POP JUMP JUMPDEST PUSH0 DUP2 MLOAD SWAP1 POP SWAP2 SWAP1 POP JUMP JUMPDEST PUSH0 DUP3 DUP3 MSTORE PUSH1 0x20 DUP3 ADD SWAP1 POP SWAP3 SWAP2 POP POP JUMP JUMPDEST PUSH0 DUP2 SWAP1 POP PUSH1 0x20 DUP3 ADD SWAP1 POP SWAP2 SWAP1 POP JUMP JUMPDEST PUSH2 0x418B DUP2 PUSH2 0x40D9 JUMP JUMPDEST DUP3 MSTORE POP POP JUMP JUMPDEST PUSH0 PUSH2 0x419C DUP4 DUP4 PUSH2 0x4182 JUMP JUMPDEST PUSH1 0x20 DUP4 ADD SWAP1 POP SWAP3 SWAP2 POP POP JUMP JUMPDEST PUSH0 PUSH1 0x20 DUP3 ADD SWAP1 POP SWAP2 SWAP1 POP JUMP JUMPDEST PUSH0 PUSH2 0x41BE DUP3 PUSH2 0x4159 JUMP JUMPDEST PUSH2 0x41C8 DUP2 DUP6 PUSH2 0x4163 JUMP JUMPDEST SWAP4 POP PUSH2 0x41D3 DUP4 PUSH2 0x4173 JUMP JUMPDEST DUP1 PUSH0 JUMPDEST DUP4 DUP2 LT ISZERO PUSH2 0x4203 JUMPI DUP2 MLOAD PUSH2 0x41EA DUP9 DUP3 PUSH2 0x4191 JUMP JUMPDEST SWAP8 POP PUSH2 0x41F5 DUP4 PUSH2 0x41A8 JUMP JUMPDEST SWAP3 POP POP PUSH1 0x1 DUP2 ADD SWAP1 POP PUSH2 0x41D6 JUMP JUMPDEST POP DUP6 SWAP4 POP POP POP POP SWAP3 SWAP2 POP POP JUMP JUMPDEST PUSH0 PUSH1 0x60 DUP3 ADD SWAP1 POP PUSH2 0x4223 PUSH0 DUP4 ADD DUP7 PUSH2 0x414A JUMP JUMPDEST PUSH2 0x4230 PUSH1 0x20 DUP4 ADD DUP6 PUSH2 0x414A JUMP JUMPDEST DUP2 DUP2 SUB PUSH1 0x40 DUP4 ADD MSTORE PUSH2 0x4242 DUP2 DUP5 PUSH2 0x41B4 JUMP JUMPDEST SWAP1 POP SWAP5 SWAP4 POP POP POP POP JUMP JUMPDEST PUSH0 DUP1 REVERT JUMPDEST PUSH0 PUSH1 0x1F NOT PUSH1 0x1F DUP4 ADD AND SWAP1 POP SWAP2 SWAP1 POP JUMP JUMPDEST PUSH32 0x4E487B7100000000000000000000000000000000000000000000000000000000 PUSH0 MSTORE PUSH1 0x41 PUSH1 0x4 MSTORE PUSH1 0x24 PUSH0 REVERT JUMPDEST PUSH2 0x4296 DUP3 PUSH2 0x4250 JUMP JUMPDEST DUP2 ADD DUP2 DUP2 LT PUSH8 0xFFFFFFFFFFFFFFFF DUP3 GT OR ISZERO PUSH2 0x42B5 JUMPI PUSH2 0x42B4 PUSH2 0x4260 JUMP JUMPDEST JUMPDEST DUP1 PUSH1 0x40 MSTORE POP POP POP JUMP JUMPDEST PUSH0 PUSH2 0x42C7 PUSH2 0x408D JUMP JUMPDEST SWAP1 POP PUSH2 0x42D3 DUP3 DUP3 PUSH2 0x428D JUMP JUMPDEST SWAP2 SWAP1 POP JUMP JUMPDEST PUSH0 PUSH8 0xFFFFFFFFFFFFFFFF DUP3 GT ISZERO PUSH2 0x42F2 JUMPI PUSH2 0x42F1 PUSH2 0x4260 JUMP JUMPDEST JUMPDEST PUSH1 0x20 DUP3 MUL SWAP1 POP PUSH1 0x20 DUP2 ADD SWAP1 POP SWAP2 SWAP1 POP JUMP JUMPDEST PUSH0 DUP1 REVERT JUMPDEST PUSH0 DUP1 REVERT JUMPDEST PUSH0 DUP1 REVERT JUMPDEST PUSH0 DUP1 REVERT JUMPDEST PUSH0 PUSH8 0xFFFFFFFFFFFFFFFF DUP3 GT ISZERO PUSH2 0x432D JUMPI PUSH2 0x432C PUSH2 0x4260 JUMP JUMPDEST JUMPDEST PUSH2 0x4336 DUP3 PUSH2 0x4250 JUMP JUMPDEST SWAP1 POP PUSH1 0x20 DUP2 ADD SWAP1 POP SWAP2 SWAP1 POP JUMP JUMPDEST DUP3 DUP2 DUP4 CALLDATACOPY PUSH0 DUP4 DUP4 ADD MSTORE POP POP POP JUMP JUMPDEST PUSH0 PUSH2 0x4363 PUSH2 0x435E DUP5 PUSH2 0x4313 JUMP JUMPDEST PUSH2 0x42BE JUMP JUMPDEST SWAP1 POP DUP3 DUP2 MSTORE PUSH1 0x20 DUP2 ADD DUP5 DUP5 DUP5 ADD GT ISZERO PUSH2 0x437F JUMPI PUSH2 0x437E PUSH2 0x430F JUMP JUMPDEST JUMPDEST PUSH2 0x438A DUP5 DUP3 DUP6 PUSH2 0x4343 JUMP JUMPDEST POP SWAP4 SWAP3 POP POP POP JUMP JUMPDEST PUSH0 DUP3 PUSH1 0x1F DUP4 ADD SLT PUSH2 0x43A6 JUMPI PUSH2 0x43A5 PUSH2 0x424C JUMP JUMPDEST JUMPDEST DUP2 CALLDATALOAD PUSH2 0x43B6 DUP5 DUP3 PUSH1 0x20 DUP7 ADD PUSH2 0x4351 JUMP JUMPDEST SWAP2 POP POP SWAP3 SWAP2 POP POP JUMP JUMPDEST PUSH0 PUSH8 0xFFFFFFFFFFFFFFFF DUP3 GT ISZERO PUSH2 0x43D9 JUMPI PUSH2 0x43D8 PUSH2 0x4260 JUMP JUMPDEST JUMPDEST PUSH1 0x20 DUP3 MUL SWAP1 POP PUSH1 0x20 DUP2 ADD SWAP1 POP SWAP2 SWAP1 POP JUMP JUMPDEST PUSH0 PUSH2 0x43FC PUSH2 0x43F7 DUP5 PUSH2 0x43BF JUMP JUMPDEST PUSH2 0x42BE JUMP JUMPDEST SWAP1 POP DUP1 DUP4 DUP3 MSTORE PUSH1 0x20 DUP3 ADD SWAP1 POP PUSH1 0x20 DUP5 MUL DUP4 ADD DUP6 DUP2 GT ISZERO PUSH2 0x441F JUMPI PUSH2 0x441E PUSH2 0x4303 JUMP JUMPDEST JUMPDEST DUP4 JUMPDEST DUP2 DUP2 LT ISZERO PUSH2 0x4466 JUMPI DUP1 CALLDATALOAD PUSH8 0xFFFFFFFFFFFFFFFF DUP2 GT ISZERO PUSH2 0x4444 JUMPI PUSH2 0x4443 PUSH2 0x424C JUMP JUMPDEST JUMPDEST DUP1 DUP7 ADD PUSH2 0x4451 DUP10 DUP3 PUSH2 0x4392 JUMP JUMPDEST DUP6 MSTORE PUSH1 0x20 DUP6 ADD SWAP5 POP POP POP PUSH1 0x20 DUP2 ADD SWAP1 POP PUSH2 0x4421 JUMP JUMPDEST POP POP POP SWAP4 SWAP3 POP POP POP JUMP JUMPDEST PUSH0 DUP3 PUSH1 0x1F DUP4 ADD SLT PUSH2 0x4484 JUMPI PUSH2 0x4483 PUSH2 0x424C JUMP JUMPDEST JUMPDEST DUP2 CALLDATALOAD PUSH2 0x4494 DUP5 DUP3 PUSH1 0x20 DUP7 ADD PUSH2 0x43EA JUMP JUMPDEST SWAP2 POP POP SWAP3 SWAP2 POP POP JUMP JUMPDEST PUSH0 PUSH1 0x60 DUP3 DUP5 SUB SLT ISZERO PUSH2 0x44B2 JUMPI PUSH2 0x44B1 PUSH2 0x4307 JUMP JUMPDEST JUMPDEST PUSH2 0x44BC PUSH1 0x60 PUSH2 0x42BE JUMP JUMPDEST SWAP1 POP PUSH0 DUP3 ADD CALLDATALOAD PUSH8 0xFFFFFFFFFFFFFFFF DUP2 GT ISZERO PUSH2 0x44DB JUMPI PUSH2 0x44DA PUSH2 0x430B JUMP JUMPDEST JUMPDEST PUSH2 0x44E7 DUP5 DUP3 DUP6 ADD PUSH2 0x4392 JUMP JUMPDEST PUSH0 DUP4 ADD MSTORE POP PUSH1 0x20 DUP3 ADD CALLDATALOAD PUSH8 0xFFFFFFFFFFFFFFFF DUP2 GT ISZERO PUSH2 0x450A JUMPI PUSH2 0x4509 PUSH2 0x430B JUMP JUMPDEST JUMPDEST PUSH2 0x4516 DUP5 DUP3 DUP6 ADD PUSH2 0x4392 JUMP JUMPDEST PUSH1 0x20 DUP4 ADD MSTORE POP PUSH1 0x40 DUP3 ADD CALLDATALOAD PUSH8 0xFFFFFFFFFFFFFFFF DUP2 GT ISZERO PUSH2 0x453A JUMPI PUSH2 0x4539 PUSH2 0x430B JUMP JUMPDEST JUMPDEST PUSH2 0x4546 DUP5 DUP3 DUP6 ADD PUSH2 0x4470 JUMP JUMPDEST PUSH1 0x40 DUP4 ADD MSTORE POP SWAP3 SWAP2 POP POP JUMP JUMPDEST PUSH0 PUSH2 0x4564 PUSH2 0x455F DUP5 PUSH2 0x42D8 JUMP JUMPDEST PUSH2 0x42BE JUMP JUMPDEST SWAP1 POP DUP1 DUP4 DUP3 MSTORE PUSH1 0x20 DUP3 ADD SWAP1 POP PUSH1 0x20 DUP5 MUL DUP4 ADD DUP6 DUP2 GT ISZERO PUSH2 0x4587 JUMPI PUSH2 0x4586 PUSH2 0x4303 JUMP JUMPDEST JUMPDEST DUP4 JUMPDEST DUP2 DUP2 LT ISZERO PUSH2 0x45CE JUMPI DUP1 CALLDATALOAD PUSH8 0xFFFFFFFFFFFFFFFF DUP2 GT ISZERO PUSH2 0x45AC JUMPI PUSH2 0x45AB PUSH2 0x424C JUMP JUMPDEST JUMPDEST DUP1 DUP7 ADD PUSH2 0x45B9 DUP10 DUP3 PUSH2 0x449D JUMP JUMPDEST DUP6 MSTORE PUSH1 0x20 DUP6 ADD SWAP5 POP POP POP PUSH1 0x20 DUP2 ADD SWAP1 POP PUSH2 0x4589 JUMP JUMPDEST POP POP POP SWAP4 SWAP3 POP POP POP JUMP JUMPDEST PUSH0 DUP3 PUSH1 0x1F DUP4 ADD SLT PUSH2 0x45EC JUMPI PUSH2 0x45EB PUSH2 0x424C JUMP JUMPDEST JUMPDEST DUP2 CALLDATALOAD PUSH2 0x45FC DUP5 DUP3 PUSH1 0x20 DUP7 ADD PUSH2 0x4552 JUMP JUMPDEST SWAP2 POP POP SWAP3 SWAP2 POP POP JUMP JUMPDEST PUSH0 DUP1 PUSH1 0x40 DUP4 DUP6 SUB SLT ISZERO PUSH2 0x461B JUMPI PUSH2 0x461A PUSH2 0x4096 JUMP JUMPDEST JUMPDEST PUSH0 PUSH2 0x4628 DUP6 DUP3 DUP7 ADD PUSH2 0x40F8 JUMP JUMPDEST SWAP3 POP POP PUSH1 0x20 DUP4 ADD CALLDATALOAD PUSH8 0xFFFFFFFFFFFFFFFF DUP2 GT ISZERO PUSH2 0x4649 JUMPI PUSH2 0x4648 PUSH2 0x409A JUMP JUMPDEST JUMPDEST PUSH2 0x4655 DUP6 DUP3 DUP7 ADD PUSH2 0x45D8 JUMP JUMPDEST SWAP2 POP POP SWAP3 POP SWAP3 SWAP1 POP JUMP JUMPDEST PUSH0 PUSH8 0xFFFFFFFFFFFFFFFF DUP3 GT ISZERO PUSH2 0x4679 JUMPI PUSH2 0x4678 PUSH2 0x4260 JUMP JUMPDEST JUMPDEST PUSH2 0x4682 DUP3 PUSH2 0x4250 JUMP JUMPDEST SWAP1 POP PUSH1 0x20 DUP2 ADD SWAP1 POP SWAP2 SWAP1 POP JUMP JUMPDEST PUSH0 PUSH2 0x46A1 PUSH2 0x469C DUP5 PUSH2 0x465F JUMP JUMPDEST PUSH2 0x42BE JUMP JUMPDEST SWAP1 POP DUP3 DUP2 MSTORE PUSH1 0x20 DUP2 ADD DUP5 DUP5 DUP5 ADD GT ISZERO PUSH2 0x46BD JUMPI PUSH2 0x46BC PUSH2 0x430F JUMP JUMPDEST JUMPDEST PUSH2 0x46C8 DUP5 DUP3 DUP6 PUSH2 0x4343 JUMP JUMPDEST POP SWAP4 SWAP3 POP POP POP JUMP JUMPDEST PUSH0 DUP3 PUSH1 0x1F DUP4 ADD SLT PUSH2 0x46E4 JUMPI PUSH2 0x46E3 PUSH2 0x424C JUMP JUMPDEST JUMPDEST DUP2 CALLDATALOAD PUSH2 0x46F4 DUP5 DUP3 PUSH1 0x20 DUP7 ADD PUSH2 0x468F JUMP JUMPDEST SWAP2 POP POP SWAP3 SWAP2 POP POP JUMP JUMPDEST PUSH0 DUP1 PUSH1 0x40 DUP4 DUP6 SUB SLT ISZERO PUSH2 0x4713 JUMPI PUSH2 0x4712 PUSH2 0x4096 JUMP JUMPDEST JUMPDEST PUSH0 PUSH2 0x4720 DUP6 DUP3 DUP7 ADD PUSH2 0x40C5 JUMP JUMPDEST SWAP3 POP POP PUSH1 0x20 DUP4 ADD CALLDATALOAD PUSH8 0xFFFFFFFFFFFFFFFF DUP2 GT ISZERO PUSH2 0x4741 JUMPI PUSH2 0x4740 PUSH2 0x409A JUMP JUMPDEST JUMPDEST PUSH2 0x474D DUP6 DUP3 DUP7 ADD PUSH2 0x46D0 JUMP JUMPDEST SWAP2 POP POP SWAP3 POP SWAP3 SWAP1 POP JUMP JUMPDEST PUSH0 DUP2 SWAP1 POP SWAP2 SWAP1 POP JUMP JUMPDEST PUSH2 0x4769 DUP2 PUSH2 0x4757 JUMP JUMPDEST DUP3 MSTORE POP POP JUMP JUMPDEST PUSH0 PUSH1 0x20 DUP3 ADD SWAP1 POP PUSH2 0x4782 PUSH0 DUP4 ADD DUP5 PUSH2 0x4760 JUMP JUMPDEST SWAP3 SWAP2 POP POP JUMP JUMPDEST PUSH0 PUSH1 0x20 DUP3 DUP5 SUB SLT ISZERO PUSH2 0x479D JUMPI PUSH2 0x479C PUSH2 0x4096 JUMP JUMPDEST JUMPDEST PUSH0 PUSH2 0x47AA DUP5 DUP3 DUP6 ADD PUSH2 0x40F8 JUMP JUMPDEST SWAP2 POP POP SWAP3 SWAP2 POP POP JUMP JUMPDEST PUSH0 DUP1 PUSH1 0x40 DUP4 DUP6 SUB SLT ISZERO PUSH2 0x47C9 JUMPI PUSH2 0x47C8 PUSH2 0x4096 JUMP JUMPDEST JUMPDEST PUSH0 PUSH2 0x47D6 DUP6 DUP3 DUP7 ADD PUSH2 0x40F8 JUMP JUMPDEST SWAP3 POP POP PUSH1 0x20 PUSH2 0x47E7 DUP6 DUP3 DUP7 ADD PUSH2 0x40F8 JUMP JUMPDEST SWAP2 POP POP SWAP3 POP SWAP3 SWAP1 POP JUMP JUMPDEST PUSH0 DUP2 MLOAD SWAP1 POP SWAP2 SWAP1 POP JUMP JUMPDEST PUSH0 DUP3 DUP3 MSTORE PUSH1 0x20 DUP3 ADD SWAP1 POP SWAP3 SWAP2 POP POP JUMP JUMPDEST PUSH0 DUP2 SWAP1 POP PUSH1 0x20 DUP3 ADD SWAP1 POP SWAP2 SWAP1 POP JUMP JUMPDEST PUSH0 DUP2 MLOAD SWAP1 POP SWAP2 SWAP1 POP JUMP JUMPDEST PUSH0 DUP3 DUP3 MSTORE PUSH1 0x20 DUP3 ADD SWAP1 POP SWAP3 SWAP2 POP POP JUMP JUMPDEST PUSH0 DUP2 SWAP1 POP PUSH1 0x20 DUP3 ADD SWAP1 POP SWAP2 SWAP1 POP JUMP JUMPDEST PUSH2 0x484C DUP2 PUSH2 0x409E JUMP JUMPDEST DUP3 MSTORE POP POP JUMP JUMPDEST PUSH0 PUSH2 0x485D DUP4 DUP4 PUSH2 0x4843 JUMP JUMPDEST PUSH1 0x20 DUP4 ADD SWAP1 POP SWAP3 SWAP2 POP POP JUMP JUMPDEST PUSH0 PUSH1 0x20 DUP3 ADD SWAP1 POP SWAP2 SWAP1 POP JUMP JUMPDEST PUSH0 PUSH2 0x487F DUP3 PUSH2 0x481A JUMP JUMPDEST PUSH2 0x4889 DUP2 DUP6 PUSH2 0x4824 JUMP JUMPDEST SWAP4 POP PUSH2 0x4894 DUP4 PUSH2 0x4834 JUMP JUMPDEST DUP1 PUSH0 JUMPDEST DUP4 DUP2 LT ISZERO PUSH2 0x48C4 JUMPI DUP2 MLOAD PUSH2 0x48AB DUP9 DUP3 PUSH2 0x4852 JUMP JUMPDEST SWAP8 POP PUSH2 0x48B6 DUP4 PUSH2 0x4869 JUMP JUMPDEST SWAP3 POP POP PUSH1 0x1 DUP2 ADD SWAP1 POP PUSH2 0x4897 JUMP JUMPDEST POP DUP6 SWAP4 POP POP POP POP SWAP3 SWAP2 POP POP JUMP JUMPDEST PUSH0 PUSH1 0x20 DUP4 ADD PUSH0 DUP4 ADD MLOAD DUP5 DUP3 SUB PUSH0 DUP7 ADD MSTORE PUSH2 0x48EB DUP3 DUP3 PUSH2 0x4875 JUMP JUMPDEST SWAP2 POP POP DUP1 SWAP2 POP POP SWAP3 SWAP2 POP POP JUMP JUMPDEST PUSH0 PUSH2 0x4903 DUP4 DUP4 PUSH2 0x48D1 JUMP JUMPDEST SWAP1 POP SWAP3 SWAP2 POP POP JUMP JUMPDEST PUSH0 PUSH1 0x20 DUP3 ADD SWAP1 POP SWAP2 SWAP1 POP JUMP JUMPDEST PUSH0 PUSH2 0x4921 DUP3 PUSH2 0x47F1 JUMP JUMPDEST PUSH2 0x492B DUP2 DUP6 PUSH2 0x47FB JUMP JUMPDEST SWAP4 POP DUP4 PUSH1 0x20 DUP3 MUL DUP6 ADD PUSH2 0x493D DUP6 PUSH2 0x480B JUMP JUMPDEST DUP1 PUSH0 JUMPDEST DUP6 DUP2 LT ISZERO PUSH2 0x4978 JUMPI DUP5 DUP5 SUB DUP10 MSTORE DUP2 MLOAD PUSH2 0x4959 DUP6 DUP3 PUSH2 0x48F8 JUMP JUMPDEST SWAP5 POP PUSH2 0x4964 DUP4 PUSH2 0x490B JUMP JUMPDEST SWAP3 POP PUSH1 0x20 DUP11 ADD SWAP10 POP POP PUSH1 0x1 DUP2 ADD SWAP1 POP PUSH2 0x4940 JUMP JUMPDEST POP DUP3 SWAP8 POP DUP8 SWAP6 POP POP POP POP POP POP SWAP3 SWAP2 POP POP JUMP JUMPDEST PUSH0 PUSH1 0x20 DUP3 ADD SWAP1 POP DUP2 DUP2 SUB PUSH0 DUP4 ADD MSTORE PUSH2 0x49A2 DUP2 DUP5 PUSH2 0x4917 JUMP JUMPDEST SWAP1 POP SWAP3 SWAP2 POP POP JUMP JUMPDEST PUSH0 DUP2 MLOAD SWAP1 POP SWAP2 SWAP1 POP JUMP JUMPDEST PUSH0 DUP3 DUP3 MSTORE PUSH1 0x20 DUP3 ADD SWAP1 POP SWAP3 SWAP2 POP POP JUMP JUMPDEST PUSH0 DUP2 SWAP1 POP PUSH1 0x20 DUP3 ADD SWAP1 POP SWAP2 SWAP1 POP JUMP JUMPDEST PUSH0 PUSH1 0xFF DUP3 AND SWAP1 POP SWAP2 SWAP1 POP JUMP JUMPDEST PUSH2 0x49E8 DUP2 PUSH2 0x49D3 JUMP JUMPDEST DUP3 MSTORE POP POP JUMP JUMPDEST PUSH0 PUSH2 0x49F9 DUP4 DUP4 PUSH2 0x49DF JUMP JUMPDEST PUSH1 0x20 DUP4 ADD SWAP1 POP SWAP3 SWAP2 POP POP JUMP JUMPDEST PUSH0 PUSH1 0x20 DUP3 ADD SWAP1 POP SWAP2 SWAP1 POP JUMP JUMPDEST PUSH0 PUSH2 0x4A1B DUP3 PUSH2 0x49AA JUMP JUMPDEST PUSH2 0x4A25 DUP2 DUP6 PUSH2 0x49B4 JUMP JUMPDEST SWAP4 POP PUSH2 0x4A30 DUP4 PUSH2 0x49C4 JUMP JUMPDEST DUP1 PUSH0 JUMPDEST DUP4 DUP2 LT ISZERO PUSH2 0x4A60 JUMPI DUP2 MLOAD PUSH2 0x4A47 DUP9 DUP3 PUSH2 0x49EE JUMP JUMPDEST SWAP8 POP PUSH2 0x4A52 DUP4 PUSH2 0x4A05 JUMP JUMPDEST SWAP3 POP POP PUSH1 0x1 DUP2 ADD SWAP1 POP PUSH2 0x4A33 JUMP JUMPDEST POP DUP6 SWAP4 POP POP POP POP SWAP3 SWAP2 POP POP JUMP JUMPDEST PUSH0 PUSH1 0x20 DUP3 ADD SWAP1 POP DUP2 DUP2 SUB PUSH0 DUP4 ADD MSTORE PUSH2 0x4A85 DUP2 DUP5 PUSH2 0x4A11 JUMP JUMPDEST SWAP1 POP SWAP3 SWAP2 POP POP JUMP JUMPDEST PUSH2 0x4A96 DUP2 PUSH2 0x409E JUMP JUMPDEST DUP3 MSTORE POP POP JUMP JUMPDEST PUSH0 PUSH1 0x20 DUP3 ADD SWAP1 POP PUSH2 0x4AAF PUSH0 DUP4 ADD DUP5 PUSH2 0x4A8D JUMP JUMPDEST SWAP3 SWAP2 POP POP JUMP JUMPDEST PUSH0 DUP3 DUP3 MSTORE PUSH1 0x20 DUP3 ADD SWAP1 POP SWAP3 SWAP2 POP POP JUMP JUMPDEST PUSH0 PUSH2 0x4ACF DUP3 PUSH2 0x481A JUMP JUMPDEST PUSH2 0x4AD9 DUP2 DUP6 PUSH2 0x4AB5 JUMP JUMPDEST SWAP4 POP PUSH2 0x4AE4 DUP4 PUSH2 0x4834 JUMP JUMPDEST DUP1 PUSH0 JUMPDEST DUP4 DUP2 LT ISZERO PUSH2 0x4B14 JUMPI DUP2 MLOAD PUSH2 0x4AFB DUP9 DUP3 PUSH2 0x4852 JUMP JUMPDEST SWAP8 POP PUSH2 0x4B06 DUP4 PUSH2 0x4869 JUMP JUMPDEST SWAP3 POP POP PUSH1 0x1 DUP2 ADD SWAP1 POP PUSH2 0x4AE7 JUMP JUMPDEST POP DUP6 SWAP4 POP POP POP POP SWAP3 SWAP2 POP POP JUMP JUMPDEST PUSH0 PUSH1 0x20 DUP3 ADD SWAP1 POP DUP2 DUP2 SUB PUSH0 DUP4 ADD MSTORE PUSH2 0x4B39 DUP2 DUP5 PUSH2 0x4AC5 JUMP JUMPDEST SWAP1 POP SWAP3 SWAP2 POP POP JUMP JUMPDEST PUSH0 DUP1 PUSH0 DUP1 PUSH1 0x80 DUP6 DUP8 SUB SLT ISZERO PUSH2 0x4B59 JUMPI PUSH2 0x4B58 PUSH2 0x4096 JUMP JUMPDEST JUMPDEST PUSH0 PUSH2 0x4B66 DUP8 DUP3 DUP9 ADD PUSH2 0x40F8 JUMP JUMPDEST SWAP5 POP POP PUSH1 0x20 PUSH2 0x4B77 DUP8 DUP3 DUP9 ADD PUSH2 0x40C5 JUMP JUMPDEST SWAP4 POP POP PUSH1 0x40 PUSH2 0x4B88 DUP8 DUP3 DUP9 ADD PUSH2 0x40F8 JUMP JUMPDEST SWAP3 POP POP PUSH1 0x60 PUSH2 0x4B99 DUP8 DUP3 DUP9 ADD PUSH2 0x40F8 JUMP JUMPDEST SWAP2 POP POP SWAP3 SWAP6 SWAP2 SWAP5 POP SWAP3 POP JUMP JUMPDEST PUSH0 DUP2 MLOAD SWAP1 POP SWAP2 SWAP1 POP JUMP JUMPDEST PUSH0 DUP3 DUP3 MSTORE PUSH1 0x20 DUP3 ADD SWAP1 POP SWAP3 SWAP2 POP POP JUMP JUMPDEST DUP3 DUP2 DUP4 MCOPY PUSH0 DUP4 DUP4 ADD MSTORE POP POP POP JUMP JUMPDEST PUSH0 PUSH2 0x4BD7 DUP3 PUSH2 0x4BA5 JUMP JUMPDEST PUSH2 0x4BE1 DUP2 DUP6 PUSH2 0x4BAF JUMP JUMPDEST SWAP4 POP PUSH2 0x4BF1 DUP2 DUP6 PUSH1 0x20 DUP7 ADD PUSH2 0x4BBF JUMP JUMPDEST PUSH2 0x4BFA DUP2 PUSH2 0x4250 JUMP JUMPDEST DUP5 ADD SWAP2 POP POP SWAP3 SWAP2 POP POP JUMP JUMPDEST PUSH0 PUSH1 0x20 DUP3 ADD SWAP1 POP DUP2 DUP2 SUB PUSH0 DUP4 ADD MSTORE PUSH2 0x4C1D DUP2 DUP5 PUSH2 0x4BCD JUMP JUMPDEST SWAP1 POP SWAP3 SWAP2 POP POP JUMP JUMPDEST PUSH0 PUSH1 0x20 DUP3 ADD SWAP1 POP PUSH2 0x4C38 PUSH0 DUP4 ADD DUP5 PUSH2 0x414A JUMP JUMPDEST SWAP3 SWAP2 POP POP JUMP JUMPDEST PUSH0 PUSH1 0x20 DUP3 DUP5 SUB SLT ISZERO PUSH2 0x4C53 JUMPI PUSH2 0x4C52 PUSH2 0x4096 JUMP JUMPDEST JUMPDEST PUSH0 PUSH2 0x4C60 DUP5 DUP3 DUP6 ADD PUSH2 0x40C5 JUMP JUMPDEST SWAP2 POP POP SWAP3 SWAP2 POP POP JUMP JUMPDEST PUSH0 PUSH1 0x40 DUP3 ADD SWAP1 POP PUSH2 0x4C7C PUSH0 DUP4 ADD DUP6 PUSH2 0x4A8D JUMP JUMPDEST PUSH2 0x4C89 PUSH1 0x20 DUP4 ADD DUP5 PUSH2 0x414A JUMP JUMPDEST SWAP4 SWAP3 POP POP POP JUMP JUMPDEST PUSH0 DUP2 MLOAD SWAP1 POP PUSH2 0x4C9E DUP2 PUSH2 0x40E2 JUMP JUMPDEST SWAP3 SWAP2 POP POP JUMP JUMPDEST PUSH0 DUP2 ISZERO ISZERO SWAP1 POP SWAP2 SWAP1 POP JUMP JUMPDEST PUSH2 0x4CB8 DUP2 PUSH2 0x4CA4 JUMP JUMPDEST DUP2 EQ PUSH2 0x4CC2 JUMPI PUSH0 DUP1 REVERT JUMPDEST POP JUMP JUMPDEST PUSH0 DUP2 MLOAD SWAP1 POP PUSH2 0x4CD3 DUP2 PUSH2 0x4CAF JUMP JUMPDEST SWAP3 SWAP2 POP POP JUMP JUMPDEST PUSH0 PUSH8 0xFFFFFFFFFFFFFFFF DUP3 GT ISZERO PUSH2 0x4CF3 JUMPI PUSH2 0x4CF2 PUSH2 0x4260 JUMP JUMPDEST JUMPDEST PUSH1 0x20 DUP3 MUL SWAP1 POP PUSH1 0x20 DUP2 ADD SWAP1 POP SWAP2 SWAP1 POP JUMP JUMPDEST PUSH0 DUP2 MLOAD SWAP1 POP PUSH2 0x4D12 DUP2 PUSH2 0x40AF JUMP JUMPDEST SWAP3 SWAP2 POP POP JUMP JUMPDEST PUSH0 PUSH2 0x4D2A PUSH2 0x4D25 DUP5 PUSH2 0x4CD9 JUMP JUMPDEST PUSH2 0x42BE JUMP JUMPDEST SWAP1 POP DUP1 DUP4 DUP3 MSTORE PUSH1 0x20 DUP3 ADD SWAP1 POP PUSH1 0x20 DUP5 MUL DUP4 ADD DUP6 DUP2 GT ISZERO PUSH2 0x4D4D JUMPI PUSH2 0x4D4C PUSH2 0x4303 JUMP JUMPDEST JUMPDEST DUP4 JUMPDEST DUP2 DUP2 LT ISZERO PUSH2 0x4D76 JUMPI DUP1 PUSH2 0x4D62 DUP9 DUP3 PUSH2 0x4D04 JUMP JUMPDEST DUP5 MSTORE PUSH1 0x20 DUP5 ADD SWAP4 POP POP PUSH1 0x20 DUP2 ADD SWAP1 POP PUSH2 0x4D4F JUMP JUMPDEST POP POP POP SWAP4 SWAP3 POP POP POP JUMP JUMPDEST PUSH0 DUP3 PUSH1 0x1F DUP4 ADD SLT PUSH2 0x4D94 JUMPI PUSH2 0x4D93 PUSH2 0x424C JUMP JUMPDEST JUMPDEST DUP2 MLOAD PUSH2 0x4DA4 DUP5 DUP3 PUSH1 0x20 DUP7 ADD PUSH2 0x4D18 JUMP JUMPDEST SWAP2 POP POP SWAP3 SWAP2 POP POP JUMP JUMPDEST PUSH0 DUP1 PUSH0 PUSH1 0x60 DUP5 DUP7 SUB SLT ISZERO PUSH2 0x4DC4 JUMPI PUSH2 0x4DC3 PUSH2 0x4096 JUMP JUMPDEST JUMPDEST PUSH0 PUSH2 0x4DD1 DUP7 DUP3 DUP8 ADD PUSH2 0x4C90 JUMP JUMPDEST SWAP4 POP POP PUSH1 0x20 PUSH2 0x4DE2 DUP7 DUP3 DUP8 ADD PUSH2 0x4CC5 JUMP JUMPDEST SWAP3 POP POP PUSH1 0x40 DUP5 ADD MLOAD PUSH8 0xFFFFFFFFFFFFFFFF DUP2 GT ISZERO PUSH2 0x4E03 JUMPI PUSH2 0x4E02 PUSH2 0x409A JUMP JUMPDEST JUMPDEST PUSH2 0x4E0F DUP7 DUP3 DUP8 ADD PUSH2 0x4D80 JUMP JUMPDEST SWAP2 POP POP SWAP3 POP SWAP3 POP SWAP3 JUMP JUMPDEST PUSH32 0x55736572206E6F7420617070726F766564000000000000000000000000000000 PUSH0 DUP3 ADD MSTORE POP JUMP JUMPDEST PUSH0 PUSH2 0x4E4D PUSH1 0x11 DUP4 PUSH2 0x4BAF JUMP JUMPDEST SWAP2 POP PUSH2 0x4E58 DUP3 PUSH2 0x4E19 JUMP JUMPDEST PUSH1 0x20 DUP3 ADD SWAP1 POP SWAP2 SWAP1 POP JUMP JUMPDEST PUSH0 PUSH1 0x20 DUP3 ADD SWAP1 POP DUP2 DUP2 SUB PUSH0 DUP4 ADD MSTORE PUSH2 0x4E7A DUP2 PUSH2 0x4E41 JUMP JUMPDEST SWAP1 POP SWAP2 SWAP1 POP JUMP JUMPDEST PUSH0 PUSH2 0x4E93 PUSH2 0x4E8E DUP5 PUSH2 0x4313 JUMP JUMPDEST PUSH2 0x42BE JUMP JUMPDEST SWAP1 POP DUP3 DUP2 MSTORE PUSH1 0x20 DUP2 ADD DUP5 DUP5 DUP5 ADD GT ISZERO PUSH2 0x4EAF JUMPI PUSH2 0x4EAE PUSH2 0x430F JUMP JUMPDEST JUMPDEST PUSH2 0x4EBA DUP5 DUP3 DUP6 PUSH2 0x4BBF JUMP JUMPDEST POP SWAP4 SWAP3 POP POP POP JUMP JUMPDEST PUSH0 DUP3 PUSH1 0x1F DUP4 ADD SLT PUSH2 0x4ED6 JUMPI PUSH2 0x4ED5 PUSH2 0x424C JUMP JUMPDEST JUMPDEST DUP2 MLOAD PUSH2 0x4EE6 DUP5 DUP3 PUSH1 0x20 DUP7 ADD PUSH2 0x4E81 JUMP JUMPDEST SWAP2 POP POP SWAP3 SWAP2 POP POP JUMP JUMPDEST PUSH1 0x2 DUP2 LT PUSH2 0x4EFB JUMPI PUSH0 DUP1 REVERT JUMPDEST POP JUMP JUMPDEST PUSH0 DUP2 MLOAD SWAP1 POP PUSH2 0x4F0C DUP2 PUSH2 0x4EEF JUMP JUMPDEST SWAP3 SWAP2 POP POP JUMP JUMPDEST PUSH0 DUP1 PUSH0 DUP1 PUSH0 DUP1 PUSH0 DUP1 PUSH2 0x100 DUP10 DUP12 SUB SLT ISZERO PUSH2 0x4F2F JUMPI PUSH2 0x4F2E PUSH2 0x4096 JUMP JUMPDEST JUMPDEST PUSH0 DUP10 ADD MLOAD PUSH8 0xFFFFFFFFFFFFFFFF DUP2 GT ISZERO PUSH2 0x4F4C JUMPI PUSH2 0x4F4B PUSH2 0x409A JUMP JUMPDEST JUMPDEST PUSH2 0x4F58 DUP12 DUP3 DUP13 ADD PUSH2 0x4EC2 JUMP JUMPDEST SWAP9 POP POP PUSH1 0x20 DUP10 ADD MLOAD PUSH8 0xFFFFFFFFFFFFFFFF DUP2 GT ISZERO PUSH2 0x4F79 JUMPI PUSH2 0x4F78 PUSH2 0x409A JUMP JUMPDEST JUMPDEST PUSH2 0x4F85 DUP12 DUP3 DUP13 ADD PUSH2 0x4EC2 JUMP JUMPDEST SWAP8 POP POP PUSH1 0x40 DUP10 ADD MLOAD PUSH8 0xFFFFFFFFFFFFFFFF DUP2 GT ISZERO PUSH2 0x4FA6 JUMPI PUSH2 0x4FA5 PUSH2 0x409A JUMP JUMPDEST JUMPDEST PUSH2 0x4FB2 DUP12 DUP3 DUP13 ADD PUSH2 0x4EC2 JUMP JUMPDEST SWAP7 POP POP PUSH1 0x60 PUSH2 0x4FC3 DUP12 DUP3 DUP13 ADD PUSH2 0x4D04 JUMP JUMPDEST SWAP6 POP POP PUSH1 0x80 PUSH2 0x4FD4 DUP12 DUP3 DUP13 ADD PUSH2 0x4C90 JUMP JUMPDEST SWAP5 POP POP PUSH1 0xA0 PUSH2 0x4FE5 DUP12 DUP3 DUP13 ADD PUSH2 0x4EFE JUMP JUMPDEST SWAP4 POP POP PUSH1 0xC0 PUSH2 0x4FF6 DUP12 DUP3 DUP13 ADD PUSH2 0x4C90 JUMP JUMPDEST SWAP3 POP POP PUSH1 0xE0 PUSH2 0x5007 DUP12 DUP3 DUP13 ADD PUSH2 0x4D04 JUMP JUMPDEST SWAP2 POP POP SWAP3 SWAP6 SWAP9 POP SWAP3 SWAP6 SWAP9 SWAP1 SWAP4 SWAP7 POP JUMP JUMPDEST PUSH32 0x4E487B7100000000000000000000000000000000000000000000000000000000 PUSH0 MSTORE PUSH1 0x21 PUSH1 0x4 MSTORE PUSH1 0x24 PUSH0 REVERT JUMPDEST PUSH32 0x436F6D6D756E697479206973206E6F7420696E20636F6E747269627574696F6E PUSH0 DUP3 ADD MSTORE PUSH32 0x207375626D697373696F6E207374617465000000000000000000000000000000 PUSH1 0x20 DUP3 ADD MSTORE POP JUMP JUMPDEST PUSH0 PUSH2 0x509E PUSH1 0x31 DUP4 PUSH2 0x4BAF JUMP JUMPDEST SWAP2 POP PUSH2 0x50A9 DUP3 PUSH2 0x5044 JUMP JUMPDEST PUSH1 0x40 DUP3 ADD SWAP1 POP SWAP2 SWAP1 POP JUMP JUMPDEST PUSH0 PUSH1 0x20 DUP3 ADD SWAP1 POP DUP2 DUP2 SUB PUSH0 DUP4 ADD MSTORE PUSH2 0x50CB DUP2 PUSH2 0x5092 JUMP JUMPDEST SWAP1 POP SWAP2 SWAP1 POP JUMP JUMPDEST PUSH32 0x4E487B7100000000000000000000000000000000000000000000000000000000 PUSH0 MSTORE PUSH1 0x32 PUSH1 0x4 MSTORE PUSH1 0x24 PUSH0 REVERT JUMPDEST PUSH32 0x4E487B7100000000000000000000000000000000000000000000000000000000 PUSH0 MSTORE PUSH1 0x22 PUSH1 0x4 MSTORE PUSH1 0x24 PUSH0 REVERT JUMPDEST PUSH0 PUSH1 0x2 DUP3 DIV SWAP1 POP PUSH1 0x1 DUP3 AND DUP1 PUSH2 0x5143 JUMPI PUSH1 0x7F DUP3 AND SWAP2 POP JUMPDEST PUSH1 0x20 DUP3 LT DUP2 SUB PUSH2 0x5156 JUMPI PUSH2 0x5155 PUSH2 0x50FF JUMP JUMPDEST JUMPDEST POP SWAP2 SWAP1 POP JUMP JUMPDEST PUSH0 DUP2 SWAP1 POP DUP2 PUSH0 MSTORE PUSH1 0x20 PUSH0 KECCAK256 SWAP1 POP SWAP2 SWAP1 POP JUMP JUMPDEST PUSH0 PUSH1 0x20 PUSH1 0x1F DUP4 ADD DIV SWAP1 POP SWAP2 SWAP1 POP JUMP JUMPDEST PUSH0 DUP3 DUP3 SHL SWAP1 POP SWAP3 SWAP2 POP POP JUMP JUMPDEST PUSH0 PUSH1 0x8 DUP4 MUL PUSH2 0x51B8 PUSH32 0xFFFFFFFFFFFFFFFFFFFFFFFFFFFFFFFFFFFFFFFFFFFFFFFFFFFFFFFFFFFFFFFF DUP3 PUSH2 0x517D JUMP JUMPDEST PUSH2 0x51C2 DUP7 DUP4 PUSH2 0x517D JUMP JUMPDEST SWAP6 POP DUP1 NOT DUP5 AND SWAP4 POP DUP1 DUP7 AND DUP5 OR SWAP3 POP POP POP SWAP4 SWAP3 POP POP POP JUMP JUMPDEST PUSH0 PUSH2 0x51F4 PUSH2 0x51EF PUSH2 0x51EA DUP5 PUSH2 0x40D9 JUMP JUMPDEST PUSH2 0x4019 JUMP JUMPDEST PUSH2 0x40D9 JUMP JUMPDEST SWAP1 POP SWAP2 SWAP1 POP JUMP JUMPDEST PUSH0 DUP2 SWAP1 POP SWAP2 SWAP1 POP JUMP JUMPDEST PUSH2 0x520D DUP4 PUSH2 0x51DA JUMP JUMPDEST PUSH2 0x5221 PUSH2 0x5219 DUP3 PUSH2 0x51FB JUMP JUMPDEST DUP5 DUP5 SLOAD PUSH2 0x5189 JUMP JUMPDEST DUP3 SSTORE POP POP POP POP JUMP JUMPDEST PUSH0 SWAP1 JUMP JUMPDEST PUSH2 0x5235 PUSH2 0x5229 JUMP JUMPDEST PUSH2 0x5240 DUP2 DUP5 DUP5 PUSH2 0x5204 JUMP JUMPDEST POP POP POP JUMP JUMPDEST JUMPDEST DUP2 DUP2 LT ISZERO PUSH2 0x5263 JUMPI PUSH2 0x5258 PUSH0 DUP3 PUSH2 0x522D JUMP JUMPDEST PUSH1 0x1 DUP2 ADD SWAP1 POP PUSH2 0x5246 JUMP JUMPDEST POP POP JUMP JUMPDEST PUSH1 0x1F DUP3 GT ISZERO PUSH2 0x52A8 JUMPI PUSH2 0x5279 DUP2 PUSH2 0x515C JUMP JUMPDEST PUSH2 0x5282 DUP5 PUSH2 0x516E JUMP JUMPDEST DUP2 ADD PUSH1 0x20 DUP6 LT ISZERO PUSH2 0x5291 JUMPI DUP2 SWAP1 POP JUMPDEST PUSH2 0x52A5 PUSH2 0x529D DUP6 PUSH2 0x516E JUMP JUMPDEST DUP4 ADD DUP3 PUSH2 0x5245 JUMP JUMPDEST POP POP JUMPDEST POP POP POP JUMP JUMPDEST PUSH0 DUP3 DUP3 SHR SWAP1 POP SWAP3 SWAP2 POP POP JUMP JUMPDEST PUSH0 PUSH2 0x52C8 PUSH0 NOT DUP5 PUSH1 0x8 MUL PUSH2 0x52AD JUMP JUMPDEST NOT DUP1 DUP4 AND SWAP2 POP POP SWAP3 SWAP2 POP POP JUMP JUMPDEST PUSH0 PUSH2 0x52E0 DUP4 DUP4 PUSH2 0x52B9 JUMP JUMPDEST SWAP2 POP DUP3 PUSH1 0x2 MUL DUP3 OR SWAP1 POP SWAP3 SWAP2 POP POP JUMP JUMPDEST PUSH2 0x52F9 DUP3 PUSH2 0x4BA5 JUMP JUMPDEST PUSH8 0xFFFFFFFFFFFFFFFF DUP2 GT ISZERO PUSH2 0x5312 JUMPI PUSH2 0x5311 PUSH2 0x4260 JUMP JUMPDEST JUMPDEST PUSH2 0x531C DUP3 SLOAD PUSH2 0x512C JUMP JUMPDEST PUSH2 0x5327 DUP3 DUP3 DUP6 PUSH2 0x5267 JUMP JUMPDEST PUSH0 PUSH1 0x20 SWAP1 POP PUSH1 0x1F DUP4 GT PUSH1 0x1 DUP2 EQ PUSH2 0x5358 JUMPI PUSH0 DUP5 ISZERO PUSH2 0x5346 JUMPI DUP3 DUP8 ADD MLOAD SWAP1 POP JUMPDEST PUSH2 0x5350 DUP6 DUP3 PUSH2 0x52D5 JUMP JUMPDEST DUP7 SSTORE POP PUSH2 0x53B7 JUMP JUMPDEST PUSH1 0x1F NOT DUP5 AND PUSH2 0x5366 DUP7 PUSH2 0x515C JUMP JUMPDEST PUSH0 JUMPDEST DUP3 DUP2 LT ISZERO PUSH2 0x538D JUMPI DUP5 DUP10 ADD MLOAD DUP3 SSTORE PUSH1 0x1 DUP3 ADD SWAP2 POP PUSH1 0x20 DUP6 ADD SWAP5 POP PUSH1 0x20 DUP2 ADD SWAP1 POP PUSH2 0x5368 JUMP JUMPDEST DUP7 DUP4 LT ISZERO PUSH2 0x53AA JUMPI DUP5 DUP10 ADD MLOAD PUSH2 0x53A6 PUSH1 0x1F DUP10 AND DUP3 PUSH2 0x52B9 JUMP JUMPDEST DUP4 SSTORE POP JUMPDEST PUSH1 0x1 PUSH1 0x2 DUP9 MUL ADD DUP9 SSTORE POP POP POP JUMPDEST POP POP POP POP POP POP JUMP JUMPDEST PUSH0 DUP2 SWAP1 POP SWAP3 SWAP2 POP POP JUMP JUMPDEST PUSH0 PUSH2 0x53D3 DUP3 PUSH2 0x4BA5 JUMP JUMPDEST PUSH2 0x53DD DUP2 DUP6 PUSH2 0x53BF JUMP JUMPDEST SWAP4 POP PUSH2 0x53ED DUP2 DUP6 PUSH1 0x20 DUP7 ADD PUSH2 0x4BBF JUMP JUMPDEST DUP1 DUP5 ADD SWAP2 POP POP SWAP3 SWAP2 POP POP JUMP JUMPDEST PUSH32 0x2D00000000000000000000000000000000000000000000000000000000000000 PUSH0 DUP3 ADD MSTORE POP JUMP JUMPDEST PUSH0 PUSH2 0x542D PUSH1 0x1 DUP4 PUSH2 0x53BF JUMP JUMPDEST SWAP2 POP PUSH2 0x5438 DUP3 PUSH2 0x53F9 JUMP JUMPDEST PUSH1 0x1 DUP3 ADD SWAP1 POP SWAP2 SWAP1 POP JUMP JUMPDEST PUSH32 0x2D43000000000000000000000000000000000000000000000000000000000000 PUSH0 DUP3 ADD MSTORE POP JUMP JUMPDEST PUSH0 PUSH2 0x5477 PUSH1 0x2 DUP4 PUSH2 0x53BF JUMP JUMPDEST SWAP2 POP PUSH2 0x5482 DUP3 PUSH2 0x5443 JUMP JUMPDEST PUSH1 0x2 DUP3 ADD SWAP1 POP SWAP2 SWAP1 POP JUMP JUMPDEST PUSH0 PUSH2 0x5498 DUP3 DUP7 PUSH2 0x53C9 JUMP JUMPDEST SWAP2 POP PUSH2 0x54A3 DUP3 PUSH2 0x5421 JUMP JUMPDEST SWAP2 POP PUSH2 0x54AF DUP3 DUP6 PUSH2 0x53C9 JUMP JUMPDEST SWAP2 POP PUSH2 0x54BA DUP3 PUSH2 0x5421 JUMP JUMPDEST SWAP2 POP PUSH2 0x54C6 DUP3 DUP5 PUSH2 0x53C9 JUMP JUMPDEST SWAP2 POP PUSH2 0x54D1 DUP3 PUSH2 0x546B JUMP JUMPDEST SWAP2 POP DUP2 SWAP1 POP SWAP5 SWAP4 POP POP POP POP JUMP JUMPDEST PUSH0 DUP2 MLOAD SWAP1 POP SWAP2 SWAP1 POP JUMP JUMPDEST PUSH0 DUP3 DUP3 MSTORE PUSH1 0x20 DUP3 ADD SWAP1 POP SWAP3 SWAP2 POP POP JUMP JUMPDEST PUSH0 DUP2 SWAP1 POP PUSH1 0x20 DUP3 ADD SWAP1 POP SWAP2 SWAP1 POP JUMP JUMPDEST PUSH0 DUP3 DUP3 MSTORE PUSH1 0x20 DUP3 ADD SWAP1 POP SWAP3 SWAP2 POP POP JUMP JUMPDEST PUSH0 PUSH2 0x5521 DUP3 PUSH2 0x4BA5 JUMP JUMPDEST PUSH2 0x552B DUP2 DUP6 PUSH2 0x5507 JUMP JUMPDEST SWAP4 POP PUSH2 0x553B DUP2 DUP6 PUSH1 0x20 DUP7 ADD PUSH2 0x4BBF JUMP JUMPDEST PUSH2 0x5544 DUP2 PUSH2 0x4250 JUMP JUMPDEST DUP5 ADD SWAP2 POP POP SWAP3 SWAP2 POP POP JUMP JUMPDEST PUSH0 DUP2 MLOAD SWAP1 POP SWAP2 SWAP1 POP JUMP JUMPDEST PUSH0 DUP3 DUP3 MSTORE PUSH1 0x20 DUP3 ADD SWAP1 POP SWAP3 SWAP2 POP POP JUMP JUMPDEST PUSH0 DUP2 SWAP1 POP PUSH1 0x20 DUP3 ADD SWAP1 POP SWAP2 SWAP1 POP JUMP JUMPDEST PUSH0 PUSH2 0x5583 DUP4 DUP4 PUSH2 0x5517 JUMP JUMPDEST SWAP1 POP SWAP3 SWAP2 POP POP JUMP JUMPDEST PUSH0 PUSH1 0x20 DUP3 ADD SWAP1 POP SWAP2 SWAP1 POP JUMP JUMPDEST PUSH0 PUSH2 0x55A1 DUP3 PUSH2 0x554F JUMP JUMPDEST PUSH2 0x55AB DUP2 DUP6 PUSH2 0x5559 JUMP JUMPDEST SWAP4 POP DUP4 PUSH1 0x20 DUP3 MUL DUP6 ADD PUSH2 0x55BD DUP6 PUSH2 0x5569 JUMP JUMPDEST DUP1 PUSH0 JUMPDEST DUP6 DUP2 LT ISZERO PUSH2 0x55F8 JUMPI DUP5 DUP5 SUB DUP10 MSTORE DUP2 MLOAD PUSH2 0x55D9 DUP6 DUP3 PUSH2 0x5578 JUMP JUMPDEST SWAP5 POP PUSH2 0x55E4 DUP4 PUSH2 0x558B JUMP JUMPDEST SWAP3 POP PUSH1 0x20 DUP11 ADD SWAP10 POP POP PUSH1 0x1 DUP2 ADD SWAP1 POP PUSH2 0x55C0 JUMP JUMPDEST POP DUP3 SWAP8 POP DUP8 SWAP6 POP POP POP POP POP POP SWAP3 SWAP2 POP POP JUMP JUMPDEST PUSH0 PUSH1 0x60 DUP4 ADD PUSH0 DUP4 ADD MLOAD DUP5 DUP3 SUB PUSH0 DUP7 ADD MSTORE PUSH2 0x5624 DUP3 DUP3 PUSH2 0x5517 JUMP JUMPDEST SWAP2 POP POP PUSH1 0x20 DUP4 ADD MLOAD DUP5 DUP3 SUB PUSH1 0x20 DUP7 ADD MSTORE PUSH2 0x563E DUP3 DUP3 PUSH2 0x5517 JUMP JUMPDEST SWAP2 POP POP PUSH1 0x40 DUP4 ADD MLOAD DUP5 DUP3 SUB PUSH1 0x40 DUP7 ADD MSTORE PUSH2 0x5658 DUP3 DUP3 PUSH2 0x5597 JUMP JUMPDEST SWAP2 POP POP DUP1 SWAP2 POP POP SWAP3 SWAP2 POP POP JUMP JUMPDEST PUSH0 PUSH2 0x5670 DUP4 DUP4 PUSH2 0x560A JUMP JUMPDEST SWAP1 POP SWAP3 SWAP2 POP POP JUMP JUMPDEST PUSH0 PUSH1 0x20 DUP3 ADD SWAP1 POP SWAP2 SWAP1 POP JUMP JUMPDEST PUSH0 PUSH2 0x568E DUP3 PUSH2 0x54DE JUMP JUMPDEST PUSH2 0x5698 DUP2 DUP6 PUSH2 0x54E8 JUMP JUMPDEST SWAP4 POP DUP4 PUSH1 0x20 DUP3 MUL DUP6 ADD PUSH2 0x56AA DUP6 PUSH2 0x54F8 JUMP JUMPDEST DUP1 PUSH0 JUMPDEST DUP6 DUP2 LT ISZERO PUSH2 0x56E5 JUMPI DUP5 DUP5 SUB DUP10 MSTORE DUP2 MLOAD PUSH2 0x56C6 DUP6 DUP3 PUSH2 0x5665 JUMP JUMPDEST SWAP5 POP PUSH2 0x56D1 DUP4 PUSH2 0x5678 JUMP JUMPDEST SWAP3 POP PUSH1 0x20 DUP11 ADD SWAP10 POP POP PUSH1 0x1 DUP2 ADD SWAP1 POP PUSH2 0x56AD JUMP JUMPDEST POP DUP3 SWAP8 POP DUP8 SWAP6 POP POP POP POP POP POP SWAP3 SWAP2 POP POP JUMP JUMPDEST PUSH0 PUSH1 0x40 DUP3 ADD SWAP1 POP DUP2 DUP2 SUB PUSH0 DUP4 ADD MSTORE PUSH2 0x570F DUP2 DUP6 PUSH2 0x4BCD JUMP JUMPDEST SWAP1 POP DUP2 DUP2 SUB PUSH1 0x20 DUP4 ADD MSTORE PUSH2 0x5723 DUP2 DUP5 PUSH2 0x5684 JUMP JUMPDEST SWAP1 POP SWAP4 SWAP3 POP POP POP JUMP JUMPDEST PUSH0 PUSH2 0x573E PUSH2 0x5739 DUP5 PUSH2 0x43BF JUMP JUMPDEST PUSH2 0x42BE JUMP JUMPDEST SWAP1 POP DUP1 DUP4 DUP3 MSTORE PUSH1 0x20 DUP3 ADD SWAP1 POP PUSH1 0x20 DUP5 MUL DUP4 ADD DUP6 DUP2 GT ISZERO PUSH2 0x5761 JUMPI PUSH2 0x5760 PUSH2 0x4303 JUMP JUMPDEST JUMPDEST DUP4 JUMPDEST DUP2 DUP2 LT ISZERO PUSH2 0x57A8 JUMPI DUP1 MLOAD PUSH8 0xFFFFFFFFFFFFFFFF DUP2 GT ISZERO PUSH2 0x5786 JUMPI PUSH2 0x5785 PUSH2 0x424C JUMP JUMPDEST JUMPDEST DUP1 DUP7 ADD PUSH2 0x5793 DUP10 DUP3 PUSH2 0x4EC2 JUMP JUMPDEST DUP6 MSTORE PUSH1 0x20 DUP6 ADD SWAP5 POP POP POP PUSH1 0x20 DUP2 ADD SWAP1 POP PUSH2 0x5763 JUMP JUMPDEST POP POP POP SWAP4 SWAP3 POP POP POP JUMP JUMPDEST PUSH0 DUP3 PUSH1 0x1F DUP4 ADD SLT PUSH2 0x57C6 JUMPI PUSH2 0x57C5 PUSH2 0x424C JUMP JUMPDEST JUMPDEST DUP2 MLOAD PUSH2 0x57D6 DUP5 DUP3 PUSH1 0x20 DUP7 ADD PUSH2 0x572C JUMP JUMPDEST SWAP2 POP POP SWAP3 SWAP2 POP POP JUMP JUMPDEST PUSH0 DUP1 PUSH1 0x40 DUP4 DUP6 SUB SLT ISZERO PUSH2 0x57F5 JUMPI PUSH2 0x57F4 PUSH2 0x4096 JUMP JUMPDEST JUMPDEST PUSH0 DUP4 ADD MLOAD PUSH8 0xFFFFFFFFFFFFFFFF DUP2 GT ISZERO PUSH2 0x5812 JUMPI PUSH2 0x5811 PUSH2 0x409A JUMP JUMPDEST JUMPDEST PUSH2 0x581E DUP6 DUP3 DUP7 ADD PUSH2 0x4D80 JUMP JUMPDEST SWAP3 POP POP PUSH1 0x20 DUP4 ADD MLOAD PUSH8 0xFFFFFFFFFFFFFFFF DUP2 GT ISZERO PUSH2 0x583F JUMPI PUSH2 0x583E PUSH2 0x409A JUMP JUMPDEST JUMPDEST PUSH2 0x584B DUP6 DUP3 DUP7 ADD PUSH2 0x57B2 JUMP JUMPDEST SWAP2 POP POP SWAP3 POP SWAP3 SWAP1 POP JUMP JUMPDEST PUSH32 0x4E487B7100000000000000000000000000000000000000000000000000000000 PUSH0 MSTORE PUSH1 0x11 PUSH1 0x4 MSTORE PUSH1 0x24 PUSH0 REVERT JUMPDEST PUSH0 PUSH2 0x588C DUP3 PUSH2 0x40D9 JUMP JUMPDEST SWAP2 POP PUSH2 0x5897 DUP4 PUSH2 0x40D9 JUMP JUMPDEST SWAP3 POP DUP3 DUP3 SUB SWAP1 POP DUP2 DUP2 GT ISZERO PUSH2 0x58AF JUMPI PUSH2 0x58AE PUSH2 0x5855 JUMP JUMPDEST JUMPDEST SWAP3 SWAP2 POP POP JUMP JUMPDEST PUSH32 0x4E6F7420696E2072616E6B696E67000000000000000000000000000000000000 PUSH0 DUP3 ADD MSTORE POP JUMP JUMPDEST PUSH0 PUSH2 0x58E9 PUSH1 0xE DUP4 PUSH2 0x4BAF JUMP JUMPDEST SWAP2 POP PUSH2 0x58F4 DUP3 PUSH2 0x58B5 JUMP JUMPDEST PUSH1 0x20 DUP3 ADD SWAP1 POP SWAP2 SWAP1 POP JUMP JUMPDEST PUSH0 PUSH1 0x20 DUP3 ADD SWAP1 POP DUP2 DUP2 SUB PUSH0 DUP4 ADD MSTORE PUSH2 0x5916 DUP2 PUSH2 0x58DD JUMP JUMPDEST SWAP1 POP SWAP2 SWAP1 POP JUMP JUMPDEST PUSH32 0x4E6F20636F6E7472696275746F72730000000000000000000000000000000000 PUSH0 DUP3 ADD MSTORE POP JUMP JUMPDEST PUSH0 PUSH2 0x5951 PUSH1 0xF DUP4 PUSH2 0x4BAF JUMP JUMPDEST SWAP2 POP PUSH2 0x595C DUP3 PUSH2 0x591D JUMP JUMPDEST PUSH1 0x20 DUP3 ADD SWAP1 POP SWAP2 SWAP1 POP JUMP JUMPDEST PUSH0 PUSH1 0x20 DUP3 ADD SWAP1 POP DUP2 DUP2 SUB PUSH0 DUP4 ADD MSTORE PUSH2 0x597E DUP2 PUSH2 0x5945 JUMP JUMPDEST SWAP1 POP SWAP2 SWAP1 POP JUMP JUMPDEST PUSH0 PUSH2 0x5990 DUP3 DUP7 PUSH2 0x53C9 JUMP JUMPDEST SWAP2 POP PUSH2 0x599B DUP3 PUSH2 0x5421 JUMP JUMPDEST SWAP2 POP PUSH2 0x59A7 DUP3 DUP6 PUSH2 0x53C9 JUMP JUMPDEST SWAP2 POP PUSH2 0x59B2 DUP3 PUSH2 0x5421 JUMP JUMPDEST SWAP2 POP PUSH2 0x59BE DUP3 DUP5 PUSH2 0x53C9 JUMP JUMPDEST SWAP2 POP DUP2 SWAP1 POP SWAP5 SWAP4 POP POP POP POP JUMP JUMPDEST PUSH0 PUSH2 0x59D6 DUP3 DUP5 PUSH2 0x53C9 JUMP JUMPDEST SWAP2 POP PUSH2 0x59E1 DUP3 PUSH2 0x546B JUMP JUMPDEST SWAP2 POP DUP2 SWAP1 POP SWAP3 SWAP2 POP POP JUMP JUMPDEST PUSH32 0x2D52000000000000000000000000000000000000000000000000000000000000 PUSH0 DUP3 ADD MSTORE POP JUMP JUMPDEST PUSH0 PUSH2 0x5A20 PUSH1 0x2 DUP4 PUSH2 0x53BF JUMP JUMPDEST SWAP2 POP PUSH2 0x5A2B DUP3 PUSH2 0x59EC JUMP JUMPDEST PUSH1 0x2 DUP3 ADD SWAP1 POP SWAP2 SWAP1 POP JUMP JUMPDEST PUSH0 PUSH2 0x5A41 DUP3 DUP5 PUSH2 0x53C9 JUMP JUMPDEST SWAP2 POP PUSH2 0x5A4C DUP3 PUSH2 0x5A14 JUMP JUMPDEST SWAP2 POP DUP2 SWAP1 POP SWAP3 SWAP2 POP POP JUMP JUMPDEST PUSH0 PUSH2 0x5A61 DUP3 PUSH2 0x40D9 JUMP JUMPDEST SWAP2 POP PUSH32 0xFFFFFFFFFFFFFFFFFFFFFFFFFFFFFFFFFFFFFFFFFFFFFFFFFFFFFFFFFFFFFFFF DUP3 SUB PUSH2 0x5A93 JUMPI PUSH2 0x5A92 PUSH2 0x5855 JUMP JUMPDEST JUMPDEST PUSH1 0x1 DUP3 ADD SWAP1 POP SWAP2 SWAP1 POP JUMP JUMPDEST PUSH0 PUSH2 0x5AA8 DUP3 PUSH2 0x40D9 JUMP JUMPDEST SWAP2 POP PUSH2 0x5AB3 DUP4 PUSH2 0x40D9 JUMP JUMPDEST SWAP3 POP DUP3 DUP3 ADD SWAP1 POP DUP1 DUP3 GT ISZERO PUSH2 0x5ACB JUMPI PUSH2 0x5ACA PUSH2 0x5855 JUMP JUMPDEST JUMPDEST SWAP3 SWAP2 POP POP JUMP JUMPDEST PUSH0 DUP3 DUP3 MSTORE PUSH1 0x20 DUP3 ADD SWAP1 POP SWAP3 SWAP2 POP POP JUMP JUMPDEST PUSH0 PUSH2 0x5AEB DUP3 PUSH2 0x554F JUMP JUMPDEST PUSH2 0x5AF5 DUP2 DUP6 PUSH2 0x5AD1 JUMP JUMPDEST SWAP4 POP DUP4 PUSH1 0x20 DUP3 MUL DUP6 ADD PUSH2 0x5B07 DUP6 PUSH2 0x5569 JUMP JUMPDEST DUP1 PUSH0 JUMPDEST DUP6 DUP2 LT ISZERO PUSH2 0x5B42 JUMPI DUP5 DUP5 SUB DUP10 MSTORE DUP2 MLOAD PUSH2 0x5B23 DUP6 DUP3 PUSH2 0x5578 JUMP JUMPDEST SWAP5 POP PUSH2 0x5B2E DUP4 PUSH2 0x558B JUMP JUMPDEST SWAP3 POP PUSH1 0x20 DUP11 ADD SWAP10 POP POP PUSH1 0x1 DUP2 ADD SWAP1 POP PUSH2 0x5B0A JUMP JUMPDEST POP DUP3 SWAP8 POP DUP8 SWAP6 POP POP POP POP POP POP SWAP3 SWAP2 POP POP JUMP JUMPDEST PUSH0 PUSH1 0x80 DUP3 ADD SWAP1 POP DUP2 DUP2 SUB PUSH0 DUP4 ADD MSTORE PUSH2 0x5B6C DUP2 DUP8 PUSH2 0x4BCD JUMP JUMPDEST SWAP1 POP DUP2 DUP2 SUB PUSH1 0x20 DUP4 ADD MSTORE PUSH2 0x5B80 DUP2 DUP7 PUSH2 0x5AE1 JUMP JUMPDEST SWAP1 POP DUP2 DUP2 SUB PUSH1 0x40 DUP4 ADD MSTORE PUSH2 0x5B94 DUP2 DUP6 PUSH2 0x5AE1 JUMP JUMPDEST SWAP1 POP DUP2 DUP2 SUB PUSH1 0x60 DUP4 ADD MSTORE PUSH2 0x5BA8 DUP2 DUP5 PUSH2 0x5AE1 JUMP JUMPDEST SWAP1 POP SWAP6 SWAP5 POP POP POP POP POP JUMP JUMPDEST PUSH0 PUSH2 0x5BBE DUP3 DUP6 PUSH2 0x53C9 JUMP JUMPDEST SWAP2 POP PUSH2 0x5BC9 DUP3 PUSH2 0x5421 JUMP JUMPDEST SWAP2 POP PUSH2 0x5BD5 DUP3 DUP5 PUSH2 0x53C9 JUMP JUMPDEST SWAP2 POP DUP2 SWAP1 POP SWAP4 SWAP3 POP POP POP JUMP JUMPDEST PUSH0 PUSH1 0x80 DUP3 ADD SWAP1 POP DUP2 DUP2 SUB PUSH0 DUP4 ADD MSTORE PUSH2 0x5BF9 DUP2 DUP8 PUSH2 0x4BCD JUMP JUMPDEST SWAP1 POP DUP2 DUP2 SUB PUSH1 0x20 DUP4 ADD MSTORE PUSH2 0x5C0D DUP2 DUP7 PUSH2 0x5AE1 JUMP JUMPDEST SWAP1 POP DUP2 DUP2 SUB PUSH1 0x40 DUP4 ADD MSTORE PUSH2 0x5C21 DUP2 DUP6 PUSH2 0x5AE1 JUMP JUMPDEST SWAP1 POP DUP2 DUP2 SUB PUSH1 0x60 DUP4 ADD MSTORE PUSH2 0x5C35 DUP2 DUP5 PUSH2 0x4BCD JUMP JUMPDEST SWAP1 POP SWAP6 SWAP5 POP POP POP POP POP JUMP JUMPDEST PUSH0 DUP2 SWAP1 POP SWAP2 SWAP1 POP JUMP JUMPDEST PUSH0 PUSH8 0xFFFFFFFFFFFFFFFF DUP3 AND SWAP1 POP SWAP2 SWAP1 POP JUMP JUMPDEST PUSH0 PUSH2 0x5C76 PUSH2 0x5C71 PUSH2 0x5C6C DUP5 PUSH2 0x5C40 JUMP JUMPDEST PUSH2 0x4019 JUMP JUMPDEST PUSH2 0x5C49 JUMP JUMPDEST SWAP1 POP SWAP2 SWAP1 POP JUMP JUMPDEST PUSH2 0x5C86 DUP2 PUSH2 0x5C5C JUMP JUMPDEST DUP3 MSTORE POP POP JUMP JUMPDEST PUSH0 PUSH1 0x20 DUP3 ADD SWAP1 POP PUSH2 0x5C9F PUSH0 DUP4 ADD DUP5 PUSH2 0x5C7D JUMP JUMPDEST SWAP3 SWAP2 POP POP JUMP JUMPDEST PUSH32 0x4E487B7100000000000000000000000000000000000000000000000000000000 PUSH0 MSTORE PUSH1 0x12 PUSH1 0x4 MSTORE PUSH1 0x24 PUSH0 REVERT JUMPDEST PUSH0 PUSH2 0x5CDC DUP3 PUSH2 0x40D9 JUMP JUMPDEST SWAP2 POP PUSH2 0x5CE7 DUP4 PUSH2 0x40D9 JUMP JUMPDEST SWAP3 POP DUP3 DUP3 MUL PUSH2 0x5CF5 DUP2 PUSH2 0x40D9 JUMP JUMPDEST SWAP2 POP DUP3 DUP3 DIV DUP5 EQ DUP4 ISZERO OR PUSH2 0x5D0C JUMPI PUSH2 0x5D0B PUSH2 0x5855 JUMP JUMPDEST JUMPDEST POP SWAP3 SWAP2 POP POP JUMP JUMPDEST PUSH0 PUSH2 0x5D1D DUP3 PUSH2 0x40D9 JUMP JUMPDEST SWAP2 POP PUSH0 DUP3 SUB PUSH2 0x5D2F JUMPI PUSH2 0x5D2E PUSH2 0x5855 JUMP JUMPDEST JUMPDEST PUSH1 0x1 DUP3 SUB SWAP1 POP SWAP2 SWAP1 POP JUMP JUMPDEST PUSH0 PUSH1 0x40 DUP3 ADD SWAP1 POP PUSH2 0x5D4D PUSH0 DUP4 ADD DUP6 PUSH2 0x414A JUMP JUMPDEST PUSH2 0x5D5A PUSH1 0x20 DUP4 ADD DUP5 PUSH2 0x414A JUMP JUMPDEST SWAP4 SWAP3 POP POP POP JUMP JUMPDEST PUSH2 0x5D6A DUP2 PUSH2 0x4757 JUMP JUMPDEST DUP2 EQ PUSH2 0x5D74 JUMPI PUSH0 DUP1 REVERT JUMPDEST POP JUMP JUMPDEST PUSH0 DUP2 MLOAD SWAP1 POP PUSH2 0x5D85 DUP2 PUSH2 0x5D61 JUMP JUMPDEST SWAP3 SWAP2 POP POP JUMP JUMPDEST PUSH0 PUSH1 0x20 DUP3 DUP5 SUB SLT ISZERO PUSH2 0x5DA0 JUMPI PUSH2 0x5D9F PUSH2 0x4096 JUMP JUMPDEST JUMPDEST PUSH0 PUSH2 0x5DAD DUP5 DUP3 DUP6 ADD PUSH2 0x5D77 JUMP JUMPDEST SWAP2 POP POP SWAP3 SWAP2 POP POP JUMP JUMPDEST PUSH0 DUP2 SWAP1 POP SWAP2 SWAP1 POP JUMP JUMPDEST PUSH2 0x5DD0 PUSH2 0x5DCB DUP3 PUSH2 0x40D9 JUMP JUMPDEST PUSH2 0x5DB6 JUMP JUMPDEST DUP3 MSTORE POP POP JUMP JUMPDEST PUSH0 PUSH2 0x5DE1 DUP3 DUP7 PUSH2 0x5DBF JUMP JUMPDEST PUSH1 0x20 DUP3 ADD SWAP2 POP PUSH2 0x5DF1 DUP3 DUP6 PUSH2 0x5DBF JUMP JUMPDEST PUSH1 0x20 DUP3 ADD SWAP2 POP PUSH2 0x5E01 DUP3 DUP5 PUSH2 0x5DBF JUMP JUMPDEST PUSH1 0x20 DUP3 ADD SWAP2 POP DUP2 SWAP1 POP SWAP5 SWAP4 POP POP POP POP JUMP JUMPDEST PUSH0 PUSH2 0x5E1C DUP3 PUSH2 0x40D9 JUMP JUMPDEST SWAP2 POP PUSH2 0x5E27 DUP4 PUSH2 0x40D9 JUMP JUMPDEST SWAP3 POP DUP3 PUSH2 0x5E37 JUMPI PUSH2 0x5E36 PUSH2 0x5CA5 JUMP JUMPDEST JUMPDEST DUP3 DUP3 MOD SWAP1 POP SWAP3 SWAP2 POP POP JUMP JUMPDEST PUSH0 PUSH2 0x5E4C DUP3 PUSH2 0x40D9 JUMP JUMPDEST SWAP2 POP PUSH2 0x5E57 DUP4 PUSH2 0x40D9 JUMP JUMPDEST SWAP3 POP DUP3 PUSH2 0x5E67 JUMPI PUSH2 0x5E66 PUSH2 0x5CA5 JUMP JUMPDEST JUMPDEST DUP3 DUP3 DIV SWAP1 POP SWAP3 SWAP2 POP POP JUMP JUMPDEST PUSH0 PUSH2 0x5E7C DUP3 PUSH2 0x49D3 JUMP JUMPDEST SWAP2 POP PUSH1 0xFF DUP3 SUB PUSH2 0x5E8F JUMPI PUSH2 0x5E8E PUSH2 0x5855 JUMP JUMPDEST JUMPDEST PUSH1 0x1 DUP3 ADD SWAP1 POP SWAP2 SWAP1 POP JUMP JUMPDEST PUSH0 DUP2 MLOAD SWAP1 POP SWAP2 SWAP1 POP JUMP JUMPDEST PUSH0 DUP2 SWAP1 POP SWAP3 SWAP2 POP POP JUMP JUMPDEST PUSH0 PUSH2 0x5EB8 DUP3 PUSH2 0x5E9A JUMP JUMPDEST PUSH2 0x5EC2 DUP2 DUP6 PUSH2 0x5EA4 JUMP JUMPDEST SWAP4 POP PUSH2 0x5ED2 DUP2 DUP6 PUSH1 0x20 DUP7 ADD PUSH2 0x4BBF JUMP JUMPDEST DUP1 DUP5 ADD SWAP2 POP POP SWAP3 SWAP2 POP POP JUMP JUMPDEST PUSH0 PUSH2 0x5EE9 DUP3 DUP5 PUSH2 0x5EAE JUMP JUMPDEST SWAP2 POP DUP2 SWAP1 POP SWAP3 SWAP2 POP POP JUMP INVALID LOG2 PUSH5 0x6970667358 0x22 SLT KECCAK256 0xE5 0xAD 0xC2 BLOBBASEFEE SWAP7 DUP10 SWAP11 0xF8 0xF8 SIGNEXTEND POP 0x2A 0x29 0xD PUSH8 0x19CFAD4A3DAC44EF MSTORE8 0xAE CALLDATASIZE DUP10 0xC6 SWAP11 0xE6 SHL PUSH2 0x6473 PUSH16 0x6C634300081A00330000000000000000 "
		},
		"gasEstimates": {
			"creation": {
				"codeDepositCost": "4872400",
				"executionCost": "infinite",
				"totalCost": "infinite"
			},
			"external": {
				"UPGRADE_INTERFACE_VERSION()": "infinite",
				"createGroupsForCurrentWeek(uint256)": "infinite",
				"getAverageRespect(address,uint256)": "infinite",
				"getCurrentWeek(uint256)": "infinite",
				"getGroupsForWeek(uint256,uint256)": "infinite",
				"getLastRoomSizes()": "infinite",
				"getUserRespectData(address,uint256)": "infinite",
				"getWeeklyContributors(uint256,uint256)": "infinite",
				"initialize(address)": "infinite",
				"owner()": "2612",
				"profilesContract()": "infinite",
				"proxiableUUID()": "infinite",
				"renounceOwnership()": "infinite",
				"setProfilesContract(address)": "infinite",
				"submitContributions(uint256,(string,string,string[])[])": "infinite",
				"transferOwnership(address)": "infinite",
				"updateAllUsersRespectData(uint256)": "infinite",
				"updateRespectData(uint256,address,uint256,uint256)": "infinite",
				"upgradeToAndCall(address,bytes)": "infinite"
			},
			"internal": {
				"_authorizeUpgrade(address)": "infinite",
				"_updateRespectData(uint256,address,uint256,uint256)": "infinite",
				"determineRoomSizes(uint256)": "infinite",
				"fid(uint256,uint256)": "infinite",
				"genericRoomSizes(uint256)": "infinite",
				"hardcodedRoomSizes(uint256)": "infinite",
				"shuffle(address[] memory)": "infinite",
				"updateAverageRespect(uint256,address)": "infinite"
			}
		},
		"methodIdentifiers": {
			"UPGRADE_INTERFACE_VERSION()": "ad3cb1cc",
			"createGroupsForCurrentWeek(uint256)": "690ec8d1",
			"getAverageRespect(address,uint256)": "d91d9733",
			"getCurrentWeek(uint256)": "c45cfcf1",
			"getGroupsForWeek(uint256,uint256)": "6c331bd3",
			"getLastRoomSizes()": "771197d8",
			"getUserRespectData(address,uint256)": "27a6acd1",
			"getWeeklyContributors(uint256,uint256)": "8ec2c82b",
			"initialize(address)": "c4d66de8",
			"owner()": "8da5cb5b",
			"profilesContract()": "06428f02",
			"proxiableUUID()": "52d1902d",
			"renounceOwnership()": "715018a6",
			"setProfilesContract(address)": "c56b4aed",
			"submitContributions(uint256,(string,string,string[])[])": "3722a0e8",
			"transferOwnership(address)": "f2fde38b",
			"updateAllUsersRespectData(uint256)": "5ae25992",
			"updateRespectData(uint256,address,uint256,uint256)": "9807f9e8",
			"upgradeToAndCall(address,bytes)": "4f1ef286"
		}
	},
	"abi": [
		{
			"inputs": [],
			"stateMutability": "nonpayable",
			"type": "constructor"
		},
		{
			"inputs": [
				{
					"internalType": "address",
					"name": "target",
					"type": "address"
				}
			],
			"name": "AddressEmptyCode",
			"type": "error"
		},
		{
			"inputs": [
				{
					"internalType": "address",
					"name": "implementation",
					"type": "address"
				}
			],
			"name": "ERC1967InvalidImplementation",
			"type": "error"
		},
		{
			"inputs": [],
			"name": "ERC1967NonPayable",
			"type": "error"
		},
		{
			"inputs": [],
			"name": "FailedInnerCall",
			"type": "error"
		},
		{
			"inputs": [],
			"name": "InvalidInitialization",
			"type": "error"
		},
		{
			"inputs": [],
			"name": "NotInitializing",
			"type": "error"
		},
		{
			"inputs": [
				{
					"internalType": "address",
					"name": "owner",
					"type": "address"
				}
			],
			"name": "OwnableInvalidOwner",
			"type": "error"
		},
		{
			"inputs": [
				{
					"internalType": "address",
					"name": "account",
					"type": "address"
				}
			],
			"name": "OwnableUnauthorizedAccount",
			"type": "error"
		},
		{
			"inputs": [
				{
					"internalType": "uint256",
					"name": "value",
					"type": "uint256"
				},
				{
					"internalType": "uint256",
					"name": "length",
					"type": "uint256"
				}
			],
			"name": "StringsInsufficientHexLength",
			"type": "error"
		},
		{
			"inputs": [],
			"name": "UUPSUnauthorizedCallContext",
			"type": "error"
		},
		{
			"inputs": [
				{
					"internalType": "bytes32",
					"name": "slot",
					"type": "bytes32"
				}
			],
			"name": "UUPSUnsupportedProxiableUUID",
			"type": "error"
		},
		{
			"anonymous": false,
			"inputs": [
				{
					"indexed": false,
					"internalType": "string",
					"name": "contributionId",
					"type": "string"
				},
				{
					"components": [
						{
							"internalType": "string",
							"name": "name",
							"type": "string"
						},
						{
							"internalType": "string",
							"name": "description",
							"type": "string"
						},
						{
							"internalType": "string[]",
							"name": "links",
							"type": "string[]"
						}
					],
					"indexed": false,
					"internalType": "struct ICommunityGovernanceContributions.Contribution[]",
					"name": "contributions",
					"type": "tuple[]"
				}
			],
			"name": "ContributionSubmitted",
			"type": "event"
		},
		{
			"anonymous": false,
			"inputs": [
				{
					"indexed": false,
					"internalType": "uint64",
					"name": "version",
					"type": "uint64"
				}
			],
			"name": "Initialized",
			"type": "event"
		},
		{
			"anonymous": false,
			"inputs": [
				{
					"indexed": false,
					"internalType": "string",
					"name": "eventId",
					"type": "string"
				},
				{
					"indexed": false,
					"internalType": "string[]",
					"name": "contributionStrings",
					"type": "string[]"
				},
				{
					"indexed": false,
					"internalType": "string[]",
					"name": "rankingStrings",
					"type": "string[]"
				},
				{
					"indexed": false,
					"internalType": "string[]",
					"name": "memberAddresses",
					"type": "string[]"
				}
			],
			"name": "NewGroupsCreated",
			"type": "event"
		},
		{
			"anonymous": false,
			"inputs": [
				{
					"indexed": true,
					"internalType": "address",
					"name": "previousOwner",
					"type": "address"
				},
				{
					"indexed": true,
					"internalType": "address",
					"name": "newOwner",
					"type": "address"
				}
			],
			"name": "OwnershipTransferred",
			"type": "event"
		},
		{
			"anonymous": false,
			"inputs": [
				{
					"indexed": true,
					"internalType": "address",
					"name": "user",
					"type": "address"
				},
				{
					"indexed": false,
					"internalType": "uint256",
					"name": "totalRespect",
					"type": "uint256"
				},
				{
					"indexed": false,
					"internalType": "uint256",
					"name": "averageRespect",
					"type": "uint256"
				}
			],
			"name": "RespectUpdated",
			"type": "event"
		},
		{
			"anonymous": false,
			"inputs": [
				{
					"indexed": true,
					"internalType": "address",
					"name": "implementation",
					"type": "address"
				}
			],
			"name": "Upgraded",
			"type": "event"
		},
		{
			"anonymous": false,
			"inputs": [
				{
					"indexed": false,
					"internalType": "string",
					"name": "communityAndWeekId",
					"type": "string"
				},
				{
					"indexed": false,
					"internalType": "string[]",
					"name": "roomIds",
					"type": "string[]"
				},
				{
					"indexed": false,
					"internalType": "string[]",
					"name": "roomIdentifiers",
					"type": "string[]"
				},
				{
					"indexed": false,
					"internalType": "string",
					"name": "weekNumber",
					"type": "string"
				}
			],
			"name": "WeeklyGroupsCreated",
			"type": "event"
		},
		{
			"inputs": [],
			"name": "UPGRADE_INTERFACE_VERSION",
			"outputs": [
				{
					"internalType": "string",
					"name": "",
					"type": "string"
				}
			],
			"stateMutability": "view",
			"type": "function"
		},
		{
			"inputs": [
				{
					"internalType": "uint256",
					"name": "_communityId",
					"type": "uint256"
				}
			],
			"name": "createGroupsForCurrentWeek",
			"outputs": [],
			"stateMutability": "nonpayable",
			"type": "function"
		},
		{
			"inputs": [
				{
					"internalType": "address",
					"name": "_user",
					"type": "address"
				},
				{
					"internalType": "uint256",
					"name": "_communityId",
					"type": "uint256"
				}
			],
			"name": "getAverageRespect",
			"outputs": [
				{
					"internalType": "uint256",
					"name": "",
					"type": "uint256"
				}
			],
			"stateMutability": "view",
			"type": "function"
		},
		{
			"inputs": [
				{
					"internalType": "uint256",
					"name": "_communityId",
					"type": "uint256"
				}
			],
			"name": "getCurrentWeek",
			"outputs": [
				{
					"internalType": "uint256",
					"name": "",
					"type": "uint256"
				}
			],
			"stateMutability": "view",
			"type": "function"
		},
		{
			"inputs": [
				{
					"internalType": "uint256",
					"name": "_communityId",
					"type": "uint256"
				},
				{
					"internalType": "uint256",
					"name": "_weekNumber",
					"type": "uint256"
				}
			],
			"name": "getGroupsForWeek",
			"outputs": [
				{
					"components": [
						{
							"internalType": "address[]",
							"name": "members",
							"type": "address[]"
						}
					],
					"internalType": "struct ICommunityGovernanceContributions.Group[]",
					"name": "",
					"type": "tuple[]"
				}
			],
			"stateMutability": "view",
			"type": "function"
		},
		{
			"inputs": [],
			"name": "getLastRoomSizes",
			"outputs": [
				{
					"internalType": "uint8[]",
					"name": "",
					"type": "uint8[]"
				}
			],
			"stateMutability": "view",
			"type": "function"
		},
		{
			"inputs": [
				{
					"internalType": "address",
					"name": "_user",
					"type": "address"
				},
				{
					"internalType": "uint256",
					"name": "_communityId",
					"type": "uint256"
				}
			],
			"name": "getUserRespectData",
			"outputs": [
				{
					"internalType": "uint256",
					"name": "totalRespect",
					"type": "uint256"
				},
				{
					"internalType": "uint256",
					"name": "averageRespect",
					"type": "uint256"
				},
				{
					"internalType": "uint256[]",
					"name": "last12WeeksRespect",
					"type": "uint256[]"
				}
			],
			"stateMutability": "view",
			"type": "function"
		},
		{
			"inputs": [
				{
					"internalType": "uint256",
					"name": "_communityId",
					"type": "uint256"
				},
				{
					"internalType": "uint256",
					"name": "_week",
					"type": "uint256"
				}
			],
			"name": "getWeeklyContributors",
			"outputs": [
				{
					"internalType": "address[]",
					"name": "",
					"type": "address[]"
				}
			],
			"stateMutability": "view",
			"type": "function"
		},
		{
			"inputs": [
				{
					"internalType": "address",
					"name": "initialOwner",
					"type": "address"
				}
			],
			"name": "initialize",
			"outputs": [],
			"stateMutability": "nonpayable",
			"type": "function"
		},
		{
			"inputs": [],
			"name": "owner",
			"outputs": [
				{
					"internalType": "address",
					"name": "",
					"type": "address"
				}
			],
			"stateMutability": "view",
			"type": "function"
		},
		{
			"inputs": [],
			"name": "profilesContract",
			"outputs": [
				{
					"internalType": "contract ICommunityGovernanceProfiles",
					"name": "",
					"type": "address"
				}
			],
			"stateMutability": "view",
			"type": "function"
		},
		{
			"inputs": [],
			"name": "proxiableUUID",
			"outputs": [
				{
					"internalType": "bytes32",
					"name": "",
					"type": "bytes32"
				}
			],
			"stateMutability": "view",
			"type": "function"
		},
		{
			"inputs": [],
			"name": "renounceOwnership",
			"outputs": [],
			"stateMutability": "nonpayable",
			"type": "function"
		},
		{
			"inputs": [
				{
					"internalType": "address",
					"name": "_profilesContractAddress",
					"type": "address"
				}
			],
			"name": "setProfilesContract",
			"outputs": [],
			"stateMutability": "nonpayable",
			"type": "function"
		},
		{
			"inputs": [
				{
					"internalType": "uint256",
					"name": "_communityId",
					"type": "uint256"
				},
				{
					"components": [
						{
							"internalType": "string",
							"name": "name",
							"type": "string"
						},
						{
							"internalType": "string",
							"name": "description",
							"type": "string"
						},
						{
							"internalType": "string[]",
							"name": "links",
							"type": "string[]"
						}
					],
					"internalType": "struct ICommunityGovernanceContributions.Contribution[]",
					"name": "_contributions",
					"type": "tuple[]"
				}
			],
			"name": "submitContributions",
			"outputs": [],
			"stateMutability": "nonpayable",
			"type": "function"
		},
		{
			"inputs": [
				{
					"internalType": "address",
					"name": "newOwner",
					"type": "address"
				}
			],
			"name": "transferOwnership",
			"outputs": [],
			"stateMutability": "nonpayable",
			"type": "function"
		},
		{
			"inputs": [
				{
					"internalType": "uint256",
					"name": "_communityId",
					"type": "uint256"
				}
			],
			"name": "updateAllUsersRespectData",
			"outputs": [],
			"stateMutability": "nonpayable",
			"type": "function"
		},
		{
			"inputs": [
				{
					"internalType": "uint256",
					"name": "_communityId",
					"type": "uint256"
				},
				{
					"internalType": "address",
					"name": "_user",
					"type": "address"
				},
				{
					"internalType": "uint256",
					"name": "_weekNumber",
					"type": "uint256"
				},
				{
					"internalType": "uint256",
					"name": "_respect",
					"type": "uint256"
				}
			],
			"name": "updateRespectData",
			"outputs": [],
			"stateMutability": "nonpayable",
			"type": "function"
		},
		{
			"inputs": [
				{
					"internalType": "address",
					"name": "newImplementation",
					"type": "address"
				},
				{
					"internalType": "bytes",
					"name": "data",
					"type": "bytes"
				}
			],
			"name": "upgradeToAndCall",
			"outputs": [],
			"stateMutability": "payable",
			"type": "function"
		}
	]
}